{
	"contracts/ErrorTriageExercise.sol": {
		"ErrorTriageExercise": {
			"abi": [
				{
					"inputs": [
						{
							"internalType": "uint256",
							"name": "_num",
							"type": "uint256"
						}
					],
					"name": "addToArr",
					"outputs": [],
					"stateMutability": "nonpayable",
					"type": "function"
				},
				{
					"inputs": [
						{
							"internalType": "uint256",
							"name": "_base",
							"type": "uint256"
						},
						{
							"internalType": "int256",
							"name": "_modifier",
							"type": "int256"
						}
					],
					"name": "applyModifier",
					"outputs": [
						{
							"internalType": "uint256",
							"name": "",
							"type": "uint256"
						}
					],
					"stateMutability": "pure",
					"type": "function"
				},
				{
					"inputs": [
						{
							"internalType": "uint256",
							"name": "_a",
							"type": "uint256"
						},
						{
							"internalType": "uint256",
							"name": "_b",
							"type": "uint256"
						},
						{
							"internalType": "uint256",
							"name": "_c",
							"type": "uint256"
						},
						{
							"internalType": "uint256",
							"name": "_d",
							"type": "uint256"
						}
					],
					"name": "diffWithNeighbor",
					"outputs": [
						{
							"internalType": "uint256[]",
							"name": "",
							"type": "uint256[]"
						}
					],
					"stateMutability": "pure",
					"type": "function"
				},
				{
					"inputs": [],
					"name": "getArr",
					"outputs": [
						{
							"internalType": "uint256[]",
							"name": "",
							"type": "uint256[]"
						}
					],
					"stateMutability": "view",
					"type": "function"
				},
				{
					"inputs": [],
					"name": "popWithReturn",
					"outputs": [
						{
							"internalType": "uint256",
							"name": "",
							"type": "uint256"
						}
					],
					"stateMutability": "nonpayable",
					"type": "function"
				},
				{
					"inputs": [],
					"name": "resetArr",
					"outputs": [],
					"stateMutability": "nonpayable",
					"type": "function"
				}
			],
			"devdoc": {
				"kind": "dev",
				"methods": {},
				"version": 1
			},
			"evm": {
				"assembly": "    /* \"contracts/ErrorTriageExercise.sol\":61:1744  contract ErrorTriageExercise {... */\n  mstore(0x40, 0x80)\n  callvalue\n  dup1\n  iszero\n  tag_1\n  jumpi\n  0x00\n  dup1\n  revert\ntag_1:\n  pop\n  dataSize(sub_0)\n  dup1\n  dataOffset(sub_0)\n  0x00\n  codecopy\n  0x00\n  return\nstop\n\nsub_0: assembly {\n        /* \"contracts/ErrorTriageExercise.sol\":61:1744  contract ErrorTriageExercise {... */\n      mstore(0x40, 0x80)\n      callvalue\n      dup1\n      iszero\n      tag_1\n      jumpi\n      0x00\n      dup1\n      revert\n    tag_1:\n      pop\n      jumpi(tag_2, lt(calldatasize, 0x04))\n      shr(0xe0, calldataload(0x00))\n      dup1\n      0x1abe2ac2\n      eq\n      tag_3\n      jumpi\n      dup1\n      0x29432314\n      eq\n      tag_4\n      jumpi\n      dup1\n      0x64529db5\n      eq\n      tag_5\n      jumpi\n      dup1\n      0xe1819ff9\n      eq\n      tag_6\n      jumpi\n      dup1\n      0xf74e51ea\n      eq\n      tag_7\n      jumpi\n      dup1\n      0xfb8cbced\n      eq\n      tag_8\n      jumpi\n    tag_2:\n      0x00\n      dup1\n      revert\n        /* \"contracts/ErrorTriageExercise.sol\":1256:1449  function popWithReturn() public returns (uint) {... */\n    tag_3:\n      tag_9\n      tag_10\n      jump\t// in\n    tag_9:\n      mload(0x40)\n      tag_11\n      swap2\n      swap1\n      tag_12\n      jump\t// in\n    tag_11:\n      mload(0x40)\n      dup1\n      swap2\n      sub\n      swap1\n      return\n        /* \"contracts/ErrorTriageExercise.sol\":290:672  function diffWithNeighbor(... */\n    tag_4:\n      tag_13\n      0x04\n      dup1\n      calldatasize\n      sub\n      dup2\n      add\n      swap1\n      tag_14\n      swap2\n      swap1\n      tag_15\n      jump\t// in\n    tag_14:\n      tag_16\n      jump\t// in\n    tag_13:\n      mload(0x40)\n      tag_17\n      swap2\n      swap1\n      tag_18\n      jump\t// in\n    tag_17:\n      mload(0x40)\n      dup1\n      swap2\n      sub\n      swap1\n      return\n        /* \"contracts/ErrorTriageExercise.sol\":1685:1741  function resetArr() public {... */\n    tag_5:\n      tag_19\n      tag_20\n      jump\t// in\n    tag_19:\n      stop\n        /* \"contracts/ErrorTriageExercise.sol\":1517:1586  function addToArr(uint _num) public {... */\n    tag_6:\n      tag_21\n      0x04\n      dup1\n      calldatasize\n      sub\n      dup2\n      add\n      swap1\n      tag_22\n      swap2\n      swap1\n      tag_23\n      jump\t// in\n    tag_22:\n      tag_24\n      jump\t// in\n    tag_21:\n      stop\n        /* \"contracts/ErrorTriageExercise.sol\":835:1090  function applyModifier(... */\n    tag_7:\n      tag_25\n      0x04\n      dup1\n      calldatasize\n      sub\n      dup2\n      add\n      swap1\n      tag_26\n      swap2\n      swap1\n      tag_27\n      jump\t// in\n    tag_26:\n      tag_28\n      jump\t// in\n    tag_25:\n      mload(0x40)\n      tag_29\n      swap2\n      swap1\n      tag_12\n      jump\t// in\n    tag_29:\n      mload(0x40)\n      dup1\n      swap2\n      sub\n      swap1\n      return\n        /* \"contracts/ErrorTriageExercise.sol\":1594:1677  function getArr() public view returns (uint[] memory) {... */\n    tag_8:\n      tag_30\n      tag_31\n      jump\t// in\n    tag_30:\n      mload(0x40)\n      tag_32\n      swap2\n      swap1\n      tag_18\n      jump\t// in\n    tag_32:\n      mload(0x40)\n      dup1\n      swap2\n      sub\n      swap1\n      return\n        /* \"contracts/ErrorTriageExercise.sol\":1256:1449  function popWithReturn() public returns (uint) {... */\n    tag_10:\n        /* \"contracts/ErrorTriageExercise.sol\":1297:1301  uint */\n      0x00\n        /* \"contracts/ErrorTriageExercise.sol\":1335:1336  0 */\n      dup1\n        /* \"contracts/ErrorTriageExercise.sol\":1322:1325  arr */\n      0x00\n        /* \"contracts/ErrorTriageExercise.sol\":1322:1332  arr.length */\n      dup1\n      sload\n      swap1\n      pop\n        /* \"contracts/ErrorTriageExercise.sol\":1322:1336  arr.length > 0 */\n      gt\n        /* \"contracts/ErrorTriageExercise.sol\":1314:1355  require(arr.length > 0, \"Array is empty\") */\n      tag_34\n      jumpi\n      mload(0x40)\n      0x08c379a000000000000000000000000000000000000000000000000000000000\n      dup2\n      mstore\n      0x04\n      add\n      tag_35\n      swap1\n      tag_36\n      jump\t// in\n    tag_35:\n      mload(0x40)\n      dup1\n      swap2\n      sub\n      swap1\n      revert\n    tag_34:\n        /* \"contracts/ErrorTriageExercise.sol\":1366:1376  uint value */\n      0x00\n        /* \"contracts/ErrorTriageExercise.sol\":1379:1382  arr */\n      dup1\n        /* \"contracts/ErrorTriageExercise.sol\":1396:1397  1 */\n      0x01\n        /* \"contracts/ErrorTriageExercise.sol\":1383:1386  arr */\n      0x00\n        /* \"contracts/ErrorTriageExercise.sol\":1383:1393  arr.length */\n      dup1\n      sload\n      swap1\n      pop\n        /* \"contracts/ErrorTriageExercise.sol\":1383:1397  arr.length - 1 */\n      tag_37\n      swap2\n      swap1\n      tag_38\n      jump\t// in\n    tag_37:\n        /* \"contracts/ErrorTriageExercise.sol\":1379:1398  arr[arr.length - 1] */\n      dup2\n      sload\n      dup2\n      lt\n      tag_39\n      jumpi\n      tag_40\n      tag_41\n      jump\t// in\n    tag_40:\n    tag_39:\n      swap1\n      0x00\n      mstore\n      keccak256(0x00, 0x20)\n      add\n      sload\n        /* \"contracts/ErrorTriageExercise.sol\":1366:1398  uint value = arr[arr.length - 1] */\n      swap1\n      pop\n        /* \"contracts/ErrorTriageExercise.sol\":1409:1412  arr */\n      0x00\n        /* \"contracts/ErrorTriageExercise.sol\":1409:1418  arr.pop() */\n      dup1\n      sload\n      dup1\n      tag_43\n      jumpi\n      tag_44\n      tag_45\n      jump\t// in\n    tag_44:\n    tag_43:\n      0x01\n      swap1\n      sub\n      dup2\n      dup2\n      swap1\n      0x00\n      mstore\n      keccak256(0x00, 0x20)\n      add\n      0x00\n      swap1\n      sstore\n      swap1\n      sstore\n        /* \"contracts/ErrorTriageExercise.sol\":1436:1441  value */\n      dup1\n        /* \"contracts/ErrorTriageExercise.sol\":1429:1441  return value */\n      swap2\n      pop\n      pop\n        /* \"contracts/ErrorTriageExercise.sol\":1256:1449  function popWithReturn() public returns (uint) {... */\n      swap1\n      jump\t// out\n        /* \"contracts/ErrorTriageExercise.sol\":290:672  function diffWithNeighbor(... */\n    tag_16:\n        /* \"contracts/ErrorTriageExercise.sol\":416:429  uint[] memory */\n      0x60\n        /* \"contracts/ErrorTriageExercise.sol\":442:463  uint[] memory results */\n      0x00\n        /* \"contracts/ErrorTriageExercise.sol\":477:478  3 */\n      0x03\n        /* \"contracts/ErrorTriageExercise.sol\":466:479  new uint[](3) */\n      0xffffffffffffffff\n      dup2\n      gt\n      iszero\n      tag_48\n      jumpi\n      tag_49\n      tag_50\n      jump\t// in\n    tag_49:\n    tag_48:\n      mload(0x40)\n      swap1\n      dup1\n      dup3\n      mstore\n      dup1\n      0x20\n      mul\n      0x20\n      add\n      dup3\n      add\n      0x40\n      mstore\n      dup1\n      iszero\n      tag_51\n      jumpi\n      dup2\n      0x20\n      add\n      0x20\n      dup3\n      mul\n      dup1\n      calldatasize\n      dup4\n      calldatacopy\n      dup1\n      dup3\n      add\n      swap2\n      pop\n      pop\n      swap1\n      pop\n    tag_51:\n      pop\n        /* \"contracts/ErrorTriageExercise.sol\":442:479  uint[] memory results = new uint[](3) */\n      swap1\n      pop\n        /* \"contracts/ErrorTriageExercise.sol\":511:513  _b */\n      dup5\n        /* \"contracts/ErrorTriageExercise.sol\":505:507  _a */\n      dup7\n        /* \"contracts/ErrorTriageExercise.sol\":505:513  _a >= _b */\n      lt\n      iszero\n        /* \"contracts/ErrorTriageExercise.sol\":505:533  _a >= _b ? _a - _b : _b - _a */\n      tag_52\n      jumpi\n        /* \"contracts/ErrorTriageExercise.sol\":531:533  _a */\n      dup6\n        /* \"contracts/ErrorTriageExercise.sol\":526:528  _b */\n      dup6\n        /* \"contracts/ErrorTriageExercise.sol\":526:533  _b - _a */\n      tag_53\n      swap2\n      swap1\n      tag_38\n      jump\t// in\n    tag_53:\n        /* \"contracts/ErrorTriageExercise.sol\":505:533  _a >= _b ? _a - _b : _b - _a */\n      jump(tag_54)\n    tag_52:\n        /* \"contracts/ErrorTriageExercise.sol\":521:523  _b */\n      dup5\n        /* \"contracts/ErrorTriageExercise.sol\":516:518  _a */\n      dup7\n        /* \"contracts/ErrorTriageExercise.sol\":516:523  _a - _b */\n      tag_55\n      swap2\n      swap1\n      tag_38\n      jump\t// in\n    tag_55:\n        /* \"contracts/ErrorTriageExercise.sol\":505:533  _a >= _b ? _a - _b : _b - _a */\n    tag_54:\n        /* \"contracts/ErrorTriageExercise.sol\":492:499  results */\n      dup2\n        /* \"contracts/ErrorTriageExercise.sol\":500:501  0 */\n      0x00\n        /* \"contracts/ErrorTriageExercise.sol\":492:502  results[0] */\n      dup2\n      mload\n      dup2\n      lt\n      tag_56\n      jumpi\n      tag_57\n      tag_41\n      jump\t// in\n    tag_57:\n    tag_56:\n      0x20\n      mul\n      0x20\n      add\n      add\n        /* \"contracts/ErrorTriageExercise.sol\":492:533  results[0] = _a >= _b ? _a - _b : _b - _a */\n      dup2\n      dup2\n      mstore\n      pop\n      pop\n        /* \"contracts/ErrorTriageExercise.sol\":563:565  _c */\n      dup4\n        /* \"contracts/ErrorTriageExercise.sol\":557:559  _b */\n      dup6\n        /* \"contracts/ErrorTriageExercise.sol\":557:565  _b >= _c */\n      lt\n      iszero\n        /* \"contracts/ErrorTriageExercise.sol\":557:585  _b >= _c ? _b - _c : _c - _b */\n      tag_58\n      jumpi\n        /* \"contracts/ErrorTriageExercise.sol\":583:585  _b */\n      dup5\n        /* \"contracts/ErrorTriageExercise.sol\":578:580  _c */\n      dup5\n        /* \"contracts/ErrorTriageExercise.sol\":578:585  _c - _b */\n      tag_59\n      swap2\n      swap1\n      tag_38\n      jump\t// in\n    tag_59:\n        /* \"contracts/ErrorTriageExercise.sol\":557:585  _b >= _c ? _b - _c : _c - _b */\n      jump(tag_60)\n    tag_58:\n        /* \"contracts/ErrorTriageExercise.sol\":573:575  _c */\n      dup4\n        /* \"contracts/ErrorTriageExercise.sol\":568:570  _b */\n      dup6\n        /* \"contracts/ErrorTriageExercise.sol\":568:575  _b - _c */\n      tag_61\n      swap2\n      swap1\n      tag_38\n      jump\t// in\n    tag_61:\n        /* \"contracts/ErrorTriageExercise.sol\":557:585  _b >= _c ? _b - _c : _c - _b */\n    tag_60:\n        /* \"contracts/ErrorTriageExercise.sol\":544:551  results */\n      dup2\n        /* \"contracts/ErrorTriageExercise.sol\":552:553  1 */\n      0x01\n        /* \"contracts/ErrorTriageExercise.sol\":544:554  results[1] */\n      dup2\n      mload\n      dup2\n      lt\n      tag_62\n      jumpi\n      tag_63\n      tag_41\n      jump\t// in\n    tag_63:\n    tag_62:\n      0x20\n      mul\n      0x20\n      add\n      add\n        /* \"contracts/ErrorTriageExercise.sol\":544:585  results[1] = _b >= _c ? _b - _c : _c - _b */\n      dup2\n      dup2\n      mstore\n      pop\n      pop\n        /* \"contracts/ErrorTriageExercise.sol\":615:617  _d */\n      dup3\n        /* \"contracts/ErrorTriageExercise.sol\":609:611  _c */\n      dup5\n        /* \"contracts/ErrorTriageExercise.sol\":609:617  _c >= _d */\n      lt\n      iszero\n        /* \"contracts/ErrorTriageExercise.sol\":609:637  _c >= _d ? _c - _d : _d - _c */\n      tag_64\n      jumpi\n        /* \"contracts/ErrorTriageExercise.sol\":635:637  _c */\n      dup4\n        /* \"contracts/ErrorTriageExercise.sol\":630:632  _d */\n      dup4\n        /* \"contracts/ErrorTriageExercise.sol\":630:637  _d - _c */\n      tag_65\n      swap2\n      swap1\n      tag_38\n      jump\t// in\n    tag_65:\n        /* \"contracts/ErrorTriageExercise.sol\":609:637  _c >= _d ? _c - _d : _d - _c */\n      jump(tag_66)\n    tag_64:\n        /* \"contracts/ErrorTriageExercise.sol\":625:627  _d */\n      dup3\n        /* \"contracts/ErrorTriageExercise.sol\":620:622  _c */\n      dup5\n        /* \"contracts/ErrorTriageExercise.sol\":620:627  _c - _d */\n      tag_67\n      swap2\n      swap1\n      tag_38\n      jump\t// in\n    tag_67:\n        /* \"contracts/ErrorTriageExercise.sol\":609:637  _c >= _d ? _c - _d : _d - _c */\n    tag_66:\n        /* \"contracts/ErrorTriageExercise.sol\":596:603  results */\n      dup2\n        /* \"contracts/ErrorTriageExercise.sol\":604:605  2 */\n      0x02\n        /* \"contracts/ErrorTriageExercise.sol\":596:606  results[2] */\n      dup2\n      mload\n      dup2\n      lt\n      tag_68\n      jumpi\n      tag_69\n      tag_41\n      jump\t// in\n    tag_69:\n    tag_68:\n      0x20\n      mul\n      0x20\n      add\n      add\n        /* \"contracts/ErrorTriageExercise.sol\":596:637  results[2] = _c >= _d ? _c - _d : _d - _c */\n      dup2\n      dup2\n      mstore\n      pop\n      pop\n        /* \"contracts/ErrorTriageExercise.sol\":657:664  results */\n      dup1\n        /* \"contracts/ErrorTriageExercise.sol\":650:664  return results */\n      swap2\n      pop\n      pop\n        /* \"contracts/ErrorTriageExercise.sol\":290:672  function diffWithNeighbor(... */\n      swap5\n      swap4\n      pop\n      pop\n      pop\n      pop\n      jump\t// out\n        /* \"contracts/ErrorTriageExercise.sol\":1685:1741  function resetArr() public {... */\n    tag_20:\n        /* \"contracts/ErrorTriageExercise.sol\":1730:1733  arr */\n      0x00\n      dup1\n        /* \"contracts/ErrorTriageExercise.sol\":1723:1733  delete arr */\n      tag_71\n      swap2\n      swap1\n      tag_72\n      jump\t// in\n    tag_71:\n        /* \"contracts/ErrorTriageExercise.sol\":1685:1741  function resetArr() public {... */\n      jump\t// out\n        /* \"contracts/ErrorTriageExercise.sol\":1517:1586  function addToArr(uint _num) public {... */\n    tag_24:\n        /* \"contracts/ErrorTriageExercise.sol\":1564:1567  arr */\n      0x00\n        /* \"contracts/ErrorTriageExercise.sol\":1573:1577  _num */\n      dup2\n        /* \"contracts/ErrorTriageExercise.sol\":1564:1578  arr.push(_num) */\n      swap1\n      dup1\n      0x01\n      dup2\n      sload\n      add\n      dup1\n      dup3\n      sstore\n      dup1\n      swap2\n      pop\n      pop\n      0x01\n      swap1\n      sub\n      swap1\n      0x00\n      mstore\n      keccak256(0x00, 0x20)\n      add\n      0x00\n      swap1\n      swap2\n      swap1\n      swap2\n      swap1\n      swap2\n      pop\n      sstore\n        /* \"contracts/ErrorTriageExercise.sol\":1517:1586  function addToArr(uint _num) public {... */\n      pop\n      jump\t// out\n        /* \"contracts/ErrorTriageExercise.sol\":835:1090  function applyModifier(... */\n    tag_28:\n        /* \"contracts/ErrorTriageExercise.sol\":931:935  uint */\n      0x00\n        /* \"contracts/ErrorTriageExercise.sol\":948:958  int result */\n      dup1\n        /* \"contracts/ErrorTriageExercise.sol\":974:983  _modifier */\n      dup3\n        /* \"contracts/ErrorTriageExercise.sol\":965:970  _base */\n      dup5\n        /* \"contracts/ErrorTriageExercise.sol\":961:983  int(_base) + _modifier */\n      tag_76\n      swap2\n      swap1\n      tag_77\n      jump\t// in\n    tag_76:\n        /* \"contracts/ErrorTriageExercise.sol\":948:983  int result = int(_base) + _modifier */\n      swap1\n      pop\n        /* \"contracts/ErrorTriageExercise.sol\":1012:1013  0 */\n      0x00\n        /* \"contracts/ErrorTriageExercise.sol\":1002:1008  result */\n      dup2\n        /* \"contracts/ErrorTriageExercise.sol\":1002:1013  result >= 0 */\n      slt\n      iszero\n        /* \"contracts/ErrorTriageExercise.sol\":994:1052  require(result >= 0, \"Resulting value cannot be negative\") */\n      tag_78\n      jumpi\n      mload(0x40)\n      0x08c379a000000000000000000000000000000000000000000000000000000000\n      dup2\n      mstore\n      0x04\n      add\n      tag_79\n      swap1\n      tag_80\n      jump\t// in\n    tag_79:\n      mload(0x40)\n      dup1\n      swap2\n      sub\n      swap1\n      revert\n    tag_78:\n        /* \"contracts/ErrorTriageExercise.sol\":1075:1081  result */\n      dup1\n        /* \"contracts/ErrorTriageExercise.sol\":1063:1082  return uint(result) */\n      swap2\n      pop\n      pop\n        /* \"contracts/ErrorTriageExercise.sol\":835:1090  function applyModifier(... */\n      swap3\n      swap2\n      pop\n      pop\n      jump\t// out\n        /* \"contracts/ErrorTriageExercise.sol\":1594:1677  function getArr() public view returns (uint[] memory) {... */\n    tag_31:\n        /* \"contracts/ErrorTriageExercise.sol\":1633:1646  uint[] memory */\n      0x60\n        /* \"contracts/ErrorTriageExercise.sol\":1666:1669  arr */\n      0x00\n        /* \"contracts/ErrorTriageExercise.sol\":1659:1669  return arr */\n      dup1\n      sload\n      dup1\n      0x20\n      mul\n      0x20\n      add\n      mload(0x40)\n      swap1\n      dup2\n      add\n      0x40\n      mstore\n      dup1\n      swap3\n      swap2\n      swap1\n      dup2\n      dup2\n      mstore\n      0x20\n      add\n      dup3\n      dup1\n      sload\n      dup1\n      iszero\n      tag_82\n      jumpi\n      0x20\n      mul\n      dup3\n      add\n      swap2\n      swap1\n      0x00\n      mstore\n      keccak256(0x00, 0x20)\n      swap1\n    tag_83:\n      dup2\n      sload\n      dup2\n      mstore\n      0x20\n      add\n      swap1\n      0x01\n      add\n      swap1\n      dup1\n      dup4\n      gt\n      tag_83\n      jumpi\n    tag_82:\n      pop\n      pop\n      pop\n      pop\n      pop\n      swap1\n      pop\n        /* \"contracts/ErrorTriageExercise.sol\":1594:1677  function getArr() public view returns (uint[] memory) {... */\n      swap1\n      jump\t// out\n    tag_72:\n      pop\n      dup1\n      sload\n      0x00\n      dup3\n      sstore\n      swap1\n      0x00\n      mstore\n      keccak256(0x00, 0x20)\n      swap1\n      dup2\n      add\n      swap1\n      tag_85\n      swap2\n      swap1\n      tag_86\n      jump\t// in\n    tag_85:\n      pop\n      jump\t// out\n    tag_86:\n    tag_87:\n      dup1\n      dup3\n      gt\n      iszero\n      tag_88\n      jumpi\n      0x00\n      dup2\n      0x00\n      swap1\n      sstore\n      pop\n      0x01\n      add\n      jump(tag_87)\n    tag_88:\n      pop\n      swap1\n      jump\t// out\n        /* \"#utility.yul\":7:84   */\n    tag_89:\n        /* \"#utility.yul\":44:51   */\n      0x00\n        /* \"#utility.yul\":73:78   */\n      dup2\n        /* \"#utility.yul\":62:78   */\n      swap1\n      pop\n        /* \"#utility.yul\":7:84   */\n      swap2\n      swap1\n      pop\n      jump\t// out\n        /* \"#utility.yul\":90:208   */\n    tag_90:\n        /* \"#utility.yul\":177:201   */\n      tag_115\n        /* \"#utility.yul\":195:200   */\n      dup2\n        /* \"#utility.yul\":177:201   */\n      tag_89\n      jump\t// in\n    tag_115:\n        /* \"#utility.yul\":172:175   */\n      dup3\n        /* \"#utility.yul\":165:202   */\n      mstore\n        /* \"#utility.yul\":90:208   */\n      pop\n      pop\n      jump\t// out\n        /* \"#utility.yul\":214:436   */\n    tag_12:\n        /* \"#utility.yul\":307:311   */\n      0x00\n        /* \"#utility.yul\":345:347   */\n      0x20\n        /* \"#utility.yul\":334:343   */\n      dup3\n        /* \"#utility.yul\":330:348   */\n      add\n        /* \"#utility.yul\":322:348   */\n      swap1\n      pop\n        /* \"#utility.yul\":358:429   */\n      tag_117\n        /* \"#utility.yul\":426:427   */\n      0x00\n        /* \"#utility.yul\":415:424   */\n      dup4\n        /* \"#utility.yul\":411:428   */\n      add\n        /* \"#utility.yul\":402:408   */\n      dup5\n        /* \"#utility.yul\":358:429   */\n      tag_90\n      jump\t// in\n    tag_117:\n        /* \"#utility.yul\":214:436   */\n      swap3\n      swap2\n      pop\n      pop\n      jump\t// out\n        /* \"#utility.yul\":523:640   */\n    tag_92:\n        /* \"#utility.yul\":632:633   */\n      0x00\n        /* \"#utility.yul\":629:630   */\n      dup1\n        /* \"#utility.yul\":622:634   */\n      revert\n        /* \"#utility.yul\":769:891   */\n    tag_94:\n        /* \"#utility.yul\":842:866   */\n      tag_122\n        /* \"#utility.yul\":860:865   */\n      dup2\n        /* \"#utility.yul\":842:866   */\n      tag_89\n      jump\t// in\n    tag_122:\n        /* \"#utility.yul\":835:840   */\n      dup2\n        /* \"#utility.yul\":832:867   */\n      eq\n        /* \"#utility.yul\":822:885   */\n      tag_123\n      jumpi\n        /* \"#utility.yul\":881:882   */\n      0x00\n        /* \"#utility.yul\":878:879   */\n      dup1\n        /* \"#utility.yul\":871:883   */\n      revert\n        /* \"#utility.yul\":822:885   */\n    tag_123:\n        /* \"#utility.yul\":769:891   */\n      pop\n      jump\t// out\n        /* \"#utility.yul\":897:1036   */\n    tag_95:\n        /* \"#utility.yul\":943:948   */\n      0x00\n        /* \"#utility.yul\":981:987   */\n      dup2\n        /* \"#utility.yul\":968:988   */\n      calldataload\n        /* \"#utility.yul\":959:988   */\n      swap1\n      pop\n        /* \"#utility.yul\":997:1030   */\n      tag_125\n        /* \"#utility.yul\":1024:1029   */\n      dup2\n        /* \"#utility.yul\":997:1030   */\n      tag_94\n      jump\t// in\n    tag_125:\n        /* \"#utility.yul\":897:1036   */\n      swap3\n      swap2\n      pop\n      pop\n      jump\t// out\n        /* \"#utility.yul\":1042:1807   */\n    tag_15:\n        /* \"#utility.yul\":1128:1134   */\n      0x00\n        /* \"#utility.yul\":1136:1142   */\n      dup1\n        /* \"#utility.yul\":1144:1150   */\n      0x00\n        /* \"#utility.yul\":1152:1158   */\n      dup1\n        /* \"#utility.yul\":1201:1204   */\n      0x80\n        /* \"#utility.yul\":1189:1198   */\n      dup6\n        /* \"#utility.yul\":1180:1187   */\n      dup8\n        /* \"#utility.yul\":1176:1199   */\n      sub\n        /* \"#utility.yul\":1172:1205   */\n      slt\n        /* \"#utility.yul\":1169:1289   */\n      iszero\n      tag_127\n      jumpi\n        /* \"#utility.yul\":1208:1287   */\n      tag_128\n      tag_92\n      jump\t// in\n    tag_128:\n        /* \"#utility.yul\":1169:1289   */\n    tag_127:\n        /* \"#utility.yul\":1328:1329   */\n      0x00\n        /* \"#utility.yul\":1353:1406   */\n      tag_129\n        /* \"#utility.yul\":1398:1405   */\n      dup8\n        /* \"#utility.yul\":1389:1395   */\n      dup3\n        /* \"#utility.yul\":1378:1387   */\n      dup9\n        /* \"#utility.yul\":1374:1396   */\n      add\n        /* \"#utility.yul\":1353:1406   */\n      tag_95\n      jump\t// in\n    tag_129:\n        /* \"#utility.yul\":1343:1406   */\n      swap5\n      pop\n        /* \"#utility.yul\":1299:1416   */\n      pop\n        /* \"#utility.yul\":1455:1457   */\n      0x20\n        /* \"#utility.yul\":1481:1534   */\n      tag_130\n        /* \"#utility.yul\":1526:1533   */\n      dup8\n        /* \"#utility.yul\":1517:1523   */\n      dup3\n        /* \"#utility.yul\":1506:1515   */\n      dup9\n        /* \"#utility.yul\":1502:1524   */\n      add\n        /* \"#utility.yul\":1481:1534   */\n      tag_95\n      jump\t// in\n    tag_130:\n        /* \"#utility.yul\":1471:1534   */\n      swap4\n      pop\n        /* \"#utility.yul\":1426:1544   */\n      pop\n        /* \"#utility.yul\":1583:1585   */\n      0x40\n        /* \"#utility.yul\":1609:1662   */\n      tag_131\n        /* \"#utility.yul\":1654:1661   */\n      dup8\n        /* \"#utility.yul\":1645:1651   */\n      dup3\n        /* \"#utility.yul\":1634:1643   */\n      dup9\n        /* \"#utility.yul\":1630:1652   */\n      add\n        /* \"#utility.yul\":1609:1662   */\n      tag_95\n      jump\t// in\n    tag_131:\n        /* \"#utility.yul\":1599:1662   */\n      swap3\n      pop\n        /* \"#utility.yul\":1554:1672   */\n      pop\n        /* \"#utility.yul\":1711:1713   */\n      0x60\n        /* \"#utility.yul\":1737:1790   */\n      tag_132\n        /* \"#utility.yul\":1782:1789   */\n      dup8\n        /* \"#utility.yul\":1773:1779   */\n      dup3\n        /* \"#utility.yul\":1762:1771   */\n      dup9\n        /* \"#utility.yul\":1758:1780   */\n      add\n        /* \"#utility.yul\":1737:1790   */\n      tag_95\n      jump\t// in\n    tag_132:\n        /* \"#utility.yul\":1727:1790   */\n      swap2\n      pop\n        /* \"#utility.yul\":1682:1800   */\n      pop\n        /* \"#utility.yul\":1042:1807   */\n      swap3\n      swap6\n      swap2\n      swap5\n      pop\n      swap3\n      pop\n      jump\t// out\n        /* \"#utility.yul\":1813:1927   */\n    tag_96:\n        /* \"#utility.yul\":1880:1886   */\n      0x00\n        /* \"#utility.yul\":1914:1919   */\n      dup2\n        /* \"#utility.yul\":1908:1920   */\n      mload\n        /* \"#utility.yul\":1898:1920   */\n      swap1\n      pop\n        /* \"#utility.yul\":1813:1927   */\n      swap2\n      swap1\n      pop\n      jump\t// out\n        /* \"#utility.yul\":1933:2117   */\n    tag_97:\n        /* \"#utility.yul\":2032:2043   */\n      0x00\n        /* \"#utility.yul\":2066:2072   */\n      dup3\n        /* \"#utility.yul\":2061:2064   */\n      dup3\n        /* \"#utility.yul\":2054:2073   */\n      mstore\n        /* \"#utility.yul\":2106:2110   */\n      0x20\n        /* \"#utility.yul\":2101:2104   */\n      dup3\n        /* \"#utility.yul\":2097:2111   */\n      add\n        /* \"#utility.yul\":2082:2111   */\n      swap1\n      pop\n        /* \"#utility.yul\":1933:2117   */\n      swap3\n      swap2\n      pop\n      pop\n      jump\t// out\n        /* \"#utility.yul\":2123:2255   */\n    tag_98:\n        /* \"#utility.yul\":2190:2194   */\n      0x00\n        /* \"#utility.yul\":2213:2216   */\n      dup2\n        /* \"#utility.yul\":2205:2216   */\n      swap1\n      pop\n        /* \"#utility.yul\":2243:2247   */\n      0x20\n        /* \"#utility.yul\":2238:2241   */\n      dup3\n        /* \"#utility.yul\":2234:2248   */\n      add\n        /* \"#utility.yul\":2226:2248   */\n      swap1\n      pop\n        /* \"#utility.yul\":2123:2255   */\n      swap2\n      swap1\n      pop\n      jump\t// out\n        /* \"#utility.yul\":2261:2369   */\n    tag_99:\n        /* \"#utility.yul\":2338:2362   */\n      tag_137\n        /* \"#utility.yul\":2356:2361   */\n      dup2\n        /* \"#utility.yul\":2338:2362   */\n      tag_89\n      jump\t// in\n    tag_137:\n        /* \"#utility.yul\":2333:2336   */\n      dup3\n        /* \"#utility.yul\":2326:2363   */\n      mstore\n        /* \"#utility.yul\":2261:2369   */\n      pop\n      pop\n      jump\t// out\n        /* \"#utility.yul\":2375:2554   */\n    tag_100:\n        /* \"#utility.yul\":2444:2454   */\n      0x00\n        /* \"#utility.yul\":2465:2511   */\n      tag_139\n        /* \"#utility.yul\":2507:2510   */\n      dup4\n        /* \"#utility.yul\":2499:2505   */\n      dup4\n        /* \"#utility.yul\":2465:2511   */\n      tag_99\n      jump\t// in\n    tag_139:\n        /* \"#utility.yul\":2543:2547   */\n      0x20\n        /* \"#utility.yul\":2538:2541   */\n      dup4\n        /* \"#utility.yul\":2534:2548   */\n      add\n        /* \"#utility.yul\":2520:2548   */\n      swap1\n      pop\n        /* \"#utility.yul\":2375:2554   */\n      swap3\n      swap2\n      pop\n      pop\n      jump\t// out\n        /* \"#utility.yul\":2560:2673   */\n    tag_101:\n        /* \"#utility.yul\":2630:2634   */\n      0x00\n        /* \"#utility.yul\":2662:2666   */\n      0x20\n        /* \"#utility.yul\":2657:2660   */\n      dup3\n        /* \"#utility.yul\":2653:2667   */\n      add\n        /* \"#utility.yul\":2645:2667   */\n      swap1\n      pop\n        /* \"#utility.yul\":2560:2673   */\n      swap2\n      swap1\n      pop\n      jump\t// out\n        /* \"#utility.yul\":2709:3441   */\n    tag_102:\n        /* \"#utility.yul\":2828:2831   */\n      0x00\n        /* \"#utility.yul\":2857:2911   */\n      tag_142\n        /* \"#utility.yul\":2905:2910   */\n      dup3\n        /* \"#utility.yul\":2857:2911   */\n      tag_96\n      jump\t// in\n    tag_142:\n        /* \"#utility.yul\":2927:3013   */\n      tag_143\n        /* \"#utility.yul\":3006:3012   */\n      dup2\n        /* \"#utility.yul\":3001:3004   */\n      dup6\n        /* \"#utility.yul\":2927:3013   */\n      tag_97\n      jump\t// in\n    tag_143:\n        /* \"#utility.yul\":2920:3013   */\n      swap4\n      pop\n        /* \"#utility.yul\":3037:3093   */\n      tag_144\n        /* \"#utility.yul\":3087:3092   */\n      dup4\n        /* \"#utility.yul\":3037:3093   */\n      tag_98\n      jump\t// in\n    tag_144:\n        /* \"#utility.yul\":3116:3123   */\n      dup1\n        /* \"#utility.yul\":3147:3148   */\n      0x00\n        /* \"#utility.yul\":3132:3416   */\n    tag_145:\n        /* \"#utility.yul\":3157:3163   */\n      dup4\n        /* \"#utility.yul\":3154:3155   */\n      dup2\n        /* \"#utility.yul\":3151:3164   */\n      lt\n        /* \"#utility.yul\":3132:3416   */\n      iszero\n      tag_147\n      jumpi\n        /* \"#utility.yul\":3233:3239   */\n      dup2\n        /* \"#utility.yul\":3227:3240   */\n      mload\n        /* \"#utility.yul\":3260:3323   */\n      tag_148\n        /* \"#utility.yul\":3319:3322   */\n      dup9\n        /* \"#utility.yul\":3304:3317   */\n      dup3\n        /* \"#utility.yul\":3260:3323   */\n      tag_100\n      jump\t// in\n    tag_148:\n        /* \"#utility.yul\":3253:3323   */\n      swap8\n      pop\n        /* \"#utility.yul\":3346:3406   */\n      tag_149\n        /* \"#utility.yul\":3399:3405   */\n      dup4\n        /* \"#utility.yul\":3346:3406   */\n      tag_101\n      jump\t// in\n    tag_149:\n        /* \"#utility.yul\":3336:3406   */\n      swap3\n      pop\n        /* \"#utility.yul\":3192:3416   */\n      pop\n        /* \"#utility.yul\":3179:3180   */\n      0x01\n        /* \"#utility.yul\":3176:3177   */\n      dup2\n        /* \"#utility.yul\":3172:3181   */\n      add\n        /* \"#utility.yul\":3167:3181   */\n      swap1\n      pop\n        /* \"#utility.yul\":3132:3416   */\n      jump(tag_145)\n    tag_147:\n        /* \"#utility.yul\":3136:3150   */\n      pop\n        /* \"#utility.yul\":3432:3435   */\n      dup6\n        /* \"#utility.yul\":3425:3435   */\n      swap4\n      pop\n        /* \"#utility.yul\":2833:3441   */\n      pop\n      pop\n      pop\n        /* \"#utility.yul\":2709:3441   */\n      swap3\n      swap2\n      pop\n      pop\n      jump\t// out\n        /* \"#utility.yul\":3447:3820   */\n    tag_18:\n        /* \"#utility.yul\":3590:3594   */\n      0x00\n        /* \"#utility.yul\":3628:3630   */\n      0x20\n        /* \"#utility.yul\":3617:3626   */\n      dup3\n        /* \"#utility.yul\":3613:3631   */\n      add\n        /* \"#utility.yul\":3605:3631   */\n      swap1\n      pop\n        /* \"#utility.yul\":3677:3686   */\n      dup2\n        /* \"#utility.yul\":3671:3675   */\n      dup2\n        /* \"#utility.yul\":3667:3687   */\n      sub\n        /* \"#utility.yul\":3663:3664   */\n      0x00\n        /* \"#utility.yul\":3652:3661   */\n      dup4\n        /* \"#utility.yul\":3648:3665   */\n      add\n        /* \"#utility.yul\":3641:3688   */\n      mstore\n        /* \"#utility.yul\":3705:3813   */\n      tag_151\n        /* \"#utility.yul\":3808:3812   */\n      dup2\n        /* \"#utility.yul\":3799:3805   */\n      dup5\n        /* \"#utility.yul\":3705:3813   */\n      tag_102\n      jump\t// in\n    tag_151:\n        /* \"#utility.yul\":3697:3813   */\n      swap1\n      pop\n        /* \"#utility.yul\":3447:3820   */\n      swap3\n      swap2\n      pop\n      pop\n      jump\t// out\n        /* \"#utility.yul\":3826:4155   */\n    tag_23:\n        /* \"#utility.yul\":3885:3891   */\n      0x00\n        /* \"#utility.yul\":3934:3936   */\n      0x20\n        /* \"#utility.yul\":3922:3931   */\n      dup3\n        /* \"#utility.yul\":3913:3920   */\n      dup5\n        /* \"#utility.yul\":3909:3932   */\n      sub\n        /* \"#utility.yul\":3905:3937   */\n      slt\n        /* \"#utility.yul\":3902:4021   */\n      iszero\n      tag_153\n      jumpi\n        /* \"#utility.yul\":3940:4019   */\n      tag_154\n      tag_92\n      jump\t// in\n    tag_154:\n        /* \"#utility.yul\":3902:4021   */\n    tag_153:\n        /* \"#utility.yul\":4060:4061   */\n      0x00\n        /* \"#utility.yul\":4085:4138   */\n      tag_155\n        /* \"#utility.yul\":4130:4137   */\n      dup5\n        /* \"#utility.yul\":4121:4127   */\n      dup3\n        /* \"#utility.yul\":4110:4119   */\n      dup6\n        /* \"#utility.yul\":4106:4128   */\n      add\n        /* \"#utility.yul\":4085:4138   */\n      tag_95\n      jump\t// in\n    tag_155:\n        /* \"#utility.yul\":4075:4138   */\n      swap2\n      pop\n        /* \"#utility.yul\":4031:4148   */\n      pop\n        /* \"#utility.yul\":3826:4155   */\n      swap3\n      swap2\n      pop\n      pop\n      jump\t// out\n        /* \"#utility.yul\":4161:4237   */\n    tag_103:\n        /* \"#utility.yul\":4197:4204   */\n      0x00\n        /* \"#utility.yul\":4226:4231   */\n      dup2\n        /* \"#utility.yul\":4215:4231   */\n      swap1\n      pop\n        /* \"#utility.yul\":4161:4237   */\n      swap2\n      swap1\n      pop\n      jump\t// out\n        /* \"#utility.yul\":4243:4363   */\n    tag_104:\n        /* \"#utility.yul\":4315:4338   */\n      tag_158\n        /* \"#utility.yul\":4332:4337   */\n      dup2\n        /* \"#utility.yul\":4315:4338   */\n      tag_103\n      jump\t// in\n    tag_158:\n        /* \"#utility.yul\":4308:4313   */\n      dup2\n        /* \"#utility.yul\":4305:4339   */\n      eq\n        /* \"#utility.yul\":4295:4357   */\n      tag_159\n      jumpi\n        /* \"#utility.yul\":4353:4354   */\n      0x00\n        /* \"#utility.yul\":4350:4351   */\n      dup1\n        /* \"#utility.yul\":4343:4355   */\n      revert\n        /* \"#utility.yul\":4295:4357   */\n    tag_159:\n        /* \"#utility.yul\":4243:4363   */\n      pop\n      jump\t// out\n        /* \"#utility.yul\":4369:4506   */\n    tag_105:\n        /* \"#utility.yul\":4414:4419   */\n      0x00\n        /* \"#utility.yul\":4452:4458   */\n      dup2\n        /* \"#utility.yul\":4439:4459   */\n      calldataload\n        /* \"#utility.yul\":4430:4459   */\n      swap1\n      pop\n        /* \"#utility.yul\":4468:4500   */\n      tag_161\n        /* \"#utility.yul\":4494:4499   */\n      dup2\n        /* \"#utility.yul\":4468:4500   */\n      tag_104\n      jump\t// in\n    tag_161:\n        /* \"#utility.yul\":4369:4506   */\n      swap3\n      swap2\n      pop\n      pop\n      jump\t// out\n        /* \"#utility.yul\":4512:4984   */\n    tag_27:\n        /* \"#utility.yul\":4579:4585   */\n      0x00\n        /* \"#utility.yul\":4587:4593   */\n      dup1\n        /* \"#utility.yul\":4636:4638   */\n      0x40\n        /* \"#utility.yul\":4624:4633   */\n      dup4\n        /* \"#utility.yul\":4615:4622   */\n      dup6\n        /* \"#utility.yul\":4611:4634   */\n      sub\n        /* \"#utility.yul\":4607:4639   */\n      slt\n        /* \"#utility.yul\":4604:4723   */\n      iszero\n      tag_163\n      jumpi\n        /* \"#utility.yul\":4642:4721   */\n      tag_164\n      tag_92\n      jump\t// in\n    tag_164:\n        /* \"#utility.yul\":4604:4723   */\n    tag_163:\n        /* \"#utility.yul\":4762:4763   */\n      0x00\n        /* \"#utility.yul\":4787:4840   */\n      tag_165\n        /* \"#utility.yul\":4832:4839   */\n      dup6\n        /* \"#utility.yul\":4823:4829   */\n      dup3\n        /* \"#utility.yul\":4812:4821   */\n      dup7\n        /* \"#utility.yul\":4808:4830   */\n      add\n        /* \"#utility.yul\":4787:4840   */\n      tag_95\n      jump\t// in\n    tag_165:\n        /* \"#utility.yul\":4777:4840   */\n      swap3\n      pop\n        /* \"#utility.yul\":4733:4850   */\n      pop\n        /* \"#utility.yul\":4889:4891   */\n      0x20\n        /* \"#utility.yul\":4915:4967   */\n      tag_166\n        /* \"#utility.yul\":4959:4966   */\n      dup6\n        /* \"#utility.yul\":4950:4956   */\n      dup3\n        /* \"#utility.yul\":4939:4948   */\n      dup7\n        /* \"#utility.yul\":4935:4957   */\n      add\n        /* \"#utility.yul\":4915:4967   */\n      tag_105\n      jump\t// in\n    tag_166:\n        /* \"#utility.yul\":4905:4967   */\n      swap2\n      pop\n        /* \"#utility.yul\":4860:4977   */\n      pop\n        /* \"#utility.yul\":4512:4984   */\n      swap3\n      pop\n      swap3\n      swap1\n      pop\n      jump\t// out\n        /* \"#utility.yul\":4990:5159   */\n    tag_106:\n        /* \"#utility.yul\":5074:5085   */\n      0x00\n        /* \"#utility.yul\":5108:5114   */\n      dup3\n        /* \"#utility.yul\":5103:5106   */\n      dup3\n        /* \"#utility.yul\":5096:5115   */\n      mstore\n        /* \"#utility.yul\":5148:5152   */\n      0x20\n        /* \"#utility.yul\":5143:5146   */\n      dup3\n        /* \"#utility.yul\":5139:5153   */\n      add\n        /* \"#utility.yul\":5124:5153   */\n      swap1\n      pop\n        /* \"#utility.yul\":4990:5159   */\n      swap3\n      swap2\n      pop\n      pop\n      jump\t// out\n        /* \"#utility.yul\":5165:5329   */\n    tag_107:\n        /* \"#utility.yul\":5305:5321   */\n      0x417272617920697320656d707479000000000000000000000000000000000000\n        /* \"#utility.yul\":5301:5302   */\n      0x00\n        /* \"#utility.yul\":5293:5299   */\n      dup3\n        /* \"#utility.yul\":5289:5303   */\n      add\n        /* \"#utility.yul\":5282:5322   */\n      mstore\n        /* \"#utility.yul\":5165:5329   */\n      pop\n      jump\t// out\n        /* \"#utility.yul\":5335:5701   */\n    tag_108:\n        /* \"#utility.yul\":5477:5480   */\n      0x00\n        /* \"#utility.yul\":5498:5565   */\n      tag_170\n        /* \"#utility.yul\":5562:5564   */\n      0x0e\n        /* \"#utility.yul\":5557:5560   */\n      dup4\n        /* \"#utility.yul\":5498:5565   */\n      tag_106\n      jump\t// in\n    tag_170:\n        /* \"#utility.yul\":5491:5565   */\n      swap2\n      pop\n        /* \"#utility.yul\":5574:5667   */\n      tag_171\n        /* \"#utility.yul\":5663:5666   */\n      dup3\n        /* \"#utility.yul\":5574:5667   */\n      tag_107\n      jump\t// in\n    tag_171:\n        /* \"#utility.yul\":5692:5694   */\n      0x20\n        /* \"#utility.yul\":5687:5690   */\n      dup3\n        /* \"#utility.yul\":5683:5695   */\n      add\n        /* \"#utility.yul\":5676:5695   */\n      swap1\n      pop\n        /* \"#utility.yul\":5335:5701   */\n      swap2\n      swap1\n      pop\n      jump\t// out\n        /* \"#utility.yul\":5707:6126   */\n    tag_36:\n        /* \"#utility.yul\":5873:5877   */\n      0x00\n        /* \"#utility.yul\":5911:5913   */\n      0x20\n        /* \"#utility.yul\":5900:5909   */\n      dup3\n        /* \"#utility.yul\":5896:5914   */\n      add\n        /* \"#utility.yul\":5888:5914   */\n      swap1\n      pop\n        /* \"#utility.yul\":5960:5969   */\n      dup2\n        /* \"#utility.yul\":5954:5958   */\n      dup2\n        /* \"#utility.yul\":5950:5970   */\n      sub\n        /* \"#utility.yul\":5946:5947   */\n      0x00\n        /* \"#utility.yul\":5935:5944   */\n      dup4\n        /* \"#utility.yul\":5931:5948   */\n      add\n        /* \"#utility.yul\":5924:5971   */\n      mstore\n        /* \"#utility.yul\":5988:6119   */\n      tag_173\n        /* \"#utility.yul\":6114:6118   */\n      dup2\n        /* \"#utility.yul\":5988:6119   */\n      tag_108\n      jump\t// in\n    tag_173:\n        /* \"#utility.yul\":5980:6119   */\n      swap1\n      pop\n        /* \"#utility.yul\":5707:6126   */\n      swap2\n      swap1\n      pop\n      jump\t// out\n        /* \"#utility.yul\":6132:6312   */\n    tag_109:\n        /* \"#utility.yul\":6180:6257   */\n      0x4e487b7100000000000000000000000000000000000000000000000000000000\n        /* \"#utility.yul\":6177:6178   */\n      0x00\n        /* \"#utility.yul\":6170:6258   */\n      mstore\n        /* \"#utility.yul\":6277:6281   */\n      0x11\n        /* \"#utility.yul\":6274:6275   */\n      0x04\n        /* \"#utility.yul\":6267:6282   */\n      mstore\n        /* \"#utility.yul\":6301:6305   */\n      0x24\n        /* \"#utility.yul\":6298:6299   */\n      0x00\n        /* \"#utility.yul\":6291:6306   */\n      revert\n        /* \"#utility.yul\":6318:6512   */\n    tag_38:\n        /* \"#utility.yul\":6358:6362   */\n      0x00\n        /* \"#utility.yul\":6378:6398   */\n      tag_176\n        /* \"#utility.yul\":6396:6397   */\n      dup3\n        /* \"#utility.yul\":6378:6398   */\n      tag_89\n      jump\t// in\n    tag_176:\n        /* \"#utility.yul\":6373:6398   */\n      swap2\n      pop\n        /* \"#utility.yul\":6412:6432   */\n      tag_177\n        /* \"#utility.yul\":6430:6431   */\n      dup4\n        /* \"#utility.yul\":6412:6432   */\n      tag_89\n      jump\t// in\n    tag_177:\n        /* \"#utility.yul\":6407:6432   */\n      swap3\n      pop\n        /* \"#utility.yul\":6456:6457   */\n      dup3\n        /* \"#utility.yul\":6453:6454   */\n      dup3\n        /* \"#utility.yul\":6449:6458   */\n      sub\n        /* \"#utility.yul\":6441:6458   */\n      swap1\n      pop\n        /* \"#utility.yul\":6480:6481   */\n      dup2\n        /* \"#utility.yul\":6474:6478   */\n      dup2\n        /* \"#utility.yul\":6471:6482   */\n      gt\n        /* \"#utility.yul\":6468:6505   */\n      iszero\n      tag_178\n      jumpi\n        /* \"#utility.yul\":6485:6503   */\n      tag_179\n      tag_109\n      jump\t// in\n    tag_179:\n        /* \"#utility.yul\":6468:6505   */\n    tag_178:\n        /* \"#utility.yul\":6318:6512   */\n      swap3\n      swap2\n      pop\n      pop\n      jump\t// out\n        /* \"#utility.yul\":6518:6698   */\n    tag_41:\n        /* \"#utility.yul\":6566:6643   */\n      0x4e487b7100000000000000000000000000000000000000000000000000000000\n        /* \"#utility.yul\":6563:6564   */\n      0x00\n        /* \"#utility.yul\":6556:6644   */\n      mstore\n        /* \"#utility.yul\":6663:6667   */\n      0x32\n        /* \"#utility.yul\":6660:6661   */\n      0x04\n        /* \"#utility.yul\":6653:6668   */\n      mstore\n        /* \"#utility.yul\":6687:6691   */\n      0x24\n        /* \"#utility.yul\":6684:6685   */\n      0x00\n        /* \"#utility.yul\":6677:6692   */\n      revert\n        /* \"#utility.yul\":6704:6884   */\n    tag_45:\n        /* \"#utility.yul\":6752:6829   */\n      0x4e487b7100000000000000000000000000000000000000000000000000000000\n        /* \"#utility.yul\":6749:6750   */\n      0x00\n        /* \"#utility.yul\":6742:6830   */\n      mstore\n        /* \"#utility.yul\":6849:6853   */\n      0x31\n        /* \"#utility.yul\":6846:6847   */\n      0x04\n        /* \"#utility.yul\":6839:6854   */\n      mstore\n        /* \"#utility.yul\":6873:6877   */\n      0x24\n        /* \"#utility.yul\":6870:6871   */\n      0x00\n        /* \"#utility.yul\":6863:6878   */\n      revert\n        /* \"#utility.yul\":6890:7070   */\n    tag_50:\n        /* \"#utility.yul\":6938:7015   */\n      0x4e487b7100000000000000000000000000000000000000000000000000000000\n        /* \"#utility.yul\":6935:6936   */\n      0x00\n        /* \"#utility.yul\":6928:7016   */\n      mstore\n        /* \"#utility.yul\":7035:7039   */\n      0x41\n        /* \"#utility.yul\":7032:7033   */\n      0x04\n        /* \"#utility.yul\":7025:7040   */\n      mstore\n        /* \"#utility.yul\":7059:7063   */\n      0x24\n        /* \"#utility.yul\":7056:7057   */\n      0x00\n        /* \"#utility.yul\":7049:7064   */\n      revert\n        /* \"#utility.yul\":7076:7451   */\n    tag_77:\n        /* \"#utility.yul\":7115:7118   */\n      0x00\n        /* \"#utility.yul\":7134:7153   */\n      tag_184\n        /* \"#utility.yul\":7151:7152   */\n      dup3\n        /* \"#utility.yul\":7134:7153   */\n      tag_103\n      jump\t// in\n    tag_184:\n        /* \"#utility.yul\":7129:7153   */\n      swap2\n      pop\n        /* \"#utility.yul\":7167:7186   */\n      tag_185\n        /* \"#utility.yul\":7184:7185   */\n      dup4\n        /* \"#utility.yul\":7167:7186   */\n      tag_103\n      jump\t// in\n    tag_185:\n        /* \"#utility.yul\":7162:7186   */\n      swap3\n      pop\n        /* \"#utility.yul\":7209:7210   */\n      dup3\n        /* \"#utility.yul\":7206:7207   */\n      dup3\n        /* \"#utility.yul\":7202:7211   */\n      add\n        /* \"#utility.yul\":7195:7211   */\n      swap1\n      pop\n        /* \"#utility.yul\":7407:7408   */\n      dup3\n        /* \"#utility.yul\":7402:7405   */\n      dup2\n        /* \"#utility.yul\":7398:7409   */\n      slt\n        /* \"#utility.yul\":7391:7410   */\n      iszero\n        /* \"#utility.yul\":7387:7388   */\n      0x00\n        /* \"#utility.yul\":7384:7385   */\n      dup4\n        /* \"#utility.yul\":7380:7389   */\n      slt\n        /* \"#utility.yul\":7376:7411   */\n      and\n        /* \"#utility.yul\":7359:7360   */\n      dup4\n        /* \"#utility.yul\":7354:7357   */\n      dup3\n        /* \"#utility.yul\":7350:7361   */\n      slt\n        /* \"#utility.yul\":7345:7346   */\n      0x00\n        /* \"#utility.yul\":7342:7343   */\n      dup5\n        /* \"#utility.yul\":7338:7347   */\n      slt\n        /* \"#utility.yul\":7331:7348   */\n      iszero\n        /* \"#utility.yul\":7327:7362   */\n      and\n        /* \"#utility.yul\":7311:7421   */\n      or\n        /* \"#utility.yul\":7308:7444   */\n      iszero\n      tag_186\n      jumpi\n        /* \"#utility.yul\":7424:7442   */\n      tag_187\n      tag_109\n      jump\t// in\n    tag_187:\n        /* \"#utility.yul\":7308:7444   */\n    tag_186:\n        /* \"#utility.yul\":7076:7451   */\n      swap3\n      swap2\n      pop\n      pop\n      jump\t// out\n        /* \"#utility.yul\":7457:7678   */\n    tag_110:\n        /* \"#utility.yul\":7597:7631   */\n      0x526573756c74696e672076616c75652063616e6e6f74206265206e6567617469\n        /* \"#utility.yul\":7593:7594   */\n      0x00\n        /* \"#utility.yul\":7585:7591   */\n      dup3\n        /* \"#utility.yul\":7581:7595   */\n      add\n        /* \"#utility.yul\":7574:7632   */\n      mstore\n        /* \"#utility.yul\":7666:7670   */\n      0x7665000000000000000000000000000000000000000000000000000000000000\n        /* \"#utility.yul\":7661:7663   */\n      0x20\n        /* \"#utility.yul\":7653:7659   */\n      dup3\n        /* \"#utility.yul\":7649:7664   */\n      add\n        /* \"#utility.yul\":7642:7671   */\n      mstore\n        /* \"#utility.yul\":7457:7678   */\n      pop\n      jump\t// out\n        /* \"#utility.yul\":7684:8050   */\n    tag_111:\n        /* \"#utility.yul\":7826:7829   */\n      0x00\n        /* \"#utility.yul\":7847:7914   */\n      tag_190\n        /* \"#utility.yul\":7911:7913   */\n      0x22\n        /* \"#utility.yul\":7906:7909   */\n      dup4\n        /* \"#utility.yul\":7847:7914   */\n      tag_106\n      jump\t// in\n    tag_190:\n        /* \"#utility.yul\":7840:7914   */\n      swap2\n      pop\n        /* \"#utility.yul\":7923:8016   */\n      tag_191\n        /* \"#utility.yul\":8012:8015   */\n      dup3\n        /* \"#utility.yul\":7923:8016   */\n      tag_110\n      jump\t// in\n    tag_191:\n        /* \"#utility.yul\":8041:8043   */\n      0x40\n        /* \"#utility.yul\":8036:8039   */\n      dup3\n        /* \"#utility.yul\":8032:8044   */\n      add\n        /* \"#utility.yul\":8025:8044   */\n      swap1\n      pop\n        /* \"#utility.yul\":7684:8050   */\n      swap2\n      swap1\n      pop\n      jump\t// out\n        /* \"#utility.yul\":8056:8475   */\n    tag_80:\n        /* \"#utility.yul\":8222:8226   */\n      0x00\n        /* \"#utility.yul\":8260:8262   */\n      0x20\n        /* \"#utility.yul\":8249:8258   */\n      dup3\n        /* \"#utility.yul\":8245:8263   */\n      add\n        /* \"#utility.yul\":8237:8263   */\n      swap1\n      pop\n        /* \"#utility.yul\":8309:8318   */\n      dup2\n        /* \"#utility.yul\":8303:8307   */\n      dup2\n        /* \"#utility.yul\":8299:8319   */\n      sub\n        /* \"#utility.yul\":8295:8296   */\n      0x00\n        /* \"#utility.yul\":8284:8293   */\n      dup4\n        /* \"#utility.yul\":8280:8297   */\n      add\n        /* \"#utility.yul\":8273:8320   */\n      mstore\n        /* \"#utility.yul\":8337:8468   */\n      tag_193\n        /* \"#utility.yul\":8463:8467   */\n      dup2\n        /* \"#utility.yul\":8337:8468   */\n      tag_111\n      jump\t// in\n    tag_193:\n        /* \"#utility.yul\":8329:8468   */\n      swap1\n      pop\n        /* \"#utility.yul\":8056:8475   */\n      swap2\n      swap1\n      pop\n      jump\t// out\n\n    auxdata: 0xa26469706673582212206df59f0330bf9acc072e56aa79f114340ed613e4328447f9cf9822baf5a9570b64736f6c634300081a0033\n}\n",
				"bytecode": {
					"linkReferences": {},
					"object": "6080604052348015600e575f80fd5b506108ae8061001c5f395ff3fe608060405234801561000f575f80fd5b5060043610610060575f3560e01c80631abe2ac214610064578063294323141461008257806364529db5146100b2578063e1819ff9146100bc578063f74e51ea146100d8578063fb8cbced14610108575b5f80fd5b61006c610126565b604051610079919061042c565b60405180910390f35b61009c60048036038101906100979190610473565b6101c7565b6040516100a9919061058e565b60405180910390f35b6100ba6102f3565b005b6100d660048036038101906100d191906105ae565b610301565b005b6100f260048036038101906100ed919061060c565b610329565b6040516100ff919061042c565b60405180910390f35b610110610386565b60405161011d919061058e565b60405180910390f35b5f805f805490501161016d576040517f08c379a0000000000000000000000000000000000000000000000000000000008152600401610164906106a4565b60405180910390fd5b5f8060015f8054905061018091906106ef565b8154811061019157610190610722565b5b905f5260205f20015490505f8054806101ad576101ac61074f565b5b600190038181905f5260205f20015f905590558091505090565b60605f600367ffffffffffffffff8111156101e5576101e461077c565b5b6040519080825280602002602001820160405280156102135781602001602082028036833780820191505090505b5090508486101561022f57858561022a91906106ef565b61023c565b848661023b91906106ef565b5b815f8151811061024f5761024e610722565b5b6020026020010181815250508385101561027457848461026f91906106ef565b610281565b838561028091906106ef565b5b8160018151811061029557610294610722565b5b602002602001018181525050828410156102ba5783836102b591906106ef565b6102c7565b82846102c691906106ef565b5b816002815181106102db576102da610722565b5b60200260200101818152505080915050949350505050565b5f806102ff91906103db565b565b5f81908060018154018082558091505060019003905f5260205f20015f909190919091505550565b5f80828461033791906107a9565b90505f81121561037c576040517f08c379a00000000000000000000000000000000000000000000000000000000081526004016103739061085a565b60405180910390fd5b8091505092915050565b60605f8054806020026020016040519081016040528092919081815260200182805480156103d157602002820191905f5260205f20905b8154815260200190600101908083116103bd575b5050505050905090565b5080545f8255905f5260205f20908101906103f691906103f9565b50565b5b80821115610410575f815f9055506001016103fa565b5090565b5f819050919050565b61042681610414565b82525050565b5f60208201905061043f5f83018461041d565b92915050565b5f80fd5b61045281610414565b811461045c575f80fd5b50565b5f8135905061046d81610449565b92915050565b5f805f806080858703121561048b5761048a610445565b5b5f6104988782880161045f565b94505060206104a98782880161045f565b93505060406104ba8782880161045f565b92505060606104cb8782880161045f565b91505092959194509250565b5f81519050919050565b5f82825260208201905092915050565b5f819050602082019050919050565b61050981610414565b82525050565b5f61051a8383610500565b60208301905092915050565b5f602082019050919050565b5f61053c826104d7565b61054681856104e1565b9350610551836104f1565b805f5b83811015610581578151610568888261050f565b975061057383610526565b925050600181019050610554565b5085935050505092915050565b5f6020820190508181035f8301526105a68184610532565b905092915050565b5f602082840312156105c3576105c2610445565b5b5f6105d08482850161045f565b91505092915050565b5f819050919050565b6105eb816105d9565b81146105f5575f80fd5b50565b5f81359050610606816105e2565b92915050565b5f806040838503121561062257610621610445565b5b5f61062f8582860161045f565b9250506020610640858286016105f8565b9150509250929050565b5f82825260208201905092915050565b7f417272617920697320656d7074790000000000000000000000000000000000005f82015250565b5f61068e600e8361064a565b91506106998261065a565b602082019050919050565b5f6020820190508181035f8301526106bb81610682565b9050919050565b7f4e487b71000000000000000000000000000000000000000000000000000000005f52601160045260245ffd5b5f6106f982610414565b915061070483610414565b925082820390508181111561071c5761071b6106c2565b5b92915050565b7f4e487b71000000000000000000000000000000000000000000000000000000005f52603260045260245ffd5b7f4e487b71000000000000000000000000000000000000000000000000000000005f52603160045260245ffd5b7f4e487b71000000000000000000000000000000000000000000000000000000005f52604160045260245ffd5b5f6107b3826105d9565b91506107be836105d9565b92508282019050828112155f8312168382125f8412151617156107e4576107e36106c2565b5b92915050565b7f526573756c74696e672076616c75652063616e6e6f74206265206e65676174695f8201527f7665000000000000000000000000000000000000000000000000000000000000602082015250565b5f61084460228361064a565b915061084f826107ea565b604082019050919050565b5f6020820190508181035f83015261087181610838565b905091905056fea26469706673582212206df59f0330bf9acc072e56aa79f114340ed613e4328447f9cf9822baf5a9570b64736f6c634300081a0033",
					"opcodes": "PUSH1 0x80 PUSH1 0x40 MSTORE CALLVALUE DUP1 ISZERO PUSH1 0xE JUMPI PUSH0 DUP1 REVERT JUMPDEST POP PUSH2 0x8AE DUP1 PUSH2 0x1C PUSH0 CODECOPY PUSH0 RETURN INVALID PUSH1 0x80 PUSH1 0x40 MSTORE CALLVALUE DUP1 ISZERO PUSH2 0xF JUMPI PUSH0 DUP1 REVERT JUMPDEST POP PUSH1 0x4 CALLDATASIZE LT PUSH2 0x60 JUMPI PUSH0 CALLDATALOAD PUSH1 0xE0 SHR DUP1 PUSH4 0x1ABE2AC2 EQ PUSH2 0x64 JUMPI DUP1 PUSH4 0x29432314 EQ PUSH2 0x82 JUMPI DUP1 PUSH4 0x64529DB5 EQ PUSH2 0xB2 JUMPI DUP1 PUSH4 0xE1819FF9 EQ PUSH2 0xBC JUMPI DUP1 PUSH4 0xF74E51EA EQ PUSH2 0xD8 JUMPI DUP1 PUSH4 0xFB8CBCED EQ PUSH2 0x108 JUMPI JUMPDEST PUSH0 DUP1 REVERT JUMPDEST PUSH2 0x6C PUSH2 0x126 JUMP JUMPDEST PUSH1 0x40 MLOAD PUSH2 0x79 SWAP2 SWAP1 PUSH2 0x42C JUMP JUMPDEST PUSH1 0x40 MLOAD DUP1 SWAP2 SUB SWAP1 RETURN JUMPDEST PUSH2 0x9C PUSH1 0x4 DUP1 CALLDATASIZE SUB DUP2 ADD SWAP1 PUSH2 0x97 SWAP2 SWAP1 PUSH2 0x473 JUMP JUMPDEST PUSH2 0x1C7 JUMP JUMPDEST PUSH1 0x40 MLOAD PUSH2 0xA9 SWAP2 SWAP1 PUSH2 0x58E JUMP JUMPDEST PUSH1 0x40 MLOAD DUP1 SWAP2 SUB SWAP1 RETURN JUMPDEST PUSH2 0xBA PUSH2 0x2F3 JUMP JUMPDEST STOP JUMPDEST PUSH2 0xD6 PUSH1 0x4 DUP1 CALLDATASIZE SUB DUP2 ADD SWAP1 PUSH2 0xD1 SWAP2 SWAP1 PUSH2 0x5AE JUMP JUMPDEST PUSH2 0x301 JUMP JUMPDEST STOP JUMPDEST PUSH2 0xF2 PUSH1 0x4 DUP1 CALLDATASIZE SUB DUP2 ADD SWAP1 PUSH2 0xED SWAP2 SWAP1 PUSH2 0x60C JUMP JUMPDEST PUSH2 0x329 JUMP JUMPDEST PUSH1 0x40 MLOAD PUSH2 0xFF SWAP2 SWAP1 PUSH2 0x42C JUMP JUMPDEST PUSH1 0x40 MLOAD DUP1 SWAP2 SUB SWAP1 RETURN JUMPDEST PUSH2 0x110 PUSH2 0x386 JUMP JUMPDEST PUSH1 0x40 MLOAD PUSH2 0x11D SWAP2 SWAP1 PUSH2 0x58E JUMP JUMPDEST PUSH1 0x40 MLOAD DUP1 SWAP2 SUB SWAP1 RETURN JUMPDEST PUSH0 DUP1 PUSH0 DUP1 SLOAD SWAP1 POP GT PUSH2 0x16D JUMPI PUSH1 0x40 MLOAD PUSH32 0x8C379A000000000000000000000000000000000000000000000000000000000 DUP2 MSTORE PUSH1 0x4 ADD PUSH2 0x164 SWAP1 PUSH2 0x6A4 JUMP JUMPDEST PUSH1 0x40 MLOAD DUP1 SWAP2 SUB SWAP1 REVERT JUMPDEST PUSH0 DUP1 PUSH1 0x1 PUSH0 DUP1 SLOAD SWAP1 POP PUSH2 0x180 SWAP2 SWAP1 PUSH2 0x6EF JUMP JUMPDEST DUP2 SLOAD DUP2 LT PUSH2 0x191 JUMPI PUSH2 0x190 PUSH2 0x722 JUMP JUMPDEST JUMPDEST SWAP1 PUSH0 MSTORE PUSH1 0x20 PUSH0 KECCAK256 ADD SLOAD SWAP1 POP PUSH0 DUP1 SLOAD DUP1 PUSH2 0x1AD JUMPI PUSH2 0x1AC PUSH2 0x74F JUMP JUMPDEST JUMPDEST PUSH1 0x1 SWAP1 SUB DUP2 DUP2 SWAP1 PUSH0 MSTORE PUSH1 0x20 PUSH0 KECCAK256 ADD PUSH0 SWAP1 SSTORE SWAP1 SSTORE DUP1 SWAP2 POP POP SWAP1 JUMP JUMPDEST PUSH1 0x60 PUSH0 PUSH1 0x3 PUSH8 0xFFFFFFFFFFFFFFFF DUP2 GT ISZERO PUSH2 0x1E5 JUMPI PUSH2 0x1E4 PUSH2 0x77C JUMP JUMPDEST JUMPDEST PUSH1 0x40 MLOAD SWAP1 DUP1 DUP3 MSTORE DUP1 PUSH1 0x20 MUL PUSH1 0x20 ADD DUP3 ADD PUSH1 0x40 MSTORE DUP1 ISZERO PUSH2 0x213 JUMPI DUP2 PUSH1 0x20 ADD PUSH1 0x20 DUP3 MUL DUP1 CALLDATASIZE DUP4 CALLDATACOPY DUP1 DUP3 ADD SWAP2 POP POP SWAP1 POP JUMPDEST POP SWAP1 POP DUP5 DUP7 LT ISZERO PUSH2 0x22F JUMPI DUP6 DUP6 PUSH2 0x22A SWAP2 SWAP1 PUSH2 0x6EF JUMP JUMPDEST PUSH2 0x23C JUMP JUMPDEST DUP5 DUP7 PUSH2 0x23B SWAP2 SWAP1 PUSH2 0x6EF JUMP JUMPDEST JUMPDEST DUP2 PUSH0 DUP2 MLOAD DUP2 LT PUSH2 0x24F JUMPI PUSH2 0x24E PUSH2 0x722 JUMP JUMPDEST JUMPDEST PUSH1 0x20 MUL PUSH1 0x20 ADD ADD DUP2 DUP2 MSTORE POP POP DUP4 DUP6 LT ISZERO PUSH2 0x274 JUMPI DUP5 DUP5 PUSH2 0x26F SWAP2 SWAP1 PUSH2 0x6EF JUMP JUMPDEST PUSH2 0x281 JUMP JUMPDEST DUP4 DUP6 PUSH2 0x280 SWAP2 SWAP1 PUSH2 0x6EF JUMP JUMPDEST JUMPDEST DUP2 PUSH1 0x1 DUP2 MLOAD DUP2 LT PUSH2 0x295 JUMPI PUSH2 0x294 PUSH2 0x722 JUMP JUMPDEST JUMPDEST PUSH1 0x20 MUL PUSH1 0x20 ADD ADD DUP2 DUP2 MSTORE POP POP DUP3 DUP5 LT ISZERO PUSH2 0x2BA JUMPI DUP4 DUP4 PUSH2 0x2B5 SWAP2 SWAP1 PUSH2 0x6EF JUMP JUMPDEST PUSH2 0x2C7 JUMP JUMPDEST DUP3 DUP5 PUSH2 0x2C6 SWAP2 SWAP1 PUSH2 0x6EF JUMP JUMPDEST JUMPDEST DUP2 PUSH1 0x2 DUP2 MLOAD DUP2 LT PUSH2 0x2DB JUMPI PUSH2 0x2DA PUSH2 0x722 JUMP JUMPDEST JUMPDEST PUSH1 0x20 MUL PUSH1 0x20 ADD ADD DUP2 DUP2 MSTORE POP POP DUP1 SWAP2 POP POP SWAP5 SWAP4 POP POP POP POP JUMP JUMPDEST PUSH0 DUP1 PUSH2 0x2FF SWAP2 SWAP1 PUSH2 0x3DB JUMP JUMPDEST JUMP JUMPDEST PUSH0 DUP2 SWAP1 DUP1 PUSH1 0x1 DUP2 SLOAD ADD DUP1 DUP3 SSTORE DUP1 SWAP2 POP POP PUSH1 0x1 SWAP1 SUB SWAP1 PUSH0 MSTORE PUSH1 0x20 PUSH0 KECCAK256 ADD PUSH0 SWAP1 SWAP2 SWAP1 SWAP2 SWAP1 SWAP2 POP SSTORE POP JUMP JUMPDEST PUSH0 DUP1 DUP3 DUP5 PUSH2 0x337 SWAP2 SWAP1 PUSH2 0x7A9 JUMP JUMPDEST SWAP1 POP PUSH0 DUP2 SLT ISZERO PUSH2 0x37C JUMPI PUSH1 0x40 MLOAD PUSH32 0x8C379A000000000000000000000000000000000000000000000000000000000 DUP2 MSTORE PUSH1 0x4 ADD PUSH2 0x373 SWAP1 PUSH2 0x85A JUMP JUMPDEST PUSH1 0x40 MLOAD DUP1 SWAP2 SUB SWAP1 REVERT JUMPDEST DUP1 SWAP2 POP POP SWAP3 SWAP2 POP POP JUMP JUMPDEST PUSH1 0x60 PUSH0 DUP1 SLOAD DUP1 PUSH1 0x20 MUL PUSH1 0x20 ADD PUSH1 0x40 MLOAD SWAP1 DUP2 ADD PUSH1 0x40 MSTORE DUP1 SWAP3 SWAP2 SWAP1 DUP2 DUP2 MSTORE PUSH1 0x20 ADD DUP3 DUP1 SLOAD DUP1 ISZERO PUSH2 0x3D1 JUMPI PUSH1 0x20 MUL DUP3 ADD SWAP2 SWAP1 PUSH0 MSTORE PUSH1 0x20 PUSH0 KECCAK256 SWAP1 JUMPDEST DUP2 SLOAD DUP2 MSTORE PUSH1 0x20 ADD SWAP1 PUSH1 0x1 ADD SWAP1 DUP1 DUP4 GT PUSH2 0x3BD JUMPI JUMPDEST POP POP POP POP POP SWAP1 POP SWAP1 JUMP JUMPDEST POP DUP1 SLOAD PUSH0 DUP3 SSTORE SWAP1 PUSH0 MSTORE PUSH1 0x20 PUSH0 KECCAK256 SWAP1 DUP2 ADD SWAP1 PUSH2 0x3F6 SWAP2 SWAP1 PUSH2 0x3F9 JUMP JUMPDEST POP JUMP JUMPDEST JUMPDEST DUP1 DUP3 GT ISZERO PUSH2 0x410 JUMPI PUSH0 DUP2 PUSH0 SWAP1 SSTORE POP PUSH1 0x1 ADD PUSH2 0x3FA JUMP JUMPDEST POP SWAP1 JUMP JUMPDEST PUSH0 DUP2 SWAP1 POP SWAP2 SWAP1 POP JUMP JUMPDEST PUSH2 0x426 DUP2 PUSH2 0x414 JUMP JUMPDEST DUP3 MSTORE POP POP JUMP JUMPDEST PUSH0 PUSH1 0x20 DUP3 ADD SWAP1 POP PUSH2 0x43F PUSH0 DUP4 ADD DUP5 PUSH2 0x41D JUMP JUMPDEST SWAP3 SWAP2 POP POP JUMP JUMPDEST PUSH0 DUP1 REVERT JUMPDEST PUSH2 0x452 DUP2 PUSH2 0x414 JUMP JUMPDEST DUP2 EQ PUSH2 0x45C JUMPI PUSH0 DUP1 REVERT JUMPDEST POP JUMP JUMPDEST PUSH0 DUP2 CALLDATALOAD SWAP1 POP PUSH2 0x46D DUP2 PUSH2 0x449 JUMP JUMPDEST SWAP3 SWAP2 POP POP JUMP JUMPDEST PUSH0 DUP1 PUSH0 DUP1 PUSH1 0x80 DUP6 DUP8 SUB SLT ISZERO PUSH2 0x48B JUMPI PUSH2 0x48A PUSH2 0x445 JUMP JUMPDEST JUMPDEST PUSH0 PUSH2 0x498 DUP8 DUP3 DUP9 ADD PUSH2 0x45F JUMP JUMPDEST SWAP5 POP POP PUSH1 0x20 PUSH2 0x4A9 DUP8 DUP3 DUP9 ADD PUSH2 0x45F JUMP JUMPDEST SWAP4 POP POP PUSH1 0x40 PUSH2 0x4BA DUP8 DUP3 DUP9 ADD PUSH2 0x45F JUMP JUMPDEST SWAP3 POP POP PUSH1 0x60 PUSH2 0x4CB DUP8 DUP3 DUP9 ADD PUSH2 0x45F JUMP JUMPDEST SWAP2 POP POP SWAP3 SWAP6 SWAP2 SWAP5 POP SWAP3 POP JUMP JUMPDEST PUSH0 DUP2 MLOAD SWAP1 POP SWAP2 SWAP1 POP JUMP JUMPDEST PUSH0 DUP3 DUP3 MSTORE PUSH1 0x20 DUP3 ADD SWAP1 POP SWAP3 SWAP2 POP POP JUMP JUMPDEST PUSH0 DUP2 SWAP1 POP PUSH1 0x20 DUP3 ADD SWAP1 POP SWAP2 SWAP1 POP JUMP JUMPDEST PUSH2 0x509 DUP2 PUSH2 0x414 JUMP JUMPDEST DUP3 MSTORE POP POP JUMP JUMPDEST PUSH0 PUSH2 0x51A DUP4 DUP4 PUSH2 0x500 JUMP JUMPDEST PUSH1 0x20 DUP4 ADD SWAP1 POP SWAP3 SWAP2 POP POP JUMP JUMPDEST PUSH0 PUSH1 0x20 DUP3 ADD SWAP1 POP SWAP2 SWAP1 POP JUMP JUMPDEST PUSH0 PUSH2 0x53C DUP3 PUSH2 0x4D7 JUMP JUMPDEST PUSH2 0x546 DUP2 DUP6 PUSH2 0x4E1 JUMP JUMPDEST SWAP4 POP PUSH2 0x551 DUP4 PUSH2 0x4F1 JUMP JUMPDEST DUP1 PUSH0 JUMPDEST DUP4 DUP2 LT ISZERO PUSH2 0x581 JUMPI DUP2 MLOAD PUSH2 0x568 DUP9 DUP3 PUSH2 0x50F JUMP JUMPDEST SWAP8 POP PUSH2 0x573 DUP4 PUSH2 0x526 JUMP JUMPDEST SWAP3 POP POP PUSH1 0x1 DUP2 ADD SWAP1 POP PUSH2 0x554 JUMP JUMPDEST POP DUP6 SWAP4 POP POP POP POP SWAP3 SWAP2 POP POP JUMP JUMPDEST PUSH0 PUSH1 0x20 DUP3 ADD SWAP1 POP DUP2 DUP2 SUB PUSH0 DUP4 ADD MSTORE PUSH2 0x5A6 DUP2 DUP5 PUSH2 0x532 JUMP JUMPDEST SWAP1 POP SWAP3 SWAP2 POP POP JUMP JUMPDEST PUSH0 PUSH1 0x20 DUP3 DUP5 SUB SLT ISZERO PUSH2 0x5C3 JUMPI PUSH2 0x5C2 PUSH2 0x445 JUMP JUMPDEST JUMPDEST PUSH0 PUSH2 0x5D0 DUP5 DUP3 DUP6 ADD PUSH2 0x45F JUMP JUMPDEST SWAP2 POP POP SWAP3 SWAP2 POP POP JUMP JUMPDEST PUSH0 DUP2 SWAP1 POP SWAP2 SWAP1 POP JUMP JUMPDEST PUSH2 0x5EB DUP2 PUSH2 0x5D9 JUMP JUMPDEST DUP2 EQ PUSH2 0x5F5 JUMPI PUSH0 DUP1 REVERT JUMPDEST POP JUMP JUMPDEST PUSH0 DUP2 CALLDATALOAD SWAP1 POP PUSH2 0x606 DUP2 PUSH2 0x5E2 JUMP JUMPDEST SWAP3 SWAP2 POP POP JUMP JUMPDEST PUSH0 DUP1 PUSH1 0x40 DUP4 DUP6 SUB SLT ISZERO PUSH2 0x622 JUMPI PUSH2 0x621 PUSH2 0x445 JUMP JUMPDEST JUMPDEST PUSH0 PUSH2 0x62F DUP6 DUP3 DUP7 ADD PUSH2 0x45F JUMP JUMPDEST SWAP3 POP POP PUSH1 0x20 PUSH2 0x640 DUP6 DUP3 DUP7 ADD PUSH2 0x5F8 JUMP JUMPDEST SWAP2 POP POP SWAP3 POP SWAP3 SWAP1 POP JUMP JUMPDEST PUSH0 DUP3 DUP3 MSTORE PUSH1 0x20 DUP3 ADD SWAP1 POP SWAP3 SWAP2 POP POP JUMP JUMPDEST PUSH32 0x417272617920697320656D707479000000000000000000000000000000000000 PUSH0 DUP3 ADD MSTORE POP JUMP JUMPDEST PUSH0 PUSH2 0x68E PUSH1 0xE DUP4 PUSH2 0x64A JUMP JUMPDEST SWAP2 POP PUSH2 0x699 DUP3 PUSH2 0x65A JUMP JUMPDEST PUSH1 0x20 DUP3 ADD SWAP1 POP SWAP2 SWAP1 POP JUMP JUMPDEST PUSH0 PUSH1 0x20 DUP3 ADD SWAP1 POP DUP2 DUP2 SUB PUSH0 DUP4 ADD MSTORE PUSH2 0x6BB DUP2 PUSH2 0x682 JUMP JUMPDEST SWAP1 POP SWAP2 SWAP1 POP JUMP JUMPDEST PUSH32 0x4E487B7100000000000000000000000000000000000000000000000000000000 PUSH0 MSTORE PUSH1 0x11 PUSH1 0x4 MSTORE PUSH1 0x24 PUSH0 REVERT JUMPDEST PUSH0 PUSH2 0x6F9 DUP3 PUSH2 0x414 JUMP JUMPDEST SWAP2 POP PUSH2 0x704 DUP4 PUSH2 0x414 JUMP JUMPDEST SWAP3 POP DUP3 DUP3 SUB SWAP1 POP DUP2 DUP2 GT ISZERO PUSH2 0x71C JUMPI PUSH2 0x71B PUSH2 0x6C2 JUMP JUMPDEST JUMPDEST SWAP3 SWAP2 POP POP JUMP JUMPDEST PUSH32 0x4E487B7100000000000000000000000000000000000000000000000000000000 PUSH0 MSTORE PUSH1 0x32 PUSH1 0x4 MSTORE PUSH1 0x24 PUSH0 REVERT JUMPDEST PUSH32 0x4E487B7100000000000000000000000000000000000000000000000000000000 PUSH0 MSTORE PUSH1 0x31 PUSH1 0x4 MSTORE PUSH1 0x24 PUSH0 REVERT JUMPDEST PUSH32 0x4E487B7100000000000000000000000000000000000000000000000000000000 PUSH0 MSTORE PUSH1 0x41 PUSH1 0x4 MSTORE PUSH1 0x24 PUSH0 REVERT JUMPDEST PUSH0 PUSH2 0x7B3 DUP3 PUSH2 0x5D9 JUMP JUMPDEST SWAP2 POP PUSH2 0x7BE DUP4 PUSH2 0x5D9 JUMP JUMPDEST SWAP3 POP DUP3 DUP3 ADD SWAP1 POP DUP3 DUP2 SLT ISZERO PUSH0 DUP4 SLT AND DUP4 DUP3 SLT PUSH0 DUP5 SLT ISZERO AND OR ISZERO PUSH2 0x7E4 JUMPI PUSH2 0x7E3 PUSH2 0x6C2 JUMP JUMPDEST JUMPDEST SWAP3 SWAP2 POP POP JUMP JUMPDEST PUSH32 0x526573756C74696E672076616C75652063616E6E6F74206265206E6567617469 PUSH0 DUP3 ADD MSTORE PUSH32 0x7665000000000000000000000000000000000000000000000000000000000000 PUSH1 0x20 DUP3 ADD MSTORE POP JUMP JUMPDEST PUSH0 PUSH2 0x844 PUSH1 0x22 DUP4 PUSH2 0x64A JUMP JUMPDEST SWAP2 POP PUSH2 0x84F DUP3 PUSH2 0x7EA JUMP JUMPDEST PUSH1 0x40 DUP3 ADD SWAP1 POP SWAP2 SWAP1 POP JUMP JUMPDEST PUSH0 PUSH1 0x20 DUP3 ADD SWAP1 POP DUP2 DUP2 SUB PUSH0 DUP4 ADD MSTORE PUSH2 0x871 DUP2 PUSH2 0x838 JUMP JUMPDEST SWAP1 POP SWAP2 SWAP1 POP JUMP INVALID LOG2 PUSH5 0x6970667358 0x22 SLT KECCAK256 PUSH14 0xF59F0330BF9ACC072E56AA79F114 CALLVALUE 0xE 0xD6 SGT 0xE4 ORIGIN DUP5 SELFBALANCE 0xF9 0xCF SWAP9 0x22 0xBA CREATE2 0xA9 JUMPI SIGNEXTEND PUSH5 0x736F6C6343 STOP ADDMOD BYTE STOP CALLER "
				},
				"gasEstimates": {
					"creation": {
						"codeDepositCost": "444400",
						"executionCost": "478",
						"totalCost": "444878"
					},
					"external": {
						"addToArr(uint256)": "46864",
						"applyModifier(uint256,int256)": "infinite",
						"diffWithNeighbor(uint256,uint256,uint256,uint256)": "infinite",
						"getArr()": "infinite",
						"popWithReturn()": "infinite",
						"resetArr()": "infinite"
					}
				},
				"methodIdentifiers": {
					"addToArr(uint256)": "e1819ff9",
					"applyModifier(uint256,int256)": "f74e51ea",
					"diffWithNeighbor(uint256,uint256,uint256,uint256)": "29432314",
					"getArr()": "fb8cbced",
					"popWithReturn()": "1abe2ac2",
					"resetArr()": "64529db5"
				}
			},
			"storageLayout": {
				"storage": [
					{
						"astId": 111,
						"contract": "contracts/ErrorTriageExercise.sol:ErrorTriageExercise",
						"label": "arr",
						"offset": 0,
						"slot": "0",
						"type": "t_array(t_uint256)dyn_storage"
					}
				],
				"types": {
					"t_array(t_uint256)dyn_storage": {
						"base": "t_uint256",
						"encoding": "dynamic_array",
						"label": "uint256[]",
						"numberOfBytes": "32"
					},
					"t_uint256": {
						"encoding": "inplace",
						"label": "uint256",
						"numberOfBytes": "32"
					}
				}
			},
			"userdoc": {
				"kind": "user",
				"methods": {
					"applyModifier(uint256,int256)": {
						"notice": "Changes the _base by the value of _modifier. Base is always >= 1000. Modifiers can be between positive and negative 100."
					},
					"diffWithNeighbor(uint256,uint256,uint256,uint256)": {
						"notice": "Finds the difference between each uint with its neighbor (a to b, b to c, etc.) and returns a uint array with the absolute integer difference of each pairing."
					}
				},
				"version": 1
			}
		}
	}
}