{
	"contracts/UnburnableToken.sol": {
		"UnburnableToken": {
			"abi": [
				{
					"inputs": [],
					"stateMutability": "nonpayable",
					"type": "constructor"
				},
				{
					"inputs": [],
					"name": "AllTokensClaimed",
					"type": "error"
				},
				{
					"inputs": [],
					"name": "TokensClaimed",
					"type": "error"
				},
				{
					"inputs": [
						{
							"internalType": "address",
							"name": "to",
							"type": "address"
						}
					],
					"name": "UnsafeTransfer",
					"type": "error"
				},
				{
					"inputs": [
						{
							"internalType": "address",
							"name": "",
							"type": "address"
						}
					],
					"name": "balances",
					"outputs": [
						{
							"internalType": "uint256",
							"name": "",
							"type": "uint256"
						}
					],
					"stateMutability": "view",
					"type": "function"
				},
				{
					"inputs": [],
					"name": "claim",
					"outputs": [],
					"stateMutability": "nonpayable",
					"type": "function"
				},
				{
					"inputs": [
						{
							"internalType": "address",
							"name": "_to",
							"type": "address"
						},
						{
							"internalType": "uint256",
							"name": "_amount",
							"type": "uint256"
						}
					],
					"name": "safeTransfer",
					"outputs": [],
					"stateMutability": "nonpayable",
					"type": "function"
				},
				{
					"inputs": [],
					"name": "totalClaimed",
					"outputs": [
						{
							"internalType": "uint256",
							"name": "",
							"type": "uint256"
						}
					],
					"stateMutability": "view",
					"type": "function"
				},
				{
					"inputs": [],
					"name": "totalSupply",
					"outputs": [
						{
							"internalType": "uint256",
							"name": "",
							"type": "uint256"
						}
					],
					"stateMutability": "view",
					"type": "function"
				}
			],
			"devdoc": {
				"kind": "dev",
				"methods": {},
				"version": 1
			},
			"evm": {
				"assembly": "    /* \"contracts/UnburnableToken.sol\":60:1770  contract UnburnableToken {... */\n  mstore(0x40, 0x80)\n    /* \"contracts/UnburnableToken.sol\":636:694  constructor() {... */\n  callvalue\n  dup1\n  iszero\n  tag_1\n  jumpi\n  0x00\n  dup1\n  revert\ntag_1:\n  pop\n    /* \"contracts/UnburnableToken.sol\":675:686  100_000_000 */\n  0x05f5e100\n    /* \"contracts/UnburnableToken.sol\":661:672  totalSupply */\n  0x01\n    /* \"contracts/UnburnableToken.sol\":661:686  totalSupply = 100_000_000 */\n  dup2\n  swap1\n  sstore\n  pop\n    /* \"contracts/UnburnableToken.sol\":60:1770  contract UnburnableToken {... */\n  dataSize(sub_0)\n  dup1\n  dataOffset(sub_0)\n  0x00\n  codecopy\n  0x00\n  return\nstop\n\nsub_0: assembly {\n        /* \"contracts/UnburnableToken.sol\":60:1770  contract UnburnableToken {... */\n      mstore(0x40, 0x80)\n      callvalue\n      dup1\n      iszero\n      tag_1\n      jumpi\n      0x00\n      dup1\n      revert\n    tag_1:\n      pop\n      jumpi(tag_2, lt(calldatasize, 0x04))\n      shr(0xe0, calldataload(0x00))\n      dup1\n      0x18160ddd\n      eq\n      tag_3\n      jumpi\n      dup1\n      0x27e235e3\n      eq\n      tag_4\n      jumpi\n      dup1\n      0x423f6cef\n      eq\n      tag_5\n      jumpi\n      dup1\n      0x4e71d92d\n      eq\n      tag_6\n      jumpi\n      dup1\n      0xd54ad2a1\n      eq\n      tag_7\n      jumpi\n    tag_2:\n      0x00\n      dup1\n      revert\n        /* \"contracts/UnburnableToken.sol\":222:248  uint256 public totalSupply */\n    tag_3:\n      tag_8\n      tag_9\n      jump\t// in\n    tag_8:\n      mload(0x40)\n      tag_10\n      swap2\n      swap1\n      tag_11\n      jump\t// in\n    tag_10:\n      mload(0x40)\n      dup1\n      swap2\n      sub\n      swap1\n      return\n        /* \"contracts/UnburnableToken.sol\":139:182  mapping(address => uint256) public balances */\n    tag_4:\n      tag_12\n      0x04\n      dup1\n      calldatasize\n      sub\n      dup2\n      add\n      swap1\n      tag_13\n      swap2\n      swap1\n      tag_14\n      jump\t// in\n    tag_13:\n      tag_15\n      jump\t// in\n    tag_12:\n      mload(0x40)\n      tag_16\n      swap2\n      swap1\n      tag_11\n      jump\t// in\n    tag_16:\n      mload(0x40)\n      dup1\n      swap2\n      sub\n      swap1\n      return\n        /* \"contracts/UnburnableToken.sol\":1240:1767  function safeTransfer(address _to, uint256 _amount) public {... */\n    tag_5:\n      tag_17\n      0x04\n      dup1\n      calldatasize\n      sub\n      dup2\n      add\n      swap1\n      tag_18\n      swap2\n      swap1\n      tag_19\n      jump\t// in\n    tag_18:\n      tag_20\n      jump\t// in\n    tag_17:\n      stop\n        /* \"contracts/UnburnableToken.sol\":725:1201  function claim() public {... */\n    tag_6:\n      tag_21\n      tag_22\n      jump\t// in\n    tag_21:\n      stop\n        /* \"contracts/UnburnableToken.sol\":293:320  uint256 public totalClaimed */\n    tag_7:\n      tag_23\n      tag_24\n      jump\t// in\n    tag_23:\n      mload(0x40)\n      tag_25\n      swap2\n      swap1\n      tag_11\n      jump\t// in\n    tag_25:\n      mload(0x40)\n      dup1\n      swap2\n      sub\n      swap1\n      return\n        /* \"contracts/UnburnableToken.sol\":222:248  uint256 public totalSupply */\n    tag_9:\n      sload(0x01)\n      dup2\n      jump\t// out\n        /* \"contracts/UnburnableToken.sol\":139:182  mapping(address => uint256) public balances */\n    tag_15:\n      mstore(0x20, 0x00)\n      dup1\n      0x00\n      mstore\n      keccak256(0x00, 0x40)\n      0x00\n      swap2\n      pop\n      swap1\n      pop\n      sload\n      dup2\n      jump\t// out\n        /* \"contracts/UnburnableToken.sol\":1240:1767  function safeTransfer(address _to, uint256 _amount) public {... */\n    tag_20:\n        /* \"contracts/UnburnableToken.sol\":1416:1417  0 */\n      0x00\n        /* \"contracts/UnburnableToken.sol\":1401:1418  _to == address(0) */\n      0xffffffffffffffffffffffffffffffffffffffff\n      and\n        /* \"contracts/UnburnableToken.sol\":1401:1404  _to */\n      dup3\n        /* \"contracts/UnburnableToken.sol\":1401:1418  _to == address(0) */\n      0xffffffffffffffffffffffffffffffffffffffff\n      and\n      eq\n        /* \"contracts/UnburnableToken.sol\":1401:1438  _to == address(0) || _to.balance == 0 */\n      dup1\n      tag_27\n      jumpi\n      pop\n        /* \"contracts/UnburnableToken.sol\":1437:1438  0 */\n      0x00\n        /* \"contracts/UnburnableToken.sol\":1422:1425  _to */\n      dup3\n        /* \"contracts/UnburnableToken.sol\":1422:1433  _to.balance */\n      0xffffffffffffffffffffffffffffffffffffffff\n      and\n      balance\n        /* \"contracts/UnburnableToken.sol\":1422:1438  _to.balance == 0 */\n      eq\n        /* \"contracts/UnburnableToken.sol\":1401:1438  _to == address(0) || _to.balance == 0 */\n    tag_27:\n        /* \"contracts/UnburnableToken.sol\":1397:1493  if (_to == address(0) || _to.balance == 0) {... */\n      iszero\n      tag_28\n      jumpi\n        /* \"contracts/UnburnableToken.sol\":1477:1480  _to */\n      dup2\n        /* \"contracts/UnburnableToken.sol\":1462:1481  UnsafeTransfer(_to) */\n      mload(0x40)\n      0x6a86d24c00000000000000000000000000000000000000000000000000000000\n      dup2\n      mstore\n      0x04\n      add\n      tag_29\n      swap2\n      swap1\n      tag_30\n      jump\t// in\n    tag_29:\n      mload(0x40)\n      dup1\n      swap2\n      sub\n      swap1\n      revert\n        /* \"contracts/UnburnableToken.sol\":1397:1493  if (_to == address(0) || _to.balance == 0) {... */\n    tag_28:\n        /* \"contracts/UnburnableToken.sol\":1582:1589  _amount */\n      dup1\n        /* \"contracts/UnburnableToken.sol\":1559:1567  balances */\n      0x00\n        /* \"contracts/UnburnableToken.sol\":1559:1579  balances[msg.sender] */\n      dup1\n        /* \"contracts/UnburnableToken.sol\":1568:1578  msg.sender */\n      caller\n        /* \"contracts/UnburnableToken.sol\":1559:1579  balances[msg.sender] */\n      0xffffffffffffffffffffffffffffffffffffffff\n      and\n      0xffffffffffffffffffffffffffffffffffffffff\n      and\n      dup2\n      mstore\n      0x20\n      add\n      swap1\n      dup2\n      mstore\n      0x20\n      add\n      0x00\n      keccak256\n      sload\n        /* \"contracts/UnburnableToken.sol\":1559:1589  balances[msg.sender] < _amount */\n      lt\n        /* \"contracts/UnburnableToken.sol\":1555:1648  if (balances[msg.sender] < _amount) {... */\n      iszero\n      tag_31\n      jumpi\n        /* \"contracts/UnburnableToken.sol\":1606:1636  revert(\"Insufficient balance\") */\n      mload(0x40)\n      0x08c379a000000000000000000000000000000000000000000000000000000000\n      dup2\n      mstore\n      0x04\n      add\n      tag_32\n      swap1\n      tag_33\n      jump\t// in\n    tag_32:\n      mload(0x40)\n      dup1\n      swap2\n      sub\n      swap1\n      revert\n        /* \"contracts/UnburnableToken.sol\":1555:1648  if (balances[msg.sender] < _amount) {... */\n    tag_31:\n        /* \"contracts/UnburnableToken.sol\":1717:1724  _amount */\n      dup1\n        /* \"contracts/UnburnableToken.sol\":1693:1701  balances */\n      0x00\n        /* \"contracts/UnburnableToken.sol\":1693:1713  balances[msg.sender] */\n      dup1\n        /* \"contracts/UnburnableToken.sol\":1702:1712  msg.sender */\n      caller\n        /* \"contracts/UnburnableToken.sol\":1693:1713  balances[msg.sender] */\n      0xffffffffffffffffffffffffffffffffffffffff\n      and\n      0xffffffffffffffffffffffffffffffffffffffff\n      and\n      dup2\n      mstore\n      0x20\n      add\n      swap1\n      dup2\n      mstore\n      0x20\n      add\n      0x00\n      keccak256\n      0x00\n        /* \"contracts/UnburnableToken.sol\":1693:1724  balances[msg.sender] -= _amount */\n      dup3\n      dup3\n      sload\n      tag_34\n      swap2\n      swap1\n      tag_35\n      jump\t// in\n    tag_34:\n      swap3\n      pop\n      pop\n      dup2\n      swap1\n      sstore\n      pop\n        /* \"contracts/UnburnableToken.sol\":1752:1759  _amount */\n      dup1\n        /* \"contracts/UnburnableToken.sol\":1735:1743  balances */\n      0x00\n        /* \"contracts/UnburnableToken.sol\":1735:1748  balances[_to] */\n      dup1\n        /* \"contracts/UnburnableToken.sol\":1744:1747  _to */\n      dup5\n        /* \"contracts/UnburnableToken.sol\":1735:1748  balances[_to] */\n      0xffffffffffffffffffffffffffffffffffffffff\n      and\n      0xffffffffffffffffffffffffffffffffffffffff\n      and\n      dup2\n      mstore\n      0x20\n      add\n      swap1\n      dup2\n      mstore\n      0x20\n      add\n      0x00\n      keccak256\n      0x00\n        /* \"contracts/UnburnableToken.sol\":1735:1759  balances[_to] += _amount */\n      dup3\n      dup3\n      sload\n      tag_36\n      swap2\n      swap1\n      tag_37\n      jump\t// in\n    tag_36:\n      swap3\n      pop\n      pop\n      dup2\n      swap1\n      sstore\n      pop\n        /* \"contracts/UnburnableToken.sol\":1240:1767  function safeTransfer(address _to, uint256 _amount) public {... */\n      pop\n      pop\n      jump\t// out\n        /* \"contracts/UnburnableToken.sol\":725:1201  function claim() public {... */\n    tag_22:\n        /* \"contracts/UnburnableToken.sol\":830:841  totalSupply */\n      sload(0x01)\n        /* \"contracts/UnburnableToken.sol\":814:826  totalClaimed */\n      sload(0x02)\n        /* \"contracts/UnburnableToken.sol\":814:841  totalClaimed >= totalSupply */\n      lt\n        /* \"contracts/UnburnableToken.sol\":810:895  if (totalClaimed >= totalSupply) {... */\n      tag_39\n      jumpi\n        /* \"contracts/UnburnableToken.sol\":865:883  AllTokensClaimed() */\n      mload(0x40)\n      0xcbe2483100000000000000000000000000000000000000000000000000000000\n      dup2\n      mstore\n      0x04\n      add\n      mload(0x40)\n      dup1\n      swap2\n      sub\n      swap1\n      revert\n        /* \"contracts/UnburnableToken.sol\":810:895  if (totalClaimed >= totalSupply) {... */\n    tag_39:\n        /* \"contracts/UnburnableToken.sol\":963:973  hasClaimed */\n      0x03\n        /* \"contracts/UnburnableToken.sol\":963:985  hasClaimed[msg.sender] */\n      0x00\n        /* \"contracts/UnburnableToken.sol\":974:984  msg.sender */\n      caller\n        /* \"contracts/UnburnableToken.sol\":963:985  hasClaimed[msg.sender] */\n      0xffffffffffffffffffffffffffffffffffffffff\n      and\n      0xffffffffffffffffffffffffffffffffffffffff\n      and\n      dup2\n      mstore\n      0x20\n      add\n      swap1\n      dup2\n      mstore\n      0x20\n      add\n      0x00\n      keccak256\n      0x00\n      swap1\n      sload\n      swap1\n      0x0100\n      exp\n      swap1\n      div\n      0xff\n      and\n        /* \"contracts/UnburnableToken.sol\":959:1036  if (hasClaimed[msg.sender]) {... */\n      iszero\n      tag_40\n      jumpi\n        /* \"contracts/UnburnableToken.sol\":1009:1024  TokensClaimed() */\n      mload(0x40)\n      0x0b1327a600000000000000000000000000000000000000000000000000000000\n      dup2\n      mstore\n      0x04\n      add\n      mload(0x40)\n      dup1\n      swap2\n      sub\n      swap1\n      revert\n        /* \"contracts/UnburnableToken.sol\":959:1036  if (hasClaimed[msg.sender]) {... */\n    tag_40:\n        /* \"contracts/UnburnableToken.sol\":1118:1122  1000 */\n      0x03e8\n        /* \"contracts/UnburnableToken.sol\":1094:1102  balances */\n      0x00\n        /* \"contracts/UnburnableToken.sol\":1094:1114  balances[msg.sender] */\n      dup1\n        /* \"contracts/UnburnableToken.sol\":1103:1113  msg.sender */\n      caller\n        /* \"contracts/UnburnableToken.sol\":1094:1114  balances[msg.sender] */\n      0xffffffffffffffffffffffffffffffffffffffff\n      and\n      0xffffffffffffffffffffffffffffffffffffffff\n      and\n      dup2\n      mstore\n      0x20\n      add\n      swap1\n      dup2\n      mstore\n      0x20\n      add\n      0x00\n      keccak256\n      0x00\n        /* \"contracts/UnburnableToken.sol\":1094:1122  balances[msg.sender] += 1000 */\n      dup3\n      dup3\n      sload\n      tag_41\n      swap2\n      swap1\n      tag_37\n      jump\t// in\n    tag_41:\n      swap3\n      pop\n      pop\n      dup2\n      swap1\n      sstore\n      pop\n        /* \"contracts/UnburnableToken.sol\":1149:1153  1000 */\n      0x03e8\n        /* \"contracts/UnburnableToken.sol\":1133:1145  totalClaimed */\n      0x02\n      0x00\n        /* \"contracts/UnburnableToken.sol\":1133:1153  totalClaimed += 1000 */\n      dup3\n      dup3\n      sload\n      tag_42\n      swap2\n      swap1\n      tag_37\n      jump\t// in\n    tag_42:\n      swap3\n      pop\n      pop\n      dup2\n      swap1\n      sstore\n      pop\n        /* \"contracts/UnburnableToken.sol\":1189:1193  true */\n      0x01\n        /* \"contracts/UnburnableToken.sol\":1164:1174  hasClaimed */\n      0x03\n        /* \"contracts/UnburnableToken.sol\":1164:1186  hasClaimed[msg.sender] */\n      0x00\n        /* \"contracts/UnburnableToken.sol\":1175:1185  msg.sender */\n      caller\n        /* \"contracts/UnburnableToken.sol\":1164:1186  hasClaimed[msg.sender] */\n      0xffffffffffffffffffffffffffffffffffffffff\n      and\n      0xffffffffffffffffffffffffffffffffffffffff\n      and\n      dup2\n      mstore\n      0x20\n      add\n      swap1\n      dup2\n      mstore\n      0x20\n      add\n      0x00\n      keccak256\n      0x00\n        /* \"contracts/UnburnableToken.sol\":1164:1193  hasClaimed[msg.sender] = true */\n      0x0100\n      exp\n      dup2\n      sload\n      dup2\n      0xff\n      mul\n      not\n      and\n      swap1\n      dup4\n      iszero\n      iszero\n      mul\n      or\n      swap1\n      sstore\n      pop\n        /* \"contracts/UnburnableToken.sol\":725:1201  function claim() public {... */\n      jump\t// out\n        /* \"contracts/UnburnableToken.sol\":293:320  uint256 public totalClaimed */\n    tag_24:\n      sload(0x02)\n      dup2\n      jump\t// out\n        /* \"#utility.yul\":7:84   */\n    tag_43:\n        /* \"#utility.yul\":44:51   */\n      0x00\n        /* \"#utility.yul\":73:78   */\n      dup2\n        /* \"#utility.yul\":62:78   */\n      swap1\n      pop\n        /* \"#utility.yul\":7:84   */\n      swap2\n      swap1\n      pop\n      jump\t// out\n        /* \"#utility.yul\":90:208   */\n    tag_44:\n        /* \"#utility.yul\":177:201   */\n      tag_62\n        /* \"#utility.yul\":195:200   */\n      dup2\n        /* \"#utility.yul\":177:201   */\n      tag_43\n      jump\t// in\n    tag_62:\n        /* \"#utility.yul\":172:175   */\n      dup3\n        /* \"#utility.yul\":165:202   */\n      mstore\n        /* \"#utility.yul\":90:208   */\n      pop\n      pop\n      jump\t// out\n        /* \"#utility.yul\":214:436   */\n    tag_11:\n        /* \"#utility.yul\":307:311   */\n      0x00\n        /* \"#utility.yul\":345:347   */\n      0x20\n        /* \"#utility.yul\":334:343   */\n      dup3\n        /* \"#utility.yul\":330:348   */\n      add\n        /* \"#utility.yul\":322:348   */\n      swap1\n      pop\n        /* \"#utility.yul\":358:429   */\n      tag_64\n        /* \"#utility.yul\":426:427   */\n      0x00\n        /* \"#utility.yul\":415:424   */\n      dup4\n        /* \"#utility.yul\":411:428   */\n      add\n        /* \"#utility.yul\":402:408   */\n      dup5\n        /* \"#utility.yul\":358:429   */\n      tag_44\n      jump\t// in\n    tag_64:\n        /* \"#utility.yul\":214:436   */\n      swap3\n      swap2\n      pop\n      pop\n      jump\t// out\n        /* \"#utility.yul\":523:640   */\n    tag_46:\n        /* \"#utility.yul\":632:633   */\n      0x00\n        /* \"#utility.yul\":629:630   */\n      dup1\n        /* \"#utility.yul\":622:634   */\n      revert\n        /* \"#utility.yul\":769:895   */\n    tag_48:\n        /* \"#utility.yul\":806:813   */\n      0x00\n        /* \"#utility.yul\":846:888   */\n      0xffffffffffffffffffffffffffffffffffffffff\n        /* \"#utility.yul\":839:844   */\n      dup3\n        /* \"#utility.yul\":835:889   */\n      and\n        /* \"#utility.yul\":824:889   */\n      swap1\n      pop\n        /* \"#utility.yul\":769:895   */\n      swap2\n      swap1\n      pop\n      jump\t// out\n        /* \"#utility.yul\":901:997   */\n    tag_49:\n        /* \"#utility.yul\":938:945   */\n      0x00\n        /* \"#utility.yul\":967:991   */\n      tag_70\n        /* \"#utility.yul\":985:990   */\n      dup3\n        /* \"#utility.yul\":967:991   */\n      tag_48\n      jump\t// in\n    tag_70:\n        /* \"#utility.yul\":956:991   */\n      swap1\n      pop\n        /* \"#utility.yul\":901:997   */\n      swap2\n      swap1\n      pop\n      jump\t// out\n        /* \"#utility.yul\":1003:1125   */\n    tag_50:\n        /* \"#utility.yul\":1076:1100   */\n      tag_72\n        /* \"#utility.yul\":1094:1099   */\n      dup2\n        /* \"#utility.yul\":1076:1100   */\n      tag_49\n      jump\t// in\n    tag_72:\n        /* \"#utility.yul\":1069:1074   */\n      dup2\n        /* \"#utility.yul\":1066:1101   */\n      eq\n        /* \"#utility.yul\":1056:1119   */\n      tag_73\n      jumpi\n        /* \"#utility.yul\":1115:1116   */\n      0x00\n        /* \"#utility.yul\":1112:1113   */\n      dup1\n        /* \"#utility.yul\":1105:1117   */\n      revert\n        /* \"#utility.yul\":1056:1119   */\n    tag_73:\n        /* \"#utility.yul\":1003:1125   */\n      pop\n      jump\t// out\n        /* \"#utility.yul\":1131:1270   */\n    tag_51:\n        /* \"#utility.yul\":1177:1182   */\n      0x00\n        /* \"#utility.yul\":1215:1221   */\n      dup2\n        /* \"#utility.yul\":1202:1222   */\n      calldataload\n        /* \"#utility.yul\":1193:1222   */\n      swap1\n      pop\n        /* \"#utility.yul\":1231:1264   */\n      tag_75\n        /* \"#utility.yul\":1258:1263   */\n      dup2\n        /* \"#utility.yul\":1231:1264   */\n      tag_50\n      jump\t// in\n    tag_75:\n        /* \"#utility.yul\":1131:1270   */\n      swap3\n      swap2\n      pop\n      pop\n      jump\t// out\n        /* \"#utility.yul\":1276:1605   */\n    tag_14:\n        /* \"#utility.yul\":1335:1341   */\n      0x00\n        /* \"#utility.yul\":1384:1386   */\n      0x20\n        /* \"#utility.yul\":1372:1381   */\n      dup3\n        /* \"#utility.yul\":1363:1370   */\n      dup5\n        /* \"#utility.yul\":1359:1382   */\n      sub\n        /* \"#utility.yul\":1355:1387   */\n      slt\n        /* \"#utility.yul\":1352:1471   */\n      iszero\n      tag_77\n      jumpi\n        /* \"#utility.yul\":1390:1469   */\n      tag_78\n      tag_46\n      jump\t// in\n    tag_78:\n        /* \"#utility.yul\":1352:1471   */\n    tag_77:\n        /* \"#utility.yul\":1510:1511   */\n      0x00\n        /* \"#utility.yul\":1535:1588   */\n      tag_79\n        /* \"#utility.yul\":1580:1587   */\n      dup5\n        /* \"#utility.yul\":1571:1577   */\n      dup3\n        /* \"#utility.yul\":1560:1569   */\n      dup6\n        /* \"#utility.yul\":1556:1578   */\n      add\n        /* \"#utility.yul\":1535:1588   */\n      tag_51\n      jump\t// in\n    tag_79:\n        /* \"#utility.yul\":1525:1588   */\n      swap2\n      pop\n        /* \"#utility.yul\":1481:1598   */\n      pop\n        /* \"#utility.yul\":1276:1605   */\n      swap3\n      swap2\n      pop\n      pop\n      jump\t// out\n        /* \"#utility.yul\":1611:1733   */\n    tag_52:\n        /* \"#utility.yul\":1684:1708   */\n      tag_81\n        /* \"#utility.yul\":1702:1707   */\n      dup2\n        /* \"#utility.yul\":1684:1708   */\n      tag_43\n      jump\t// in\n    tag_81:\n        /* \"#utility.yul\":1677:1682   */\n      dup2\n        /* \"#utility.yul\":1674:1709   */\n      eq\n        /* \"#utility.yul\":1664:1727   */\n      tag_82\n      jumpi\n        /* \"#utility.yul\":1723:1724   */\n      0x00\n        /* \"#utility.yul\":1720:1721   */\n      dup1\n        /* \"#utility.yul\":1713:1725   */\n      revert\n        /* \"#utility.yul\":1664:1727   */\n    tag_82:\n        /* \"#utility.yul\":1611:1733   */\n      pop\n      jump\t// out\n        /* \"#utility.yul\":1739:1878   */\n    tag_53:\n        /* \"#utility.yul\":1785:1790   */\n      0x00\n        /* \"#utility.yul\":1823:1829   */\n      dup2\n        /* \"#utility.yul\":1810:1830   */\n      calldataload\n        /* \"#utility.yul\":1801:1830   */\n      swap1\n      pop\n        /* \"#utility.yul\":1839:1872   */\n      tag_84\n        /* \"#utility.yul\":1866:1871   */\n      dup2\n        /* \"#utility.yul\":1839:1872   */\n      tag_52\n      jump\t// in\n    tag_84:\n        /* \"#utility.yul\":1739:1878   */\n      swap3\n      swap2\n      pop\n      pop\n      jump\t// out\n        /* \"#utility.yul\":1884:2358   */\n    tag_19:\n        /* \"#utility.yul\":1952:1958   */\n      0x00\n        /* \"#utility.yul\":1960:1966   */\n      dup1\n        /* \"#utility.yul\":2009:2011   */\n      0x40\n        /* \"#utility.yul\":1997:2006   */\n      dup4\n        /* \"#utility.yul\":1988:1995   */\n      dup6\n        /* \"#utility.yul\":1984:2007   */\n      sub\n        /* \"#utility.yul\":1980:2012   */\n      slt\n        /* \"#utility.yul\":1977:2096   */\n      iszero\n      tag_86\n      jumpi\n        /* \"#utility.yul\":2015:2094   */\n      tag_87\n      tag_46\n      jump\t// in\n    tag_87:\n        /* \"#utility.yul\":1977:2096   */\n    tag_86:\n        /* \"#utility.yul\":2135:2136   */\n      0x00\n        /* \"#utility.yul\":2160:2213   */\n      tag_88\n        /* \"#utility.yul\":2205:2212   */\n      dup6\n        /* \"#utility.yul\":2196:2202   */\n      dup3\n        /* \"#utility.yul\":2185:2194   */\n      dup7\n        /* \"#utility.yul\":2181:2203   */\n      add\n        /* \"#utility.yul\":2160:2213   */\n      tag_51\n      jump\t// in\n    tag_88:\n        /* \"#utility.yul\":2150:2213   */\n      swap3\n      pop\n        /* \"#utility.yul\":2106:2223   */\n      pop\n        /* \"#utility.yul\":2262:2264   */\n      0x20\n        /* \"#utility.yul\":2288:2341   */\n      tag_89\n        /* \"#utility.yul\":2333:2340   */\n      dup6\n        /* \"#utility.yul\":2324:2330   */\n      dup3\n        /* \"#utility.yul\":2313:2322   */\n      dup7\n        /* \"#utility.yul\":2309:2331   */\n      add\n        /* \"#utility.yul\":2288:2341   */\n      tag_53\n      jump\t// in\n    tag_89:\n        /* \"#utility.yul\":2278:2341   */\n      swap2\n      pop\n        /* \"#utility.yul\":2233:2351   */\n      pop\n        /* \"#utility.yul\":1884:2358   */\n      swap3\n      pop\n      swap3\n      swap1\n      pop\n      jump\t// out\n        /* \"#utility.yul\":2364:2482   */\n    tag_54:\n        /* \"#utility.yul\":2451:2475   */\n      tag_91\n        /* \"#utility.yul\":2469:2474   */\n      dup2\n        /* \"#utility.yul\":2451:2475   */\n      tag_49\n      jump\t// in\n    tag_91:\n        /* \"#utility.yul\":2446:2449   */\n      dup3\n        /* \"#utility.yul\":2439:2476   */\n      mstore\n        /* \"#utility.yul\":2364:2482   */\n      pop\n      pop\n      jump\t// out\n        /* \"#utility.yul\":2488:2710   */\n    tag_30:\n        /* \"#utility.yul\":2581:2585   */\n      0x00\n        /* \"#utility.yul\":2619:2621   */\n      0x20\n        /* \"#utility.yul\":2608:2617   */\n      dup3\n        /* \"#utility.yul\":2604:2622   */\n      add\n        /* \"#utility.yul\":2596:2622   */\n      swap1\n      pop\n        /* \"#utility.yul\":2632:2703   */\n      tag_93\n        /* \"#utility.yul\":2700:2701   */\n      0x00\n        /* \"#utility.yul\":2689:2698   */\n      dup4\n        /* \"#utility.yul\":2685:2702   */\n      add\n        /* \"#utility.yul\":2676:2682   */\n      dup5\n        /* \"#utility.yul\":2632:2703   */\n      tag_54\n      jump\t// in\n    tag_93:\n        /* \"#utility.yul\":2488:2710   */\n      swap3\n      swap2\n      pop\n      pop\n      jump\t// out\n        /* \"#utility.yul\":2716:2885   */\n    tag_55:\n        /* \"#utility.yul\":2800:2811   */\n      0x00\n        /* \"#utility.yul\":2834:2840   */\n      dup3\n        /* \"#utility.yul\":2829:2832   */\n      dup3\n        /* \"#utility.yul\":2822:2841   */\n      mstore\n        /* \"#utility.yul\":2874:2878   */\n      0x20\n        /* \"#utility.yul\":2869:2872   */\n      dup3\n        /* \"#utility.yul\":2865:2879   */\n      add\n        /* \"#utility.yul\":2850:2879   */\n      swap1\n      pop\n        /* \"#utility.yul\":2716:2885   */\n      swap3\n      swap2\n      pop\n      pop\n      jump\t// out\n        /* \"#utility.yul\":2891:3061   */\n    tag_56:\n        /* \"#utility.yul\":3031:3053   */\n      0x496e73756666696369656e742062616c616e6365000000000000000000000000\n        /* \"#utility.yul\":3027:3028   */\n      0x00\n        /* \"#utility.yul\":3019:3025   */\n      dup3\n        /* \"#utility.yul\":3015:3029   */\n      add\n        /* \"#utility.yul\":3008:3054   */\n      mstore\n        /* \"#utility.yul\":2891:3061   */\n      pop\n      jump\t// out\n        /* \"#utility.yul\":3067:3433   */\n    tag_57:\n        /* \"#utility.yul\":3209:3212   */\n      0x00\n        /* \"#utility.yul\":3230:3297   */\n      tag_97\n        /* \"#utility.yul\":3294:3296   */\n      0x14\n        /* \"#utility.yul\":3289:3292   */\n      dup4\n        /* \"#utility.yul\":3230:3297   */\n      tag_55\n      jump\t// in\n    tag_97:\n        /* \"#utility.yul\":3223:3297   */\n      swap2\n      pop\n        /* \"#utility.yul\":3306:3399   */\n      tag_98\n        /* \"#utility.yul\":3395:3398   */\n      dup3\n        /* \"#utility.yul\":3306:3399   */\n      tag_56\n      jump\t// in\n    tag_98:\n        /* \"#utility.yul\":3424:3426   */\n      0x20\n        /* \"#utility.yul\":3419:3422   */\n      dup3\n        /* \"#utility.yul\":3415:3427   */\n      add\n        /* \"#utility.yul\":3408:3427   */\n      swap1\n      pop\n        /* \"#utility.yul\":3067:3433   */\n      swap2\n      swap1\n      pop\n      jump\t// out\n        /* \"#utility.yul\":3439:3858   */\n    tag_33:\n        /* \"#utility.yul\":3605:3609   */\n      0x00\n        /* \"#utility.yul\":3643:3645   */\n      0x20\n        /* \"#utility.yul\":3632:3641   */\n      dup3\n        /* \"#utility.yul\":3628:3646   */\n      add\n        /* \"#utility.yul\":3620:3646   */\n      swap1\n      pop\n        /* \"#utility.yul\":3692:3701   */\n      dup2\n        /* \"#utility.yul\":3686:3690   */\n      dup2\n        /* \"#utility.yul\":3682:3702   */\n      sub\n        /* \"#utility.yul\":3678:3679   */\n      0x00\n        /* \"#utility.yul\":3667:3676   */\n      dup4\n        /* \"#utility.yul\":3663:3680   */\n      add\n        /* \"#utility.yul\":3656:3703   */\n      mstore\n        /* \"#utility.yul\":3720:3851   */\n      tag_100\n        /* \"#utility.yul\":3846:3850   */\n      dup2\n        /* \"#utility.yul\":3720:3851   */\n      tag_57\n      jump\t// in\n    tag_100:\n        /* \"#utility.yul\":3712:3851   */\n      swap1\n      pop\n        /* \"#utility.yul\":3439:3858   */\n      swap2\n      swap1\n      pop\n      jump\t// out\n        /* \"#utility.yul\":3864:4044   */\n    tag_58:\n        /* \"#utility.yul\":3912:3989   */\n      0x4e487b7100000000000000000000000000000000000000000000000000000000\n        /* \"#utility.yul\":3909:3910   */\n      0x00\n        /* \"#utility.yul\":3902:3990   */\n      mstore\n        /* \"#utility.yul\":4009:4013   */\n      0x11\n        /* \"#utility.yul\":4006:4007   */\n      0x04\n        /* \"#utility.yul\":3999:4014   */\n      mstore\n        /* \"#utility.yul\":4033:4037   */\n      0x24\n        /* \"#utility.yul\":4030:4031   */\n      0x00\n        /* \"#utility.yul\":4023:4038   */\n      revert\n        /* \"#utility.yul\":4050:4244   */\n    tag_35:\n        /* \"#utility.yul\":4090:4094   */\n      0x00\n        /* \"#utility.yul\":4110:4130   */\n      tag_103\n        /* \"#utility.yul\":4128:4129   */\n      dup3\n        /* \"#utility.yul\":4110:4130   */\n      tag_43\n      jump\t// in\n    tag_103:\n        /* \"#utility.yul\":4105:4130   */\n      swap2\n      pop\n        /* \"#utility.yul\":4144:4164   */\n      tag_104\n        /* \"#utility.yul\":4162:4163   */\n      dup4\n        /* \"#utility.yul\":4144:4164   */\n      tag_43\n      jump\t// in\n    tag_104:\n        /* \"#utility.yul\":4139:4164   */\n      swap3\n      pop\n        /* \"#utility.yul\":4188:4189   */\n      dup3\n        /* \"#utility.yul\":4185:4186   */\n      dup3\n        /* \"#utility.yul\":4181:4190   */\n      sub\n        /* \"#utility.yul\":4173:4190   */\n      swap1\n      pop\n        /* \"#utility.yul\":4212:4213   */\n      dup2\n        /* \"#utility.yul\":4206:4210   */\n      dup2\n        /* \"#utility.yul\":4203:4214   */\n      gt\n        /* \"#utility.yul\":4200:4237   */\n      iszero\n      tag_105\n      jumpi\n        /* \"#utility.yul\":4217:4235   */\n      tag_106\n      tag_58\n      jump\t// in\n    tag_106:\n        /* \"#utility.yul\":4200:4237   */\n    tag_105:\n        /* \"#utility.yul\":4050:4244   */\n      swap3\n      swap2\n      pop\n      pop\n      jump\t// out\n        /* \"#utility.yul\":4250:4441   */\n    tag_37:\n        /* \"#utility.yul\":4290:4293   */\n      0x00\n        /* \"#utility.yul\":4309:4329   */\n      tag_108\n        /* \"#utility.yul\":4327:4328   */\n      dup3\n        /* \"#utility.yul\":4309:4329   */\n      tag_43\n      jump\t// in\n    tag_108:\n        /* \"#utility.yul\":4304:4329   */\n      swap2\n      pop\n        /* \"#utility.yul\":4343:4363   */\n      tag_109\n        /* \"#utility.yul\":4361:4362   */\n      dup4\n        /* \"#utility.yul\":4343:4363   */\n      tag_43\n      jump\t// in\n    tag_109:\n        /* \"#utility.yul\":4338:4363   */\n      swap3\n      pop\n        /* \"#utility.yul\":4386:4387   */\n      dup3\n        /* \"#utility.yul\":4383:4384   */\n      dup3\n        /* \"#utility.yul\":4379:4388   */\n      add\n        /* \"#utility.yul\":4372:4388   */\n      swap1\n      pop\n        /* \"#utility.yul\":4407:4410   */\n      dup1\n        /* \"#utility.yul\":4404:4405   */\n      dup3\n        /* \"#utility.yul\":4401:4411   */\n      gt\n        /* \"#utility.yul\":4398:4434   */\n      iszero\n      tag_110\n      jumpi\n        /* \"#utility.yul\":4414:4432   */\n      tag_111\n      tag_58\n      jump\t// in\n    tag_111:\n        /* \"#utility.yul\":4398:4434   */\n    tag_110:\n        /* \"#utility.yul\":4250:4441   */\n      swap3\n      swap2\n      pop\n      pop\n      jump\t// out\n\n    auxdata: 0xa2646970667358221220f7be1a8cf0da1ea9fa6db06442671612ca7f2d746c892b178194ed23a644db6364736f6c634300081a0033\n}\n",
				"bytecode": {
					"linkReferences": {},
					"object": "6080604052348015600e575f80fd5b506305f5e1006001819055506106d2806100275f395ff3fe608060405234801561000f575f80fd5b5060043610610055575f3560e01c806318160ddd1461005957806327e235e314610077578063423f6cef146100a75780634e71d92d146100c3578063d54ad2a1146100cd575b5f80fd5b6100616100eb565b60405161006e919061045f565b60405180910390f35b610091600480360381019061008c91906104d6565b6100f1565b60405161009e919061045f565b60405180910390f35b6100c160048036038101906100bc919061052b565b610105565b005b6100cb6102be565b005b6100d5610441565b6040516100e2919061045f565b60405180910390f35b60015481565b5f602052805f5260405f205f915090505481565b5f73ffffffffffffffffffffffffffffffffffffffff168273ffffffffffffffffffffffffffffffffffffffff16148061015557505f8273ffffffffffffffffffffffffffffffffffffffff1631145b1561019757816040517f6a86d24c00000000000000000000000000000000000000000000000000000000815260040161018e9190610578565b60405180910390fd5b805f803373ffffffffffffffffffffffffffffffffffffffff1673ffffffffffffffffffffffffffffffffffffffff1681526020019081526020015f20541015610216576040517f08c379a000000000000000000000000000000000000000000000000000000000815260040161020d906105eb565b60405180910390fd5b805f803373ffffffffffffffffffffffffffffffffffffffff1673ffffffffffffffffffffffffffffffffffffffff1681526020019081526020015f205f8282546102619190610636565b92505081905550805f808473ffffffffffffffffffffffffffffffffffffffff1673ffffffffffffffffffffffffffffffffffffffff1681526020019081526020015f205f8282546102b39190610669565b925050819055505050565b600154600254106102fb576040517fcbe2483100000000000000000000000000000000000000000000000000000000815260040160405180910390fd5b60035f3373ffffffffffffffffffffffffffffffffffffffff1673ffffffffffffffffffffffffffffffffffffffff1681526020019081526020015f205f9054906101000a900460ff161561037c576040517f0b1327a600000000000000000000000000000000000000000000000000000000815260040160405180910390fd5b6103e85f803373ffffffffffffffffffffffffffffffffffffffff1673ffffffffffffffffffffffffffffffffffffffff1681526020019081526020015f205f8282546103c99190610669565b925050819055506103e860025f8282546103e39190610669565b92505081905550600160035f3373ffffffffffffffffffffffffffffffffffffffff1673ffffffffffffffffffffffffffffffffffffffff1681526020019081526020015f205f6101000a81548160ff021916908315150217905550565b60025481565b5f819050919050565b61045981610447565b82525050565b5f6020820190506104725f830184610450565b92915050565b5f80fd5b5f73ffffffffffffffffffffffffffffffffffffffff82169050919050565b5f6104a58261047c565b9050919050565b6104b58161049b565b81146104bf575f80fd5b50565b5f813590506104d0816104ac565b92915050565b5f602082840312156104eb576104ea610478565b5b5f6104f8848285016104c2565b91505092915050565b61050a81610447565b8114610514575f80fd5b50565b5f8135905061052581610501565b92915050565b5f806040838503121561054157610540610478565b5b5f61054e858286016104c2565b925050602061055f85828601610517565b9150509250929050565b6105728161049b565b82525050565b5f60208201905061058b5f830184610569565b92915050565b5f82825260208201905092915050565b7f496e73756666696369656e742062616c616e63650000000000000000000000005f82015250565b5f6105d5601483610591565b91506105e0826105a1565b602082019050919050565b5f6020820190508181035f830152610602816105c9565b9050919050565b7f4e487b71000000000000000000000000000000000000000000000000000000005f52601160045260245ffd5b5f61064082610447565b915061064b83610447565b925082820390508181111561066357610662610609565b5b92915050565b5f61067382610447565b915061067e83610447565b925082820190508082111561069657610695610609565b5b9291505056fea2646970667358221220f7be1a8cf0da1ea9fa6db06442671612ca7f2d746c892b178194ed23a644db6364736f6c634300081a0033",
					"opcodes": "PUSH1 0x80 PUSH1 0x40 MSTORE CALLVALUE DUP1 ISZERO PUSH1 0xE JUMPI PUSH0 DUP1 REVERT JUMPDEST POP PUSH4 0x5F5E100 PUSH1 0x1 DUP2 SWAP1 SSTORE POP PUSH2 0x6D2 DUP1 PUSH2 0x27 PUSH0 CODECOPY PUSH0 RETURN INVALID PUSH1 0x80 PUSH1 0x40 MSTORE CALLVALUE DUP1 ISZERO PUSH2 0xF JUMPI PUSH0 DUP1 REVERT JUMPDEST POP PUSH1 0x4 CALLDATASIZE LT PUSH2 0x55 JUMPI PUSH0 CALLDATALOAD PUSH1 0xE0 SHR DUP1 PUSH4 0x18160DDD EQ PUSH2 0x59 JUMPI DUP1 PUSH4 0x27E235E3 EQ PUSH2 0x77 JUMPI DUP1 PUSH4 0x423F6CEF EQ PUSH2 0xA7 JUMPI DUP1 PUSH4 0x4E71D92D EQ PUSH2 0xC3 JUMPI DUP1 PUSH4 0xD54AD2A1 EQ PUSH2 0xCD JUMPI JUMPDEST PUSH0 DUP1 REVERT JUMPDEST PUSH2 0x61 PUSH2 0xEB JUMP JUMPDEST PUSH1 0x40 MLOAD PUSH2 0x6E SWAP2 SWAP1 PUSH2 0x45F JUMP JUMPDEST PUSH1 0x40 MLOAD DUP1 SWAP2 SUB SWAP1 RETURN JUMPDEST PUSH2 0x91 PUSH1 0x4 DUP1 CALLDATASIZE SUB DUP2 ADD SWAP1 PUSH2 0x8C SWAP2 SWAP1 PUSH2 0x4D6 JUMP JUMPDEST PUSH2 0xF1 JUMP JUMPDEST PUSH1 0x40 MLOAD PUSH2 0x9E SWAP2 SWAP1 PUSH2 0x45F JUMP JUMPDEST PUSH1 0x40 MLOAD DUP1 SWAP2 SUB SWAP1 RETURN JUMPDEST PUSH2 0xC1 PUSH1 0x4 DUP1 CALLDATASIZE SUB DUP2 ADD SWAP1 PUSH2 0xBC SWAP2 SWAP1 PUSH2 0x52B JUMP JUMPDEST PUSH2 0x105 JUMP JUMPDEST STOP JUMPDEST PUSH2 0xCB PUSH2 0x2BE JUMP JUMPDEST STOP JUMPDEST PUSH2 0xD5 PUSH2 0x441 JUMP JUMPDEST PUSH1 0x40 MLOAD PUSH2 0xE2 SWAP2 SWAP1 PUSH2 0x45F JUMP JUMPDEST PUSH1 0x40 MLOAD DUP1 SWAP2 SUB SWAP1 RETURN JUMPDEST PUSH1 0x1 SLOAD DUP2 JUMP JUMPDEST PUSH0 PUSH1 0x20 MSTORE DUP1 PUSH0 MSTORE PUSH1 0x40 PUSH0 KECCAK256 PUSH0 SWAP2 POP SWAP1 POP SLOAD DUP2 JUMP JUMPDEST PUSH0 PUSH20 0xFFFFFFFFFFFFFFFFFFFFFFFFFFFFFFFFFFFFFFFF AND DUP3 PUSH20 0xFFFFFFFFFFFFFFFFFFFFFFFFFFFFFFFFFFFFFFFF AND EQ DUP1 PUSH2 0x155 JUMPI POP PUSH0 DUP3 PUSH20 0xFFFFFFFFFFFFFFFFFFFFFFFFFFFFFFFFFFFFFFFF AND BALANCE EQ JUMPDEST ISZERO PUSH2 0x197 JUMPI DUP2 PUSH1 0x40 MLOAD PUSH32 0x6A86D24C00000000000000000000000000000000000000000000000000000000 DUP2 MSTORE PUSH1 0x4 ADD PUSH2 0x18E SWAP2 SWAP1 PUSH2 0x578 JUMP JUMPDEST PUSH1 0x40 MLOAD DUP1 SWAP2 SUB SWAP1 REVERT JUMPDEST DUP1 PUSH0 DUP1 CALLER PUSH20 0xFFFFFFFFFFFFFFFFFFFFFFFFFFFFFFFFFFFFFFFF AND PUSH20 0xFFFFFFFFFFFFFFFFFFFFFFFFFFFFFFFFFFFFFFFF AND DUP2 MSTORE PUSH1 0x20 ADD SWAP1 DUP2 MSTORE PUSH1 0x20 ADD PUSH0 KECCAK256 SLOAD LT ISZERO PUSH2 0x216 JUMPI PUSH1 0x40 MLOAD PUSH32 0x8C379A000000000000000000000000000000000000000000000000000000000 DUP2 MSTORE PUSH1 0x4 ADD PUSH2 0x20D SWAP1 PUSH2 0x5EB JUMP JUMPDEST PUSH1 0x40 MLOAD DUP1 SWAP2 SUB SWAP1 REVERT JUMPDEST DUP1 PUSH0 DUP1 CALLER PUSH20 0xFFFFFFFFFFFFFFFFFFFFFFFFFFFFFFFFFFFFFFFF AND PUSH20 0xFFFFFFFFFFFFFFFFFFFFFFFFFFFFFFFFFFFFFFFF AND DUP2 MSTORE PUSH1 0x20 ADD SWAP1 DUP2 MSTORE PUSH1 0x20 ADD PUSH0 KECCAK256 PUSH0 DUP3 DUP3 SLOAD PUSH2 0x261 SWAP2 SWAP1 PUSH2 0x636 JUMP JUMPDEST SWAP3 POP POP DUP2 SWAP1 SSTORE POP DUP1 PUSH0 DUP1 DUP5 PUSH20 0xFFFFFFFFFFFFFFFFFFFFFFFFFFFFFFFFFFFFFFFF AND PUSH20 0xFFFFFFFFFFFFFFFFFFFFFFFFFFFFFFFFFFFFFFFF AND DUP2 MSTORE PUSH1 0x20 ADD SWAP1 DUP2 MSTORE PUSH1 0x20 ADD PUSH0 KECCAK256 PUSH0 DUP3 DUP3 SLOAD PUSH2 0x2B3 SWAP2 SWAP1 PUSH2 0x669 JUMP JUMPDEST SWAP3 POP POP DUP2 SWAP1 SSTORE POP POP POP JUMP JUMPDEST PUSH1 0x1 SLOAD PUSH1 0x2 SLOAD LT PUSH2 0x2FB JUMPI PUSH1 0x40 MLOAD PUSH32 0xCBE2483100000000000000000000000000000000000000000000000000000000 DUP2 MSTORE PUSH1 0x4 ADD PUSH1 0x40 MLOAD DUP1 SWAP2 SUB SWAP1 REVERT JUMPDEST PUSH1 0x3 PUSH0 CALLER PUSH20 0xFFFFFFFFFFFFFFFFFFFFFFFFFFFFFFFFFFFFFFFF AND PUSH20 0xFFFFFFFFFFFFFFFFFFFFFFFFFFFFFFFFFFFFFFFF AND DUP2 MSTORE PUSH1 0x20 ADD SWAP1 DUP2 MSTORE PUSH1 0x20 ADD PUSH0 KECCAK256 PUSH0 SWAP1 SLOAD SWAP1 PUSH2 0x100 EXP SWAP1 DIV PUSH1 0xFF AND ISZERO PUSH2 0x37C JUMPI PUSH1 0x40 MLOAD PUSH32 0xB1327A600000000000000000000000000000000000000000000000000000000 DUP2 MSTORE PUSH1 0x4 ADD PUSH1 0x40 MLOAD DUP1 SWAP2 SUB SWAP1 REVERT JUMPDEST PUSH2 0x3E8 PUSH0 DUP1 CALLER PUSH20 0xFFFFFFFFFFFFFFFFFFFFFFFFFFFFFFFFFFFFFFFF AND PUSH20 0xFFFFFFFFFFFFFFFFFFFFFFFFFFFFFFFFFFFFFFFF AND DUP2 MSTORE PUSH1 0x20 ADD SWAP1 DUP2 MSTORE PUSH1 0x20 ADD PUSH0 KECCAK256 PUSH0 DUP3 DUP3 SLOAD PUSH2 0x3C9 SWAP2 SWAP1 PUSH2 0x669 JUMP JUMPDEST SWAP3 POP POP DUP2 SWAP1 SSTORE POP PUSH2 0x3E8 PUSH1 0x2 PUSH0 DUP3 DUP3 SLOAD PUSH2 0x3E3 SWAP2 SWAP1 PUSH2 0x669 JUMP JUMPDEST SWAP3 POP POP DUP2 SWAP1 SSTORE POP PUSH1 0x1 PUSH1 0x3 PUSH0 CALLER PUSH20 0xFFFFFFFFFFFFFFFFFFFFFFFFFFFFFFFFFFFFFFFF AND PUSH20 0xFFFFFFFFFFFFFFFFFFFFFFFFFFFFFFFFFFFFFFFF AND DUP2 MSTORE PUSH1 0x20 ADD SWAP1 DUP2 MSTORE PUSH1 0x20 ADD PUSH0 KECCAK256 PUSH0 PUSH2 0x100 EXP DUP2 SLOAD DUP2 PUSH1 0xFF MUL NOT AND SWAP1 DUP4 ISZERO ISZERO MUL OR SWAP1 SSTORE POP JUMP JUMPDEST PUSH1 0x2 SLOAD DUP2 JUMP JUMPDEST PUSH0 DUP2 SWAP1 POP SWAP2 SWAP1 POP JUMP JUMPDEST PUSH2 0x459 DUP2 PUSH2 0x447 JUMP JUMPDEST DUP3 MSTORE POP POP JUMP JUMPDEST PUSH0 PUSH1 0x20 DUP3 ADD SWAP1 POP PUSH2 0x472 PUSH0 DUP4 ADD DUP5 PUSH2 0x450 JUMP JUMPDEST SWAP3 SWAP2 POP POP JUMP JUMPDEST PUSH0 DUP1 REVERT JUMPDEST PUSH0 PUSH20 0xFFFFFFFFFFFFFFFFFFFFFFFFFFFFFFFFFFFFFFFF DUP3 AND SWAP1 POP SWAP2 SWAP1 POP JUMP JUMPDEST PUSH0 PUSH2 0x4A5 DUP3 PUSH2 0x47C JUMP JUMPDEST SWAP1 POP SWAP2 SWAP1 POP JUMP JUMPDEST PUSH2 0x4B5 DUP2 PUSH2 0x49B JUMP JUMPDEST DUP2 EQ PUSH2 0x4BF JUMPI PUSH0 DUP1 REVERT JUMPDEST POP JUMP JUMPDEST PUSH0 DUP2 CALLDATALOAD SWAP1 POP PUSH2 0x4D0 DUP2 PUSH2 0x4AC JUMP JUMPDEST SWAP3 SWAP2 POP POP JUMP JUMPDEST PUSH0 PUSH1 0x20 DUP3 DUP5 SUB SLT ISZERO PUSH2 0x4EB JUMPI PUSH2 0x4EA PUSH2 0x478 JUMP JUMPDEST JUMPDEST PUSH0 PUSH2 0x4F8 DUP5 DUP3 DUP6 ADD PUSH2 0x4C2 JUMP JUMPDEST SWAP2 POP POP SWAP3 SWAP2 POP POP JUMP JUMPDEST PUSH2 0x50A DUP2 PUSH2 0x447 JUMP JUMPDEST DUP2 EQ PUSH2 0x514 JUMPI PUSH0 DUP1 REVERT JUMPDEST POP JUMP JUMPDEST PUSH0 DUP2 CALLDATALOAD SWAP1 POP PUSH2 0x525 DUP2 PUSH2 0x501 JUMP JUMPDEST SWAP3 SWAP2 POP POP JUMP JUMPDEST PUSH0 DUP1 PUSH1 0x40 DUP4 DUP6 SUB SLT ISZERO PUSH2 0x541 JUMPI PUSH2 0x540 PUSH2 0x478 JUMP JUMPDEST JUMPDEST PUSH0 PUSH2 0x54E DUP6 DUP3 DUP7 ADD PUSH2 0x4C2 JUMP JUMPDEST SWAP3 POP POP PUSH1 0x20 PUSH2 0x55F DUP6 DUP3 DUP7 ADD PUSH2 0x517 JUMP JUMPDEST SWAP2 POP POP SWAP3 POP SWAP3 SWAP1 POP JUMP JUMPDEST PUSH2 0x572 DUP2 PUSH2 0x49B JUMP JUMPDEST DUP3 MSTORE POP POP JUMP JUMPDEST PUSH0 PUSH1 0x20 DUP3 ADD SWAP1 POP PUSH2 0x58B PUSH0 DUP4 ADD DUP5 PUSH2 0x569 JUMP JUMPDEST SWAP3 SWAP2 POP POP JUMP JUMPDEST PUSH0 DUP3 DUP3 MSTORE PUSH1 0x20 DUP3 ADD SWAP1 POP SWAP3 SWAP2 POP POP JUMP JUMPDEST PUSH32 0x496E73756666696369656E742062616C616E6365000000000000000000000000 PUSH0 DUP3 ADD MSTORE POP JUMP JUMPDEST PUSH0 PUSH2 0x5D5 PUSH1 0x14 DUP4 PUSH2 0x591 JUMP JUMPDEST SWAP2 POP PUSH2 0x5E0 DUP3 PUSH2 0x5A1 JUMP JUMPDEST PUSH1 0x20 DUP3 ADD SWAP1 POP SWAP2 SWAP1 POP JUMP JUMPDEST PUSH0 PUSH1 0x20 DUP3 ADD SWAP1 POP DUP2 DUP2 SUB PUSH0 DUP4 ADD MSTORE PUSH2 0x602 DUP2 PUSH2 0x5C9 JUMP JUMPDEST SWAP1 POP SWAP2 SWAP1 POP JUMP JUMPDEST PUSH32 0x4E487B7100000000000000000000000000000000000000000000000000000000 PUSH0 MSTORE PUSH1 0x11 PUSH1 0x4 MSTORE PUSH1 0x24 PUSH0 REVERT JUMPDEST PUSH0 PUSH2 0x640 DUP3 PUSH2 0x447 JUMP JUMPDEST SWAP2 POP PUSH2 0x64B DUP4 PUSH2 0x447 JUMP JUMPDEST SWAP3 POP DUP3 DUP3 SUB SWAP1 POP DUP2 DUP2 GT ISZERO PUSH2 0x663 JUMPI PUSH2 0x662 PUSH2 0x609 JUMP JUMPDEST JUMPDEST SWAP3 SWAP2 POP POP JUMP JUMPDEST PUSH0 PUSH2 0x673 DUP3 PUSH2 0x447 JUMP JUMPDEST SWAP2 POP PUSH2 0x67E DUP4 PUSH2 0x447 JUMP JUMPDEST SWAP3 POP DUP3 DUP3 ADD SWAP1 POP DUP1 DUP3 GT ISZERO PUSH2 0x696 JUMPI PUSH2 0x695 PUSH2 0x609 JUMP JUMPDEST JUMPDEST SWAP3 SWAP2 POP POP JUMP INVALID LOG2 PUSH5 0x6970667358 0x22 SLT KECCAK256 0xF7 0xBE BYTE DUP13 CREATE 0xDA 0x1E 0xA9 STATICCALL PUSH14 0xB06442671612CA7F2D746C892B17 DUP2 SWAP5 0xED 0x23 0xA6 PREVRANDAO 0xDB PUSH4 0x64736F6C PUSH4 0x4300081A STOP CALLER "
				},
				"gasEstimates": {
					"creation": {
						"codeDepositCost": "349200",
						"executionCost": "22498",
						"totalCost": "371698"
					},
					"external": {
						"balances(address)": "2801",
						"claim()": "infinite",
						"safeTransfer(address,uint256)": "infinite",
						"totalClaimed()": "2491",
						"totalSupply()": "2403"
					}
				},
				"methodIdentifiers": {
					"balances(address)": "27e235e3",
					"claim()": "4e71d92d",
					"safeTransfer(address,uint256)": "423f6cef",
					"totalClaimed()": "d54ad2a1",
					"totalSupply()": "18160ddd"
				}
			},
			"storageLayout": {
				"storage": [
					{
						"astId": 5,
						"contract": "contracts/UnburnableToken.sol:UnburnableToken",
						"label": "balances",
						"offset": 0,
						"slot": "0",
						"type": "t_mapping(t_address,t_uint256)"
					},
					{
						"astId": 7,
						"contract": "contracts/UnburnableToken.sol:UnburnableToken",
						"label": "totalSupply",
						"offset": 0,
						"slot": "1",
						"type": "t_uint256"
					},
					{
						"astId": 9,
						"contract": "contracts/UnburnableToken.sol:UnburnableToken",
						"label": "totalClaimed",
						"offset": 0,
						"slot": "2",
						"type": "t_uint256"
					},
					{
						"astId": 13,
						"contract": "contracts/UnburnableToken.sol:UnburnableToken",
						"label": "hasClaimed",
						"offset": 0,
						"slot": "3",
						"type": "t_mapping(t_address,t_bool)"
					}
				],
				"types": {
					"t_address": {
						"encoding": "inplace",
						"label": "address",
						"numberOfBytes": "20"
					},
					"t_bool": {
						"encoding": "inplace",
						"label": "bool",
						"numberOfBytes": "1"
					},
					"t_mapping(t_address,t_bool)": {
						"encoding": "mapping",
						"key": "t_address",
						"label": "mapping(address => bool)",
						"numberOfBytes": "32",
						"value": "t_bool"
					},
					"t_mapping(t_address,t_uint256)": {
						"encoding": "mapping",
						"key": "t_address",
						"label": "mapping(address => uint256)",
						"numberOfBytes": "32",
						"value": "t_uint256"
					},
					"t_uint256": {
						"encoding": "inplace",
						"label": "uint256",
						"numberOfBytes": "32"
					}
				}
			},
			"userdoc": {
				"kind": "user",
				"methods": {},
				"version": 1
			}
		}
	}
}