{
	"contracts/FavoriteRecords.sol": {
		"FavoriteRecords": {
			"abi": [
				{
					"inputs": [],
					"stateMutability": "nonpayable",
					"type": "constructor"
				},
				{
					"inputs": [
						{
							"internalType": "string",
							"name": "albumName",
							"type": "string"
						}
					],
					"name": "NotApproved",
					"type": "error"
				},
				{
					"inputs": [
						{
							"internalType": "string",
							"name": "albumName",
							"type": "string"
						}
					],
					"name": "addRecord",
					"outputs": [],
					"stateMutability": "nonpayable",
					"type": "function"
				},
				{
					"inputs": [
						{
							"internalType": "uint256",
							"name": "",
							"type": "uint256"
						}
					],
					"name": "approvedRecordList",
					"outputs": [
						{
							"internalType": "string",
							"name": "",
							"type": "string"
						}
					],
					"stateMutability": "view",
					"type": "function"
				},
				{
					"inputs": [
						{
							"internalType": "string",
							"name": "",
							"type": "string"
						}
					],
					"name": "approvedRecords",
					"outputs": [
						{
							"internalType": "bool",
							"name": "",
							"type": "bool"
						}
					],
					"stateMutability": "view",
					"type": "function"
				},
				{
					"inputs": [],
					"name": "getApprovedRecords",
					"outputs": [
						{
							"internalType": "string[]",
							"name": "",
							"type": "string[]"
						}
					],
					"stateMutability": "view",
					"type": "function"
				},
				{
					"inputs": [
						{
							"internalType": "address",
							"name": "user",
							"type": "address"
						}
					],
					"name": "getUserFavorites",
					"outputs": [
						{
							"internalType": "string[]",
							"name": "",
							"type": "string[]"
						}
					],
					"stateMutability": "view",
					"type": "function"
				},
				{
					"inputs": [],
					"name": "resetUserFavorites",
					"outputs": [],
					"stateMutability": "nonpayable",
					"type": "function"
				}
			],
			"devdoc": {
				"kind": "dev",
				"methods": {},
				"version": 1
			},
			"evm": {
				"assembly": "    /* \"contracts/FavoriteRecords.sol\":60:2552  contract FavoriteRecords {... */\n  mstore(0x40, 0x80)\n    /* \"contracts/FavoriteRecords.sol\":709:1344  constructor() {... */\n  callvalue\n  dup1\n  iszero\n  tag_1\n  jumpi\n  0x00\n  dup1\n  revert\ntag_1:\n  pop\n    /* \"contracts/FavoriteRecords.sol\":775:798  string[9] memory albums */\n  0x00\n    /* \"contracts/FavoriteRecords.sol\":775:1110  string[9] memory albums = [... */\n  mload(0x40)\n  dup1\n  0x0120\n  add\n  0x40\n  mstore\n  dup1\n  mload(0x40)\n  dup1\n  0x40\n  add\n  0x40\n  mstore\n  dup1\n  0x08\n  dup2\n  mstore\n  0x20\n  add\n  0x546872696c6c6572000000000000000000000000000000000000000000000000\n  dup2\n  mstore\n  pop\n  dup2\n  mstore\n  0x20\n  add\n  mload(0x40)\n  dup1\n  0x40\n  add\n  0x40\n  mstore\n  dup1\n  0x0d\n  dup2\n  mstore\n  0x20\n  add\n  0x4261636b20696e20426c61636b00000000000000000000000000000000000000\n  dup2\n  mstore\n  pop\n  dup2\n  mstore\n  0x20\n  add\n  mload(0x40)\n  dup1\n  0x40\n  add\n  0x40\n  mstore\n  dup1\n  0x0d\n  dup2\n  mstore\n  0x20\n  add\n  0x54686520426f6479677561726400000000000000000000000000000000000000\n  dup2\n  mstore\n  pop\n  dup2\n  mstore\n  0x20\n  add\n  mload(0x40)\n  dup1\n  0x40\n  add\n  0x40\n  mstore\n  dup1\n  0x19\n  dup2\n  mstore\n  0x20\n  add\n  0x546865204461726b2053696465206f6620746865204d6f6f6e00000000000000\n  dup2\n  mstore\n  pop\n  dup2\n  mstore\n  0x20\n  add\n  mload(0x40)\n  dup1\n  0x40\n  add\n  0x40\n  mstore\n  dup1\n  0x1f\n  dup2\n  mstore\n  0x20\n  add\n  0x546865697220477265617465737420486974732028313937312d313937352900\n  dup2\n  mstore\n  pop\n  dup2\n  mstore\n  0x20\n  add\n  mload(0x40)\n  dup1\n  0x40\n  add\n  0x40\n  mstore\n  dup1\n  0x10\n  dup2\n  mstore\n  0x20\n  add\n  0x486f74656c2043616c69666f726e696100000000000000000000000000000000\n  dup2\n  mstore\n  pop\n  dup2\n  mstore\n  0x20\n  add\n  mload(0x40)\n  dup1\n  0x40\n  add\n  0x40\n  mstore\n  dup1\n  0x0c\n  dup2\n  mstore\n  0x20\n  add\n  0x436f6d65204f6e204f7665720000000000000000000000000000000000000000\n  dup2\n  mstore\n  pop\n  dup2\n  mstore\n  0x20\n  add\n  mload(0x40)\n  dup1\n  0x40\n  add\n  0x40\n  mstore\n  dup1\n  0x07\n  dup2\n  mstore\n  0x20\n  add\n  0x52756d6f75727300000000000000000000000000000000000000000000000000\n  dup2\n  mstore\n  pop\n  dup2\n  mstore\n  0x20\n  add\n  mload(0x40)\n  dup1\n  0x40\n  add\n  0x40\n  mstore\n  dup1\n  0x14\n  dup2\n  mstore\n  0x20\n  add\n  0x5361747572646179204e69676874204665766572000000000000000000000000\n  dup2\n  mstore\n  pop\n  dup2\n  mstore\n  pop\n  swap1\n  pop\n    /* \"contracts/FavoriteRecords.sol\":1189:1198  uint256 i */\n  0x00\n    /* \"contracts/FavoriteRecords.sol\":1184:1337  for (uint256 i = 0; i < albums.length; i++) {... */\ntag_4:\n    /* \"contracts/FavoriteRecords.sol\":1208:1221  albums.length */\n  0x09\n    /* \"contracts/FavoriteRecords.sol\":1204:1205  i */\n  dup2\n    /* \"contracts/FavoriteRecords.sol\":1204:1221  i < albums.length */\n  lt\n    /* \"contracts/FavoriteRecords.sol\":1184:1337  for (uint256 i = 0; i < albums.length; i++) {... */\n  iszero\n  tag_5\n  jumpi\n    /* \"contracts/FavoriteRecords.sol\":1272:1276  true */\n  0x01\n    /* \"contracts/FavoriteRecords.sol\":1243:1258  approvedRecords */\n  0x00\n    /* \"contracts/FavoriteRecords.sol\":1259:1265  albums */\n  dup4\n    /* \"contracts/FavoriteRecords.sol\":1266:1267  i */\n  dup4\n    /* \"contracts/FavoriteRecords.sol\":1259:1268  albums[i] */\n  0x09\n  dup2\n  lt\n  tag_7\n  jumpi\n  tag_8\n  tag_9\n  jump\t// in\ntag_8:\ntag_7:\n  0x20\n  mul\n  add\n  mload\n    /* \"contracts/FavoriteRecords.sol\":1243:1269  approvedRecords[albums[i]] */\n  mload(0x40)\n  tag_10\n  swap2\n  swap1\n  tag_11\n  jump\t// in\ntag_10:\n  swap1\n  dup2\n  mstore\n  0x20\n  add\n  mload(0x40)\n  dup1\n  swap2\n  sub\n  swap1\n  keccak256\n  0x00\n    /* \"contracts/FavoriteRecords.sol\":1243:1276  approvedRecords[albums[i]] = true */\n  0x0100\n  exp\n  dup2\n  sload\n  dup2\n  0xff\n  mul\n  not\n  and\n  swap1\n  dup4\n  iszero\n  iszero\n  mul\n  or\n  swap1\n  sstore\n  pop\n    /* \"contracts/FavoriteRecords.sol\":1291:1309  approvedRecordList */\n  0x01\n    /* \"contracts/FavoriteRecords.sol\":1315:1321  albums */\n  dup3\n    /* \"contracts/FavoriteRecords.sol\":1322:1323  i */\n  dup3\n    /* \"contracts/FavoriteRecords.sol\":1315:1324  albums[i] */\n  0x09\n  dup2\n  lt\n  tag_12\n  jumpi\n  tag_13\n  tag_9\n  jump\t// in\ntag_13:\ntag_12:\n  0x20\n  mul\n  add\n  mload\n    /* \"contracts/FavoriteRecords.sol\":1291:1325  approvedRecordList.push(albums[i]) */\n  swap1\n  dup1\n  0x01\n  dup2\n  sload\n  add\n  dup1\n  dup3\n  sstore\n  dup1\n  swap2\n  pop\n  pop\n  0x01\n  swap1\n  sub\n  swap1\n  0x00\n  mstore\n  keccak256(0x00, 0x20)\n  add\n  0x00\n  swap1\n  swap2\n  swap1\n  swap2\n  swap1\n  swap2\n  pop\n  swap1\n  dup2\n  tag_15\n  swap2\n  swap1\n  tag_16\n  jump\t// in\ntag_15:\n  pop\n    /* \"contracts/FavoriteRecords.sol\":1223:1226  i++ */\n  dup1\n  dup1\n  0x01\n  add\n  swap2\n  pop\n  pop\n    /* \"contracts/FavoriteRecords.sol\":1184:1337  for (uint256 i = 0; i < albums.length; i++) {... */\n  jump(tag_4)\ntag_5:\n  pop\n    /* \"contracts/FavoriteRecords.sol\":723:1344  {... */\n  pop\n    /* \"contracts/FavoriteRecords.sol\":60:2552  contract FavoriteRecords {... */\n  jump(tag_17)\n    /* \"#utility.yul\":7:187   */\ntag_9:\n    /* \"#utility.yul\":55:132   */\n  0x4e487b7100000000000000000000000000000000000000000000000000000000\n    /* \"#utility.yul\":52:53   */\n  0x00\n    /* \"#utility.yul\":45:133   */\n  mstore\n    /* \"#utility.yul\":152:156   */\n  0x32\n    /* \"#utility.yul\":149:150   */\n  0x04\n    /* \"#utility.yul\":142:157   */\n  mstore\n    /* \"#utility.yul\":176:180   */\n  0x24\n    /* \"#utility.yul\":173:174   */\n  0x00\n    /* \"#utility.yul\":166:181   */\n  revert\n    /* \"#utility.yul\":193:292   */\ntag_18:\n    /* \"#utility.yul\":245:251   */\n  0x00\n    /* \"#utility.yul\":279:284   */\n  dup2\n    /* \"#utility.yul\":273:285   */\n  mload\n    /* \"#utility.yul\":263:285   */\n  swap1\n  pop\n    /* \"#utility.yul\":193:292   */\n  swap2\n  swap1\n  pop\n  jump\t// out\n    /* \"#utility.yul\":298:446   */\ntag_19:\n    /* \"#utility.yul\":400:411   */\n  0x00\n    /* \"#utility.yul\":437:440   */\n  dup2\n    /* \"#utility.yul\":422:440   */\n  swap1\n  pop\n    /* \"#utility.yul\":298:446   */\n  swap3\n  swap2\n  pop\n  pop\n  jump\t// out\n    /* \"#utility.yul\":452:591   */\ntag_20:\n    /* \"#utility.yul\":541:547   */\n  dup3\n    /* \"#utility.yul\":536:539   */\n  dup2\n    /* \"#utility.yul\":531:534   */\n  dup4\n    /* \"#utility.yul\":525:548   */\n  mcopy\n    /* \"#utility.yul\":582:583   */\n  0x00\n    /* \"#utility.yul\":573:579   */\n  dup4\n    /* \"#utility.yul\":568:571   */\n  dup4\n    /* \"#utility.yul\":564:580   */\n  add\n    /* \"#utility.yul\":557:584   */\n  mstore\n    /* \"#utility.yul\":452:591   */\n  pop\n  pop\n  pop\n  jump\t// out\n    /* \"#utility.yul\":597:987   */\ntag_21:\n    /* \"#utility.yul\":703:706   */\n  0x00\n    /* \"#utility.yul\":731:770   */\n  tag_47\n    /* \"#utility.yul\":764:769   */\n  dup3\n    /* \"#utility.yul\":731:770   */\n  tag_18\n  jump\t// in\ntag_47:\n    /* \"#utility.yul\":786:875   */\n  tag_48\n    /* \"#utility.yul\":868:874   */\n  dup2\n    /* \"#utility.yul\":863:866   */\n  dup6\n    /* \"#utility.yul\":786:875   */\n  tag_19\n  jump\t// in\ntag_48:\n    /* \"#utility.yul\":779:875   */\n  swap4\n  pop\n    /* \"#utility.yul\":884:949   */\n  tag_49\n    /* \"#utility.yul\":942:948   */\n  dup2\n    /* \"#utility.yul\":937:940   */\n  dup6\n    /* \"#utility.yul\":930:934   */\n  0x20\n    /* \"#utility.yul\":923:928   */\n  dup7\n    /* \"#utility.yul\":919:935   */\n  add\n    /* \"#utility.yul\":884:949   */\n  tag_20\n  jump\t// in\ntag_49:\n    /* \"#utility.yul\":974:980   */\n  dup1\n    /* \"#utility.yul\":969:972   */\n  dup5\n    /* \"#utility.yul\":965:981   */\n  add\n    /* \"#utility.yul\":958:981   */\n  swap2\n  pop\n    /* \"#utility.yul\":707:987   */\n  pop\n    /* \"#utility.yul\":597:987   */\n  swap3\n  swap2\n  pop\n  pop\n  jump\t// out\n    /* \"#utility.yul\":993:1268   */\ntag_11:\n    /* \"#utility.yul\":1125:1128   */\n  0x00\n    /* \"#utility.yul\":1147:1242   */\n  tag_51\n    /* \"#utility.yul\":1238:1241   */\n  dup3\n    /* \"#utility.yul\":1229:1235   */\n  dup5\n    /* \"#utility.yul\":1147:1242   */\n  tag_21\n  jump\t// in\ntag_51:\n    /* \"#utility.yul\":1140:1242   */\n  swap2\n  pop\n    /* \"#utility.yul\":1259:1262   */\n  dup2\n    /* \"#utility.yul\":1252:1262   */\n  swap1\n  pop\n    /* \"#utility.yul\":993:1268   */\n  swap3\n  swap2\n  pop\n  pop\n  jump\t// out\n    /* \"#utility.yul\":1274:1454   */\ntag_22:\n    /* \"#utility.yul\":1322:1399   */\n  0x4e487b7100000000000000000000000000000000000000000000000000000000\n    /* \"#utility.yul\":1319:1320   */\n  0x00\n    /* \"#utility.yul\":1312:1400   */\n  mstore\n    /* \"#utility.yul\":1419:1423   */\n  0x41\n    /* \"#utility.yul\":1416:1417   */\n  0x04\n    /* \"#utility.yul\":1409:1424   */\n  mstore\n    /* \"#utility.yul\":1443:1447   */\n  0x24\n    /* \"#utility.yul\":1440:1441   */\n  0x00\n    /* \"#utility.yul\":1433:1448   */\n  revert\n    /* \"#utility.yul\":1460:1640   */\ntag_23:\n    /* \"#utility.yul\":1508:1585   */\n  0x4e487b7100000000000000000000000000000000000000000000000000000000\n    /* \"#utility.yul\":1505:1506   */\n  0x00\n    /* \"#utility.yul\":1498:1586   */\n  mstore\n    /* \"#utility.yul\":1605:1609   */\n  0x22\n    /* \"#utility.yul\":1602:1603   */\n  0x04\n    /* \"#utility.yul\":1595:1610   */\n  mstore\n    /* \"#utility.yul\":1629:1633   */\n  0x24\n    /* \"#utility.yul\":1626:1627   */\n  0x00\n    /* \"#utility.yul\":1619:1634   */\n  revert\n    /* \"#utility.yul\":1646:1966   */\ntag_24:\n    /* \"#utility.yul\":1690:1696   */\n  0x00\n    /* \"#utility.yul\":1727:1728   */\n  0x02\n    /* \"#utility.yul\":1721:1725   */\n  dup3\n    /* \"#utility.yul\":1717:1729   */\n  div\n    /* \"#utility.yul\":1707:1729   */\n  swap1\n  pop\n    /* \"#utility.yul\":1774:1775   */\n  0x01\n    /* \"#utility.yul\":1768:1772   */\n  dup3\n    /* \"#utility.yul\":1764:1776   */\n  and\n    /* \"#utility.yul\":1795:1813   */\n  dup1\n    /* \"#utility.yul\":1785:1866   */\n  tag_55\n  jumpi\n    /* \"#utility.yul\":1851:1855   */\n  0x7f\n    /* \"#utility.yul\":1843:1849   */\n  dup3\n    /* \"#utility.yul\":1839:1856   */\n  and\n    /* \"#utility.yul\":1829:1856   */\n  swap2\n  pop\n    /* \"#utility.yul\":1785:1866   */\ntag_55:\n    /* \"#utility.yul\":1913:1915   */\n  0x20\n    /* \"#utility.yul\":1905:1911   */\n  dup3\n    /* \"#utility.yul\":1902:1916   */\n  lt\n    /* \"#utility.yul\":1882:1900   */\n  dup2\n    /* \"#utility.yul\":1879:1917   */\n  sub\n    /* \"#utility.yul\":1876:1960   */\n  tag_56\n  jumpi\n    /* \"#utility.yul\":1932:1950   */\n  tag_57\n  tag_23\n  jump\t// in\ntag_57:\n    /* \"#utility.yul\":1876:1960   */\ntag_56:\n    /* \"#utility.yul\":1697:1966   */\n  pop\n    /* \"#utility.yul\":1646:1966   */\n  swap2\n  swap1\n  pop\n  jump\t// out\n    /* \"#utility.yul\":1972:2113   */\ntag_25:\n    /* \"#utility.yul\":2021:2025   */\n  0x00\n    /* \"#utility.yul\":2044:2047   */\n  dup2\n    /* \"#utility.yul\":2036:2047   */\n  swap1\n  pop\n    /* \"#utility.yul\":2067:2070   */\n  dup2\n    /* \"#utility.yul\":2064:2065   */\n  0x00\n    /* \"#utility.yul\":2057:2071   */\n  mstore\n    /* \"#utility.yul\":2101:2105   */\n  0x20\n    /* \"#utility.yul\":2098:2099   */\n  0x00\n    /* \"#utility.yul\":2088:2106   */\n  keccak256\n    /* \"#utility.yul\":2080:2106   */\n  swap1\n  pop\n    /* \"#utility.yul\":1972:2113   */\n  swap2\n  swap1\n  pop\n  jump\t// out\n    /* \"#utility.yul\":2119:2212   */\ntag_26:\n    /* \"#utility.yul\":2156:2162   */\n  0x00\n    /* \"#utility.yul\":2203:2205   */\n  0x20\n    /* \"#utility.yul\":2198:2200   */\n  0x1f\n    /* \"#utility.yul\":2191:2196   */\n  dup4\n    /* \"#utility.yul\":2187:2201   */\n  add\n    /* \"#utility.yul\":2183:2206   */\n  div\n    /* \"#utility.yul\":2173:2206   */\n  swap1\n  pop\n    /* \"#utility.yul\":2119:2212   */\n  swap2\n  swap1\n  pop\n  jump\t// out\n    /* \"#utility.yul\":2218:2325   */\ntag_27:\n    /* \"#utility.yul\":2262:2270   */\n  0x00\n    /* \"#utility.yul\":2312:2317   */\n  dup3\n    /* \"#utility.yul\":2306:2310   */\n  dup3\n    /* \"#utility.yul\":2302:2318   */\n  shl\n    /* \"#utility.yul\":2281:2318   */\n  swap1\n  pop\n    /* \"#utility.yul\":2218:2325   */\n  swap3\n  swap2\n  pop\n  pop\n  jump\t// out\n    /* \"#utility.yul\":2331:2724   */\ntag_28:\n    /* \"#utility.yul\":2400:2406   */\n  0x00\n    /* \"#utility.yul\":2450:2451   */\n  0x08\n    /* \"#utility.yul\":2438:2448   */\n  dup4\n    /* \"#utility.yul\":2434:2452   */\n  mul\n    /* \"#utility.yul\":2473:2570   */\n  tag_62\n    /* \"#utility.yul\":2503:2569   */\n  0xffffffffffffffffffffffffffffffffffffffffffffffffffffffffffffffff\n    /* \"#utility.yul\":2492:2501   */\n  dup3\n    /* \"#utility.yul\":2473:2570   */\n  tag_27\n  jump\t// in\ntag_62:\n    /* \"#utility.yul\":2591:2630   */\n  tag_63\n    /* \"#utility.yul\":2621:2629   */\n  dup7\n    /* \"#utility.yul\":2610:2619   */\n  dup4\n    /* \"#utility.yul\":2591:2630   */\n  tag_27\n  jump\t// in\ntag_63:\n    /* \"#utility.yul\":2579:2630   */\n  swap6\n  pop\n    /* \"#utility.yul\":2663:2667   */\n  dup1\n    /* \"#utility.yul\":2659:2668   */\n  not\n    /* \"#utility.yul\":2652:2657   */\n  dup5\n    /* \"#utility.yul\":2648:2669   */\n  and\n    /* \"#utility.yul\":2639:2669   */\n  swap4\n  pop\n    /* \"#utility.yul\":2712:2716   */\n  dup1\n    /* \"#utility.yul\":2702:2710   */\n  dup7\n    /* \"#utility.yul\":2698:2717   */\n  and\n    /* \"#utility.yul\":2691:2696   */\n  dup5\n    /* \"#utility.yul\":2688:2718   */\n  or\n    /* \"#utility.yul\":2678:2718   */\n  swap3\n  pop\n    /* \"#utility.yul\":2407:2724   */\n  pop\n  pop\n    /* \"#utility.yul\":2331:2724   */\n  swap4\n  swap3\n  pop\n  pop\n  pop\n  jump\t// out\n    /* \"#utility.yul\":2730:2807   */\ntag_29:\n    /* \"#utility.yul\":2767:2774   */\n  0x00\n    /* \"#utility.yul\":2796:2801   */\n  dup2\n    /* \"#utility.yul\":2785:2801   */\n  swap1\n  pop\n    /* \"#utility.yul\":2730:2807   */\n  swap2\n  swap1\n  pop\n  jump\t// out\n    /* \"#utility.yul\":2813:2873   */\ntag_30:\n    /* \"#utility.yul\":2841:2844   */\n  0x00\n    /* \"#utility.yul\":2862:2867   */\n  dup2\n    /* \"#utility.yul\":2855:2867   */\n  swap1\n  pop\n    /* \"#utility.yul\":2813:2873   */\n  swap2\n  swap1\n  pop\n  jump\t// out\n    /* \"#utility.yul\":2879:3021   */\ntag_31:\n    /* \"#utility.yul\":2929:2938   */\n  0x00\n    /* \"#utility.yul\":2962:3015   */\n  tag_67\n    /* \"#utility.yul\":2980:3014   */\n  tag_68\n    /* \"#utility.yul\":2989:3013   */\n  tag_69\n    /* \"#utility.yul\":3007:3012   */\n  dup5\n    /* \"#utility.yul\":2989:3013   */\n  tag_29\n  jump\t// in\ntag_69:\n    /* \"#utility.yul\":2980:3014   */\n  tag_30\n  jump\t// in\ntag_68:\n    /* \"#utility.yul\":2962:3015   */\n  tag_29\n  jump\t// in\ntag_67:\n    /* \"#utility.yul\":2949:3015   */\n  swap1\n  pop\n    /* \"#utility.yul\":2879:3021   */\n  swap2\n  swap1\n  pop\n  jump\t// out\n    /* \"#utility.yul\":3027:3102   */\ntag_32:\n    /* \"#utility.yul\":3070:3073   */\n  0x00\n    /* \"#utility.yul\":3091:3096   */\n  dup2\n    /* \"#utility.yul\":3084:3096   */\n  swap1\n  pop\n    /* \"#utility.yul\":3027:3102   */\n  swap2\n  swap1\n  pop\n  jump\t// out\n    /* \"#utility.yul\":3108:3377   */\ntag_33:\n    /* \"#utility.yul\":3218:3257   */\n  tag_72\n    /* \"#utility.yul\":3249:3256   */\n  dup4\n    /* \"#utility.yul\":3218:3257   */\n  tag_31\n  jump\t// in\ntag_72:\n    /* \"#utility.yul\":3279:3370   */\n  tag_73\n    /* \"#utility.yul\":3328:3369   */\n  tag_74\n    /* \"#utility.yul\":3352:3368   */\n  dup3\n    /* \"#utility.yul\":3328:3369   */\n  tag_32\n  jump\t// in\ntag_74:\n    /* \"#utility.yul\":3320:3326   */\n  dup5\n    /* \"#utility.yul\":3313:3317   */\n  dup5\n    /* \"#utility.yul\":3307:3318   */\n  sload\n    /* \"#utility.yul\":3279:3370   */\n  tag_28\n  jump\t// in\ntag_73:\n    /* \"#utility.yul\":3273:3277   */\n  dup3\n    /* \"#utility.yul\":3266:3371   */\n  sstore\n    /* \"#utility.yul\":3184:3377   */\n  pop\n    /* \"#utility.yul\":3108:3377   */\n  pop\n  pop\n  pop\n  jump\t// out\n    /* \"#utility.yul\":3383:3456   */\ntag_34:\n    /* \"#utility.yul\":3428:3431   */\n  0x00\n    /* \"#utility.yul\":3383:3456   */\n  swap1\n  jump\t// out\n    /* \"#utility.yul\":3462:3651   */\ntag_35:\n    /* \"#utility.yul\":3539:3571   */\n  tag_77\n  tag_34\n  jump\t// in\ntag_77:\n    /* \"#utility.yul\":3580:3645   */\n  tag_78\n    /* \"#utility.yul\":3638:3644   */\n  dup2\n    /* \"#utility.yul\":3630:3636   */\n  dup5\n    /* \"#utility.yul\":3624:3628   */\n  dup5\n    /* \"#utility.yul\":3580:3645   */\n  tag_33\n  jump\t// in\ntag_78:\n    /* \"#utility.yul\":3515:3651   */\n  pop\n    /* \"#utility.yul\":3462:3651   */\n  pop\n  pop\n  jump\t// out\n    /* \"#utility.yul\":3657:3843   */\ntag_36:\n    /* \"#utility.yul\":3717:3837   */\ntag_80:\n    /* \"#utility.yul\":3734:3737   */\n  dup2\n    /* \"#utility.yul\":3727:3732   */\n  dup2\n    /* \"#utility.yul\":3724:3738   */\n  lt\n    /* \"#utility.yul\":3717:3837   */\n  iszero\n  tag_82\n  jumpi\n    /* \"#utility.yul\":3788:3827   */\n  tag_83\n    /* \"#utility.yul\":3825:3826   */\n  0x00\n    /* \"#utility.yul\":3818:3823   */\n  dup3\n    /* \"#utility.yul\":3788:3827   */\n  tag_35\n  jump\t// in\ntag_83:\n    /* \"#utility.yul\":3761:3762   */\n  0x01\n    /* \"#utility.yul\":3754:3759   */\n  dup2\n    /* \"#utility.yul\":3750:3763   */\n  add\n    /* \"#utility.yul\":3741:3763   */\n  swap1\n  pop\n    /* \"#utility.yul\":3717:3837   */\n  jump(tag_80)\ntag_82:\n    /* \"#utility.yul\":3657:3843   */\n  pop\n  pop\n  jump\t// out\n    /* \"#utility.yul\":3849:4392   */\ntag_37:\n    /* \"#utility.yul\":3950:3952   */\n  0x1f\n    /* \"#utility.yul\":3945:3948   */\n  dup3\n    /* \"#utility.yul\":3942:3953   */\n  gt\n    /* \"#utility.yul\":3939:4385   */\n  iszero\n  tag_85\n  jumpi\n    /* \"#utility.yul\":3984:4022   */\n  tag_86\n    /* \"#utility.yul\":4016:4021   */\n  dup2\n    /* \"#utility.yul\":3984:4022   */\n  tag_25\n  jump\t// in\ntag_86:\n    /* \"#utility.yul\":4068:4097   */\n  tag_87\n    /* \"#utility.yul\":4086:4096   */\n  dup5\n    /* \"#utility.yul\":4068:4097   */\n  tag_26\n  jump\t// in\ntag_87:\n    /* \"#utility.yul\":4058:4066   */\n  dup2\n    /* \"#utility.yul\":4054:4098   */\n  add\n    /* \"#utility.yul\":4251:4253   */\n  0x20\n    /* \"#utility.yul\":4239:4249   */\n  dup6\n    /* \"#utility.yul\":4236:4254   */\n  lt\n    /* \"#utility.yul\":4233:4282   */\n  iszero\n  tag_88\n  jumpi\n    /* \"#utility.yul\":4272:4280   */\n  dup2\n    /* \"#utility.yul\":4257:4280   */\n  swap1\n  pop\n    /* \"#utility.yul\":4233:4282   */\ntag_88:\n    /* \"#utility.yul\":4295:4375   */\n  tag_89\n    /* \"#utility.yul\":4351:4373   */\n  tag_90\n    /* \"#utility.yul\":4369:4372   */\n  dup6\n    /* \"#utility.yul\":4351:4373   */\n  tag_26\n  jump\t// in\ntag_90:\n    /* \"#utility.yul\":4341:4349   */\n  dup4\n    /* \"#utility.yul\":4337:4374   */\n  add\n    /* \"#utility.yul\":4324:4335   */\n  dup3\n    /* \"#utility.yul\":4295:4375   */\n  tag_36\n  jump\t// in\ntag_89:\n    /* \"#utility.yul\":3954:4385   */\n  pop\n  pop\n    /* \"#utility.yul\":3939:4385   */\ntag_85:\n    /* \"#utility.yul\":3849:4392   */\n  pop\n  pop\n  pop\n  jump\t// out\n    /* \"#utility.yul\":4398:4515   */\ntag_38:\n    /* \"#utility.yul\":4452:4460   */\n  0x00\n    /* \"#utility.yul\":4502:4507   */\n  dup3\n    /* \"#utility.yul\":4496:4500   */\n  dup3\n    /* \"#utility.yul\":4492:4508   */\n  shr\n    /* \"#utility.yul\":4471:4508   */\n  swap1\n  pop\n    /* \"#utility.yul\":4398:4515   */\n  swap3\n  swap2\n  pop\n  pop\n  jump\t// out\n    /* \"#utility.yul\":4521:4690   */\ntag_39:\n    /* \"#utility.yul\":4565:4571   */\n  0x00\n    /* \"#utility.yul\":4598:4649   */\n  tag_93\n    /* \"#utility.yul\":4646:4647   */\n  0x00\n    /* \"#utility.yul\":4642:4648   */\n  not\n    /* \"#utility.yul\":4634:4639   */\n  dup5\n    /* \"#utility.yul\":4631:4632   */\n  0x08\n    /* \"#utility.yul\":4627:4640   */\n  mul\n    /* \"#utility.yul\":4598:4649   */\n  tag_38\n  jump\t// in\ntag_93:\n    /* \"#utility.yul\":4594:4650   */\n  not\n    /* \"#utility.yul\":4679:4683   */\n  dup1\n    /* \"#utility.yul\":4673:4677   */\n  dup4\n    /* \"#utility.yul\":4669:4684   */\n  and\n    /* \"#utility.yul\":4659:4684   */\n  swap2\n  pop\n    /* \"#utility.yul\":4572:4690   */\n  pop\n    /* \"#utility.yul\":4521:4690   */\n  swap3\n  swap2\n  pop\n  pop\n  jump\t// out\n    /* \"#utility.yul\":4695:4990   */\ntag_40:\n    /* \"#utility.yul\":4771:4775   */\n  0x00\n    /* \"#utility.yul\":4917:4946   */\n  tag_95\n    /* \"#utility.yul\":4942:4945   */\n  dup4\n    /* \"#utility.yul\":4936:4940   */\n  dup4\n    /* \"#utility.yul\":4917:4946   */\n  tag_39\n  jump\t// in\ntag_95:\n    /* \"#utility.yul\":4909:4946   */\n  swap2\n  pop\n    /* \"#utility.yul\":4979:4982   */\n  dup3\n    /* \"#utility.yul\":4976:4977   */\n  0x02\n    /* \"#utility.yul\":4972:4983   */\n  mul\n    /* \"#utility.yul\":4966:4970   */\n  dup3\n    /* \"#utility.yul\":4963:4984   */\n  or\n    /* \"#utility.yul\":4955:4984   */\n  swap1\n  pop\n    /* \"#utility.yul\":4695:4990   */\n  swap3\n  swap2\n  pop\n  pop\n  jump\t// out\n    /* \"#utility.yul\":4995:6390   */\ntag_16:\n    /* \"#utility.yul\":5112:5149   */\n  tag_97\n    /* \"#utility.yul\":5145:5148   */\n  dup3\n    /* \"#utility.yul\":5112:5149   */\n  tag_18\n  jump\t// in\ntag_97:\n    /* \"#utility.yul\":5214:5232   */\n  0xffffffffffffffff\n    /* \"#utility.yul\":5206:5212   */\n  dup2\n    /* \"#utility.yul\":5203:5233   */\n  gt\n    /* \"#utility.yul\":5200:5256   */\n  iszero\n  tag_98\n  jumpi\n    /* \"#utility.yul\":5236:5254   */\n  tag_99\n  tag_22\n  jump\t// in\ntag_99:\n    /* \"#utility.yul\":5200:5256   */\ntag_98:\n    /* \"#utility.yul\":5280:5318   */\n  tag_100\n    /* \"#utility.yul\":5312:5316   */\n  dup3\n    /* \"#utility.yul\":5306:5317   */\n  sload\n    /* \"#utility.yul\":5280:5318   */\n  tag_24\n  jump\t// in\ntag_100:\n    /* \"#utility.yul\":5365:5432   */\n  tag_101\n    /* \"#utility.yul\":5425:5431   */\n  dup3\n    /* \"#utility.yul\":5417:5423   */\n  dup3\n    /* \"#utility.yul\":5411:5415   */\n  dup6\n    /* \"#utility.yul\":5365:5432   */\n  tag_37\n  jump\t// in\ntag_101:\n    /* \"#utility.yul\":5459:5460   */\n  0x00\n    /* \"#utility.yul\":5483:5487   */\n  0x20\n    /* \"#utility.yul\":5470:5487   */\n  swap1\n  pop\n    /* \"#utility.yul\":5515:5517   */\n  0x1f\n    /* \"#utility.yul\":5507:5513   */\n  dup4\n    /* \"#utility.yul\":5504:5518   */\n  gt\n    /* \"#utility.yul\":5532:5533   */\n  0x01\n    /* \"#utility.yul\":5527:6145   */\n  dup2\n  eq\n  tag_103\n  jumpi\n    /* \"#utility.yul\":6189:6190   */\n  0x00\n    /* \"#utility.yul\":6206:6212   */\n  dup5\n    /* \"#utility.yul\":6203:6280   */\n  iszero\n  tag_104\n  jumpi\n    /* \"#utility.yul\":6255:6264   */\n  dup3\n    /* \"#utility.yul\":6250:6253   */\n  dup8\n    /* \"#utility.yul\":6246:6265   */\n  add\n    /* \"#utility.yul\":6240:6266   */\n  mload\n    /* \"#utility.yul\":6231:6266   */\n  swap1\n  pop\n    /* \"#utility.yul\":6203:6280   */\ntag_104:\n    /* \"#utility.yul\":6306:6373   */\n  tag_105\n    /* \"#utility.yul\":6366:6372   */\n  dup6\n    /* \"#utility.yul\":6359:6364   */\n  dup3\n    /* \"#utility.yul\":6306:6373   */\n  tag_40\n  jump\t// in\ntag_105:\n    /* \"#utility.yul\":6300:6304   */\n  dup7\n    /* \"#utility.yul\":6293:6374   */\n  sstore\n    /* \"#utility.yul\":6162:6384   */\n  pop\n    /* \"#utility.yul\":5497:6384   */\n  jump(tag_102)\n    /* \"#utility.yul\":5527:6145   */\ntag_103:\n    /* \"#utility.yul\":5579:5583   */\n  0x1f\n    /* \"#utility.yul\":5575:5584   */\n  not\n    /* \"#utility.yul\":5567:5573   */\n  dup5\n    /* \"#utility.yul\":5563:5585   */\n  and\n    /* \"#utility.yul\":5613:5650   */\n  tag_106\n    /* \"#utility.yul\":5645:5649   */\n  dup7\n    /* \"#utility.yul\":5613:5650   */\n  tag_25\n  jump\t// in\ntag_106:\n    /* \"#utility.yul\":5672:5673   */\n  0x00\n    /* \"#utility.yul\":5686:5894   */\ntag_107:\n    /* \"#utility.yul\":5700:5707   */\n  dup3\n    /* \"#utility.yul\":5697:5698   */\n  dup2\n    /* \"#utility.yul\":5694:5708   */\n  lt\n    /* \"#utility.yul\":5686:5894   */\n  iszero\n  tag_109\n  jumpi\n    /* \"#utility.yul\":5779:5788   */\n  dup5\n    /* \"#utility.yul\":5774:5777   */\n  dup10\n    /* \"#utility.yul\":5770:5789   */\n  add\n    /* \"#utility.yul\":5764:5790   */\n  mload\n    /* \"#utility.yul\":5756:5762   */\n  dup3\n    /* \"#utility.yul\":5749:5791   */\n  sstore\n    /* \"#utility.yul\":5830:5831   */\n  0x01\n    /* \"#utility.yul\":5822:5828   */\n  dup3\n    /* \"#utility.yul\":5818:5832   */\n  add\n    /* \"#utility.yul\":5808:5832   */\n  swap2\n  pop\n    /* \"#utility.yul\":5877:5879   */\n  0x20\n    /* \"#utility.yul\":5866:5875   */\n  dup6\n    /* \"#utility.yul\":5862:5880   */\n  add\n    /* \"#utility.yul\":5849:5880   */\n  swap5\n  pop\n    /* \"#utility.yul\":5723:5727   */\n  0x20\n    /* \"#utility.yul\":5720:5721   */\n  dup2\n    /* \"#utility.yul\":5716:5728   */\n  add\n    /* \"#utility.yul\":5711:5728   */\n  swap1\n  pop\n    /* \"#utility.yul\":5686:5894   */\n  jump(tag_107)\ntag_109:\n    /* \"#utility.yul\":5922:5928   */\n  dup7\n    /* \"#utility.yul\":5913:5920   */\n  dup4\n    /* \"#utility.yul\":5910:5929   */\n  lt\n    /* \"#utility.yul\":5907:6086   */\n  iszero\n  tag_110\n  jumpi\n    /* \"#utility.yul\":5980:5989   */\n  dup5\n    /* \"#utility.yul\":5975:5978   */\n  dup10\n    /* \"#utility.yul\":5971:5990   */\n  add\n    /* \"#utility.yul\":5965:5991   */\n  mload\n    /* \"#utility.yul\":6023:6071   */\n  tag_111\n    /* \"#utility.yul\":6065:6069   */\n  0x1f\n    /* \"#utility.yul\":6057:6063   */\n  dup10\n    /* \"#utility.yul\":6053:6070   */\n  and\n    /* \"#utility.yul\":6042:6051   */\n  dup3\n    /* \"#utility.yul\":6023:6071   */\n  tag_39\n  jump\t// in\ntag_111:\n    /* \"#utility.yul\":6015:6021   */\n  dup4\n    /* \"#utility.yul\":6008:6072   */\n  sstore\n    /* \"#utility.yul\":5930:6086   */\n  pop\n    /* \"#utility.yul\":5907:6086   */\ntag_110:\n    /* \"#utility.yul\":6132:6133   */\n  0x01\n    /* \"#utility.yul\":6128:6129   */\n  0x02\n    /* \"#utility.yul\":6120:6126   */\n  dup9\n    /* \"#utility.yul\":6116:6130   */\n  mul\n    /* \"#utility.yul\":6112:6134   */\n  add\n    /* \"#utility.yul\":6106:6110   */\n  dup9\n    /* \"#utility.yul\":6099:6135   */\n  sstore\n    /* \"#utility.yul\":5534:6145   */\n  pop\n  pop\n  pop\n    /* \"#utility.yul\":5497:6384   */\ntag_102:\n  pop\n    /* \"#utility.yul\":5087:6390   */\n  pop\n  pop\n  pop\n    /* \"#utility.yul\":4995:6390   */\n  pop\n  pop\n  jump\t// out\n    /* \"contracts/FavoriteRecords.sol\":60:2552  contract FavoriteRecords {... */\ntag_17:\n  dataSize(sub_0)\n  dup1\n  dataOffset(sub_0)\n  0x00\n  codecopy\n  0x00\n  return\nstop\n\nsub_0: assembly {\n        /* \"contracts/FavoriteRecords.sol\":60:2552  contract FavoriteRecords {... */\n      mstore(0x40, 0x80)\n      callvalue\n      dup1\n      iszero\n      tag_1\n      jumpi\n      0x00\n      dup1\n      revert\n    tag_1:\n      pop\n      jumpi(tag_2, lt(calldatasize, 0x04))\n      shr(0xe0, calldataload(0x00))\n      dup1\n      0x1cf0830b\n      eq\n      tag_3\n      jumpi\n      dup1\n      0x325e6306\n      eq\n      tag_4\n      jumpi\n      dup1\n      0x837f8878\n      eq\n      tag_5\n      jumpi\n      dup1\n      0xb374ac59\n      eq\n      tag_6\n      jumpi\n      dup1\n      0xc7853148\n      eq\n      tag_7\n      jumpi\n      dup1\n      0xd81aa8c4\n      eq\n      tag_8\n      jumpi\n    tag_2:\n      0x00\n      dup1\n      revert\n        /* \"contracts/FavoriteRecords.sol\":1397:1509  function getApprovedRecords() public view returns (string[] memory) {... */\n    tag_3:\n      tag_9\n      tag_10\n      jump\t// in\n    tag_9:\n      mload(0x40)\n      tag_11\n      swap2\n      swap1\n      tag_12\n      jump\t// in\n    tag_11:\n      mload(0x40)\n      dup1\n      swap2\n      sub\n      swap1\n      return\n        /* \"contracts/FavoriteRecords.sol\":237:271  string[] public approvedRecordList */\n    tag_4:\n      tag_13\n      0x04\n      dup1\n      calldatasize\n      sub\n      dup2\n      add\n      swap1\n      tag_14\n      swap2\n      swap1\n      tag_15\n      jump\t// in\n    tag_14:\n      tag_16\n      jump\t// in\n    tag_13:\n      mload(0x40)\n      tag_17\n      swap2\n      swap1\n      tag_18\n      jump\t// in\n    tag_17:\n      mload(0x40)\n      dup1\n      swap2\n      sub\n      swap1\n      return\n        /* \"contracts/FavoriteRecords.sol\":2164:2549  function resetUserFavorites() public {... */\n    tag_5:\n      tag_19\n      tag_20\n      jump\t// in\n    tag_19:\n      stop\n        /* \"contracts/FavoriteRecords.sol\":145:191  mapping(string => bool) public approvedRecords */\n    tag_6:\n      tag_21\n      0x04\n      dup1\n      calldatasize\n      sub\n      dup2\n      add\n      swap1\n      tag_22\n      swap2\n      swap1\n      tag_23\n      jump\t// in\n    tag_22:\n      tag_24\n      jump\t// in\n    tag_21:\n      mload(0x40)\n      tag_25\n      swap2\n      swap1\n      tag_26\n      jump\t// in\n    tag_25:\n      mload(0x40)\n      dup1\n      swap2\n      sub\n      swap1\n      return\n        /* \"contracts/FavoriteRecords.sol\":1974:2100  function getUserFavorites(address user) public view returns (string[] memory) {... */\n    tag_7:\n      tag_27\n      0x04\n      dup1\n      calldatasize\n      sub\n      dup2\n      add\n      swap1\n      tag_28\n      swap2\n      swap1\n      tag_29\n      jump\t// in\n    tag_28:\n      tag_30\n      jump\t// in\n    tag_27:\n      mload(0x40)\n      tag_31\n      swap2\n      swap1\n      tag_12\n      jump\t// in\n    tag_31:\n      mload(0x40)\n      dup1\n      swap2\n      sub\n      swap1\n      return\n        /* \"contracts/FavoriteRecords.sol\":1576:1916  function addRecord(string memory albumName) public {... */\n    tag_8:\n      tag_32\n      0x04\n      dup1\n      calldatasize\n      sub\n      dup2\n      add\n      swap1\n      tag_33\n      swap2\n      swap1\n      tag_23\n      jump\t// in\n    tag_33:\n      tag_34\n      jump\t// in\n    tag_32:\n      stop\n        /* \"contracts/FavoriteRecords.sol\":1397:1509  function getApprovedRecords() public view returns (string[] memory) {... */\n    tag_10:\n        /* \"contracts/FavoriteRecords.sol\":1448:1463  string[] memory */\n      0x60\n        /* \"contracts/FavoriteRecords.sol\":1483:1501  approvedRecordList */\n      0x01\n        /* \"contracts/FavoriteRecords.sol\":1476:1501  return approvedRecordList */\n      dup1\n      sload\n      dup1\n      0x20\n      mul\n      0x20\n      add\n      mload(0x40)\n      swap1\n      dup2\n      add\n      0x40\n      mstore\n      dup1\n      swap3\n      swap2\n      swap1\n      dup2\n      dup2\n      mstore\n      0x20\n      add\n      0x00\n      swap1\n    tag_36:\n      dup3\n      dup3\n      lt\n      iszero\n      tag_37\n      jumpi\n      dup4\n      dup3\n      swap1\n      0x00\n      mstore\n      keccak256(0x00, 0x20)\n      add\n      dup1\n      sload\n      tag_39\n      swap1\n      tag_40\n      jump\t// in\n    tag_39:\n      dup1\n      0x1f\n      add\n      0x20\n      dup1\n      swap2\n      div\n      mul\n      0x20\n      add\n      mload(0x40)\n      swap1\n      dup2\n      add\n      0x40\n      mstore\n      dup1\n      swap3\n      swap2\n      swap1\n      dup2\n      dup2\n      mstore\n      0x20\n      add\n      dup3\n      dup1\n      sload\n      tag_41\n      swap1\n      tag_40\n      jump\t// in\n    tag_41:\n      dup1\n      iszero\n      tag_42\n      jumpi\n      dup1\n      0x1f\n      lt\n      tag_43\n      jumpi\n      0x0100\n      dup1\n      dup4\n      sload\n      div\n      mul\n      dup4\n      mstore\n      swap2\n      0x20\n      add\n      swap2\n      jump(tag_42)\n    tag_43:\n      dup3\n      add\n      swap2\n      swap1\n      0x00\n      mstore\n      keccak256(0x00, 0x20)\n      swap1\n    tag_44:\n      dup2\n      sload\n      dup2\n      mstore\n      swap1\n      0x01\n      add\n      swap1\n      0x20\n      add\n      dup1\n      dup4\n      gt\n      tag_44\n      jumpi\n      dup3\n      swap1\n      sub\n      0x1f\n      and\n      dup3\n      add\n      swap2\n    tag_42:\n      pop\n      pop\n      pop\n      pop\n      pop\n      dup2\n      mstore\n      0x20\n      add\n      swap1\n      0x01\n      add\n      swap1\n      jump(tag_36)\n    tag_37:\n      pop\n      pop\n      pop\n      pop\n      swap1\n      pop\n        /* \"contracts/FavoriteRecords.sol\":1397:1509  function getApprovedRecords() public view returns (string[] memory) {... */\n      swap1\n      jump\t// out\n        /* \"contracts/FavoriteRecords.sol\":237:271  string[] public approvedRecordList */\n    tag_16:\n      0x01\n      dup2\n      dup2\n      sload\n      dup2\n      lt\n      tag_45\n      jumpi\n      0x00\n      dup1\n      revert\n    tag_45:\n      swap1\n      0x00\n      mstore\n      keccak256(0x00, 0x20)\n      add\n      0x00\n      swap2\n      pop\n      swap1\n      pop\n      dup1\n      sload\n      tag_47\n      swap1\n      tag_40\n      jump\t// in\n    tag_47:\n      dup1\n      0x1f\n      add\n      0x20\n      dup1\n      swap2\n      div\n      mul\n      0x20\n      add\n      mload(0x40)\n      swap1\n      dup2\n      add\n      0x40\n      mstore\n      dup1\n      swap3\n      swap2\n      swap1\n      dup2\n      dup2\n      mstore\n      0x20\n      add\n      dup3\n      dup1\n      sload\n      tag_48\n      swap1\n      tag_40\n      jump\t// in\n    tag_48:\n      dup1\n      iszero\n      tag_49\n      jumpi\n      dup1\n      0x1f\n      lt\n      tag_50\n      jumpi\n      0x0100\n      dup1\n      dup4\n      sload\n      div\n      mul\n      dup4\n      mstore\n      swap2\n      0x20\n      add\n      swap2\n      jump(tag_49)\n    tag_50:\n      dup3\n      add\n      swap2\n      swap1\n      0x00\n      mstore\n      keccak256(0x00, 0x20)\n      swap1\n    tag_51:\n      dup2\n      sload\n      dup2\n      mstore\n      swap1\n      0x01\n      add\n      swap1\n      0x20\n      add\n      dup1\n      dup4\n      gt\n      tag_51\n      jumpi\n      dup3\n      swap1\n      sub\n      0x1f\n      and\n      dup3\n      add\n      swap2\n    tag_49:\n      pop\n      pop\n      pop\n      pop\n      pop\n      dup2\n      jump\t// out\n        /* \"contracts/FavoriteRecords.sol\":2164:2549  function resetUserFavorites() public {... */\n    tag_20:\n        /* \"contracts/FavoriteRecords.sol\":2212:2238  string[] storage favorites */\n      0x00\n        /* \"contracts/FavoriteRecords.sol\":2241:2257  userFavoriteList */\n      0x03\n        /* \"contracts/FavoriteRecords.sol\":2241:2269  userFavoriteList[msg.sender] */\n      0x00\n        /* \"contracts/FavoriteRecords.sol\":2258:2268  msg.sender */\n      caller\n        /* \"contracts/FavoriteRecords.sol\":2241:2269  userFavoriteList[msg.sender] */\n      0xffffffffffffffffffffffffffffffffffffffff\n      and\n      0xffffffffffffffffffffffffffffffffffffffff\n      and\n      dup2\n      mstore\n      0x20\n      add\n      swap1\n      dup2\n      mstore\n      0x20\n      add\n      0x00\n      keccak256\n        /* \"contracts/FavoriteRecords.sol\":2212:2269  string[] storage favorites = userFavoriteList[msg.sender] */\n      swap1\n      pop\n        /* \"contracts/FavoriteRecords.sol\":2334:2343  uint256 i */\n      0x00\n        /* \"contracts/FavoriteRecords.sol\":2329:2450  for (uint256 i = 0; i < favorites.length; i++) {... */\n    tag_53:\n        /* \"contracts/FavoriteRecords.sol\":2353:2362  favorites */\n      dup2\n        /* \"contracts/FavoriteRecords.sol\":2353:2369  favorites.length */\n      dup1\n      sload\n      swap1\n      pop\n        /* \"contracts/FavoriteRecords.sol\":2349:2350  i */\n      dup2\n        /* \"contracts/FavoriteRecords.sol\":2349:2369  i < favorites.length */\n      lt\n        /* \"contracts/FavoriteRecords.sol\":2329:2450  for (uint256 i = 0; i < favorites.length; i++) {... */\n      iszero\n      tag_54\n      jumpi\n        /* \"contracts/FavoriteRecords.sol\":2433:2438  false */\n      0x00\n        /* \"contracts/FavoriteRecords.sol\":2391:2404  userFavorites */\n      0x02\n        /* \"contracts/FavoriteRecords.sol\":2391:2416  userFavorites[msg.sender] */\n      0x00\n        /* \"contracts/FavoriteRecords.sol\":2405:2415  msg.sender */\n      caller\n        /* \"contracts/FavoriteRecords.sol\":2391:2416  userFavorites[msg.sender] */\n      0xffffffffffffffffffffffffffffffffffffffff\n      and\n      0xffffffffffffffffffffffffffffffffffffffff\n      and\n      dup2\n      mstore\n      0x20\n      add\n      swap1\n      dup2\n      mstore\n      0x20\n      add\n      0x00\n      keccak256\n        /* \"contracts/FavoriteRecords.sol\":2417:2426  favorites */\n      dup4\n        /* \"contracts/FavoriteRecords.sol\":2427:2428  i */\n      dup4\n        /* \"contracts/FavoriteRecords.sol\":2417:2429  favorites[i] */\n      dup2\n      sload\n      dup2\n      lt\n      tag_56\n      jumpi\n      tag_57\n      tag_58\n      jump\t// in\n    tag_57:\n    tag_56:\n      swap1\n      0x00\n      mstore\n      keccak256(0x00, 0x20)\n      add\n        /* \"contracts/FavoriteRecords.sol\":2391:2430  userFavorites[msg.sender][favorites[i]] */\n      mload(0x40)\n      tag_60\n      swap2\n      swap1\n      tag_61\n      jump\t// in\n    tag_60:\n      swap1\n      dup2\n      mstore\n      0x20\n      add\n      mload(0x40)\n      dup1\n      swap2\n      sub\n      swap1\n      keccak256\n      0x00\n        /* \"contracts/FavoriteRecords.sol\":2391:2438  userFavorites[msg.sender][favorites[i]] = false */\n      0x0100\n      exp\n      dup2\n      sload\n      dup2\n      0xff\n      mul\n      not\n      and\n      swap1\n      dup4\n      iszero\n      iszero\n      mul\n      or\n      swap1\n      sstore\n      pop\n        /* \"contracts/FavoriteRecords.sol\":2371:2374  i++ */\n      dup1\n      dup1\n      0x01\n      add\n      swap2\n      pop\n      pop\n        /* \"contracts/FavoriteRecords.sol\":2329:2450  for (uint256 i = 0; i < favorites.length; i++) {... */\n      jump(tag_53)\n    tag_54:\n      pop\n        /* \"contracts/FavoriteRecords.sol\":2513:2529  userFavoriteList */\n      0x03\n        /* \"contracts/FavoriteRecords.sol\":2513:2541  userFavoriteList[msg.sender] */\n      0x00\n        /* \"contracts/FavoriteRecords.sol\":2530:2540  msg.sender */\n      caller\n        /* \"contracts/FavoriteRecords.sol\":2513:2541  userFavoriteList[msg.sender] */\n      0xffffffffffffffffffffffffffffffffffffffff\n      and\n      0xffffffffffffffffffffffffffffffffffffffff\n      and\n      dup2\n      mstore\n      0x20\n      add\n      swap1\n      dup2\n      mstore\n      0x20\n      add\n      0x00\n      keccak256\n      0x00\n        /* \"contracts/FavoriteRecords.sol\":2506:2541  delete userFavoriteList[msg.sender] */\n      tag_62\n      swap2\n      swap1\n      tag_63\n      jump\t// in\n    tag_62:\n        /* \"contracts/FavoriteRecords.sol\":2201:2549  {... */\n      pop\n        /* \"contracts/FavoriteRecords.sol\":2164:2549  function resetUserFavorites() public {... */\n      jump\t// out\n        /* \"contracts/FavoriteRecords.sol\":145:191  mapping(string => bool) public approvedRecords */\n    tag_24:\n      0x00\n      dup2\n      dup1\n      mload\n      0x20\n      dup2\n      add\n      dup3\n      add\n      dup1\n      mload\n      dup5\n      dup3\n      mstore\n      0x20\n      dup4\n      add\n      0x20\n      dup6\n      add\n      keccak256\n      dup2\n      dup4\n      mstore\n      dup1\n      swap6\n      pop\n      pop\n      pop\n      pop\n      pop\n      pop\n      0x00\n      swap2\n      pop\n      sload\n      swap1\n      0x0100\n      exp\n      swap1\n      div\n      0xff\n      and\n      dup2\n      jump\t// out\n        /* \"contracts/FavoriteRecords.sol\":1974:2100  function getUserFavorites(address user) public view returns (string[] memory) {... */\n    tag_30:\n        /* \"contracts/FavoriteRecords.sol\":2035:2050  string[] memory */\n      0x60\n        /* \"contracts/FavoriteRecords.sol\":2070:2086  userFavoriteList */\n      0x03\n        /* \"contracts/FavoriteRecords.sol\":2070:2092  userFavoriteList[user] */\n      0x00\n        /* \"contracts/FavoriteRecords.sol\":2087:2091  user */\n      dup4\n        /* \"contracts/FavoriteRecords.sol\":2070:2092  userFavoriteList[user] */\n      0xffffffffffffffffffffffffffffffffffffffff\n      and\n      0xffffffffffffffffffffffffffffffffffffffff\n      and\n      dup2\n      mstore\n      0x20\n      add\n      swap1\n      dup2\n      mstore\n      0x20\n      add\n      0x00\n      keccak256\n        /* \"contracts/FavoriteRecords.sol\":2063:2092  return userFavoriteList[user] */\n      dup1\n      sload\n      dup1\n      0x20\n      mul\n      0x20\n      add\n      mload(0x40)\n      swap1\n      dup2\n      add\n      0x40\n      mstore\n      dup1\n      swap3\n      swap2\n      swap1\n      dup2\n      dup2\n      mstore\n      0x20\n      add\n      0x00\n      swap1\n    tag_65:\n      dup3\n      dup3\n      lt\n      iszero\n      tag_66\n      jumpi\n      dup4\n      dup3\n      swap1\n      0x00\n      mstore\n      keccak256(0x00, 0x20)\n      add\n      dup1\n      sload\n      tag_68\n      swap1\n      tag_40\n      jump\t// in\n    tag_68:\n      dup1\n      0x1f\n      add\n      0x20\n      dup1\n      swap2\n      div\n      mul\n      0x20\n      add\n      mload(0x40)\n      swap1\n      dup2\n      add\n      0x40\n      mstore\n      dup1\n      swap3\n      swap2\n      swap1\n      dup2\n      dup2\n      mstore\n      0x20\n      add\n      dup3\n      dup1\n      sload\n      tag_69\n      swap1\n      tag_40\n      jump\t// in\n    tag_69:\n      dup1\n      iszero\n      tag_70\n      jumpi\n      dup1\n      0x1f\n      lt\n      tag_71\n      jumpi\n      0x0100\n      dup1\n      dup4\n      sload\n      div\n      mul\n      dup4\n      mstore\n      swap2\n      0x20\n      add\n      swap2\n      jump(tag_70)\n    tag_71:\n      dup3\n      add\n      swap2\n      swap1\n      0x00\n      mstore\n      keccak256(0x00, 0x20)\n      swap1\n    tag_72:\n      dup2\n      sload\n      dup2\n      mstore\n      swap1\n      0x01\n      add\n      swap1\n      0x20\n      add\n      dup1\n      dup4\n      gt\n      tag_72\n      jumpi\n      dup3\n      swap1\n      sub\n      0x1f\n      and\n      dup3\n      add\n      swap2\n    tag_70:\n      pop\n      pop\n      pop\n      pop\n      pop\n      dup2\n      mstore\n      0x20\n      add\n      swap1\n      0x01\n      add\n      swap1\n      jump(tag_65)\n    tag_66:\n      pop\n      pop\n      pop\n      pop\n      swap1\n      pop\n        /* \"contracts/FavoriteRecords.sol\":1974:2100  function getUserFavorites(address user) public view returns (string[] memory) {... */\n      swap2\n      swap1\n      pop\n      jump\t// out\n        /* \"contracts/FavoriteRecords.sol\":1576:1916  function addRecord(string memory albumName) public {... */\n    tag_34:\n        /* \"contracts/FavoriteRecords.sol\":1643:1658  approvedRecords */\n      0x00\n        /* \"contracts/FavoriteRecords.sol\":1659:1668  albumName */\n      dup2\n        /* \"contracts/FavoriteRecords.sol\":1643:1669  approvedRecords[albumName] */\n      mload(0x40)\n      tag_74\n      swap2\n      swap1\n      tag_75\n      jump\t// in\n    tag_74:\n      swap1\n      dup2\n      mstore\n      0x20\n      add\n      mload(0x40)\n      dup1\n      swap2\n      sub\n      swap1\n      keccak256\n      0x00\n      swap1\n      sload\n      swap1\n      0x0100\n      exp\n      swap1\n      div\n      0xff\n      and\n        /* \"contracts/FavoriteRecords.sol\":1638:1727  if (!approvedRecords[albumName]) {... */\n      tag_76\n      jumpi\n        /* \"contracts/FavoriteRecords.sol\":1705:1714  albumName */\n      dup1\n        /* \"contracts/FavoriteRecords.sol\":1693:1715  NotApproved(albumName) */\n      mload(0x40)\n      0x4f0ffc1b00000000000000000000000000000000000000000000000000000000\n      dup2\n      mstore\n      0x04\n      add\n      tag_77\n      swap2\n      swap1\n      tag_18\n      jump\t// in\n    tag_77:\n      mload(0x40)\n      dup1\n      swap2\n      sub\n      swap1\n      revert\n        /* \"contracts/FavoriteRecords.sol\":1638:1727  if (!approvedRecords[albumName]) {... */\n    tag_76:\n        /* \"contracts/FavoriteRecords.sol\":1742:1755  userFavorites */\n      0x02\n        /* \"contracts/FavoriteRecords.sol\":1742:1767  userFavorites[msg.sender] */\n      0x00\n        /* \"contracts/FavoriteRecords.sol\":1756:1766  msg.sender */\n      caller\n        /* \"contracts/FavoriteRecords.sol\":1742:1767  userFavorites[msg.sender] */\n      0xffffffffffffffffffffffffffffffffffffffff\n      and\n      0xffffffffffffffffffffffffffffffffffffffff\n      and\n      dup2\n      mstore\n      0x20\n      add\n      swap1\n      dup2\n      mstore\n      0x20\n      add\n      0x00\n      keccak256\n        /* \"contracts/FavoriteRecords.sol\":1768:1777  albumName */\n      dup2\n        /* \"contracts/FavoriteRecords.sol\":1742:1778  userFavorites[msg.sender][albumName] */\n      mload(0x40)\n      tag_78\n      swap2\n      swap1\n      tag_75\n      jump\t// in\n    tag_78:\n      swap1\n      dup2\n      mstore\n      0x20\n      add\n      mload(0x40)\n      dup1\n      swap2\n      sub\n      swap1\n      keccak256\n      0x00\n      swap1\n      sload\n      swap1\n      0x0100\n      exp\n      swap1\n      div\n      0xff\n      and\n        /* \"contracts/FavoriteRecords.sol\":1737:1909  if (!userFavorites[msg.sender][albumName]) {... */\n      tag_79\n      jumpi\n        /* \"contracts/FavoriteRecords.sol\":1834:1838  true */\n      0x01\n        /* \"contracts/FavoriteRecords.sol\":1795:1808  userFavorites */\n      0x02\n        /* \"contracts/FavoriteRecords.sol\":1795:1820  userFavorites[msg.sender] */\n      0x00\n        /* \"contracts/FavoriteRecords.sol\":1809:1819  msg.sender */\n      caller\n        /* \"contracts/FavoriteRecords.sol\":1795:1820  userFavorites[msg.sender] */\n      0xffffffffffffffffffffffffffffffffffffffff\n      and\n      0xffffffffffffffffffffffffffffffffffffffff\n      and\n      dup2\n      mstore\n      0x20\n      add\n      swap1\n      dup2\n      mstore\n      0x20\n      add\n      0x00\n      keccak256\n        /* \"contracts/FavoriteRecords.sol\":1821:1830  albumName */\n      dup3\n        /* \"contracts/FavoriteRecords.sol\":1795:1831  userFavorites[msg.sender][albumName] */\n      mload(0x40)\n      tag_80\n      swap2\n      swap1\n      tag_75\n      jump\t// in\n    tag_80:\n      swap1\n      dup2\n      mstore\n      0x20\n      add\n      mload(0x40)\n      dup1\n      swap2\n      sub\n      swap1\n      keccak256\n      0x00\n        /* \"contracts/FavoriteRecords.sol\":1795:1838  userFavorites[msg.sender][albumName] = true */\n      0x0100\n      exp\n      dup2\n      sload\n      dup2\n      0xff\n      mul\n      not\n      and\n      swap1\n      dup4\n      iszero\n      iszero\n      mul\n      or\n      swap1\n      sstore\n      pop\n        /* \"contracts/FavoriteRecords.sol\":1853:1869  userFavoriteList */\n      0x03\n        /* \"contracts/FavoriteRecords.sol\":1853:1881  userFavoriteList[msg.sender] */\n      0x00\n        /* \"contracts/FavoriteRecords.sol\":1870:1880  msg.sender */\n      caller\n        /* \"contracts/FavoriteRecords.sol\":1853:1881  userFavoriteList[msg.sender] */\n      0xffffffffffffffffffffffffffffffffffffffff\n      and\n      0xffffffffffffffffffffffffffffffffffffffff\n      and\n      dup2\n      mstore\n      0x20\n      add\n      swap1\n      dup2\n      mstore\n      0x20\n      add\n      0x00\n      keccak256\n        /* \"contracts/FavoriteRecords.sol\":1887:1896  albumName */\n      dup2\n        /* \"contracts/FavoriteRecords.sol\":1853:1897  userFavoriteList[msg.sender].push(albumName) */\n      swap1\n      dup1\n      0x01\n      dup2\n      sload\n      add\n      dup1\n      dup3\n      sstore\n      dup1\n      swap2\n      pop\n      pop\n      0x01\n      swap1\n      sub\n      swap1\n      0x00\n      mstore\n      keccak256(0x00, 0x20)\n      add\n      0x00\n      swap1\n      swap2\n      swap1\n      swap2\n      swap1\n      swap2\n      pop\n      swap1\n      dup2\n      tag_82\n      swap2\n      swap1\n      tag_83\n      jump\t// in\n    tag_82:\n      pop\n        /* \"contracts/FavoriteRecords.sol\":1737:1909  if (!userFavorites[msg.sender][albumName]) {... */\n    tag_79:\n        /* \"contracts/FavoriteRecords.sol\":1576:1916  function addRecord(string memory albumName) public {... */\n      pop\n      jump\t// out\n    tag_63:\n      pop\n      dup1\n      sload\n      0x00\n      dup3\n      sstore\n      swap1\n      0x00\n      mstore\n      keccak256(0x00, 0x20)\n      swap1\n      dup2\n      add\n      swap1\n      tag_85\n      swap2\n      swap1\n      tag_86\n      jump\t// in\n    tag_85:\n      pop\n      jump\t// out\n    tag_86:\n    tag_87:\n      dup1\n      dup3\n      gt\n      iszero\n      tag_88\n      jumpi\n      0x00\n      dup2\n      dup2\n      tag_89\n      swap2\n      swap1\n      tag_90\n      jump\t// in\n    tag_89:\n      pop\n      0x01\n      add\n      jump(tag_87)\n    tag_88:\n      pop\n      swap1\n      jump\t// out\n    tag_90:\n      pop\n      dup1\n      sload\n      tag_91\n      swap1\n      tag_40\n      jump\t// in\n    tag_91:\n      0x00\n      dup3\n      sstore\n      dup1\n      0x1f\n      lt\n      tag_93\n      jumpi\n      pop\n      jump(tag_92)\n    tag_93:\n      0x1f\n      add\n      0x20\n      swap1\n      div\n      swap1\n      0x00\n      mstore\n      keccak256(0x00, 0x20)\n      swap1\n      dup2\n      add\n      swap1\n      tag_94\n      swap2\n      swap1\n      tag_95\n      jump\t// in\n    tag_94:\n    tag_92:\n      pop\n      jump\t// out\n    tag_95:\n    tag_96:\n      dup1\n      dup3\n      gt\n      iszero\n      tag_97\n      jumpi\n      0x00\n      dup2\n      0x00\n      swap1\n      sstore\n      pop\n      0x01\n      add\n      jump(tag_96)\n    tag_97:\n      pop\n      swap1\n      jump\t// out\n        /* \"#utility.yul\":7:131   */\n    tag_98:\n        /* \"#utility.yul\":84:90   */\n      0x00\n        /* \"#utility.yul\":118:123   */\n      dup2\n        /* \"#utility.yul\":112:124   */\n      mload\n        /* \"#utility.yul\":102:124   */\n      swap1\n      pop\n        /* \"#utility.yul\":7:131   */\n      swap2\n      swap1\n      pop\n      jump\t// out\n        /* \"#utility.yul\":137:331   */\n    tag_99:\n        /* \"#utility.yul\":246:257   */\n      0x00\n        /* \"#utility.yul\":280:286   */\n      dup3\n        /* \"#utility.yul\":275:278   */\n      dup3\n        /* \"#utility.yul\":268:287   */\n      mstore\n        /* \"#utility.yul\":320:324   */\n      0x20\n        /* \"#utility.yul\":315:318   */\n      dup3\n        /* \"#utility.yul\":311:325   */\n      add\n        /* \"#utility.yul\":296:325   */\n      swap1\n      pop\n        /* \"#utility.yul\":137:331   */\n      swap3\n      swap2\n      pop\n      pop\n      jump\t// out\n        /* \"#utility.yul\":337:479   */\n    tag_100:\n        /* \"#utility.yul\":414:418   */\n      0x00\n        /* \"#utility.yul\":437:440   */\n      dup2\n        /* \"#utility.yul\":429:440   */\n      swap1\n      pop\n        /* \"#utility.yul\":467:471   */\n      0x20\n        /* \"#utility.yul\":462:465   */\n      dup3\n        /* \"#utility.yul\":458:472   */\n      add\n        /* \"#utility.yul\":450:472   */\n      swap1\n      pop\n        /* \"#utility.yul\":337:479   */\n      swap2\n      swap1\n      pop\n      jump\t// out\n        /* \"#utility.yul\":485:584   */\n    tag_101:\n        /* \"#utility.yul\":537:543   */\n      0x00\n        /* \"#utility.yul\":571:576   */\n      dup2\n        /* \"#utility.yul\":565:577   */\n      mload\n        /* \"#utility.yul\":555:577   */\n      swap1\n      pop\n        /* \"#utility.yul\":485:584   */\n      swap2\n      swap1\n      pop\n      jump\t// out\n        /* \"#utility.yul\":590:749   */\n    tag_102:\n        /* \"#utility.yul\":664:675   */\n      0x00\n        /* \"#utility.yul\":698:704   */\n      dup3\n        /* \"#utility.yul\":693:696   */\n      dup3\n        /* \"#utility.yul\":686:705   */\n      mstore\n        /* \"#utility.yul\":738:742   */\n      0x20\n        /* \"#utility.yul\":733:736   */\n      dup3\n        /* \"#utility.yul\":729:743   */\n      add\n        /* \"#utility.yul\":714:743   */\n      swap1\n      pop\n        /* \"#utility.yul\":590:749   */\n      swap3\n      swap2\n      pop\n      pop\n      jump\t// out\n        /* \"#utility.yul\":755:894   */\n    tag_103:\n        /* \"#utility.yul\":844:850   */\n      dup3\n        /* \"#utility.yul\":839:842   */\n      dup2\n        /* \"#utility.yul\":834:837   */\n      dup4\n        /* \"#utility.yul\":828:851   */\n      mcopy\n        /* \"#utility.yul\":885:886   */\n      0x00\n        /* \"#utility.yul\":876:882   */\n      dup4\n        /* \"#utility.yul\":871:874   */\n      dup4\n        /* \"#utility.yul\":867:883   */\n      add\n        /* \"#utility.yul\":860:887   */\n      mstore\n        /* \"#utility.yul\":755:894   */\n      pop\n      pop\n      pop\n      jump\t// out\n        /* \"#utility.yul\":900:1002   */\n    tag_104:\n        /* \"#utility.yul\":941:947   */\n      0x00\n        /* \"#utility.yul\":992:994   */\n      0x1f\n        /* \"#utility.yul\":988:995   */\n      not\n        /* \"#utility.yul\":983:985   */\n      0x1f\n        /* \"#utility.yul\":976:981   */\n      dup4\n        /* \"#utility.yul\":972:986   */\n      add\n        /* \"#utility.yul\":968:996   */\n      and\n        /* \"#utility.yul\":958:996   */\n      swap1\n      pop\n        /* \"#utility.yul\":900:1002   */\n      swap2\n      swap1\n      pop\n      jump\t// out\n        /* \"#utility.yul\":1008:1365   */\n    tag_105:\n        /* \"#utility.yul\":1086:1089   */\n      0x00\n        /* \"#utility.yul\":1114:1153   */\n      tag_160\n        /* \"#utility.yul\":1147:1152   */\n      dup3\n        /* \"#utility.yul\":1114:1153   */\n      tag_101\n      jump\t// in\n    tag_160:\n        /* \"#utility.yul\":1169:1230   */\n      tag_161\n        /* \"#utility.yul\":1223:1229   */\n      dup2\n        /* \"#utility.yul\":1218:1221   */\n      dup6\n        /* \"#utility.yul\":1169:1230   */\n      tag_102\n      jump\t// in\n    tag_161:\n        /* \"#utility.yul\":1162:1230   */\n      swap4\n      pop\n        /* \"#utility.yul\":1239:1304   */\n      tag_162\n        /* \"#utility.yul\":1297:1303   */\n      dup2\n        /* \"#utility.yul\":1292:1295   */\n      dup6\n        /* \"#utility.yul\":1285:1289   */\n      0x20\n        /* \"#utility.yul\":1278:1283   */\n      dup7\n        /* \"#utility.yul\":1274:1290   */\n      add\n        /* \"#utility.yul\":1239:1304   */\n      tag_103\n      jump\t// in\n    tag_162:\n        /* \"#utility.yul\":1329:1358   */\n      tag_163\n        /* \"#utility.yul\":1351:1357   */\n      dup2\n        /* \"#utility.yul\":1329:1358   */\n      tag_104\n      jump\t// in\n    tag_163:\n        /* \"#utility.yul\":1324:1327   */\n      dup5\n        /* \"#utility.yul\":1320:1359   */\n      add\n        /* \"#utility.yul\":1313:1359   */\n      swap2\n      pop\n        /* \"#utility.yul\":1090:1365   */\n      pop\n        /* \"#utility.yul\":1008:1365   */\n      swap3\n      swap2\n      pop\n      pop\n      jump\t// out\n        /* \"#utility.yul\":1371:1567   */\n    tag_106:\n        /* \"#utility.yul\":1460:1470   */\n      0x00\n        /* \"#utility.yul\":1495:1561   */\n      tag_165\n        /* \"#utility.yul\":1557:1560   */\n      dup4\n        /* \"#utility.yul\":1549:1555   */\n      dup4\n        /* \"#utility.yul\":1495:1561   */\n      tag_105\n      jump\t// in\n    tag_165:\n        /* \"#utility.yul\":1481:1561   */\n      swap1\n      pop\n        /* \"#utility.yul\":1371:1567   */\n      swap3\n      swap2\n      pop\n      pop\n      jump\t// out\n        /* \"#utility.yul\":1573:1696   */\n    tag_107:\n        /* \"#utility.yul\":1653:1657   */\n      0x00\n        /* \"#utility.yul\":1685:1689   */\n      0x20\n        /* \"#utility.yul\":1680:1683   */\n      dup3\n        /* \"#utility.yul\":1676:1690   */\n      add\n        /* \"#utility.yul\":1668:1690   */\n      swap1\n      pop\n        /* \"#utility.yul\":1573:1696   */\n      swap2\n      swap1\n      pop\n      jump\t// out\n        /* \"#utility.yul\":1730:2721   */\n    tag_108:\n        /* \"#utility.yul\":1869:1872   */\n      0x00\n        /* \"#utility.yul\":1898:1962   */\n      tag_168\n        /* \"#utility.yul\":1956:1961   */\n      dup3\n        /* \"#utility.yul\":1898:1962   */\n      tag_98\n      jump\t// in\n    tag_168:\n        /* \"#utility.yul\":1978:2074   */\n      tag_169\n        /* \"#utility.yul\":2067:2073   */\n      dup2\n        /* \"#utility.yul\":2062:2065   */\n      dup6\n        /* \"#utility.yul\":1978:2074   */\n      tag_99\n      jump\t// in\n    tag_169:\n        /* \"#utility.yul\":1971:2074   */\n      swap4\n      pop\n        /* \"#utility.yul\":2100:2103   */\n      dup4\n        /* \"#utility.yul\":2145:2149   */\n      0x20\n        /* \"#utility.yul\":2137:2143   */\n      dup3\n        /* \"#utility.yul\":2133:2150   */\n      mul\n        /* \"#utility.yul\":2128:2131   */\n      dup6\n        /* \"#utility.yul\":2124:2151   */\n      add\n        /* \"#utility.yul\":2175:2241   */\n      tag_170\n        /* \"#utility.yul\":2235:2240   */\n      dup6\n        /* \"#utility.yul\":2175:2241   */\n      tag_100\n      jump\t// in\n    tag_170:\n        /* \"#utility.yul\":2264:2271   */\n      dup1\n        /* \"#utility.yul\":2295:2296   */\n      0x00\n        /* \"#utility.yul\":2280:2676   */\n    tag_171:\n        /* \"#utility.yul\":2305:2311   */\n      dup6\n        /* \"#utility.yul\":2302:2303   */\n      dup2\n        /* \"#utility.yul\":2299:2312   */\n      lt\n        /* \"#utility.yul\":2280:2676   */\n      iszero\n      tag_173\n      jumpi\n        /* \"#utility.yul\":2376:2385   */\n      dup5\n        /* \"#utility.yul\":2370:2374   */\n      dup5\n        /* \"#utility.yul\":2366:2386   */\n      sub\n        /* \"#utility.yul\":2361:2364   */\n      dup10\n        /* \"#utility.yul\":2354:2387   */\n      mstore\n        /* \"#utility.yul\":2427:2433   */\n      dup2\n        /* \"#utility.yul\":2421:2434   */\n      mload\n        /* \"#utility.yul\":2455:2539   */\n      tag_174\n        /* \"#utility.yul\":2534:2538   */\n      dup6\n        /* \"#utility.yul\":2519:2532   */\n      dup3\n        /* \"#utility.yul\":2455:2539   */\n      tag_106\n      jump\t// in\n    tag_174:\n        /* \"#utility.yul\":2447:2539   */\n      swap5\n      pop\n        /* \"#utility.yul\":2562:2632   */\n      tag_175\n        /* \"#utility.yul\":2625:2631   */\n      dup4\n        /* \"#utility.yul\":2562:2632   */\n      tag_107\n      jump\t// in\n    tag_175:\n        /* \"#utility.yul\":2552:2632   */\n      swap3\n      pop\n        /* \"#utility.yul\":2661:2665   */\n      0x20\n        /* \"#utility.yul\":2656:2659   */\n      dup11\n        /* \"#utility.yul\":2652:2666   */\n      add\n        /* \"#utility.yul\":2645:2666   */\n      swap10\n      pop\n        /* \"#utility.yul\":2340:2676   */\n      pop\n        /* \"#utility.yul\":2327:2328   */\n      0x01\n        /* \"#utility.yul\":2324:2325   */\n      dup2\n        /* \"#utility.yul\":2320:2329   */\n      add\n        /* \"#utility.yul\":2315:2329   */\n      swap1\n      pop\n        /* \"#utility.yul\":2280:2676   */\n      jump(tag_171)\n    tag_173:\n        /* \"#utility.yul\":2284:2298   */\n      pop\n        /* \"#utility.yul\":2692:2696   */\n      dup3\n        /* \"#utility.yul\":2685:2696   */\n      swap8\n      pop\n        /* \"#utility.yul\":2712:2715   */\n      dup8\n        /* \"#utility.yul\":2705:2715   */\n      swap6\n      pop\n        /* \"#utility.yul\":1874:2721   */\n      pop\n      pop\n      pop\n      pop\n      pop\n        /* \"#utility.yul\":1730:2721   */\n      swap3\n      swap2\n      pop\n      pop\n      jump\t// out\n        /* \"#utility.yul\":2727:3140   */\n    tag_12:\n        /* \"#utility.yul\":2890:2894   */\n      0x00\n        /* \"#utility.yul\":2928:2930   */\n      0x20\n        /* \"#utility.yul\":2917:2926   */\n      dup3\n        /* \"#utility.yul\":2913:2931   */\n      add\n        /* \"#utility.yul\":2905:2931   */\n      swap1\n      pop\n        /* \"#utility.yul\":2977:2986   */\n      dup2\n        /* \"#utility.yul\":2971:2975   */\n      dup2\n        /* \"#utility.yul\":2967:2987   */\n      sub\n        /* \"#utility.yul\":2963:2964   */\n      0x00\n        /* \"#utility.yul\":2952:2961   */\n      dup4\n        /* \"#utility.yul\":2948:2965   */\n      add\n        /* \"#utility.yul\":2941:2988   */\n      mstore\n        /* \"#utility.yul\":3005:3133   */\n      tag_177\n        /* \"#utility.yul\":3128:3132   */\n      dup2\n        /* \"#utility.yul\":3119:3125   */\n      dup5\n        /* \"#utility.yul\":3005:3133   */\n      tag_108\n      jump\t// in\n    tag_177:\n        /* \"#utility.yul\":2997:3133   */\n      swap1\n      pop\n        /* \"#utility.yul\":2727:3140   */\n      swap3\n      swap2\n      pop\n      pop\n      jump\t// out\n        /* \"#utility.yul\":3146:3221   */\n    tag_109:\n        /* \"#utility.yul\":3179:3185   */\n      0x00\n        /* \"#utility.yul\":3212:3214   */\n      0x40\n        /* \"#utility.yul\":3206:3215   */\n      mload\n        /* \"#utility.yul\":3196:3215   */\n      swap1\n      pop\n        /* \"#utility.yul\":3146:3221   */\n      swap1\n      jump\t// out\n        /* \"#utility.yul\":3227:3344   */\n    tag_110:\n        /* \"#utility.yul\":3336:3337   */\n      0x00\n        /* \"#utility.yul\":3333:3334   */\n      dup1\n        /* \"#utility.yul\":3326:3338   */\n      revert\n        /* \"#utility.yul\":3350:3467   */\n    tag_111:\n        /* \"#utility.yul\":3459:3460   */\n      0x00\n        /* \"#utility.yul\":3456:3457   */\n      dup1\n        /* \"#utility.yul\":3449:3461   */\n      revert\n        /* \"#utility.yul\":3473:3550   */\n    tag_112:\n        /* \"#utility.yul\":3510:3517   */\n      0x00\n        /* \"#utility.yul\":3539:3544   */\n      dup2\n        /* \"#utility.yul\":3528:3544   */\n      swap1\n      pop\n        /* \"#utility.yul\":3473:3550   */\n      swap2\n      swap1\n      pop\n      jump\t// out\n        /* \"#utility.yul\":3556:3678   */\n    tag_113:\n        /* \"#utility.yul\":3629:3653   */\n      tag_183\n        /* \"#utility.yul\":3647:3652   */\n      dup2\n        /* \"#utility.yul\":3629:3653   */\n      tag_112\n      jump\t// in\n    tag_183:\n        /* \"#utility.yul\":3622:3627   */\n      dup2\n        /* \"#utility.yul\":3619:3654   */\n      eq\n        /* \"#utility.yul\":3609:3672   */\n      tag_184\n      jumpi\n        /* \"#utility.yul\":3668:3669   */\n      0x00\n        /* \"#utility.yul\":3665:3666   */\n      dup1\n        /* \"#utility.yul\":3658:3670   */\n      revert\n        /* \"#utility.yul\":3609:3672   */\n    tag_184:\n        /* \"#utility.yul\":3556:3678   */\n      pop\n      jump\t// out\n        /* \"#utility.yul\":3684:3823   */\n    tag_114:\n        /* \"#utility.yul\":3730:3735   */\n      0x00\n        /* \"#utility.yul\":3768:3774   */\n      dup2\n        /* \"#utility.yul\":3755:3775   */\n      calldataload\n        /* \"#utility.yul\":3746:3775   */\n      swap1\n      pop\n        /* \"#utility.yul\":3784:3817   */\n      tag_186\n        /* \"#utility.yul\":3811:3816   */\n      dup2\n        /* \"#utility.yul\":3784:3817   */\n      tag_113\n      jump\t// in\n    tag_186:\n        /* \"#utility.yul\":3684:3823   */\n      swap3\n      swap2\n      pop\n      pop\n      jump\t// out\n        /* \"#utility.yul\":3829:4158   */\n    tag_15:\n        /* \"#utility.yul\":3888:3894   */\n      0x00\n        /* \"#utility.yul\":3937:3939   */\n      0x20\n        /* \"#utility.yul\":3925:3934   */\n      dup3\n        /* \"#utility.yul\":3916:3923   */\n      dup5\n        /* \"#utility.yul\":3912:3935   */\n      sub\n        /* \"#utility.yul\":3908:3940   */\n      slt\n        /* \"#utility.yul\":3905:4024   */\n      iszero\n      tag_188\n      jumpi\n        /* \"#utility.yul\":3943:4022   */\n      tag_189\n      tag_110\n      jump\t// in\n    tag_189:\n        /* \"#utility.yul\":3905:4024   */\n    tag_188:\n        /* \"#utility.yul\":4063:4064   */\n      0x00\n        /* \"#utility.yul\":4088:4141   */\n      tag_190\n        /* \"#utility.yul\":4133:4140   */\n      dup5\n        /* \"#utility.yul\":4124:4130   */\n      dup3\n        /* \"#utility.yul\":4113:4122   */\n      dup6\n        /* \"#utility.yul\":4109:4131   */\n      add\n        /* \"#utility.yul\":4088:4141   */\n      tag_114\n      jump\t// in\n    tag_190:\n        /* \"#utility.yul\":4078:4141   */\n      swap2\n      pop\n        /* \"#utility.yul\":4034:4151   */\n      pop\n        /* \"#utility.yul\":3829:4158   */\n      swap3\n      swap2\n      pop\n      pop\n      jump\t// out\n        /* \"#utility.yul\":4164:4333   */\n    tag_115:\n        /* \"#utility.yul\":4248:4259   */\n      0x00\n        /* \"#utility.yul\":4282:4288   */\n      dup3\n        /* \"#utility.yul\":4277:4280   */\n      dup3\n        /* \"#utility.yul\":4270:4289   */\n      mstore\n        /* \"#utility.yul\":4322:4326   */\n      0x20\n        /* \"#utility.yul\":4317:4320   */\n      dup3\n        /* \"#utility.yul\":4313:4327   */\n      add\n        /* \"#utility.yul\":4298:4327   */\n      swap1\n      pop\n        /* \"#utility.yul\":4164:4333   */\n      swap3\n      swap2\n      pop\n      pop\n      jump\t// out\n        /* \"#utility.yul\":4339:4716   */\n    tag_116:\n        /* \"#utility.yul\":4427:4430   */\n      0x00\n        /* \"#utility.yul\":4455:4494   */\n      tag_193\n        /* \"#utility.yul\":4488:4493   */\n      dup3\n        /* \"#utility.yul\":4455:4494   */\n      tag_101\n      jump\t// in\n    tag_193:\n        /* \"#utility.yul\":4510:4581   */\n      tag_194\n        /* \"#utility.yul\":4574:4580   */\n      dup2\n        /* \"#utility.yul\":4569:4572   */\n      dup6\n        /* \"#utility.yul\":4510:4581   */\n      tag_115\n      jump\t// in\n    tag_194:\n        /* \"#utility.yul\":4503:4581   */\n      swap4\n      pop\n        /* \"#utility.yul\":4590:4655   */\n      tag_195\n        /* \"#utility.yul\":4648:4654   */\n      dup2\n        /* \"#utility.yul\":4643:4646   */\n      dup6\n        /* \"#utility.yul\":4636:4640   */\n      0x20\n        /* \"#utility.yul\":4629:4634   */\n      dup7\n        /* \"#utility.yul\":4625:4641   */\n      add\n        /* \"#utility.yul\":4590:4655   */\n      tag_103\n      jump\t// in\n    tag_195:\n        /* \"#utility.yul\":4680:4709   */\n      tag_196\n        /* \"#utility.yul\":4702:4708   */\n      dup2\n        /* \"#utility.yul\":4680:4709   */\n      tag_104\n      jump\t// in\n    tag_196:\n        /* \"#utility.yul\":4675:4678   */\n      dup5\n        /* \"#utility.yul\":4671:4710   */\n      add\n        /* \"#utility.yul\":4664:4710   */\n      swap2\n      pop\n        /* \"#utility.yul\":4431:4716   */\n      pop\n        /* \"#utility.yul\":4339:4716   */\n      swap3\n      swap2\n      pop\n      pop\n      jump\t// out\n        /* \"#utility.yul\":4722:5035   */\n    tag_18:\n        /* \"#utility.yul\":4835:4839   */\n      0x00\n        /* \"#utility.yul\":4873:4875   */\n      0x20\n        /* \"#utility.yul\":4862:4871   */\n      dup3\n        /* \"#utility.yul\":4858:4876   */\n      add\n        /* \"#utility.yul\":4850:4876   */\n      swap1\n      pop\n        /* \"#utility.yul\":4922:4931   */\n      dup2\n        /* \"#utility.yul\":4916:4920   */\n      dup2\n        /* \"#utility.yul\":4912:4932   */\n      sub\n        /* \"#utility.yul\":4908:4909   */\n      0x00\n        /* \"#utility.yul\":4897:4906   */\n      dup4\n        /* \"#utility.yul\":4893:4910   */\n      add\n        /* \"#utility.yul\":4886:4933   */\n      mstore\n        /* \"#utility.yul\":4950:5028   */\n      tag_198\n        /* \"#utility.yul\":5023:5027   */\n      dup2\n        /* \"#utility.yul\":5014:5020   */\n      dup5\n        /* \"#utility.yul\":4950:5028   */\n      tag_116\n      jump\t// in\n    tag_198:\n        /* \"#utility.yul\":4942:5028   */\n      swap1\n      pop\n        /* \"#utility.yul\":4722:5035   */\n      swap3\n      swap2\n      pop\n      pop\n      jump\t// out\n        /* \"#utility.yul\":5041:5158   */\n    tag_117:\n        /* \"#utility.yul\":5150:5151   */\n      0x00\n        /* \"#utility.yul\":5147:5148   */\n      dup1\n        /* \"#utility.yul\":5140:5152   */\n      revert\n        /* \"#utility.yul\":5164:5281   */\n    tag_118:\n        /* \"#utility.yul\":5273:5274   */\n      0x00\n        /* \"#utility.yul\":5270:5271   */\n      dup1\n        /* \"#utility.yul\":5263:5275   */\n      revert\n        /* \"#utility.yul\":5287:5467   */\n    tag_119:\n        /* \"#utility.yul\":5335:5412   */\n      0x4e487b7100000000000000000000000000000000000000000000000000000000\n        /* \"#utility.yul\":5332:5333   */\n      0x00\n        /* \"#utility.yul\":5325:5413   */\n      mstore\n        /* \"#utility.yul\":5432:5436   */\n      0x41\n        /* \"#utility.yul\":5429:5430   */\n      0x04\n        /* \"#utility.yul\":5422:5437   */\n      mstore\n        /* \"#utility.yul\":5456:5460   */\n      0x24\n        /* \"#utility.yul\":5453:5454   */\n      0x00\n        /* \"#utility.yul\":5446:5461   */\n      revert\n        /* \"#utility.yul\":5473:5754   */\n    tag_120:\n        /* \"#utility.yul\":5556:5583   */\n      tag_203\n        /* \"#utility.yul\":5578:5582   */\n      dup3\n        /* \"#utility.yul\":5556:5583   */\n      tag_104\n      jump\t// in\n    tag_203:\n        /* \"#utility.yul\":5548:5554   */\n      dup2\n        /* \"#utility.yul\":5544:5584   */\n      add\n        /* \"#utility.yul\":5686:5692   */\n      dup2\n        /* \"#utility.yul\":5674:5684   */\n      dup2\n        /* \"#utility.yul\":5671:5693   */\n      lt\n        /* \"#utility.yul\":5650:5668   */\n      0xffffffffffffffff\n        /* \"#utility.yul\":5638:5648   */\n      dup3\n        /* \"#utility.yul\":5635:5669   */\n      gt\n        /* \"#utility.yul\":5632:5694   */\n      or\n        /* \"#utility.yul\":5629:5717   */\n      iszero\n      tag_204\n      jumpi\n        /* \"#utility.yul\":5697:5715   */\n      tag_205\n      tag_119\n      jump\t// in\n    tag_205:\n        /* \"#utility.yul\":5629:5717   */\n    tag_204:\n        /* \"#utility.yul\":5737:5747   */\n      dup1\n        /* \"#utility.yul\":5733:5735   */\n      0x40\n        /* \"#utility.yul\":5726:5748   */\n      mstore\n        /* \"#utility.yul\":5516:5754   */\n      pop\n        /* \"#utility.yul\":5473:5754   */\n      pop\n      pop\n      jump\t// out\n        /* \"#utility.yul\":5760:5889   */\n    tag_121:\n        /* \"#utility.yul\":5794:5800   */\n      0x00\n        /* \"#utility.yul\":5821:5841   */\n      tag_207\n      tag_109\n      jump\t// in\n    tag_207:\n        /* \"#utility.yul\":5811:5841   */\n      swap1\n      pop\n        /* \"#utility.yul\":5850:5883   */\n      tag_208\n        /* \"#utility.yul\":5878:5882   */\n      dup3\n        /* \"#utility.yul\":5870:5876   */\n      dup3\n        /* \"#utility.yul\":5850:5883   */\n      tag_120\n      jump\t// in\n    tag_208:\n        /* \"#utility.yul\":5760:5889   */\n      swap2\n      swap1\n      pop\n      jump\t// out\n        /* \"#utility.yul\":5895:6203   */\n    tag_122:\n        /* \"#utility.yul\":5957:5961   */\n      0x00\n        /* \"#utility.yul\":6047:6065   */\n      0xffffffffffffffff\n        /* \"#utility.yul\":6039:6045   */\n      dup3\n        /* \"#utility.yul\":6036:6066   */\n      gt\n        /* \"#utility.yul\":6033:6089   */\n      iszero\n      tag_210\n      jumpi\n        /* \"#utility.yul\":6069:6087   */\n      tag_211\n      tag_119\n      jump\t// in\n    tag_211:\n        /* \"#utility.yul\":6033:6089   */\n    tag_210:\n        /* \"#utility.yul\":6107:6136   */\n      tag_212\n        /* \"#utility.yul\":6129:6135   */\n      dup3\n        /* \"#utility.yul\":6107:6136   */\n      tag_104\n      jump\t// in\n    tag_212:\n        /* \"#utility.yul\":6099:6136   */\n      swap1\n      pop\n        /* \"#utility.yul\":6191:6195   */\n      0x20\n        /* \"#utility.yul\":6185:6189   */\n      dup2\n        /* \"#utility.yul\":6181:6196   */\n      add\n        /* \"#utility.yul\":6173:6196   */\n      swap1\n      pop\n        /* \"#utility.yul\":5895:6203   */\n      swap2\n      swap1\n      pop\n      jump\t// out\n        /* \"#utility.yul\":6209:6357   */\n    tag_123:\n        /* \"#utility.yul\":6307:6313   */\n      dup3\n        /* \"#utility.yul\":6302:6305   */\n      dup2\n        /* \"#utility.yul\":6297:6300   */\n      dup4\n        /* \"#utility.yul\":6284:6314   */\n      calldatacopy\n        /* \"#utility.yul\":6348:6349   */\n      0x00\n        /* \"#utility.yul\":6339:6345   */\n      dup4\n        /* \"#utility.yul\":6334:6337   */\n      dup4\n        /* \"#utility.yul\":6330:6346   */\n      add\n        /* \"#utility.yul\":6323:6350   */\n      mstore\n        /* \"#utility.yul\":6209:6357   */\n      pop\n      pop\n      pop\n      jump\t// out\n        /* \"#utility.yul\":6363:6788   */\n    tag_124:\n        /* \"#utility.yul\":6441:6446   */\n      0x00\n        /* \"#utility.yul\":6466:6532   */\n      tag_215\n        /* \"#utility.yul\":6482:6531   */\n      tag_216\n        /* \"#utility.yul\":6524:6530   */\n      dup5\n        /* \"#utility.yul\":6482:6531   */\n      tag_122\n      jump\t// in\n    tag_216:\n        /* \"#utility.yul\":6466:6532   */\n      tag_121\n      jump\t// in\n    tag_215:\n        /* \"#utility.yul\":6457:6532   */\n      swap1\n      pop\n        /* \"#utility.yul\":6555:6561   */\n      dup3\n        /* \"#utility.yul\":6548:6553   */\n      dup2\n        /* \"#utility.yul\":6541:6562   */\n      mstore\n        /* \"#utility.yul\":6593:6597   */\n      0x20\n        /* \"#utility.yul\":6586:6591   */\n      dup2\n        /* \"#utility.yul\":6582:6598   */\n      add\n        /* \"#utility.yul\":6631:6634   */\n      dup5\n        /* \"#utility.yul\":6622:6628   */\n      dup5\n        /* \"#utility.yul\":6617:6620   */\n      dup5\n        /* \"#utility.yul\":6613:6629   */\n      add\n        /* \"#utility.yul\":6610:6635   */\n      gt\n        /* \"#utility.yul\":6607:6719   */\n      iszero\n      tag_217\n      jumpi\n        /* \"#utility.yul\":6638:6717   */\n      tag_218\n      tag_118\n      jump\t// in\n    tag_218:\n        /* \"#utility.yul\":6607:6719   */\n    tag_217:\n        /* \"#utility.yul\":6728:6782   */\n      tag_219\n        /* \"#utility.yul\":6775:6781   */\n      dup5\n        /* \"#utility.yul\":6770:6773   */\n      dup3\n        /* \"#utility.yul\":6765:6768   */\n      dup6\n        /* \"#utility.yul\":6728:6782   */\n      tag_123\n      jump\t// in\n    tag_219:\n        /* \"#utility.yul\":6447:6788   */\n      pop\n        /* \"#utility.yul\":6363:6788   */\n      swap4\n      swap3\n      pop\n      pop\n      pop\n      jump\t// out\n        /* \"#utility.yul\":6808:7148   */\n    tag_125:\n        /* \"#utility.yul\":6864:6869   */\n      0x00\n        /* \"#utility.yul\":6913:6916   */\n      dup3\n        /* \"#utility.yul\":6906:6910   */\n      0x1f\n        /* \"#utility.yul\":6898:6904   */\n      dup4\n        /* \"#utility.yul\":6894:6911   */\n      add\n        /* \"#utility.yul\":6890:6917   */\n      slt\n        /* \"#utility.yul\":6880:7002   */\n      tag_221\n      jumpi\n        /* \"#utility.yul\":6921:7000   */\n      tag_222\n      tag_117\n      jump\t// in\n    tag_222:\n        /* \"#utility.yul\":6880:7002   */\n    tag_221:\n        /* \"#utility.yul\":7038:7044   */\n      dup2\n        /* \"#utility.yul\":7025:7045   */\n      calldataload\n        /* \"#utility.yul\":7063:7142   */\n      tag_223\n        /* \"#utility.yul\":7138:7141   */\n      dup5\n        /* \"#utility.yul\":7130:7136   */\n      dup3\n        /* \"#utility.yul\":7123:7127   */\n      0x20\n        /* \"#utility.yul\":7115:7121   */\n      dup7\n        /* \"#utility.yul\":7111:7128   */\n      add\n        /* \"#utility.yul\":7063:7142   */\n      tag_124\n      jump\t// in\n    tag_223:\n        /* \"#utility.yul\":7054:7142   */\n      swap2\n      pop\n        /* \"#utility.yul\":6870:7148   */\n      pop\n        /* \"#utility.yul\":6808:7148   */\n      swap3\n      swap2\n      pop\n      pop\n      jump\t// out\n        /* \"#utility.yul\":7154:7663   */\n    tag_23:\n        /* \"#utility.yul\":7223:7229   */\n      0x00\n        /* \"#utility.yul\":7272:7274   */\n      0x20\n        /* \"#utility.yul\":7260:7269   */\n      dup3\n        /* \"#utility.yul\":7251:7258   */\n      dup5\n        /* \"#utility.yul\":7247:7270   */\n      sub\n        /* \"#utility.yul\":7243:7275   */\n      slt\n        /* \"#utility.yul\":7240:7359   */\n      iszero\n      tag_225\n      jumpi\n        /* \"#utility.yul\":7278:7357   */\n      tag_226\n      tag_110\n      jump\t// in\n    tag_226:\n        /* \"#utility.yul\":7240:7359   */\n    tag_225:\n        /* \"#utility.yul\":7426:7427   */\n      0x00\n        /* \"#utility.yul\":7415:7424   */\n      dup3\n        /* \"#utility.yul\":7411:7428   */\n      add\n        /* \"#utility.yul\":7398:7429   */\n      calldataload\n        /* \"#utility.yul\":7456:7474   */\n      0xffffffffffffffff\n        /* \"#utility.yul\":7448:7454   */\n      dup2\n        /* \"#utility.yul\":7445:7475   */\n      gt\n        /* \"#utility.yul\":7442:7559   */\n      iszero\n      tag_227\n      jumpi\n        /* \"#utility.yul\":7478:7557   */\n      tag_228\n      tag_111\n      jump\t// in\n    tag_228:\n        /* \"#utility.yul\":7442:7559   */\n    tag_227:\n        /* \"#utility.yul\":7583:7646   */\n      tag_229\n        /* \"#utility.yul\":7638:7645   */\n      dup5\n        /* \"#utility.yul\":7629:7635   */\n      dup3\n        /* \"#utility.yul\":7618:7627   */\n      dup6\n        /* \"#utility.yul\":7614:7636   */\n      add\n        /* \"#utility.yul\":7583:7646   */\n      tag_125\n      jump\t// in\n    tag_229:\n        /* \"#utility.yul\":7573:7646   */\n      swap2\n      pop\n        /* \"#utility.yul\":7369:7656   */\n      pop\n        /* \"#utility.yul\":7154:7663   */\n      swap3\n      swap2\n      pop\n      pop\n      jump\t// out\n        /* \"#utility.yul\":7669:7759   */\n    tag_126:\n        /* \"#utility.yul\":7703:7710   */\n      0x00\n        /* \"#utility.yul\":7746:7751   */\n      dup2\n        /* \"#utility.yul\":7739:7752   */\n      iszero\n        /* \"#utility.yul\":7732:7753   */\n      iszero\n        /* \"#utility.yul\":7721:7753   */\n      swap1\n      pop\n        /* \"#utility.yul\":7669:7759   */\n      swap2\n      swap1\n      pop\n      jump\t// out\n        /* \"#utility.yul\":7765:7874   */\n    tag_127:\n        /* \"#utility.yul\":7846:7867   */\n      tag_232\n        /* \"#utility.yul\":7861:7866   */\n      dup2\n        /* \"#utility.yul\":7846:7867   */\n      tag_126\n      jump\t// in\n    tag_232:\n        /* \"#utility.yul\":7841:7844   */\n      dup3\n        /* \"#utility.yul\":7834:7868   */\n      mstore\n        /* \"#utility.yul\":7765:7874   */\n      pop\n      pop\n      jump\t// out\n        /* \"#utility.yul\":7880:8090   */\n    tag_26:\n        /* \"#utility.yul\":7967:7971   */\n      0x00\n        /* \"#utility.yul\":8005:8007   */\n      0x20\n        /* \"#utility.yul\":7994:8003   */\n      dup3\n        /* \"#utility.yul\":7990:8008   */\n      add\n        /* \"#utility.yul\":7982:8008   */\n      swap1\n      pop\n        /* \"#utility.yul\":8018:8083   */\n      tag_234\n        /* \"#utility.yul\":8080:8081   */\n      0x00\n        /* \"#utility.yul\":8069:8078   */\n      dup4\n        /* \"#utility.yul\":8065:8082   */\n      add\n        /* \"#utility.yul\":8056:8062   */\n      dup5\n        /* \"#utility.yul\":8018:8083   */\n      tag_127\n      jump\t// in\n    tag_234:\n        /* \"#utility.yul\":7880:8090   */\n      swap3\n      swap2\n      pop\n      pop\n      jump\t// out\n        /* \"#utility.yul\":8096:8222   */\n    tag_128:\n        /* \"#utility.yul\":8133:8140   */\n      0x00\n        /* \"#utility.yul\":8173:8215   */\n      0xffffffffffffffffffffffffffffffffffffffff\n        /* \"#utility.yul\":8166:8171   */\n      dup3\n        /* \"#utility.yul\":8162:8216   */\n      and\n        /* \"#utility.yul\":8151:8216   */\n      swap1\n      pop\n        /* \"#utility.yul\":8096:8222   */\n      swap2\n      swap1\n      pop\n      jump\t// out\n        /* \"#utility.yul\":8228:8324   */\n    tag_129:\n        /* \"#utility.yul\":8265:8272   */\n      0x00\n        /* \"#utility.yul\":8294:8318   */\n      tag_237\n        /* \"#utility.yul\":8312:8317   */\n      dup3\n        /* \"#utility.yul\":8294:8318   */\n      tag_128\n      jump\t// in\n    tag_237:\n        /* \"#utility.yul\":8283:8318   */\n      swap1\n      pop\n        /* \"#utility.yul\":8228:8324   */\n      swap2\n      swap1\n      pop\n      jump\t// out\n        /* \"#utility.yul\":8330:8452   */\n    tag_130:\n        /* \"#utility.yul\":8403:8427   */\n      tag_239\n        /* \"#utility.yul\":8421:8426   */\n      dup2\n        /* \"#utility.yul\":8403:8427   */\n      tag_129\n      jump\t// in\n    tag_239:\n        /* \"#utility.yul\":8396:8401   */\n      dup2\n        /* \"#utility.yul\":8393:8428   */\n      eq\n        /* \"#utility.yul\":8383:8446   */\n      tag_240\n      jumpi\n        /* \"#utility.yul\":8442:8443   */\n      0x00\n        /* \"#utility.yul\":8439:8440   */\n      dup1\n        /* \"#utility.yul\":8432:8444   */\n      revert\n        /* \"#utility.yul\":8383:8446   */\n    tag_240:\n        /* \"#utility.yul\":8330:8452   */\n      pop\n      jump\t// out\n        /* \"#utility.yul\":8458:8597   */\n    tag_131:\n        /* \"#utility.yul\":8504:8509   */\n      0x00\n        /* \"#utility.yul\":8542:8548   */\n      dup2\n        /* \"#utility.yul\":8529:8549   */\n      calldataload\n        /* \"#utility.yul\":8520:8549   */\n      swap1\n      pop\n        /* \"#utility.yul\":8558:8591   */\n      tag_242\n        /* \"#utility.yul\":8585:8590   */\n      dup2\n        /* \"#utility.yul\":8558:8591   */\n      tag_130\n      jump\t// in\n    tag_242:\n        /* \"#utility.yul\":8458:8597   */\n      swap3\n      swap2\n      pop\n      pop\n      jump\t// out\n        /* \"#utility.yul\":8603:8932   */\n    tag_29:\n        /* \"#utility.yul\":8662:8668   */\n      0x00\n        /* \"#utility.yul\":8711:8713   */\n      0x20\n        /* \"#utility.yul\":8699:8708   */\n      dup3\n        /* \"#utility.yul\":8690:8697   */\n      dup5\n        /* \"#utility.yul\":8686:8709   */\n      sub\n        /* \"#utility.yul\":8682:8714   */\n      slt\n        /* \"#utility.yul\":8679:8798   */\n      iszero\n      tag_244\n      jumpi\n        /* \"#utility.yul\":8717:8796   */\n      tag_245\n      tag_110\n      jump\t// in\n    tag_245:\n        /* \"#utility.yul\":8679:8798   */\n    tag_244:\n        /* \"#utility.yul\":8837:8838   */\n      0x00\n        /* \"#utility.yul\":8862:8915   */\n      tag_246\n        /* \"#utility.yul\":8907:8914   */\n      dup5\n        /* \"#utility.yul\":8898:8904   */\n      dup3\n        /* \"#utility.yul\":8887:8896   */\n      dup6\n        /* \"#utility.yul\":8883:8905   */\n      add\n        /* \"#utility.yul\":8862:8915   */\n      tag_131\n      jump\t// in\n    tag_246:\n        /* \"#utility.yul\":8852:8915   */\n      swap2\n      pop\n        /* \"#utility.yul\":8808:8925   */\n      pop\n        /* \"#utility.yul\":8603:8932   */\n      swap3\n      swap2\n      pop\n      pop\n      jump\t// out\n        /* \"#utility.yul\":8938:9118   */\n    tag_132:\n        /* \"#utility.yul\":8986:9063   */\n      0x4e487b7100000000000000000000000000000000000000000000000000000000\n        /* \"#utility.yul\":8983:8984   */\n      0x00\n        /* \"#utility.yul\":8976:9064   */\n      mstore\n        /* \"#utility.yul\":9083:9087   */\n      0x22\n        /* \"#utility.yul\":9080:9081   */\n      0x04\n        /* \"#utility.yul\":9073:9088   */\n      mstore\n        /* \"#utility.yul\":9107:9111   */\n      0x24\n        /* \"#utility.yul\":9104:9105   */\n      0x00\n        /* \"#utility.yul\":9097:9112   */\n      revert\n        /* \"#utility.yul\":9124:9444   */\n    tag_40:\n        /* \"#utility.yul\":9168:9174   */\n      0x00\n        /* \"#utility.yul\":9205:9206   */\n      0x02\n        /* \"#utility.yul\":9199:9203   */\n      dup3\n        /* \"#utility.yul\":9195:9207   */\n      div\n        /* \"#utility.yul\":9185:9207   */\n      swap1\n      pop\n        /* \"#utility.yul\":9252:9253   */\n      0x01\n        /* \"#utility.yul\":9246:9250   */\n      dup3\n        /* \"#utility.yul\":9242:9254   */\n      and\n        /* \"#utility.yul\":9273:9291   */\n      dup1\n        /* \"#utility.yul\":9263:9344   */\n      tag_249\n      jumpi\n        /* \"#utility.yul\":9329:9333   */\n      0x7f\n        /* \"#utility.yul\":9321:9327   */\n      dup3\n        /* \"#utility.yul\":9317:9334   */\n      and\n        /* \"#utility.yul\":9307:9334   */\n      swap2\n      pop\n        /* \"#utility.yul\":9263:9344   */\n    tag_249:\n        /* \"#utility.yul\":9391:9393   */\n      0x20\n        /* \"#utility.yul\":9383:9389   */\n      dup3\n        /* \"#utility.yul\":9380:9394   */\n      lt\n        /* \"#utility.yul\":9360:9378   */\n      dup2\n        /* \"#utility.yul\":9357:9395   */\n      sub\n        /* \"#utility.yul\":9354:9438   */\n      tag_250\n      jumpi\n        /* \"#utility.yul\":9410:9428   */\n      tag_251\n      tag_132\n      jump\t// in\n    tag_251:\n        /* \"#utility.yul\":9354:9438   */\n    tag_250:\n        /* \"#utility.yul\":9175:9444   */\n      pop\n        /* \"#utility.yul\":9124:9444   */\n      swap2\n      swap1\n      pop\n      jump\t// out\n        /* \"#utility.yul\":9450:9630   */\n    tag_58:\n        /* \"#utility.yul\":9498:9575   */\n      0x4e487b7100000000000000000000000000000000000000000000000000000000\n        /* \"#utility.yul\":9495:9496   */\n      0x00\n        /* \"#utility.yul\":9488:9576   */\n      mstore\n        /* \"#utility.yul\":9595:9599   */\n      0x32\n        /* \"#utility.yul\":9592:9593   */\n      0x04\n        /* \"#utility.yul\":9585:9600   */\n      mstore\n        /* \"#utility.yul\":9619:9623   */\n      0x24\n        /* \"#utility.yul\":9616:9617   */\n      0x00\n        /* \"#utility.yul\":9609:9624   */\n      revert\n        /* \"#utility.yul\":9636:9784   */\n    tag_133:\n        /* \"#utility.yul\":9738:9749   */\n      0x00\n        /* \"#utility.yul\":9775:9778   */\n      dup2\n        /* \"#utility.yul\":9760:9778   */\n      swap1\n      pop\n        /* \"#utility.yul\":9636:9784   */\n      swap3\n      swap2\n      pop\n      pop\n      jump\t// out\n        /* \"#utility.yul\":9790:9931   */\n    tag_134:\n        /* \"#utility.yul\":9839:9843   */\n      0x00\n        /* \"#utility.yul\":9862:9865   */\n      dup2\n        /* \"#utility.yul\":9854:9865   */\n      swap1\n      pop\n        /* \"#utility.yul\":9885:9888   */\n      dup2\n        /* \"#utility.yul\":9882:9883   */\n      0x00\n        /* \"#utility.yul\":9875:9889   */\n      mstore\n        /* \"#utility.yul\":9919:9923   */\n      0x20\n        /* \"#utility.yul\":9916:9917   */\n      0x00\n        /* \"#utility.yul\":9906:9924   */\n      keccak256\n        /* \"#utility.yul\":9898:9924   */\n      swap1\n      pop\n        /* \"#utility.yul\":9790:9931   */\n      swap2\n      swap1\n      pop\n      jump\t// out\n        /* \"#utility.yul\":9961:10835   */\n    tag_135:\n        /* \"#utility.yul\":10064:10067   */\n      0x00\n        /* \"#utility.yul\":10101:10106   */\n      dup2\n        /* \"#utility.yul\":10095:10107   */\n      sload\n        /* \"#utility.yul\":10130:10166   */\n      tag_256\n        /* \"#utility.yul\":10156:10165   */\n      dup2\n        /* \"#utility.yul\":10130:10166   */\n      tag_40\n      jump\t// in\n    tag_256:\n        /* \"#utility.yul\":10182:10271   */\n      tag_257\n        /* \"#utility.yul\":10264:10270   */\n      dup2\n        /* \"#utility.yul\":10259:10262   */\n      dup7\n        /* \"#utility.yul\":10182:10271   */\n      tag_133\n      jump\t// in\n    tag_257:\n        /* \"#utility.yul\":10175:10271   */\n      swap5\n      pop\n        /* \"#utility.yul\":10302:10303   */\n      0x01\n        /* \"#utility.yul\":10291:10300   */\n      dup3\n        /* \"#utility.yul\":10287:10304   */\n      and\n        /* \"#utility.yul\":10318:10319   */\n      0x00\n        /* \"#utility.yul\":10313:10479   */\n      dup2\n      eq\n      tag_259\n      jumpi\n        /* \"#utility.yul\":10493:10494   */\n      0x01\n        /* \"#utility.yul\":10488:10829   */\n      dup2\n      eq\n      tag_260\n      jumpi\n        /* \"#utility.yul\":10280:10829   */\n      jump(tag_258)\n        /* \"#utility.yul\":10313:10479   */\n    tag_259:\n        /* \"#utility.yul\":10397:10401   */\n      0xff\n        /* \"#utility.yul\":10393:10402   */\n      not\n        /* \"#utility.yul\":10382:10391   */\n      dup4\n        /* \"#utility.yul\":10378:10403   */\n      and\n        /* \"#utility.yul\":10373:10376   */\n      dup7\n        /* \"#utility.yul\":10366:10404   */\n      mstore\n        /* \"#utility.yul\":10459:10465   */\n      dup2\n        /* \"#utility.yul\":10452:10466   */\n      iszero\n        /* \"#utility.yul\":10445:10467   */\n      iszero\n        /* \"#utility.yul\":10437:10443   */\n      dup3\n        /* \"#utility.yul\":10433:10468   */\n      mul\n        /* \"#utility.yul\":10428:10431   */\n      dup7\n        /* \"#utility.yul\":10424:10469   */\n      add\n        /* \"#utility.yul\":10417:10469   */\n      swap4\n      pop\n        /* \"#utility.yul\":10313:10479   */\n      jump(tag_258)\n        /* \"#utility.yul\":10488:10829   */\n    tag_260:\n        /* \"#utility.yul\":10555:10593   */\n      tag_261\n        /* \"#utility.yul\":10587:10592   */\n      dup6\n        /* \"#utility.yul\":10555:10593   */\n      tag_134\n      jump\t// in\n    tag_261:\n        /* \"#utility.yul\":10615:10616   */\n      0x00\n        /* \"#utility.yul\":10629:10783   */\n    tag_262:\n        /* \"#utility.yul\":10643:10649   */\n      dup4\n        /* \"#utility.yul\":10640:10641   */\n      dup2\n        /* \"#utility.yul\":10637:10650   */\n      lt\n        /* \"#utility.yul\":10629:10783   */\n      iszero\n      tag_264\n      jumpi\n        /* \"#utility.yul\":10717:10724   */\n      dup2\n        /* \"#utility.yul\":10711:10725   */\n      sload\n        /* \"#utility.yul\":10707:10708   */\n      dup2\n        /* \"#utility.yul\":10702:10705   */\n      dup10\n        /* \"#utility.yul\":10698:10709   */\n      add\n        /* \"#utility.yul\":10691:10726   */\n      mstore\n        /* \"#utility.yul\":10767:10768   */\n      0x01\n        /* \"#utility.yul\":10758:10765   */\n      dup3\n        /* \"#utility.yul\":10754:10769   */\n      add\n        /* \"#utility.yul\":10743:10769   */\n      swap2\n      pop\n        /* \"#utility.yul\":10665:10669   */\n      0x20\n        /* \"#utility.yul\":10662:10663   */\n      dup2\n        /* \"#utility.yul\":10658:10670   */\n      add\n        /* \"#utility.yul\":10653:10670   */\n      swap1\n      pop\n        /* \"#utility.yul\":10629:10783   */\n      jump(tag_262)\n    tag_264:\n        /* \"#utility.yul\":10812:10818   */\n      dup4\n        /* \"#utility.yul\":10807:10810   */\n      dup9\n        /* \"#utility.yul\":10803:10819   */\n      add\n        /* \"#utility.yul\":10796:10819   */\n      swap6\n      pop\n        /* \"#utility.yul\":10495:10829   */\n      pop\n      pop\n        /* \"#utility.yul\":10280:10829   */\n    tag_258:\n      pop\n        /* \"#utility.yul\":10068:10835   */\n      pop\n      pop\n        /* \"#utility.yul\":9961:10835   */\n      swap3\n      swap2\n      pop\n      pop\n      jump\t// out\n        /* \"#utility.yul\":10841:11110   */\n    tag_61:\n        /* \"#utility.yul\":10970:10973   */\n      0x00\n        /* \"#utility.yul\":10992:11084   */\n      tag_266\n        /* \"#utility.yul\":11080:11083   */\n      dup3\n        /* \"#utility.yul\":11071:11077   */\n      dup5\n        /* \"#utility.yul\":10992:11084   */\n      tag_135\n      jump\t// in\n    tag_266:\n        /* \"#utility.yul\":10985:11084   */\n      swap2\n      pop\n        /* \"#utility.yul\":11101:11104   */\n      dup2\n        /* \"#utility.yul\":11094:11104   */\n      swap1\n      pop\n        /* \"#utility.yul\":10841:11110   */\n      swap3\n      swap2\n      pop\n      pop\n      jump\t// out\n        /* \"#utility.yul\":11116:11506   */\n    tag_136:\n        /* \"#utility.yul\":11222:11225   */\n      0x00\n        /* \"#utility.yul\":11250:11289   */\n      tag_268\n        /* \"#utility.yul\":11283:11288   */\n      dup3\n        /* \"#utility.yul\":11250:11289   */\n      tag_101\n      jump\t// in\n    tag_268:\n        /* \"#utility.yul\":11305:11394   */\n      tag_269\n        /* \"#utility.yul\":11387:11393   */\n      dup2\n        /* \"#utility.yul\":11382:11385   */\n      dup6\n        /* \"#utility.yul\":11305:11394   */\n      tag_133\n      jump\t// in\n    tag_269:\n        /* \"#utility.yul\":11298:11394   */\n      swap4\n      pop\n        /* \"#utility.yul\":11403:11468   */\n      tag_270\n        /* \"#utility.yul\":11461:11467   */\n      dup2\n        /* \"#utility.yul\":11456:11459   */\n      dup6\n        /* \"#utility.yul\":11449:11453   */\n      0x20\n        /* \"#utility.yul\":11442:11447   */\n      dup7\n        /* \"#utility.yul\":11438:11454   */\n      add\n        /* \"#utility.yul\":11403:11468   */\n      tag_103\n      jump\t// in\n    tag_270:\n        /* \"#utility.yul\":11493:11499   */\n      dup1\n        /* \"#utility.yul\":11488:11491   */\n      dup5\n        /* \"#utility.yul\":11484:11500   */\n      add\n        /* \"#utility.yul\":11477:11500   */\n      swap2\n      pop\n        /* \"#utility.yul\":11226:11506   */\n      pop\n        /* \"#utility.yul\":11116:11506   */\n      swap3\n      swap2\n      pop\n      pop\n      jump\t// out\n        /* \"#utility.yul\":11512:11787   */\n    tag_75:\n        /* \"#utility.yul\":11644:11647   */\n      0x00\n        /* \"#utility.yul\":11666:11761   */\n      tag_272\n        /* \"#utility.yul\":11757:11760   */\n      dup3\n        /* \"#utility.yul\":11748:11754   */\n      dup5\n        /* \"#utility.yul\":11666:11761   */\n      tag_136\n      jump\t// in\n    tag_272:\n        /* \"#utility.yul\":11659:11761   */\n      swap2\n      pop\n        /* \"#utility.yul\":11778:11781   */\n      dup2\n        /* \"#utility.yul\":11771:11781   */\n      swap1\n      pop\n        /* \"#utility.yul\":11512:11787   */\n      swap3\n      swap2\n      pop\n      pop\n      jump\t// out\n        /* \"#utility.yul\":11793:11886   */\n    tag_137:\n        /* \"#utility.yul\":11830:11836   */\n      0x00\n        /* \"#utility.yul\":11877:11879   */\n      0x20\n        /* \"#utility.yul\":11872:11874   */\n      0x1f\n        /* \"#utility.yul\":11865:11870   */\n      dup4\n        /* \"#utility.yul\":11861:11875   */\n      add\n        /* \"#utility.yul\":11857:11880   */\n      div\n        /* \"#utility.yul\":11847:11880   */\n      swap1\n      pop\n        /* \"#utility.yul\":11793:11886   */\n      swap2\n      swap1\n      pop\n      jump\t// out\n        /* \"#utility.yul\":11892:11999   */\n    tag_138:\n        /* \"#utility.yul\":11936:11944   */\n      0x00\n        /* \"#utility.yul\":11986:11991   */\n      dup3\n        /* \"#utility.yul\":11980:11984   */\n      dup3\n        /* \"#utility.yul\":11976:11992   */\n      shl\n        /* \"#utility.yul\":11955:11992   */\n      swap1\n      pop\n        /* \"#utility.yul\":11892:11999   */\n      swap3\n      swap2\n      pop\n      pop\n      jump\t// out\n        /* \"#utility.yul\":12005:12398   */\n    tag_139:\n        /* \"#utility.yul\":12074:12080   */\n      0x00\n        /* \"#utility.yul\":12124:12125   */\n      0x08\n        /* \"#utility.yul\":12112:12122   */\n      dup4\n        /* \"#utility.yul\":12108:12126   */\n      mul\n        /* \"#utility.yul\":12147:12244   */\n      tag_276\n        /* \"#utility.yul\":12177:12243   */\n      0xffffffffffffffffffffffffffffffffffffffffffffffffffffffffffffffff\n        /* \"#utility.yul\":12166:12175   */\n      dup3\n        /* \"#utility.yul\":12147:12244   */\n      tag_138\n      jump\t// in\n    tag_276:\n        /* \"#utility.yul\":12265:12304   */\n      tag_277\n        /* \"#utility.yul\":12295:12303   */\n      dup7\n        /* \"#utility.yul\":12284:12293   */\n      dup4\n        /* \"#utility.yul\":12265:12304   */\n      tag_138\n      jump\t// in\n    tag_277:\n        /* \"#utility.yul\":12253:12304   */\n      swap6\n      pop\n        /* \"#utility.yul\":12337:12341   */\n      dup1\n        /* \"#utility.yul\":12333:12342   */\n      not\n        /* \"#utility.yul\":12326:12331   */\n      dup5\n        /* \"#utility.yul\":12322:12343   */\n      and\n        /* \"#utility.yul\":12313:12343   */\n      swap4\n      pop\n        /* \"#utility.yul\":12386:12390   */\n      dup1\n        /* \"#utility.yul\":12376:12384   */\n      dup7\n        /* \"#utility.yul\":12372:12391   */\n      and\n        /* \"#utility.yul\":12365:12370   */\n      dup5\n        /* \"#utility.yul\":12362:12392   */\n      or\n        /* \"#utility.yul\":12352:12392   */\n      swap3\n      pop\n        /* \"#utility.yul\":12081:12398   */\n      pop\n      pop\n        /* \"#utility.yul\":12005:12398   */\n      swap4\n      swap3\n      pop\n      pop\n      pop\n      jump\t// out\n        /* \"#utility.yul\":12404:12464   */\n    tag_140:\n        /* \"#utility.yul\":12432:12435   */\n      0x00\n        /* \"#utility.yul\":12453:12458   */\n      dup2\n        /* \"#utility.yul\":12446:12458   */\n      swap1\n      pop\n        /* \"#utility.yul\":12404:12464   */\n      swap2\n      swap1\n      pop\n      jump\t// out\n        /* \"#utility.yul\":12470:12612   */\n    tag_141:\n        /* \"#utility.yul\":12520:12529   */\n      0x00\n        /* \"#utility.yul\":12553:12606   */\n      tag_280\n        /* \"#utility.yul\":12571:12605   */\n      tag_281\n        /* \"#utility.yul\":12580:12604   */\n      tag_282\n        /* \"#utility.yul\":12598:12603   */\n      dup5\n        /* \"#utility.yul\":12580:12604   */\n      tag_112\n      jump\t// in\n    tag_282:\n        /* \"#utility.yul\":12571:12605   */\n      tag_140\n      jump\t// in\n    tag_281:\n        /* \"#utility.yul\":12553:12606   */\n      tag_112\n      jump\t// in\n    tag_280:\n        /* \"#utility.yul\":12540:12606   */\n      swap1\n      pop\n        /* \"#utility.yul\":12470:12612   */\n      swap2\n      swap1\n      pop\n      jump\t// out\n        /* \"#utility.yul\":12618:12693   */\n    tag_142:\n        /* \"#utility.yul\":12661:12664   */\n      0x00\n        /* \"#utility.yul\":12682:12687   */\n      dup2\n        /* \"#utility.yul\":12675:12687   */\n      swap1\n      pop\n        /* \"#utility.yul\":12618:12693   */\n      swap2\n      swap1\n      pop\n      jump\t// out\n        /* \"#utility.yul\":12699:12968   */\n    tag_143:\n        /* \"#utility.yul\":12809:12848   */\n      tag_285\n        /* \"#utility.yul\":12840:12847   */\n      dup4\n        /* \"#utility.yul\":12809:12848   */\n      tag_141\n      jump\t// in\n    tag_285:\n        /* \"#utility.yul\":12870:12961   */\n      tag_286\n        /* \"#utility.yul\":12919:12960   */\n      tag_287\n        /* \"#utility.yul\":12943:12959   */\n      dup3\n        /* \"#utility.yul\":12919:12960   */\n      tag_142\n      jump\t// in\n    tag_287:\n        /* \"#utility.yul\":12911:12917   */\n      dup5\n        /* \"#utility.yul\":12904:12908   */\n      dup5\n        /* \"#utility.yul\":12898:12909   */\n      sload\n        /* \"#utility.yul\":12870:12961   */\n      tag_139\n      jump\t// in\n    tag_286:\n        /* \"#utility.yul\":12864:12868   */\n      dup3\n        /* \"#utility.yul\":12857:12962   */\n      sstore\n        /* \"#utility.yul\":12775:12968   */\n      pop\n        /* \"#utility.yul\":12699:12968   */\n      pop\n      pop\n      pop\n      jump\t// out\n        /* \"#utility.yul\":12974:13047   */\n    tag_144:\n        /* \"#utility.yul\":13019:13022   */\n      0x00\n        /* \"#utility.yul\":12974:13047   */\n      swap1\n      jump\t// out\n        /* \"#utility.yul\":13053:13242   */\n    tag_145:\n        /* \"#utility.yul\":13130:13162   */\n      tag_290\n      tag_144\n      jump\t// in\n    tag_290:\n        /* \"#utility.yul\":13171:13236   */\n      tag_291\n        /* \"#utility.yul\":13229:13235   */\n      dup2\n        /* \"#utility.yul\":13221:13227   */\n      dup5\n        /* \"#utility.yul\":13215:13219   */\n      dup5\n        /* \"#utility.yul\":13171:13236   */\n      tag_143\n      jump\t// in\n    tag_291:\n        /* \"#utility.yul\":13106:13242   */\n      pop\n        /* \"#utility.yul\":13053:13242   */\n      pop\n      pop\n      jump\t// out\n        /* \"#utility.yul\":13248:13434   */\n    tag_146:\n        /* \"#utility.yul\":13308:13428   */\n    tag_293:\n        /* \"#utility.yul\":13325:13328   */\n      dup2\n        /* \"#utility.yul\":13318:13323   */\n      dup2\n        /* \"#utility.yul\":13315:13329   */\n      lt\n        /* \"#utility.yul\":13308:13428   */\n      iszero\n      tag_295\n      jumpi\n        /* \"#utility.yul\":13379:13418   */\n      tag_296\n        /* \"#utility.yul\":13416:13417   */\n      0x00\n        /* \"#utility.yul\":13409:13414   */\n      dup3\n        /* \"#utility.yul\":13379:13418   */\n      tag_145\n      jump\t// in\n    tag_296:\n        /* \"#utility.yul\":13352:13353   */\n      0x01\n        /* \"#utility.yul\":13345:13350   */\n      dup2\n        /* \"#utility.yul\":13341:13354   */\n      add\n        /* \"#utility.yul\":13332:13354   */\n      swap1\n      pop\n        /* \"#utility.yul\":13308:13428   */\n      jump(tag_293)\n    tag_295:\n        /* \"#utility.yul\":13248:13434   */\n      pop\n      pop\n      jump\t// out\n        /* \"#utility.yul\":13440:13983   */\n    tag_147:\n        /* \"#utility.yul\":13541:13543   */\n      0x1f\n        /* \"#utility.yul\":13536:13539   */\n      dup3\n        /* \"#utility.yul\":13533:13544   */\n      gt\n        /* \"#utility.yul\":13530:13976   */\n      iszero\n      tag_298\n      jumpi\n        /* \"#utility.yul\":13575:13613   */\n      tag_299\n        /* \"#utility.yul\":13607:13612   */\n      dup2\n        /* \"#utility.yul\":13575:13613   */\n      tag_134\n      jump\t// in\n    tag_299:\n        /* \"#utility.yul\":13659:13688   */\n      tag_300\n        /* \"#utility.yul\":13677:13687   */\n      dup5\n        /* \"#utility.yul\":13659:13688   */\n      tag_137\n      jump\t// in\n    tag_300:\n        /* \"#utility.yul\":13649:13657   */\n      dup2\n        /* \"#utility.yul\":13645:13689   */\n      add\n        /* \"#utility.yul\":13842:13844   */\n      0x20\n        /* \"#utility.yul\":13830:13840   */\n      dup6\n        /* \"#utility.yul\":13827:13845   */\n      lt\n        /* \"#utility.yul\":13824:13873   */\n      iszero\n      tag_301\n      jumpi\n        /* \"#utility.yul\":13863:13871   */\n      dup2\n        /* \"#utility.yul\":13848:13871   */\n      swap1\n      pop\n        /* \"#utility.yul\":13824:13873   */\n    tag_301:\n        /* \"#utility.yul\":13886:13966   */\n      tag_302\n        /* \"#utility.yul\":13942:13964   */\n      tag_303\n        /* \"#utility.yul\":13960:13963   */\n      dup6\n        /* \"#utility.yul\":13942:13964   */\n      tag_137\n      jump\t// in\n    tag_303:\n        /* \"#utility.yul\":13932:13940   */\n      dup4\n        /* \"#utility.yul\":13928:13965   */\n      add\n        /* \"#utility.yul\":13915:13926   */\n      dup3\n        /* \"#utility.yul\":13886:13966   */\n      tag_146\n      jump\t// in\n    tag_302:\n        /* \"#utility.yul\":13545:13976   */\n      pop\n      pop\n        /* \"#utility.yul\":13530:13976   */\n    tag_298:\n        /* \"#utility.yul\":13440:13983   */\n      pop\n      pop\n      pop\n      jump\t// out\n        /* \"#utility.yul\":13989:14106   */\n    tag_148:\n        /* \"#utility.yul\":14043:14051   */\n      0x00\n        /* \"#utility.yul\":14093:14098   */\n      dup3\n        /* \"#utility.yul\":14087:14091   */\n      dup3\n        /* \"#utility.yul\":14083:14099   */\n      shr\n        /* \"#utility.yul\":14062:14099   */\n      swap1\n      pop\n        /* \"#utility.yul\":13989:14106   */\n      swap3\n      swap2\n      pop\n      pop\n      jump\t// out\n        /* \"#utility.yul\":14112:14281   */\n    tag_149:\n        /* \"#utility.yul\":14156:14162   */\n      0x00\n        /* \"#utility.yul\":14189:14240   */\n      tag_306\n        /* \"#utility.yul\":14237:14238   */\n      0x00\n        /* \"#utility.yul\":14233:14239   */\n      not\n        /* \"#utility.yul\":14225:14230   */\n      dup5\n        /* \"#utility.yul\":14222:14223   */\n      0x08\n        /* \"#utility.yul\":14218:14231   */\n      mul\n        /* \"#utility.yul\":14189:14240   */\n      tag_148\n      jump\t// in\n    tag_306:\n        /* \"#utility.yul\":14185:14241   */\n      not\n        /* \"#utility.yul\":14270:14274   */\n      dup1\n        /* \"#utility.yul\":14264:14268   */\n      dup4\n        /* \"#utility.yul\":14260:14275   */\n      and\n        /* \"#utility.yul\":14250:14275   */\n      swap2\n      pop\n        /* \"#utility.yul\":14163:14281   */\n      pop\n        /* \"#utility.yul\":14112:14281   */\n      swap3\n      swap2\n      pop\n      pop\n      jump\t// out\n        /* \"#utility.yul\":14286:14581   */\n    tag_150:\n        /* \"#utility.yul\":14362:14366   */\n      0x00\n        /* \"#utility.yul\":14508:14537   */\n      tag_308\n        /* \"#utility.yul\":14533:14536   */\n      dup4\n        /* \"#utility.yul\":14527:14531   */\n      dup4\n        /* \"#utility.yul\":14508:14537   */\n      tag_149\n      jump\t// in\n    tag_308:\n        /* \"#utility.yul\":14500:14537   */\n      swap2\n      pop\n        /* \"#utility.yul\":14570:14573   */\n      dup3\n        /* \"#utility.yul\":14567:14568   */\n      0x02\n        /* \"#utility.yul\":14563:14574   */\n      mul\n        /* \"#utility.yul\":14557:14561   */\n      dup3\n        /* \"#utility.yul\":14554:14575   */\n      or\n        /* \"#utility.yul\":14546:14575   */\n      swap1\n      pop\n        /* \"#utility.yul\":14286:14581   */\n      swap3\n      swap2\n      pop\n      pop\n      jump\t// out\n        /* \"#utility.yul\":14586:15981   */\n    tag_83:\n        /* \"#utility.yul\":14703:14740   */\n      tag_310\n        /* \"#utility.yul\":14736:14739   */\n      dup3\n        /* \"#utility.yul\":14703:14740   */\n      tag_101\n      jump\t// in\n    tag_310:\n        /* \"#utility.yul\":14805:14823   */\n      0xffffffffffffffff\n        /* \"#utility.yul\":14797:14803   */\n      dup2\n        /* \"#utility.yul\":14794:14824   */\n      gt\n        /* \"#utility.yul\":14791:14847   */\n      iszero\n      tag_311\n      jumpi\n        /* \"#utility.yul\":14827:14845   */\n      tag_312\n      tag_119\n      jump\t// in\n    tag_312:\n        /* \"#utility.yul\":14791:14847   */\n    tag_311:\n        /* \"#utility.yul\":14871:14909   */\n      tag_313\n        /* \"#utility.yul\":14903:14907   */\n      dup3\n        /* \"#utility.yul\":14897:14908   */\n      sload\n        /* \"#utility.yul\":14871:14909   */\n      tag_40\n      jump\t// in\n    tag_313:\n        /* \"#utility.yul\":14956:15023   */\n      tag_314\n        /* \"#utility.yul\":15016:15022   */\n      dup3\n        /* \"#utility.yul\":15008:15014   */\n      dup3\n        /* \"#utility.yul\":15002:15006   */\n      dup6\n        /* \"#utility.yul\":14956:15023   */\n      tag_147\n      jump\t// in\n    tag_314:\n        /* \"#utility.yul\":15050:15051   */\n      0x00\n        /* \"#utility.yul\":15074:15078   */\n      0x20\n        /* \"#utility.yul\":15061:15078   */\n      swap1\n      pop\n        /* \"#utility.yul\":15106:15108   */\n      0x1f\n        /* \"#utility.yul\":15098:15104   */\n      dup4\n        /* \"#utility.yul\":15095:15109   */\n      gt\n        /* \"#utility.yul\":15123:15124   */\n      0x01\n        /* \"#utility.yul\":15118:15736   */\n      dup2\n      eq\n      tag_316\n      jumpi\n        /* \"#utility.yul\":15780:15781   */\n      0x00\n        /* \"#utility.yul\":15797:15803   */\n      dup5\n        /* \"#utility.yul\":15794:15871   */\n      iszero\n      tag_317\n      jumpi\n        /* \"#utility.yul\":15846:15855   */\n      dup3\n        /* \"#utility.yul\":15841:15844   */\n      dup8\n        /* \"#utility.yul\":15837:15856   */\n      add\n        /* \"#utility.yul\":15831:15857   */\n      mload\n        /* \"#utility.yul\":15822:15857   */\n      swap1\n      pop\n        /* \"#utility.yul\":15794:15871   */\n    tag_317:\n        /* \"#utility.yul\":15897:15964   */\n      tag_318\n        /* \"#utility.yul\":15957:15963   */\n      dup6\n        /* \"#utility.yul\":15950:15955   */\n      dup3\n        /* \"#utility.yul\":15897:15964   */\n      tag_150\n      jump\t// in\n    tag_318:\n        /* \"#utility.yul\":15891:15895   */\n      dup7\n        /* \"#utility.yul\":15884:15965   */\n      sstore\n        /* \"#utility.yul\":15753:15975   */\n      pop\n        /* \"#utility.yul\":15088:15975   */\n      jump(tag_315)\n        /* \"#utility.yul\":15118:15736   */\n    tag_316:\n        /* \"#utility.yul\":15170:15174   */\n      0x1f\n        /* \"#utility.yul\":15166:15175   */\n      not\n        /* \"#utility.yul\":15158:15164   */\n      dup5\n        /* \"#utility.yul\":15154:15176   */\n      and\n        /* \"#utility.yul\":15204:15241   */\n      tag_319\n        /* \"#utility.yul\":15236:15240   */\n      dup7\n        /* \"#utility.yul\":15204:15241   */\n      tag_134\n      jump\t// in\n    tag_319:\n        /* \"#utility.yul\":15263:15264   */\n      0x00\n        /* \"#utility.yul\":15277:15485   */\n    tag_320:\n        /* \"#utility.yul\":15291:15298   */\n      dup3\n        /* \"#utility.yul\":15288:15289   */\n      dup2\n        /* \"#utility.yul\":15285:15299   */\n      lt\n        /* \"#utility.yul\":15277:15485   */\n      iszero\n      tag_322\n      jumpi\n        /* \"#utility.yul\":15370:15379   */\n      dup5\n        /* \"#utility.yul\":15365:15368   */\n      dup10\n        /* \"#utility.yul\":15361:15380   */\n      add\n        /* \"#utility.yul\":15355:15381   */\n      mload\n        /* \"#utility.yul\":15347:15353   */\n      dup3\n        /* \"#utility.yul\":15340:15382   */\n      sstore\n        /* \"#utility.yul\":15421:15422   */\n      0x01\n        /* \"#utility.yul\":15413:15419   */\n      dup3\n        /* \"#utility.yul\":15409:15423   */\n      add\n        /* \"#utility.yul\":15399:15423   */\n      swap2\n      pop\n        /* \"#utility.yul\":15468:15470   */\n      0x20\n        /* \"#utility.yul\":15457:15466   */\n      dup6\n        /* \"#utility.yul\":15453:15471   */\n      add\n        /* \"#utility.yul\":15440:15471   */\n      swap5\n      pop\n        /* \"#utility.yul\":15314:15318   */\n      0x20\n        /* \"#utility.yul\":15311:15312   */\n      dup2\n        /* \"#utility.yul\":15307:15319   */\n      add\n        /* \"#utility.yul\":15302:15319   */\n      swap1\n      pop\n        /* \"#utility.yul\":15277:15485   */\n      jump(tag_320)\n    tag_322:\n        /* \"#utility.yul\":15513:15519   */\n      dup7\n        /* \"#utility.yul\":15504:15511   */\n      dup4\n        /* \"#utility.yul\":15501:15520   */\n      lt\n        /* \"#utility.yul\":15498:15677   */\n      iszero\n      tag_323\n      jumpi\n        /* \"#utility.yul\":15571:15580   */\n      dup5\n        /* \"#utility.yul\":15566:15569   */\n      dup10\n        /* \"#utility.yul\":15562:15581   */\n      add\n        /* \"#utility.yul\":15556:15582   */\n      mload\n        /* \"#utility.yul\":15614:15662   */\n      tag_324\n        /* \"#utility.yul\":15656:15660   */\n      0x1f\n        /* \"#utility.yul\":15648:15654   */\n      dup10\n        /* \"#utility.yul\":15644:15661   */\n      and\n        /* \"#utility.yul\":15633:15642   */\n      dup3\n        /* \"#utility.yul\":15614:15662   */\n      tag_149\n      jump\t// in\n    tag_324:\n        /* \"#utility.yul\":15606:15612   */\n      dup4\n        /* \"#utility.yul\":15599:15663   */\n      sstore\n        /* \"#utility.yul\":15521:15677   */\n      pop\n        /* \"#utility.yul\":15498:15677   */\n    tag_323:\n        /* \"#utility.yul\":15723:15724   */\n      0x01\n        /* \"#utility.yul\":15719:15720   */\n      0x02\n        /* \"#utility.yul\":15711:15717   */\n      dup9\n        /* \"#utility.yul\":15707:15721   */\n      mul\n        /* \"#utility.yul\":15703:15725   */\n      add\n        /* \"#utility.yul\":15697:15701   */\n      dup9\n        /* \"#utility.yul\":15690:15726   */\n      sstore\n        /* \"#utility.yul\":15125:15736   */\n      pop\n      pop\n      pop\n        /* \"#utility.yul\":15088:15975   */\n    tag_315:\n      pop\n        /* \"#utility.yul\":14678:15981   */\n      pop\n      pop\n      pop\n        /* \"#utility.yul\":14586:15981   */\n      pop\n      pop\n      jump\t// out\n\n    auxdata: 0xa264697066735822122021ea38835e59b8c854340fa824e656b8626ae2c334a096c7b7f7d977ebec737b64736f6c634300081a0033\n}\n",
				"bytecode": {
					"linkReferences": {},
					"object": "608060405234801561000f575f80fd5b505f6040518061012001604052806040518060400160405280600881526020017f546872696c6c657200000000000000000000000000000000000000000000000081525081526020016040518060400160405280600d81526020017f4261636b20696e20426c61636b0000000000000000000000000000000000000081525081526020016040518060400160405280600d81526020017f54686520426f647967756172640000000000000000000000000000000000000081525081526020016040518060400160405280601981526020017f546865204461726b2053696465206f6620746865204d6f6f6e0000000000000081525081526020016040518060400160405280601f81526020017f546865697220477265617465737420486974732028313937312d31393735290081525081526020016040518060400160405280601081526020017f486f74656c2043616c69666f726e69610000000000000000000000000000000081525081526020016040518060400160405280600c81526020017f436f6d65204f6e204f766572000000000000000000000000000000000000000081525081526020016040518060400160405280600781526020017f52756d6f7572730000000000000000000000000000000000000000000000000081525081526020016040518060400160405280601481526020017f5361747572646179204e6967687420466576657200000000000000000000000081525081525090505f5b60098110156102dd5760015f838360098110610251576102506102e4565b5b60200201516040516102639190610363565b90815260200160405180910390205f6101000a81548160ff021916908315150217905550600182826009811061029c5761029b6102e4565b5b6020020151908060018154018082558091505060019003905f5260205f20015f9091909190915090816102cf91906105a9565b508080600101915050610232565b5050610678565b7f4e487b71000000000000000000000000000000000000000000000000000000005f52603260045260245ffd5b5f81519050919050565b5f81905092915050565b8281835e5f83830152505050565b5f61033d82610311565b610347818561031b565b9350610357818560208601610325565b80840191505092915050565b5f61036e8284610333565b915081905092915050565b7f4e487b71000000000000000000000000000000000000000000000000000000005f52604160045260245ffd5b7f4e487b71000000000000000000000000000000000000000000000000000000005f52602260045260245ffd5b5f60028204905060018216806103ea57607f821691505b6020821081036103fd576103fc6103a6565b5b50919050565b5f819050815f5260205f209050919050565b5f6020601f8301049050919050565b5f82821b905092915050565b5f6008830261045f7fffffffffffffffffffffffffffffffffffffffffffffffffffffffffffffffff82610424565b6104698683610424565b95508019841693508086168417925050509392505050565b5f819050919050565b5f819050919050565b5f6104ad6104a86104a384610481565b61048a565b610481565b9050919050565b5f819050919050565b6104c683610493565b6104da6104d2826104b4565b848454610430565b825550505050565b5f90565b6104ee6104e2565b6104f98184846104bd565b505050565b5b8181101561051c576105115f826104e6565b6001810190506104ff565b5050565b601f8211156105615761053281610403565b61053b84610415565b8101602085101561054a578190505b61055e61055685610415565b8301826104fe565b50505b505050565b5f82821c905092915050565b5f6105815f1984600802610566565b1980831691505092915050565b5f6105998383610572565b9150826002028217905092915050565b6105b282610311565b67ffffffffffffffff8111156105cb576105ca610379565b5b6105d582546103d3565b6105e0828285610520565b5f60209050601f831160018114610611575f84156105ff578287015190505b610609858261058e565b865550610670565b601f19841661061f86610403565b5f5b8281101561064657848901518255600182019150602085019450602081019050610621565b86831015610663578489015161065f601f891682610572565b8355505b6001600288020188555050505b505050505050565b610fd7806106855f395ff3fe608060405234801561000f575f80fd5b5060043610610060575f3560e01c80631cf0830b14610064578063325e630614610082578063837f8878146100b2578063b374ac59146100bc578063c7853148146100ec578063d81aa8c41461011c575b5f80fd5b61006c610138565b60405161007991906108a3565b60405180910390f35b61009c60048036038101906100979190610907565b61020c565b6040516100a9919061097a565b60405180910390f35b6100ba6102b2565b005b6100d660048036038101906100d19190610ac6565b6103e3565b6040516100e39190610b27565b60405180910390f35b61010660048036038101906101019190610b9a565b610417565b60405161011391906108a3565b60405180910390f35b61013660048036038101906101319190610ac6565b610528565b005b60606001805480602002602001604051908101604052809291908181526020015f905b82821015610203578382905f5260205f2001805461017890610bf2565b80601f01602080910402602001604051908101604052809291908181526020018280546101a490610bf2565b80156101ef5780601f106101c6576101008083540402835291602001916101ef565b820191905f5260205f20905b8154815290600101906020018083116101d257829003601f168201915b50505050508152602001906001019061015b565b50505050905090565b6001818154811061021b575f80fd5b905f5260205f20015f91509050805461023390610bf2565b80601f016020809104026020016040519081016040528092919081815260200182805461025f90610bf2565b80156102aa5780601f10610281576101008083540402835291602001916102aa565b820191905f5260205f20905b81548152906001019060200180831161028d57829003601f168201915b505050505081565b5f60035f3373ffffffffffffffffffffffffffffffffffffffff1673ffffffffffffffffffffffffffffffffffffffff1681526020019081526020015f2090505f5b8180549050811015610397575f60025f3373ffffffffffffffffffffffffffffffffffffffff1673ffffffffffffffffffffffffffffffffffffffff1681526020019081526020015f2083838154811061035157610350610c22565b5b905f5260205f20016040516103669190610ceb565b90815260200160405180910390205f6101000a81548160ff02191690831515021790555080806001019150506102f4565b5060035f3373ffffffffffffffffffffffffffffffffffffffff1673ffffffffffffffffffffffffffffffffffffffff1681526020019081526020015f205f6103e091906106df565b50565b5f818051602081018201805184825260208301602085012081835280955050505050505f915054906101000a900460ff1681565b606060035f8373ffffffffffffffffffffffffffffffffffffffff1673ffffffffffffffffffffffffffffffffffffffff1681526020019081526020015f20805480602002602001604051908101604052809291908181526020015f905b8282101561051d578382905f5260205f2001805461049290610bf2565b80601f01602080910402602001604051908101604052809291908181526020018280546104be90610bf2565b80156105095780601f106104e057610100808354040283529160200191610509565b820191905f5260205f20905b8154815290600101906020018083116104ec57829003601f168201915b505050505081526020019060010190610475565b505050509050919050565b5f816040516105379190610d31565b90815260200160405180910390205f9054906101000a900460ff1661059357806040517f4f0ffc1b00000000000000000000000000000000000000000000000000000000815260040161058a919061097a565b60405180910390fd5b60025f3373ffffffffffffffffffffffffffffffffffffffff1673ffffffffffffffffffffffffffffffffffffffff1681526020019081526020015f20816040516105de9190610d31565b90815260200160405180910390205f9054906101000a900460ff166106dc57600160025f3373ffffffffffffffffffffffffffffffffffffffff1673ffffffffffffffffffffffffffffffffffffffff1681526020019081526020015f208260405161064a9190610d31565b90815260200160405180910390205f6101000a81548160ff02191690831515021790555060035f3373ffffffffffffffffffffffffffffffffffffffff1673ffffffffffffffffffffffffffffffffffffffff1681526020019081526020015f2081908060018154018082558091505060019003905f5260205f20015f9091909190915090816106da9190610ed2565b505b50565b5080545f8255905f5260205f20908101906106fa91906106fd565b50565b5b8082111561071c575f81816107139190610720565b506001016106fe565b5090565b50805461072c90610bf2565b5f825580601f1061073d575061075a565b601f0160209004905f5260205f2090810190610759919061075d565b5b50565b5b80821115610774575f815f90555060010161075e565b5090565b5f81519050919050565b5f82825260208201905092915050565b5f819050602082019050919050565b5f81519050919050565b5f82825260208201905092915050565b8281835e5f83830152505050565b5f601f19601f8301169050919050565b5f6107e3826107a1565b6107ed81856107ab565b93506107fd8185602086016107bb565b610806816107c9565b840191505092915050565b5f61081c83836107d9565b905092915050565b5f602082019050919050565b5f61083a82610778565b6108448185610782565b93508360208202850161085685610792565b805f5b8581101561089157848403895281516108728582610811565b945061087d83610824565b925060208a01995050600181019050610859565b50829750879550505050505092915050565b5f6020820190508181035f8301526108bb8184610830565b905092915050565b5f604051905090565b5f80fd5b5f80fd5b5f819050919050565b6108e6816108d4565b81146108f0575f80fd5b50565b5f81359050610901816108dd565b92915050565b5f6020828403121561091c5761091b6108cc565b5b5f610929848285016108f3565b91505092915050565b5f82825260208201905092915050565b5f61094c826107a1565b6109568185610932565b93506109668185602086016107bb565b61096f816107c9565b840191505092915050565b5f6020820190508181035f8301526109928184610942565b905092915050565b5f80fd5b5f80fd5b7f4e487b71000000000000000000000000000000000000000000000000000000005f52604160045260245ffd5b6109d8826107c9565b810181811067ffffffffffffffff821117156109f7576109f66109a2565b5b80604052505050565b5f610a096108c3565b9050610a1582826109cf565b919050565b5f67ffffffffffffffff821115610a3457610a336109a2565b5b610a3d826107c9565b9050602081019050919050565b828183375f83830152505050565b5f610a6a610a6584610a1a565b610a00565b905082815260208101848484011115610a8657610a8561099e565b5b610a91848285610a4a565b509392505050565b5f82601f830112610aad57610aac61099a565b5b8135610abd848260208601610a58565b91505092915050565b5f60208284031215610adb57610ada6108cc565b5b5f82013567ffffffffffffffff811115610af857610af76108d0565b5b610b0484828501610a99565b91505092915050565b5f8115159050919050565b610b2181610b0d565b82525050565b5f602082019050610b3a5f830184610b18565b92915050565b5f73ffffffffffffffffffffffffffffffffffffffff82169050919050565b5f610b6982610b40565b9050919050565b610b7981610b5f565b8114610b83575f80fd5b50565b5f81359050610b9481610b70565b92915050565b5f60208284031215610baf57610bae6108cc565b5b5f610bbc84828501610b86565b91505092915050565b7f4e487b71000000000000000000000000000000000000000000000000000000005f52602260045260245ffd5b5f6002820490506001821680610c0957607f821691505b602082108103610c1c57610c1b610bc5565b5b50919050565b7f4e487b71000000000000000000000000000000000000000000000000000000005f52603260045260245ffd5b5f81905092915050565b5f819050815f5260205f209050919050565b5f8154610c7781610bf2565b610c818186610c4f565b9450600182165f8114610c9b5760018114610cb057610ce2565b60ff1983168652811515820286019350610ce2565b610cb985610c59565b5f5b83811015610cda57815481890152600182019150602081019050610cbb565b838801955050505b50505092915050565b5f610cf68284610c6b565b915081905092915050565b5f610d0b826107a1565b610d158185610c4f565b9350610d258185602086016107bb565b80840191505092915050565b5f610d3c8284610d01565b915081905092915050565b5f6020601f8301049050919050565b5f82821b905092915050565b5f60088302610d917fffffffffffffffffffffffffffffffffffffffffffffffffffffffffffffffff82610d56565b610d9b8683610d56565b95508019841693508086168417925050509392505050565b5f819050919050565b5f610dd6610dd1610dcc846108d4565b610db3565b6108d4565b9050919050565b5f819050919050565b610def83610dbc565b610e03610dfb82610ddd565b848454610d62565b825550505050565b5f90565b610e17610e0b565b610e22818484610de6565b505050565b5b81811015610e4557610e3a5f82610e0f565b600181019050610e28565b5050565b601f821115610e8a57610e5b81610c59565b610e6484610d47565b81016020851015610e73578190505b610e87610e7f85610d47565b830182610e27565b50505b505050565b5f82821c905092915050565b5f610eaa5f1984600802610e8f565b1980831691505092915050565b5f610ec28383610e9b565b9150826002028217905092915050565b610edb826107a1565b67ffffffffffffffff811115610ef457610ef36109a2565b5b610efe8254610bf2565b610f09828285610e49565b5f60209050601f831160018114610f3a575f8415610f28578287015190505b610f328582610eb7565b865550610f99565b601f198416610f4886610c59565b5f5b82811015610f6f57848901518255600182019150602085019450602081019050610f4a565b86831015610f8c5784890151610f88601f891682610e9b565b8355505b6001600288020188555050505b50505050505056fea264697066735822122021ea38835e59b8c854340fa824e656b8626ae2c334a096c7b7f7d977ebec737b64736f6c634300081a0033",
					"opcodes": "PUSH1 0x80 PUSH1 0x40 MSTORE CALLVALUE DUP1 ISZERO PUSH2 0xF JUMPI PUSH0 DUP1 REVERT JUMPDEST POP PUSH0 PUSH1 0x40 MLOAD DUP1 PUSH2 0x120 ADD PUSH1 0x40 MSTORE DUP1 PUSH1 0x40 MLOAD DUP1 PUSH1 0x40 ADD PUSH1 0x40 MSTORE DUP1 PUSH1 0x8 DUP2 MSTORE PUSH1 0x20 ADD PUSH32 0x546872696C6C6572000000000000000000000000000000000000000000000000 DUP2 MSTORE POP DUP2 MSTORE PUSH1 0x20 ADD PUSH1 0x40 MLOAD DUP1 PUSH1 0x40 ADD PUSH1 0x40 MSTORE DUP1 PUSH1 0xD DUP2 MSTORE PUSH1 0x20 ADD PUSH32 0x4261636B20696E20426C61636B00000000000000000000000000000000000000 DUP2 MSTORE POP DUP2 MSTORE PUSH1 0x20 ADD PUSH1 0x40 MLOAD DUP1 PUSH1 0x40 ADD PUSH1 0x40 MSTORE DUP1 PUSH1 0xD DUP2 MSTORE PUSH1 0x20 ADD PUSH32 0x54686520426F6479677561726400000000000000000000000000000000000000 DUP2 MSTORE POP DUP2 MSTORE PUSH1 0x20 ADD PUSH1 0x40 MLOAD DUP1 PUSH1 0x40 ADD PUSH1 0x40 MSTORE DUP1 PUSH1 0x19 DUP2 MSTORE PUSH1 0x20 ADD PUSH32 0x546865204461726B2053696465206F6620746865204D6F6F6E00000000000000 DUP2 MSTORE POP DUP2 MSTORE PUSH1 0x20 ADD PUSH1 0x40 MLOAD DUP1 PUSH1 0x40 ADD PUSH1 0x40 MSTORE DUP1 PUSH1 0x1F DUP2 MSTORE PUSH1 0x20 ADD PUSH32 0x546865697220477265617465737420486974732028313937312D313937352900 DUP2 MSTORE POP DUP2 MSTORE PUSH1 0x20 ADD PUSH1 0x40 MLOAD DUP1 PUSH1 0x40 ADD PUSH1 0x40 MSTORE DUP1 PUSH1 0x10 DUP2 MSTORE PUSH1 0x20 ADD PUSH32 0x486F74656C2043616C69666F726E696100000000000000000000000000000000 DUP2 MSTORE POP DUP2 MSTORE PUSH1 0x20 ADD PUSH1 0x40 MLOAD DUP1 PUSH1 0x40 ADD PUSH1 0x40 MSTORE DUP1 PUSH1 0xC DUP2 MSTORE PUSH1 0x20 ADD PUSH32 0x436F6D65204F6E204F7665720000000000000000000000000000000000000000 DUP2 MSTORE POP DUP2 MSTORE PUSH1 0x20 ADD PUSH1 0x40 MLOAD DUP1 PUSH1 0x40 ADD PUSH1 0x40 MSTORE DUP1 PUSH1 0x7 DUP2 MSTORE PUSH1 0x20 ADD PUSH32 0x52756D6F75727300000000000000000000000000000000000000000000000000 DUP2 MSTORE POP DUP2 MSTORE PUSH1 0x20 ADD PUSH1 0x40 MLOAD DUP1 PUSH1 0x40 ADD PUSH1 0x40 MSTORE DUP1 PUSH1 0x14 DUP2 MSTORE PUSH1 0x20 ADD PUSH32 0x5361747572646179204E69676874204665766572000000000000000000000000 DUP2 MSTORE POP DUP2 MSTORE POP SWAP1 POP PUSH0 JUMPDEST PUSH1 0x9 DUP2 LT ISZERO PUSH2 0x2DD JUMPI PUSH1 0x1 PUSH0 DUP4 DUP4 PUSH1 0x9 DUP2 LT PUSH2 0x251 JUMPI PUSH2 0x250 PUSH2 0x2E4 JUMP JUMPDEST JUMPDEST PUSH1 0x20 MUL ADD MLOAD PUSH1 0x40 MLOAD PUSH2 0x263 SWAP2 SWAP1 PUSH2 0x363 JUMP JUMPDEST SWAP1 DUP2 MSTORE PUSH1 0x20 ADD PUSH1 0x40 MLOAD DUP1 SWAP2 SUB SWAP1 KECCAK256 PUSH0 PUSH2 0x100 EXP DUP2 SLOAD DUP2 PUSH1 0xFF MUL NOT AND SWAP1 DUP4 ISZERO ISZERO MUL OR SWAP1 SSTORE POP PUSH1 0x1 DUP3 DUP3 PUSH1 0x9 DUP2 LT PUSH2 0x29C JUMPI PUSH2 0x29B PUSH2 0x2E4 JUMP JUMPDEST JUMPDEST PUSH1 0x20 MUL ADD MLOAD SWAP1 DUP1 PUSH1 0x1 DUP2 SLOAD ADD DUP1 DUP3 SSTORE DUP1 SWAP2 POP POP PUSH1 0x1 SWAP1 SUB SWAP1 PUSH0 MSTORE PUSH1 0x20 PUSH0 KECCAK256 ADD PUSH0 SWAP1 SWAP2 SWAP1 SWAP2 SWAP1 SWAP2 POP SWAP1 DUP2 PUSH2 0x2CF SWAP2 SWAP1 PUSH2 0x5A9 JUMP JUMPDEST POP DUP1 DUP1 PUSH1 0x1 ADD SWAP2 POP POP PUSH2 0x232 JUMP JUMPDEST POP POP PUSH2 0x678 JUMP JUMPDEST PUSH32 0x4E487B7100000000000000000000000000000000000000000000000000000000 PUSH0 MSTORE PUSH1 0x32 PUSH1 0x4 MSTORE PUSH1 0x24 PUSH0 REVERT JUMPDEST PUSH0 DUP2 MLOAD SWAP1 POP SWAP2 SWAP1 POP JUMP JUMPDEST PUSH0 DUP2 SWAP1 POP SWAP3 SWAP2 POP POP JUMP JUMPDEST DUP3 DUP2 DUP4 MCOPY PUSH0 DUP4 DUP4 ADD MSTORE POP POP POP JUMP JUMPDEST PUSH0 PUSH2 0x33D DUP3 PUSH2 0x311 JUMP JUMPDEST PUSH2 0x347 DUP2 DUP6 PUSH2 0x31B JUMP JUMPDEST SWAP4 POP PUSH2 0x357 DUP2 DUP6 PUSH1 0x20 DUP7 ADD PUSH2 0x325 JUMP JUMPDEST DUP1 DUP5 ADD SWAP2 POP POP SWAP3 SWAP2 POP POP JUMP JUMPDEST PUSH0 PUSH2 0x36E DUP3 DUP5 PUSH2 0x333 JUMP JUMPDEST SWAP2 POP DUP2 SWAP1 POP SWAP3 SWAP2 POP POP JUMP JUMPDEST PUSH32 0x4E487B7100000000000000000000000000000000000000000000000000000000 PUSH0 MSTORE PUSH1 0x41 PUSH1 0x4 MSTORE PUSH1 0x24 PUSH0 REVERT JUMPDEST PUSH32 0x4E487B7100000000000000000000000000000000000000000000000000000000 PUSH0 MSTORE PUSH1 0x22 PUSH1 0x4 MSTORE PUSH1 0x24 PUSH0 REVERT JUMPDEST PUSH0 PUSH1 0x2 DUP3 DIV SWAP1 POP PUSH1 0x1 DUP3 AND DUP1 PUSH2 0x3EA JUMPI PUSH1 0x7F DUP3 AND SWAP2 POP JUMPDEST PUSH1 0x20 DUP3 LT DUP2 SUB PUSH2 0x3FD JUMPI PUSH2 0x3FC PUSH2 0x3A6 JUMP JUMPDEST JUMPDEST POP SWAP2 SWAP1 POP JUMP JUMPDEST PUSH0 DUP2 SWAP1 POP DUP2 PUSH0 MSTORE PUSH1 0x20 PUSH0 KECCAK256 SWAP1 POP SWAP2 SWAP1 POP JUMP JUMPDEST PUSH0 PUSH1 0x20 PUSH1 0x1F DUP4 ADD DIV SWAP1 POP SWAP2 SWAP1 POP JUMP JUMPDEST PUSH0 DUP3 DUP3 SHL SWAP1 POP SWAP3 SWAP2 POP POP JUMP JUMPDEST PUSH0 PUSH1 0x8 DUP4 MUL PUSH2 0x45F PUSH32 0xFFFFFFFFFFFFFFFFFFFFFFFFFFFFFFFFFFFFFFFFFFFFFFFFFFFFFFFFFFFFFFFF DUP3 PUSH2 0x424 JUMP JUMPDEST PUSH2 0x469 DUP7 DUP4 PUSH2 0x424 JUMP JUMPDEST SWAP6 POP DUP1 NOT DUP5 AND SWAP4 POP DUP1 DUP7 AND DUP5 OR SWAP3 POP POP POP SWAP4 SWAP3 POP POP POP JUMP JUMPDEST PUSH0 DUP2 SWAP1 POP SWAP2 SWAP1 POP JUMP JUMPDEST PUSH0 DUP2 SWAP1 POP SWAP2 SWAP1 POP JUMP JUMPDEST PUSH0 PUSH2 0x4AD PUSH2 0x4A8 PUSH2 0x4A3 DUP5 PUSH2 0x481 JUMP JUMPDEST PUSH2 0x48A JUMP JUMPDEST PUSH2 0x481 JUMP JUMPDEST SWAP1 POP SWAP2 SWAP1 POP JUMP JUMPDEST PUSH0 DUP2 SWAP1 POP SWAP2 SWAP1 POP JUMP JUMPDEST PUSH2 0x4C6 DUP4 PUSH2 0x493 JUMP JUMPDEST PUSH2 0x4DA PUSH2 0x4D2 DUP3 PUSH2 0x4B4 JUMP JUMPDEST DUP5 DUP5 SLOAD PUSH2 0x430 JUMP JUMPDEST DUP3 SSTORE POP POP POP POP JUMP JUMPDEST PUSH0 SWAP1 JUMP JUMPDEST PUSH2 0x4EE PUSH2 0x4E2 JUMP JUMPDEST PUSH2 0x4F9 DUP2 DUP5 DUP5 PUSH2 0x4BD JUMP JUMPDEST POP POP POP JUMP JUMPDEST JUMPDEST DUP2 DUP2 LT ISZERO PUSH2 0x51C JUMPI PUSH2 0x511 PUSH0 DUP3 PUSH2 0x4E6 JUMP JUMPDEST PUSH1 0x1 DUP2 ADD SWAP1 POP PUSH2 0x4FF JUMP JUMPDEST POP POP JUMP JUMPDEST PUSH1 0x1F DUP3 GT ISZERO PUSH2 0x561 JUMPI PUSH2 0x532 DUP2 PUSH2 0x403 JUMP JUMPDEST PUSH2 0x53B DUP5 PUSH2 0x415 JUMP JUMPDEST DUP2 ADD PUSH1 0x20 DUP6 LT ISZERO PUSH2 0x54A JUMPI DUP2 SWAP1 POP JUMPDEST PUSH2 0x55E PUSH2 0x556 DUP6 PUSH2 0x415 JUMP JUMPDEST DUP4 ADD DUP3 PUSH2 0x4FE JUMP JUMPDEST POP POP JUMPDEST POP POP POP JUMP JUMPDEST PUSH0 DUP3 DUP3 SHR SWAP1 POP SWAP3 SWAP2 POP POP JUMP JUMPDEST PUSH0 PUSH2 0x581 PUSH0 NOT DUP5 PUSH1 0x8 MUL PUSH2 0x566 JUMP JUMPDEST NOT DUP1 DUP4 AND SWAP2 POP POP SWAP3 SWAP2 POP POP JUMP JUMPDEST PUSH0 PUSH2 0x599 DUP4 DUP4 PUSH2 0x572 JUMP JUMPDEST SWAP2 POP DUP3 PUSH1 0x2 MUL DUP3 OR SWAP1 POP SWAP3 SWAP2 POP POP JUMP JUMPDEST PUSH2 0x5B2 DUP3 PUSH2 0x311 JUMP JUMPDEST PUSH8 0xFFFFFFFFFFFFFFFF DUP2 GT ISZERO PUSH2 0x5CB JUMPI PUSH2 0x5CA PUSH2 0x379 JUMP JUMPDEST JUMPDEST PUSH2 0x5D5 DUP3 SLOAD PUSH2 0x3D3 JUMP JUMPDEST PUSH2 0x5E0 DUP3 DUP3 DUP6 PUSH2 0x520 JUMP JUMPDEST PUSH0 PUSH1 0x20 SWAP1 POP PUSH1 0x1F DUP4 GT PUSH1 0x1 DUP2 EQ PUSH2 0x611 JUMPI PUSH0 DUP5 ISZERO PUSH2 0x5FF JUMPI DUP3 DUP8 ADD MLOAD SWAP1 POP JUMPDEST PUSH2 0x609 DUP6 DUP3 PUSH2 0x58E JUMP JUMPDEST DUP7 SSTORE POP PUSH2 0x670 JUMP JUMPDEST PUSH1 0x1F NOT DUP5 AND PUSH2 0x61F DUP7 PUSH2 0x403 JUMP JUMPDEST PUSH0 JUMPDEST DUP3 DUP2 LT ISZERO PUSH2 0x646 JUMPI DUP5 DUP10 ADD MLOAD DUP3 SSTORE PUSH1 0x1 DUP3 ADD SWAP2 POP PUSH1 0x20 DUP6 ADD SWAP5 POP PUSH1 0x20 DUP2 ADD SWAP1 POP PUSH2 0x621 JUMP JUMPDEST DUP7 DUP4 LT ISZERO PUSH2 0x663 JUMPI DUP5 DUP10 ADD MLOAD PUSH2 0x65F PUSH1 0x1F DUP10 AND DUP3 PUSH2 0x572 JUMP JUMPDEST DUP4 SSTORE POP JUMPDEST PUSH1 0x1 PUSH1 0x2 DUP9 MUL ADD DUP9 SSTORE POP POP POP JUMPDEST POP POP POP POP POP POP JUMP JUMPDEST PUSH2 0xFD7 DUP1 PUSH2 0x685 PUSH0 CODECOPY PUSH0 RETURN INVALID PUSH1 0x80 PUSH1 0x40 MSTORE CALLVALUE DUP1 ISZERO PUSH2 0xF JUMPI PUSH0 DUP1 REVERT JUMPDEST POP PUSH1 0x4 CALLDATASIZE LT PUSH2 0x60 JUMPI PUSH0 CALLDATALOAD PUSH1 0xE0 SHR DUP1 PUSH4 0x1CF0830B EQ PUSH2 0x64 JUMPI DUP1 PUSH4 0x325E6306 EQ PUSH2 0x82 JUMPI DUP1 PUSH4 0x837F8878 EQ PUSH2 0xB2 JUMPI DUP1 PUSH4 0xB374AC59 EQ PUSH2 0xBC JUMPI DUP1 PUSH4 0xC7853148 EQ PUSH2 0xEC JUMPI DUP1 PUSH4 0xD81AA8C4 EQ PUSH2 0x11C JUMPI JUMPDEST PUSH0 DUP1 REVERT JUMPDEST PUSH2 0x6C PUSH2 0x138 JUMP JUMPDEST PUSH1 0x40 MLOAD PUSH2 0x79 SWAP2 SWAP1 PUSH2 0x8A3 JUMP JUMPDEST PUSH1 0x40 MLOAD DUP1 SWAP2 SUB SWAP1 RETURN JUMPDEST PUSH2 0x9C PUSH1 0x4 DUP1 CALLDATASIZE SUB DUP2 ADD SWAP1 PUSH2 0x97 SWAP2 SWAP1 PUSH2 0x907 JUMP JUMPDEST PUSH2 0x20C JUMP JUMPDEST PUSH1 0x40 MLOAD PUSH2 0xA9 SWAP2 SWAP1 PUSH2 0x97A JUMP JUMPDEST PUSH1 0x40 MLOAD DUP1 SWAP2 SUB SWAP1 RETURN JUMPDEST PUSH2 0xBA PUSH2 0x2B2 JUMP JUMPDEST STOP JUMPDEST PUSH2 0xD6 PUSH1 0x4 DUP1 CALLDATASIZE SUB DUP2 ADD SWAP1 PUSH2 0xD1 SWAP2 SWAP1 PUSH2 0xAC6 JUMP JUMPDEST PUSH2 0x3E3 JUMP JUMPDEST PUSH1 0x40 MLOAD PUSH2 0xE3 SWAP2 SWAP1 PUSH2 0xB27 JUMP JUMPDEST PUSH1 0x40 MLOAD DUP1 SWAP2 SUB SWAP1 RETURN JUMPDEST PUSH2 0x106 PUSH1 0x4 DUP1 CALLDATASIZE SUB DUP2 ADD SWAP1 PUSH2 0x101 SWAP2 SWAP1 PUSH2 0xB9A JUMP JUMPDEST PUSH2 0x417 JUMP JUMPDEST PUSH1 0x40 MLOAD PUSH2 0x113 SWAP2 SWAP1 PUSH2 0x8A3 JUMP JUMPDEST PUSH1 0x40 MLOAD DUP1 SWAP2 SUB SWAP1 RETURN JUMPDEST PUSH2 0x136 PUSH1 0x4 DUP1 CALLDATASIZE SUB DUP2 ADD SWAP1 PUSH2 0x131 SWAP2 SWAP1 PUSH2 0xAC6 JUMP JUMPDEST PUSH2 0x528 JUMP JUMPDEST STOP JUMPDEST PUSH1 0x60 PUSH1 0x1 DUP1 SLOAD DUP1 PUSH1 0x20 MUL PUSH1 0x20 ADD PUSH1 0x40 MLOAD SWAP1 DUP2 ADD PUSH1 0x40 MSTORE DUP1 SWAP3 SWAP2 SWAP1 DUP2 DUP2 MSTORE PUSH1 0x20 ADD PUSH0 SWAP1 JUMPDEST DUP3 DUP3 LT ISZERO PUSH2 0x203 JUMPI DUP4 DUP3 SWAP1 PUSH0 MSTORE PUSH1 0x20 PUSH0 KECCAK256 ADD DUP1 SLOAD PUSH2 0x178 SWAP1 PUSH2 0xBF2 JUMP JUMPDEST DUP1 PUSH1 0x1F ADD PUSH1 0x20 DUP1 SWAP2 DIV MUL PUSH1 0x20 ADD PUSH1 0x40 MLOAD SWAP1 DUP2 ADD PUSH1 0x40 MSTORE DUP1 SWAP3 SWAP2 SWAP1 DUP2 DUP2 MSTORE PUSH1 0x20 ADD DUP3 DUP1 SLOAD PUSH2 0x1A4 SWAP1 PUSH2 0xBF2 JUMP JUMPDEST DUP1 ISZERO PUSH2 0x1EF JUMPI DUP1 PUSH1 0x1F LT PUSH2 0x1C6 JUMPI PUSH2 0x100 DUP1 DUP4 SLOAD DIV MUL DUP4 MSTORE SWAP2 PUSH1 0x20 ADD SWAP2 PUSH2 0x1EF JUMP JUMPDEST DUP3 ADD SWAP2 SWAP1 PUSH0 MSTORE PUSH1 0x20 PUSH0 KECCAK256 SWAP1 JUMPDEST DUP2 SLOAD DUP2 MSTORE SWAP1 PUSH1 0x1 ADD SWAP1 PUSH1 0x20 ADD DUP1 DUP4 GT PUSH2 0x1D2 JUMPI DUP3 SWAP1 SUB PUSH1 0x1F AND DUP3 ADD SWAP2 JUMPDEST POP POP POP POP POP DUP2 MSTORE PUSH1 0x20 ADD SWAP1 PUSH1 0x1 ADD SWAP1 PUSH2 0x15B JUMP JUMPDEST POP POP POP POP SWAP1 POP SWAP1 JUMP JUMPDEST PUSH1 0x1 DUP2 DUP2 SLOAD DUP2 LT PUSH2 0x21B JUMPI PUSH0 DUP1 REVERT JUMPDEST SWAP1 PUSH0 MSTORE PUSH1 0x20 PUSH0 KECCAK256 ADD PUSH0 SWAP2 POP SWAP1 POP DUP1 SLOAD PUSH2 0x233 SWAP1 PUSH2 0xBF2 JUMP JUMPDEST DUP1 PUSH1 0x1F ADD PUSH1 0x20 DUP1 SWAP2 DIV MUL PUSH1 0x20 ADD PUSH1 0x40 MLOAD SWAP1 DUP2 ADD PUSH1 0x40 MSTORE DUP1 SWAP3 SWAP2 SWAP1 DUP2 DUP2 MSTORE PUSH1 0x20 ADD DUP3 DUP1 SLOAD PUSH2 0x25F SWAP1 PUSH2 0xBF2 JUMP JUMPDEST DUP1 ISZERO PUSH2 0x2AA JUMPI DUP1 PUSH1 0x1F LT PUSH2 0x281 JUMPI PUSH2 0x100 DUP1 DUP4 SLOAD DIV MUL DUP4 MSTORE SWAP2 PUSH1 0x20 ADD SWAP2 PUSH2 0x2AA JUMP JUMPDEST DUP3 ADD SWAP2 SWAP1 PUSH0 MSTORE PUSH1 0x20 PUSH0 KECCAK256 SWAP1 JUMPDEST DUP2 SLOAD DUP2 MSTORE SWAP1 PUSH1 0x1 ADD SWAP1 PUSH1 0x20 ADD DUP1 DUP4 GT PUSH2 0x28D JUMPI DUP3 SWAP1 SUB PUSH1 0x1F AND DUP3 ADD SWAP2 JUMPDEST POP POP POP POP POP DUP2 JUMP JUMPDEST PUSH0 PUSH1 0x3 PUSH0 CALLER PUSH20 0xFFFFFFFFFFFFFFFFFFFFFFFFFFFFFFFFFFFFFFFF AND PUSH20 0xFFFFFFFFFFFFFFFFFFFFFFFFFFFFFFFFFFFFFFFF AND DUP2 MSTORE PUSH1 0x20 ADD SWAP1 DUP2 MSTORE PUSH1 0x20 ADD PUSH0 KECCAK256 SWAP1 POP PUSH0 JUMPDEST DUP2 DUP1 SLOAD SWAP1 POP DUP2 LT ISZERO PUSH2 0x397 JUMPI PUSH0 PUSH1 0x2 PUSH0 CALLER PUSH20 0xFFFFFFFFFFFFFFFFFFFFFFFFFFFFFFFFFFFFFFFF AND PUSH20 0xFFFFFFFFFFFFFFFFFFFFFFFFFFFFFFFFFFFFFFFF AND DUP2 MSTORE PUSH1 0x20 ADD SWAP1 DUP2 MSTORE PUSH1 0x20 ADD PUSH0 KECCAK256 DUP4 DUP4 DUP2 SLOAD DUP2 LT PUSH2 0x351 JUMPI PUSH2 0x350 PUSH2 0xC22 JUMP JUMPDEST JUMPDEST SWAP1 PUSH0 MSTORE PUSH1 0x20 PUSH0 KECCAK256 ADD PUSH1 0x40 MLOAD PUSH2 0x366 SWAP2 SWAP1 PUSH2 0xCEB JUMP JUMPDEST SWAP1 DUP2 MSTORE PUSH1 0x20 ADD PUSH1 0x40 MLOAD DUP1 SWAP2 SUB SWAP1 KECCAK256 PUSH0 PUSH2 0x100 EXP DUP2 SLOAD DUP2 PUSH1 0xFF MUL NOT AND SWAP1 DUP4 ISZERO ISZERO MUL OR SWAP1 SSTORE POP DUP1 DUP1 PUSH1 0x1 ADD SWAP2 POP POP PUSH2 0x2F4 JUMP JUMPDEST POP PUSH1 0x3 PUSH0 CALLER PUSH20 0xFFFFFFFFFFFFFFFFFFFFFFFFFFFFFFFFFFFFFFFF AND PUSH20 0xFFFFFFFFFFFFFFFFFFFFFFFFFFFFFFFFFFFFFFFF AND DUP2 MSTORE PUSH1 0x20 ADD SWAP1 DUP2 MSTORE PUSH1 0x20 ADD PUSH0 KECCAK256 PUSH0 PUSH2 0x3E0 SWAP2 SWAP1 PUSH2 0x6DF JUMP JUMPDEST POP JUMP JUMPDEST PUSH0 DUP2 DUP1 MLOAD PUSH1 0x20 DUP2 ADD DUP3 ADD DUP1 MLOAD DUP5 DUP3 MSTORE PUSH1 0x20 DUP4 ADD PUSH1 0x20 DUP6 ADD KECCAK256 DUP2 DUP4 MSTORE DUP1 SWAP6 POP POP POP POP POP POP PUSH0 SWAP2 POP SLOAD SWAP1 PUSH2 0x100 EXP SWAP1 DIV PUSH1 0xFF AND DUP2 JUMP JUMPDEST PUSH1 0x60 PUSH1 0x3 PUSH0 DUP4 PUSH20 0xFFFFFFFFFFFFFFFFFFFFFFFFFFFFFFFFFFFFFFFF AND PUSH20 0xFFFFFFFFFFFFFFFFFFFFFFFFFFFFFFFFFFFFFFFF AND DUP2 MSTORE PUSH1 0x20 ADD SWAP1 DUP2 MSTORE PUSH1 0x20 ADD PUSH0 KECCAK256 DUP1 SLOAD DUP1 PUSH1 0x20 MUL PUSH1 0x20 ADD PUSH1 0x40 MLOAD SWAP1 DUP2 ADD PUSH1 0x40 MSTORE DUP1 SWAP3 SWAP2 SWAP1 DUP2 DUP2 MSTORE PUSH1 0x20 ADD PUSH0 SWAP1 JUMPDEST DUP3 DUP3 LT ISZERO PUSH2 0x51D JUMPI DUP4 DUP3 SWAP1 PUSH0 MSTORE PUSH1 0x20 PUSH0 KECCAK256 ADD DUP1 SLOAD PUSH2 0x492 SWAP1 PUSH2 0xBF2 JUMP JUMPDEST DUP1 PUSH1 0x1F ADD PUSH1 0x20 DUP1 SWAP2 DIV MUL PUSH1 0x20 ADD PUSH1 0x40 MLOAD SWAP1 DUP2 ADD PUSH1 0x40 MSTORE DUP1 SWAP3 SWAP2 SWAP1 DUP2 DUP2 MSTORE PUSH1 0x20 ADD DUP3 DUP1 SLOAD PUSH2 0x4BE SWAP1 PUSH2 0xBF2 JUMP JUMPDEST DUP1 ISZERO PUSH2 0x509 JUMPI DUP1 PUSH1 0x1F LT PUSH2 0x4E0 JUMPI PUSH2 0x100 DUP1 DUP4 SLOAD DIV MUL DUP4 MSTORE SWAP2 PUSH1 0x20 ADD SWAP2 PUSH2 0x509 JUMP JUMPDEST DUP3 ADD SWAP2 SWAP1 PUSH0 MSTORE PUSH1 0x20 PUSH0 KECCAK256 SWAP1 JUMPDEST DUP2 SLOAD DUP2 MSTORE SWAP1 PUSH1 0x1 ADD SWAP1 PUSH1 0x20 ADD DUP1 DUP4 GT PUSH2 0x4EC JUMPI DUP3 SWAP1 SUB PUSH1 0x1F AND DUP3 ADD SWAP2 JUMPDEST POP POP POP POP POP DUP2 MSTORE PUSH1 0x20 ADD SWAP1 PUSH1 0x1 ADD SWAP1 PUSH2 0x475 JUMP JUMPDEST POP POP POP POP SWAP1 POP SWAP2 SWAP1 POP JUMP JUMPDEST PUSH0 DUP2 PUSH1 0x40 MLOAD PUSH2 0x537 SWAP2 SWAP1 PUSH2 0xD31 JUMP JUMPDEST SWAP1 DUP2 MSTORE PUSH1 0x20 ADD PUSH1 0x40 MLOAD DUP1 SWAP2 SUB SWAP1 KECCAK256 PUSH0 SWAP1 SLOAD SWAP1 PUSH2 0x100 EXP SWAP1 DIV PUSH1 0xFF AND PUSH2 0x593 JUMPI DUP1 PUSH1 0x40 MLOAD PUSH32 0x4F0FFC1B00000000000000000000000000000000000000000000000000000000 DUP2 MSTORE PUSH1 0x4 ADD PUSH2 0x58A SWAP2 SWAP1 PUSH2 0x97A JUMP JUMPDEST PUSH1 0x40 MLOAD DUP1 SWAP2 SUB SWAP1 REVERT JUMPDEST PUSH1 0x2 PUSH0 CALLER PUSH20 0xFFFFFFFFFFFFFFFFFFFFFFFFFFFFFFFFFFFFFFFF AND PUSH20 0xFFFFFFFFFFFFFFFFFFFFFFFFFFFFFFFFFFFFFFFF AND DUP2 MSTORE PUSH1 0x20 ADD SWAP1 DUP2 MSTORE PUSH1 0x20 ADD PUSH0 KECCAK256 DUP2 PUSH1 0x40 MLOAD PUSH2 0x5DE SWAP2 SWAP1 PUSH2 0xD31 JUMP JUMPDEST SWAP1 DUP2 MSTORE PUSH1 0x20 ADD PUSH1 0x40 MLOAD DUP1 SWAP2 SUB SWAP1 KECCAK256 PUSH0 SWAP1 SLOAD SWAP1 PUSH2 0x100 EXP SWAP1 DIV PUSH1 0xFF AND PUSH2 0x6DC JUMPI PUSH1 0x1 PUSH1 0x2 PUSH0 CALLER PUSH20 0xFFFFFFFFFFFFFFFFFFFFFFFFFFFFFFFFFFFFFFFF AND PUSH20 0xFFFFFFFFFFFFFFFFFFFFFFFFFFFFFFFFFFFFFFFF AND DUP2 MSTORE PUSH1 0x20 ADD SWAP1 DUP2 MSTORE PUSH1 0x20 ADD PUSH0 KECCAK256 DUP3 PUSH1 0x40 MLOAD PUSH2 0x64A SWAP2 SWAP1 PUSH2 0xD31 JUMP JUMPDEST SWAP1 DUP2 MSTORE PUSH1 0x20 ADD PUSH1 0x40 MLOAD DUP1 SWAP2 SUB SWAP1 KECCAK256 PUSH0 PUSH2 0x100 EXP DUP2 SLOAD DUP2 PUSH1 0xFF MUL NOT AND SWAP1 DUP4 ISZERO ISZERO MUL OR SWAP1 SSTORE POP PUSH1 0x3 PUSH0 CALLER PUSH20 0xFFFFFFFFFFFFFFFFFFFFFFFFFFFFFFFFFFFFFFFF AND PUSH20 0xFFFFFFFFFFFFFFFFFFFFFFFFFFFFFFFFFFFFFFFF AND DUP2 MSTORE PUSH1 0x20 ADD SWAP1 DUP2 MSTORE PUSH1 0x20 ADD PUSH0 KECCAK256 DUP2 SWAP1 DUP1 PUSH1 0x1 DUP2 SLOAD ADD DUP1 DUP3 SSTORE DUP1 SWAP2 POP POP PUSH1 0x1 SWAP1 SUB SWAP1 PUSH0 MSTORE PUSH1 0x20 PUSH0 KECCAK256 ADD PUSH0 SWAP1 SWAP2 SWAP1 SWAP2 SWAP1 SWAP2 POP SWAP1 DUP2 PUSH2 0x6DA SWAP2 SWAP1 PUSH2 0xED2 JUMP JUMPDEST POP JUMPDEST POP JUMP JUMPDEST POP DUP1 SLOAD PUSH0 DUP3 SSTORE SWAP1 PUSH0 MSTORE PUSH1 0x20 PUSH0 KECCAK256 SWAP1 DUP2 ADD SWAP1 PUSH2 0x6FA SWAP2 SWAP1 PUSH2 0x6FD JUMP JUMPDEST POP JUMP JUMPDEST JUMPDEST DUP1 DUP3 GT ISZERO PUSH2 0x71C JUMPI PUSH0 DUP2 DUP2 PUSH2 0x713 SWAP2 SWAP1 PUSH2 0x720 JUMP JUMPDEST POP PUSH1 0x1 ADD PUSH2 0x6FE JUMP JUMPDEST POP SWAP1 JUMP JUMPDEST POP DUP1 SLOAD PUSH2 0x72C SWAP1 PUSH2 0xBF2 JUMP JUMPDEST PUSH0 DUP3 SSTORE DUP1 PUSH1 0x1F LT PUSH2 0x73D JUMPI POP PUSH2 0x75A JUMP JUMPDEST PUSH1 0x1F ADD PUSH1 0x20 SWAP1 DIV SWAP1 PUSH0 MSTORE PUSH1 0x20 PUSH0 KECCAK256 SWAP1 DUP2 ADD SWAP1 PUSH2 0x759 SWAP2 SWAP1 PUSH2 0x75D JUMP JUMPDEST JUMPDEST POP JUMP JUMPDEST JUMPDEST DUP1 DUP3 GT ISZERO PUSH2 0x774 JUMPI PUSH0 DUP2 PUSH0 SWAP1 SSTORE POP PUSH1 0x1 ADD PUSH2 0x75E JUMP JUMPDEST POP SWAP1 JUMP JUMPDEST PUSH0 DUP2 MLOAD SWAP1 POP SWAP2 SWAP1 POP JUMP JUMPDEST PUSH0 DUP3 DUP3 MSTORE PUSH1 0x20 DUP3 ADD SWAP1 POP SWAP3 SWAP2 POP POP JUMP JUMPDEST PUSH0 DUP2 SWAP1 POP PUSH1 0x20 DUP3 ADD SWAP1 POP SWAP2 SWAP1 POP JUMP JUMPDEST PUSH0 DUP2 MLOAD SWAP1 POP SWAP2 SWAP1 POP JUMP JUMPDEST PUSH0 DUP3 DUP3 MSTORE PUSH1 0x20 DUP3 ADD SWAP1 POP SWAP3 SWAP2 POP POP JUMP JUMPDEST DUP3 DUP2 DUP4 MCOPY PUSH0 DUP4 DUP4 ADD MSTORE POP POP POP JUMP JUMPDEST PUSH0 PUSH1 0x1F NOT PUSH1 0x1F DUP4 ADD AND SWAP1 POP SWAP2 SWAP1 POP JUMP JUMPDEST PUSH0 PUSH2 0x7E3 DUP3 PUSH2 0x7A1 JUMP JUMPDEST PUSH2 0x7ED DUP2 DUP6 PUSH2 0x7AB JUMP JUMPDEST SWAP4 POP PUSH2 0x7FD DUP2 DUP6 PUSH1 0x20 DUP7 ADD PUSH2 0x7BB JUMP JUMPDEST PUSH2 0x806 DUP2 PUSH2 0x7C9 JUMP JUMPDEST DUP5 ADD SWAP2 POP POP SWAP3 SWAP2 POP POP JUMP JUMPDEST PUSH0 PUSH2 0x81C DUP4 DUP4 PUSH2 0x7D9 JUMP JUMPDEST SWAP1 POP SWAP3 SWAP2 POP POP JUMP JUMPDEST PUSH0 PUSH1 0x20 DUP3 ADD SWAP1 POP SWAP2 SWAP1 POP JUMP JUMPDEST PUSH0 PUSH2 0x83A DUP3 PUSH2 0x778 JUMP JUMPDEST PUSH2 0x844 DUP2 DUP6 PUSH2 0x782 JUMP JUMPDEST SWAP4 POP DUP4 PUSH1 0x20 DUP3 MUL DUP6 ADD PUSH2 0x856 DUP6 PUSH2 0x792 JUMP JUMPDEST DUP1 PUSH0 JUMPDEST DUP6 DUP2 LT ISZERO PUSH2 0x891 JUMPI DUP5 DUP5 SUB DUP10 MSTORE DUP2 MLOAD PUSH2 0x872 DUP6 DUP3 PUSH2 0x811 JUMP JUMPDEST SWAP5 POP PUSH2 0x87D DUP4 PUSH2 0x824 JUMP JUMPDEST SWAP3 POP PUSH1 0x20 DUP11 ADD SWAP10 POP POP PUSH1 0x1 DUP2 ADD SWAP1 POP PUSH2 0x859 JUMP JUMPDEST POP DUP3 SWAP8 POP DUP8 SWAP6 POP POP POP POP POP POP SWAP3 SWAP2 POP POP JUMP JUMPDEST PUSH0 PUSH1 0x20 DUP3 ADD SWAP1 POP DUP2 DUP2 SUB PUSH0 DUP4 ADD MSTORE PUSH2 0x8BB DUP2 DUP5 PUSH2 0x830 JUMP JUMPDEST SWAP1 POP SWAP3 SWAP2 POP POP JUMP JUMPDEST PUSH0 PUSH1 0x40 MLOAD SWAP1 POP SWAP1 JUMP JUMPDEST PUSH0 DUP1 REVERT JUMPDEST PUSH0 DUP1 REVERT JUMPDEST PUSH0 DUP2 SWAP1 POP SWAP2 SWAP1 POP JUMP JUMPDEST PUSH2 0x8E6 DUP2 PUSH2 0x8D4 JUMP JUMPDEST DUP2 EQ PUSH2 0x8F0 JUMPI PUSH0 DUP1 REVERT JUMPDEST POP JUMP JUMPDEST PUSH0 DUP2 CALLDATALOAD SWAP1 POP PUSH2 0x901 DUP2 PUSH2 0x8DD JUMP JUMPDEST SWAP3 SWAP2 POP POP JUMP JUMPDEST PUSH0 PUSH1 0x20 DUP3 DUP5 SUB SLT ISZERO PUSH2 0x91C JUMPI PUSH2 0x91B PUSH2 0x8CC JUMP JUMPDEST JUMPDEST PUSH0 PUSH2 0x929 DUP5 DUP3 DUP6 ADD PUSH2 0x8F3 JUMP JUMPDEST SWAP2 POP POP SWAP3 SWAP2 POP POP JUMP JUMPDEST PUSH0 DUP3 DUP3 MSTORE PUSH1 0x20 DUP3 ADD SWAP1 POP SWAP3 SWAP2 POP POP JUMP JUMPDEST PUSH0 PUSH2 0x94C DUP3 PUSH2 0x7A1 JUMP JUMPDEST PUSH2 0x956 DUP2 DUP6 PUSH2 0x932 JUMP JUMPDEST SWAP4 POP PUSH2 0x966 DUP2 DUP6 PUSH1 0x20 DUP7 ADD PUSH2 0x7BB JUMP JUMPDEST PUSH2 0x96F DUP2 PUSH2 0x7C9 JUMP JUMPDEST DUP5 ADD SWAP2 POP POP SWAP3 SWAP2 POP POP JUMP JUMPDEST PUSH0 PUSH1 0x20 DUP3 ADD SWAP1 POP DUP2 DUP2 SUB PUSH0 DUP4 ADD MSTORE PUSH2 0x992 DUP2 DUP5 PUSH2 0x942 JUMP JUMPDEST SWAP1 POP SWAP3 SWAP2 POP POP JUMP JUMPDEST PUSH0 DUP1 REVERT JUMPDEST PUSH0 DUP1 REVERT JUMPDEST PUSH32 0x4E487B7100000000000000000000000000000000000000000000000000000000 PUSH0 MSTORE PUSH1 0x41 PUSH1 0x4 MSTORE PUSH1 0x24 PUSH0 REVERT JUMPDEST PUSH2 0x9D8 DUP3 PUSH2 0x7C9 JUMP JUMPDEST DUP2 ADD DUP2 DUP2 LT PUSH8 0xFFFFFFFFFFFFFFFF DUP3 GT OR ISZERO PUSH2 0x9F7 JUMPI PUSH2 0x9F6 PUSH2 0x9A2 JUMP JUMPDEST JUMPDEST DUP1 PUSH1 0x40 MSTORE POP POP POP JUMP JUMPDEST PUSH0 PUSH2 0xA09 PUSH2 0x8C3 JUMP JUMPDEST SWAP1 POP PUSH2 0xA15 DUP3 DUP3 PUSH2 0x9CF JUMP JUMPDEST SWAP2 SWAP1 POP JUMP JUMPDEST PUSH0 PUSH8 0xFFFFFFFFFFFFFFFF DUP3 GT ISZERO PUSH2 0xA34 JUMPI PUSH2 0xA33 PUSH2 0x9A2 JUMP JUMPDEST JUMPDEST PUSH2 0xA3D DUP3 PUSH2 0x7C9 JUMP JUMPDEST SWAP1 POP PUSH1 0x20 DUP2 ADD SWAP1 POP SWAP2 SWAP1 POP JUMP JUMPDEST DUP3 DUP2 DUP4 CALLDATACOPY PUSH0 DUP4 DUP4 ADD MSTORE POP POP POP JUMP JUMPDEST PUSH0 PUSH2 0xA6A PUSH2 0xA65 DUP5 PUSH2 0xA1A JUMP JUMPDEST PUSH2 0xA00 JUMP JUMPDEST SWAP1 POP DUP3 DUP2 MSTORE PUSH1 0x20 DUP2 ADD DUP5 DUP5 DUP5 ADD GT ISZERO PUSH2 0xA86 JUMPI PUSH2 0xA85 PUSH2 0x99E JUMP JUMPDEST JUMPDEST PUSH2 0xA91 DUP5 DUP3 DUP6 PUSH2 0xA4A JUMP JUMPDEST POP SWAP4 SWAP3 POP POP POP JUMP JUMPDEST PUSH0 DUP3 PUSH1 0x1F DUP4 ADD SLT PUSH2 0xAAD JUMPI PUSH2 0xAAC PUSH2 0x99A JUMP JUMPDEST JUMPDEST DUP2 CALLDATALOAD PUSH2 0xABD DUP5 DUP3 PUSH1 0x20 DUP7 ADD PUSH2 0xA58 JUMP JUMPDEST SWAP2 POP POP SWAP3 SWAP2 POP POP JUMP JUMPDEST PUSH0 PUSH1 0x20 DUP3 DUP5 SUB SLT ISZERO PUSH2 0xADB JUMPI PUSH2 0xADA PUSH2 0x8CC JUMP JUMPDEST JUMPDEST PUSH0 DUP3 ADD CALLDATALOAD PUSH8 0xFFFFFFFFFFFFFFFF DUP2 GT ISZERO PUSH2 0xAF8 JUMPI PUSH2 0xAF7 PUSH2 0x8D0 JUMP JUMPDEST JUMPDEST PUSH2 0xB04 DUP5 DUP3 DUP6 ADD PUSH2 0xA99 JUMP JUMPDEST SWAP2 POP POP SWAP3 SWAP2 POP POP JUMP JUMPDEST PUSH0 DUP2 ISZERO ISZERO SWAP1 POP SWAP2 SWAP1 POP JUMP JUMPDEST PUSH2 0xB21 DUP2 PUSH2 0xB0D JUMP JUMPDEST DUP3 MSTORE POP POP JUMP JUMPDEST PUSH0 PUSH1 0x20 DUP3 ADD SWAP1 POP PUSH2 0xB3A PUSH0 DUP4 ADD DUP5 PUSH2 0xB18 JUMP JUMPDEST SWAP3 SWAP2 POP POP JUMP JUMPDEST PUSH0 PUSH20 0xFFFFFFFFFFFFFFFFFFFFFFFFFFFFFFFFFFFFFFFF DUP3 AND SWAP1 POP SWAP2 SWAP1 POP JUMP JUMPDEST PUSH0 PUSH2 0xB69 DUP3 PUSH2 0xB40 JUMP JUMPDEST SWAP1 POP SWAP2 SWAP1 POP JUMP JUMPDEST PUSH2 0xB79 DUP2 PUSH2 0xB5F JUMP JUMPDEST DUP2 EQ PUSH2 0xB83 JUMPI PUSH0 DUP1 REVERT JUMPDEST POP JUMP JUMPDEST PUSH0 DUP2 CALLDATALOAD SWAP1 POP PUSH2 0xB94 DUP2 PUSH2 0xB70 JUMP JUMPDEST SWAP3 SWAP2 POP POP JUMP JUMPDEST PUSH0 PUSH1 0x20 DUP3 DUP5 SUB SLT ISZERO PUSH2 0xBAF JUMPI PUSH2 0xBAE PUSH2 0x8CC JUMP JUMPDEST JUMPDEST PUSH0 PUSH2 0xBBC DUP5 DUP3 DUP6 ADD PUSH2 0xB86 JUMP JUMPDEST SWAP2 POP POP SWAP3 SWAP2 POP POP JUMP JUMPDEST PUSH32 0x4E487B7100000000000000000000000000000000000000000000000000000000 PUSH0 MSTORE PUSH1 0x22 PUSH1 0x4 MSTORE PUSH1 0x24 PUSH0 REVERT JUMPDEST PUSH0 PUSH1 0x2 DUP3 DIV SWAP1 POP PUSH1 0x1 DUP3 AND DUP1 PUSH2 0xC09 JUMPI PUSH1 0x7F DUP3 AND SWAP2 POP JUMPDEST PUSH1 0x20 DUP3 LT DUP2 SUB PUSH2 0xC1C JUMPI PUSH2 0xC1B PUSH2 0xBC5 JUMP JUMPDEST JUMPDEST POP SWAP2 SWAP1 POP JUMP JUMPDEST PUSH32 0x4E487B7100000000000000000000000000000000000000000000000000000000 PUSH0 MSTORE PUSH1 0x32 PUSH1 0x4 MSTORE PUSH1 0x24 PUSH0 REVERT JUMPDEST PUSH0 DUP2 SWAP1 POP SWAP3 SWAP2 POP POP JUMP JUMPDEST PUSH0 DUP2 SWAP1 POP DUP2 PUSH0 MSTORE PUSH1 0x20 PUSH0 KECCAK256 SWAP1 POP SWAP2 SWAP1 POP JUMP JUMPDEST PUSH0 DUP2 SLOAD PUSH2 0xC77 DUP2 PUSH2 0xBF2 JUMP JUMPDEST PUSH2 0xC81 DUP2 DUP7 PUSH2 0xC4F JUMP JUMPDEST SWAP5 POP PUSH1 0x1 DUP3 AND PUSH0 DUP2 EQ PUSH2 0xC9B JUMPI PUSH1 0x1 DUP2 EQ PUSH2 0xCB0 JUMPI PUSH2 0xCE2 JUMP JUMPDEST PUSH1 0xFF NOT DUP4 AND DUP7 MSTORE DUP2 ISZERO ISZERO DUP3 MUL DUP7 ADD SWAP4 POP PUSH2 0xCE2 JUMP JUMPDEST PUSH2 0xCB9 DUP6 PUSH2 0xC59 JUMP JUMPDEST PUSH0 JUMPDEST DUP4 DUP2 LT ISZERO PUSH2 0xCDA JUMPI DUP2 SLOAD DUP2 DUP10 ADD MSTORE PUSH1 0x1 DUP3 ADD SWAP2 POP PUSH1 0x20 DUP2 ADD SWAP1 POP PUSH2 0xCBB JUMP JUMPDEST DUP4 DUP9 ADD SWAP6 POP POP POP JUMPDEST POP POP POP SWAP3 SWAP2 POP POP JUMP JUMPDEST PUSH0 PUSH2 0xCF6 DUP3 DUP5 PUSH2 0xC6B JUMP JUMPDEST SWAP2 POP DUP2 SWAP1 POP SWAP3 SWAP2 POP POP JUMP JUMPDEST PUSH0 PUSH2 0xD0B DUP3 PUSH2 0x7A1 JUMP JUMPDEST PUSH2 0xD15 DUP2 DUP6 PUSH2 0xC4F JUMP JUMPDEST SWAP4 POP PUSH2 0xD25 DUP2 DUP6 PUSH1 0x20 DUP7 ADD PUSH2 0x7BB JUMP JUMPDEST DUP1 DUP5 ADD SWAP2 POP POP SWAP3 SWAP2 POP POP JUMP JUMPDEST PUSH0 PUSH2 0xD3C DUP3 DUP5 PUSH2 0xD01 JUMP JUMPDEST SWAP2 POP DUP2 SWAP1 POP SWAP3 SWAP2 POP POP JUMP JUMPDEST PUSH0 PUSH1 0x20 PUSH1 0x1F DUP4 ADD DIV SWAP1 POP SWAP2 SWAP1 POP JUMP JUMPDEST PUSH0 DUP3 DUP3 SHL SWAP1 POP SWAP3 SWAP2 POP POP JUMP JUMPDEST PUSH0 PUSH1 0x8 DUP4 MUL PUSH2 0xD91 PUSH32 0xFFFFFFFFFFFFFFFFFFFFFFFFFFFFFFFFFFFFFFFFFFFFFFFFFFFFFFFFFFFFFFFF DUP3 PUSH2 0xD56 JUMP JUMPDEST PUSH2 0xD9B DUP7 DUP4 PUSH2 0xD56 JUMP JUMPDEST SWAP6 POP DUP1 NOT DUP5 AND SWAP4 POP DUP1 DUP7 AND DUP5 OR SWAP3 POP POP POP SWAP4 SWAP3 POP POP POP JUMP JUMPDEST PUSH0 DUP2 SWAP1 POP SWAP2 SWAP1 POP JUMP JUMPDEST PUSH0 PUSH2 0xDD6 PUSH2 0xDD1 PUSH2 0xDCC DUP5 PUSH2 0x8D4 JUMP JUMPDEST PUSH2 0xDB3 JUMP JUMPDEST PUSH2 0x8D4 JUMP JUMPDEST SWAP1 POP SWAP2 SWAP1 POP JUMP JUMPDEST PUSH0 DUP2 SWAP1 POP SWAP2 SWAP1 POP JUMP JUMPDEST PUSH2 0xDEF DUP4 PUSH2 0xDBC JUMP JUMPDEST PUSH2 0xE03 PUSH2 0xDFB DUP3 PUSH2 0xDDD JUMP JUMPDEST DUP5 DUP5 SLOAD PUSH2 0xD62 JUMP JUMPDEST DUP3 SSTORE POP POP POP POP JUMP JUMPDEST PUSH0 SWAP1 JUMP JUMPDEST PUSH2 0xE17 PUSH2 0xE0B JUMP JUMPDEST PUSH2 0xE22 DUP2 DUP5 DUP5 PUSH2 0xDE6 JUMP JUMPDEST POP POP POP JUMP JUMPDEST JUMPDEST DUP2 DUP2 LT ISZERO PUSH2 0xE45 JUMPI PUSH2 0xE3A PUSH0 DUP3 PUSH2 0xE0F JUMP JUMPDEST PUSH1 0x1 DUP2 ADD SWAP1 POP PUSH2 0xE28 JUMP JUMPDEST POP POP JUMP JUMPDEST PUSH1 0x1F DUP3 GT ISZERO PUSH2 0xE8A JUMPI PUSH2 0xE5B DUP2 PUSH2 0xC59 JUMP JUMPDEST PUSH2 0xE64 DUP5 PUSH2 0xD47 JUMP JUMPDEST DUP2 ADD PUSH1 0x20 DUP6 LT ISZERO PUSH2 0xE73 JUMPI DUP2 SWAP1 POP JUMPDEST PUSH2 0xE87 PUSH2 0xE7F DUP6 PUSH2 0xD47 JUMP JUMPDEST DUP4 ADD DUP3 PUSH2 0xE27 JUMP JUMPDEST POP POP JUMPDEST POP POP POP JUMP JUMPDEST PUSH0 DUP3 DUP3 SHR SWAP1 POP SWAP3 SWAP2 POP POP JUMP JUMPDEST PUSH0 PUSH2 0xEAA PUSH0 NOT DUP5 PUSH1 0x8 MUL PUSH2 0xE8F JUMP JUMPDEST NOT DUP1 DUP4 AND SWAP2 POP POP SWAP3 SWAP2 POP POP JUMP JUMPDEST PUSH0 PUSH2 0xEC2 DUP4 DUP4 PUSH2 0xE9B JUMP JUMPDEST SWAP2 POP DUP3 PUSH1 0x2 MUL DUP3 OR SWAP1 POP SWAP3 SWAP2 POP POP JUMP JUMPDEST PUSH2 0xEDB DUP3 PUSH2 0x7A1 JUMP JUMPDEST PUSH8 0xFFFFFFFFFFFFFFFF DUP2 GT ISZERO PUSH2 0xEF4 JUMPI PUSH2 0xEF3 PUSH2 0x9A2 JUMP JUMPDEST JUMPDEST PUSH2 0xEFE DUP3 SLOAD PUSH2 0xBF2 JUMP JUMPDEST PUSH2 0xF09 DUP3 DUP3 DUP6 PUSH2 0xE49 JUMP JUMPDEST PUSH0 PUSH1 0x20 SWAP1 POP PUSH1 0x1F DUP4 GT PUSH1 0x1 DUP2 EQ PUSH2 0xF3A JUMPI PUSH0 DUP5 ISZERO PUSH2 0xF28 JUMPI DUP3 DUP8 ADD MLOAD SWAP1 POP JUMPDEST PUSH2 0xF32 DUP6 DUP3 PUSH2 0xEB7 JUMP JUMPDEST DUP7 SSTORE POP PUSH2 0xF99 JUMP JUMPDEST PUSH1 0x1F NOT DUP5 AND PUSH2 0xF48 DUP7 PUSH2 0xC59 JUMP JUMPDEST PUSH0 JUMPDEST DUP3 DUP2 LT ISZERO PUSH2 0xF6F JUMPI DUP5 DUP10 ADD MLOAD DUP3 SSTORE PUSH1 0x1 DUP3 ADD SWAP2 POP PUSH1 0x20 DUP6 ADD SWAP5 POP PUSH1 0x20 DUP2 ADD SWAP1 POP PUSH2 0xF4A JUMP JUMPDEST DUP7 DUP4 LT ISZERO PUSH2 0xF8C JUMPI DUP5 DUP10 ADD MLOAD PUSH2 0xF88 PUSH1 0x1F DUP10 AND DUP3 PUSH2 0xE9B JUMP JUMPDEST DUP4 SSTORE POP JUMPDEST PUSH1 0x1 PUSH1 0x2 DUP9 MUL ADD DUP9 SSTORE POP POP POP JUMPDEST POP POP POP POP POP POP JUMP INVALID LOG2 PUSH5 0x6970667358 0x22 SLT KECCAK256 0x21 0xEA CODESIZE DUP4 MCOPY MSIZE 0xB8 0xC8 SLOAD CALLVALUE 0xF 0xA8 0x24 0xE6 JUMP 0xB8 PUSH3 0x6AE2C3 CALLVALUE LOG0 SWAP7 0xC7 0xB7 0xF7 0xD9 PUSH24 0xEBEC737B64736F6C634300081A0033000000000000000000 "
				},
				"gasEstimates": {
					"creation": {
						"codeDepositCost": "811000",
						"executionCost": "infinite",
						"totalCost": "infinite"
					},
					"external": {
						"addRecord(string)": "infinite",
						"approvedRecordList(uint256)": "infinite",
						"approvedRecords(string)": "infinite",
						"getApprovedRecords()": "infinite",
						"getUserFavorites(address)": "infinite",
						"resetUserFavorites()": "infinite"
					}
				},
				"methodIdentifiers": {
					"addRecord(string)": "d81aa8c4",
					"approvedRecordList(uint256)": "325e6306",
					"approvedRecords(string)": "b374ac59",
					"getApprovedRecords()": "1cf0830b",
					"getUserFavorites(address)": "c7853148",
					"resetUserFavorites()": "837f8878"
				}
			},
			"storageLayout": {
				"storage": [
					{
						"astId": 5,
						"contract": "contracts/FavoriteRecords.sol:FavoriteRecords",
						"label": "approvedRecords",
						"offset": 0,
						"slot": "0",
						"type": "t_mapping(t_string_memory_ptr,t_bool)"
					},
					{
						"astId": 8,
						"contract": "contracts/FavoriteRecords.sol:FavoriteRecords",
						"label": "approvedRecordList",
						"offset": 0,
						"slot": "1",
						"type": "t_array(t_string_storage)dyn_storage"
					},
					{
						"astId": 14,
						"contract": "contracts/FavoriteRecords.sol:FavoriteRecords",
						"label": "userFavorites",
						"offset": 0,
						"slot": "2",
						"type": "t_mapping(t_address,t_mapping(t_string_memory_ptr,t_bool))"
					},
					{
						"astId": 19,
						"contract": "contracts/FavoriteRecords.sol:FavoriteRecords",
						"label": "userFavoriteList",
						"offset": 0,
						"slot": "3",
						"type": "t_mapping(t_address,t_array(t_string_storage)dyn_storage)"
					}
				],
				"types": {
					"t_address": {
						"encoding": "inplace",
						"label": "address",
						"numberOfBytes": "20"
					},
					"t_array(t_string_storage)dyn_storage": {
						"base": "t_string_storage",
						"encoding": "dynamic_array",
						"label": "string[]",
						"numberOfBytes": "32"
					},
					"t_bool": {
						"encoding": "inplace",
						"label": "bool",
						"numberOfBytes": "1"
					},
					"t_mapping(t_address,t_array(t_string_storage)dyn_storage)": {
						"encoding": "mapping",
						"key": "t_address",
						"label": "mapping(address => string[])",
						"numberOfBytes": "32",
						"value": "t_array(t_string_storage)dyn_storage"
					},
					"t_mapping(t_address,t_mapping(t_string_memory_ptr,t_bool))": {
						"encoding": "mapping",
						"key": "t_address",
						"label": "mapping(address => mapping(string => bool))",
						"numberOfBytes": "32",
						"value": "t_mapping(t_string_memory_ptr,t_bool)"
					},
					"t_mapping(t_string_memory_ptr,t_bool)": {
						"encoding": "mapping",
						"key": "t_string_memory_ptr",
						"label": "mapping(string => bool)",
						"numberOfBytes": "32",
						"value": "t_bool"
					},
					"t_string_memory_ptr": {
						"encoding": "bytes",
						"label": "string",
						"numberOfBytes": "32"
					},
					"t_string_storage": {
						"encoding": "bytes",
						"label": "string",
						"numberOfBytes": "32"
					}
				}
			},
			"userdoc": {
				"kind": "user",
				"methods": {},
				"version": 1
			}
		}
	}
}