{
	"contracts/WeightedVoting.sol": {
		"WeightedVoting": {
			"abi": [
				{
					"inputs": [],
					"stateMutability": "nonpayable",
					"type": "constructor"
				},
				{
					"inputs": [],
					"name": "AllTokensClaimed",
					"type": "error"
				},
				{
					"inputs": [],
					"name": "AlreadyVoted",
					"type": "error"
				},
				{
					"inputs": [
						{
							"internalType": "address",
							"name": "spender",
							"type": "address"
						},
						{
							"internalType": "uint256",
							"name": "allowance",
							"type": "uint256"
						},
						{
							"internalType": "uint256",
							"name": "needed",
							"type": "uint256"
						}
					],
					"name": "ERC20InsufficientAllowance",
					"type": "error"
				},
				{
					"inputs": [
						{
							"internalType": "address",
							"name": "sender",
							"type": "address"
						},
						{
							"internalType": "uint256",
							"name": "balance",
							"type": "uint256"
						},
						{
							"internalType": "uint256",
							"name": "needed",
							"type": "uint256"
						}
					],
					"name": "ERC20InsufficientBalance",
					"type": "error"
				},
				{
					"inputs": [
						{
							"internalType": "address",
							"name": "approver",
							"type": "address"
						}
					],
					"name": "ERC20InvalidApprover",
					"type": "error"
				},
				{
					"inputs": [
						{
							"internalType": "address",
							"name": "receiver",
							"type": "address"
						}
					],
					"name": "ERC20InvalidReceiver",
					"type": "error"
				},
				{
					"inputs": [
						{
							"internalType": "address",
							"name": "sender",
							"type": "address"
						}
					],
					"name": "ERC20InvalidSender",
					"type": "error"
				},
				{
					"inputs": [
						{
							"internalType": "address",
							"name": "spender",
							"type": "address"
						}
					],
					"name": "ERC20InvalidSpender",
					"type": "error"
				},
				{
					"inputs": [],
					"name": "NoTokensHeld",
					"type": "error"
				},
				{
					"inputs": [
						{
							"internalType": "uint256",
							"name": "quorum",
							"type": "uint256"
						}
					],
					"name": "QuorumTooHigh",
					"type": "error"
				},
				{
					"inputs": [],
					"name": "TokensClaimed",
					"type": "error"
				},
				{
					"inputs": [],
					"name": "VotingClosed",
					"type": "error"
				},
				{
					"anonymous": false,
					"inputs": [
						{
							"indexed": true,
							"internalType": "address",
							"name": "owner",
							"type": "address"
						},
						{
							"indexed": true,
							"internalType": "address",
							"name": "spender",
							"type": "address"
						},
						{
							"indexed": false,
							"internalType": "uint256",
							"name": "value",
							"type": "uint256"
						}
					],
					"name": "Approval",
					"type": "event"
				},
				{
					"anonymous": false,
					"inputs": [
						{
							"indexed": true,
							"internalType": "address",
							"name": "from",
							"type": "address"
						},
						{
							"indexed": true,
							"internalType": "address",
							"name": "to",
							"type": "address"
						},
						{
							"indexed": false,
							"internalType": "uint256",
							"name": "value",
							"type": "uint256"
						}
					],
					"name": "Transfer",
					"type": "event"
				},
				{
					"inputs": [
						{
							"internalType": "address",
							"name": "owner",
							"type": "address"
						},
						{
							"internalType": "address",
							"name": "spender",
							"type": "address"
						}
					],
					"name": "allowance",
					"outputs": [
						{
							"internalType": "uint256",
							"name": "",
							"type": "uint256"
						}
					],
					"stateMutability": "view",
					"type": "function"
				},
				{
					"inputs": [
						{
							"internalType": "address",
							"name": "spender",
							"type": "address"
						},
						{
							"internalType": "uint256",
							"name": "value",
							"type": "uint256"
						}
					],
					"name": "approve",
					"outputs": [
						{
							"internalType": "bool",
							"name": "",
							"type": "bool"
						}
					],
					"stateMutability": "nonpayable",
					"type": "function"
				},
				{
					"inputs": [
						{
							"internalType": "address",
							"name": "account",
							"type": "address"
						}
					],
					"name": "balanceOf",
					"outputs": [
						{
							"internalType": "uint256",
							"name": "",
							"type": "uint256"
						}
					],
					"stateMutability": "view",
					"type": "function"
				},
				{
					"inputs": [],
					"name": "claim",
					"outputs": [],
					"stateMutability": "nonpayable",
					"type": "function"
				},
				{
					"inputs": [
						{
							"internalType": "string",
							"name": "_issueDesc",
							"type": "string"
						},
						{
							"internalType": "uint256",
							"name": "_quorum",
							"type": "uint256"
						}
					],
					"name": "createIssue",
					"outputs": [
						{
							"internalType": "uint256",
							"name": "",
							"type": "uint256"
						}
					],
					"stateMutability": "nonpayable",
					"type": "function"
				},
				{
					"inputs": [],
					"name": "decimals",
					"outputs": [
						{
							"internalType": "uint8",
							"name": "",
							"type": "uint8"
						}
					],
					"stateMutability": "view",
					"type": "function"
				},
				{
					"inputs": [
						{
							"internalType": "uint256",
							"name": "_id",
							"type": "uint256"
						}
					],
					"name": "getIssue",
					"outputs": [
						{
							"components": [
								{
									"internalType": "address[]",
									"name": "voters",
									"type": "address[]"
								},
								{
									"internalType": "string",
									"name": "issueDesc",
									"type": "string"
								},
								{
									"internalType": "uint256",
									"name": "votesFor",
									"type": "uint256"
								},
								{
									"internalType": "uint256",
									"name": "votesAgainst",
									"type": "uint256"
								},
								{
									"internalType": "uint256",
									"name": "votesAbstain",
									"type": "uint256"
								},
								{
									"internalType": "uint256",
									"name": "totalVotes",
									"type": "uint256"
								},
								{
									"internalType": "uint256",
									"name": "quorum",
									"type": "uint256"
								},
								{
									"internalType": "bool",
									"name": "passed",
									"type": "bool"
								},
								{
									"internalType": "bool",
									"name": "closed",
									"type": "bool"
								}
							],
							"internalType": "struct WeightedVoting.IssueData",
							"name": "",
							"type": "tuple"
						}
					],
					"stateMutability": "view",
					"type": "function"
				},
				{
					"inputs": [],
					"name": "getIssuesCount",
					"outputs": [
						{
							"internalType": "uint256",
							"name": "",
							"type": "uint256"
						}
					],
					"stateMutability": "view",
					"type": "function"
				},
				{
					"inputs": [],
					"name": "maxSupply",
					"outputs": [
						{
							"internalType": "uint256",
							"name": "",
							"type": "uint256"
						}
					],
					"stateMutability": "view",
					"type": "function"
				},
				{
					"inputs": [],
					"name": "name",
					"outputs": [
						{
							"internalType": "string",
							"name": "",
							"type": "string"
						}
					],
					"stateMutability": "view",
					"type": "function"
				},
				{
					"inputs": [],
					"name": "symbol",
					"outputs": [
						{
							"internalType": "string",
							"name": "",
							"type": "string"
						}
					],
					"stateMutability": "view",
					"type": "function"
				},
				{
					"inputs": [],
					"name": "totalSupply",
					"outputs": [
						{
							"internalType": "uint256",
							"name": "",
							"type": "uint256"
						}
					],
					"stateMutability": "view",
					"type": "function"
				},
				{
					"inputs": [
						{
							"internalType": "address",
							"name": "to",
							"type": "address"
						},
						{
							"internalType": "uint256",
							"name": "value",
							"type": "uint256"
						}
					],
					"name": "transfer",
					"outputs": [
						{
							"internalType": "bool",
							"name": "",
							"type": "bool"
						}
					],
					"stateMutability": "nonpayable",
					"type": "function"
				},
				{
					"inputs": [
						{
							"internalType": "address",
							"name": "from",
							"type": "address"
						},
						{
							"internalType": "address",
							"name": "to",
							"type": "address"
						},
						{
							"internalType": "uint256",
							"name": "value",
							"type": "uint256"
						}
					],
					"name": "transferFrom",
					"outputs": [
						{
							"internalType": "bool",
							"name": "",
							"type": "bool"
						}
					],
					"stateMutability": "nonpayable",
					"type": "function"
				},
				{
					"inputs": [
						{
							"internalType": "uint256",
							"name": "_issueId",
							"type": "uint256"
						},
						{
							"internalType": "enum WeightedVoting.Vote",
							"name": "_vote",
							"type": "uint8"
						}
					],
					"name": "vote",
					"outputs": [],
					"stateMutability": "nonpayable",
					"type": "function"
				}
			],
			"devdoc": {
				"errors": {
					"ERC20InsufficientAllowance(address,uint256,uint256)": [
						{
							"details": "Indicates a failure with the `spender`’s `allowance`. Used in transfers.",
							"params": {
								"allowance": "Amount of tokens a `spender` is allowed to operate with.",
								"needed": "Minimum amount required to perform a transfer.",
								"spender": "Address that may be allowed to operate on tokens without being their owner."
							}
						}
					],
					"ERC20InsufficientBalance(address,uint256,uint256)": [
						{
							"details": "Indicates an error related to the current `balance` of a `sender`. Used in transfers.",
							"params": {
								"balance": "Current balance for the interacting account.",
								"needed": "Minimum amount required to perform a transfer.",
								"sender": "Address whose tokens are being transferred."
							}
						}
					],
					"ERC20InvalidApprover(address)": [
						{
							"details": "Indicates a failure with the `approver` of a token to be approved. Used in approvals.",
							"params": {
								"approver": "Address initiating an approval operation."
							}
						}
					],
					"ERC20InvalidReceiver(address)": [
						{
							"details": "Indicates a failure with the token `receiver`. Used in transfers.",
							"params": {
								"receiver": "Address to which tokens are being transferred."
							}
						}
					],
					"ERC20InvalidSender(address)": [
						{
							"details": "Indicates a failure with the token `sender`. Used in transfers.",
							"params": {
								"sender": "Address whose tokens are being transferred."
							}
						}
					],
					"ERC20InvalidSpender(address)": [
						{
							"details": "Indicates a failure with the `spender` to be approved. Used in approvals.",
							"params": {
								"spender": "Address that may be allowed to operate on tokens without being their owner."
							}
						}
					]
				},
				"events": {
					"Approval(address,address,uint256)": {
						"details": "Emitted when the allowance of a `spender` for an `owner` is set by a call to {approve}. `value` is the new allowance."
					},
					"Transfer(address,address,uint256)": {
						"details": "Emitted when `value` tokens are moved from one account (`from`) to another (`to`). Note that `value` may be zero."
					}
				},
				"kind": "dev",
				"methods": {
					"allowance(address,address)": {
						"details": "See {IERC20-allowance}."
					},
					"approve(address,uint256)": {
						"details": "See {IERC20-approve}. NOTE: If `value` is the maximum `uint256`, the allowance is not updated on `transferFrom`. This is semantically equivalent to an infinite approval. Requirements: - `spender` cannot be the zero address."
					},
					"balanceOf(address)": {
						"details": "See {IERC20-balanceOf}."
					},
					"decimals()": {
						"details": "Returns the number of decimals used to get its user representation. For example, if `decimals` equals `2`, a balance of `505` tokens should be displayed to a user as `5.05` (`505 / 10 ** 2`). Tokens usually opt for a value of 18, imitating the relationship between Ether and Wei. This is the default value returned by this function, unless it's overridden. NOTE: This information is only used for _display_ purposes: it in no way affects any of the arithmetic of the contract, including {IERC20-balanceOf} and {IERC20-transfer}."
					},
					"name()": {
						"details": "Returns the name of the token."
					},
					"symbol()": {
						"details": "Returns the symbol of the token, usually a shorter version of the name."
					},
					"totalSupply()": {
						"details": "See {IERC20-totalSupply}."
					},
					"transfer(address,uint256)": {
						"details": "See {IERC20-transfer}. Requirements: - `to` cannot be the zero address. - the caller must have a balance of at least `value`."
					},
					"transferFrom(address,address,uint256)": {
						"details": "See {IERC20-transferFrom}. Skips emitting an {Approval} event indicating an allowance update. This is not required by the ERC. See {xref-ERC20-_approve-address-address-uint256-bool-}[_approve]. NOTE: Does not update the allowance if the current allowance is the maximum `uint256`. Requirements: - `from` and `to` cannot be the zero address. - `from` must have a balance of at least `value`. - the caller must have allowance for ``from``'s tokens of at least `value`."
					}
				},
				"version": 1
			},
			"evm": {
				"assembly": "    /* \"contracts/WeightedVoting.sol\":220:5542  contract WeightedVoting is ERC20 {... */\n  mstore(0x40, 0x80)\n    /* \"contracts/WeightedVoting.sol\":373:382  1_000_000 */\n  0x0f4240\n    /* \"contracts/WeightedVoting.sol\":346:382  uint256 public maxSupply = 1_000_000 */\n  0x05\n  sstore\n    /* \"contracts/WeightedVoting.sol\":1320:1475  constructor() ERC20(\"WeightedVotingToken\", \"WVT\") {... */\n  callvalue\n  dup1\n  iszero\n  tag_1\n  jumpi\n  0x00\n  dup1\n  revert\ntag_1:\n  pop\n    /* \"@openzeppelin/contracts/token/ERC20/ERC20.sol\":1601:1714  constructor(string memory name_, string memory symbol_) {... */\n  mload(0x40)\n  dup1\n  0x40\n  add\n  0x40\n  mstore\n  dup1\n  0x13\n  dup2\n  mstore\n  0x20\n  add\n  0x5765696768746564566f74696e67546f6b656e00000000000000000000000000\n  dup2\n  mstore\n  pop\n  mload(0x40)\n  dup1\n  0x40\n  add\n  0x40\n  mstore\n  dup1\n  0x03\n  dup2\n  mstore\n  0x20\n  add\n  0x5756540000000000000000000000000000000000000000000000000000000000\n  dup2\n  mstore\n  pop\n    /* \"@openzeppelin/contracts/token/ERC20/ERC20.sol\":1675:1680  name_ */\n  dup2\n    /* \"@openzeppelin/contracts/token/ERC20/ERC20.sol\":1667:1672  _name */\n  0x03\n    /* \"@openzeppelin/contracts/token/ERC20/ERC20.sol\":1667:1680  _name = name_ */\n  swap1\n  dup2\n  tag_5\n  swap2\n  swap1\n  tag_6\n  jump\t// in\ntag_5:\n  pop\n    /* \"@openzeppelin/contracts/token/ERC20/ERC20.sol\":1700:1707  symbol_ */\n  dup1\n    /* \"@openzeppelin/contracts/token/ERC20/ERC20.sol\":1690:1697  _symbol */\n  0x04\n    /* \"@openzeppelin/contracts/token/ERC20/ERC20.sol\":1690:1707  _symbol = symbol_ */\n  swap1\n  dup2\n  tag_7\n  swap2\n  swap1\n  tag_6\n  jump\t// in\ntag_7:\n  pop\n    /* \"@openzeppelin/contracts/token/ERC20/ERC20.sol\":1601:1714  constructor(string memory name_, string memory symbol_) {... */\n  pop\n  pop\n    /* \"contracts/WeightedVoting.sol\":1454:1460  issues */\n  0x06\n    /* \"contracts/WeightedVoting.sol\":1454:1467  issues.push() */\n  0x01\n  dup2\n  0x01\n  dup2\n  sload\n  add\n  dup1\n  dup3\n  sstore\n  dup1\n  swap2\n  pop\n  pop\n  sub\n  swap1\n  0x00\n  mstore\n  keccak256(0x00, 0x20)\n  swap1\n  pop\n  pop\n    /* \"contracts/WeightedVoting.sol\":220:5542  contract WeightedVoting is ERC20 {... */\n  jump(tag_10)\n    /* \"#utility.yul\":7:106   */\ntag_11:\n    /* \"#utility.yul\":59:65   */\n  0x00\n    /* \"#utility.yul\":93:98   */\n  dup2\n    /* \"#utility.yul\":87:99   */\n  mload\n    /* \"#utility.yul\":77:99   */\n  swap1\n  pop\n    /* \"#utility.yul\":7:106   */\n  swap2\n  swap1\n  pop\n  jump\t// out\n    /* \"#utility.yul\":112:292   */\ntag_12:\n    /* \"#utility.yul\":160:237   */\n  0x4e487b7100000000000000000000000000000000000000000000000000000000\n    /* \"#utility.yul\":157:158   */\n  0x00\n    /* \"#utility.yul\":150:238   */\n  mstore\n    /* \"#utility.yul\":257:261   */\n  0x41\n    /* \"#utility.yul\":254:255   */\n  0x04\n    /* \"#utility.yul\":247:262   */\n  mstore\n    /* \"#utility.yul\":281:285   */\n  0x24\n    /* \"#utility.yul\":278:279   */\n  0x00\n    /* \"#utility.yul\":271:286   */\n  revert\n    /* \"#utility.yul\":298:478   */\ntag_13:\n    /* \"#utility.yul\":346:423   */\n  0x4e487b7100000000000000000000000000000000000000000000000000000000\n    /* \"#utility.yul\":343:344   */\n  0x00\n    /* \"#utility.yul\":336:424   */\n  mstore\n    /* \"#utility.yul\":443:447   */\n  0x22\n    /* \"#utility.yul\":440:441   */\n  0x04\n    /* \"#utility.yul\":433:448   */\n  mstore\n    /* \"#utility.yul\":467:471   */\n  0x24\n    /* \"#utility.yul\":464:465   */\n  0x00\n    /* \"#utility.yul\":457:472   */\n  revert\n    /* \"#utility.yul\":484:804   */\ntag_14:\n    /* \"#utility.yul\":528:534   */\n  0x00\n    /* \"#utility.yul\":565:566   */\n  0x02\n    /* \"#utility.yul\":559:563   */\n  dup3\n    /* \"#utility.yul\":555:567   */\n  div\n    /* \"#utility.yul\":545:567   */\n  swap1\n  pop\n    /* \"#utility.yul\":612:613   */\n  0x01\n    /* \"#utility.yul\":606:610   */\n  dup3\n    /* \"#utility.yul\":602:614   */\n  and\n    /* \"#utility.yul\":633:651   */\n  dup1\n    /* \"#utility.yul\":623:704   */\n  tag_36\n  jumpi\n    /* \"#utility.yul\":689:693   */\n  0x7f\n    /* \"#utility.yul\":681:687   */\n  dup3\n    /* \"#utility.yul\":677:694   */\n  and\n    /* \"#utility.yul\":667:694   */\n  swap2\n  pop\n    /* \"#utility.yul\":623:704   */\ntag_36:\n    /* \"#utility.yul\":751:753   */\n  0x20\n    /* \"#utility.yul\":743:749   */\n  dup3\n    /* \"#utility.yul\":740:754   */\n  lt\n    /* \"#utility.yul\":720:738   */\n  dup2\n    /* \"#utility.yul\":717:755   */\n  sub\n    /* \"#utility.yul\":714:798   */\n  tag_37\n  jumpi\n    /* \"#utility.yul\":770:788   */\n  tag_38\n  tag_13\n  jump\t// in\ntag_38:\n    /* \"#utility.yul\":714:798   */\ntag_37:\n    /* \"#utility.yul\":535:804   */\n  pop\n    /* \"#utility.yul\":484:804   */\n  swap2\n  swap1\n  pop\n  jump\t// out\n    /* \"#utility.yul\":810:951   */\ntag_15:\n    /* \"#utility.yul\":859:863   */\n  0x00\n    /* \"#utility.yul\":882:885   */\n  dup2\n    /* \"#utility.yul\":874:885   */\n  swap1\n  pop\n    /* \"#utility.yul\":905:908   */\n  dup2\n    /* \"#utility.yul\":902:903   */\n  0x00\n    /* \"#utility.yul\":895:909   */\n  mstore\n    /* \"#utility.yul\":939:943   */\n  0x20\n    /* \"#utility.yul\":936:937   */\n  0x00\n    /* \"#utility.yul\":926:944   */\n  keccak256\n    /* \"#utility.yul\":918:944   */\n  swap1\n  pop\n    /* \"#utility.yul\":810:951   */\n  swap2\n  swap1\n  pop\n  jump\t// out\n    /* \"#utility.yul\":957:1050   */\ntag_16:\n    /* \"#utility.yul\":994:1000   */\n  0x00\n    /* \"#utility.yul\":1041:1043   */\n  0x20\n    /* \"#utility.yul\":1036:1038   */\n  0x1f\n    /* \"#utility.yul\":1029:1034   */\n  dup4\n    /* \"#utility.yul\":1025:1039   */\n  add\n    /* \"#utility.yul\":1021:1044   */\n  div\n    /* \"#utility.yul\":1011:1044   */\n  swap1\n  pop\n    /* \"#utility.yul\":957:1050   */\n  swap2\n  swap1\n  pop\n  jump\t// out\n    /* \"#utility.yul\":1056:1163   */\ntag_17:\n    /* \"#utility.yul\":1100:1108   */\n  0x00\n    /* \"#utility.yul\":1150:1155   */\n  dup3\n    /* \"#utility.yul\":1144:1148   */\n  dup3\n    /* \"#utility.yul\":1140:1156   */\n  shl\n    /* \"#utility.yul\":1119:1156   */\n  swap1\n  pop\n    /* \"#utility.yul\":1056:1163   */\n  swap3\n  swap2\n  pop\n  pop\n  jump\t// out\n    /* \"#utility.yul\":1169:1562   */\ntag_18:\n    /* \"#utility.yul\":1238:1244   */\n  0x00\n    /* \"#utility.yul\":1288:1289   */\n  0x08\n    /* \"#utility.yul\":1276:1286   */\n  dup4\n    /* \"#utility.yul\":1272:1290   */\n  mul\n    /* \"#utility.yul\":1311:1408   */\n  tag_43\n    /* \"#utility.yul\":1341:1407   */\n  0xffffffffffffffffffffffffffffffffffffffffffffffffffffffffffffffff\n    /* \"#utility.yul\":1330:1339   */\n  dup3\n    /* \"#utility.yul\":1311:1408   */\n  tag_17\n  jump\t// in\ntag_43:\n    /* \"#utility.yul\":1429:1468   */\n  tag_44\n    /* \"#utility.yul\":1459:1467   */\n  dup7\n    /* \"#utility.yul\":1448:1457   */\n  dup4\n    /* \"#utility.yul\":1429:1468   */\n  tag_17\n  jump\t// in\ntag_44:\n    /* \"#utility.yul\":1417:1468   */\n  swap6\n  pop\n    /* \"#utility.yul\":1501:1505   */\n  dup1\n    /* \"#utility.yul\":1497:1506   */\n  not\n    /* \"#utility.yul\":1490:1495   */\n  dup5\n    /* \"#utility.yul\":1486:1507   */\n  and\n    /* \"#utility.yul\":1477:1507   */\n  swap4\n  pop\n    /* \"#utility.yul\":1550:1554   */\n  dup1\n    /* \"#utility.yul\":1540:1548   */\n  dup7\n    /* \"#utility.yul\":1536:1555   */\n  and\n    /* \"#utility.yul\":1529:1534   */\n  dup5\n    /* \"#utility.yul\":1526:1556   */\n  or\n    /* \"#utility.yul\":1516:1556   */\n  swap3\n  pop\n    /* \"#utility.yul\":1245:1562   */\n  pop\n  pop\n    /* \"#utility.yul\":1169:1562   */\n  swap4\n  swap3\n  pop\n  pop\n  pop\n  jump\t// out\n    /* \"#utility.yul\":1568:1645   */\ntag_19:\n    /* \"#utility.yul\":1605:1612   */\n  0x00\n    /* \"#utility.yul\":1634:1639   */\n  dup2\n    /* \"#utility.yul\":1623:1639   */\n  swap1\n  pop\n    /* \"#utility.yul\":1568:1645   */\n  swap2\n  swap1\n  pop\n  jump\t// out\n    /* \"#utility.yul\":1651:1711   */\ntag_20:\n    /* \"#utility.yul\":1679:1682   */\n  0x00\n    /* \"#utility.yul\":1700:1705   */\n  dup2\n    /* \"#utility.yul\":1693:1705   */\n  swap1\n  pop\n    /* \"#utility.yul\":1651:1711   */\n  swap2\n  swap1\n  pop\n  jump\t// out\n    /* \"#utility.yul\":1717:1859   */\ntag_21:\n    /* \"#utility.yul\":1767:1776   */\n  0x00\n    /* \"#utility.yul\":1800:1853   */\n  tag_48\n    /* \"#utility.yul\":1818:1852   */\n  tag_49\n    /* \"#utility.yul\":1827:1851   */\n  tag_50\n    /* \"#utility.yul\":1845:1850   */\n  dup5\n    /* \"#utility.yul\":1827:1851   */\n  tag_19\n  jump\t// in\ntag_50:\n    /* \"#utility.yul\":1818:1852   */\n  tag_20\n  jump\t// in\ntag_49:\n    /* \"#utility.yul\":1800:1853   */\n  tag_19\n  jump\t// in\ntag_48:\n    /* \"#utility.yul\":1787:1853   */\n  swap1\n  pop\n    /* \"#utility.yul\":1717:1859   */\n  swap2\n  swap1\n  pop\n  jump\t// out\n    /* \"#utility.yul\":1865:1940   */\ntag_22:\n    /* \"#utility.yul\":1908:1911   */\n  0x00\n    /* \"#utility.yul\":1929:1934   */\n  dup2\n    /* \"#utility.yul\":1922:1934   */\n  swap1\n  pop\n    /* \"#utility.yul\":1865:1940   */\n  swap2\n  swap1\n  pop\n  jump\t// out\n    /* \"#utility.yul\":1946:2215   */\ntag_23:\n    /* \"#utility.yul\":2056:2095   */\n  tag_53\n    /* \"#utility.yul\":2087:2094   */\n  dup4\n    /* \"#utility.yul\":2056:2095   */\n  tag_21\n  jump\t// in\ntag_53:\n    /* \"#utility.yul\":2117:2208   */\n  tag_54\n    /* \"#utility.yul\":2166:2207   */\n  tag_55\n    /* \"#utility.yul\":2190:2206   */\n  dup3\n    /* \"#utility.yul\":2166:2207   */\n  tag_22\n  jump\t// in\ntag_55:\n    /* \"#utility.yul\":2158:2164   */\n  dup5\n    /* \"#utility.yul\":2151:2155   */\n  dup5\n    /* \"#utility.yul\":2145:2156   */\n  sload\n    /* \"#utility.yul\":2117:2208   */\n  tag_18\n  jump\t// in\ntag_54:\n    /* \"#utility.yul\":2111:2115   */\n  dup3\n    /* \"#utility.yul\":2104:2209   */\n  sstore\n    /* \"#utility.yul\":2022:2215   */\n  pop\n    /* \"#utility.yul\":1946:2215   */\n  pop\n  pop\n  pop\n  jump\t// out\n    /* \"#utility.yul\":2221:2294   */\ntag_24:\n    /* \"#utility.yul\":2266:2269   */\n  0x00\n    /* \"#utility.yul\":2221:2294   */\n  swap1\n  jump\t// out\n    /* \"#utility.yul\":2300:2489   */\ntag_25:\n    /* \"#utility.yul\":2377:2409   */\n  tag_58\n  tag_24\n  jump\t// in\ntag_58:\n    /* \"#utility.yul\":2418:2483   */\n  tag_59\n    /* \"#utility.yul\":2476:2482   */\n  dup2\n    /* \"#utility.yul\":2468:2474   */\n  dup5\n    /* \"#utility.yul\":2462:2466   */\n  dup5\n    /* \"#utility.yul\":2418:2483   */\n  tag_23\n  jump\t// in\ntag_59:\n    /* \"#utility.yul\":2353:2489   */\n  pop\n    /* \"#utility.yul\":2300:2489   */\n  pop\n  pop\n  jump\t// out\n    /* \"#utility.yul\":2495:2681   */\ntag_26:\n    /* \"#utility.yul\":2555:2675   */\ntag_61:\n    /* \"#utility.yul\":2572:2575   */\n  dup2\n    /* \"#utility.yul\":2565:2570   */\n  dup2\n    /* \"#utility.yul\":2562:2576   */\n  lt\n    /* \"#utility.yul\":2555:2675   */\n  iszero\n  tag_63\n  jumpi\n    /* \"#utility.yul\":2626:2665   */\n  tag_64\n    /* \"#utility.yul\":2663:2664   */\n  0x00\n    /* \"#utility.yul\":2656:2661   */\n  dup3\n    /* \"#utility.yul\":2626:2665   */\n  tag_25\n  jump\t// in\ntag_64:\n    /* \"#utility.yul\":2599:2600   */\n  0x01\n    /* \"#utility.yul\":2592:2597   */\n  dup2\n    /* \"#utility.yul\":2588:2601   */\n  add\n    /* \"#utility.yul\":2579:2601   */\n  swap1\n  pop\n    /* \"#utility.yul\":2555:2675   */\n  jump(tag_61)\ntag_63:\n    /* \"#utility.yul\":2495:2681   */\n  pop\n  pop\n  jump\t// out\n    /* \"#utility.yul\":2687:3230   */\ntag_27:\n    /* \"#utility.yul\":2788:2790   */\n  0x1f\n    /* \"#utility.yul\":2783:2786   */\n  dup3\n    /* \"#utility.yul\":2780:2791   */\n  gt\n    /* \"#utility.yul\":2777:3223   */\n  iszero\n  tag_66\n  jumpi\n    /* \"#utility.yul\":2822:2860   */\n  tag_67\n    /* \"#utility.yul\":2854:2859   */\n  dup2\n    /* \"#utility.yul\":2822:2860   */\n  tag_15\n  jump\t// in\ntag_67:\n    /* \"#utility.yul\":2906:2935   */\n  tag_68\n    /* \"#utility.yul\":2924:2934   */\n  dup5\n    /* \"#utility.yul\":2906:2935   */\n  tag_16\n  jump\t// in\ntag_68:\n    /* \"#utility.yul\":2896:2904   */\n  dup2\n    /* \"#utility.yul\":2892:2936   */\n  add\n    /* \"#utility.yul\":3089:3091   */\n  0x20\n    /* \"#utility.yul\":3077:3087   */\n  dup6\n    /* \"#utility.yul\":3074:3092   */\n  lt\n    /* \"#utility.yul\":3071:3120   */\n  iszero\n  tag_69\n  jumpi\n    /* \"#utility.yul\":3110:3118   */\n  dup2\n    /* \"#utility.yul\":3095:3118   */\n  swap1\n  pop\n    /* \"#utility.yul\":3071:3120   */\ntag_69:\n    /* \"#utility.yul\":3133:3213   */\n  tag_70\n    /* \"#utility.yul\":3189:3211   */\n  tag_71\n    /* \"#utility.yul\":3207:3210   */\n  dup6\n    /* \"#utility.yul\":3189:3211   */\n  tag_16\n  jump\t// in\ntag_71:\n    /* \"#utility.yul\":3179:3187   */\n  dup4\n    /* \"#utility.yul\":3175:3212   */\n  add\n    /* \"#utility.yul\":3162:3173   */\n  dup3\n    /* \"#utility.yul\":3133:3213   */\n  tag_26\n  jump\t// in\ntag_70:\n    /* \"#utility.yul\":2792:3223   */\n  pop\n  pop\n    /* \"#utility.yul\":2777:3223   */\ntag_66:\n    /* \"#utility.yul\":2687:3230   */\n  pop\n  pop\n  pop\n  jump\t// out\n    /* \"#utility.yul\":3236:3353   */\ntag_28:\n    /* \"#utility.yul\":3290:3298   */\n  0x00\n    /* \"#utility.yul\":3340:3345   */\n  dup3\n    /* \"#utility.yul\":3334:3338   */\n  dup3\n    /* \"#utility.yul\":3330:3346   */\n  shr\n    /* \"#utility.yul\":3309:3346   */\n  swap1\n  pop\n    /* \"#utility.yul\":3236:3353   */\n  swap3\n  swap2\n  pop\n  pop\n  jump\t// out\n    /* \"#utility.yul\":3359:3528   */\ntag_29:\n    /* \"#utility.yul\":3403:3409   */\n  0x00\n    /* \"#utility.yul\":3436:3487   */\n  tag_74\n    /* \"#utility.yul\":3484:3485   */\n  0x00\n    /* \"#utility.yul\":3480:3486   */\n  not\n    /* \"#utility.yul\":3472:3477   */\n  dup5\n    /* \"#utility.yul\":3469:3470   */\n  0x08\n    /* \"#utility.yul\":3465:3478   */\n  mul\n    /* \"#utility.yul\":3436:3487   */\n  tag_28\n  jump\t// in\ntag_74:\n    /* \"#utility.yul\":3432:3488   */\n  not\n    /* \"#utility.yul\":3517:3521   */\n  dup1\n    /* \"#utility.yul\":3511:3515   */\n  dup4\n    /* \"#utility.yul\":3507:3522   */\n  and\n    /* \"#utility.yul\":3497:3522   */\n  swap2\n  pop\n    /* \"#utility.yul\":3410:3528   */\n  pop\n    /* \"#utility.yul\":3359:3528   */\n  swap3\n  swap2\n  pop\n  pop\n  jump\t// out\n    /* \"#utility.yul\":3533:3828   */\ntag_30:\n    /* \"#utility.yul\":3609:3613   */\n  0x00\n    /* \"#utility.yul\":3755:3784   */\n  tag_76\n    /* \"#utility.yul\":3780:3783   */\n  dup4\n    /* \"#utility.yul\":3774:3778   */\n  dup4\n    /* \"#utility.yul\":3755:3784   */\n  tag_29\n  jump\t// in\ntag_76:\n    /* \"#utility.yul\":3747:3784   */\n  swap2\n  pop\n    /* \"#utility.yul\":3817:3820   */\n  dup3\n    /* \"#utility.yul\":3814:3815   */\n  0x02\n    /* \"#utility.yul\":3810:3821   */\n  mul\n    /* \"#utility.yul\":3804:3808   */\n  dup3\n    /* \"#utility.yul\":3801:3822   */\n  or\n    /* \"#utility.yul\":3793:3822   */\n  swap1\n  pop\n    /* \"#utility.yul\":3533:3828   */\n  swap3\n  swap2\n  pop\n  pop\n  jump\t// out\n    /* \"#utility.yul\":3833:5228   */\ntag_6:\n    /* \"#utility.yul\":3950:3987   */\n  tag_78\n    /* \"#utility.yul\":3983:3986   */\n  dup3\n    /* \"#utility.yul\":3950:3987   */\n  tag_11\n  jump\t// in\ntag_78:\n    /* \"#utility.yul\":4052:4070   */\n  0xffffffffffffffff\n    /* \"#utility.yul\":4044:4050   */\n  dup2\n    /* \"#utility.yul\":4041:4071   */\n  gt\n    /* \"#utility.yul\":4038:4094   */\n  iszero\n  tag_79\n  jumpi\n    /* \"#utility.yul\":4074:4092   */\n  tag_80\n  tag_12\n  jump\t// in\ntag_80:\n    /* \"#utility.yul\":4038:4094   */\ntag_79:\n    /* \"#utility.yul\":4118:4156   */\n  tag_81\n    /* \"#utility.yul\":4150:4154   */\n  dup3\n    /* \"#utility.yul\":4144:4155   */\n  sload\n    /* \"#utility.yul\":4118:4156   */\n  tag_14\n  jump\t// in\ntag_81:\n    /* \"#utility.yul\":4203:4270   */\n  tag_82\n    /* \"#utility.yul\":4263:4269   */\n  dup3\n    /* \"#utility.yul\":4255:4261   */\n  dup3\n    /* \"#utility.yul\":4249:4253   */\n  dup6\n    /* \"#utility.yul\":4203:4270   */\n  tag_27\n  jump\t// in\ntag_82:\n    /* \"#utility.yul\":4297:4298   */\n  0x00\n    /* \"#utility.yul\":4321:4325   */\n  0x20\n    /* \"#utility.yul\":4308:4325   */\n  swap1\n  pop\n    /* \"#utility.yul\":4353:4355   */\n  0x1f\n    /* \"#utility.yul\":4345:4351   */\n  dup4\n    /* \"#utility.yul\":4342:4356   */\n  gt\n    /* \"#utility.yul\":4370:4371   */\n  0x01\n    /* \"#utility.yul\":4365:4983   */\n  dup2\n  eq\n  tag_84\n  jumpi\n    /* \"#utility.yul\":5027:5028   */\n  0x00\n    /* \"#utility.yul\":5044:5050   */\n  dup5\n    /* \"#utility.yul\":5041:5118   */\n  iszero\n  tag_85\n  jumpi\n    /* \"#utility.yul\":5093:5102   */\n  dup3\n    /* \"#utility.yul\":5088:5091   */\n  dup8\n    /* \"#utility.yul\":5084:5103   */\n  add\n    /* \"#utility.yul\":5078:5104   */\n  mload\n    /* \"#utility.yul\":5069:5104   */\n  swap1\n  pop\n    /* \"#utility.yul\":5041:5118   */\ntag_85:\n    /* \"#utility.yul\":5144:5211   */\n  tag_86\n    /* \"#utility.yul\":5204:5210   */\n  dup6\n    /* \"#utility.yul\":5197:5202   */\n  dup3\n    /* \"#utility.yul\":5144:5211   */\n  tag_30\n  jump\t// in\ntag_86:\n    /* \"#utility.yul\":5138:5142   */\n  dup7\n    /* \"#utility.yul\":5131:5212   */\n  sstore\n    /* \"#utility.yul\":5000:5222   */\n  pop\n    /* \"#utility.yul\":4335:5222   */\n  jump(tag_83)\n    /* \"#utility.yul\":4365:4983   */\ntag_84:\n    /* \"#utility.yul\":4417:4421   */\n  0x1f\n    /* \"#utility.yul\":4413:4422   */\n  not\n    /* \"#utility.yul\":4405:4411   */\n  dup5\n    /* \"#utility.yul\":4401:4423   */\n  and\n    /* \"#utility.yul\":4451:4488   */\n  tag_87\n    /* \"#utility.yul\":4483:4487   */\n  dup7\n    /* \"#utility.yul\":4451:4488   */\n  tag_15\n  jump\t// in\ntag_87:\n    /* \"#utility.yul\":4510:4511   */\n  0x00\n    /* \"#utility.yul\":4524:4732   */\ntag_88:\n    /* \"#utility.yul\":4538:4545   */\n  dup3\n    /* \"#utility.yul\":4535:4536   */\n  dup2\n    /* \"#utility.yul\":4532:4546   */\n  lt\n    /* \"#utility.yul\":4524:4732   */\n  iszero\n  tag_90\n  jumpi\n    /* \"#utility.yul\":4617:4626   */\n  dup5\n    /* \"#utility.yul\":4612:4615   */\n  dup10\n    /* \"#utility.yul\":4608:4627   */\n  add\n    /* \"#utility.yul\":4602:4628   */\n  mload\n    /* \"#utility.yul\":4594:4600   */\n  dup3\n    /* \"#utility.yul\":4587:4629   */\n  sstore\n    /* \"#utility.yul\":4668:4669   */\n  0x01\n    /* \"#utility.yul\":4660:4666   */\n  dup3\n    /* \"#utility.yul\":4656:4670   */\n  add\n    /* \"#utility.yul\":4646:4670   */\n  swap2\n  pop\n    /* \"#utility.yul\":4715:4717   */\n  0x20\n    /* \"#utility.yul\":4704:4713   */\n  dup6\n    /* \"#utility.yul\":4700:4718   */\n  add\n    /* \"#utility.yul\":4687:4718   */\n  swap5\n  pop\n    /* \"#utility.yul\":4561:4565   */\n  0x20\n    /* \"#utility.yul\":4558:4559   */\n  dup2\n    /* \"#utility.yul\":4554:4566   */\n  add\n    /* \"#utility.yul\":4549:4566   */\n  swap1\n  pop\n    /* \"#utility.yul\":4524:4732   */\n  jump(tag_88)\ntag_90:\n    /* \"#utility.yul\":4760:4766   */\n  dup7\n    /* \"#utility.yul\":4751:4758   */\n  dup4\n    /* \"#utility.yul\":4748:4767   */\n  lt\n    /* \"#utility.yul\":4745:4924   */\n  iszero\n  tag_91\n  jumpi\n    /* \"#utility.yul\":4818:4827   */\n  dup5\n    /* \"#utility.yul\":4813:4816   */\n  dup10\n    /* \"#utility.yul\":4809:4828   */\n  add\n    /* \"#utility.yul\":4803:4829   */\n  mload\n    /* \"#utility.yul\":4861:4909   */\n  tag_92\n    /* \"#utility.yul\":4903:4907   */\n  0x1f\n    /* \"#utility.yul\":4895:4901   */\n  dup10\n    /* \"#utility.yul\":4891:4908   */\n  and\n    /* \"#utility.yul\":4880:4889   */\n  dup3\n    /* \"#utility.yul\":4861:4909   */\n  tag_29\n  jump\t// in\ntag_92:\n    /* \"#utility.yul\":4853:4859   */\n  dup4\n    /* \"#utility.yul\":4846:4910   */\n  sstore\n    /* \"#utility.yul\":4768:4924   */\n  pop\n    /* \"#utility.yul\":4745:4924   */\ntag_91:\n    /* \"#utility.yul\":4970:4971   */\n  0x01\n    /* \"#utility.yul\":4966:4967   */\n  0x02\n    /* \"#utility.yul\":4958:4964   */\n  dup9\n    /* \"#utility.yul\":4954:4968   */\n  mul\n    /* \"#utility.yul\":4950:4972   */\n  add\n    /* \"#utility.yul\":4944:4948   */\n  dup9\n    /* \"#utility.yul\":4937:4973   */\n  sstore\n    /* \"#utility.yul\":4372:4983   */\n  pop\n  pop\n  pop\n    /* \"#utility.yul\":4335:5222   */\ntag_83:\n  pop\n    /* \"#utility.yul\":3925:5228   */\n  pop\n  pop\n  pop\n    /* \"#utility.yul\":3833:5228   */\n  pop\n  pop\n  jump\t// out\n    /* \"contracts/WeightedVoting.sol\":220:5542  contract WeightedVoting is ERC20 {... */\ntag_10:\n  dataSize(sub_0)\n  dup1\n  dataOffset(sub_0)\n  0x00\n  codecopy\n  0x00\n  return\nstop\n\nsub_0: assembly {\n        /* \"contracts/WeightedVoting.sol\":220:5542  contract WeightedVoting is ERC20 {... */\n      mstore(0x40, 0x80)\n      callvalue\n      dup1\n      iszero\n      tag_1\n      jumpi\n      0x00\n      dup1\n      revert\n    tag_1:\n      pop\n      jumpi(tag_2, lt(calldatasize, 0x04))\n      shr(0xe0, calldataload(0x00))\n      dup1\n      0x70a08231\n      gt\n      tag_18\n      jumpi\n      dup1\n      0x976b3113\n      gt\n      tag_19\n      jumpi\n      dup1\n      0x976b3113\n      eq\n      tag_14\n      jumpi\n      dup1\n      0xa9059cbb\n      eq\n      tag_15\n      jumpi\n      dup1\n      0xd5abeb01\n      eq\n      tag_16\n      jumpi\n      dup1\n      0xdd62ed3e\n      eq\n      tag_17\n      jumpi\n      jump(tag_2)\n    tag_19:\n      dup1\n      0x70a08231\n      eq\n      tag_10\n      jumpi\n      dup1\n      0x8615d855\n      eq\n      tag_11\n      jumpi\n      dup1\n      0x943e8216\n      eq\n      tag_12\n      jumpi\n      dup1\n      0x95d89b41\n      eq\n      tag_13\n      jumpi\n      jump(tag_2)\n    tag_18:\n      dup1\n      0x23b872dd\n      gt\n      tag_20\n      jumpi\n      dup1\n      0x23b872dd\n      eq\n      tag_6\n      jumpi\n      dup1\n      0x313ce567\n      eq\n      tag_7\n      jumpi\n      dup1\n      0x4e71d92d\n      eq\n      tag_8\n      jumpi\n      dup1\n      0x50b59447\n      eq\n      tag_9\n      jumpi\n      jump(tag_2)\n    tag_20:\n      dup1\n      0x06fdde03\n      eq\n      tag_3\n      jumpi\n      dup1\n      0x095ea7b3\n      eq\n      tag_4\n      jumpi\n      dup1\n      0x18160ddd\n      eq\n      tag_5\n      jumpi\n    tag_2:\n      0x00\n      dup1\n      revert\n        /* \"@openzeppelin/contracts/token/ERC20/ERC20.sol\":1779:1868  function name() public view virtual returns (string memory) {... */\n    tag_3:\n      tag_21\n      tag_22\n      jump\t// in\n    tag_21:\n      mload(0x40)\n      tag_23\n      swap2\n      swap1\n      tag_24\n      jump\t// in\n    tag_23:\n      mload(0x40)\n      dup1\n      swap2\n      sub\n      swap1\n      return\n        /* \"@openzeppelin/contracts/token/ERC20/ERC20.sol\":3998:4184  function approve(address spender, uint256 value) public virtual returns (bool) {... */\n    tag_4:\n      tag_25\n      0x04\n      dup1\n      calldatasize\n      sub\n      dup2\n      add\n      swap1\n      tag_26\n      swap2\n      swap1\n      tag_27\n      jump\t// in\n    tag_26:\n      tag_28\n      jump\t// in\n    tag_25:\n      mload(0x40)\n      tag_29\n      swap2\n      swap1\n      tag_30\n      jump\t// in\n    tag_29:\n      mload(0x40)\n      dup1\n      swap2\n      sub\n      swap1\n      return\n        /* \"@openzeppelin/contracts/token/ERC20/ERC20.sol\":2849:2946  function totalSupply() public view virtual returns (uint256) {... */\n    tag_5:\n      tag_31\n      tag_32\n      jump\t// in\n    tag_31:\n      mload(0x40)\n      tag_33\n      swap2\n      swap1\n      tag_34\n      jump\t// in\n    tag_33:\n      mload(0x40)\n      dup1\n      swap2\n      sub\n      swap1\n      return\n        /* \"@openzeppelin/contracts/token/ERC20/ERC20.sol\":4776:5020  function transferFrom(address from, address to, uint256 value) public virtual returns (bool) {... */\n    tag_6:\n      tag_35\n      0x04\n      dup1\n      calldatasize\n      sub\n      dup2\n      add\n      swap1\n      tag_36\n      swap2\n      swap1\n      tag_37\n      jump\t// in\n    tag_36:\n      tag_38\n      jump\t// in\n    tag_35:\n      mload(0x40)\n      tag_39\n      swap2\n      swap1\n      tag_30\n      jump\t// in\n    tag_39:\n      mload(0x40)\n      dup1\n      swap2\n      sub\n      swap1\n      return\n        /* \"@openzeppelin/contracts/token/ERC20/ERC20.sol\":2707:2789  function decimals() public view virtual returns (uint8) {... */\n    tag_7:\n      tag_40\n      tag_41\n      jump\t// in\n    tag_40:\n      mload(0x40)\n      tag_42\n      swap2\n      swap1\n      tag_43\n      jump\t// in\n    tag_42:\n      mload(0x40)\n      dup1\n      swap2\n      sub\n      swap1\n      return\n        /* \"contracts/WeightedVoting.sol\":1506:1947  function claim() public {... */\n    tag_8:\n      tag_44\n      tag_45\n      jump\t// in\n    tag_44:\n      stop\n        /* \"contracts/WeightedVoting.sol\":3922:4019  function getIssuesCount() external view returns (uint256) {... */\n    tag_9:\n      tag_46\n      tag_47\n      jump\t// in\n    tag_46:\n      mload(0x40)\n      tag_48\n      swap2\n      swap1\n      tag_34\n      jump\t// in\n    tag_48:\n      mload(0x40)\n      dup1\n      swap2\n      sub\n      swap1\n      return\n        /* \"@openzeppelin/contracts/token/ERC20/ERC20.sol\":3004:3120  function balanceOf(address account) public view virtual returns (uint256) {... */\n    tag_10:\n      tag_49\n      0x04\n      dup1\n      calldatasize\n      sub\n      dup2\n      add\n      swap1\n      tag_50\n      swap2\n      swap1\n      tag_51\n      jump\t// in\n    tag_50:\n      tag_52\n      jump\t// in\n    tag_49:\n      mload(0x40)\n      tag_53\n      swap2\n      swap1\n      tag_34\n      jump\t// in\n    tag_53:\n      mload(0x40)\n      dup1\n      swap2\n      sub\n      swap1\n      return\n        /* \"contracts/WeightedVoting.sol\":1985:2662  function createIssue(string calldata _issueDesc, uint256 _quorum) external returns (uint256) {... */\n    tag_11:\n      tag_54\n      0x04\n      dup1\n      calldatasize\n      sub\n      dup2\n      add\n      swap1\n      tag_55\n      swap2\n      swap1\n      tag_56\n      jump\t// in\n    tag_55:\n      tag_57\n      jump\t// in\n    tag_54:\n      mload(0x40)\n      tag_58\n      swap2\n      swap1\n      tag_34\n      jump\t// in\n    tag_58:\n      mload(0x40)\n      dup1\n      swap2\n      sub\n      swap1\n      return\n        /* \"contracts/WeightedVoting.sol\":4049:5539  function vote(uint256 _issueId, Vote _vote) public {... */\n    tag_12:\n      tag_59\n      0x04\n      dup1\n      calldatasize\n      sub\n      dup2\n      add\n      swap1\n      tag_60\n      swap2\n      swap1\n      tag_61\n      jump\t// in\n    tag_60:\n      tag_62\n      jump\t// in\n    tag_59:\n      stop\n        /* \"@openzeppelin/contracts/token/ERC20/ERC20.sol\":1981:2074  function symbol() public view virtual returns (string memory) {... */\n    tag_13:\n      tag_63\n      tag_64\n      jump\t// in\n    tag_63:\n      mload(0x40)\n      tag_65\n      swap2\n      swap1\n      tag_24\n      jump\t// in\n    tag_65:\n      mload(0x40)\n      dup1\n      swap2\n      sub\n      swap1\n      return\n        /* \"contracts/WeightedVoting.sol\":2971:3863  function getIssue(uint256 _id) external view returns (IssueData memory) {... */\n    tag_14:\n      tag_66\n      0x04\n      dup1\n      calldatasize\n      sub\n      dup2\n      add\n      swap1\n      tag_67\n      swap2\n      swap1\n      tag_68\n      jump\t// in\n    tag_67:\n      tag_69\n      jump\t// in\n    tag_66:\n      mload(0x40)\n      tag_70\n      swap2\n      swap1\n      tag_71\n      jump\t// in\n    tag_70:\n      mload(0x40)\n      dup1\n      swap2\n      sub\n      swap1\n      return\n        /* \"@openzeppelin/contracts/token/ERC20/ERC20.sol\":3315:3493  function transfer(address to, uint256 value) public virtual returns (bool) {... */\n    tag_15:\n      tag_72\n      0x04\n      dup1\n      calldatasize\n      sub\n      dup2\n      add\n      swap1\n      tag_73\n      swap2\n      swap1\n      tag_27\n      jump\t// in\n    tag_73:\n      tag_74\n      jump\t// in\n    tag_72:\n      mload(0x40)\n      tag_75\n      swap2\n      swap1\n      tag_30\n      jump\t// in\n    tag_75:\n      mload(0x40)\n      dup1\n      swap2\n      sub\n      swap1\n      return\n        /* \"contracts/WeightedVoting.sol\":346:382  uint256 public maxSupply = 1_000_000 */\n    tag_16:\n      tag_76\n      tag_77\n      jump\t// in\n    tag_76:\n      mload(0x40)\n      tag_78\n      swap2\n      swap1\n      tag_34\n      jump\t// in\n    tag_78:\n      mload(0x40)\n      dup1\n      swap2\n      sub\n      swap1\n      return\n        /* \"@openzeppelin/contracts/token/ERC20/ERC20.sol\":3551:3691  function allowance(address owner, address spender) public view virtual returns (uint256) {... */\n    tag_17:\n      tag_79\n      0x04\n      dup1\n      calldatasize\n      sub\n      dup2\n      add\n      swap1\n      tag_80\n      swap2\n      swap1\n      tag_81\n      jump\t// in\n    tag_80:\n      tag_82\n      jump\t// in\n    tag_79:\n      mload(0x40)\n      tag_83\n      swap2\n      swap1\n      tag_34\n      jump\t// in\n    tag_83:\n      mload(0x40)\n      dup1\n      swap2\n      sub\n      swap1\n      return\n        /* \"@openzeppelin/contracts/token/ERC20/ERC20.sol\":1779:1868  function name() public view virtual returns (string memory) {... */\n    tag_22:\n        /* \"@openzeppelin/contracts/token/ERC20/ERC20.sol\":1824:1837  string memory */\n      0x60\n        /* \"@openzeppelin/contracts/token/ERC20/ERC20.sol\":1856:1861  _name */\n      0x03\n        /* \"@openzeppelin/contracts/token/ERC20/ERC20.sol\":1849:1861  return _name */\n      dup1\n      sload\n      tag_85\n      swap1\n      tag_86\n      jump\t// in\n    tag_85:\n      dup1\n      0x1f\n      add\n      0x20\n      dup1\n      swap2\n      div\n      mul\n      0x20\n      add\n      mload(0x40)\n      swap1\n      dup2\n      add\n      0x40\n      mstore\n      dup1\n      swap3\n      swap2\n      swap1\n      dup2\n      dup2\n      mstore\n      0x20\n      add\n      dup3\n      dup1\n      sload\n      tag_87\n      swap1\n      tag_86\n      jump\t// in\n    tag_87:\n      dup1\n      iszero\n      tag_88\n      jumpi\n      dup1\n      0x1f\n      lt\n      tag_89\n      jumpi\n      0x0100\n      dup1\n      dup4\n      sload\n      div\n      mul\n      dup4\n      mstore\n      swap2\n      0x20\n      add\n      swap2\n      jump(tag_88)\n    tag_89:\n      dup3\n      add\n      swap2\n      swap1\n      0x00\n      mstore\n      keccak256(0x00, 0x20)\n      swap1\n    tag_90:\n      dup2\n      sload\n      dup2\n      mstore\n      swap1\n      0x01\n      add\n      swap1\n      0x20\n      add\n      dup1\n      dup4\n      gt\n      tag_90\n      jumpi\n      dup3\n      swap1\n      sub\n      0x1f\n      and\n      dup3\n      add\n      swap2\n    tag_88:\n      pop\n      pop\n      pop\n      pop\n      pop\n      swap1\n      pop\n        /* \"@openzeppelin/contracts/token/ERC20/ERC20.sol\":1779:1868  function name() public view virtual returns (string memory) {... */\n      swap1\n      jump\t// out\n        /* \"@openzeppelin/contracts/token/ERC20/ERC20.sol\":3998:4184  function approve(address spender, uint256 value) public virtual returns (bool) {... */\n    tag_28:\n        /* \"@openzeppelin/contracts/token/ERC20/ERC20.sol\":4071:4075  bool */\n      0x00\n        /* \"@openzeppelin/contracts/token/ERC20/ERC20.sol\":4087:4100  address owner */\n      dup1\n        /* \"@openzeppelin/contracts/token/ERC20/ERC20.sol\":4103:4115  _msgSender() */\n      tag_92\n        /* \"@openzeppelin/contracts/token/ERC20/ERC20.sol\":4103:4113  _msgSender */\n      tag_93\n        /* \"@openzeppelin/contracts/token/ERC20/ERC20.sol\":4103:4115  _msgSender() */\n      jump\t// in\n    tag_92:\n        /* \"@openzeppelin/contracts/token/ERC20/ERC20.sol\":4087:4115  address owner = _msgSender() */\n      swap1\n      pop\n        /* \"@openzeppelin/contracts/token/ERC20/ERC20.sol\":4125:4156  _approve(owner, spender, value) */\n      tag_94\n        /* \"@openzeppelin/contracts/token/ERC20/ERC20.sol\":4134:4139  owner */\n      dup2\n        /* \"@openzeppelin/contracts/token/ERC20/ERC20.sol\":4141:4148  spender */\n      dup6\n        /* \"@openzeppelin/contracts/token/ERC20/ERC20.sol\":4150:4155  value */\n      dup6\n        /* \"@openzeppelin/contracts/token/ERC20/ERC20.sol\":4125:4133  _approve */\n      tag_95\n        /* \"@openzeppelin/contracts/token/ERC20/ERC20.sol\":4125:4156  _approve(owner, spender, value) */\n      jump\t// in\n    tag_94:\n        /* \"@openzeppelin/contracts/token/ERC20/ERC20.sol\":4173:4177  true */\n      0x01\n        /* \"@openzeppelin/contracts/token/ERC20/ERC20.sol\":4166:4177  return true */\n      swap2\n      pop\n      pop\n        /* \"@openzeppelin/contracts/token/ERC20/ERC20.sol\":3998:4184  function approve(address spender, uint256 value) public virtual returns (bool) {... */\n      swap3\n      swap2\n      pop\n      pop\n      jump\t// out\n        /* \"@openzeppelin/contracts/token/ERC20/ERC20.sol\":2849:2946  function totalSupply() public view virtual returns (uint256) {... */\n    tag_32:\n        /* \"@openzeppelin/contracts/token/ERC20/ERC20.sol\":2901:2908  uint256 */\n      0x00\n        /* \"@openzeppelin/contracts/token/ERC20/ERC20.sol\":2927:2939  _totalSupply */\n      sload(0x02)\n        /* \"@openzeppelin/contracts/token/ERC20/ERC20.sol\":2920:2939  return _totalSupply */\n      swap1\n      pop\n        /* \"@openzeppelin/contracts/token/ERC20/ERC20.sol\":2849:2946  function totalSupply() public view virtual returns (uint256) {... */\n      swap1\n      jump\t// out\n        /* \"@openzeppelin/contracts/token/ERC20/ERC20.sol\":4776:5020  function transferFrom(address from, address to, uint256 value) public virtual returns (bool) {... */\n    tag_38:\n        /* \"@openzeppelin/contracts/token/ERC20/ERC20.sol\":4863:4867  bool */\n      0x00\n        /* \"@openzeppelin/contracts/token/ERC20/ERC20.sol\":4879:4894  address spender */\n      dup1\n        /* \"@openzeppelin/contracts/token/ERC20/ERC20.sol\":4897:4909  _msgSender() */\n      tag_98\n        /* \"@openzeppelin/contracts/token/ERC20/ERC20.sol\":4897:4907  _msgSender */\n      tag_93\n        /* \"@openzeppelin/contracts/token/ERC20/ERC20.sol\":4897:4909  _msgSender() */\n      jump\t// in\n    tag_98:\n        /* \"@openzeppelin/contracts/token/ERC20/ERC20.sol\":4879:4909  address spender = _msgSender() */\n      swap1\n      pop\n        /* \"@openzeppelin/contracts/token/ERC20/ERC20.sol\":4919:4956  _spendAllowance(from, spender, value) */\n      tag_99\n        /* \"@openzeppelin/contracts/token/ERC20/ERC20.sol\":4935:4939  from */\n      dup6\n        /* \"@openzeppelin/contracts/token/ERC20/ERC20.sol\":4941:4948  spender */\n      dup3\n        /* \"@openzeppelin/contracts/token/ERC20/ERC20.sol\":4950:4955  value */\n      dup6\n        /* \"@openzeppelin/contracts/token/ERC20/ERC20.sol\":4919:4934  _spendAllowance */\n      tag_100\n        /* \"@openzeppelin/contracts/token/ERC20/ERC20.sol\":4919:4956  _spendAllowance(from, spender, value) */\n      jump\t// in\n    tag_99:\n        /* \"@openzeppelin/contracts/token/ERC20/ERC20.sol\":4966:4992  _transfer(from, to, value) */\n      tag_101\n        /* \"@openzeppelin/contracts/token/ERC20/ERC20.sol\":4976:4980  from */\n      dup6\n        /* \"@openzeppelin/contracts/token/ERC20/ERC20.sol\":4982:4984  to */\n      dup6\n        /* \"@openzeppelin/contracts/token/ERC20/ERC20.sol\":4986:4991  value */\n      dup6\n        /* \"@openzeppelin/contracts/token/ERC20/ERC20.sol\":4966:4975  _transfer */\n      tag_102\n        /* \"@openzeppelin/contracts/token/ERC20/ERC20.sol\":4966:4992  _transfer(from, to, value) */\n      jump\t// in\n    tag_101:\n        /* \"@openzeppelin/contracts/token/ERC20/ERC20.sol\":5009:5013  true */\n      0x01\n        /* \"@openzeppelin/contracts/token/ERC20/ERC20.sol\":5002:5013  return true */\n      swap2\n      pop\n      pop\n        /* \"@openzeppelin/contracts/token/ERC20/ERC20.sol\":4776:5020  function transferFrom(address from, address to, uint256 value) public virtual returns (bool) {... */\n      swap4\n      swap3\n      pop\n      pop\n      pop\n      jump\t// out\n        /* \"@openzeppelin/contracts/token/ERC20/ERC20.sol\":2707:2789  function decimals() public view virtual returns (uint8) {... */\n    tag_41:\n        /* \"@openzeppelin/contracts/token/ERC20/ERC20.sol\":2756:2761  uint8 */\n      0x00\n        /* \"@openzeppelin/contracts/token/ERC20/ERC20.sol\":2780:2782  18 */\n      0x12\n        /* \"@openzeppelin/contracts/token/ERC20/ERC20.sol\":2773:2782  return 18 */\n      swap1\n      pop\n        /* \"@openzeppelin/contracts/token/ERC20/ERC20.sol\":2707:2789  function decimals() public view virtual returns (uint8) {... */\n      swap1\n      jump\t// out\n        /* \"contracts/WeightedVoting.sol\":1506:1947  function claim() public {... */\n    tag_45:\n        /* \"contracts/WeightedVoting.sol\":1597:1607  hasClaimed */\n      0x07\n        /* \"contracts/WeightedVoting.sol\":1597:1619  hasClaimed[msg.sender] */\n      0x00\n        /* \"contracts/WeightedVoting.sol\":1608:1618  msg.sender */\n      caller\n        /* \"contracts/WeightedVoting.sol\":1597:1619  hasClaimed[msg.sender] */\n      0xffffffffffffffffffffffffffffffffffffffff\n      and\n      0xffffffffffffffffffffffffffffffffffffffff\n      and\n      dup2\n      mstore\n      0x20\n      add\n      swap1\n      dup2\n      mstore\n      0x20\n      add\n      0x00\n      keccak256\n      0x00\n      swap1\n      sload\n      swap1\n      0x0100\n      exp\n      swap1\n      div\n      0xff\n      and\n        /* \"contracts/WeightedVoting.sol\":1593:1670  if (hasClaimed[msg.sender]) {... */\n      iszero\n      tag_105\n      jumpi\n        /* \"contracts/WeightedVoting.sol\":1643:1658  TokensClaimed() */\n      mload(0x40)\n      0x0b1327a600000000000000000000000000000000000000000000000000000000\n      dup2\n      mstore\n      0x04\n      add\n      mload(0x40)\n      dup1\n      swap2\n      sub\n      swap1\n      revert\n        /* \"contracts/WeightedVoting.sol\":1593:1670  if (hasClaimed[msg.sender]) {... */\n    tag_105:\n        /* \"contracts/WeightedVoting.sol\":1758:1767  maxSupply */\n      sload(0x05)\n        /* \"contracts/WeightedVoting.sol\":1752:1755  100 */\n      0x64\n        /* \"contracts/WeightedVoting.sol\":1736:1749  totalSupply() */\n      tag_106\n        /* \"contracts/WeightedVoting.sol\":1736:1747  totalSupply */\n      tag_32\n        /* \"contracts/WeightedVoting.sol\":1736:1749  totalSupply() */\n      jump\t// in\n    tag_106:\n        /* \"contracts/WeightedVoting.sol\":1736:1755  totalSupply() + 100 */\n      tag_107\n      swap2\n      swap1\n      tag_108\n      jump\t// in\n    tag_107:\n        /* \"contracts/WeightedVoting.sol\":1736:1767  totalSupply() + 100 > maxSupply */\n      gt\n        /* \"contracts/WeightedVoting.sol\":1732:1821  if (totalSupply() + 100 > maxSupply) {... */\n      iszero\n      tag_109\n      jumpi\n        /* \"contracts/WeightedVoting.sol\":1791:1809  AllTokensClaimed() */\n      mload(0x40)\n      0xcbe2483100000000000000000000000000000000000000000000000000000000\n      dup2\n      mstore\n      0x04\n      add\n      mload(0x40)\n      dup1\n      swap2\n      sub\n      swap1\n      revert\n        /* \"contracts/WeightedVoting.sol\":1732:1821  if (totalSupply() + 100 > maxSupply) {... */\n    tag_109:\n        /* \"contracts/WeightedVoting.sol\":1858:1862  true */\n      0x01\n        /* \"contracts/WeightedVoting.sol\":1833:1843  hasClaimed */\n      0x07\n        /* \"contracts/WeightedVoting.sol\":1833:1855  hasClaimed[msg.sender] */\n      0x00\n        /* \"contracts/WeightedVoting.sol\":1844:1854  msg.sender */\n      caller\n        /* \"contracts/WeightedVoting.sol\":1833:1855  hasClaimed[msg.sender] */\n      0xffffffffffffffffffffffffffffffffffffffff\n      and\n      0xffffffffffffffffffffffffffffffffffffffff\n      and\n      dup2\n      mstore\n      0x20\n      add\n      swap1\n      dup2\n      mstore\n      0x20\n      add\n      0x00\n      keccak256\n      0x00\n        /* \"contracts/WeightedVoting.sol\":1833:1862  hasClaimed[msg.sender] = true */\n      0x0100\n      exp\n      dup2\n      sload\n      dup2\n      0xff\n      mul\n      not\n      and\n      swap1\n      dup4\n      iszero\n      iszero\n      mul\n      or\n      swap1\n      sstore\n      pop\n        /* \"contracts/WeightedVoting.sol\":1917:1939  _mint(msg.sender, 100) */\n      tag_110\n        /* \"contracts/WeightedVoting.sol\":1923:1933  msg.sender */\n      caller\n        /* \"contracts/WeightedVoting.sol\":1935:1938  100 */\n      0x64\n        /* \"contracts/WeightedVoting.sol\":1917:1922  _mint */\n      tag_111\n        /* \"contracts/WeightedVoting.sol\":1917:1939  _mint(msg.sender, 100) */\n      jump\t// in\n    tag_110:\n        /* \"contracts/WeightedVoting.sol\":1506:1947  function claim() public {... */\n      jump\t// out\n        /* \"contracts/WeightedVoting.sol\":3922:4019  function getIssuesCount() external view returns (uint256) {... */\n    tag_47:\n        /* \"contracts/WeightedVoting.sol\":3971:3978  uint256 */\n      0x00\n        /* \"contracts/WeightedVoting.sol\":3998:4004  issues */\n      0x06\n        /* \"contracts/WeightedVoting.sol\":3998:4011  issues.length */\n      dup1\n      sload\n      swap1\n      pop\n        /* \"contracts/WeightedVoting.sol\":3991:4011  return issues.length */\n      swap1\n      pop\n        /* \"contracts/WeightedVoting.sol\":3922:4019  function getIssuesCount() external view returns (uint256) {... */\n      swap1\n      jump\t// out\n        /* \"@openzeppelin/contracts/token/ERC20/ERC20.sol\":3004:3120  function balanceOf(address account) public view virtual returns (uint256) {... */\n    tag_52:\n        /* \"@openzeppelin/contracts/token/ERC20/ERC20.sol\":3069:3076  uint256 */\n      0x00\n        /* \"@openzeppelin/contracts/token/ERC20/ERC20.sol\":3095:3104  _balances */\n      dup1\n        /* \"@openzeppelin/contracts/token/ERC20/ERC20.sol\":3095:3113  _balances[account] */\n      0x00\n        /* \"@openzeppelin/contracts/token/ERC20/ERC20.sol\":3105:3112  account */\n      dup4\n        /* \"@openzeppelin/contracts/token/ERC20/ERC20.sol\":3095:3113  _balances[account] */\n      0xffffffffffffffffffffffffffffffffffffffff\n      and\n      0xffffffffffffffffffffffffffffffffffffffff\n      and\n      dup2\n      mstore\n      0x20\n      add\n      swap1\n      dup2\n      mstore\n      0x20\n      add\n      0x00\n      keccak256\n      sload\n        /* \"@openzeppelin/contracts/token/ERC20/ERC20.sol\":3088:3113  return _balances[account] */\n      swap1\n      pop\n        /* \"@openzeppelin/contracts/token/ERC20/ERC20.sol\":3004:3120  function balanceOf(address account) public view virtual returns (uint256) {... */\n      swap2\n      swap1\n      pop\n      jump\t// out\n        /* \"contracts/WeightedVoting.sol\":1985:2662  function createIssue(string calldata _issueDesc, uint256 _quorum) external returns (uint256) {... */\n    tag_57:\n        /* \"contracts/WeightedVoting.sol\":2069:2076  uint256 */\n      0x00\n        /* \"contracts/WeightedVoting.sol\":2167:2168  0 */\n      dup1\n        /* \"contracts/WeightedVoting.sol\":2142:2163  balanceOf(msg.sender) */\n      tag_115\n        /* \"contracts/WeightedVoting.sol\":2152:2162  msg.sender */\n      caller\n        /* \"contracts/WeightedVoting.sol\":2142:2151  balanceOf */\n      tag_52\n        /* \"contracts/WeightedVoting.sol\":2142:2163  balanceOf(msg.sender) */\n      jump\t// in\n    tag_115:\n        /* \"contracts/WeightedVoting.sol\":2142:2168  balanceOf(msg.sender) == 0 */\n      sub\n        /* \"contracts/WeightedVoting.sol\":2138:2218  if (balanceOf(msg.sender) == 0) {... */\n      tag_116\n      jumpi\n        /* \"contracts/WeightedVoting.sol\":2192:2206  NoTokensHeld() */\n      mload(0x40)\n      0x8439960d00000000000000000000000000000000000000000000000000000000\n      dup2\n      mstore\n      0x04\n      add\n      mload(0x40)\n      dup1\n      swap2\n      sub\n      swap1\n      revert\n        /* \"contracts/WeightedVoting.sol\":2138:2218  if (balanceOf(msg.sender) == 0) {... */\n    tag_116:\n        /* \"contracts/WeightedVoting.sol\":2331:2344  totalSupply() */\n      tag_117\n        /* \"contracts/WeightedVoting.sol\":2331:2342  totalSupply */\n      tag_32\n        /* \"contracts/WeightedVoting.sol\":2331:2344  totalSupply() */\n      jump\t// in\n    tag_117:\n        /* \"contracts/WeightedVoting.sol\":2321:2328  _quorum */\n      dup3\n        /* \"contracts/WeightedVoting.sol\":2321:2344  _quorum > totalSupply() */\n      gt\n        /* \"contracts/WeightedVoting.sol\":2317:2402  if (_quorum > totalSupply()) {... */\n      iszero\n      tag_118\n      jumpi\n        /* \"contracts/WeightedVoting.sol\":2382:2389  _quorum */\n      dup2\n        /* \"contracts/WeightedVoting.sol\":2368:2390  QuorumTooHigh(_quorum) */\n      mload(0x40)\n      0x589a495200000000000000000000000000000000000000000000000000000000\n      dup2\n      mstore\n      0x04\n      add\n      tag_119\n      swap2\n      swap1\n      tag_34\n      jump\t// in\n    tag_119:\n      mload(0x40)\n      dup1\n      swap2\n      sub\n      swap1\n      revert\n        /* \"contracts/WeightedVoting.sol\":2317:2402  if (_quorum > totalSupply()) {... */\n    tag_118:\n        /* \"contracts/WeightedVoting.sol\":2445:2467  Issue storage newIssue */\n      0x00\n        /* \"contracts/WeightedVoting.sol\":2470:2476  issues */\n      0x06\n        /* \"contracts/WeightedVoting.sol\":2470:2483  issues.push() */\n      0x01\n      dup2\n      0x01\n      dup2\n      sload\n      add\n      dup1\n      dup3\n      sstore\n      dup1\n      swap2\n      pop\n      pop\n      sub\n      swap1\n      0x00\n      mstore\n      keccak256(0x00, 0x20)\n      swap1\n      0x09\n      mul\n      add\n        /* \"contracts/WeightedVoting.sol\":2445:2483  Issue storage newIssue = issues.push() */\n      swap1\n      pop\n        /* \"contracts/WeightedVoting.sol\":2515:2525  _issueDesc */\n      dup5\n      dup5\n        /* \"contracts/WeightedVoting.sol\":2494:2502  newIssue */\n      dup3\n        /* \"contracts/WeightedVoting.sol\":2494:2512  newIssue.issueDesc */\n      0x02\n      add\n        /* \"contracts/WeightedVoting.sol\":2494:2525  newIssue.issueDesc = _issueDesc */\n      swap2\n      dup3\n      tag_121\n      swap3\n      swap2\n      swap1\n      tag_122\n      jump\t// in\n    tag_121:\n      pop\n        /* \"contracts/WeightedVoting.sol\":2554:2561  _quorum */\n      dup3\n        /* \"contracts/WeightedVoting.sol\":2536:2544  newIssue */\n      dup2\n        /* \"contracts/WeightedVoting.sol\":2536:2551  newIssue.quorum */\n      0x07\n      add\n        /* \"contracts/WeightedVoting.sol\":2536:2561  newIssue.quorum = _quorum */\n      dup2\n      swap1\n      sstore\n      pop\n        /* \"contracts/WeightedVoting.sol\":2653:2654  1 */\n      0x01\n        /* \"contracts/WeightedVoting.sol\":2637:2643  issues */\n      0x06\n        /* \"contracts/WeightedVoting.sol\":2637:2650  issues.length */\n      dup1\n      sload\n      swap1\n      pop\n        /* \"contracts/WeightedVoting.sol\":2637:2654  issues.length - 1 */\n      tag_123\n      swap2\n      swap1\n      tag_124\n      jump\t// in\n    tag_123:\n        /* \"contracts/WeightedVoting.sol\":2630:2654  return issues.length - 1 */\n      swap2\n      pop\n      pop\n        /* \"contracts/WeightedVoting.sol\":1985:2662  function createIssue(string calldata _issueDesc, uint256 _quorum) external returns (uint256) {... */\n      swap4\n      swap3\n      pop\n      pop\n      pop\n      jump\t// out\n        /* \"contracts/WeightedVoting.sol\":4049:5539  function vote(uint256 _issueId, Vote _vote) public {... */\n    tag_62:\n        /* \"contracts/WeightedVoting.sol\":4168:4169  0 */\n      0x00\n        /* \"contracts/WeightedVoting.sol\":4157:4165  _issueId */\n      dup3\n        /* \"contracts/WeightedVoting.sol\":4157:4169  _issueId > 0 */\n      gt\n        /* \"contracts/WeightedVoting.sol\":4157:4197  _issueId > 0 && _issueId < issues.length */\n      dup1\n      iszero\n      tag_126\n      jumpi\n      pop\n        /* \"contracts/WeightedVoting.sol\":4184:4190  issues */\n      0x06\n        /* \"contracts/WeightedVoting.sol\":4184:4197  issues.length */\n      dup1\n      sload\n      swap1\n      pop\n        /* \"contracts/WeightedVoting.sol\":4173:4181  _issueId */\n      dup3\n        /* \"contracts/WeightedVoting.sol\":4173:4197  _issueId < issues.length */\n      lt\n        /* \"contracts/WeightedVoting.sol\":4157:4197  _issueId > 0 && _issueId < issues.length */\n    tag_126:\n        /* \"contracts/WeightedVoting.sol\":4149:4216  require(_issueId > 0 && _issueId < issues.length, \"InvalidIssueId\") */\n      tag_127\n      jumpi\n      mload(0x40)\n      0x08c379a000000000000000000000000000000000000000000000000000000000\n      dup2\n      mstore\n      0x04\n      add\n      tag_128\n      swap1\n      tag_129\n      jump\t// in\n    tag_128:\n      mload(0x40)\n      dup1\n      swap2\n      sub\n      swap1\n      revert\n    tag_127:\n        /* \"contracts/WeightedVoting.sol\":4229:4248  Issue storage issue */\n      0x00\n        /* \"contracts/WeightedVoting.sol\":4251:4257  issues */\n      0x06\n        /* \"contracts/WeightedVoting.sol\":4258:4266  _issueId */\n      dup4\n        /* \"contracts/WeightedVoting.sol\":4251:4267  issues[_issueId] */\n      dup2\n      sload\n      dup2\n      lt\n      tag_130\n      jumpi\n      tag_131\n      tag_132\n      jump\t// in\n    tag_131:\n    tag_130:\n      swap1\n      0x00\n      mstore\n      keccak256(0x00, 0x20)\n      swap1\n      0x09\n      mul\n      add\n        /* \"contracts/WeightedVoting.sol\":4229:4267  Issue storage issue = issues[_issueId] */\n      swap1\n      pop\n        /* \"contracts/WeightedVoting.sol\":4325:4330  issue */\n      dup1\n        /* \"contracts/WeightedVoting.sol\":4325:4337  issue.closed */\n      0x08\n      add\n      0x01\n      swap1\n      sload\n      swap1\n      0x0100\n      exp\n      swap1\n      div\n      0xff\n      and\n        /* \"contracts/WeightedVoting.sol\":4321:4387  if (issue.closed) {... */\n      iszero\n      tag_134\n      jumpi\n        /* \"contracts/WeightedVoting.sol\":4361:4375  VotingClosed() */\n      mload(0x40)\n      0x66b6cb4a00000000000000000000000000000000000000000000000000000000\n      dup2\n      mstore\n      0x04\n      add\n      mload(0x40)\n      dup1\n      swap2\n      sub\n      swap1\n      revert\n        /* \"contracts/WeightedVoting.sol\":4321:4387  if (issue.closed) {... */\n    tag_134:\n        /* \"contracts/WeightedVoting.sol\":4466:4499  issue.voters.contains(msg.sender) */\n      tag_135\n        /* \"contracts/WeightedVoting.sol\":4488:4498  msg.sender */\n      caller\n        /* \"contracts/WeightedVoting.sol\":4466:4471  issue */\n      dup3\n        /* \"contracts/WeightedVoting.sol\":4466:4478  issue.voters */\n      0x00\n      add\n        /* \"contracts/WeightedVoting.sol\":4466:4487  issue.voters.contains */\n      tag_136\n      swap1\n        /* \"contracts/WeightedVoting.sol\":4466:4499  issue.voters.contains(msg.sender) */\n      swap2\n      swap1\n      0xffffffff\n      and\n      jump\t// in\n    tag_135:\n        /* \"contracts/WeightedVoting.sol\":4462:4549  if (issue.voters.contains(msg.sender)) {... */\n      iszero\n      tag_137\n      jumpi\n        /* \"contracts/WeightedVoting.sol\":4523:4537  AlreadyVoted() */\n      mload(0x40)\n      0x7c9a1cf900000000000000000000000000000000000000000000000000000000\n      dup2\n      mstore\n      0x04\n      add\n      mload(0x40)\n      dup1\n      swap2\n      sub\n      swap1\n      revert\n        /* \"contracts/WeightedVoting.sol\":4462:4549  if (issue.voters.contains(msg.sender)) {... */\n    tag_137:\n        /* \"contracts/WeightedVoting.sol\":4561:4580  uint256 voterTokens */\n      0x00\n        /* \"contracts/WeightedVoting.sol\":4583:4604  balanceOf(msg.sender) */\n      tag_138\n        /* \"contracts/WeightedVoting.sol\":4593:4603  msg.sender */\n      caller\n        /* \"contracts/WeightedVoting.sol\":4583:4592  balanceOf */\n      tag_52\n        /* \"contracts/WeightedVoting.sol\":4583:4604  balanceOf(msg.sender) */\n      jump\t// in\n    tag_138:\n        /* \"contracts/WeightedVoting.sol\":4561:4604  uint256 voterTokens = balanceOf(msg.sender) */\n      swap1\n      pop\n        /* \"contracts/WeightedVoting.sol\":4684:4685  0 */\n      0x00\n        /* \"contracts/WeightedVoting.sol\":4669:4680  voterTokens */\n      dup2\n        /* \"contracts/WeightedVoting.sol\":4669:4685  voterTokens == 0 */\n      sub\n        /* \"contracts/WeightedVoting.sol\":4665:4735  if (voterTokens == 0) {... */\n      tag_139\n      jumpi\n        /* \"contracts/WeightedVoting.sol\":4709:4723  NoTokensHeld() */\n      mload(0x40)\n      0x8439960d00000000000000000000000000000000000000000000000000000000\n      dup2\n      mstore\n      0x04\n      add\n      mload(0x40)\n      dup1\n      swap2\n      sub\n      swap1\n      revert\n        /* \"contracts/WeightedVoting.sol\":4665:4735  if (voterTokens == 0) {... */\n    tag_139:\n        /* \"contracts/WeightedVoting.sol\":4794:4822  issue.voters.add(msg.sender) */\n      tag_140\n        /* \"contracts/WeightedVoting.sol\":4811:4821  msg.sender */\n      caller\n        /* \"contracts/WeightedVoting.sol\":4794:4799  issue */\n      dup4\n        /* \"contracts/WeightedVoting.sol\":4794:4806  issue.voters */\n      0x00\n      add\n        /* \"contracts/WeightedVoting.sol\":4794:4810  issue.voters.add */\n      tag_141\n      swap1\n        /* \"contracts/WeightedVoting.sol\":4794:4822  issue.voters.add(msg.sender) */\n      swap2\n      swap1\n      0xffffffff\n      and\n      jump\t// in\n    tag_140:\n      pop\n        /* \"contracts/WeightedVoting.sol\":4901:4909  Vote.FOR */\n      0x01\n        /* \"contracts/WeightedVoting.sol\":4892:4909  _vote == Vote.FOR */\n      0x02\n      dup2\n      gt\n      iszero\n      tag_142\n      jumpi\n      tag_143\n      tag_144\n      jump\t// in\n    tag_143:\n    tag_142:\n        /* \"contracts/WeightedVoting.sol\":4892:4897  _vote */\n      dup4\n        /* \"contracts/WeightedVoting.sol\":4892:4909  _vote == Vote.FOR */\n      0x02\n      dup2\n      gt\n      iszero\n      tag_145\n      jumpi\n      tag_146\n      tag_144\n      jump\t// in\n    tag_146:\n    tag_145:\n      sub\n        /* \"contracts/WeightedVoting.sol\":4888:5153  if (_vote == Vote.FOR) {... */\n      tag_147\n      jumpi\n        /* \"contracts/WeightedVoting.sol\":4944:4955  voterTokens */\n      dup1\n        /* \"contracts/WeightedVoting.sol\":4926:4931  issue */\n      dup3\n        /* \"contracts/WeightedVoting.sol\":4926:4940  issue.votesFor */\n      0x03\n      add\n      0x00\n        /* \"contracts/WeightedVoting.sol\":4926:4955  issue.votesFor += voterTokens */\n      dup3\n      dup3\n      sload\n      tag_148\n      swap2\n      swap1\n      tag_108\n      jump\t// in\n    tag_148:\n      swap3\n      pop\n      pop\n      dup2\n      swap1\n      sstore\n      pop\n        /* \"contracts/WeightedVoting.sol\":4888:5153  if (_vote == Vote.FOR) {... */\n      jump(tag_149)\n    tag_147:\n        /* \"contracts/WeightedVoting.sol\":4986:4998  Vote.AGAINST */\n      0x00\n        /* \"contracts/WeightedVoting.sol\":4977:4998  _vote == Vote.AGAINST */\n      0x02\n      dup2\n      gt\n      iszero\n      tag_150\n      jumpi\n      tag_151\n      tag_144\n      jump\t// in\n    tag_151:\n    tag_150:\n        /* \"contracts/WeightedVoting.sol\":4977:4982  _vote */\n      dup4\n        /* \"contracts/WeightedVoting.sol\":4977:4998  _vote == Vote.AGAINST */\n      0x02\n      dup2\n      gt\n      iszero\n      tag_152\n      jumpi\n      tag_153\n      tag_144\n      jump\t// in\n    tag_153:\n    tag_152:\n      sub\n        /* \"contracts/WeightedVoting.sol\":4973:5153  if (_vote == Vote.AGAINST) {... */\n      tag_154\n      jumpi\n        /* \"contracts/WeightedVoting.sol\":5037:5048  voterTokens */\n      dup1\n        /* \"contracts/WeightedVoting.sol\":5015:5020  issue */\n      dup3\n        /* \"contracts/WeightedVoting.sol\":5015:5033  issue.votesAgainst */\n      0x04\n      add\n      0x00\n        /* \"contracts/WeightedVoting.sol\":5015:5048  issue.votesAgainst += voterTokens */\n      dup3\n      dup3\n      sload\n      tag_155\n      swap2\n      swap1\n      tag_108\n      jump\t// in\n    tag_155:\n      swap3\n      pop\n      pop\n      dup2\n      swap1\n      sstore\n      pop\n        /* \"contracts/WeightedVoting.sol\":4973:5153  if (_vote == Vote.AGAINST) {... */\n      jump(tag_156)\n    tag_154:\n        /* \"contracts/WeightedVoting.sol\":5079:5091  Vote.ABSTAIN */\n      0x02\n        /* \"contracts/WeightedVoting.sol\":5070:5091  _vote == Vote.ABSTAIN */\n      dup1\n      dup2\n      gt\n      iszero\n      tag_157\n      jumpi\n      tag_158\n      tag_144\n      jump\t// in\n    tag_158:\n    tag_157:\n        /* \"contracts/WeightedVoting.sol\":5070:5075  _vote */\n      dup4\n        /* \"contracts/WeightedVoting.sol\":5070:5091  _vote == Vote.ABSTAIN */\n      0x02\n      dup2\n      gt\n      iszero\n      tag_159\n      jumpi\n      tag_160\n      tag_144\n      jump\t// in\n    tag_160:\n    tag_159:\n      sub\n        /* \"contracts/WeightedVoting.sol\":5066:5153  if (_vote == Vote.ABSTAIN) {... */\n      tag_161\n      jumpi\n        /* \"contracts/WeightedVoting.sol\":5130:5141  voterTokens */\n      dup1\n        /* \"contracts/WeightedVoting.sol\":5108:5113  issue */\n      dup3\n        /* \"contracts/WeightedVoting.sol\":5108:5126  issue.votesAbstain */\n      0x05\n      add\n      0x00\n        /* \"contracts/WeightedVoting.sol\":5108:5141  issue.votesAbstain += voterTokens */\n      dup3\n      dup3\n      sload\n      tag_162\n      swap2\n      swap1\n      tag_108\n      jump\t// in\n    tag_162:\n      swap3\n      pop\n      pop\n      dup2\n      swap1\n      sstore\n      pop\n        /* \"contracts/WeightedVoting.sol\":5066:5153  if (_vote == Vote.ABSTAIN) {... */\n    tag_161:\n        /* \"contracts/WeightedVoting.sol\":4973:5153  if (_vote == Vote.AGAINST) {... */\n    tag_156:\n        /* \"contracts/WeightedVoting.sol\":4888:5153  if (_vote == Vote.FOR) {... */\n    tag_149:\n        /* \"contracts/WeightedVoting.sol\":5216:5227  voterTokens */\n      dup1\n        /* \"contracts/WeightedVoting.sol\":5196:5201  issue */\n      dup3\n        /* \"contracts/WeightedVoting.sol\":5196:5212  issue.totalVotes */\n      0x06\n      add\n      0x00\n        /* \"contracts/WeightedVoting.sol\":5196:5227  issue.totalVotes += voterTokens */\n      dup3\n      dup3\n      sload\n      tag_163\n      swap2\n      swap1\n      tag_108\n      jump\t// in\n    tag_163:\n      swap3\n      pop\n      pop\n      dup2\n      swap1\n      sstore\n      pop\n        /* \"contracts/WeightedVoting.sol\":5313:5318  issue */\n      dup2\n        /* \"contracts/WeightedVoting.sol\":5313:5325  issue.quorum */\n      0x07\n      add\n      sload\n        /* \"contracts/WeightedVoting.sol\":5293:5298  issue */\n      dup3\n        /* \"contracts/WeightedVoting.sol\":5293:5309  issue.totalVotes */\n      0x06\n      add\n      sload\n        /* \"contracts/WeightedVoting.sol\":5293:5325  issue.totalVotes >= issue.quorum */\n      lt\n        /* \"contracts/WeightedVoting.sol\":5289:5532  if (issue.totalVotes >= issue.quorum) {... */\n      tag_164\n      jumpi\n        /* \"contracts/WeightedVoting.sol\":5357:5361  true */\n      0x01\n        /* \"contracts/WeightedVoting.sol\":5342:5347  issue */\n      dup3\n        /* \"contracts/WeightedVoting.sol\":5342:5354  issue.closed */\n      0x08\n      add\n      0x01\n        /* \"contracts/WeightedVoting.sol\":5342:5361  issue.closed = true */\n      0x0100\n      exp\n      dup2\n      sload\n      dup2\n      0xff\n      mul\n      not\n      and\n      swap1\n      dup4\n      iszero\n      iszero\n      mul\n      or\n      swap1\n      sstore\n      pop\n        /* \"contracts/WeightedVoting.sol\":5447:5452  issue */\n      dup2\n        /* \"contracts/WeightedVoting.sol\":5447:5465  issue.votesAgainst */\n      0x04\n      add\n      sload\n        /* \"contracts/WeightedVoting.sol\":5430:5435  issue */\n      dup3\n        /* \"contracts/WeightedVoting.sol\":5430:5444  issue.votesFor */\n      0x03\n      add\n      sload\n        /* \"contracts/WeightedVoting.sol\":5430:5465  issue.votesFor > issue.votesAgainst */\n      gt\n        /* \"contracts/WeightedVoting.sol\":5426:5521  if (issue.votesFor > issue.votesAgainst) {... */\n      iszero\n      tag_165\n      jumpi\n        /* \"contracts/WeightedVoting.sol\":5501:5505  true */\n      0x01\n        /* \"contracts/WeightedVoting.sol\":5486:5491  issue */\n      dup3\n        /* \"contracts/WeightedVoting.sol\":5486:5498  issue.passed */\n      0x08\n      add\n      0x00\n        /* \"contracts/WeightedVoting.sol\":5486:5505  issue.passed = true */\n      0x0100\n      exp\n      dup2\n      sload\n      dup2\n      0xff\n      mul\n      not\n      and\n      swap1\n      dup4\n      iszero\n      iszero\n      mul\n      or\n      swap1\n      sstore\n      pop\n        /* \"contracts/WeightedVoting.sol\":5426:5521  if (issue.votesFor > issue.votesAgainst) {... */\n    tag_165:\n        /* \"contracts/WeightedVoting.sol\":5289:5532  if (issue.totalVotes >= issue.quorum) {... */\n    tag_164:\n        /* \"contracts/WeightedVoting.sol\":4100:5539  {... */\n      pop\n      pop\n        /* \"contracts/WeightedVoting.sol\":4049:5539  function vote(uint256 _issueId, Vote _vote) public {... */\n      pop\n      pop\n      jump\t// out\n        /* \"@openzeppelin/contracts/token/ERC20/ERC20.sol\":1981:2074  function symbol() public view virtual returns (string memory) {... */\n    tag_64:\n        /* \"@openzeppelin/contracts/token/ERC20/ERC20.sol\":2028:2041  string memory */\n      0x60\n        /* \"@openzeppelin/contracts/token/ERC20/ERC20.sol\":2060:2067  _symbol */\n      0x04\n        /* \"@openzeppelin/contracts/token/ERC20/ERC20.sol\":2053:2067  return _symbol */\n      dup1\n      sload\n      tag_167\n      swap1\n      tag_86\n      jump\t// in\n    tag_167:\n      dup1\n      0x1f\n      add\n      0x20\n      dup1\n      swap2\n      div\n      mul\n      0x20\n      add\n      mload(0x40)\n      swap1\n      dup2\n      add\n      0x40\n      mstore\n      dup1\n      swap3\n      swap2\n      swap1\n      dup2\n      dup2\n      mstore\n      0x20\n      add\n      dup3\n      dup1\n      sload\n      tag_168\n      swap1\n      tag_86\n      jump\t// in\n    tag_168:\n      dup1\n      iszero\n      tag_169\n      jumpi\n      dup1\n      0x1f\n      lt\n      tag_170\n      jumpi\n      0x0100\n      dup1\n      dup4\n      sload\n      div\n      mul\n      dup4\n      mstore\n      swap2\n      0x20\n      add\n      swap2\n      jump(tag_169)\n    tag_170:\n      dup3\n      add\n      swap2\n      swap1\n      0x00\n      mstore\n      keccak256(0x00, 0x20)\n      swap1\n    tag_171:\n      dup2\n      sload\n      dup2\n      mstore\n      swap1\n      0x01\n      add\n      swap1\n      0x20\n      add\n      dup1\n      dup4\n      gt\n      tag_171\n      jumpi\n      dup3\n      swap1\n      sub\n      0x1f\n      and\n      dup3\n      add\n      swap2\n    tag_169:\n      pop\n      pop\n      pop\n      pop\n      pop\n      swap1\n      pop\n        /* \"@openzeppelin/contracts/token/ERC20/ERC20.sol\":1981:2074  function symbol() public view virtual returns (string memory) {... */\n      swap1\n      jump\t// out\n        /* \"contracts/WeightedVoting.sol\":2971:3863  function getIssue(uint256 _id) external view returns (IssueData memory) {... */\n    tag_69:\n        /* \"contracts/WeightedVoting.sol\":3025:3041  IssueData memory */\n      tag_172\n      tag_173\n      jump\t// in\n    tag_172:\n        /* \"contracts/WeightedVoting.sol\":3106:3107  0 */\n      0x00\n        /* \"contracts/WeightedVoting.sol\":3100:3103  _id */\n      dup3\n        /* \"contracts/WeightedVoting.sol\":3100:3107  _id > 0 */\n      gt\n        /* \"contracts/WeightedVoting.sol\":3100:3130  _id > 0 && _id < issues.length */\n      dup1\n      iszero\n      tag_175\n      jumpi\n      pop\n        /* \"contracts/WeightedVoting.sol\":3117:3123  issues */\n      0x06\n        /* \"contracts/WeightedVoting.sol\":3117:3130  issues.length */\n      dup1\n      sload\n      swap1\n      pop\n        /* \"contracts/WeightedVoting.sol\":3111:3114  _id */\n      dup3\n        /* \"contracts/WeightedVoting.sol\":3111:3130  _id < issues.length */\n      lt\n        /* \"contracts/WeightedVoting.sol\":3100:3130  _id > 0 && _id < issues.length */\n    tag_175:\n        /* \"contracts/WeightedVoting.sol\":3092:3149  require(_id > 0 && _id < issues.length, \"InvalidIssueId\") */\n      tag_176\n      jumpi\n      mload(0x40)\n      0x08c379a000000000000000000000000000000000000000000000000000000000\n      dup2\n      mstore\n      0x04\n      add\n      tag_177\n      swap1\n      tag_129\n      jump\t// in\n    tag_177:\n      mload(0x40)\n      dup1\n      swap2\n      sub\n      swap1\n      revert\n    tag_176:\n        /* \"contracts/WeightedVoting.sol\":3162:3181  Issue storage issue */\n      0x00\n        /* \"contracts/WeightedVoting.sol\":3184:3190  issues */\n      0x06\n        /* \"contracts/WeightedVoting.sol\":3191:3194  _id */\n      dup4\n        /* \"contracts/WeightedVoting.sol\":3184:3195  issues[_id] */\n      dup2\n      sload\n      dup2\n      lt\n      tag_178\n      jumpi\n      tag_179\n      tag_132\n      jump\t// in\n    tag_179:\n    tag_178:\n      swap1\n      0x00\n      mstore\n      keccak256(0x00, 0x20)\n      swap1\n      0x09\n      mul\n      add\n        /* \"contracts/WeightedVoting.sol\":3162:3195  Issue storage issue = issues[_id] */\n      swap1\n      pop\n        /* \"contracts/WeightedVoting.sol\":3266:3294  address[] memory votersArray */\n      0x00\n        /* \"contracts/WeightedVoting.sol\":3311:3332  issue.voters.length() */\n      tag_181\n        /* \"contracts/WeightedVoting.sol\":3311:3316  issue */\n      dup3\n        /* \"contracts/WeightedVoting.sol\":3311:3323  issue.voters */\n      0x00\n      add\n        /* \"contracts/WeightedVoting.sol\":3311:3330  issue.voters.length */\n      tag_182\n        /* \"contracts/WeightedVoting.sol\":3311:3332  issue.voters.length() */\n      jump\t// in\n    tag_181:\n        /* \"contracts/WeightedVoting.sol\":3297:3333  new address[](issue.voters.length()) */\n      0xffffffffffffffff\n      dup2\n      gt\n      iszero\n      tag_183\n      jumpi\n      tag_184\n      tag_185\n      jump\t// in\n    tag_184:\n    tag_183:\n      mload(0x40)\n      swap1\n      dup1\n      dup3\n      mstore\n      dup1\n      0x20\n      mul\n      0x20\n      add\n      dup3\n      add\n      0x40\n      mstore\n      dup1\n      iszero\n      tag_186\n      jumpi\n      dup2\n      0x20\n      add\n      0x20\n      dup3\n      mul\n      dup1\n      calldatasize\n      dup4\n      calldatacopy\n      dup1\n      dup3\n      add\n      swap2\n      pop\n      pop\n      swap1\n      pop\n    tag_186:\n      pop\n        /* \"contracts/WeightedVoting.sol\":3266:3333  address[] memory votersArray = new address[](issue.voters.length()) */\n      swap1\n      pop\n        /* \"contracts/WeightedVoting.sol\":3349:3358  uint256 i */\n      0x00\n        /* \"contracts/WeightedVoting.sol\":3344:3458  for (uint256 i = 0; i < issue.voters.length(); i++) {... */\n    tag_187:\n        /* \"contracts/WeightedVoting.sol\":3368:3389  issue.voters.length() */\n      tag_190\n        /* \"contracts/WeightedVoting.sol\":3368:3373  issue */\n      dup4\n        /* \"contracts/WeightedVoting.sol\":3368:3380  issue.voters */\n      0x00\n      add\n        /* \"contracts/WeightedVoting.sol\":3368:3387  issue.voters.length */\n      tag_182\n        /* \"contracts/WeightedVoting.sol\":3368:3389  issue.voters.length() */\n      jump\t// in\n    tag_190:\n        /* \"contracts/WeightedVoting.sol\":3364:3365  i */\n      dup2\n        /* \"contracts/WeightedVoting.sol\":3364:3389  i < issue.voters.length() */\n      lt\n        /* \"contracts/WeightedVoting.sol\":3344:3458  for (uint256 i = 0; i < issue.voters.length(); i++) {... */\n      iszero\n      tag_188\n      jumpi\n        /* \"contracts/WeightedVoting.sol\":3428:3446  issue.voters.at(i) */\n      tag_191\n        /* \"contracts/WeightedVoting.sol\":3444:3445  i */\n      dup2\n        /* \"contracts/WeightedVoting.sol\":3428:3433  issue */\n      dup5\n        /* \"contracts/WeightedVoting.sol\":3428:3440  issue.voters */\n      0x00\n      add\n        /* \"contracts/WeightedVoting.sol\":3428:3443  issue.voters.at */\n      tag_192\n      swap1\n        /* \"contracts/WeightedVoting.sol\":3428:3446  issue.voters.at(i) */\n      swap2\n      swap1\n      0xffffffff\n      and\n      jump\t// in\n    tag_191:\n        /* \"contracts/WeightedVoting.sol\":3411:3422  votersArray */\n      dup3\n        /* \"contracts/WeightedVoting.sol\":3423:3424  i */\n      dup3\n        /* \"contracts/WeightedVoting.sol\":3411:3425  votersArray[i] */\n      dup2\n      mload\n      dup2\n      lt\n      tag_193\n      jumpi\n      tag_194\n      tag_132\n      jump\t// in\n    tag_194:\n    tag_193:\n      0x20\n      mul\n      0x20\n      add\n      add\n        /* \"contracts/WeightedVoting.sol\":3411:3446  votersArray[i] = issue.voters.at(i) */\n      swap1\n      0xffffffffffffffffffffffffffffffffffffffff\n      and\n      swap1\n      dup2\n      0xffffffffffffffffffffffffffffffffffffffff\n      and\n      dup2\n      mstore\n      pop\n      pop\n        /* \"contracts/WeightedVoting.sol\":3391:3394  i++ */\n      dup1\n      dup1\n      0x01\n      add\n      swap2\n      pop\n      pop\n        /* \"contracts/WeightedVoting.sol\":3344:3458  for (uint256 i = 0; i < issue.voters.length(); i++) {... */\n      jump(tag_187)\n    tag_188:\n      pop\n        /* \"contracts/WeightedVoting.sol\":3477:3855  IssueData({... */\n      mload(0x40)\n      dup1\n      0x0120\n      add\n      0x40\n      mstore\n      dup1\n        /* \"contracts/WeightedVoting.sol\":3510:3521  votersArray */\n      dup3\n        /* \"contracts/WeightedVoting.sol\":3477:3855  IssueData({... */\n      dup2\n      mstore\n      0x20\n      add\n        /* \"contracts/WeightedVoting.sol\":3547:3552  issue */\n      dup4\n        /* \"contracts/WeightedVoting.sol\":3547:3562  issue.issueDesc */\n      0x02\n      add\n        /* \"contracts/WeightedVoting.sol\":3477:3855  IssueData({... */\n      dup1\n      sload\n      tag_195\n      swap1\n      tag_86\n      jump\t// in\n    tag_195:\n      dup1\n      0x1f\n      add\n      0x20\n      dup1\n      swap2\n      div\n      mul\n      0x20\n      add\n      mload(0x40)\n      swap1\n      dup2\n      add\n      0x40\n      mstore\n      dup1\n      swap3\n      swap2\n      swap1\n      dup2\n      dup2\n      mstore\n      0x20\n      add\n      dup3\n      dup1\n      sload\n      tag_196\n      swap1\n      tag_86\n      jump\t// in\n    tag_196:\n      dup1\n      iszero\n      tag_197\n      jumpi\n      dup1\n      0x1f\n      lt\n      tag_198\n      jumpi\n      0x0100\n      dup1\n      dup4\n      sload\n      div\n      mul\n      dup4\n      mstore\n      swap2\n      0x20\n      add\n      swap2\n      jump(tag_197)\n    tag_198:\n      dup3\n      add\n      swap2\n      swap1\n      0x00\n      mstore\n      keccak256(0x00, 0x20)\n      swap1\n    tag_199:\n      dup2\n      sload\n      dup2\n      mstore\n      swap1\n      0x01\n      add\n      swap1\n      0x20\n      add\n      dup1\n      dup4\n      gt\n      tag_199\n      jumpi\n      dup3\n      swap1\n      sub\n      0x1f\n      and\n      dup3\n      add\n      swap2\n    tag_197:\n      pop\n      pop\n      pop\n      pop\n      pop\n      dup2\n      mstore\n      0x20\n      add\n        /* \"contracts/WeightedVoting.sol\":3587:3592  issue */\n      dup4\n        /* \"contracts/WeightedVoting.sol\":3587:3601  issue.votesFor */\n      0x03\n      add\n      sload\n        /* \"contracts/WeightedVoting.sol\":3477:3855  IssueData({... */\n      dup2\n      mstore\n      0x20\n      add\n        /* \"contracts/WeightedVoting.sol\":3630:3635  issue */\n      dup4\n        /* \"contracts/WeightedVoting.sol\":3630:3648  issue.votesAgainst */\n      0x04\n      add\n      sload\n        /* \"contracts/WeightedVoting.sol\":3477:3855  IssueData({... */\n      dup2\n      mstore\n      0x20\n      add\n        /* \"contracts/WeightedVoting.sol\":3677:3682  issue */\n      dup4\n        /* \"contracts/WeightedVoting.sol\":3677:3695  issue.votesAbstain */\n      0x05\n      add\n      sload\n        /* \"contracts/WeightedVoting.sol\":3477:3855  IssueData({... */\n      dup2\n      mstore\n      0x20\n      add\n        /* \"contracts/WeightedVoting.sol\":3722:3727  issue */\n      dup4\n        /* \"contracts/WeightedVoting.sol\":3722:3738  issue.totalVotes */\n      0x06\n      add\n      sload\n        /* \"contracts/WeightedVoting.sol\":3477:3855  IssueData({... */\n      dup2\n      mstore\n      0x20\n      add\n        /* \"contracts/WeightedVoting.sol\":3761:3766  issue */\n      dup4\n        /* \"contracts/WeightedVoting.sol\":3761:3773  issue.quorum */\n      0x07\n      add\n      sload\n        /* \"contracts/WeightedVoting.sol\":3477:3855  IssueData({... */\n      dup2\n      mstore\n      0x20\n      add\n        /* \"contracts/WeightedVoting.sol\":3796:3801  issue */\n      dup4\n        /* \"contracts/WeightedVoting.sol\":3796:3808  issue.passed */\n      0x08\n      add\n      0x00\n      swap1\n      sload\n      swap1\n      0x0100\n      exp\n      swap1\n      div\n      0xff\n      and\n        /* \"contracts/WeightedVoting.sol\":3477:3855  IssueData({... */\n      iszero\n      iszero\n      dup2\n      mstore\n      0x20\n      add\n        /* \"contracts/WeightedVoting.sol\":3831:3836  issue */\n      dup4\n        /* \"contracts/WeightedVoting.sol\":3831:3843  issue.closed */\n      0x08\n      add\n      0x01\n      swap1\n      sload\n      swap1\n      0x0100\n      exp\n      swap1\n      div\n      0xff\n      and\n        /* \"contracts/WeightedVoting.sol\":3477:3855  IssueData({... */\n      iszero\n      iszero\n      dup2\n      mstore\n      pop\n        /* \"contracts/WeightedVoting.sol\":3470:3855  return IssueData({... */\n      swap3\n      pop\n      pop\n      pop\n        /* \"contracts/WeightedVoting.sol\":2971:3863  function getIssue(uint256 _id) external view returns (IssueData memory) {... */\n      swap2\n      swap1\n      pop\n      jump\t// out\n        /* \"@openzeppelin/contracts/token/ERC20/ERC20.sol\":3315:3493  function transfer(address to, uint256 value) public virtual returns (bool) {... */\n    tag_74:\n        /* \"@openzeppelin/contracts/token/ERC20/ERC20.sol\":3384:3388  bool */\n      0x00\n        /* \"@openzeppelin/contracts/token/ERC20/ERC20.sol\":3400:3413  address owner */\n      dup1\n        /* \"@openzeppelin/contracts/token/ERC20/ERC20.sol\":3416:3428  _msgSender() */\n      tag_201\n        /* \"@openzeppelin/contracts/token/ERC20/ERC20.sol\":3416:3426  _msgSender */\n      tag_93\n        /* \"@openzeppelin/contracts/token/ERC20/ERC20.sol\":3416:3428  _msgSender() */\n      jump\t// in\n    tag_201:\n        /* \"@openzeppelin/contracts/token/ERC20/ERC20.sol\":3400:3428  address owner = _msgSender() */\n      swap1\n      pop\n        /* \"@openzeppelin/contracts/token/ERC20/ERC20.sol\":3438:3465  _transfer(owner, to, value) */\n      tag_202\n        /* \"@openzeppelin/contracts/token/ERC20/ERC20.sol\":3448:3453  owner */\n      dup2\n        /* \"@openzeppelin/contracts/token/ERC20/ERC20.sol\":3455:3457  to */\n      dup6\n        /* \"@openzeppelin/contracts/token/ERC20/ERC20.sol\":3459:3464  value */\n      dup6\n        /* \"@openzeppelin/contracts/token/ERC20/ERC20.sol\":3438:3447  _transfer */\n      tag_102\n        /* \"@openzeppelin/contracts/token/ERC20/ERC20.sol\":3438:3465  _transfer(owner, to, value) */\n      jump\t// in\n    tag_202:\n        /* \"@openzeppelin/contracts/token/ERC20/ERC20.sol\":3482:3486  true */\n      0x01\n        /* \"@openzeppelin/contracts/token/ERC20/ERC20.sol\":3475:3486  return true */\n      swap2\n      pop\n      pop\n        /* \"@openzeppelin/contracts/token/ERC20/ERC20.sol\":3315:3493  function transfer(address to, uint256 value) public virtual returns (bool) {... */\n      swap3\n      swap2\n      pop\n      pop\n      jump\t// out\n        /* \"contracts/WeightedVoting.sol\":346:382  uint256 public maxSupply = 1_000_000 */\n    tag_77:\n      sload(0x05)\n      dup2\n      jump\t// out\n        /* \"@openzeppelin/contracts/token/ERC20/ERC20.sol\":3551:3691  function allowance(address owner, address spender) public view virtual returns (uint256) {... */\n    tag_82:\n        /* \"@openzeppelin/contracts/token/ERC20/ERC20.sol\":3631:3638  uint256 */\n      0x00\n        /* \"@openzeppelin/contracts/token/ERC20/ERC20.sol\":3657:3668  _allowances */\n      0x01\n        /* \"@openzeppelin/contracts/token/ERC20/ERC20.sol\":3657:3675  _allowances[owner] */\n      0x00\n        /* \"@openzeppelin/contracts/token/ERC20/ERC20.sol\":3669:3674  owner */\n      dup5\n        /* \"@openzeppelin/contracts/token/ERC20/ERC20.sol\":3657:3675  _allowances[owner] */\n      0xffffffffffffffffffffffffffffffffffffffff\n      and\n      0xffffffffffffffffffffffffffffffffffffffff\n      and\n      dup2\n      mstore\n      0x20\n      add\n      swap1\n      dup2\n      mstore\n      0x20\n      add\n      0x00\n      keccak256\n        /* \"@openzeppelin/contracts/token/ERC20/ERC20.sol\":3657:3684  _allowances[owner][spender] */\n      0x00\n        /* \"@openzeppelin/contracts/token/ERC20/ERC20.sol\":3676:3683  spender */\n      dup4\n        /* \"@openzeppelin/contracts/token/ERC20/ERC20.sol\":3657:3684  _allowances[owner][spender] */\n      0xffffffffffffffffffffffffffffffffffffffff\n      and\n      0xffffffffffffffffffffffffffffffffffffffff\n      and\n      dup2\n      mstore\n      0x20\n      add\n      swap1\n      dup2\n      mstore\n      0x20\n      add\n      0x00\n      keccak256\n      sload\n        /* \"@openzeppelin/contracts/token/ERC20/ERC20.sol\":3650:3684  return _allowances[owner][spender] */\n      swap1\n      pop\n        /* \"@openzeppelin/contracts/token/ERC20/ERC20.sol\":3551:3691  function allowance(address owner, address spender) public view virtual returns (uint256) {... */\n      swap3\n      swap2\n      pop\n      pop\n      jump\t// out\n        /* \"@openzeppelin/contracts/utils/Context.sol\":656:752  function _msgSender() internal view virtual returns (address) {... */\n    tag_93:\n        /* \"@openzeppelin/contracts/utils/Context.sol\":709:716  address */\n      0x00\n        /* \"@openzeppelin/contracts/utils/Context.sol\":735:745  msg.sender */\n      caller\n        /* \"@openzeppelin/contracts/utils/Context.sol\":728:745  return msg.sender */\n      swap1\n      pop\n        /* \"@openzeppelin/contracts/utils/Context.sol\":656:752  function _msgSender() internal view virtual returns (address) {... */\n      swap1\n      jump\t// out\n        /* \"@openzeppelin/contracts/token/ERC20/ERC20.sol\":8726:8854  function _approve(address owner, address spender, uint256 value) internal {... */\n    tag_95:\n        /* \"@openzeppelin/contracts/token/ERC20/ERC20.sol\":8810:8847  _approve(owner, spender, value, true) */\n      tag_206\n        /* \"@openzeppelin/contracts/token/ERC20/ERC20.sol\":8819:8824  owner */\n      dup4\n        /* \"@openzeppelin/contracts/token/ERC20/ERC20.sol\":8826:8833  spender */\n      dup4\n        /* \"@openzeppelin/contracts/token/ERC20/ERC20.sol\":8835:8840  value */\n      dup4\n        /* \"@openzeppelin/contracts/token/ERC20/ERC20.sol\":8842:8846  true */\n      0x01\n        /* \"@openzeppelin/contracts/token/ERC20/ERC20.sol\":8810:8818  _approve */\n      tag_207\n        /* \"@openzeppelin/contracts/token/ERC20/ERC20.sol\":8810:8847  _approve(owner, spender, value, true) */\n      jump\t// in\n    tag_206:\n        /* \"@openzeppelin/contracts/token/ERC20/ERC20.sol\":8726:8854  function _approve(address owner, address spender, uint256 value) internal {... */\n      pop\n      pop\n      pop\n      jump\t// out\n        /* \"@openzeppelin/contracts/token/ERC20/ERC20.sol\":10415:10892  function _spendAllowance(address owner, address spender, uint256 value) internal virtual {... */\n    tag_100:\n        /* \"@openzeppelin/contracts/token/ERC20/ERC20.sol\":10514:10538  uint256 currentAllowance */\n      0x00\n        /* \"@openzeppelin/contracts/token/ERC20/ERC20.sol\":10541:10566  allowance(owner, spender) */\n      tag_209\n        /* \"@openzeppelin/contracts/token/ERC20/ERC20.sol\":10551:10556  owner */\n      dup5\n        /* \"@openzeppelin/contracts/token/ERC20/ERC20.sol\":10558:10565  spender */\n      dup5\n        /* \"@openzeppelin/contracts/token/ERC20/ERC20.sol\":10541:10550  allowance */\n      tag_82\n        /* \"@openzeppelin/contracts/token/ERC20/ERC20.sol\":10541:10566  allowance(owner, spender) */\n      jump\t// in\n    tag_209:\n        /* \"@openzeppelin/contracts/token/ERC20/ERC20.sol\":10514:10566  uint256 currentAllowance = allowance(owner, spender) */\n      swap1\n      pop\n        /* \"@openzeppelin/contracts/token/ERC20/ERC20.sol\":10600:10617  type(uint256).max */\n      0xffffffffffffffffffffffffffffffffffffffffffffffffffffffffffffffff\n        /* \"@openzeppelin/contracts/token/ERC20/ERC20.sol\":10580:10596  currentAllowance */\n      dup2\n        /* \"@openzeppelin/contracts/token/ERC20/ERC20.sol\":10580:10617  currentAllowance != type(uint256).max */\n      eq\n        /* \"@openzeppelin/contracts/token/ERC20/ERC20.sol\":10576:10886  if (currentAllowance != type(uint256).max) {... */\n      tag_210\n      jumpi\n        /* \"@openzeppelin/contracts/token/ERC20/ERC20.sol\":10656:10661  value */\n      dup2\n        /* \"@openzeppelin/contracts/token/ERC20/ERC20.sol\":10637:10653  currentAllowance */\n      dup2\n        /* \"@openzeppelin/contracts/token/ERC20/ERC20.sol\":10637:10661  currentAllowance < value */\n      lt\n        /* \"@openzeppelin/contracts/token/ERC20/ERC20.sol\":10633:10763  if (currentAllowance < value) {... */\n      iszero\n      tag_211\n      jumpi\n        /* \"@openzeppelin/contracts/token/ERC20/ERC20.sol\":10715:10722  spender */\n      dup3\n        /* \"@openzeppelin/contracts/token/ERC20/ERC20.sol\":10724:10740  currentAllowance */\n      dup2\n        /* \"@openzeppelin/contracts/token/ERC20/ERC20.sol\":10742:10747  value */\n      dup4\n        /* \"@openzeppelin/contracts/token/ERC20/ERC20.sol\":10688:10748  ERC20InsufficientAllowance(spender, currentAllowance, value) */\n      mload(0x40)\n      0xfb8f41b200000000000000000000000000000000000000000000000000000000\n      dup2\n      mstore\n      0x04\n      add\n      tag_212\n      swap4\n      swap3\n      swap2\n      swap1\n      tag_213\n      jump\t// in\n    tag_212:\n      mload(0x40)\n      dup1\n      swap2\n      sub\n      swap1\n      revert\n        /* \"@openzeppelin/contracts/token/ERC20/ERC20.sol\":10633:10763  if (currentAllowance < value) {... */\n    tag_211:\n        /* \"@openzeppelin/contracts/token/ERC20/ERC20.sol\":10804:10861  _approve(owner, spender, currentAllowance - value, false) */\n      tag_214\n        /* \"@openzeppelin/contracts/token/ERC20/ERC20.sol\":10813:10818  owner */\n      dup5\n        /* \"@openzeppelin/contracts/token/ERC20/ERC20.sol\":10820:10827  spender */\n      dup5\n        /* \"@openzeppelin/contracts/token/ERC20/ERC20.sol\":10848:10853  value */\n      dup5\n        /* \"@openzeppelin/contracts/token/ERC20/ERC20.sol\":10829:10845  currentAllowance */\n      dup5\n        /* \"@openzeppelin/contracts/token/ERC20/ERC20.sol\":10829:10853  currentAllowance - value */\n      sub\n        /* \"@openzeppelin/contracts/token/ERC20/ERC20.sol\":10855:10860  false */\n      0x00\n        /* \"@openzeppelin/contracts/token/ERC20/ERC20.sol\":10804:10812  _approve */\n      tag_207\n        /* \"@openzeppelin/contracts/token/ERC20/ERC20.sol\":10804:10861  _approve(owner, spender, currentAllowance - value, false) */\n      jump\t// in\n    tag_214:\n        /* \"@openzeppelin/contracts/token/ERC20/ERC20.sol\":10576:10886  if (currentAllowance != type(uint256).max) {... */\n    tag_210:\n        /* \"@openzeppelin/contracts/token/ERC20/ERC20.sol\":10504:10892  {... */\n      pop\n        /* \"@openzeppelin/contracts/token/ERC20/ERC20.sol\":10415:10892  function _spendAllowance(address owner, address spender, uint256 value) internal virtual {... */\n      pop\n      pop\n      pop\n      jump\t// out\n        /* \"@openzeppelin/contracts/token/ERC20/ERC20.sol\":5393:5693  function _transfer(address from, address to, uint256 value) internal {... */\n    tag_102:\n        /* \"@openzeppelin/contracts/token/ERC20/ERC20.sol\":5492:5493  0 */\n      0x00\n        /* \"@openzeppelin/contracts/token/ERC20/ERC20.sol\":5476:5494  from == address(0) */\n      0xffffffffffffffffffffffffffffffffffffffff\n      and\n        /* \"@openzeppelin/contracts/token/ERC20/ERC20.sol\":5476:5480  from */\n      dup4\n        /* \"@openzeppelin/contracts/token/ERC20/ERC20.sol\":5476:5494  from == address(0) */\n      0xffffffffffffffffffffffffffffffffffffffff\n      and\n      sub\n        /* \"@openzeppelin/contracts/token/ERC20/ERC20.sol\":5472:5558  if (from == address(0)) {... */\n      tag_216\n      jumpi\n        /* \"@openzeppelin/contracts/token/ERC20/ERC20.sol\":5544:5545  0 */\n      0x00\n        /* \"@openzeppelin/contracts/token/ERC20/ERC20.sol\":5517:5547  ERC20InvalidSender(address(0)) */\n      mload(0x40)\n      0x96c6fd1e00000000000000000000000000000000000000000000000000000000\n      dup2\n      mstore\n      0x04\n      add\n      tag_217\n      swap2\n      swap1\n      tag_218\n      jump\t// in\n    tag_217:\n      mload(0x40)\n      dup1\n      swap2\n      sub\n      swap1\n      revert\n        /* \"@openzeppelin/contracts/token/ERC20/ERC20.sol\":5472:5558  if (from == address(0)) {... */\n    tag_216:\n        /* \"@openzeppelin/contracts/token/ERC20/ERC20.sol\":5585:5586  0 */\n      0x00\n        /* \"@openzeppelin/contracts/token/ERC20/ERC20.sol\":5571:5587  to == address(0) */\n      0xffffffffffffffffffffffffffffffffffffffff\n      and\n        /* \"@openzeppelin/contracts/token/ERC20/ERC20.sol\":5571:5573  to */\n      dup3\n        /* \"@openzeppelin/contracts/token/ERC20/ERC20.sol\":5571:5587  to == address(0) */\n      0xffffffffffffffffffffffffffffffffffffffff\n      and\n      sub\n        /* \"@openzeppelin/contracts/token/ERC20/ERC20.sol\":5567:5653  if (to == address(0)) {... */\n      tag_219\n      jumpi\n        /* \"@openzeppelin/contracts/token/ERC20/ERC20.sol\":5639:5640  0 */\n      0x00\n        /* \"@openzeppelin/contracts/token/ERC20/ERC20.sol\":5610:5642  ERC20InvalidReceiver(address(0)) */\n      mload(0x40)\n      0xec442f0500000000000000000000000000000000000000000000000000000000\n      dup2\n      mstore\n      0x04\n      add\n      tag_220\n      swap2\n      swap1\n      tag_218\n      jump\t// in\n    tag_220:\n      mload(0x40)\n      dup1\n      swap2\n      sub\n      swap1\n      revert\n        /* \"@openzeppelin/contracts/token/ERC20/ERC20.sol\":5567:5653  if (to == address(0)) {... */\n    tag_219:\n        /* \"@openzeppelin/contracts/token/ERC20/ERC20.sol\":5662:5686  _update(from, to, value) */\n      tag_221\n        /* \"@openzeppelin/contracts/token/ERC20/ERC20.sol\":5670:5674  from */\n      dup4\n        /* \"@openzeppelin/contracts/token/ERC20/ERC20.sol\":5676:5678  to */\n      dup4\n        /* \"@openzeppelin/contracts/token/ERC20/ERC20.sol\":5680:5685  value */\n      dup4\n        /* \"@openzeppelin/contracts/token/ERC20/ERC20.sol\":5662:5669  _update */\n      tag_222\n        /* \"@openzeppelin/contracts/token/ERC20/ERC20.sol\":5662:5686  _update(from, to, value) */\n      jump\t// in\n    tag_221:\n        /* \"@openzeppelin/contracts/token/ERC20/ERC20.sol\":5393:5693  function _transfer(address from, address to, uint256 value) internal {... */\n      pop\n      pop\n      pop\n      jump\t// out\n        /* \"@openzeppelin/contracts/token/ERC20/ERC20.sol\":7458:7666  function _mint(address account, uint256 value) internal {... */\n    tag_111:\n        /* \"@openzeppelin/contracts/token/ERC20/ERC20.sol\":7547:7548  0 */\n      0x00\n        /* \"@openzeppelin/contracts/token/ERC20/ERC20.sol\":7528:7549  account == address(0) */\n      0xffffffffffffffffffffffffffffffffffffffff\n      and\n        /* \"@openzeppelin/contracts/token/ERC20/ERC20.sol\":7528:7535  account */\n      dup3\n        /* \"@openzeppelin/contracts/token/ERC20/ERC20.sol\":7528:7549  account == address(0) */\n      0xffffffffffffffffffffffffffffffffffffffff\n      and\n      sub\n        /* \"@openzeppelin/contracts/token/ERC20/ERC20.sol\":7524:7615  if (account == address(0)) {... */\n      tag_224\n      jumpi\n        /* \"@openzeppelin/contracts/token/ERC20/ERC20.sol\":7601:7602  0 */\n      0x00\n        /* \"@openzeppelin/contracts/token/ERC20/ERC20.sol\":7572:7604  ERC20InvalidReceiver(address(0)) */\n      mload(0x40)\n      0xec442f0500000000000000000000000000000000000000000000000000000000\n      dup2\n      mstore\n      0x04\n      add\n      tag_225\n      swap2\n      swap1\n      tag_218\n      jump\t// in\n    tag_225:\n      mload(0x40)\n      dup1\n      swap2\n      sub\n      swap1\n      revert\n        /* \"@openzeppelin/contracts/token/ERC20/ERC20.sol\":7524:7615  if (account == address(0)) {... */\n    tag_224:\n        /* \"@openzeppelin/contracts/token/ERC20/ERC20.sol\":7624:7659  _update(address(0), account, value) */\n      tag_226\n        /* \"@openzeppelin/contracts/token/ERC20/ERC20.sol\":7640:7641  0 */\n      0x00\n        /* \"@openzeppelin/contracts/token/ERC20/ERC20.sol\":7644:7651  account */\n      dup4\n        /* \"@openzeppelin/contracts/token/ERC20/ERC20.sol\":7653:7658  value */\n      dup4\n        /* \"@openzeppelin/contracts/token/ERC20/ERC20.sol\":7624:7631  _update */\n      tag_222\n        /* \"@openzeppelin/contracts/token/ERC20/ERC20.sol\":7624:7659  _update(address(0), account, value) */\n      jump\t// in\n    tag_226:\n        /* \"@openzeppelin/contracts/token/ERC20/ERC20.sol\":7458:7666  function _mint(address account, uint256 value) internal {... */\n      pop\n      pop\n      jump\t// out\n        /* \"@openzeppelin/contracts/utils/structs/EnumerableSet.sol\":8844:9009  function contains(AddressSet storage set, address value) internal view returns (bool) {... */\n    tag_136:\n        /* \"@openzeppelin/contracts/utils/structs/EnumerableSet.sol\":8924:8928  bool */\n      0x00\n        /* \"@openzeppelin/contracts/utils/structs/EnumerableSet.sol\":8947:9002  _contains(set._inner, bytes32(uint256(uint160(value)))) */\n      tag_228\n        /* \"@openzeppelin/contracts/utils/structs/EnumerableSet.sol\":8957:8960  set */\n      dup4\n        /* \"@openzeppelin/contracts/utils/structs/EnumerableSet.sol\":8957:8967  set._inner */\n      0x00\n      add\n        /* \"@openzeppelin/contracts/utils/structs/EnumerableSet.sol\":8993:8998  value */\n      dup4\n        /* \"@openzeppelin/contracts/utils/structs/EnumerableSet.sol\":8977:9000  uint256(uint160(value)) */\n      0xffffffffffffffffffffffffffffffffffffffff\n      and\n        /* \"@openzeppelin/contracts/utils/structs/EnumerableSet.sol\":8969:9001  bytes32(uint256(uint160(value))) */\n      0x00\n      shl\n        /* \"@openzeppelin/contracts/utils/structs/EnumerableSet.sol\":8947:8956  _contains */\n      tag_229\n        /* \"@openzeppelin/contracts/utils/structs/EnumerableSet.sol\":8947:9002  _contains(set._inner, bytes32(uint256(uint160(value)))) */\n      jump\t// in\n    tag_228:\n        /* \"@openzeppelin/contracts/utils/structs/EnumerableSet.sol\":8940:9002  return _contains(set._inner, bytes32(uint256(uint160(value)))) */\n      swap1\n      pop\n        /* \"@openzeppelin/contracts/utils/structs/EnumerableSet.sol\":8844:9009  function contains(AddressSet storage set, address value) internal view returns (bool) {... */\n      swap3\n      swap2\n      pop\n      pop\n      jump\t// out\n        /* \"@openzeppelin/contracts/utils/structs/EnumerableSet.sol\":8289:8439  function add(AddressSet storage set, address value) internal returns (bool) {... */\n    tag_141:\n        /* \"@openzeppelin/contracts/utils/structs/EnumerableSet.sol\":8359:8363  bool */\n      0x00\n        /* \"@openzeppelin/contracts/utils/structs/EnumerableSet.sol\":8382:8432  _add(set._inner, bytes32(uint256(uint160(value)))) */\n      tag_231\n        /* \"@openzeppelin/contracts/utils/structs/EnumerableSet.sol\":8387:8390  set */\n      dup4\n        /* \"@openzeppelin/contracts/utils/structs/EnumerableSet.sol\":8387:8397  set._inner */\n      0x00\n      add\n        /* \"@openzeppelin/contracts/utils/structs/EnumerableSet.sol\":8423:8428  value */\n      dup4\n        /* \"@openzeppelin/contracts/utils/structs/EnumerableSet.sol\":8407:8430  uint256(uint160(value)) */\n      0xffffffffffffffffffffffffffffffffffffffff\n      and\n        /* \"@openzeppelin/contracts/utils/structs/EnumerableSet.sol\":8399:8431  bytes32(uint256(uint160(value))) */\n      0x00\n      shl\n        /* \"@openzeppelin/contracts/utils/structs/EnumerableSet.sol\":8382:8386  _add */\n      tag_232\n        /* \"@openzeppelin/contracts/utils/structs/EnumerableSet.sol\":8382:8432  _add(set._inner, bytes32(uint256(uint160(value)))) */\n      jump\t// in\n    tag_231:\n        /* \"@openzeppelin/contracts/utils/structs/EnumerableSet.sol\":8375:8432  return _add(set._inner, bytes32(uint256(uint160(value)))) */\n      swap1\n      pop\n        /* \"@openzeppelin/contracts/utils/structs/EnumerableSet.sol\":8289:8439  function add(AddressSet storage set, address value) internal returns (bool) {... */\n      swap3\n      swap2\n      pop\n      pop\n      jump\t// out\n        /* \"@openzeppelin/contracts/utils/structs/EnumerableSet.sol\":9090:9205  function length(AddressSet storage set) internal view returns (uint256) {... */\n    tag_182:\n        /* \"@openzeppelin/contracts/utils/structs/EnumerableSet.sol\":9153:9160  uint256 */\n      0x00\n        /* \"@openzeppelin/contracts/utils/structs/EnumerableSet.sol\":9179:9198  _length(set._inner) */\n      tag_234\n        /* \"@openzeppelin/contracts/utils/structs/EnumerableSet.sol\":9187:9190  set */\n      dup3\n        /* \"@openzeppelin/contracts/utils/structs/EnumerableSet.sol\":9187:9197  set._inner */\n      0x00\n      add\n        /* \"@openzeppelin/contracts/utils/structs/EnumerableSet.sol\":9179:9186  _length */\n      tag_235\n        /* \"@openzeppelin/contracts/utils/structs/EnumerableSet.sol\":9179:9198  _length(set._inner) */\n      jump\t// in\n    tag_234:\n        /* \"@openzeppelin/contracts/utils/structs/EnumerableSet.sol\":9172:9198  return _length(set._inner) */\n      swap1\n      pop\n        /* \"@openzeppelin/contracts/utils/structs/EnumerableSet.sol\":9090:9205  function length(AddressSet storage set) internal view returns (uint256) {... */\n      swap2\n      swap1\n      pop\n      jump\t// out\n        /* \"@openzeppelin/contracts/utils/structs/EnumerableSet.sol\":9547:9703  function at(AddressSet storage set, uint256 index) internal view returns (address) {... */\n    tag_192:\n        /* \"@openzeppelin/contracts/utils/structs/EnumerableSet.sol\":9621:9628  address */\n      0x00\n        /* \"@openzeppelin/contracts/utils/structs/EnumerableSet.sol\":9671:9693  _at(set._inner, index) */\n      tag_237\n        /* \"@openzeppelin/contracts/utils/structs/EnumerableSet.sol\":9675:9678  set */\n      dup4\n        /* \"@openzeppelin/contracts/utils/structs/EnumerableSet.sol\":9675:9685  set._inner */\n      0x00\n      add\n        /* \"@openzeppelin/contracts/utils/structs/EnumerableSet.sol\":9687:9692  index */\n      dup4\n        /* \"@openzeppelin/contracts/utils/structs/EnumerableSet.sol\":9671:9674  _at */\n      tag_238\n        /* \"@openzeppelin/contracts/utils/structs/EnumerableSet.sol\":9671:9693  _at(set._inner, index) */\n      jump\t// in\n    tag_237:\n        /* \"@openzeppelin/contracts/utils/structs/EnumerableSet.sol\":9663:9694  uint256(_at(set._inner, index)) */\n      0x00\n      shr\n        /* \"@openzeppelin/contracts/utils/structs/EnumerableSet.sol\":9640:9696  return address(uint160(uint256(_at(set._inner, index)))) */\n      swap1\n      pop\n        /* \"@openzeppelin/contracts/utils/structs/EnumerableSet.sol\":9547:9703  function at(AddressSet storage set, uint256 index) internal view returns (address) {... */\n      swap3\n      swap2\n      pop\n      pop\n      jump\t// out\n        /* \"@openzeppelin/contracts/token/ERC20/ERC20.sol\":9701:10133  function _approve(address owner, address spender, uint256 value, bool emitEvent) internal virtual {... */\n    tag_207:\n        /* \"@openzeppelin/contracts/token/ERC20/ERC20.sol\":9830:9831  0 */\n      0x00\n        /* \"@openzeppelin/contracts/token/ERC20/ERC20.sol\":9813:9832  owner == address(0) */\n      0xffffffffffffffffffffffffffffffffffffffff\n      and\n        /* \"@openzeppelin/contracts/token/ERC20/ERC20.sol\":9813:9818  owner */\n      dup5\n        /* \"@openzeppelin/contracts/token/ERC20/ERC20.sol\":9813:9832  owner == address(0) */\n      0xffffffffffffffffffffffffffffffffffffffff\n      and\n      sub\n        /* \"@openzeppelin/contracts/token/ERC20/ERC20.sol\":9809:9898  if (owner == address(0)) {... */\n      tag_240\n      jumpi\n        /* \"@openzeppelin/contracts/token/ERC20/ERC20.sol\":9884:9885  0 */\n      0x00\n        /* \"@openzeppelin/contracts/token/ERC20/ERC20.sol\":9855:9887  ERC20InvalidApprover(address(0)) */\n      mload(0x40)\n      0xe602df0500000000000000000000000000000000000000000000000000000000\n      dup2\n      mstore\n      0x04\n      add\n      tag_241\n      swap2\n      swap1\n      tag_218\n      jump\t// in\n    tag_241:\n      mload(0x40)\n      dup1\n      swap2\n      sub\n      swap1\n      revert\n        /* \"@openzeppelin/contracts/token/ERC20/ERC20.sol\":9809:9898  if (owner == address(0)) {... */\n    tag_240:\n        /* \"@openzeppelin/contracts/token/ERC20/ERC20.sol\":9930:9931  0 */\n      0x00\n        /* \"@openzeppelin/contracts/token/ERC20/ERC20.sol\":9911:9932  spender == address(0) */\n      0xffffffffffffffffffffffffffffffffffffffff\n      and\n        /* \"@openzeppelin/contracts/token/ERC20/ERC20.sol\":9911:9918  spender */\n      dup4\n        /* \"@openzeppelin/contracts/token/ERC20/ERC20.sol\":9911:9932  spender == address(0) */\n      0xffffffffffffffffffffffffffffffffffffffff\n      and\n      sub\n        /* \"@openzeppelin/contracts/token/ERC20/ERC20.sol\":9907:9997  if (spender == address(0)) {... */\n      tag_242\n      jumpi\n        /* \"@openzeppelin/contracts/token/ERC20/ERC20.sol\":9983:9984  0 */\n      0x00\n        /* \"@openzeppelin/contracts/token/ERC20/ERC20.sol\":9955:9986  ERC20InvalidSpender(address(0)) */\n      mload(0x40)\n      0x94280d6200000000000000000000000000000000000000000000000000000000\n      dup2\n      mstore\n      0x04\n      add\n      tag_243\n      swap2\n      swap1\n      tag_218\n      jump\t// in\n    tag_243:\n      mload(0x40)\n      dup1\n      swap2\n      sub\n      swap1\n      revert\n        /* \"@openzeppelin/contracts/token/ERC20/ERC20.sol\":9907:9997  if (spender == address(0)) {... */\n    tag_242:\n        /* \"@openzeppelin/contracts/token/ERC20/ERC20.sol\":10036:10041  value */\n      dup2\n        /* \"@openzeppelin/contracts/token/ERC20/ERC20.sol\":10006:10017  _allowances */\n      0x01\n        /* \"@openzeppelin/contracts/token/ERC20/ERC20.sol\":10006:10024  _allowances[owner] */\n      0x00\n        /* \"@openzeppelin/contracts/token/ERC20/ERC20.sol\":10018:10023  owner */\n      dup7\n        /* \"@openzeppelin/contracts/token/ERC20/ERC20.sol\":10006:10024  _allowances[owner] */\n      0xffffffffffffffffffffffffffffffffffffffff\n      and\n      0xffffffffffffffffffffffffffffffffffffffff\n      and\n      dup2\n      mstore\n      0x20\n      add\n      swap1\n      dup2\n      mstore\n      0x20\n      add\n      0x00\n      keccak256\n        /* \"@openzeppelin/contracts/token/ERC20/ERC20.sol\":10006:10033  _allowances[owner][spender] */\n      0x00\n        /* \"@openzeppelin/contracts/token/ERC20/ERC20.sol\":10025:10032  spender */\n      dup6\n        /* \"@openzeppelin/contracts/token/ERC20/ERC20.sol\":10006:10033  _allowances[owner][spender] */\n      0xffffffffffffffffffffffffffffffffffffffff\n      and\n      0xffffffffffffffffffffffffffffffffffffffff\n      and\n      dup2\n      mstore\n      0x20\n      add\n      swap1\n      dup2\n      mstore\n      0x20\n      add\n      0x00\n      keccak256\n        /* \"@openzeppelin/contracts/token/ERC20/ERC20.sol\":10006:10041  _allowances[owner][spender] = value */\n      dup2\n      swap1\n      sstore\n      pop\n        /* \"@openzeppelin/contracts/token/ERC20/ERC20.sol\":10055:10064  emitEvent */\n      dup1\n        /* \"@openzeppelin/contracts/token/ERC20/ERC20.sol\":10051:10127  if (emitEvent) {... */\n      iszero\n      tag_244\n      jumpi\n        /* \"@openzeppelin/contracts/token/ERC20/ERC20.sol\":10101:10108  spender */\n      dup3\n        /* \"@openzeppelin/contracts/token/ERC20/ERC20.sol\":10085:10116  Approval(owner, spender, value) */\n      0xffffffffffffffffffffffffffffffffffffffff\n      and\n        /* \"@openzeppelin/contracts/token/ERC20/ERC20.sol\":10094:10099  owner */\n      dup5\n        /* \"@openzeppelin/contracts/token/ERC20/ERC20.sol\":10085:10116  Approval(owner, spender, value) */\n      0xffffffffffffffffffffffffffffffffffffffff\n      and\n      0x8c5be1e5ebec7d5bd14f71427d1e84f3dd0314c0f7b2291e5b200ac8c7c3b925\n        /* \"@openzeppelin/contracts/token/ERC20/ERC20.sol\":10110:10115  value */\n      dup5\n        /* \"@openzeppelin/contracts/token/ERC20/ERC20.sol\":10085:10116  Approval(owner, spender, value) */\n      mload(0x40)\n      tag_245\n      swap2\n      swap1\n      tag_34\n      jump\t// in\n    tag_245:\n      mload(0x40)\n      dup1\n      swap2\n      sub\n      swap1\n      log3\n        /* \"@openzeppelin/contracts/token/ERC20/ERC20.sol\":10051:10127  if (emitEvent) {... */\n    tag_244:\n        /* \"@openzeppelin/contracts/token/ERC20/ERC20.sol\":9701:10133  function _approve(address owner, address spender, uint256 value, bool emitEvent) internal virtual {... */\n      pop\n      pop\n      pop\n      pop\n      jump\t// out\n        /* \"@openzeppelin/contracts/token/ERC20/ERC20.sol\":6008:7115  function _update(address from, address to, uint256 value) internal virtual {... */\n    tag_222:\n        /* \"@openzeppelin/contracts/token/ERC20/ERC20.sol\":6113:6114  0 */\n      0x00\n        /* \"@openzeppelin/contracts/token/ERC20/ERC20.sol\":6097:6115  from == address(0) */\n      0xffffffffffffffffffffffffffffffffffffffff\n      and\n        /* \"@openzeppelin/contracts/token/ERC20/ERC20.sol\":6097:6101  from */\n      dup4\n        /* \"@openzeppelin/contracts/token/ERC20/ERC20.sol\":6097:6115  from == address(0) */\n      0xffffffffffffffffffffffffffffffffffffffff\n      and\n      sub\n        /* \"@openzeppelin/contracts/token/ERC20/ERC20.sol\":6093:6633  if (from == address(0)) {... */\n      tag_247\n      jumpi\n        /* \"@openzeppelin/contracts/token/ERC20/ERC20.sol\":6249:6254  value */\n      dup1\n        /* \"@openzeppelin/contracts/token/ERC20/ERC20.sol\":6233:6245  _totalSupply */\n      0x02\n      0x00\n        /* \"@openzeppelin/contracts/token/ERC20/ERC20.sol\":6233:6254  _totalSupply += value */\n      dup3\n      dup3\n      sload\n      tag_248\n      swap2\n      swap1\n      tag_108\n      jump\t// in\n    tag_248:\n      swap3\n      pop\n      pop\n      dup2\n      swap1\n      sstore\n      pop\n        /* \"@openzeppelin/contracts/token/ERC20/ERC20.sol\":6093:6633  if (from == address(0)) {... */\n      jump(tag_249)\n    tag_247:\n        /* \"@openzeppelin/contracts/token/ERC20/ERC20.sol\":6285:6304  uint256 fromBalance */\n      0x00\n        /* \"@openzeppelin/contracts/token/ERC20/ERC20.sol\":6307:6316  _balances */\n      dup1\n        /* \"@openzeppelin/contracts/token/ERC20/ERC20.sol\":6307:6322  _balances[from] */\n      0x00\n        /* \"@openzeppelin/contracts/token/ERC20/ERC20.sol\":6317:6321  from */\n      dup6\n        /* \"@openzeppelin/contracts/token/ERC20/ERC20.sol\":6307:6322  _balances[from] */\n      0xffffffffffffffffffffffffffffffffffffffff\n      and\n      0xffffffffffffffffffffffffffffffffffffffff\n      and\n      dup2\n      mstore\n      0x20\n      add\n      swap1\n      dup2\n      mstore\n      0x20\n      add\n      0x00\n      keccak256\n      sload\n        /* \"@openzeppelin/contracts/token/ERC20/ERC20.sol\":6285:6322  uint256 fromBalance = _balances[from] */\n      swap1\n      pop\n        /* \"@openzeppelin/contracts/token/ERC20/ERC20.sol\":6354:6359  value */\n      dup2\n        /* \"@openzeppelin/contracts/token/ERC20/ERC20.sol\":6340:6351  fromBalance */\n      dup2\n        /* \"@openzeppelin/contracts/token/ERC20/ERC20.sol\":6340:6359  fromBalance < value */\n      lt\n        /* \"@openzeppelin/contracts/token/ERC20/ERC20.sol\":6336:6451  if (fromBalance < value) {... */\n      iszero\n      tag_250\n      jumpi\n        /* \"@openzeppelin/contracts/token/ERC20/ERC20.sol\":6411:6415  from */\n      dup4\n        /* \"@openzeppelin/contracts/token/ERC20/ERC20.sol\":6417:6428  fromBalance */\n      dup2\n        /* \"@openzeppelin/contracts/token/ERC20/ERC20.sol\":6430:6435  value */\n      dup4\n        /* \"@openzeppelin/contracts/token/ERC20/ERC20.sol\":6386:6436  ERC20InsufficientBalance(from, fromBalance, value) */\n      mload(0x40)\n      0xe450d38c00000000000000000000000000000000000000000000000000000000\n      dup2\n      mstore\n      0x04\n      add\n      tag_251\n      swap4\n      swap3\n      swap2\n      swap1\n      tag_213\n      jump\t// in\n    tag_251:\n      mload(0x40)\n      dup1\n      swap2\n      sub\n      swap1\n      revert\n        /* \"@openzeppelin/contracts/token/ERC20/ERC20.sol\":6336:6451  if (fromBalance < value) {... */\n    tag_250:\n        /* \"@openzeppelin/contracts/token/ERC20/ERC20.sol\":6603:6608  value */\n      dup2\n        /* \"@openzeppelin/contracts/token/ERC20/ERC20.sol\":6589:6600  fromBalance */\n      dup2\n        /* \"@openzeppelin/contracts/token/ERC20/ERC20.sol\":6589:6608  fromBalance - value */\n      sub\n        /* \"@openzeppelin/contracts/token/ERC20/ERC20.sol\":6571:6580  _balances */\n      0x00\n        /* \"@openzeppelin/contracts/token/ERC20/ERC20.sol\":6571:6586  _balances[from] */\n      dup1\n        /* \"@openzeppelin/contracts/token/ERC20/ERC20.sol\":6581:6585  from */\n      dup7\n        /* \"@openzeppelin/contracts/token/ERC20/ERC20.sol\":6571:6586  _balances[from] */\n      0xffffffffffffffffffffffffffffffffffffffff\n      and\n      0xffffffffffffffffffffffffffffffffffffffff\n      and\n      dup2\n      mstore\n      0x20\n      add\n      swap1\n      dup2\n      mstore\n      0x20\n      add\n      0x00\n      keccak256\n        /* \"@openzeppelin/contracts/token/ERC20/ERC20.sol\":6571:6608  _balances[from] = fromBalance - value */\n      dup2\n      swap1\n      sstore\n      pop\n        /* \"@openzeppelin/contracts/token/ERC20/ERC20.sol\":6271:6633  {... */\n      pop\n        /* \"@openzeppelin/contracts/token/ERC20/ERC20.sol\":6093:6633  if (from == address(0)) {... */\n    tag_249:\n        /* \"@openzeppelin/contracts/token/ERC20/ERC20.sol\":6661:6662  0 */\n      0x00\n        /* \"@openzeppelin/contracts/token/ERC20/ERC20.sol\":6647:6663  to == address(0) */\n      0xffffffffffffffffffffffffffffffffffffffff\n      and\n        /* \"@openzeppelin/contracts/token/ERC20/ERC20.sol\":6647:6649  to */\n      dup3\n        /* \"@openzeppelin/contracts/token/ERC20/ERC20.sol\":6647:6663  to == address(0) */\n      0xffffffffffffffffffffffffffffffffffffffff\n      and\n      sub\n        /* \"@openzeppelin/contracts/token/ERC20/ERC20.sol\":6643:7068  if (to == address(0)) {... */\n      tag_252\n      jumpi\n        /* \"@openzeppelin/contracts/token/ERC20/ERC20.sol\":6826:6831  value */\n      dup1\n        /* \"@openzeppelin/contracts/token/ERC20/ERC20.sol\":6810:6822  _totalSupply */\n      0x02\n      0x00\n        /* \"@openzeppelin/contracts/token/ERC20/ERC20.sol\":6810:6831  _totalSupply -= value */\n      dup3\n      dup3\n      sload\n      sub\n      swap3\n      pop\n      pop\n      dup2\n      swap1\n      sstore\n      pop\n        /* \"@openzeppelin/contracts/token/ERC20/ERC20.sol\":6643:7068  if (to == address(0)) {... */\n      jump(tag_253)\n    tag_252:\n        /* \"@openzeppelin/contracts/token/ERC20/ERC20.sol\":7038:7043  value */\n      dup1\n        /* \"@openzeppelin/contracts/token/ERC20/ERC20.sol\":7021:7030  _balances */\n      0x00\n        /* \"@openzeppelin/contracts/token/ERC20/ERC20.sol\":7021:7034  _balances[to] */\n      dup1\n        /* \"@openzeppelin/contracts/token/ERC20/ERC20.sol\":7031:7033  to */\n      dup5\n        /* \"@openzeppelin/contracts/token/ERC20/ERC20.sol\":7021:7034  _balances[to] */\n      0xffffffffffffffffffffffffffffffffffffffff\n      and\n      0xffffffffffffffffffffffffffffffffffffffff\n      and\n      dup2\n      mstore\n      0x20\n      add\n      swap1\n      dup2\n      mstore\n      0x20\n      add\n      0x00\n      keccak256\n      0x00\n        /* \"@openzeppelin/contracts/token/ERC20/ERC20.sol\":7021:7043  _balances[to] += value */\n      dup3\n      dup3\n      sload\n      add\n      swap3\n      pop\n      pop\n      dup2\n      swap1\n      sstore\n      pop\n        /* \"@openzeppelin/contracts/token/ERC20/ERC20.sol\":6643:7068  if (to == address(0)) {... */\n    tag_253:\n        /* \"@openzeppelin/contracts/token/ERC20/ERC20.sol\":7098:7100  to */\n      dup2\n        /* \"@openzeppelin/contracts/token/ERC20/ERC20.sol\":7083:7108  Transfer(from, to, value) */\n      0xffffffffffffffffffffffffffffffffffffffff\n      and\n        /* \"@openzeppelin/contracts/token/ERC20/ERC20.sol\":7092:7096  from */\n      dup4\n        /* \"@openzeppelin/contracts/token/ERC20/ERC20.sol\":7083:7108  Transfer(from, to, value) */\n      0xffffffffffffffffffffffffffffffffffffffff\n      and\n      0xddf252ad1be2c89b69c2b068fc378daa952ba7f163c4a11628f55a4df523b3ef\n        /* \"@openzeppelin/contracts/token/ERC20/ERC20.sol\":7102:7107  value */\n      dup4\n        /* \"@openzeppelin/contracts/token/ERC20/ERC20.sol\":7083:7108  Transfer(from, to, value) */\n      mload(0x40)\n      tag_254\n      swap2\n      swap1\n      tag_34\n      jump\t// in\n    tag_254:\n      mload(0x40)\n      dup1\n      swap2\n      sub\n      swap1\n      log3\n        /* \"@openzeppelin/contracts/token/ERC20/ERC20.sol\":6008:7115  function _update(address from, address to, uint256 value) internal virtual {... */\n      pop\n      pop\n      pop\n      jump\t// out\n        /* \"@openzeppelin/contracts/utils/structs/EnumerableSet.sol\":4264:4393  function _contains(Set storage set, bytes32 value) private view returns (bool) {... */\n    tag_229:\n        /* \"@openzeppelin/contracts/utils/structs/EnumerableSet.sol\":4337:4341  bool */\n      0x00\n        /* \"@openzeppelin/contracts/utils/structs/EnumerableSet.sol\":4385:4386  0 */\n      dup1\n        /* \"@openzeppelin/contracts/utils/structs/EnumerableSet.sol\":4360:4363  set */\n      dup4\n        /* \"@openzeppelin/contracts/utils/structs/EnumerableSet.sol\":4360:4374  set._positions */\n      0x01\n      add\n        /* \"@openzeppelin/contracts/utils/structs/EnumerableSet.sol\":4360:4381  set._positions[value] */\n      0x00\n        /* \"@openzeppelin/contracts/utils/structs/EnumerableSet.sol\":4375:4380  value */\n      dup5\n        /* \"@openzeppelin/contracts/utils/structs/EnumerableSet.sol\":4360:4381  set._positions[value] */\n      dup2\n      mstore\n      0x20\n      add\n      swap1\n      dup2\n      mstore\n      0x20\n      add\n      0x00\n      keccak256\n      sload\n        /* \"@openzeppelin/contracts/utils/structs/EnumerableSet.sol\":4360:4386  set._positions[value] != 0 */\n      eq\n      iszero\n        /* \"@openzeppelin/contracts/utils/structs/EnumerableSet.sol\":4353:4386  return set._positions[value] != 0 */\n      swap1\n      pop\n        /* \"@openzeppelin/contracts/utils/structs/EnumerableSet.sol\":4264:4393  function _contains(Set storage set, bytes32 value) private view returns (bool) {... */\n      swap3\n      swap2\n      pop\n      pop\n      jump\t// out\n        /* \"@openzeppelin/contracts/utils/structs/EnumerableSet.sol\":2241:2647  function _add(Set storage set, bytes32 value) private returns (bool) {... */\n    tag_232:\n        /* \"@openzeppelin/contracts/utils/structs/EnumerableSet.sol\":2304:2308  bool */\n      0x00\n        /* \"@openzeppelin/contracts/utils/structs/EnumerableSet.sol\":2325:2346  _contains(set, value) */\n      tag_257\n        /* \"@openzeppelin/contracts/utils/structs/EnumerableSet.sol\":2335:2338  set */\n      dup4\n        /* \"@openzeppelin/contracts/utils/structs/EnumerableSet.sol\":2340:2345  value */\n      dup4\n        /* \"@openzeppelin/contracts/utils/structs/EnumerableSet.sol\":2325:2334  _contains */\n      tag_229\n        /* \"@openzeppelin/contracts/utils/structs/EnumerableSet.sol\":2325:2346  _contains(set, value) */\n      jump\t// in\n    tag_257:\n        /* \"@openzeppelin/contracts/utils/structs/EnumerableSet.sol\":2320:2641  if (!_contains(set, value)) {... */\n      tag_258\n      jumpi\n        /* \"@openzeppelin/contracts/utils/structs/EnumerableSet.sol\":2362:2365  set */\n      dup3\n        /* \"@openzeppelin/contracts/utils/structs/EnumerableSet.sol\":2362:2373  set._values */\n      0x00\n      add\n        /* \"@openzeppelin/contracts/utils/structs/EnumerableSet.sol\":2379:2384  value */\n      dup3\n        /* \"@openzeppelin/contracts/utils/structs/EnumerableSet.sol\":2362:2385  set._values.push(value) */\n      swap1\n      dup1\n      0x01\n      dup2\n      sload\n      add\n      dup1\n      dup3\n      sstore\n      dup1\n      swap2\n      pop\n      pop\n      0x01\n      swap1\n      sub\n      swap1\n      0x00\n      mstore\n      keccak256(0x00, 0x20)\n      add\n      0x00\n      swap1\n      swap2\n      swap1\n      swap2\n      swap1\n      swap2\n      pop\n      sstore\n        /* \"@openzeppelin/contracts/utils/structs/EnumerableSet.sol\":2544:2547  set */\n      dup3\n        /* \"@openzeppelin/contracts/utils/structs/EnumerableSet.sol\":2544:2555  set._values */\n      0x00\n      add\n        /* \"@openzeppelin/contracts/utils/structs/EnumerableSet.sol\":2544:2562  set._values.length */\n      dup1\n      sload\n      swap1\n      pop\n        /* \"@openzeppelin/contracts/utils/structs/EnumerableSet.sol\":2520:2523  set */\n      dup4\n        /* \"@openzeppelin/contracts/utils/structs/EnumerableSet.sol\":2520:2534  set._positions */\n      0x01\n      add\n        /* \"@openzeppelin/contracts/utils/structs/EnumerableSet.sol\":2520:2541  set._positions[value] */\n      0x00\n        /* \"@openzeppelin/contracts/utils/structs/EnumerableSet.sol\":2535:2540  value */\n      dup5\n        /* \"@openzeppelin/contracts/utils/structs/EnumerableSet.sol\":2520:2541  set._positions[value] */\n      dup2\n      mstore\n      0x20\n      add\n      swap1\n      dup2\n      mstore\n      0x20\n      add\n      0x00\n      keccak256\n        /* \"@openzeppelin/contracts/utils/structs/EnumerableSet.sol\":2520:2562  set._positions[value] = set._values.length */\n      dup2\n      swap1\n      sstore\n      pop\n        /* \"@openzeppelin/contracts/utils/structs/EnumerableSet.sol\":2583:2587  true */\n      0x01\n        /* \"@openzeppelin/contracts/utils/structs/EnumerableSet.sol\":2576:2587  return true */\n      swap1\n      pop\n      jump(tag_256)\n        /* \"@openzeppelin/contracts/utils/structs/EnumerableSet.sol\":2320:2641  if (!_contains(set, value)) {... */\n    tag_258:\n        /* \"@openzeppelin/contracts/utils/structs/EnumerableSet.sol\":2625:2630  false */\n      0x00\n        /* \"@openzeppelin/contracts/utils/structs/EnumerableSet.sol\":2618:2630  return false */\n      swap1\n      pop\n        /* \"@openzeppelin/contracts/utils/structs/EnumerableSet.sol\":2241:2647  function _add(Set storage set, bytes32 value) private returns (bool) {... */\n    tag_256:\n      swap3\n      swap2\n      pop\n      pop\n      jump\t// out\n        /* \"@openzeppelin/contracts/utils/structs/EnumerableSet.sol\":4474:4581  function _length(Set storage set) private view returns (uint256) {... */\n    tag_235:\n        /* \"@openzeppelin/contracts/utils/structs/EnumerableSet.sol\":4530:4537  uint256 */\n      0x00\n        /* \"@openzeppelin/contracts/utils/structs/EnumerableSet.sol\":4556:4559  set */\n      dup2\n        /* \"@openzeppelin/contracts/utils/structs/EnumerableSet.sol\":4556:4567  set._values */\n      0x00\n      add\n        /* \"@openzeppelin/contracts/utils/structs/EnumerableSet.sol\":4556:4574  set._values.length */\n      dup1\n      sload\n      swap1\n      pop\n        /* \"@openzeppelin/contracts/utils/structs/EnumerableSet.sol\":4549:4574  return set._values.length */\n      swap1\n      pop\n        /* \"@openzeppelin/contracts/utils/structs/EnumerableSet.sol\":4474:4581  function _length(Set storage set) private view returns (uint256) {... */\n      swap2\n      swap1\n      pop\n      jump\t// out\n        /* \"@openzeppelin/contracts/utils/structs/EnumerableSet.sol\":4923:5041  function _at(Set storage set, uint256 index) private view returns (bytes32) {... */\n    tag_238:\n        /* \"@openzeppelin/contracts/utils/structs/EnumerableSet.sol\":4990:4997  bytes32 */\n      0x00\n        /* \"@openzeppelin/contracts/utils/structs/EnumerableSet.sol\":5016:5019  set */\n      dup3\n        /* \"@openzeppelin/contracts/utils/structs/EnumerableSet.sol\":5016:5027  set._values */\n      0x00\n      add\n        /* \"@openzeppelin/contracts/utils/structs/EnumerableSet.sol\":5028:5033  index */\n      dup3\n        /* \"@openzeppelin/contracts/utils/structs/EnumerableSet.sol\":5016:5034  set._values[index] */\n      dup2\n      sload\n      dup2\n      lt\n      tag_263\n      jumpi\n      tag_264\n      tag_132\n      jump\t// in\n    tag_264:\n    tag_263:\n      swap1\n      0x00\n      mstore\n      keccak256(0x00, 0x20)\n      add\n      sload\n        /* \"@openzeppelin/contracts/utils/structs/EnumerableSet.sol\":5009:5034  return set._values[index] */\n      swap1\n      pop\n        /* \"@openzeppelin/contracts/utils/structs/EnumerableSet.sol\":4923:5041  function _at(Set storage set, uint256 index) private view returns (bytes32) {... */\n      swap3\n      swap2\n      pop\n      pop\n      jump\t// out\n    tag_173:\n      mload(0x40)\n      dup1\n      0x0120\n      add\n      0x40\n      mstore\n      dup1\n      0x60\n      dup2\n      mstore\n      0x20\n      add\n      0x60\n      dup2\n      mstore\n      0x20\n      add\n      0x00\n      dup2\n      mstore\n      0x20\n      add\n      0x00\n      dup2\n      mstore\n      0x20\n      add\n      0x00\n      dup2\n      mstore\n      0x20\n      add\n      0x00\n      dup2\n      mstore\n      0x20\n      add\n      0x00\n      dup2\n      mstore\n      0x20\n      add\n      iszero(iszero(0x00))\n      dup2\n      mstore\n      0x20\n      add\n      iszero(iszero(0x00))\n      dup2\n      mstore\n      pop\n      swap1\n      jump\t// out\n        /* \"#utility.yul\":7:106   */\n    tag_266:\n        /* \"#utility.yul\":59:65   */\n      0x00\n        /* \"#utility.yul\":93:98   */\n      dup2\n        /* \"#utility.yul\":87:99   */\n      mload\n        /* \"#utility.yul\":77:99   */\n      swap1\n      pop\n        /* \"#utility.yul\":7:106   */\n      swap2\n      swap1\n      pop\n      jump\t// out\n        /* \"#utility.yul\":112:281   */\n    tag_267:\n        /* \"#utility.yul\":196:207   */\n      0x00\n        /* \"#utility.yul\":230:236   */\n      dup3\n        /* \"#utility.yul\":225:228   */\n      dup3\n        /* \"#utility.yul\":218:237   */\n      mstore\n        /* \"#utility.yul\":270:274   */\n      0x20\n        /* \"#utility.yul\":265:268   */\n      dup3\n        /* \"#utility.yul\":261:275   */\n      add\n        /* \"#utility.yul\":246:275   */\n      swap1\n      pop\n        /* \"#utility.yul\":112:281   */\n      swap3\n      swap2\n      pop\n      pop\n      jump\t// out\n        /* \"#utility.yul\":287:426   */\n    tag_268:\n        /* \"#utility.yul\":376:382   */\n      dup3\n        /* \"#utility.yul\":371:374   */\n      dup2\n        /* \"#utility.yul\":366:369   */\n      dup4\n        /* \"#utility.yul\":360:383   */\n      mcopy\n        /* \"#utility.yul\":417:418   */\n      0x00\n        /* \"#utility.yul\":408:414   */\n      dup4\n        /* \"#utility.yul\":403:406   */\n      dup4\n        /* \"#utility.yul\":399:415   */\n      add\n        /* \"#utility.yul\":392:419   */\n      mstore\n        /* \"#utility.yul\":287:426   */\n      pop\n      pop\n      pop\n      jump\t// out\n        /* \"#utility.yul\":432:534   */\n    tag_269:\n        /* \"#utility.yul\":473:479   */\n      0x00\n        /* \"#utility.yul\":524:526   */\n      0x1f\n        /* \"#utility.yul\":520:527   */\n      not\n        /* \"#utility.yul\":515:517   */\n      0x1f\n        /* \"#utility.yul\":508:513   */\n      dup4\n        /* \"#utility.yul\":504:518   */\n      add\n        /* \"#utility.yul\":500:528   */\n      and\n        /* \"#utility.yul\":490:528   */\n      swap1\n      pop\n        /* \"#utility.yul\":432:534   */\n      swap2\n      swap1\n      pop\n      jump\t// out\n        /* \"#utility.yul\":540:917   */\n    tag_270:\n        /* \"#utility.yul\":628:631   */\n      0x00\n        /* \"#utility.yul\":656:695   */\n      tag_331\n        /* \"#utility.yul\":689:694   */\n      dup3\n        /* \"#utility.yul\":656:695   */\n      tag_266\n      jump\t// in\n    tag_331:\n        /* \"#utility.yul\":711:782   */\n      tag_332\n        /* \"#utility.yul\":775:781   */\n      dup2\n        /* \"#utility.yul\":770:773   */\n      dup6\n        /* \"#utility.yul\":711:782   */\n      tag_267\n      jump\t// in\n    tag_332:\n        /* \"#utility.yul\":704:782   */\n      swap4\n      pop\n        /* \"#utility.yul\":791:856   */\n      tag_333\n        /* \"#utility.yul\":849:855   */\n      dup2\n        /* \"#utility.yul\":844:847   */\n      dup6\n        /* \"#utility.yul\":837:841   */\n      0x20\n        /* \"#utility.yul\":830:835   */\n      dup7\n        /* \"#utility.yul\":826:842   */\n      add\n        /* \"#utility.yul\":791:856   */\n      tag_268\n      jump\t// in\n    tag_333:\n        /* \"#utility.yul\":881:910   */\n      tag_334\n        /* \"#utility.yul\":903:909   */\n      dup2\n        /* \"#utility.yul\":881:910   */\n      tag_269\n      jump\t// in\n    tag_334:\n        /* \"#utility.yul\":876:879   */\n      dup5\n        /* \"#utility.yul\":872:911   */\n      add\n        /* \"#utility.yul\":865:911   */\n      swap2\n      pop\n        /* \"#utility.yul\":632:917   */\n      pop\n        /* \"#utility.yul\":540:917   */\n      swap3\n      swap2\n      pop\n      pop\n      jump\t// out\n        /* \"#utility.yul\":923:1236   */\n    tag_24:\n        /* \"#utility.yul\":1036:1040   */\n      0x00\n        /* \"#utility.yul\":1074:1076   */\n      0x20\n        /* \"#utility.yul\":1063:1072   */\n      dup3\n        /* \"#utility.yul\":1059:1077   */\n      add\n        /* \"#utility.yul\":1051:1077   */\n      swap1\n      pop\n        /* \"#utility.yul\":1123:1132   */\n      dup2\n        /* \"#utility.yul\":1117:1121   */\n      dup2\n        /* \"#utility.yul\":1113:1133   */\n      sub\n        /* \"#utility.yul\":1109:1110   */\n      0x00\n        /* \"#utility.yul\":1098:1107   */\n      dup4\n        /* \"#utility.yul\":1094:1111   */\n      add\n        /* \"#utility.yul\":1087:1134   */\n      mstore\n        /* \"#utility.yul\":1151:1229   */\n      tag_336\n        /* \"#utility.yul\":1224:1228   */\n      dup2\n        /* \"#utility.yul\":1215:1221   */\n      dup5\n        /* \"#utility.yul\":1151:1229   */\n      tag_270\n      jump\t// in\n    tag_336:\n        /* \"#utility.yul\":1143:1229   */\n      swap1\n      pop\n        /* \"#utility.yul\":923:1236   */\n      swap3\n      swap2\n      pop\n      pop\n      jump\t// out\n        /* \"#utility.yul\":1323:1440   */\n    tag_272:\n        /* \"#utility.yul\":1432:1433   */\n      0x00\n        /* \"#utility.yul\":1429:1430   */\n      dup1\n        /* \"#utility.yul\":1422:1434   */\n      revert\n        /* \"#utility.yul\":1446:1563   */\n    tag_273:\n        /* \"#utility.yul\":1555:1556   */\n      0x00\n        /* \"#utility.yul\":1552:1553   */\n      dup1\n        /* \"#utility.yul\":1545:1557   */\n      revert\n        /* \"#utility.yul\":1569:1695   */\n    tag_274:\n        /* \"#utility.yul\":1606:1613   */\n      0x00\n        /* \"#utility.yul\":1646:1688   */\n      0xffffffffffffffffffffffffffffffffffffffff\n        /* \"#utility.yul\":1639:1644   */\n      dup3\n        /* \"#utility.yul\":1635:1689   */\n      and\n        /* \"#utility.yul\":1624:1689   */\n      swap1\n      pop\n        /* \"#utility.yul\":1569:1695   */\n      swap2\n      swap1\n      pop\n      jump\t// out\n        /* \"#utility.yul\":1701:1797   */\n    tag_275:\n        /* \"#utility.yul\":1738:1745   */\n      0x00\n        /* \"#utility.yul\":1767:1791   */\n      tag_342\n        /* \"#utility.yul\":1785:1790   */\n      dup3\n        /* \"#utility.yul\":1767:1791   */\n      tag_274\n      jump\t// in\n    tag_342:\n        /* \"#utility.yul\":1756:1791   */\n      swap1\n      pop\n        /* \"#utility.yul\":1701:1797   */\n      swap2\n      swap1\n      pop\n      jump\t// out\n        /* \"#utility.yul\":1803:1925   */\n    tag_276:\n        /* \"#utility.yul\":1876:1900   */\n      tag_344\n        /* \"#utility.yul\":1894:1899   */\n      dup2\n        /* \"#utility.yul\":1876:1900   */\n      tag_275\n      jump\t// in\n    tag_344:\n        /* \"#utility.yul\":1869:1874   */\n      dup2\n        /* \"#utility.yul\":1866:1901   */\n      eq\n        /* \"#utility.yul\":1856:1919   */\n      tag_345\n      jumpi\n        /* \"#utility.yul\":1915:1916   */\n      0x00\n        /* \"#utility.yul\":1912:1913   */\n      dup1\n        /* \"#utility.yul\":1905:1917   */\n      revert\n        /* \"#utility.yul\":1856:1919   */\n    tag_345:\n        /* \"#utility.yul\":1803:1925   */\n      pop\n      jump\t// out\n        /* \"#utility.yul\":1931:2070   */\n    tag_277:\n        /* \"#utility.yul\":1977:1982   */\n      0x00\n        /* \"#utility.yul\":2015:2021   */\n      dup2\n        /* \"#utility.yul\":2002:2022   */\n      calldataload\n        /* \"#utility.yul\":1993:2022   */\n      swap1\n      pop\n        /* \"#utility.yul\":2031:2064   */\n      tag_347\n        /* \"#utility.yul\":2058:2063   */\n      dup2\n        /* \"#utility.yul\":2031:2064   */\n      tag_276\n      jump\t// in\n    tag_347:\n        /* \"#utility.yul\":1931:2070   */\n      swap3\n      swap2\n      pop\n      pop\n      jump\t// out\n        /* \"#utility.yul\":2076:2153   */\n    tag_278:\n        /* \"#utility.yul\":2113:2120   */\n      0x00\n        /* \"#utility.yul\":2142:2147   */\n      dup2\n        /* \"#utility.yul\":2131:2147   */\n      swap1\n      pop\n        /* \"#utility.yul\":2076:2153   */\n      swap2\n      swap1\n      pop\n      jump\t// out\n        /* \"#utility.yul\":2159:2281   */\n    tag_279:\n        /* \"#utility.yul\":2232:2256   */\n      tag_350\n        /* \"#utility.yul\":2250:2255   */\n      dup2\n        /* \"#utility.yul\":2232:2256   */\n      tag_278\n      jump\t// in\n    tag_350:\n        /* \"#utility.yul\":2225:2230   */\n      dup2\n        /* \"#utility.yul\":2222:2257   */\n      eq\n        /* \"#utility.yul\":2212:2275   */\n      tag_351\n      jumpi\n        /* \"#utility.yul\":2271:2272   */\n      0x00\n        /* \"#utility.yul\":2268:2269   */\n      dup1\n        /* \"#utility.yul\":2261:2273   */\n      revert\n        /* \"#utility.yul\":2212:2275   */\n    tag_351:\n        /* \"#utility.yul\":2159:2281   */\n      pop\n      jump\t// out\n        /* \"#utility.yul\":2287:2426   */\n    tag_280:\n        /* \"#utility.yul\":2333:2338   */\n      0x00\n        /* \"#utility.yul\":2371:2377   */\n      dup2\n        /* \"#utility.yul\":2358:2378   */\n      calldataload\n        /* \"#utility.yul\":2349:2378   */\n      swap1\n      pop\n        /* \"#utility.yul\":2387:2420   */\n      tag_353\n        /* \"#utility.yul\":2414:2419   */\n      dup2\n        /* \"#utility.yul\":2387:2420   */\n      tag_279\n      jump\t// in\n    tag_353:\n        /* \"#utility.yul\":2287:2426   */\n      swap3\n      swap2\n      pop\n      pop\n      jump\t// out\n        /* \"#utility.yul\":2432:2906   */\n    tag_27:\n        /* \"#utility.yul\":2500:2506   */\n      0x00\n        /* \"#utility.yul\":2508:2514   */\n      dup1\n        /* \"#utility.yul\":2557:2559   */\n      0x40\n        /* \"#utility.yul\":2545:2554   */\n      dup4\n        /* \"#utility.yul\":2536:2543   */\n      dup6\n        /* \"#utility.yul\":2532:2555   */\n      sub\n        /* \"#utility.yul\":2528:2560   */\n      slt\n        /* \"#utility.yul\":2525:2644   */\n      iszero\n      tag_355\n      jumpi\n        /* \"#utility.yul\":2563:2642   */\n      tag_356\n      tag_272\n      jump\t// in\n    tag_356:\n        /* \"#utility.yul\":2525:2644   */\n    tag_355:\n        /* \"#utility.yul\":2683:2684   */\n      0x00\n        /* \"#utility.yul\":2708:2761   */\n      tag_357\n        /* \"#utility.yul\":2753:2760   */\n      dup6\n        /* \"#utility.yul\":2744:2750   */\n      dup3\n        /* \"#utility.yul\":2733:2742   */\n      dup7\n        /* \"#utility.yul\":2729:2751   */\n      add\n        /* \"#utility.yul\":2708:2761   */\n      tag_277\n      jump\t// in\n    tag_357:\n        /* \"#utility.yul\":2698:2761   */\n      swap3\n      pop\n        /* \"#utility.yul\":2654:2771   */\n      pop\n        /* \"#utility.yul\":2810:2812   */\n      0x20\n        /* \"#utility.yul\":2836:2889   */\n      tag_358\n        /* \"#utility.yul\":2881:2888   */\n      dup6\n        /* \"#utility.yul\":2872:2878   */\n      dup3\n        /* \"#utility.yul\":2861:2870   */\n      dup7\n        /* \"#utility.yul\":2857:2879   */\n      add\n        /* \"#utility.yul\":2836:2889   */\n      tag_280\n      jump\t// in\n    tag_358:\n        /* \"#utility.yul\":2826:2889   */\n      swap2\n      pop\n        /* \"#utility.yul\":2781:2899   */\n      pop\n        /* \"#utility.yul\":2432:2906   */\n      swap3\n      pop\n      swap3\n      swap1\n      pop\n      jump\t// out\n        /* \"#utility.yul\":2912:3002   */\n    tag_281:\n        /* \"#utility.yul\":2946:2953   */\n      0x00\n        /* \"#utility.yul\":2989:2994   */\n      dup2\n        /* \"#utility.yul\":2982:2995   */\n      iszero\n        /* \"#utility.yul\":2975:2996   */\n      iszero\n        /* \"#utility.yul\":2964:2996   */\n      swap1\n      pop\n        /* \"#utility.yul\":2912:3002   */\n      swap2\n      swap1\n      pop\n      jump\t// out\n        /* \"#utility.yul\":3008:3117   */\n    tag_282:\n        /* \"#utility.yul\":3089:3110   */\n      tag_361\n        /* \"#utility.yul\":3104:3109   */\n      dup2\n        /* \"#utility.yul\":3089:3110   */\n      tag_281\n      jump\t// in\n    tag_361:\n        /* \"#utility.yul\":3084:3087   */\n      dup3\n        /* \"#utility.yul\":3077:3111   */\n      mstore\n        /* \"#utility.yul\":3008:3117   */\n      pop\n      pop\n      jump\t// out\n        /* \"#utility.yul\":3123:3333   */\n    tag_30:\n        /* \"#utility.yul\":3210:3214   */\n      0x00\n        /* \"#utility.yul\":3248:3250   */\n      0x20\n        /* \"#utility.yul\":3237:3246   */\n      dup3\n        /* \"#utility.yul\":3233:3251   */\n      add\n        /* \"#utility.yul\":3225:3251   */\n      swap1\n      pop\n        /* \"#utility.yul\":3261:3326   */\n      tag_363\n        /* \"#utility.yul\":3323:3324   */\n      0x00\n        /* \"#utility.yul\":3312:3321   */\n      dup4\n        /* \"#utility.yul\":3308:3325   */\n      add\n        /* \"#utility.yul\":3299:3305   */\n      dup5\n        /* \"#utility.yul\":3261:3326   */\n      tag_282\n      jump\t// in\n    tag_363:\n        /* \"#utility.yul\":3123:3333   */\n      swap3\n      swap2\n      pop\n      pop\n      jump\t// out\n        /* \"#utility.yul\":3339:3457   */\n    tag_283:\n        /* \"#utility.yul\":3426:3450   */\n      tag_365\n        /* \"#utility.yul\":3444:3449   */\n      dup2\n        /* \"#utility.yul\":3426:3450   */\n      tag_278\n      jump\t// in\n    tag_365:\n        /* \"#utility.yul\":3421:3424   */\n      dup3\n        /* \"#utility.yul\":3414:3451   */\n      mstore\n        /* \"#utility.yul\":3339:3457   */\n      pop\n      pop\n      jump\t// out\n        /* \"#utility.yul\":3463:3685   */\n    tag_34:\n        /* \"#utility.yul\":3556:3560   */\n      0x00\n        /* \"#utility.yul\":3594:3596   */\n      0x20\n        /* \"#utility.yul\":3583:3592   */\n      dup3\n        /* \"#utility.yul\":3579:3597   */\n      add\n        /* \"#utility.yul\":3571:3597   */\n      swap1\n      pop\n        /* \"#utility.yul\":3607:3678   */\n      tag_367\n        /* \"#utility.yul\":3675:3676   */\n      0x00\n        /* \"#utility.yul\":3664:3673   */\n      dup4\n        /* \"#utility.yul\":3660:3677   */\n      add\n        /* \"#utility.yul\":3651:3657   */\n      dup5\n        /* \"#utility.yul\":3607:3678   */\n      tag_283\n      jump\t// in\n    tag_367:\n        /* \"#utility.yul\":3463:3685   */\n      swap3\n      swap2\n      pop\n      pop\n      jump\t// out\n        /* \"#utility.yul\":3691:4310   */\n    tag_37:\n        /* \"#utility.yul\":3768:3774   */\n      0x00\n        /* \"#utility.yul\":3776:3782   */\n      dup1\n        /* \"#utility.yul\":3784:3790   */\n      0x00\n        /* \"#utility.yul\":3833:3835   */\n      0x60\n        /* \"#utility.yul\":3821:3830   */\n      dup5\n        /* \"#utility.yul\":3812:3819   */\n      dup7\n        /* \"#utility.yul\":3808:3831   */\n      sub\n        /* \"#utility.yul\":3804:3836   */\n      slt\n        /* \"#utility.yul\":3801:3920   */\n      iszero\n      tag_369\n      jumpi\n        /* \"#utility.yul\":3839:3918   */\n      tag_370\n      tag_272\n      jump\t// in\n    tag_370:\n        /* \"#utility.yul\":3801:3920   */\n    tag_369:\n        /* \"#utility.yul\":3959:3960   */\n      0x00\n        /* \"#utility.yul\":3984:4037   */\n      tag_371\n        /* \"#utility.yul\":4029:4036   */\n      dup7\n        /* \"#utility.yul\":4020:4026   */\n      dup3\n        /* \"#utility.yul\":4009:4018   */\n      dup8\n        /* \"#utility.yul\":4005:4027   */\n      add\n        /* \"#utility.yul\":3984:4037   */\n      tag_277\n      jump\t// in\n    tag_371:\n        /* \"#utility.yul\":3974:4037   */\n      swap4\n      pop\n        /* \"#utility.yul\":3930:4047   */\n      pop\n        /* \"#utility.yul\":4086:4088   */\n      0x20\n        /* \"#utility.yul\":4112:4165   */\n      tag_372\n        /* \"#utility.yul\":4157:4164   */\n      dup7\n        /* \"#utility.yul\":4148:4154   */\n      dup3\n        /* \"#utility.yul\":4137:4146   */\n      dup8\n        /* \"#utility.yul\":4133:4155   */\n      add\n        /* \"#utility.yul\":4112:4165   */\n      tag_277\n      jump\t// in\n    tag_372:\n        /* \"#utility.yul\":4102:4165   */\n      swap3\n      pop\n        /* \"#utility.yul\":4057:4175   */\n      pop\n        /* \"#utility.yul\":4214:4216   */\n      0x40\n        /* \"#utility.yul\":4240:4293   */\n      tag_373\n        /* \"#utility.yul\":4285:4292   */\n      dup7\n        /* \"#utility.yul\":4276:4282   */\n      dup3\n        /* \"#utility.yul\":4265:4274   */\n      dup8\n        /* \"#utility.yul\":4261:4283   */\n      add\n        /* \"#utility.yul\":4240:4293   */\n      tag_280\n      jump\t// in\n    tag_373:\n        /* \"#utility.yul\":4230:4293   */\n      swap2\n      pop\n        /* \"#utility.yul\":4185:4303   */\n      pop\n        /* \"#utility.yul\":3691:4310   */\n      swap3\n      pop\n      swap3\n      pop\n      swap3\n      jump\t// out\n        /* \"#utility.yul\":4316:4402   */\n    tag_284:\n        /* \"#utility.yul\":4351:4358   */\n      0x00\n        /* \"#utility.yul\":4391:4395   */\n      0xff\n        /* \"#utility.yul\":4384:4389   */\n      dup3\n        /* \"#utility.yul\":4380:4396   */\n      and\n        /* \"#utility.yul\":4369:4396   */\n      swap1\n      pop\n        /* \"#utility.yul\":4316:4402   */\n      swap2\n      swap1\n      pop\n      jump\t// out\n        /* \"#utility.yul\":4408:4520   */\n    tag_285:\n        /* \"#utility.yul\":4491:4513   */\n      tag_376\n        /* \"#utility.yul\":4507:4512   */\n      dup2\n        /* \"#utility.yul\":4491:4513   */\n      tag_284\n      jump\t// in\n    tag_376:\n        /* \"#utility.yul\":4486:4489   */\n      dup3\n        /* \"#utility.yul\":4479:4514   */\n      mstore\n        /* \"#utility.yul\":4408:4520   */\n      pop\n      pop\n      jump\t// out\n        /* \"#utility.yul\":4526:4740   */\n    tag_43:\n        /* \"#utility.yul\":4615:4619   */\n      0x00\n        /* \"#utility.yul\":4653:4655   */\n      0x20\n        /* \"#utility.yul\":4642:4651   */\n      dup3\n        /* \"#utility.yul\":4638:4656   */\n      add\n        /* \"#utility.yul\":4630:4656   */\n      swap1\n      pop\n        /* \"#utility.yul\":4666:4733   */\n      tag_378\n        /* \"#utility.yul\":4730:4731   */\n      0x00\n        /* \"#utility.yul\":4719:4728   */\n      dup4\n        /* \"#utility.yul\":4715:4732   */\n      add\n        /* \"#utility.yul\":4706:4712   */\n      dup5\n        /* \"#utility.yul\":4666:4733   */\n      tag_285\n      jump\t// in\n    tag_378:\n        /* \"#utility.yul\":4526:4740   */\n      swap3\n      swap2\n      pop\n      pop\n      jump\t// out\n        /* \"#utility.yul\":4746:5075   */\n    tag_51:\n        /* \"#utility.yul\":4805:4811   */\n      0x00\n        /* \"#utility.yul\":4854:4856   */\n      0x20\n        /* \"#utility.yul\":4842:4851   */\n      dup3\n        /* \"#utility.yul\":4833:4840   */\n      dup5\n        /* \"#utility.yul\":4829:4852   */\n      sub\n        /* \"#utility.yul\":4825:4857   */\n      slt\n        /* \"#utility.yul\":4822:4941   */\n      iszero\n      tag_380\n      jumpi\n        /* \"#utility.yul\":4860:4939   */\n      tag_381\n      tag_272\n      jump\t// in\n    tag_381:\n        /* \"#utility.yul\":4822:4941   */\n    tag_380:\n        /* \"#utility.yul\":4980:4981   */\n      0x00\n        /* \"#utility.yul\":5005:5058   */\n      tag_382\n        /* \"#utility.yul\":5050:5057   */\n      dup5\n        /* \"#utility.yul\":5041:5047   */\n      dup3\n        /* \"#utility.yul\":5030:5039   */\n      dup6\n        /* \"#utility.yul\":5026:5048   */\n      add\n        /* \"#utility.yul\":5005:5058   */\n      tag_277\n      jump\t// in\n    tag_382:\n        /* \"#utility.yul\":4995:5058   */\n      swap2\n      pop\n        /* \"#utility.yul\":4951:5068   */\n      pop\n        /* \"#utility.yul\":4746:5075   */\n      swap3\n      swap2\n      pop\n      pop\n      jump\t// out\n        /* \"#utility.yul\":5081:5198   */\n    tag_286:\n        /* \"#utility.yul\":5190:5191   */\n      0x00\n        /* \"#utility.yul\":5187:5188   */\n      dup1\n        /* \"#utility.yul\":5180:5192   */\n      revert\n        /* \"#utility.yul\":5204:5321   */\n    tag_287:\n        /* \"#utility.yul\":5313:5314   */\n      0x00\n        /* \"#utility.yul\":5310:5311   */\n      dup1\n        /* \"#utility.yul\":5303:5315   */\n      revert\n        /* \"#utility.yul\":5327:5444   */\n    tag_288:\n        /* \"#utility.yul\":5436:5437   */\n      0x00\n        /* \"#utility.yul\":5433:5434   */\n      dup1\n        /* \"#utility.yul\":5426:5438   */\n      revert\n        /* \"#utility.yul\":5464:6017   */\n    tag_289:\n        /* \"#utility.yul\":5522:5530   */\n      0x00\n        /* \"#utility.yul\":5532:5538   */\n      dup1\n        /* \"#utility.yul\":5582:5585   */\n      dup4\n        /* \"#utility.yul\":5575:5579   */\n      0x1f\n        /* \"#utility.yul\":5567:5573   */\n      dup5\n        /* \"#utility.yul\":5563:5580   */\n      add\n        /* \"#utility.yul\":5559:5586   */\n      slt\n        /* \"#utility.yul\":5549:5671   */\n      tag_387\n      jumpi\n        /* \"#utility.yul\":5590:5669   */\n      tag_388\n      tag_286\n      jump\t// in\n    tag_388:\n        /* \"#utility.yul\":5549:5671   */\n    tag_387:\n        /* \"#utility.yul\":5703:5709   */\n      dup3\n        /* \"#utility.yul\":5690:5710   */\n      calldataload\n        /* \"#utility.yul\":5680:5710   */\n      swap1\n      pop\n        /* \"#utility.yul\":5733:5751   */\n      0xffffffffffffffff\n        /* \"#utility.yul\":5725:5731   */\n      dup2\n        /* \"#utility.yul\":5722:5752   */\n      gt\n        /* \"#utility.yul\":5719:5836   */\n      iszero\n      tag_389\n      jumpi\n        /* \"#utility.yul\":5755:5834   */\n      tag_390\n      tag_287\n      jump\t// in\n    tag_390:\n        /* \"#utility.yul\":5719:5836   */\n    tag_389:\n        /* \"#utility.yul\":5869:5873   */\n      0x20\n        /* \"#utility.yul\":5861:5867   */\n      dup4\n        /* \"#utility.yul\":5857:5874   */\n      add\n        /* \"#utility.yul\":5845:5874   */\n      swap2\n      pop\n        /* \"#utility.yul\":5923:5926   */\n      dup4\n        /* \"#utility.yul\":5915:5919   */\n      0x01\n        /* \"#utility.yul\":5907:5913   */\n      dup3\n        /* \"#utility.yul\":5903:5920   */\n      mul\n        /* \"#utility.yul\":5893:5901   */\n      dup4\n        /* \"#utility.yul\":5889:5921   */\n      add\n        /* \"#utility.yul\":5886:5927   */\n      gt\n        /* \"#utility.yul\":5883:6011   */\n      iszero\n      tag_391\n      jumpi\n        /* \"#utility.yul\":5930:6009   */\n      tag_392\n      tag_288\n      jump\t// in\n    tag_392:\n        /* \"#utility.yul\":5883:6011   */\n    tag_391:\n        /* \"#utility.yul\":5464:6017   */\n      swap3\n      pop\n      swap3\n      swap1\n      pop\n      jump\t// out\n        /* \"#utility.yul\":6023:6697   */\n    tag_56:\n        /* \"#utility.yul\":6103:6109   */\n      0x00\n        /* \"#utility.yul\":6111:6117   */\n      dup1\n        /* \"#utility.yul\":6119:6125   */\n      0x00\n        /* \"#utility.yul\":6168:6170   */\n      0x40\n        /* \"#utility.yul\":6156:6165   */\n      dup5\n        /* \"#utility.yul\":6147:6154   */\n      dup7\n        /* \"#utility.yul\":6143:6166   */\n      sub\n        /* \"#utility.yul\":6139:6171   */\n      slt\n        /* \"#utility.yul\":6136:6255   */\n      iszero\n      tag_394\n      jumpi\n        /* \"#utility.yul\":6174:6253   */\n      tag_395\n      tag_272\n      jump\t// in\n    tag_395:\n        /* \"#utility.yul\":6136:6255   */\n    tag_394:\n        /* \"#utility.yul\":6322:6323   */\n      0x00\n        /* \"#utility.yul\":6311:6320   */\n      dup5\n        /* \"#utility.yul\":6307:6324   */\n      add\n        /* \"#utility.yul\":6294:6325   */\n      calldataload\n        /* \"#utility.yul\":6352:6370   */\n      0xffffffffffffffff\n        /* \"#utility.yul\":6344:6350   */\n      dup2\n        /* \"#utility.yul\":6341:6371   */\n      gt\n        /* \"#utility.yul\":6338:6455   */\n      iszero\n      tag_396\n      jumpi\n        /* \"#utility.yul\":6374:6453   */\n      tag_397\n      tag_273\n      jump\t// in\n    tag_397:\n        /* \"#utility.yul\":6338:6455   */\n    tag_396:\n        /* \"#utility.yul\":6487:6552   */\n      tag_398\n        /* \"#utility.yul\":6544:6551   */\n      dup7\n        /* \"#utility.yul\":6535:6541   */\n      dup3\n        /* \"#utility.yul\":6524:6533   */\n      dup8\n        /* \"#utility.yul\":6520:6542   */\n      add\n        /* \"#utility.yul\":6487:6552   */\n      tag_289\n      jump\t// in\n    tag_398:\n        /* \"#utility.yul\":6469:6552   */\n      swap4\n      pop\n      swap4\n      pop\n        /* \"#utility.yul\":6265:6562   */\n      pop\n        /* \"#utility.yul\":6601:6603   */\n      0x20\n        /* \"#utility.yul\":6627:6680   */\n      tag_399\n        /* \"#utility.yul\":6672:6679   */\n      dup7\n        /* \"#utility.yul\":6663:6669   */\n      dup3\n        /* \"#utility.yul\":6652:6661   */\n      dup8\n        /* \"#utility.yul\":6648:6670   */\n      add\n        /* \"#utility.yul\":6627:6680   */\n      tag_280\n      jump\t// in\n    tag_399:\n        /* \"#utility.yul\":6617:6680   */\n      swap2\n      pop\n        /* \"#utility.yul\":6572:6690   */\n      pop\n        /* \"#utility.yul\":6023:6697   */\n      swap3\n      pop\n      swap3\n      pop\n      swap3\n      jump\t// out\n        /* \"#utility.yul\":6703:6811   */\n    tag_290:\n        /* \"#utility.yul\":6785:6786   */\n      0x03\n        /* \"#utility.yul\":6778:6783   */\n      dup2\n        /* \"#utility.yul\":6775:6787   */\n      lt\n        /* \"#utility.yul\":6765:6805   */\n      tag_401\n      jumpi\n        /* \"#utility.yul\":6801:6802   */\n      0x00\n        /* \"#utility.yul\":6798:6799   */\n      dup1\n        /* \"#utility.yul\":6791:6803   */\n      revert\n        /* \"#utility.yul\":6765:6805   */\n    tag_401:\n        /* \"#utility.yul\":6703:6811   */\n      pop\n      jump\t// out\n        /* \"#utility.yul\":6817:6974   */\n    tag_291:\n        /* \"#utility.yul\":6872:6877   */\n      0x00\n        /* \"#utility.yul\":6910:6916   */\n      dup2\n        /* \"#utility.yul\":6897:6917   */\n      calldataload\n        /* \"#utility.yul\":6888:6917   */\n      swap1\n      pop\n        /* \"#utility.yul\":6926:6968   */\n      tag_403\n        /* \"#utility.yul\":6962:6967   */\n      dup2\n        /* \"#utility.yul\":6926:6968   */\n      tag_290\n      jump\t// in\n    tag_403:\n        /* \"#utility.yul\":6817:6974   */\n      swap3\n      swap2\n      pop\n      pop\n      jump\t// out\n        /* \"#utility.yul\":6980:7472   */\n    tag_61:\n        /* \"#utility.yul\":7057:7063   */\n      0x00\n        /* \"#utility.yul\":7065:7071   */\n      dup1\n        /* \"#utility.yul\":7114:7116   */\n      0x40\n        /* \"#utility.yul\":7102:7111   */\n      dup4\n        /* \"#utility.yul\":7093:7100   */\n      dup6\n        /* \"#utility.yul\":7089:7112   */\n      sub\n        /* \"#utility.yul\":7085:7117   */\n      slt\n        /* \"#utility.yul\":7082:7201   */\n      iszero\n      tag_405\n      jumpi\n        /* \"#utility.yul\":7120:7199   */\n      tag_406\n      tag_272\n      jump\t// in\n    tag_406:\n        /* \"#utility.yul\":7082:7201   */\n    tag_405:\n        /* \"#utility.yul\":7240:7241   */\n      0x00\n        /* \"#utility.yul\":7265:7318   */\n      tag_407\n        /* \"#utility.yul\":7310:7317   */\n      dup6\n        /* \"#utility.yul\":7301:7307   */\n      dup3\n        /* \"#utility.yul\":7290:7299   */\n      dup7\n        /* \"#utility.yul\":7286:7308   */\n      add\n        /* \"#utility.yul\":7265:7318   */\n      tag_280\n      jump\t// in\n    tag_407:\n        /* \"#utility.yul\":7255:7318   */\n      swap3\n      pop\n        /* \"#utility.yul\":7211:7328   */\n      pop\n        /* \"#utility.yul\":7367:7369   */\n      0x20\n        /* \"#utility.yul\":7393:7455   */\n      tag_408\n        /* \"#utility.yul\":7447:7454   */\n      dup6\n        /* \"#utility.yul\":7438:7444   */\n      dup3\n        /* \"#utility.yul\":7427:7436   */\n      dup7\n        /* \"#utility.yul\":7423:7445   */\n      add\n        /* \"#utility.yul\":7393:7455   */\n      tag_291\n      jump\t// in\n    tag_408:\n        /* \"#utility.yul\":7383:7455   */\n      swap2\n      pop\n        /* \"#utility.yul\":7338:7465   */\n      pop\n        /* \"#utility.yul\":6980:7472   */\n      swap3\n      pop\n      swap3\n      swap1\n      pop\n      jump\t// out\n        /* \"#utility.yul\":7478:7807   */\n    tag_68:\n        /* \"#utility.yul\":7537:7543   */\n      0x00\n        /* \"#utility.yul\":7586:7588   */\n      0x20\n        /* \"#utility.yul\":7574:7583   */\n      dup3\n        /* \"#utility.yul\":7565:7572   */\n      dup5\n        /* \"#utility.yul\":7561:7584   */\n      sub\n        /* \"#utility.yul\":7557:7589   */\n      slt\n        /* \"#utility.yul\":7554:7673   */\n      iszero\n      tag_410\n      jumpi\n        /* \"#utility.yul\":7592:7671   */\n      tag_411\n      tag_272\n      jump\t// in\n    tag_411:\n        /* \"#utility.yul\":7554:7673   */\n    tag_410:\n        /* \"#utility.yul\":7712:7713   */\n      0x00\n        /* \"#utility.yul\":7737:7790   */\n      tag_412\n        /* \"#utility.yul\":7782:7789   */\n      dup5\n        /* \"#utility.yul\":7773:7779   */\n      dup3\n        /* \"#utility.yul\":7762:7771   */\n      dup6\n        /* \"#utility.yul\":7758:7780   */\n      add\n        /* \"#utility.yul\":7737:7790   */\n      tag_280\n      jump\t// in\n    tag_412:\n        /* \"#utility.yul\":7727:7790   */\n      swap2\n      pop\n        /* \"#utility.yul\":7683:7800   */\n      pop\n        /* \"#utility.yul\":7478:7807   */\n      swap3\n      swap2\n      pop\n      pop\n      jump\t// out\n        /* \"#utility.yul\":7813:7927   */\n    tag_292:\n        /* \"#utility.yul\":7880:7886   */\n      0x00\n        /* \"#utility.yul\":7914:7919   */\n      dup2\n        /* \"#utility.yul\":7908:7920   */\n      mload\n        /* \"#utility.yul\":7898:7920   */\n      swap1\n      pop\n        /* \"#utility.yul\":7813:7927   */\n      swap2\n      swap1\n      pop\n      jump\t// out\n        /* \"#utility.yul\":7933:8107   */\n    tag_293:\n        /* \"#utility.yul\":8022:8033   */\n      0x00\n        /* \"#utility.yul\":8056:8062   */\n      dup3\n        /* \"#utility.yul\":8051:8054   */\n      dup3\n        /* \"#utility.yul\":8044:8063   */\n      mstore\n        /* \"#utility.yul\":8096:8100   */\n      0x20\n        /* \"#utility.yul\":8091:8094   */\n      dup3\n        /* \"#utility.yul\":8087:8101   */\n      add\n        /* \"#utility.yul\":8072:8101   */\n      swap1\n      pop\n        /* \"#utility.yul\":7933:8107   */\n      swap3\n      swap2\n      pop\n      pop\n      jump\t// out\n        /* \"#utility.yul\":8113:8245   */\n    tag_294:\n        /* \"#utility.yul\":8180:8184   */\n      0x00\n        /* \"#utility.yul\":8203:8206   */\n      dup2\n        /* \"#utility.yul\":8195:8206   */\n      swap1\n      pop\n        /* \"#utility.yul\":8233:8237   */\n      0x20\n        /* \"#utility.yul\":8228:8231   */\n      dup3\n        /* \"#utility.yul\":8224:8238   */\n      add\n        /* \"#utility.yul\":8216:8238   */\n      swap1\n      pop\n        /* \"#utility.yul\":8113:8245   */\n      swap2\n      swap1\n      pop\n      jump\t// out\n        /* \"#utility.yul\":8251:8359   */\n    tag_295:\n        /* \"#utility.yul\":8328:8352   */\n      tag_417\n        /* \"#utility.yul\":8346:8351   */\n      dup2\n        /* \"#utility.yul\":8328:8352   */\n      tag_275\n      jump\t// in\n    tag_417:\n        /* \"#utility.yul\":8323:8326   */\n      dup3\n        /* \"#utility.yul\":8316:8353   */\n      mstore\n        /* \"#utility.yul\":8251:8359   */\n      pop\n      pop\n      jump\t// out\n        /* \"#utility.yul\":8365:8544   */\n    tag_296:\n        /* \"#utility.yul\":8434:8444   */\n      0x00\n        /* \"#utility.yul\":8455:8501   */\n      tag_419\n        /* \"#utility.yul\":8497:8500   */\n      dup4\n        /* \"#utility.yul\":8489:8495   */\n      dup4\n        /* \"#utility.yul\":8455:8501   */\n      tag_295\n      jump\t// in\n    tag_419:\n        /* \"#utility.yul\":8533:8537   */\n      0x20\n        /* \"#utility.yul\":8528:8531   */\n      dup4\n        /* \"#utility.yul\":8524:8538   */\n      add\n        /* \"#utility.yul\":8510:8538   */\n      swap1\n      pop\n        /* \"#utility.yul\":8365:8544   */\n      swap3\n      swap2\n      pop\n      pop\n      jump\t// out\n        /* \"#utility.yul\":8550:8663   */\n    tag_297:\n        /* \"#utility.yul\":8620:8624   */\n      0x00\n        /* \"#utility.yul\":8652:8656   */\n      0x20\n        /* \"#utility.yul\":8647:8650   */\n      dup3\n        /* \"#utility.yul\":8643:8657   */\n      add\n        /* \"#utility.yul\":8635:8657   */\n      swap1\n      pop\n        /* \"#utility.yul\":8550:8663   */\n      swap2\n      swap1\n      pop\n      jump\t// out\n        /* \"#utility.yul\":8699:9411   */\n    tag_298:\n        /* \"#utility.yul\":8808:8811   */\n      0x00\n        /* \"#utility.yul\":8837:8891   */\n      tag_422\n        /* \"#utility.yul\":8885:8890   */\n      dup3\n        /* \"#utility.yul\":8837:8891   */\n      tag_292\n      jump\t// in\n    tag_422:\n        /* \"#utility.yul\":8907:8983   */\n      tag_423\n        /* \"#utility.yul\":8976:8982   */\n      dup2\n        /* \"#utility.yul\":8971:8974   */\n      dup6\n        /* \"#utility.yul\":8907:8983   */\n      tag_293\n      jump\t// in\n    tag_423:\n        /* \"#utility.yul\":8900:8983   */\n      swap4\n      pop\n        /* \"#utility.yul\":9007:9063   */\n      tag_424\n        /* \"#utility.yul\":9057:9062   */\n      dup4\n        /* \"#utility.yul\":9007:9063   */\n      tag_294\n      jump\t// in\n    tag_424:\n        /* \"#utility.yul\":9086:9093   */\n      dup1\n        /* \"#utility.yul\":9117:9118   */\n      0x00\n        /* \"#utility.yul\":9102:9386   */\n    tag_425:\n        /* \"#utility.yul\":9127:9133   */\n      dup4\n        /* \"#utility.yul\":9124:9125   */\n      dup2\n        /* \"#utility.yul\":9121:9134   */\n      lt\n        /* \"#utility.yul\":9102:9386   */\n      iszero\n      tag_427\n      jumpi\n        /* \"#utility.yul\":9203:9209   */\n      dup2\n        /* \"#utility.yul\":9197:9210   */\n      mload\n        /* \"#utility.yul\":9230:9293   */\n      tag_428\n        /* \"#utility.yul\":9289:9292   */\n      dup9\n        /* \"#utility.yul\":9274:9287   */\n      dup3\n        /* \"#utility.yul\":9230:9293   */\n      tag_296\n      jump\t// in\n    tag_428:\n        /* \"#utility.yul\":9223:9293   */\n      swap8\n      pop\n        /* \"#utility.yul\":9316:9376   */\n      tag_429\n        /* \"#utility.yul\":9369:9375   */\n      dup4\n        /* \"#utility.yul\":9316:9376   */\n      tag_297\n      jump\t// in\n    tag_429:\n        /* \"#utility.yul\":9306:9376   */\n      swap3\n      pop\n        /* \"#utility.yul\":9162:9386   */\n      pop\n        /* \"#utility.yul\":9149:9150   */\n      0x01\n        /* \"#utility.yul\":9146:9147   */\n      dup2\n        /* \"#utility.yul\":9142:9151   */\n      add\n        /* \"#utility.yul\":9137:9151   */\n      swap1\n      pop\n        /* \"#utility.yul\":9102:9386   */\n      jump(tag_425)\n    tag_427:\n        /* \"#utility.yul\":9106:9120   */\n      pop\n        /* \"#utility.yul\":9402:9405   */\n      dup6\n        /* \"#utility.yul\":9395:9405   */\n      swap4\n      pop\n        /* \"#utility.yul\":8813:9411   */\n      pop\n      pop\n      pop\n        /* \"#utility.yul\":8699:9411   */\n      swap3\n      swap2\n      pop\n      pop\n      jump\t// out\n        /* \"#utility.yul\":9417:9576   */\n    tag_299:\n        /* \"#utility.yul\":9491:9502   */\n      0x00\n        /* \"#utility.yul\":9525:9531   */\n      dup3\n        /* \"#utility.yul\":9520:9523   */\n      dup3\n        /* \"#utility.yul\":9513:9532   */\n      mstore\n        /* \"#utility.yul\":9565:9569   */\n      0x20\n        /* \"#utility.yul\":9560:9563   */\n      dup3\n        /* \"#utility.yul\":9556:9570   */\n      add\n        /* \"#utility.yul\":9541:9570   */\n      swap1\n      pop\n        /* \"#utility.yul\":9417:9576   */\n      swap3\n      swap2\n      pop\n      pop\n      jump\t// out\n        /* \"#utility.yul\":9582:9939   */\n    tag_300:\n        /* \"#utility.yul\":9660:9663   */\n      0x00\n        /* \"#utility.yul\":9688:9727   */\n      tag_432\n        /* \"#utility.yul\":9721:9726   */\n      dup3\n        /* \"#utility.yul\":9688:9727   */\n      tag_266\n      jump\t// in\n    tag_432:\n        /* \"#utility.yul\":9743:9804   */\n      tag_433\n        /* \"#utility.yul\":9797:9803   */\n      dup2\n        /* \"#utility.yul\":9792:9795   */\n      dup6\n        /* \"#utility.yul\":9743:9804   */\n      tag_299\n      jump\t// in\n    tag_433:\n        /* \"#utility.yul\":9736:9804   */\n      swap4\n      pop\n        /* \"#utility.yul\":9813:9878   */\n      tag_434\n        /* \"#utility.yul\":9871:9877   */\n      dup2\n        /* \"#utility.yul\":9866:9869   */\n      dup6\n        /* \"#utility.yul\":9859:9863   */\n      0x20\n        /* \"#utility.yul\":9852:9857   */\n      dup7\n        /* \"#utility.yul\":9848:9864   */\n      add\n        /* \"#utility.yul\":9813:9878   */\n      tag_268\n      jump\t// in\n    tag_434:\n        /* \"#utility.yul\":9903:9932   */\n      tag_435\n        /* \"#utility.yul\":9925:9931   */\n      dup2\n        /* \"#utility.yul\":9903:9932   */\n      tag_269\n      jump\t// in\n    tag_435:\n        /* \"#utility.yul\":9898:9901   */\n      dup5\n        /* \"#utility.yul\":9894:9933   */\n      add\n        /* \"#utility.yul\":9887:9933   */\n      swap2\n      pop\n        /* \"#utility.yul\":9664:9939   */\n      pop\n        /* \"#utility.yul\":9582:9939   */\n      swap3\n      swap2\n      pop\n      pop\n      jump\t// out\n        /* \"#utility.yul\":9945:10053   */\n    tag_301:\n        /* \"#utility.yul\":10022:10046   */\n      tag_437\n        /* \"#utility.yul\":10040:10045   */\n      dup2\n        /* \"#utility.yul\":10022:10046   */\n      tag_278\n      jump\t// in\n    tag_437:\n        /* \"#utility.yul\":10017:10020   */\n      dup3\n        /* \"#utility.yul\":10010:10047   */\n      mstore\n        /* \"#utility.yul\":9945:10053   */\n      pop\n      pop\n      jump\t// out\n        /* \"#utility.yul\":10059:10158   */\n    tag_302:\n        /* \"#utility.yul\":10130:10151   */\n      tag_439\n        /* \"#utility.yul\":10145:10150   */\n      dup2\n        /* \"#utility.yul\":10130:10151   */\n      tag_281\n      jump\t// in\n    tag_439:\n        /* \"#utility.yul\":10125:10128   */\n      dup3\n        /* \"#utility.yul\":10118:10152   */\n      mstore\n        /* \"#utility.yul\":10059:10158   */\n      pop\n      pop\n      jump\t// out\n        /* \"#utility.yul\":10238:12200   */\n    tag_303:\n        /* \"#utility.yul\":10361:10364   */\n      0x00\n        /* \"#utility.yul\":10397:10403   */\n      0x0120\n        /* \"#utility.yul\":10392:10395   */\n      dup4\n        /* \"#utility.yul\":10388:10404   */\n      add\n        /* \"#utility.yul\":10488:10492   */\n      0x00\n        /* \"#utility.yul\":10481:10486   */\n      dup4\n        /* \"#utility.yul\":10477:10493   */\n      add\n        /* \"#utility.yul\":10471:10494   */\n      mload\n        /* \"#utility.yul\":10541:10544   */\n      dup5\n        /* \"#utility.yul\":10535:10539   */\n      dup3\n        /* \"#utility.yul\":10531:10545   */\n      sub\n        /* \"#utility.yul\":10524:10528   */\n      0x00\n        /* \"#utility.yul\":10519:10522   */\n      dup7\n        /* \"#utility.yul\":10515:10529   */\n      add\n        /* \"#utility.yul\":10508:10546   */\n      mstore\n        /* \"#utility.yul\":10567:10670   */\n      tag_441\n        /* \"#utility.yul\":10665:10669   */\n      dup3\n        /* \"#utility.yul\":10651:10663   */\n      dup3\n        /* \"#utility.yul\":10567:10670   */\n      tag_298\n      jump\t// in\n    tag_441:\n        /* \"#utility.yul\":10559:10670   */\n      swap2\n      pop\n        /* \"#utility.yul\":10414:10681   */\n      pop\n        /* \"#utility.yul\":10768:10772   */\n      0x20\n        /* \"#utility.yul\":10761:10766   */\n      dup4\n        /* \"#utility.yul\":10757:10773   */\n      add\n        /* \"#utility.yul\":10751:10774   */\n      mload\n        /* \"#utility.yul\":10821:10824   */\n      dup5\n        /* \"#utility.yul\":10815:10819   */\n      dup3\n        /* \"#utility.yul\":10811:10825   */\n      sub\n        /* \"#utility.yul\":10804:10808   */\n      0x20\n        /* \"#utility.yul\":10799:10802   */\n      dup7\n        /* \"#utility.yul\":10795:10809   */\n      add\n        /* \"#utility.yul\":10788:10826   */\n      mstore\n        /* \"#utility.yul\":10847:10920   */\n      tag_442\n        /* \"#utility.yul\":10915:10919   */\n      dup3\n        /* \"#utility.yul\":10901:10913   */\n      dup3\n        /* \"#utility.yul\":10847:10920   */\n      tag_300\n      jump\t// in\n    tag_442:\n        /* \"#utility.yul\":10839:10920   */\n      swap2\n      pop\n        /* \"#utility.yul\":10691:10931   */\n      pop\n        /* \"#utility.yul\":11017:11021   */\n      0x40\n        /* \"#utility.yul\":11010:11015   */\n      dup4\n        /* \"#utility.yul\":11006:11022   */\n      add\n        /* \"#utility.yul\":11000:11023   */\n      mload\n        /* \"#utility.yul\":11036:11099   */\n      tag_443\n        /* \"#utility.yul\":11093:11097   */\n      0x40\n        /* \"#utility.yul\":11088:11091   */\n      dup7\n        /* \"#utility.yul\":11084:11098   */\n      add\n        /* \"#utility.yul\":11070:11082   */\n      dup3\n        /* \"#utility.yul\":11036:11099   */\n      tag_301\n      jump\t// in\n    tag_443:\n        /* \"#utility.yul\":10941:11109   */\n      pop\n        /* \"#utility.yul\":11199:11203   */\n      0x60\n        /* \"#utility.yul\":11192:11197   */\n      dup4\n        /* \"#utility.yul\":11188:11204   */\n      add\n        /* \"#utility.yul\":11182:11205   */\n      mload\n        /* \"#utility.yul\":11218:11281   */\n      tag_444\n        /* \"#utility.yul\":11275:11279   */\n      0x60\n        /* \"#utility.yul\":11270:11273   */\n      dup7\n        /* \"#utility.yul\":11266:11280   */\n      add\n        /* \"#utility.yul\":11252:11264   */\n      dup3\n        /* \"#utility.yul\":11218:11281   */\n      tag_301\n      jump\t// in\n    tag_444:\n        /* \"#utility.yul\":11119:11291   */\n      pop\n        /* \"#utility.yul\":11381:11385   */\n      0x80\n        /* \"#utility.yul\":11374:11379   */\n      dup4\n        /* \"#utility.yul\":11370:11386   */\n      add\n        /* \"#utility.yul\":11364:11387   */\n      mload\n        /* \"#utility.yul\":11400:11463   */\n      tag_445\n        /* \"#utility.yul\":11457:11461   */\n      0x80\n        /* \"#utility.yul\":11452:11455   */\n      dup7\n        /* \"#utility.yul\":11448:11462   */\n      add\n        /* \"#utility.yul\":11434:11446   */\n      dup3\n        /* \"#utility.yul\":11400:11463   */\n      tag_301\n      jump\t// in\n    tag_445:\n        /* \"#utility.yul\":11301:11473   */\n      pop\n        /* \"#utility.yul\":11561:11565   */\n      0xa0\n        /* \"#utility.yul\":11554:11559   */\n      dup4\n        /* \"#utility.yul\":11550:11566   */\n      add\n        /* \"#utility.yul\":11544:11567   */\n      mload\n        /* \"#utility.yul\":11580:11643   */\n      tag_446\n        /* \"#utility.yul\":11637:11641   */\n      0xa0\n        /* \"#utility.yul\":11632:11635   */\n      dup7\n        /* \"#utility.yul\":11628:11642   */\n      add\n        /* \"#utility.yul\":11614:11626   */\n      dup3\n        /* \"#utility.yul\":11580:11643   */\n      tag_301\n      jump\t// in\n    tag_446:\n        /* \"#utility.yul\":11483:11653   */\n      pop\n        /* \"#utility.yul\":11737:11741   */\n      0xc0\n        /* \"#utility.yul\":11730:11735   */\n      dup4\n        /* \"#utility.yul\":11726:11742   */\n      add\n        /* \"#utility.yul\":11720:11743   */\n      mload\n        /* \"#utility.yul\":11756:11819   */\n      tag_447\n        /* \"#utility.yul\":11813:11817   */\n      0xc0\n        /* \"#utility.yul\":11808:11811   */\n      dup7\n        /* \"#utility.yul\":11804:11818   */\n      add\n        /* \"#utility.yul\":11790:11802   */\n      dup3\n        /* \"#utility.yul\":11756:11819   */\n      tag_301\n      jump\t// in\n    tag_447:\n        /* \"#utility.yul\":11663:11829   */\n      pop\n        /* \"#utility.yul\":11913:11917   */\n      0xe0\n        /* \"#utility.yul\":11906:11911   */\n      dup4\n        /* \"#utility.yul\":11902:11918   */\n      add\n        /* \"#utility.yul\":11896:11919   */\n      mload\n        /* \"#utility.yul\":11932:11989   */\n      tag_448\n        /* \"#utility.yul\":11983:11987   */\n      0xe0\n        /* \"#utility.yul\":11978:11981   */\n      dup7\n        /* \"#utility.yul\":11974:11988   */\n      add\n        /* \"#utility.yul\":11960:11972   */\n      dup3\n        /* \"#utility.yul\":11932:11989   */\n      tag_302\n      jump\t// in\n    tag_448:\n        /* \"#utility.yul\":11839:11999   */\n      pop\n        /* \"#utility.yul\":12083:12089   */\n      0x0100\n        /* \"#utility.yul\":12076:12081   */\n      dup4\n        /* \"#utility.yul\":12072:12090   */\n      add\n        /* \"#utility.yul\":12066:12091   */\n      mload\n        /* \"#utility.yul\":12104:12163   */\n      tag_449\n        /* \"#utility.yul\":12155:12161   */\n      0x0100\n        /* \"#utility.yul\":12150:12153   */\n      dup7\n        /* \"#utility.yul\":12146:12162   */\n      add\n        /* \"#utility.yul\":12132:12144   */\n      dup3\n        /* \"#utility.yul\":12104:12163   */\n      tag_302\n      jump\t// in\n    tag_449:\n        /* \"#utility.yul\":12009:12173   */\n      pop\n        /* \"#utility.yul\":12190:12194   */\n      dup1\n        /* \"#utility.yul\":12183:12194   */\n      swap2\n      pop\n        /* \"#utility.yul\":10366:12200   */\n      pop\n        /* \"#utility.yul\":10238:12200   */\n      swap3\n      swap2\n      pop\n      pop\n      jump\t// out\n        /* \"#utility.yul\":12206:12587   */\n    tag_71:\n        /* \"#utility.yul\":12353:12357   */\n      0x00\n        /* \"#utility.yul\":12391:12393   */\n      0x20\n        /* \"#utility.yul\":12380:12389   */\n      dup3\n        /* \"#utility.yul\":12376:12394   */\n      add\n        /* \"#utility.yul\":12368:12394   */\n      swap1\n      pop\n        /* \"#utility.yul\":12440:12449   */\n      dup2\n        /* \"#utility.yul\":12434:12438   */\n      dup2\n        /* \"#utility.yul\":12430:12450   */\n      sub\n        /* \"#utility.yul\":12426:12427   */\n      0x00\n        /* \"#utility.yul\":12415:12424   */\n      dup4\n        /* \"#utility.yul\":12411:12428   */\n      add\n        /* \"#utility.yul\":12404:12451   */\n      mstore\n        /* \"#utility.yul\":12468:12580   */\n      tag_451\n        /* \"#utility.yul\":12575:12579   */\n      dup2\n        /* \"#utility.yul\":12566:12572   */\n      dup5\n        /* \"#utility.yul\":12468:12580   */\n      tag_303\n      jump\t// in\n    tag_451:\n        /* \"#utility.yul\":12460:12580   */\n      swap1\n      pop\n        /* \"#utility.yul\":12206:12587   */\n      swap3\n      swap2\n      pop\n      pop\n      jump\t// out\n        /* \"#utility.yul\":12593:13067   */\n    tag_81:\n        /* \"#utility.yul\":12661:12667   */\n      0x00\n        /* \"#utility.yul\":12669:12675   */\n      dup1\n        /* \"#utility.yul\":12718:12720   */\n      0x40\n        /* \"#utility.yul\":12706:12715   */\n      dup4\n        /* \"#utility.yul\":12697:12704   */\n      dup6\n        /* \"#utility.yul\":12693:12716   */\n      sub\n        /* \"#utility.yul\":12689:12721   */\n      slt\n        /* \"#utility.yul\":12686:12805   */\n      iszero\n      tag_453\n      jumpi\n        /* \"#utility.yul\":12724:12803   */\n      tag_454\n      tag_272\n      jump\t// in\n    tag_454:\n        /* \"#utility.yul\":12686:12805   */\n    tag_453:\n        /* \"#utility.yul\":12844:12845   */\n      0x00\n        /* \"#utility.yul\":12869:12922   */\n      tag_455\n        /* \"#utility.yul\":12914:12921   */\n      dup6\n        /* \"#utility.yul\":12905:12911   */\n      dup3\n        /* \"#utility.yul\":12894:12903   */\n      dup7\n        /* \"#utility.yul\":12890:12912   */\n      add\n        /* \"#utility.yul\":12869:12922   */\n      tag_277\n      jump\t// in\n    tag_455:\n        /* \"#utility.yul\":12859:12922   */\n      swap3\n      pop\n        /* \"#utility.yul\":12815:12932   */\n      pop\n        /* \"#utility.yul\":12971:12973   */\n      0x20\n        /* \"#utility.yul\":12997:13050   */\n      tag_456\n        /* \"#utility.yul\":13042:13049   */\n      dup6\n        /* \"#utility.yul\":13033:13039   */\n      dup3\n        /* \"#utility.yul\":13022:13031   */\n      dup7\n        /* \"#utility.yul\":13018:13040   */\n      add\n        /* \"#utility.yul\":12997:13050   */\n      tag_277\n      jump\t// in\n    tag_456:\n        /* \"#utility.yul\":12987:13050   */\n      swap2\n      pop\n        /* \"#utility.yul\":12942:13060   */\n      pop\n        /* \"#utility.yul\":12593:13067   */\n      swap3\n      pop\n      swap3\n      swap1\n      pop\n      jump\t// out\n        /* \"#utility.yul\":13073:13253   */\n    tag_304:\n        /* \"#utility.yul\":13121:13198   */\n      0x4e487b7100000000000000000000000000000000000000000000000000000000\n        /* \"#utility.yul\":13118:13119   */\n      0x00\n        /* \"#utility.yul\":13111:13199   */\n      mstore\n        /* \"#utility.yul\":13218:13222   */\n      0x22\n        /* \"#utility.yul\":13215:13216   */\n      0x04\n        /* \"#utility.yul\":13208:13223   */\n      mstore\n        /* \"#utility.yul\":13242:13246   */\n      0x24\n        /* \"#utility.yul\":13239:13240   */\n      0x00\n        /* \"#utility.yul\":13232:13247   */\n      revert\n        /* \"#utility.yul\":13259:13579   */\n    tag_86:\n        /* \"#utility.yul\":13303:13309   */\n      0x00\n        /* \"#utility.yul\":13340:13341   */\n      0x02\n        /* \"#utility.yul\":13334:13338   */\n      dup3\n        /* \"#utility.yul\":13330:13342   */\n      div\n        /* \"#utility.yul\":13320:13342   */\n      swap1\n      pop\n        /* \"#utility.yul\":13387:13388   */\n      0x01\n        /* \"#utility.yul\":13381:13385   */\n      dup3\n        /* \"#utility.yul\":13377:13389   */\n      and\n        /* \"#utility.yul\":13408:13426   */\n      dup1\n        /* \"#utility.yul\":13398:13479   */\n      tag_459\n      jumpi\n        /* \"#utility.yul\":13464:13468   */\n      0x7f\n        /* \"#utility.yul\":13456:13462   */\n      dup3\n        /* \"#utility.yul\":13452:13469   */\n      and\n        /* \"#utility.yul\":13442:13469   */\n      swap2\n      pop\n        /* \"#utility.yul\":13398:13479   */\n    tag_459:\n        /* \"#utility.yul\":13526:13528   */\n      0x20\n        /* \"#utility.yul\":13518:13524   */\n      dup3\n        /* \"#utility.yul\":13515:13529   */\n      lt\n        /* \"#utility.yul\":13495:13513   */\n      dup2\n        /* \"#utility.yul\":13492:13530   */\n      sub\n        /* \"#utility.yul\":13489:13573   */\n      tag_460\n      jumpi\n        /* \"#utility.yul\":13545:13563   */\n      tag_461\n      tag_304\n      jump\t// in\n    tag_461:\n        /* \"#utility.yul\":13489:13573   */\n    tag_460:\n        /* \"#utility.yul\":13310:13579   */\n      pop\n        /* \"#utility.yul\":13259:13579   */\n      swap2\n      swap1\n      pop\n      jump\t// out\n        /* \"#utility.yul\":13585:13765   */\n    tag_305:\n        /* \"#utility.yul\":13633:13710   */\n      0x4e487b7100000000000000000000000000000000000000000000000000000000\n        /* \"#utility.yul\":13630:13631   */\n      0x00\n        /* \"#utility.yul\":13623:13711   */\n      mstore\n        /* \"#utility.yul\":13730:13734   */\n      0x11\n        /* \"#utility.yul\":13727:13728   */\n      0x04\n        /* \"#utility.yul\":13720:13735   */\n      mstore\n        /* \"#utility.yul\":13754:13758   */\n      0x24\n        /* \"#utility.yul\":13751:13752   */\n      0x00\n        /* \"#utility.yul\":13744:13759   */\n      revert\n        /* \"#utility.yul\":13771:13962   */\n    tag_108:\n        /* \"#utility.yul\":13811:13814   */\n      0x00\n        /* \"#utility.yul\":13830:13850   */\n      tag_464\n        /* \"#utility.yul\":13848:13849   */\n      dup3\n        /* \"#utility.yul\":13830:13850   */\n      tag_278\n      jump\t// in\n    tag_464:\n        /* \"#utility.yul\":13825:13850   */\n      swap2\n      pop\n        /* \"#utility.yul\":13864:13884   */\n      tag_465\n        /* \"#utility.yul\":13882:13883   */\n      dup4\n        /* \"#utility.yul\":13864:13884   */\n      tag_278\n      jump\t// in\n    tag_465:\n        /* \"#utility.yul\":13859:13884   */\n      swap3\n      pop\n        /* \"#utility.yul\":13907:13908   */\n      dup3\n        /* \"#utility.yul\":13904:13905   */\n      dup3\n        /* \"#utility.yul\":13900:13909   */\n      add\n        /* \"#utility.yul\":13893:13909   */\n      swap1\n      pop\n        /* \"#utility.yul\":13928:13931   */\n      dup1\n        /* \"#utility.yul\":13925:13926   */\n      dup3\n        /* \"#utility.yul\":13922:13932   */\n      gt\n        /* \"#utility.yul\":13919:13955   */\n      iszero\n      tag_466\n      jumpi\n        /* \"#utility.yul\":13935:13953   */\n      tag_467\n      tag_305\n      jump\t// in\n    tag_467:\n        /* \"#utility.yul\":13919:13955   */\n    tag_466:\n        /* \"#utility.yul\":13771:13962   */\n      swap3\n      swap2\n      pop\n      pop\n      jump\t// out\n        /* \"#utility.yul\":13968:14065   */\n    tag_306:\n        /* \"#utility.yul\":14027:14033   */\n      0x00\n        /* \"#utility.yul\":14055:14058   */\n      dup3\n        /* \"#utility.yul\":14045:14058   */\n      swap1\n      pop\n        /* \"#utility.yul\":13968:14065   */\n      swap3\n      swap2\n      pop\n      pop\n      jump\t// out\n        /* \"#utility.yul\":14071:14251   */\n    tag_185:\n        /* \"#utility.yul\":14119:14196   */\n      0x4e487b7100000000000000000000000000000000000000000000000000000000\n        /* \"#utility.yul\":14116:14117   */\n      0x00\n        /* \"#utility.yul\":14109:14197   */\n      mstore\n        /* \"#utility.yul\":14216:14220   */\n      0x41\n        /* \"#utility.yul\":14213:14214   */\n      0x04\n        /* \"#utility.yul\":14206:14221   */\n      mstore\n        /* \"#utility.yul\":14240:14244   */\n      0x24\n        /* \"#utility.yul\":14237:14238   */\n      0x00\n        /* \"#utility.yul\":14230:14245   */\n      revert\n        /* \"#utility.yul\":14257:14398   */\n    tag_307:\n        /* \"#utility.yul\":14306:14310   */\n      0x00\n        /* \"#utility.yul\":14329:14332   */\n      dup2\n        /* \"#utility.yul\":14321:14332   */\n      swap1\n      pop\n        /* \"#utility.yul\":14352:14355   */\n      dup2\n        /* \"#utility.yul\":14349:14350   */\n      0x00\n        /* \"#utility.yul\":14342:14356   */\n      mstore\n        /* \"#utility.yul\":14386:14390   */\n      0x20\n        /* \"#utility.yul\":14383:14384   */\n      0x00\n        /* \"#utility.yul\":14373:14391   */\n      keccak256\n        /* \"#utility.yul\":14365:14391   */\n      swap1\n      pop\n        /* \"#utility.yul\":14257:14398   */\n      swap2\n      swap1\n      pop\n      jump\t// out\n        /* \"#utility.yul\":14404:14497   */\n    tag_308:\n        /* \"#utility.yul\":14441:14447   */\n      0x00\n        /* \"#utility.yul\":14488:14490   */\n      0x20\n        /* \"#utility.yul\":14483:14485   */\n      0x1f\n        /* \"#utility.yul\":14476:14481   */\n      dup4\n        /* \"#utility.yul\":14472:14486   */\n      add\n        /* \"#utility.yul\":14468:14491   */\n      div\n        /* \"#utility.yul\":14458:14491   */\n      swap1\n      pop\n        /* \"#utility.yul\":14404:14497   */\n      swap2\n      swap1\n      pop\n      jump\t// out\n        /* \"#utility.yul\":14503:14610   */\n    tag_309:\n        /* \"#utility.yul\":14547:14555   */\n      0x00\n        /* \"#utility.yul\":14597:14602   */\n      dup3\n        /* \"#utility.yul\":14591:14595   */\n      dup3\n        /* \"#utility.yul\":14587:14603   */\n      shl\n        /* \"#utility.yul\":14566:14603   */\n      swap1\n      pop\n        /* \"#utility.yul\":14503:14610   */\n      swap3\n      swap2\n      pop\n      pop\n      jump\t// out\n        /* \"#utility.yul\":14616:15009   */\n    tag_310:\n        /* \"#utility.yul\":14685:14691   */\n      0x00\n        /* \"#utility.yul\":14735:14736   */\n      0x08\n        /* \"#utility.yul\":14723:14733   */\n      dup4\n        /* \"#utility.yul\":14719:14737   */\n      mul\n        /* \"#utility.yul\":14758:14855   */\n      tag_474\n        /* \"#utility.yul\":14788:14854   */\n      0xffffffffffffffffffffffffffffffffffffffffffffffffffffffffffffffff\n        /* \"#utility.yul\":14777:14786   */\n      dup3\n        /* \"#utility.yul\":14758:14855   */\n      tag_309\n      jump\t// in\n    tag_474:\n        /* \"#utility.yul\":14876:14915   */\n      tag_475\n        /* \"#utility.yul\":14906:14914   */\n      dup7\n        /* \"#utility.yul\":14895:14904   */\n      dup4\n        /* \"#utility.yul\":14876:14915   */\n      tag_309\n      jump\t// in\n    tag_475:\n        /* \"#utility.yul\":14864:14915   */\n      swap6\n      pop\n        /* \"#utility.yul\":14948:14952   */\n      dup1\n        /* \"#utility.yul\":14944:14953   */\n      not\n        /* \"#utility.yul\":14937:14942   */\n      dup5\n        /* \"#utility.yul\":14933:14954   */\n      and\n        /* \"#utility.yul\":14924:14954   */\n      swap4\n      pop\n        /* \"#utility.yul\":14997:15001   */\n      dup1\n        /* \"#utility.yul\":14987:14995   */\n      dup7\n        /* \"#utility.yul\":14983:15002   */\n      and\n        /* \"#utility.yul\":14976:14981   */\n      dup5\n        /* \"#utility.yul\":14973:15003   */\n      or\n        /* \"#utility.yul\":14963:15003   */\n      swap3\n      pop\n        /* \"#utility.yul\":14692:15009   */\n      pop\n      pop\n        /* \"#utility.yul\":14616:15009   */\n      swap4\n      swap3\n      pop\n      pop\n      pop\n      jump\t// out\n        /* \"#utility.yul\":15015:15075   */\n    tag_311:\n        /* \"#utility.yul\":15043:15046   */\n      0x00\n        /* \"#utility.yul\":15064:15069   */\n      dup2\n        /* \"#utility.yul\":15057:15069   */\n      swap1\n      pop\n        /* \"#utility.yul\":15015:15075   */\n      swap2\n      swap1\n      pop\n      jump\t// out\n        /* \"#utility.yul\":15081:15223   */\n    tag_312:\n        /* \"#utility.yul\":15131:15140   */\n      0x00\n        /* \"#utility.yul\":15164:15217   */\n      tag_478\n        /* \"#utility.yul\":15182:15216   */\n      tag_479\n        /* \"#utility.yul\":15191:15215   */\n      tag_480\n        /* \"#utility.yul\":15209:15214   */\n      dup5\n        /* \"#utility.yul\":15191:15215   */\n      tag_278\n      jump\t// in\n    tag_480:\n        /* \"#utility.yul\":15182:15216   */\n      tag_311\n      jump\t// in\n    tag_479:\n        /* \"#utility.yul\":15164:15217   */\n      tag_278\n      jump\t// in\n    tag_478:\n        /* \"#utility.yul\":15151:15217   */\n      swap1\n      pop\n        /* \"#utility.yul\":15081:15223   */\n      swap2\n      swap1\n      pop\n      jump\t// out\n        /* \"#utility.yul\":15229:15304   */\n    tag_313:\n        /* \"#utility.yul\":15272:15275   */\n      0x00\n        /* \"#utility.yul\":15293:15298   */\n      dup2\n        /* \"#utility.yul\":15286:15298   */\n      swap1\n      pop\n        /* \"#utility.yul\":15229:15304   */\n      swap2\n      swap1\n      pop\n      jump\t// out\n        /* \"#utility.yul\":15310:15579   */\n    tag_314:\n        /* \"#utility.yul\":15420:15459   */\n      tag_483\n        /* \"#utility.yul\":15451:15458   */\n      dup4\n        /* \"#utility.yul\":15420:15459   */\n      tag_312\n      jump\t// in\n    tag_483:\n        /* \"#utility.yul\":15481:15572   */\n      tag_484\n        /* \"#utility.yul\":15530:15571   */\n      tag_485\n        /* \"#utility.yul\":15554:15570   */\n      dup3\n        /* \"#utility.yul\":15530:15571   */\n      tag_313\n      jump\t// in\n    tag_485:\n        /* \"#utility.yul\":15522:15528   */\n      dup5\n        /* \"#utility.yul\":15515:15519   */\n      dup5\n        /* \"#utility.yul\":15509:15520   */\n      sload\n        /* \"#utility.yul\":15481:15572   */\n      tag_310\n      jump\t// in\n    tag_484:\n        /* \"#utility.yul\":15475:15479   */\n      dup3\n        /* \"#utility.yul\":15468:15573   */\n      sstore\n        /* \"#utility.yul\":15386:15579   */\n      pop\n        /* \"#utility.yul\":15310:15579   */\n      pop\n      pop\n      pop\n      jump\t// out\n        /* \"#utility.yul\":15585:15658   */\n    tag_315:\n        /* \"#utility.yul\":15630:15633   */\n      0x00\n        /* \"#utility.yul\":15585:15658   */\n      swap1\n      jump\t// out\n        /* \"#utility.yul\":15664:15853   */\n    tag_316:\n        /* \"#utility.yul\":15741:15773   */\n      tag_488\n      tag_315\n      jump\t// in\n    tag_488:\n        /* \"#utility.yul\":15782:15847   */\n      tag_489\n        /* \"#utility.yul\":15840:15846   */\n      dup2\n        /* \"#utility.yul\":15832:15838   */\n      dup5\n        /* \"#utility.yul\":15826:15830   */\n      dup5\n        /* \"#utility.yul\":15782:15847   */\n      tag_314\n      jump\t// in\n    tag_489:\n        /* \"#utility.yul\":15717:15853   */\n      pop\n        /* \"#utility.yul\":15664:15853   */\n      pop\n      pop\n      jump\t// out\n        /* \"#utility.yul\":15859:16045   */\n    tag_317:\n        /* \"#utility.yul\":15919:16039   */\n    tag_491:\n        /* \"#utility.yul\":15936:15939   */\n      dup2\n        /* \"#utility.yul\":15929:15934   */\n      dup2\n        /* \"#utility.yul\":15926:15940   */\n      lt\n        /* \"#utility.yul\":15919:16039   */\n      iszero\n      tag_493\n      jumpi\n        /* \"#utility.yul\":15990:16029   */\n      tag_494\n        /* \"#utility.yul\":16027:16028   */\n      0x00\n        /* \"#utility.yul\":16020:16025   */\n      dup3\n        /* \"#utility.yul\":15990:16029   */\n      tag_316\n      jump\t// in\n    tag_494:\n        /* \"#utility.yul\":15963:15964   */\n      0x01\n        /* \"#utility.yul\":15956:15961   */\n      dup2\n        /* \"#utility.yul\":15952:15965   */\n      add\n        /* \"#utility.yul\":15943:15965   */\n      swap1\n      pop\n        /* \"#utility.yul\":15919:16039   */\n      jump(tag_491)\n    tag_493:\n        /* \"#utility.yul\":15859:16045   */\n      pop\n      pop\n      jump\t// out\n        /* \"#utility.yul\":16051:16594   */\n    tag_318:\n        /* \"#utility.yul\":16152:16154   */\n      0x1f\n        /* \"#utility.yul\":16147:16150   */\n      dup3\n        /* \"#utility.yul\":16144:16155   */\n      gt\n        /* \"#utility.yul\":16141:16587   */\n      iszero\n      tag_496\n      jumpi\n        /* \"#utility.yul\":16186:16224   */\n      tag_497\n        /* \"#utility.yul\":16218:16223   */\n      dup2\n        /* \"#utility.yul\":16186:16224   */\n      tag_307\n      jump\t// in\n    tag_497:\n        /* \"#utility.yul\":16270:16299   */\n      tag_498\n        /* \"#utility.yul\":16288:16298   */\n      dup5\n        /* \"#utility.yul\":16270:16299   */\n      tag_308\n      jump\t// in\n    tag_498:\n        /* \"#utility.yul\":16260:16268   */\n      dup2\n        /* \"#utility.yul\":16256:16300   */\n      add\n        /* \"#utility.yul\":16453:16455   */\n      0x20\n        /* \"#utility.yul\":16441:16451   */\n      dup6\n        /* \"#utility.yul\":16438:16456   */\n      lt\n        /* \"#utility.yul\":16435:16484   */\n      iszero\n      tag_499\n      jumpi\n        /* \"#utility.yul\":16474:16482   */\n      dup2\n        /* \"#utility.yul\":16459:16482   */\n      swap1\n      pop\n        /* \"#utility.yul\":16435:16484   */\n    tag_499:\n        /* \"#utility.yul\":16497:16577   */\n      tag_500\n        /* \"#utility.yul\":16553:16575   */\n      tag_501\n        /* \"#utility.yul\":16571:16574   */\n      dup6\n        /* \"#utility.yul\":16553:16575   */\n      tag_308\n      jump\t// in\n    tag_501:\n        /* \"#utility.yul\":16543:16551   */\n      dup4\n        /* \"#utility.yul\":16539:16576   */\n      add\n        /* \"#utility.yul\":16526:16537   */\n      dup3\n        /* \"#utility.yul\":16497:16577   */\n      tag_317\n      jump\t// in\n    tag_500:\n        /* \"#utility.yul\":16156:16587   */\n      pop\n      pop\n        /* \"#utility.yul\":16141:16587   */\n    tag_496:\n        /* \"#utility.yul\":16051:16594   */\n      pop\n      pop\n      pop\n      jump\t// out\n        /* \"#utility.yul\":16600:16717   */\n    tag_319:\n        /* \"#utility.yul\":16654:16662   */\n      0x00\n        /* \"#utility.yul\":16704:16709   */\n      dup3\n        /* \"#utility.yul\":16698:16702   */\n      dup3\n        /* \"#utility.yul\":16694:16710   */\n      shr\n        /* \"#utility.yul\":16673:16710   */\n      swap1\n      pop\n        /* \"#utility.yul\":16600:16717   */\n      swap3\n      swap2\n      pop\n      pop\n      jump\t// out\n        /* \"#utility.yul\":16723:16892   */\n    tag_320:\n        /* \"#utility.yul\":16767:16773   */\n      0x00\n        /* \"#utility.yul\":16800:16851   */\n      tag_504\n        /* \"#utility.yul\":16848:16849   */\n      0x00\n        /* \"#utility.yul\":16844:16850   */\n      not\n        /* \"#utility.yul\":16836:16841   */\n      dup5\n        /* \"#utility.yul\":16833:16834   */\n      0x08\n        /* \"#utility.yul\":16829:16842   */\n      mul\n        /* \"#utility.yul\":16800:16851   */\n      tag_319\n      jump\t// in\n    tag_504:\n        /* \"#utility.yul\":16796:16852   */\n      not\n        /* \"#utility.yul\":16881:16885   */\n      dup1\n        /* \"#utility.yul\":16875:16879   */\n      dup4\n        /* \"#utility.yul\":16871:16886   */\n      and\n        /* \"#utility.yul\":16861:16886   */\n      swap2\n      pop\n        /* \"#utility.yul\":16774:16892   */\n      pop\n        /* \"#utility.yul\":16723:16892   */\n      swap3\n      swap2\n      pop\n      pop\n      jump\t// out\n        /* \"#utility.yul\":16897:17192   */\n    tag_321:\n        /* \"#utility.yul\":16973:16977   */\n      0x00\n        /* \"#utility.yul\":17119:17148   */\n      tag_506\n        /* \"#utility.yul\":17144:17147   */\n      dup4\n        /* \"#utility.yul\":17138:17142   */\n      dup4\n        /* \"#utility.yul\":17119:17148   */\n      tag_320\n      jump\t// in\n    tag_506:\n        /* \"#utility.yul\":17111:17148   */\n      swap2\n      pop\n        /* \"#utility.yul\":17181:17184   */\n      dup3\n        /* \"#utility.yul\":17178:17179   */\n      0x02\n        /* \"#utility.yul\":17174:17185   */\n      mul\n        /* \"#utility.yul\":17168:17172   */\n      dup3\n        /* \"#utility.yul\":17165:17186   */\n      or\n        /* \"#utility.yul\":17157:17186   */\n      swap1\n      pop\n        /* \"#utility.yul\":16897:17192   */\n      swap3\n      swap2\n      pop\n      pop\n      jump\t// out\n        /* \"#utility.yul\":17197:18600   */\n    tag_122:\n        /* \"#utility.yul\":17321:17365   */\n      tag_508\n        /* \"#utility.yul\":17361:17364   */\n      dup4\n        /* \"#utility.yul\":17356:17359   */\n      dup4\n        /* \"#utility.yul\":17321:17365   */\n      tag_306\n      jump\t// in\n    tag_508:\n        /* \"#utility.yul\":17430:17448   */\n      0xffffffffffffffff\n        /* \"#utility.yul\":17422:17428   */\n      dup2\n        /* \"#utility.yul\":17419:17449   */\n      gt\n        /* \"#utility.yul\":17416:17472   */\n      iszero\n      tag_509\n      jumpi\n        /* \"#utility.yul\":17452:17470   */\n      tag_510\n      tag_185\n      jump\t// in\n    tag_510:\n        /* \"#utility.yul\":17416:17472   */\n    tag_509:\n        /* \"#utility.yul\":17496:17534   */\n      tag_511\n        /* \"#utility.yul\":17528:17532   */\n      dup3\n        /* \"#utility.yul\":17522:17533   */\n      sload\n        /* \"#utility.yul\":17496:17534   */\n      tag_86\n      jump\t// in\n    tag_511:\n        /* \"#utility.yul\":17581:17648   */\n      tag_512\n        /* \"#utility.yul\":17641:17647   */\n      dup3\n        /* \"#utility.yul\":17633:17639   */\n      dup3\n        /* \"#utility.yul\":17627:17631   */\n      dup6\n        /* \"#utility.yul\":17581:17648   */\n      tag_318\n      jump\t// in\n    tag_512:\n        /* \"#utility.yul\":17675:17676   */\n      0x00\n        /* \"#utility.yul\":17704:17706   */\n      0x1f\n        /* \"#utility.yul\":17696:17702   */\n      dup4\n        /* \"#utility.yul\":17693:17707   */\n      gt\n        /* \"#utility.yul\":17721:17722   */\n      0x01\n        /* \"#utility.yul\":17716:18348   */\n      dup2\n      eq\n      tag_514\n      jumpi\n        /* \"#utility.yul\":18392:18393   */\n      0x00\n        /* \"#utility.yul\":18409:18415   */\n      dup5\n        /* \"#utility.yul\":18406:18490   */\n      iszero\n      tag_515\n      jumpi\n        /* \"#utility.yul\":18465:18474   */\n      dup3\n        /* \"#utility.yul\":18460:18463   */\n      dup8\n        /* \"#utility.yul\":18456:18475   */\n      add\n        /* \"#utility.yul\":18443:18476   */\n      calldataload\n        /* \"#utility.yul\":18434:18476   */\n      swap1\n      pop\n        /* \"#utility.yul\":18406:18490   */\n    tag_515:\n        /* \"#utility.yul\":18516:18583   */\n      tag_516\n        /* \"#utility.yul\":18576:18582   */\n      dup6\n        /* \"#utility.yul\":18569:18574   */\n      dup3\n        /* \"#utility.yul\":18516:18583   */\n      tag_321\n      jump\t// in\n    tag_516:\n        /* \"#utility.yul\":18510:18514   */\n      dup7\n        /* \"#utility.yul\":18503:18584   */\n      sstore\n        /* \"#utility.yul\":18365:18594   */\n      pop\n        /* \"#utility.yul\":17686:18594   */\n      jump(tag_513)\n        /* \"#utility.yul\":17716:18348   */\n    tag_514:\n        /* \"#utility.yul\":17768:17772   */\n      0x1f\n        /* \"#utility.yul\":17764:17773   */\n      not\n        /* \"#utility.yul\":17756:17762   */\n      dup5\n        /* \"#utility.yul\":17752:17774   */\n      and\n        /* \"#utility.yul\":17802:17839   */\n      tag_517\n        /* \"#utility.yul\":17834:17838   */\n      dup7\n        /* \"#utility.yul\":17802:17839   */\n      tag_307\n      jump\t// in\n    tag_517:\n        /* \"#utility.yul\":17861:17862   */\n      0x00\n        /* \"#utility.yul\":17875:18090   */\n    tag_518:\n        /* \"#utility.yul\":17889:17896   */\n      dup3\n        /* \"#utility.yul\":17886:17887   */\n      dup2\n        /* \"#utility.yul\":17883:17897   */\n      lt\n        /* \"#utility.yul\":17875:18090   */\n      iszero\n      tag_520\n      jumpi\n        /* \"#utility.yul\":17975:17984   */\n      dup5\n        /* \"#utility.yul\":17970:17973   */\n      dup10\n        /* \"#utility.yul\":17966:17985   */\n      add\n        /* \"#utility.yul\":17953:17986   */\n      calldataload\n        /* \"#utility.yul\":17945:17951   */\n      dup3\n        /* \"#utility.yul\":17938:17987   */\n      sstore\n        /* \"#utility.yul\":18026:18027   */\n      0x01\n        /* \"#utility.yul\":18018:18024   */\n      dup3\n        /* \"#utility.yul\":18014:18028   */\n      add\n        /* \"#utility.yul\":18004:18028   */\n      swap2\n      pop\n        /* \"#utility.yul\":18073:18075   */\n      0x20\n        /* \"#utility.yul\":18062:18071   */\n      dup6\n        /* \"#utility.yul\":18058:18076   */\n      add\n        /* \"#utility.yul\":18045:18076   */\n      swap5\n      pop\n        /* \"#utility.yul\":17912:17916   */\n      0x20\n        /* \"#utility.yul\":17909:17910   */\n      dup2\n        /* \"#utility.yul\":17905:17917   */\n      add\n        /* \"#utility.yul\":17900:17917   */\n      swap1\n      pop\n        /* \"#utility.yul\":17875:18090   */\n      jump(tag_518)\n    tag_520:\n        /* \"#utility.yul\":18118:18124   */\n      dup7\n        /* \"#utility.yul\":18109:18116   */\n      dup4\n        /* \"#utility.yul\":18106:18125   */\n      lt\n        /* \"#utility.yul\":18103:18289   */\n      iszero\n      tag_521\n      jumpi\n        /* \"#utility.yul\":18183:18192   */\n      dup5\n        /* \"#utility.yul\":18178:18181   */\n      dup10\n        /* \"#utility.yul\":18174:18193   */\n      add\n        /* \"#utility.yul\":18161:18194   */\n      calldataload\n        /* \"#utility.yul\":18226:18274   */\n      tag_522\n        /* \"#utility.yul\":18268:18272   */\n      0x1f\n        /* \"#utility.yul\":18260:18266   */\n      dup10\n        /* \"#utility.yul\":18256:18273   */\n      and\n        /* \"#utility.yul\":18245:18254   */\n      dup3\n        /* \"#utility.yul\":18226:18274   */\n      tag_320\n      jump\t// in\n    tag_522:\n        /* \"#utility.yul\":18218:18224   */\n      dup4\n        /* \"#utility.yul\":18211:18275   */\n      sstore\n        /* \"#utility.yul\":18126:18289   */\n      pop\n        /* \"#utility.yul\":18103:18289   */\n    tag_521:\n        /* \"#utility.yul\":18335:18336   */\n      0x01\n        /* \"#utility.yul\":18331:18332   */\n      0x02\n        /* \"#utility.yul\":18323:18329   */\n      dup9\n        /* \"#utility.yul\":18319:18333   */\n      mul\n        /* \"#utility.yul\":18315:18337   */\n      add\n        /* \"#utility.yul\":18309:18313   */\n      dup9\n        /* \"#utility.yul\":18302:18338   */\n      sstore\n        /* \"#utility.yul\":17723:18348   */\n      pop\n      pop\n      pop\n        /* \"#utility.yul\":17686:18594   */\n    tag_513:\n      pop\n        /* \"#utility.yul\":17296:18600   */\n      pop\n      pop\n      pop\n        /* \"#utility.yul\":17197:18600   */\n      pop\n      pop\n      pop\n      jump\t// out\n        /* \"#utility.yul\":18606:18800   */\n    tag_124:\n        /* \"#utility.yul\":18646:18650   */\n      0x00\n        /* \"#utility.yul\":18666:18686   */\n      tag_524\n        /* \"#utility.yul\":18684:18685   */\n      dup3\n        /* \"#utility.yul\":18666:18686   */\n      tag_278\n      jump\t// in\n    tag_524:\n        /* \"#utility.yul\":18661:18686   */\n      swap2\n      pop\n        /* \"#utility.yul\":18700:18720   */\n      tag_525\n        /* \"#utility.yul\":18718:18719   */\n      dup4\n        /* \"#utility.yul\":18700:18720   */\n      tag_278\n      jump\t// in\n    tag_525:\n        /* \"#utility.yul\":18695:18720   */\n      swap3\n      pop\n        /* \"#utility.yul\":18744:18745   */\n      dup3\n        /* \"#utility.yul\":18741:18742   */\n      dup3\n        /* \"#utility.yul\":18737:18746   */\n      sub\n        /* \"#utility.yul\":18729:18746   */\n      swap1\n      pop\n        /* \"#utility.yul\":18768:18769   */\n      dup2\n        /* \"#utility.yul\":18762:18766   */\n      dup2\n        /* \"#utility.yul\":18759:18770   */\n      gt\n        /* \"#utility.yul\":18756:18793   */\n      iszero\n      tag_526\n      jumpi\n        /* \"#utility.yul\":18773:18791   */\n      tag_527\n      tag_305\n      jump\t// in\n    tag_527:\n        /* \"#utility.yul\":18756:18793   */\n    tag_526:\n        /* \"#utility.yul\":18606:18800   */\n      swap3\n      swap2\n      pop\n      pop\n      jump\t// out\n        /* \"#utility.yul\":18806:18970   */\n    tag_322:\n        /* \"#utility.yul\":18946:18962   */\n      0x496e76616c696449737375654964000000000000000000000000000000000000\n        /* \"#utility.yul\":18942:18943   */\n      0x00\n        /* \"#utility.yul\":18934:18940   */\n      dup3\n        /* \"#utility.yul\":18930:18944   */\n      add\n        /* \"#utility.yul\":18923:18963   */\n      mstore\n        /* \"#utility.yul\":18806:18970   */\n      pop\n      jump\t// out\n        /* \"#utility.yul\":18976:19342   */\n    tag_323:\n        /* \"#utility.yul\":19118:19121   */\n      0x00\n        /* \"#utility.yul\":19139:19206   */\n      tag_530\n        /* \"#utility.yul\":19203:19205   */\n      0x0e\n        /* \"#utility.yul\":19198:19201   */\n      dup4\n        /* \"#utility.yul\":19139:19206   */\n      tag_267\n      jump\t// in\n    tag_530:\n        /* \"#utility.yul\":19132:19206   */\n      swap2\n      pop\n        /* \"#utility.yul\":19215:19308   */\n      tag_531\n        /* \"#utility.yul\":19304:19307   */\n      dup3\n        /* \"#utility.yul\":19215:19308   */\n      tag_322\n      jump\t// in\n    tag_531:\n        /* \"#utility.yul\":19333:19335   */\n      0x20\n        /* \"#utility.yul\":19328:19331   */\n      dup3\n        /* \"#utility.yul\":19324:19336   */\n      add\n        /* \"#utility.yul\":19317:19336   */\n      swap1\n      pop\n        /* \"#utility.yul\":18976:19342   */\n      swap2\n      swap1\n      pop\n      jump\t// out\n        /* \"#utility.yul\":19348:19767   */\n    tag_129:\n        /* \"#utility.yul\":19514:19518   */\n      0x00\n        /* \"#utility.yul\":19552:19554   */\n      0x20\n        /* \"#utility.yul\":19541:19550   */\n      dup3\n        /* \"#utility.yul\":19537:19555   */\n      add\n        /* \"#utility.yul\":19529:19555   */\n      swap1\n      pop\n        /* \"#utility.yul\":19601:19610   */\n      dup2\n        /* \"#utility.yul\":19595:19599   */\n      dup2\n        /* \"#utility.yul\":19591:19611   */\n      sub\n        /* \"#utility.yul\":19587:19588   */\n      0x00\n        /* \"#utility.yul\":19576:19585   */\n      dup4\n        /* \"#utility.yul\":19572:19589   */\n      add\n        /* \"#utility.yul\":19565:19612   */\n      mstore\n        /* \"#utility.yul\":19629:19760   */\n      tag_533\n        /* \"#utility.yul\":19755:19759   */\n      dup2\n        /* \"#utility.yul\":19629:19760   */\n      tag_323\n      jump\t// in\n    tag_533:\n        /* \"#utility.yul\":19621:19760   */\n      swap1\n      pop\n        /* \"#utility.yul\":19348:19767   */\n      swap2\n      swap1\n      pop\n      jump\t// out\n        /* \"#utility.yul\":19773:19953   */\n    tag_132:\n        /* \"#utility.yul\":19821:19898   */\n      0x4e487b7100000000000000000000000000000000000000000000000000000000\n        /* \"#utility.yul\":19818:19819   */\n      0x00\n        /* \"#utility.yul\":19811:19899   */\n      mstore\n        /* \"#utility.yul\":19918:19922   */\n      0x32\n        /* \"#utility.yul\":19915:19916   */\n      0x04\n        /* \"#utility.yul\":19908:19923   */\n      mstore\n        /* \"#utility.yul\":19942:19946   */\n      0x24\n        /* \"#utility.yul\":19939:19940   */\n      0x00\n        /* \"#utility.yul\":19932:19947   */\n      revert\n        /* \"#utility.yul\":19959:20139   */\n    tag_144:\n        /* \"#utility.yul\":20007:20084   */\n      0x4e487b7100000000000000000000000000000000000000000000000000000000\n        /* \"#utility.yul\":20004:20005   */\n      0x00\n        /* \"#utility.yul\":19997:20085   */\n      mstore\n        /* \"#utility.yul\":20104:20108   */\n      0x21\n        /* \"#utility.yul\":20101:20102   */\n      0x04\n        /* \"#utility.yul\":20094:20109   */\n      mstore\n        /* \"#utility.yul\":20128:20132   */\n      0x24\n        /* \"#utility.yul\":20125:20126   */\n      0x00\n        /* \"#utility.yul\":20118:20133   */\n      revert\n        /* \"#utility.yul\":20145:20263   */\n    tag_324:\n        /* \"#utility.yul\":20232:20256   */\n      tag_537\n        /* \"#utility.yul\":20250:20255   */\n      dup2\n        /* \"#utility.yul\":20232:20256   */\n      tag_275\n      jump\t// in\n    tag_537:\n        /* \"#utility.yul\":20227:20230   */\n      dup3\n        /* \"#utility.yul\":20220:20257   */\n      mstore\n        /* \"#utility.yul\":20145:20263   */\n      pop\n      pop\n      jump\t// out\n        /* \"#utility.yul\":20269:20711   */\n    tag_213:\n        /* \"#utility.yul\":20418:20422   */\n      0x00\n        /* \"#utility.yul\":20456:20458   */\n      0x60\n        /* \"#utility.yul\":20445:20454   */\n      dup3\n        /* \"#utility.yul\":20441:20459   */\n      add\n        /* \"#utility.yul\":20433:20459   */\n      swap1\n      pop\n        /* \"#utility.yul\":20469:20540   */\n      tag_539\n        /* \"#utility.yul\":20537:20538   */\n      0x00\n        /* \"#utility.yul\":20526:20535   */\n      dup4\n        /* \"#utility.yul\":20522:20539   */\n      add\n        /* \"#utility.yul\":20513:20519   */\n      dup7\n        /* \"#utility.yul\":20469:20540   */\n      tag_324\n      jump\t// in\n    tag_539:\n        /* \"#utility.yul\":20550:20622   */\n      tag_540\n        /* \"#utility.yul\":20618:20620   */\n      0x20\n        /* \"#utility.yul\":20607:20616   */\n      dup4\n        /* \"#utility.yul\":20603:20621   */\n      add\n        /* \"#utility.yul\":20594:20600   */\n      dup6\n        /* \"#utility.yul\":20550:20622   */\n      tag_283\n      jump\t// in\n    tag_540:\n        /* \"#utility.yul\":20632:20704   */\n      tag_541\n        /* \"#utility.yul\":20700:20702   */\n      0x40\n        /* \"#utility.yul\":20689:20698   */\n      dup4\n        /* \"#utility.yul\":20685:20703   */\n      add\n        /* \"#utility.yul\":20676:20682   */\n      dup5\n        /* \"#utility.yul\":20632:20704   */\n      tag_283\n      jump\t// in\n    tag_541:\n        /* \"#utility.yul\":20269:20711   */\n      swap5\n      swap4\n      pop\n      pop\n      pop\n      pop\n      jump\t// out\n        /* \"#utility.yul\":20717:20939   */\n    tag_218:\n        /* \"#utility.yul\":20810:20814   */\n      0x00\n        /* \"#utility.yul\":20848:20850   */\n      0x20\n        /* \"#utility.yul\":20837:20846   */\n      dup3\n        /* \"#utility.yul\":20833:20851   */\n      add\n        /* \"#utility.yul\":20825:20851   */\n      swap1\n      pop\n        /* \"#utility.yul\":20861:20932   */\n      tag_543\n        /* \"#utility.yul\":20929:20930   */\n      0x00\n        /* \"#utility.yul\":20918:20927   */\n      dup4\n        /* \"#utility.yul\":20914:20931   */\n      add\n        /* \"#utility.yul\":20905:20911   */\n      dup5\n        /* \"#utility.yul\":20861:20932   */\n      tag_324\n      jump\t// in\n    tag_543:\n        /* \"#utility.yul\":20717:20939   */\n      swap3\n      swap2\n      pop\n      pop\n      jump\t// out\n\n    auxdata: 0xa2646970667358221220c6ffe518c95882cb50ec9d0e40aeca898ac7706851b753c7aef559656affbf2664736f6c634300081a0033\n}\n",
				"bytecode": {
					"linkReferences": {},
					"object": "6080604052620f4240600555348015610016575f80fd5b506040518060400160405280601381526020017f5765696768746564566f74696e67546f6b656e000000000000000000000000008152506040518060400160405280600381526020017f575654000000000000000000000000000000000000000000000000000000000081525081600390816100929190610300565b5080600490816100a29190610300565b505050600660018160018154018082558091505003905f5260205f209050506103cf565b5f81519050919050565b7f4e487b71000000000000000000000000000000000000000000000000000000005f52604160045260245ffd5b7f4e487b71000000000000000000000000000000000000000000000000000000005f52602260045260245ffd5b5f600282049050600182168061014157607f821691505b602082108103610154576101536100fd565b5b50919050565b5f819050815f5260205f209050919050565b5f6020601f8301049050919050565b5f82821b905092915050565b5f600883026101b67fffffffffffffffffffffffffffffffffffffffffffffffffffffffffffffffff8261017b565b6101c0868361017b565b95508019841693508086168417925050509392505050565b5f819050919050565b5f819050919050565b5f6102046101ff6101fa846101d8565b6101e1565b6101d8565b9050919050565b5f819050919050565b61021d836101ea565b6102316102298261020b565b848454610187565b825550505050565b5f90565b610245610239565b610250818484610214565b505050565b5b81811015610273576102685f8261023d565b600181019050610256565b5050565b601f8211156102b8576102898161015a565b6102928461016c565b810160208510156102a1578190505b6102b56102ad8561016c565b830182610255565b50505b505050565b5f82821c905092915050565b5f6102d85f19846008026102bd565b1980831691505092915050565b5f6102f083836102c9565b9150826002028217905092915050565b610309826100c6565b67ffffffffffffffff811115610322576103216100d0565b5b61032c825461012a565b610337828285610277565b5f60209050601f831160018114610368575f8415610356578287015190505b61036085826102e5565b8655506103c7565b601f1984166103768661015a565b5f5b8281101561039d57848901518255600182019150602085019450602081019050610378565b868310156103ba57848901516103b6601f8916826102c9565b8355505b6001600288020188555050505b505050505050565b611f43806103dc5f395ff3fe608060405234801561000f575f80fd5b50600436106100f3575f3560e01c806370a0823111610095578063976b311311610064578063976b311314610273578063a9059cbb146102a3578063d5abeb01146102d3578063dd62ed3e146102f1576100f3565b806370a08231146101d95780638615d85514610209578063943e82161461023957806395d89b4114610255576100f3565b806323b872dd116100d157806323b872dd14610163578063313ce567146101935780634e71d92d146101b157806350b59447146101bb576100f3565b806306fdde03146100f7578063095ea7b31461011557806318160ddd14610145575b5f80fd5b6100ff610321565b60405161010c91906114d2565b60405180910390f35b61012f600480360381019061012a9190611587565b6103b1565b60405161013c91906115df565b60405180910390f35b61014d6103d3565b60405161015a9190611607565b60405180910390f35b61017d60048036038101906101789190611620565b6103dc565b60405161018a91906115df565b60405180910390f35b61019b61040a565b6040516101a8919061168b565b60405180910390f35b6101b9610412565b005b6101c3610544565b6040516101d09190611607565b60405180910390f35b6101f360048036038101906101ee91906116a4565b610550565b6040516102009190611607565b60405180910390f35b610223600480360381019061021e9190611730565b610595565b6040516102309190611607565b60405180910390f35b610253600480360381019061024e91906117b0565b61067d565b005b61025d610939565b60405161026a91906114d2565b60405180910390f35b61028d600480360381019061028891906117ee565b6109c9565b60405161029a91906119ff565b60405180910390f35b6102bd60048036038101906102b89190611587565b610c2c565b6040516102ca91906115df565b60405180910390f35b6102db610c4e565b6040516102e89190611607565b60405180910390f35b61030b60048036038101906103069190611a1f565b610c54565b6040516103189190611607565b60405180910390f35b60606003805461033090611a8a565b80601f016020809104026020016040519081016040528092919081815260200182805461035c90611a8a565b80156103a75780601f1061037e576101008083540402835291602001916103a7565b820191905f5260205f20905b81548152906001019060200180831161038a57829003601f168201915b5050505050905090565b5f806103bb610cd6565b90506103c8818585610cdd565b600191505092915050565b5f600254905090565b5f806103e6610cd6565b90506103f3858285610cef565b6103fe858585610d81565b60019150509392505050565b5f6012905090565b60075f3373ffffffffffffffffffffffffffffffffffffffff1673ffffffffffffffffffffffffffffffffffffffff1681526020019081526020015f205f9054906101000a900460ff1615610493576040517f0b1327a600000000000000000000000000000000000000000000000000000000815260040160405180910390fd5b60055460646104a06103d3565b6104aa9190611ae7565b11156104e2576040517fcbe2483100000000000000000000000000000000000000000000000000000000815260040160405180910390fd5b600160075f3373ffffffffffffffffffffffffffffffffffffffff1673ffffffffffffffffffffffffffffffffffffffff1681526020019081526020015f205f6101000a81548160ff021916908315150217905550610542336064610e71565b565b5f600680549050905090565b5f805f8373ffffffffffffffffffffffffffffffffffffffff1673ffffffffffffffffffffffffffffffffffffffff1681526020019081526020015f20549050919050565b5f806105a033610550565b036105d7576040517f8439960d00000000000000000000000000000000000000000000000000000000815260040160405180910390fd5b6105df6103d3565b82111561062357816040517f589a495200000000000000000000000000000000000000000000000000000000815260040161061a9190611607565b60405180910390fd5b5f600660018160018154018082558091505003905f5260205f20906009020190508484826002019182610657929190611cee565b5082816007018190555060016006805490506106739190611dbb565b9150509392505050565b5f82118015610690575060068054905082105b6106cf576040517f08c379a00000000000000000000000000000000000000000000000000000000081526004016106c690611e38565b60405180910390fd5b5f600683815481106106e4576106e3611e56565b5b905f5260205f20906009020190508060080160019054906101000a900460ff161561073b576040517f66b6cb4a00000000000000000000000000000000000000000000000000000000815260040160405180910390fd5b61075033825f01610ef090919063ffffffff16565b15610787576040517f7c9a1cf900000000000000000000000000000000000000000000000000000000815260040160405180910390fd5b5f61079133610550565b90505f81036107cc576040517f8439960d00000000000000000000000000000000000000000000000000000000815260040160405180910390fd5b6107e133835f01610f1d90919063ffffffff16565b50600160028111156107f6576107f5611e83565b5b83600281111561080957610808611e83565b5b0361082d5780826003015f8282546108219190611ae7565b925050819055506108bf565b5f60028111156108405761083f611e83565b5b83600281111561085357610852611e83565b5b036108775780826004015f82825461086b9190611ae7565b925050819055506108be565b60028081111561088a57610889611e83565b5b83600281111561089d5761089c611e83565b5b036108bd5780826005015f8282546108b59190611ae7565b925050819055505b5b5b80826006015f8282546108d29190611ae7565b9250508190555081600701548260060154106109335760018260080160016101000a81548160ff021916908315150217905550816004015482600301541115610932576001826008015f6101000a81548160ff0219169083151502179055505b5b50505050565b60606004805461094890611a8a565b80601f016020809104026020016040519081016040528092919081815260200182805461097490611a8a565b80156109bf5780601f10610996576101008083540402835291602001916109bf565b820191905f5260205f20905b8154815290600101906020018083116109a257829003601f168201915b5050505050905090565b6109d1611419565b5f821180156109e4575060068054905082105b610a23576040517f08c379a0000000000000000000000000000000000000000000000000000000008152600401610a1a90611e38565b60405180910390fd5b5f60068381548110610a3857610a37611e56565b5b905f5260205f20906009020190505f610a52825f01610f4a565b67ffffffffffffffff811115610a6b57610a6a611b24565b5b604051908082528060200260200182016040528015610a995781602001602082028036833780820191505090505b5090505f5b610aa9835f01610f4a565b811015610b1f57610ac581845f01610f5d90919063ffffffff16565b828281518110610ad857610ad7611e56565b5b602002602001019073ffffffffffffffffffffffffffffffffffffffff16908173ffffffffffffffffffffffffffffffffffffffff16815250508080600101915050610a9e565b50604051806101200160405280828152602001836002018054610b4190611a8a565b80601f0160208091040260200160405190810160405280929190818152602001828054610b6d90611a8a565b8015610bb85780601f10610b8f57610100808354040283529160200191610bb8565b820191905f5260205f20905b815481529060010190602001808311610b9b57829003601f168201915b505050505081526020018360030154815260200183600401548152602001836005015481526020018360060154815260200183600701548152602001836008015f9054906101000a900460ff16151581526020018360080160019054906101000a900460ff16151581525092505050919050565b5f80610c36610cd6565b9050610c43818585610d81565b600191505092915050565b60055481565b5f60015f8473ffffffffffffffffffffffffffffffffffffffff1673ffffffffffffffffffffffffffffffffffffffff1681526020019081526020015f205f8373ffffffffffffffffffffffffffffffffffffffff1673ffffffffffffffffffffffffffffffffffffffff1681526020019081526020015f2054905092915050565b5f33905090565b610cea8383836001610f74565b505050565b5f610cfa8484610c54565b90507fffffffffffffffffffffffffffffffffffffffffffffffffffffffffffffffff8114610d7b5781811015610d6c578281836040517ffb8f41b2000000000000000000000000000000000000000000000000000000008152600401610d6393929190611ebf565b60405180910390fd5b610d7a84848484035f610f74565b5b50505050565b5f73ffffffffffffffffffffffffffffffffffffffff168373ffffffffffffffffffffffffffffffffffffffff1603610df1575f6040517f96c6fd1e000000000000000000000000000000000000000000000000000000008152600401610de89190611ef4565b60405180910390fd5b5f73ffffffffffffffffffffffffffffffffffffffff168273ffffffffffffffffffffffffffffffffffffffff1603610e61575f6040517fec442f05000000000000000000000000000000000000000000000000000000008152600401610e589190611ef4565b60405180910390fd5b610e6c838383611143565b505050565b5f73ffffffffffffffffffffffffffffffffffffffff168273ffffffffffffffffffffffffffffffffffffffff1603610ee1575f6040517fec442f05000000000000000000000000000000000000000000000000000000008152600401610ed89190611ef4565b60405180910390fd5b610eec5f8383611143565b5050565b5f610f15835f018373ffffffffffffffffffffffffffffffffffffffff165f1b61135c565b905092915050565b5f610f42835f018373ffffffffffffffffffffffffffffffffffffffff165f1b61137c565b905092915050565b5f610f56825f016113e3565b9050919050565b5f610f6a835f01836113f2565b5f1c905092915050565b5f73ffffffffffffffffffffffffffffffffffffffff168473ffffffffffffffffffffffffffffffffffffffff1603610fe4575f6040517fe602df05000000000000000000000000000000000000000000000000000000008152600401610fdb9190611ef4565b60405180910390fd5b5f73ffffffffffffffffffffffffffffffffffffffff168373ffffffffffffffffffffffffffffffffffffffff1603611054575f6040517f94280d6200000000000000000000000000000000000000000000000000000000815260040161104b9190611ef4565b60405180910390fd5b8160015f8673ffffffffffffffffffffffffffffffffffffffff1673ffffffffffffffffffffffffffffffffffffffff1681526020019081526020015f205f8573ffffffffffffffffffffffffffffffffffffffff1673ffffffffffffffffffffffffffffffffffffffff1681526020019081526020015f2081905550801561113d578273ffffffffffffffffffffffffffffffffffffffff168473ffffffffffffffffffffffffffffffffffffffff167f8c5be1e5ebec7d5bd14f71427d1e84f3dd0314c0f7b2291e5b200ac8c7c3b925846040516111349190611607565b60405180910390a35b50505050565b5f73ffffffffffffffffffffffffffffffffffffffff168373ffffffffffffffffffffffffffffffffffffffff1603611193578060025f8282546111879190611ae7565b92505081905550611261565b5f805f8573ffffffffffffffffffffffffffffffffffffffff1673ffffffffffffffffffffffffffffffffffffffff1681526020019081526020015f205490508181101561121c578381836040517fe450d38c00000000000000000000000000000000000000000000000000000000815260040161121393929190611ebf565b60405180910390fd5b8181035f808673ffffffffffffffffffffffffffffffffffffffff1673ffffffffffffffffffffffffffffffffffffffff1681526020019081526020015f2081905550505b5f73ffffffffffffffffffffffffffffffffffffffff168273ffffffffffffffffffffffffffffffffffffffff16036112a8578060025f82825403925050819055506112f2565b805f808473ffffffffffffffffffffffffffffffffffffffff1673ffffffffffffffffffffffffffffffffffffffff1681526020019081526020015f205f82825401925050819055505b8173ffffffffffffffffffffffffffffffffffffffff168373ffffffffffffffffffffffffffffffffffffffff167fddf252ad1be2c89b69c2b068fc378daa952ba7f163c4a11628f55a4df523b3ef8360405161134f9190611607565b60405180910390a3505050565b5f80836001015f8481526020019081526020015f20541415905092915050565b5f611387838361135c565b6113d957825f0182908060018154018082558091505060019003905f5260205f20015f9091909190915055825f0180549050836001015f8481526020019081526020015f2081905550600190506113dd565b5f90505b92915050565b5f815f01805490509050919050565b5f825f01828154811061140857611407611e56565b5b905f5260205f200154905092915050565b60405180610120016040528060608152602001606081526020015f81526020015f81526020015f81526020015f81526020015f81526020015f151581526020015f151581525090565b5f81519050919050565b5f82825260208201905092915050565b8281835e5f83830152505050565b5f601f19601f8301169050919050565b5f6114a482611462565b6114ae818561146c565b93506114be81856020860161147c565b6114c78161148a565b840191505092915050565b5f6020820190508181035f8301526114ea818461149a565b905092915050565b5f80fd5b5f80fd5b5f73ffffffffffffffffffffffffffffffffffffffff82169050919050565b5f611523826114fa565b9050919050565b61153381611519565b811461153d575f80fd5b50565b5f8135905061154e8161152a565b92915050565b5f819050919050565b61156681611554565b8114611570575f80fd5b50565b5f813590506115818161155d565b92915050565b5f806040838503121561159d5761159c6114f2565b5b5f6115aa85828601611540565b92505060206115bb85828601611573565b9150509250929050565b5f8115159050919050565b6115d9816115c5565b82525050565b5f6020820190506115f25f8301846115d0565b92915050565b61160181611554565b82525050565b5f60208201905061161a5f8301846115f8565b92915050565b5f805f60608486031215611637576116366114f2565b5b5f61164486828701611540565b935050602061165586828701611540565b925050604061166686828701611573565b9150509250925092565b5f60ff82169050919050565b61168581611670565b82525050565b5f60208201905061169e5f83018461167c565b92915050565b5f602082840312156116b9576116b86114f2565b5b5f6116c684828501611540565b91505092915050565b5f80fd5b5f80fd5b5f80fd5b5f8083601f8401126116f0576116ef6116cf565b5b8235905067ffffffffffffffff81111561170d5761170c6116d3565b5b602083019150836001820283011115611729576117286116d7565b5b9250929050565b5f805f60408486031215611747576117466114f2565b5b5f84013567ffffffffffffffff811115611764576117636114f6565b5b611770868287016116db565b9350935050602061178386828701611573565b9150509250925092565b60038110611799575f80fd5b50565b5f813590506117aa8161178d565b92915050565b5f80604083850312156117c6576117c56114f2565b5b5f6117d385828601611573565b92505060206117e48582860161179c565b9150509250929050565b5f60208284031215611803576118026114f2565b5b5f61181084828501611573565b91505092915050565b5f81519050919050565b5f82825260208201905092915050565b5f819050602082019050919050565b61184b81611519565b82525050565b5f61185c8383611842565b60208301905092915050565b5f602082019050919050565b5f61187e82611819565b6118888185611823565b935061189383611833565b805f5b838110156118c35781516118aa8882611851565b97506118b583611868565b925050600181019050611896565b5085935050505092915050565b5f82825260208201905092915050565b5f6118ea82611462565b6118f481856118d0565b935061190481856020860161147c565b61190d8161148a565b840191505092915050565b61192181611554565b82525050565b611930816115c5565b82525050565b5f61012083015f8301518482035f8601526119518282611874565b9150506020830151848203602086015261196b82826118e0565b91505060408301516119806040860182611918565b5060608301516119936060860182611918565b5060808301516119a66080860182611918565b5060a08301516119b960a0860182611918565b5060c08301516119cc60c0860182611918565b5060e08301516119df60e0860182611927565b506101008301516119f4610100860182611927565b508091505092915050565b5f6020820190508181035f830152611a178184611936565b905092915050565b5f8060408385031215611a3557611a346114f2565b5b5f611a4285828601611540565b9250506020611a5385828601611540565b9150509250929050565b7f4e487b71000000000000000000000000000000000000000000000000000000005f52602260045260245ffd5b5f6002820490506001821680611aa157607f821691505b602082108103611ab457611ab3611a5d565b5b50919050565b7f4e487b71000000000000000000000000000000000000000000000000000000005f52601160045260245ffd5b5f611af182611554565b9150611afc83611554565b9250828201905080821115611b1457611b13611aba565b5b92915050565b5f82905092915050565b7f4e487b71000000000000000000000000000000000000000000000000000000005f52604160045260245ffd5b5f819050815f5260205f209050919050565b5f6020601f8301049050919050565b5f82821b905092915050565b5f60088302611bad7fffffffffffffffffffffffffffffffffffffffffffffffffffffffffffffffff82611b72565b611bb78683611b72565b95508019841693508086168417925050509392505050565b5f819050919050565b5f611bf2611bed611be884611554565b611bcf565b611554565b9050919050565b5f819050919050565b611c0b83611bd8565b611c1f611c1782611bf9565b848454611b7e565b825550505050565b5f90565b611c33611c27565b611c3e818484611c02565b505050565b5b81811015611c6157611c565f82611c2b565b600181019050611c44565b5050565b601f821115611ca657611c7781611b51565b611c8084611b63565b81016020851015611c8f578190505b611ca3611c9b85611b63565b830182611c43565b50505b505050565b5f82821c905092915050565b5f611cc65f1984600802611cab565b1980831691505092915050565b5f611cde8383611cb7565b9150826002028217905092915050565b611cf88383611b1a565b67ffffffffffffffff811115611d1157611d10611b24565b5b611d1b8254611a8a565b611d26828285611c65565b5f601f831160018114611d53575f8415611d41578287013590505b611d4b8582611cd3565b865550611db2565b601f198416611d6186611b51565b5f5b82811015611d8857848901358255600182019150602085019450602081019050611d63565b86831015611da55784890135611da1601f891682611cb7565b8355505b6001600288020188555050505b50505050505050565b5f611dc582611554565b9150611dd083611554565b9250828203905081811115611de857611de7611aba565b5b92915050565b7f496e76616c6964497373756549640000000000000000000000000000000000005f82015250565b5f611e22600e8361146c565b9150611e2d82611dee565b602082019050919050565b5f6020820190508181035f830152611e4f81611e16565b9050919050565b7f4e487b71000000000000000000000000000000000000000000000000000000005f52603260045260245ffd5b7f4e487b71000000000000000000000000000000000000000000000000000000005f52602160045260245ffd5b611eb981611519565b82525050565b5f606082019050611ed25f830186611eb0565b611edf60208301856115f8565b611eec60408301846115f8565b949350505050565b5f602082019050611f075f830184611eb0565b9291505056fea2646970667358221220c6ffe518c95882cb50ec9d0e40aeca898ac7706851b753c7aef559656affbf2664736f6c634300081a0033",
					"opcodes": "PUSH1 0x80 PUSH1 0x40 MSTORE PUSH3 0xF4240 PUSH1 0x5 SSTORE CALLVALUE DUP1 ISZERO PUSH2 0x16 JUMPI PUSH0 DUP1 REVERT JUMPDEST POP PUSH1 0x40 MLOAD DUP1 PUSH1 0x40 ADD PUSH1 0x40 MSTORE DUP1 PUSH1 0x13 DUP2 MSTORE PUSH1 0x20 ADD PUSH32 0x5765696768746564566F74696E67546F6B656E00000000000000000000000000 DUP2 MSTORE POP PUSH1 0x40 MLOAD DUP1 PUSH1 0x40 ADD PUSH1 0x40 MSTORE DUP1 PUSH1 0x3 DUP2 MSTORE PUSH1 0x20 ADD PUSH32 0x5756540000000000000000000000000000000000000000000000000000000000 DUP2 MSTORE POP DUP2 PUSH1 0x3 SWAP1 DUP2 PUSH2 0x92 SWAP2 SWAP1 PUSH2 0x300 JUMP JUMPDEST POP DUP1 PUSH1 0x4 SWAP1 DUP2 PUSH2 0xA2 SWAP2 SWAP1 PUSH2 0x300 JUMP JUMPDEST POP POP POP PUSH1 0x6 PUSH1 0x1 DUP2 PUSH1 0x1 DUP2 SLOAD ADD DUP1 DUP3 SSTORE DUP1 SWAP2 POP POP SUB SWAP1 PUSH0 MSTORE PUSH1 0x20 PUSH0 KECCAK256 SWAP1 POP POP PUSH2 0x3CF JUMP JUMPDEST PUSH0 DUP2 MLOAD SWAP1 POP SWAP2 SWAP1 POP JUMP JUMPDEST PUSH32 0x4E487B7100000000000000000000000000000000000000000000000000000000 PUSH0 MSTORE PUSH1 0x41 PUSH1 0x4 MSTORE PUSH1 0x24 PUSH0 REVERT JUMPDEST PUSH32 0x4E487B7100000000000000000000000000000000000000000000000000000000 PUSH0 MSTORE PUSH1 0x22 PUSH1 0x4 MSTORE PUSH1 0x24 PUSH0 REVERT JUMPDEST PUSH0 PUSH1 0x2 DUP3 DIV SWAP1 POP PUSH1 0x1 DUP3 AND DUP1 PUSH2 0x141 JUMPI PUSH1 0x7F DUP3 AND SWAP2 POP JUMPDEST PUSH1 0x20 DUP3 LT DUP2 SUB PUSH2 0x154 JUMPI PUSH2 0x153 PUSH2 0xFD JUMP JUMPDEST JUMPDEST POP SWAP2 SWAP1 POP JUMP JUMPDEST PUSH0 DUP2 SWAP1 POP DUP2 PUSH0 MSTORE PUSH1 0x20 PUSH0 KECCAK256 SWAP1 POP SWAP2 SWAP1 POP JUMP JUMPDEST PUSH0 PUSH1 0x20 PUSH1 0x1F DUP4 ADD DIV SWAP1 POP SWAP2 SWAP1 POP JUMP JUMPDEST PUSH0 DUP3 DUP3 SHL SWAP1 POP SWAP3 SWAP2 POP POP JUMP JUMPDEST PUSH0 PUSH1 0x8 DUP4 MUL PUSH2 0x1B6 PUSH32 0xFFFFFFFFFFFFFFFFFFFFFFFFFFFFFFFFFFFFFFFFFFFFFFFFFFFFFFFFFFFFFFFF DUP3 PUSH2 0x17B JUMP JUMPDEST PUSH2 0x1C0 DUP7 DUP4 PUSH2 0x17B JUMP JUMPDEST SWAP6 POP DUP1 NOT DUP5 AND SWAP4 POP DUP1 DUP7 AND DUP5 OR SWAP3 POP POP POP SWAP4 SWAP3 POP POP POP JUMP JUMPDEST PUSH0 DUP2 SWAP1 POP SWAP2 SWAP1 POP JUMP JUMPDEST PUSH0 DUP2 SWAP1 POP SWAP2 SWAP1 POP JUMP JUMPDEST PUSH0 PUSH2 0x204 PUSH2 0x1FF PUSH2 0x1FA DUP5 PUSH2 0x1D8 JUMP JUMPDEST PUSH2 0x1E1 JUMP JUMPDEST PUSH2 0x1D8 JUMP JUMPDEST SWAP1 POP SWAP2 SWAP1 POP JUMP JUMPDEST PUSH0 DUP2 SWAP1 POP SWAP2 SWAP1 POP JUMP JUMPDEST PUSH2 0x21D DUP4 PUSH2 0x1EA JUMP JUMPDEST PUSH2 0x231 PUSH2 0x229 DUP3 PUSH2 0x20B JUMP JUMPDEST DUP5 DUP5 SLOAD PUSH2 0x187 JUMP JUMPDEST DUP3 SSTORE POP POP POP POP JUMP JUMPDEST PUSH0 SWAP1 JUMP JUMPDEST PUSH2 0x245 PUSH2 0x239 JUMP JUMPDEST PUSH2 0x250 DUP2 DUP5 DUP5 PUSH2 0x214 JUMP JUMPDEST POP POP POP JUMP JUMPDEST JUMPDEST DUP2 DUP2 LT ISZERO PUSH2 0x273 JUMPI PUSH2 0x268 PUSH0 DUP3 PUSH2 0x23D JUMP JUMPDEST PUSH1 0x1 DUP2 ADD SWAP1 POP PUSH2 0x256 JUMP JUMPDEST POP POP JUMP JUMPDEST PUSH1 0x1F DUP3 GT ISZERO PUSH2 0x2B8 JUMPI PUSH2 0x289 DUP2 PUSH2 0x15A JUMP JUMPDEST PUSH2 0x292 DUP5 PUSH2 0x16C JUMP JUMPDEST DUP2 ADD PUSH1 0x20 DUP6 LT ISZERO PUSH2 0x2A1 JUMPI DUP2 SWAP1 POP JUMPDEST PUSH2 0x2B5 PUSH2 0x2AD DUP6 PUSH2 0x16C JUMP JUMPDEST DUP4 ADD DUP3 PUSH2 0x255 JUMP JUMPDEST POP POP JUMPDEST POP POP POP JUMP JUMPDEST PUSH0 DUP3 DUP3 SHR SWAP1 POP SWAP3 SWAP2 POP POP JUMP JUMPDEST PUSH0 PUSH2 0x2D8 PUSH0 NOT DUP5 PUSH1 0x8 MUL PUSH2 0x2BD JUMP JUMPDEST NOT DUP1 DUP4 AND SWAP2 POP POP SWAP3 SWAP2 POP POP JUMP JUMPDEST PUSH0 PUSH2 0x2F0 DUP4 DUP4 PUSH2 0x2C9 JUMP JUMPDEST SWAP2 POP DUP3 PUSH1 0x2 MUL DUP3 OR SWAP1 POP SWAP3 SWAP2 POP POP JUMP JUMPDEST PUSH2 0x309 DUP3 PUSH2 0xC6 JUMP JUMPDEST PUSH8 0xFFFFFFFFFFFFFFFF DUP2 GT ISZERO PUSH2 0x322 JUMPI PUSH2 0x321 PUSH2 0xD0 JUMP JUMPDEST JUMPDEST PUSH2 0x32C DUP3 SLOAD PUSH2 0x12A JUMP JUMPDEST PUSH2 0x337 DUP3 DUP3 DUP6 PUSH2 0x277 JUMP JUMPDEST PUSH0 PUSH1 0x20 SWAP1 POP PUSH1 0x1F DUP4 GT PUSH1 0x1 DUP2 EQ PUSH2 0x368 JUMPI PUSH0 DUP5 ISZERO PUSH2 0x356 JUMPI DUP3 DUP8 ADD MLOAD SWAP1 POP JUMPDEST PUSH2 0x360 DUP6 DUP3 PUSH2 0x2E5 JUMP JUMPDEST DUP7 SSTORE POP PUSH2 0x3C7 JUMP JUMPDEST PUSH1 0x1F NOT DUP5 AND PUSH2 0x376 DUP7 PUSH2 0x15A JUMP JUMPDEST PUSH0 JUMPDEST DUP3 DUP2 LT ISZERO PUSH2 0x39D JUMPI DUP5 DUP10 ADD MLOAD DUP3 SSTORE PUSH1 0x1 DUP3 ADD SWAP2 POP PUSH1 0x20 DUP6 ADD SWAP5 POP PUSH1 0x20 DUP2 ADD SWAP1 POP PUSH2 0x378 JUMP JUMPDEST DUP7 DUP4 LT ISZERO PUSH2 0x3BA JUMPI DUP5 DUP10 ADD MLOAD PUSH2 0x3B6 PUSH1 0x1F DUP10 AND DUP3 PUSH2 0x2C9 JUMP JUMPDEST DUP4 SSTORE POP JUMPDEST PUSH1 0x1 PUSH1 0x2 DUP9 MUL ADD DUP9 SSTORE POP POP POP JUMPDEST POP POP POP POP POP POP JUMP JUMPDEST PUSH2 0x1F43 DUP1 PUSH2 0x3DC PUSH0 CODECOPY PUSH0 RETURN INVALID PUSH1 0x80 PUSH1 0x40 MSTORE CALLVALUE DUP1 ISZERO PUSH2 0xF JUMPI PUSH0 DUP1 REVERT JUMPDEST POP PUSH1 0x4 CALLDATASIZE LT PUSH2 0xF3 JUMPI PUSH0 CALLDATALOAD PUSH1 0xE0 SHR DUP1 PUSH4 0x70A08231 GT PUSH2 0x95 JUMPI DUP1 PUSH4 0x976B3113 GT PUSH2 0x64 JUMPI DUP1 PUSH4 0x976B3113 EQ PUSH2 0x273 JUMPI DUP1 PUSH4 0xA9059CBB EQ PUSH2 0x2A3 JUMPI DUP1 PUSH4 0xD5ABEB01 EQ PUSH2 0x2D3 JUMPI DUP1 PUSH4 0xDD62ED3E EQ PUSH2 0x2F1 JUMPI PUSH2 0xF3 JUMP JUMPDEST DUP1 PUSH4 0x70A08231 EQ PUSH2 0x1D9 JUMPI DUP1 PUSH4 0x8615D855 EQ PUSH2 0x209 JUMPI DUP1 PUSH4 0x943E8216 EQ PUSH2 0x239 JUMPI DUP1 PUSH4 0x95D89B41 EQ PUSH2 0x255 JUMPI PUSH2 0xF3 JUMP JUMPDEST DUP1 PUSH4 0x23B872DD GT PUSH2 0xD1 JUMPI DUP1 PUSH4 0x23B872DD EQ PUSH2 0x163 JUMPI DUP1 PUSH4 0x313CE567 EQ PUSH2 0x193 JUMPI DUP1 PUSH4 0x4E71D92D EQ PUSH2 0x1B1 JUMPI DUP1 PUSH4 0x50B59447 EQ PUSH2 0x1BB JUMPI PUSH2 0xF3 JUMP JUMPDEST DUP1 PUSH4 0x6FDDE03 EQ PUSH2 0xF7 JUMPI DUP1 PUSH4 0x95EA7B3 EQ PUSH2 0x115 JUMPI DUP1 PUSH4 0x18160DDD EQ PUSH2 0x145 JUMPI JUMPDEST PUSH0 DUP1 REVERT JUMPDEST PUSH2 0xFF PUSH2 0x321 JUMP JUMPDEST PUSH1 0x40 MLOAD PUSH2 0x10C SWAP2 SWAP1 PUSH2 0x14D2 JUMP JUMPDEST PUSH1 0x40 MLOAD DUP1 SWAP2 SUB SWAP1 RETURN JUMPDEST PUSH2 0x12F PUSH1 0x4 DUP1 CALLDATASIZE SUB DUP2 ADD SWAP1 PUSH2 0x12A SWAP2 SWAP1 PUSH2 0x1587 JUMP JUMPDEST PUSH2 0x3B1 JUMP JUMPDEST PUSH1 0x40 MLOAD PUSH2 0x13C SWAP2 SWAP1 PUSH2 0x15DF JUMP JUMPDEST PUSH1 0x40 MLOAD DUP1 SWAP2 SUB SWAP1 RETURN JUMPDEST PUSH2 0x14D PUSH2 0x3D3 JUMP JUMPDEST PUSH1 0x40 MLOAD PUSH2 0x15A SWAP2 SWAP1 PUSH2 0x1607 JUMP JUMPDEST PUSH1 0x40 MLOAD DUP1 SWAP2 SUB SWAP1 RETURN JUMPDEST PUSH2 0x17D PUSH1 0x4 DUP1 CALLDATASIZE SUB DUP2 ADD SWAP1 PUSH2 0x178 SWAP2 SWAP1 PUSH2 0x1620 JUMP JUMPDEST PUSH2 0x3DC JUMP JUMPDEST PUSH1 0x40 MLOAD PUSH2 0x18A SWAP2 SWAP1 PUSH2 0x15DF JUMP JUMPDEST PUSH1 0x40 MLOAD DUP1 SWAP2 SUB SWAP1 RETURN JUMPDEST PUSH2 0x19B PUSH2 0x40A JUMP JUMPDEST PUSH1 0x40 MLOAD PUSH2 0x1A8 SWAP2 SWAP1 PUSH2 0x168B JUMP JUMPDEST PUSH1 0x40 MLOAD DUP1 SWAP2 SUB SWAP1 RETURN JUMPDEST PUSH2 0x1B9 PUSH2 0x412 JUMP JUMPDEST STOP JUMPDEST PUSH2 0x1C3 PUSH2 0x544 JUMP JUMPDEST PUSH1 0x40 MLOAD PUSH2 0x1D0 SWAP2 SWAP1 PUSH2 0x1607 JUMP JUMPDEST PUSH1 0x40 MLOAD DUP1 SWAP2 SUB SWAP1 RETURN JUMPDEST PUSH2 0x1F3 PUSH1 0x4 DUP1 CALLDATASIZE SUB DUP2 ADD SWAP1 PUSH2 0x1EE SWAP2 SWAP1 PUSH2 0x16A4 JUMP JUMPDEST PUSH2 0x550 JUMP JUMPDEST PUSH1 0x40 MLOAD PUSH2 0x200 SWAP2 SWAP1 PUSH2 0x1607 JUMP JUMPDEST PUSH1 0x40 MLOAD DUP1 SWAP2 SUB SWAP1 RETURN JUMPDEST PUSH2 0x223 PUSH1 0x4 DUP1 CALLDATASIZE SUB DUP2 ADD SWAP1 PUSH2 0x21E SWAP2 SWAP1 PUSH2 0x1730 JUMP JUMPDEST PUSH2 0x595 JUMP JUMPDEST PUSH1 0x40 MLOAD PUSH2 0x230 SWAP2 SWAP1 PUSH2 0x1607 JUMP JUMPDEST PUSH1 0x40 MLOAD DUP1 SWAP2 SUB SWAP1 RETURN JUMPDEST PUSH2 0x253 PUSH1 0x4 DUP1 CALLDATASIZE SUB DUP2 ADD SWAP1 PUSH2 0x24E SWAP2 SWAP1 PUSH2 0x17B0 JUMP JUMPDEST PUSH2 0x67D JUMP JUMPDEST STOP JUMPDEST PUSH2 0x25D PUSH2 0x939 JUMP JUMPDEST PUSH1 0x40 MLOAD PUSH2 0x26A SWAP2 SWAP1 PUSH2 0x14D2 JUMP JUMPDEST PUSH1 0x40 MLOAD DUP1 SWAP2 SUB SWAP1 RETURN JUMPDEST PUSH2 0x28D PUSH1 0x4 DUP1 CALLDATASIZE SUB DUP2 ADD SWAP1 PUSH2 0x288 SWAP2 SWAP1 PUSH2 0x17EE JUMP JUMPDEST PUSH2 0x9C9 JUMP JUMPDEST PUSH1 0x40 MLOAD PUSH2 0x29A SWAP2 SWAP1 PUSH2 0x19FF JUMP JUMPDEST PUSH1 0x40 MLOAD DUP1 SWAP2 SUB SWAP1 RETURN JUMPDEST PUSH2 0x2BD PUSH1 0x4 DUP1 CALLDATASIZE SUB DUP2 ADD SWAP1 PUSH2 0x2B8 SWAP2 SWAP1 PUSH2 0x1587 JUMP JUMPDEST PUSH2 0xC2C JUMP JUMPDEST PUSH1 0x40 MLOAD PUSH2 0x2CA SWAP2 SWAP1 PUSH2 0x15DF JUMP JUMPDEST PUSH1 0x40 MLOAD DUP1 SWAP2 SUB SWAP1 RETURN JUMPDEST PUSH2 0x2DB PUSH2 0xC4E JUMP JUMPDEST PUSH1 0x40 MLOAD PUSH2 0x2E8 SWAP2 SWAP1 PUSH2 0x1607 JUMP JUMPDEST PUSH1 0x40 MLOAD DUP1 SWAP2 SUB SWAP1 RETURN JUMPDEST PUSH2 0x30B PUSH1 0x4 DUP1 CALLDATASIZE SUB DUP2 ADD SWAP1 PUSH2 0x306 SWAP2 SWAP1 PUSH2 0x1A1F JUMP JUMPDEST PUSH2 0xC54 JUMP JUMPDEST PUSH1 0x40 MLOAD PUSH2 0x318 SWAP2 SWAP1 PUSH2 0x1607 JUMP JUMPDEST PUSH1 0x40 MLOAD DUP1 SWAP2 SUB SWAP1 RETURN JUMPDEST PUSH1 0x60 PUSH1 0x3 DUP1 SLOAD PUSH2 0x330 SWAP1 PUSH2 0x1A8A JUMP JUMPDEST DUP1 PUSH1 0x1F ADD PUSH1 0x20 DUP1 SWAP2 DIV MUL PUSH1 0x20 ADD PUSH1 0x40 MLOAD SWAP1 DUP2 ADD PUSH1 0x40 MSTORE DUP1 SWAP3 SWAP2 SWAP1 DUP2 DUP2 MSTORE PUSH1 0x20 ADD DUP3 DUP1 SLOAD PUSH2 0x35C SWAP1 PUSH2 0x1A8A JUMP JUMPDEST DUP1 ISZERO PUSH2 0x3A7 JUMPI DUP1 PUSH1 0x1F LT PUSH2 0x37E JUMPI PUSH2 0x100 DUP1 DUP4 SLOAD DIV MUL DUP4 MSTORE SWAP2 PUSH1 0x20 ADD SWAP2 PUSH2 0x3A7 JUMP JUMPDEST DUP3 ADD SWAP2 SWAP1 PUSH0 MSTORE PUSH1 0x20 PUSH0 KECCAK256 SWAP1 JUMPDEST DUP2 SLOAD DUP2 MSTORE SWAP1 PUSH1 0x1 ADD SWAP1 PUSH1 0x20 ADD DUP1 DUP4 GT PUSH2 0x38A JUMPI DUP3 SWAP1 SUB PUSH1 0x1F AND DUP3 ADD SWAP2 JUMPDEST POP POP POP POP POP SWAP1 POP SWAP1 JUMP JUMPDEST PUSH0 DUP1 PUSH2 0x3BB PUSH2 0xCD6 JUMP JUMPDEST SWAP1 POP PUSH2 0x3C8 DUP2 DUP6 DUP6 PUSH2 0xCDD JUMP JUMPDEST PUSH1 0x1 SWAP2 POP POP SWAP3 SWAP2 POP POP JUMP JUMPDEST PUSH0 PUSH1 0x2 SLOAD SWAP1 POP SWAP1 JUMP JUMPDEST PUSH0 DUP1 PUSH2 0x3E6 PUSH2 0xCD6 JUMP JUMPDEST SWAP1 POP PUSH2 0x3F3 DUP6 DUP3 DUP6 PUSH2 0xCEF JUMP JUMPDEST PUSH2 0x3FE DUP6 DUP6 DUP6 PUSH2 0xD81 JUMP JUMPDEST PUSH1 0x1 SWAP2 POP POP SWAP4 SWAP3 POP POP POP JUMP JUMPDEST PUSH0 PUSH1 0x12 SWAP1 POP SWAP1 JUMP JUMPDEST PUSH1 0x7 PUSH0 CALLER PUSH20 0xFFFFFFFFFFFFFFFFFFFFFFFFFFFFFFFFFFFFFFFF AND PUSH20 0xFFFFFFFFFFFFFFFFFFFFFFFFFFFFFFFFFFFFFFFF AND DUP2 MSTORE PUSH1 0x20 ADD SWAP1 DUP2 MSTORE PUSH1 0x20 ADD PUSH0 KECCAK256 PUSH0 SWAP1 SLOAD SWAP1 PUSH2 0x100 EXP SWAP1 DIV PUSH1 0xFF AND ISZERO PUSH2 0x493 JUMPI PUSH1 0x40 MLOAD PUSH32 0xB1327A600000000000000000000000000000000000000000000000000000000 DUP2 MSTORE PUSH1 0x4 ADD PUSH1 0x40 MLOAD DUP1 SWAP2 SUB SWAP1 REVERT JUMPDEST PUSH1 0x5 SLOAD PUSH1 0x64 PUSH2 0x4A0 PUSH2 0x3D3 JUMP JUMPDEST PUSH2 0x4AA SWAP2 SWAP1 PUSH2 0x1AE7 JUMP JUMPDEST GT ISZERO PUSH2 0x4E2 JUMPI PUSH1 0x40 MLOAD PUSH32 0xCBE2483100000000000000000000000000000000000000000000000000000000 DUP2 MSTORE PUSH1 0x4 ADD PUSH1 0x40 MLOAD DUP1 SWAP2 SUB SWAP1 REVERT JUMPDEST PUSH1 0x1 PUSH1 0x7 PUSH0 CALLER PUSH20 0xFFFFFFFFFFFFFFFFFFFFFFFFFFFFFFFFFFFFFFFF AND PUSH20 0xFFFFFFFFFFFFFFFFFFFFFFFFFFFFFFFFFFFFFFFF AND DUP2 MSTORE PUSH1 0x20 ADD SWAP1 DUP2 MSTORE PUSH1 0x20 ADD PUSH0 KECCAK256 PUSH0 PUSH2 0x100 EXP DUP2 SLOAD DUP2 PUSH1 0xFF MUL NOT AND SWAP1 DUP4 ISZERO ISZERO MUL OR SWAP1 SSTORE POP PUSH2 0x542 CALLER PUSH1 0x64 PUSH2 0xE71 JUMP JUMPDEST JUMP JUMPDEST PUSH0 PUSH1 0x6 DUP1 SLOAD SWAP1 POP SWAP1 POP SWAP1 JUMP JUMPDEST PUSH0 DUP1 PUSH0 DUP4 PUSH20 0xFFFFFFFFFFFFFFFFFFFFFFFFFFFFFFFFFFFFFFFF AND PUSH20 0xFFFFFFFFFFFFFFFFFFFFFFFFFFFFFFFFFFFFFFFF AND DUP2 MSTORE PUSH1 0x20 ADD SWAP1 DUP2 MSTORE PUSH1 0x20 ADD PUSH0 KECCAK256 SLOAD SWAP1 POP SWAP2 SWAP1 POP JUMP JUMPDEST PUSH0 DUP1 PUSH2 0x5A0 CALLER PUSH2 0x550 JUMP JUMPDEST SUB PUSH2 0x5D7 JUMPI PUSH1 0x40 MLOAD PUSH32 0x8439960D00000000000000000000000000000000000000000000000000000000 DUP2 MSTORE PUSH1 0x4 ADD PUSH1 0x40 MLOAD DUP1 SWAP2 SUB SWAP1 REVERT JUMPDEST PUSH2 0x5DF PUSH2 0x3D3 JUMP JUMPDEST DUP3 GT ISZERO PUSH2 0x623 JUMPI DUP2 PUSH1 0x40 MLOAD PUSH32 0x589A495200000000000000000000000000000000000000000000000000000000 DUP2 MSTORE PUSH1 0x4 ADD PUSH2 0x61A SWAP2 SWAP1 PUSH2 0x1607 JUMP JUMPDEST PUSH1 0x40 MLOAD DUP1 SWAP2 SUB SWAP1 REVERT JUMPDEST PUSH0 PUSH1 0x6 PUSH1 0x1 DUP2 PUSH1 0x1 DUP2 SLOAD ADD DUP1 DUP3 SSTORE DUP1 SWAP2 POP POP SUB SWAP1 PUSH0 MSTORE PUSH1 0x20 PUSH0 KECCAK256 SWAP1 PUSH1 0x9 MUL ADD SWAP1 POP DUP5 DUP5 DUP3 PUSH1 0x2 ADD SWAP2 DUP3 PUSH2 0x657 SWAP3 SWAP2 SWAP1 PUSH2 0x1CEE JUMP JUMPDEST POP DUP3 DUP2 PUSH1 0x7 ADD DUP2 SWAP1 SSTORE POP PUSH1 0x1 PUSH1 0x6 DUP1 SLOAD SWAP1 POP PUSH2 0x673 SWAP2 SWAP1 PUSH2 0x1DBB JUMP JUMPDEST SWAP2 POP POP SWAP4 SWAP3 POP POP POP JUMP JUMPDEST PUSH0 DUP3 GT DUP1 ISZERO PUSH2 0x690 JUMPI POP PUSH1 0x6 DUP1 SLOAD SWAP1 POP DUP3 LT JUMPDEST PUSH2 0x6CF JUMPI PUSH1 0x40 MLOAD PUSH32 0x8C379A000000000000000000000000000000000000000000000000000000000 DUP2 MSTORE PUSH1 0x4 ADD PUSH2 0x6C6 SWAP1 PUSH2 0x1E38 JUMP JUMPDEST PUSH1 0x40 MLOAD DUP1 SWAP2 SUB SWAP1 REVERT JUMPDEST PUSH0 PUSH1 0x6 DUP4 DUP2 SLOAD DUP2 LT PUSH2 0x6E4 JUMPI PUSH2 0x6E3 PUSH2 0x1E56 JUMP JUMPDEST JUMPDEST SWAP1 PUSH0 MSTORE PUSH1 0x20 PUSH0 KECCAK256 SWAP1 PUSH1 0x9 MUL ADD SWAP1 POP DUP1 PUSH1 0x8 ADD PUSH1 0x1 SWAP1 SLOAD SWAP1 PUSH2 0x100 EXP SWAP1 DIV PUSH1 0xFF AND ISZERO PUSH2 0x73B JUMPI PUSH1 0x40 MLOAD PUSH32 0x66B6CB4A00000000000000000000000000000000000000000000000000000000 DUP2 MSTORE PUSH1 0x4 ADD PUSH1 0x40 MLOAD DUP1 SWAP2 SUB SWAP1 REVERT JUMPDEST PUSH2 0x750 CALLER DUP3 PUSH0 ADD PUSH2 0xEF0 SWAP1 SWAP2 SWAP1 PUSH4 0xFFFFFFFF AND JUMP JUMPDEST ISZERO PUSH2 0x787 JUMPI PUSH1 0x40 MLOAD PUSH32 0x7C9A1CF900000000000000000000000000000000000000000000000000000000 DUP2 MSTORE PUSH1 0x4 ADD PUSH1 0x40 MLOAD DUP1 SWAP2 SUB SWAP1 REVERT JUMPDEST PUSH0 PUSH2 0x791 CALLER PUSH2 0x550 JUMP JUMPDEST SWAP1 POP PUSH0 DUP2 SUB PUSH2 0x7CC JUMPI PUSH1 0x40 MLOAD PUSH32 0x8439960D00000000000000000000000000000000000000000000000000000000 DUP2 MSTORE PUSH1 0x4 ADD PUSH1 0x40 MLOAD DUP1 SWAP2 SUB SWAP1 REVERT JUMPDEST PUSH2 0x7E1 CALLER DUP4 PUSH0 ADD PUSH2 0xF1D SWAP1 SWAP2 SWAP1 PUSH4 0xFFFFFFFF AND JUMP JUMPDEST POP PUSH1 0x1 PUSH1 0x2 DUP2 GT ISZERO PUSH2 0x7F6 JUMPI PUSH2 0x7F5 PUSH2 0x1E83 JUMP JUMPDEST JUMPDEST DUP4 PUSH1 0x2 DUP2 GT ISZERO PUSH2 0x809 JUMPI PUSH2 0x808 PUSH2 0x1E83 JUMP JUMPDEST JUMPDEST SUB PUSH2 0x82D JUMPI DUP1 DUP3 PUSH1 0x3 ADD PUSH0 DUP3 DUP3 SLOAD PUSH2 0x821 SWAP2 SWAP1 PUSH2 0x1AE7 JUMP JUMPDEST SWAP3 POP POP DUP2 SWAP1 SSTORE POP PUSH2 0x8BF JUMP JUMPDEST PUSH0 PUSH1 0x2 DUP2 GT ISZERO PUSH2 0x840 JUMPI PUSH2 0x83F PUSH2 0x1E83 JUMP JUMPDEST JUMPDEST DUP4 PUSH1 0x2 DUP2 GT ISZERO PUSH2 0x853 JUMPI PUSH2 0x852 PUSH2 0x1E83 JUMP JUMPDEST JUMPDEST SUB PUSH2 0x877 JUMPI DUP1 DUP3 PUSH1 0x4 ADD PUSH0 DUP3 DUP3 SLOAD PUSH2 0x86B SWAP2 SWAP1 PUSH2 0x1AE7 JUMP JUMPDEST SWAP3 POP POP DUP2 SWAP1 SSTORE POP PUSH2 0x8BE JUMP JUMPDEST PUSH1 0x2 DUP1 DUP2 GT ISZERO PUSH2 0x88A JUMPI PUSH2 0x889 PUSH2 0x1E83 JUMP JUMPDEST JUMPDEST DUP4 PUSH1 0x2 DUP2 GT ISZERO PUSH2 0x89D JUMPI PUSH2 0x89C PUSH2 0x1E83 JUMP JUMPDEST JUMPDEST SUB PUSH2 0x8BD JUMPI DUP1 DUP3 PUSH1 0x5 ADD PUSH0 DUP3 DUP3 SLOAD PUSH2 0x8B5 SWAP2 SWAP1 PUSH2 0x1AE7 JUMP JUMPDEST SWAP3 POP POP DUP2 SWAP1 SSTORE POP JUMPDEST JUMPDEST JUMPDEST DUP1 DUP3 PUSH1 0x6 ADD PUSH0 DUP3 DUP3 SLOAD PUSH2 0x8D2 SWAP2 SWAP1 PUSH2 0x1AE7 JUMP JUMPDEST SWAP3 POP POP DUP2 SWAP1 SSTORE POP DUP2 PUSH1 0x7 ADD SLOAD DUP3 PUSH1 0x6 ADD SLOAD LT PUSH2 0x933 JUMPI PUSH1 0x1 DUP3 PUSH1 0x8 ADD PUSH1 0x1 PUSH2 0x100 EXP DUP2 SLOAD DUP2 PUSH1 0xFF MUL NOT AND SWAP1 DUP4 ISZERO ISZERO MUL OR SWAP1 SSTORE POP DUP2 PUSH1 0x4 ADD SLOAD DUP3 PUSH1 0x3 ADD SLOAD GT ISZERO PUSH2 0x932 JUMPI PUSH1 0x1 DUP3 PUSH1 0x8 ADD PUSH0 PUSH2 0x100 EXP DUP2 SLOAD DUP2 PUSH1 0xFF MUL NOT AND SWAP1 DUP4 ISZERO ISZERO MUL OR SWAP1 SSTORE POP JUMPDEST JUMPDEST POP POP POP POP JUMP JUMPDEST PUSH1 0x60 PUSH1 0x4 DUP1 SLOAD PUSH2 0x948 SWAP1 PUSH2 0x1A8A JUMP JUMPDEST DUP1 PUSH1 0x1F ADD PUSH1 0x20 DUP1 SWAP2 DIV MUL PUSH1 0x20 ADD PUSH1 0x40 MLOAD SWAP1 DUP2 ADD PUSH1 0x40 MSTORE DUP1 SWAP3 SWAP2 SWAP1 DUP2 DUP2 MSTORE PUSH1 0x20 ADD DUP3 DUP1 SLOAD PUSH2 0x974 SWAP1 PUSH2 0x1A8A JUMP JUMPDEST DUP1 ISZERO PUSH2 0x9BF JUMPI DUP1 PUSH1 0x1F LT PUSH2 0x996 JUMPI PUSH2 0x100 DUP1 DUP4 SLOAD DIV MUL DUP4 MSTORE SWAP2 PUSH1 0x20 ADD SWAP2 PUSH2 0x9BF JUMP JUMPDEST DUP3 ADD SWAP2 SWAP1 PUSH0 MSTORE PUSH1 0x20 PUSH0 KECCAK256 SWAP1 JUMPDEST DUP2 SLOAD DUP2 MSTORE SWAP1 PUSH1 0x1 ADD SWAP1 PUSH1 0x20 ADD DUP1 DUP4 GT PUSH2 0x9A2 JUMPI DUP3 SWAP1 SUB PUSH1 0x1F AND DUP3 ADD SWAP2 JUMPDEST POP POP POP POP POP SWAP1 POP SWAP1 JUMP JUMPDEST PUSH2 0x9D1 PUSH2 0x1419 JUMP JUMPDEST PUSH0 DUP3 GT DUP1 ISZERO PUSH2 0x9E4 JUMPI POP PUSH1 0x6 DUP1 SLOAD SWAP1 POP DUP3 LT JUMPDEST PUSH2 0xA23 JUMPI PUSH1 0x40 MLOAD PUSH32 0x8C379A000000000000000000000000000000000000000000000000000000000 DUP2 MSTORE PUSH1 0x4 ADD PUSH2 0xA1A SWAP1 PUSH2 0x1E38 JUMP JUMPDEST PUSH1 0x40 MLOAD DUP1 SWAP2 SUB SWAP1 REVERT JUMPDEST PUSH0 PUSH1 0x6 DUP4 DUP2 SLOAD DUP2 LT PUSH2 0xA38 JUMPI PUSH2 0xA37 PUSH2 0x1E56 JUMP JUMPDEST JUMPDEST SWAP1 PUSH0 MSTORE PUSH1 0x20 PUSH0 KECCAK256 SWAP1 PUSH1 0x9 MUL ADD SWAP1 POP PUSH0 PUSH2 0xA52 DUP3 PUSH0 ADD PUSH2 0xF4A JUMP JUMPDEST PUSH8 0xFFFFFFFFFFFFFFFF DUP2 GT ISZERO PUSH2 0xA6B JUMPI PUSH2 0xA6A PUSH2 0x1B24 JUMP JUMPDEST JUMPDEST PUSH1 0x40 MLOAD SWAP1 DUP1 DUP3 MSTORE DUP1 PUSH1 0x20 MUL PUSH1 0x20 ADD DUP3 ADD PUSH1 0x40 MSTORE DUP1 ISZERO PUSH2 0xA99 JUMPI DUP2 PUSH1 0x20 ADD PUSH1 0x20 DUP3 MUL DUP1 CALLDATASIZE DUP4 CALLDATACOPY DUP1 DUP3 ADD SWAP2 POP POP SWAP1 POP JUMPDEST POP SWAP1 POP PUSH0 JUMPDEST PUSH2 0xAA9 DUP4 PUSH0 ADD PUSH2 0xF4A JUMP JUMPDEST DUP2 LT ISZERO PUSH2 0xB1F JUMPI PUSH2 0xAC5 DUP2 DUP5 PUSH0 ADD PUSH2 0xF5D SWAP1 SWAP2 SWAP1 PUSH4 0xFFFFFFFF AND JUMP JUMPDEST DUP3 DUP3 DUP2 MLOAD DUP2 LT PUSH2 0xAD8 JUMPI PUSH2 0xAD7 PUSH2 0x1E56 JUMP JUMPDEST JUMPDEST PUSH1 0x20 MUL PUSH1 0x20 ADD ADD SWAP1 PUSH20 0xFFFFFFFFFFFFFFFFFFFFFFFFFFFFFFFFFFFFFFFF AND SWAP1 DUP2 PUSH20 0xFFFFFFFFFFFFFFFFFFFFFFFFFFFFFFFFFFFFFFFF AND DUP2 MSTORE POP POP DUP1 DUP1 PUSH1 0x1 ADD SWAP2 POP POP PUSH2 0xA9E JUMP JUMPDEST POP PUSH1 0x40 MLOAD DUP1 PUSH2 0x120 ADD PUSH1 0x40 MSTORE DUP1 DUP3 DUP2 MSTORE PUSH1 0x20 ADD DUP4 PUSH1 0x2 ADD DUP1 SLOAD PUSH2 0xB41 SWAP1 PUSH2 0x1A8A JUMP JUMPDEST DUP1 PUSH1 0x1F ADD PUSH1 0x20 DUP1 SWAP2 DIV MUL PUSH1 0x20 ADD PUSH1 0x40 MLOAD SWAP1 DUP2 ADD PUSH1 0x40 MSTORE DUP1 SWAP3 SWAP2 SWAP1 DUP2 DUP2 MSTORE PUSH1 0x20 ADD DUP3 DUP1 SLOAD PUSH2 0xB6D SWAP1 PUSH2 0x1A8A JUMP JUMPDEST DUP1 ISZERO PUSH2 0xBB8 JUMPI DUP1 PUSH1 0x1F LT PUSH2 0xB8F JUMPI PUSH2 0x100 DUP1 DUP4 SLOAD DIV MUL DUP4 MSTORE SWAP2 PUSH1 0x20 ADD SWAP2 PUSH2 0xBB8 JUMP JUMPDEST DUP3 ADD SWAP2 SWAP1 PUSH0 MSTORE PUSH1 0x20 PUSH0 KECCAK256 SWAP1 JUMPDEST DUP2 SLOAD DUP2 MSTORE SWAP1 PUSH1 0x1 ADD SWAP1 PUSH1 0x20 ADD DUP1 DUP4 GT PUSH2 0xB9B JUMPI DUP3 SWAP1 SUB PUSH1 0x1F AND DUP3 ADD SWAP2 JUMPDEST POP POP POP POP POP DUP2 MSTORE PUSH1 0x20 ADD DUP4 PUSH1 0x3 ADD SLOAD DUP2 MSTORE PUSH1 0x20 ADD DUP4 PUSH1 0x4 ADD SLOAD DUP2 MSTORE PUSH1 0x20 ADD DUP4 PUSH1 0x5 ADD SLOAD DUP2 MSTORE PUSH1 0x20 ADD DUP4 PUSH1 0x6 ADD SLOAD DUP2 MSTORE PUSH1 0x20 ADD DUP4 PUSH1 0x7 ADD SLOAD DUP2 MSTORE PUSH1 0x20 ADD DUP4 PUSH1 0x8 ADD PUSH0 SWAP1 SLOAD SWAP1 PUSH2 0x100 EXP SWAP1 DIV PUSH1 0xFF AND ISZERO ISZERO DUP2 MSTORE PUSH1 0x20 ADD DUP4 PUSH1 0x8 ADD PUSH1 0x1 SWAP1 SLOAD SWAP1 PUSH2 0x100 EXP SWAP1 DIV PUSH1 0xFF AND ISZERO ISZERO DUP2 MSTORE POP SWAP3 POP POP POP SWAP2 SWAP1 POP JUMP JUMPDEST PUSH0 DUP1 PUSH2 0xC36 PUSH2 0xCD6 JUMP JUMPDEST SWAP1 POP PUSH2 0xC43 DUP2 DUP6 DUP6 PUSH2 0xD81 JUMP JUMPDEST PUSH1 0x1 SWAP2 POP POP SWAP3 SWAP2 POP POP JUMP JUMPDEST PUSH1 0x5 SLOAD DUP2 JUMP JUMPDEST PUSH0 PUSH1 0x1 PUSH0 DUP5 PUSH20 0xFFFFFFFFFFFFFFFFFFFFFFFFFFFFFFFFFFFFFFFF AND PUSH20 0xFFFFFFFFFFFFFFFFFFFFFFFFFFFFFFFFFFFFFFFF AND DUP2 MSTORE PUSH1 0x20 ADD SWAP1 DUP2 MSTORE PUSH1 0x20 ADD PUSH0 KECCAK256 PUSH0 DUP4 PUSH20 0xFFFFFFFFFFFFFFFFFFFFFFFFFFFFFFFFFFFFFFFF AND PUSH20 0xFFFFFFFFFFFFFFFFFFFFFFFFFFFFFFFFFFFFFFFF AND DUP2 MSTORE PUSH1 0x20 ADD SWAP1 DUP2 MSTORE PUSH1 0x20 ADD PUSH0 KECCAK256 SLOAD SWAP1 POP SWAP3 SWAP2 POP POP JUMP JUMPDEST PUSH0 CALLER SWAP1 POP SWAP1 JUMP JUMPDEST PUSH2 0xCEA DUP4 DUP4 DUP4 PUSH1 0x1 PUSH2 0xF74 JUMP JUMPDEST POP POP POP JUMP JUMPDEST PUSH0 PUSH2 0xCFA DUP5 DUP5 PUSH2 0xC54 JUMP JUMPDEST SWAP1 POP PUSH32 0xFFFFFFFFFFFFFFFFFFFFFFFFFFFFFFFFFFFFFFFFFFFFFFFFFFFFFFFFFFFFFFFF DUP2 EQ PUSH2 0xD7B JUMPI DUP2 DUP2 LT ISZERO PUSH2 0xD6C JUMPI DUP3 DUP2 DUP4 PUSH1 0x40 MLOAD PUSH32 0xFB8F41B200000000000000000000000000000000000000000000000000000000 DUP2 MSTORE PUSH1 0x4 ADD PUSH2 0xD63 SWAP4 SWAP3 SWAP2 SWAP1 PUSH2 0x1EBF JUMP JUMPDEST PUSH1 0x40 MLOAD DUP1 SWAP2 SUB SWAP1 REVERT JUMPDEST PUSH2 0xD7A DUP5 DUP5 DUP5 DUP5 SUB PUSH0 PUSH2 0xF74 JUMP JUMPDEST JUMPDEST POP POP POP POP JUMP JUMPDEST PUSH0 PUSH20 0xFFFFFFFFFFFFFFFFFFFFFFFFFFFFFFFFFFFFFFFF AND DUP4 PUSH20 0xFFFFFFFFFFFFFFFFFFFFFFFFFFFFFFFFFFFFFFFF AND SUB PUSH2 0xDF1 JUMPI PUSH0 PUSH1 0x40 MLOAD PUSH32 0x96C6FD1E00000000000000000000000000000000000000000000000000000000 DUP2 MSTORE PUSH1 0x4 ADD PUSH2 0xDE8 SWAP2 SWAP1 PUSH2 0x1EF4 JUMP JUMPDEST PUSH1 0x40 MLOAD DUP1 SWAP2 SUB SWAP1 REVERT JUMPDEST PUSH0 PUSH20 0xFFFFFFFFFFFFFFFFFFFFFFFFFFFFFFFFFFFFFFFF AND DUP3 PUSH20 0xFFFFFFFFFFFFFFFFFFFFFFFFFFFFFFFFFFFFFFFF AND SUB PUSH2 0xE61 JUMPI PUSH0 PUSH1 0x40 MLOAD PUSH32 0xEC442F0500000000000000000000000000000000000000000000000000000000 DUP2 MSTORE PUSH1 0x4 ADD PUSH2 0xE58 SWAP2 SWAP1 PUSH2 0x1EF4 JUMP JUMPDEST PUSH1 0x40 MLOAD DUP1 SWAP2 SUB SWAP1 REVERT JUMPDEST PUSH2 0xE6C DUP4 DUP4 DUP4 PUSH2 0x1143 JUMP JUMPDEST POP POP POP JUMP JUMPDEST PUSH0 PUSH20 0xFFFFFFFFFFFFFFFFFFFFFFFFFFFFFFFFFFFFFFFF AND DUP3 PUSH20 0xFFFFFFFFFFFFFFFFFFFFFFFFFFFFFFFFFFFFFFFF AND SUB PUSH2 0xEE1 JUMPI PUSH0 PUSH1 0x40 MLOAD PUSH32 0xEC442F0500000000000000000000000000000000000000000000000000000000 DUP2 MSTORE PUSH1 0x4 ADD PUSH2 0xED8 SWAP2 SWAP1 PUSH2 0x1EF4 JUMP JUMPDEST PUSH1 0x40 MLOAD DUP1 SWAP2 SUB SWAP1 REVERT JUMPDEST PUSH2 0xEEC PUSH0 DUP4 DUP4 PUSH2 0x1143 JUMP JUMPDEST POP POP JUMP JUMPDEST PUSH0 PUSH2 0xF15 DUP4 PUSH0 ADD DUP4 PUSH20 0xFFFFFFFFFFFFFFFFFFFFFFFFFFFFFFFFFFFFFFFF AND PUSH0 SHL PUSH2 0x135C JUMP JUMPDEST SWAP1 POP SWAP3 SWAP2 POP POP JUMP JUMPDEST PUSH0 PUSH2 0xF42 DUP4 PUSH0 ADD DUP4 PUSH20 0xFFFFFFFFFFFFFFFFFFFFFFFFFFFFFFFFFFFFFFFF AND PUSH0 SHL PUSH2 0x137C JUMP JUMPDEST SWAP1 POP SWAP3 SWAP2 POP POP JUMP JUMPDEST PUSH0 PUSH2 0xF56 DUP3 PUSH0 ADD PUSH2 0x13E3 JUMP JUMPDEST SWAP1 POP SWAP2 SWAP1 POP JUMP JUMPDEST PUSH0 PUSH2 0xF6A DUP4 PUSH0 ADD DUP4 PUSH2 0x13F2 JUMP JUMPDEST PUSH0 SHR SWAP1 POP SWAP3 SWAP2 POP POP JUMP JUMPDEST PUSH0 PUSH20 0xFFFFFFFFFFFFFFFFFFFFFFFFFFFFFFFFFFFFFFFF AND DUP5 PUSH20 0xFFFFFFFFFFFFFFFFFFFFFFFFFFFFFFFFFFFFFFFF AND SUB PUSH2 0xFE4 JUMPI PUSH0 PUSH1 0x40 MLOAD PUSH32 0xE602DF0500000000000000000000000000000000000000000000000000000000 DUP2 MSTORE PUSH1 0x4 ADD PUSH2 0xFDB SWAP2 SWAP1 PUSH2 0x1EF4 JUMP JUMPDEST PUSH1 0x40 MLOAD DUP1 SWAP2 SUB SWAP1 REVERT JUMPDEST PUSH0 PUSH20 0xFFFFFFFFFFFFFFFFFFFFFFFFFFFFFFFFFFFFFFFF AND DUP4 PUSH20 0xFFFFFFFFFFFFFFFFFFFFFFFFFFFFFFFFFFFFFFFF AND SUB PUSH2 0x1054 JUMPI PUSH0 PUSH1 0x40 MLOAD PUSH32 0x94280D6200000000000000000000000000000000000000000000000000000000 DUP2 MSTORE PUSH1 0x4 ADD PUSH2 0x104B SWAP2 SWAP1 PUSH2 0x1EF4 JUMP JUMPDEST PUSH1 0x40 MLOAD DUP1 SWAP2 SUB SWAP1 REVERT JUMPDEST DUP2 PUSH1 0x1 PUSH0 DUP7 PUSH20 0xFFFFFFFFFFFFFFFFFFFFFFFFFFFFFFFFFFFFFFFF AND PUSH20 0xFFFFFFFFFFFFFFFFFFFFFFFFFFFFFFFFFFFFFFFF AND DUP2 MSTORE PUSH1 0x20 ADD SWAP1 DUP2 MSTORE PUSH1 0x20 ADD PUSH0 KECCAK256 PUSH0 DUP6 PUSH20 0xFFFFFFFFFFFFFFFFFFFFFFFFFFFFFFFFFFFFFFFF AND PUSH20 0xFFFFFFFFFFFFFFFFFFFFFFFFFFFFFFFFFFFFFFFF AND DUP2 MSTORE PUSH1 0x20 ADD SWAP1 DUP2 MSTORE PUSH1 0x20 ADD PUSH0 KECCAK256 DUP2 SWAP1 SSTORE POP DUP1 ISZERO PUSH2 0x113D JUMPI DUP3 PUSH20 0xFFFFFFFFFFFFFFFFFFFFFFFFFFFFFFFFFFFFFFFF AND DUP5 PUSH20 0xFFFFFFFFFFFFFFFFFFFFFFFFFFFFFFFFFFFFFFFF AND PUSH32 0x8C5BE1E5EBEC7D5BD14F71427D1E84F3DD0314C0F7B2291E5B200AC8C7C3B925 DUP5 PUSH1 0x40 MLOAD PUSH2 0x1134 SWAP2 SWAP1 PUSH2 0x1607 JUMP JUMPDEST PUSH1 0x40 MLOAD DUP1 SWAP2 SUB SWAP1 LOG3 JUMPDEST POP POP POP POP JUMP JUMPDEST PUSH0 PUSH20 0xFFFFFFFFFFFFFFFFFFFFFFFFFFFFFFFFFFFFFFFF AND DUP4 PUSH20 0xFFFFFFFFFFFFFFFFFFFFFFFFFFFFFFFFFFFFFFFF AND SUB PUSH2 0x1193 JUMPI DUP1 PUSH1 0x2 PUSH0 DUP3 DUP3 SLOAD PUSH2 0x1187 SWAP2 SWAP1 PUSH2 0x1AE7 JUMP JUMPDEST SWAP3 POP POP DUP2 SWAP1 SSTORE POP PUSH2 0x1261 JUMP JUMPDEST PUSH0 DUP1 PUSH0 DUP6 PUSH20 0xFFFFFFFFFFFFFFFFFFFFFFFFFFFFFFFFFFFFFFFF AND PUSH20 0xFFFFFFFFFFFFFFFFFFFFFFFFFFFFFFFFFFFFFFFF AND DUP2 MSTORE PUSH1 0x20 ADD SWAP1 DUP2 MSTORE PUSH1 0x20 ADD PUSH0 KECCAK256 SLOAD SWAP1 POP DUP2 DUP2 LT ISZERO PUSH2 0x121C JUMPI DUP4 DUP2 DUP4 PUSH1 0x40 MLOAD PUSH32 0xE450D38C00000000000000000000000000000000000000000000000000000000 DUP2 MSTORE PUSH1 0x4 ADD PUSH2 0x1213 SWAP4 SWAP3 SWAP2 SWAP1 PUSH2 0x1EBF JUMP JUMPDEST PUSH1 0x40 MLOAD DUP1 SWAP2 SUB SWAP1 REVERT JUMPDEST DUP2 DUP2 SUB PUSH0 DUP1 DUP7 PUSH20 0xFFFFFFFFFFFFFFFFFFFFFFFFFFFFFFFFFFFFFFFF AND PUSH20 0xFFFFFFFFFFFFFFFFFFFFFFFFFFFFFFFFFFFFFFFF AND DUP2 MSTORE PUSH1 0x20 ADD SWAP1 DUP2 MSTORE PUSH1 0x20 ADD PUSH0 KECCAK256 DUP2 SWAP1 SSTORE POP POP JUMPDEST PUSH0 PUSH20 0xFFFFFFFFFFFFFFFFFFFFFFFFFFFFFFFFFFFFFFFF AND DUP3 PUSH20 0xFFFFFFFFFFFFFFFFFFFFFFFFFFFFFFFFFFFFFFFF AND SUB PUSH2 0x12A8 JUMPI DUP1 PUSH1 0x2 PUSH0 DUP3 DUP3 SLOAD SUB SWAP3 POP POP DUP2 SWAP1 SSTORE POP PUSH2 0x12F2 JUMP JUMPDEST DUP1 PUSH0 DUP1 DUP5 PUSH20 0xFFFFFFFFFFFFFFFFFFFFFFFFFFFFFFFFFFFFFFFF AND PUSH20 0xFFFFFFFFFFFFFFFFFFFFFFFFFFFFFFFFFFFFFFFF AND DUP2 MSTORE PUSH1 0x20 ADD SWAP1 DUP2 MSTORE PUSH1 0x20 ADD PUSH0 KECCAK256 PUSH0 DUP3 DUP3 SLOAD ADD SWAP3 POP POP DUP2 SWAP1 SSTORE POP JUMPDEST DUP2 PUSH20 0xFFFFFFFFFFFFFFFFFFFFFFFFFFFFFFFFFFFFFFFF AND DUP4 PUSH20 0xFFFFFFFFFFFFFFFFFFFFFFFFFFFFFFFFFFFFFFFF AND PUSH32 0xDDF252AD1BE2C89B69C2B068FC378DAA952BA7F163C4A11628F55A4DF523B3EF DUP4 PUSH1 0x40 MLOAD PUSH2 0x134F SWAP2 SWAP1 PUSH2 0x1607 JUMP JUMPDEST PUSH1 0x40 MLOAD DUP1 SWAP2 SUB SWAP1 LOG3 POP POP POP JUMP JUMPDEST PUSH0 DUP1 DUP4 PUSH1 0x1 ADD PUSH0 DUP5 DUP2 MSTORE PUSH1 0x20 ADD SWAP1 DUP2 MSTORE PUSH1 0x20 ADD PUSH0 KECCAK256 SLOAD EQ ISZERO SWAP1 POP SWAP3 SWAP2 POP POP JUMP JUMPDEST PUSH0 PUSH2 0x1387 DUP4 DUP4 PUSH2 0x135C JUMP JUMPDEST PUSH2 0x13D9 JUMPI DUP3 PUSH0 ADD DUP3 SWAP1 DUP1 PUSH1 0x1 DUP2 SLOAD ADD DUP1 DUP3 SSTORE DUP1 SWAP2 POP POP PUSH1 0x1 SWAP1 SUB SWAP1 PUSH0 MSTORE PUSH1 0x20 PUSH0 KECCAK256 ADD PUSH0 SWAP1 SWAP2 SWAP1 SWAP2 SWAP1 SWAP2 POP SSTORE DUP3 PUSH0 ADD DUP1 SLOAD SWAP1 POP DUP4 PUSH1 0x1 ADD PUSH0 DUP5 DUP2 MSTORE PUSH1 0x20 ADD SWAP1 DUP2 MSTORE PUSH1 0x20 ADD PUSH0 KECCAK256 DUP2 SWAP1 SSTORE POP PUSH1 0x1 SWAP1 POP PUSH2 0x13DD JUMP JUMPDEST PUSH0 SWAP1 POP JUMPDEST SWAP3 SWAP2 POP POP JUMP JUMPDEST PUSH0 DUP2 PUSH0 ADD DUP1 SLOAD SWAP1 POP SWAP1 POP SWAP2 SWAP1 POP JUMP JUMPDEST PUSH0 DUP3 PUSH0 ADD DUP3 DUP2 SLOAD DUP2 LT PUSH2 0x1408 JUMPI PUSH2 0x1407 PUSH2 0x1E56 JUMP JUMPDEST JUMPDEST SWAP1 PUSH0 MSTORE PUSH1 0x20 PUSH0 KECCAK256 ADD SLOAD SWAP1 POP SWAP3 SWAP2 POP POP JUMP JUMPDEST PUSH1 0x40 MLOAD DUP1 PUSH2 0x120 ADD PUSH1 0x40 MSTORE DUP1 PUSH1 0x60 DUP2 MSTORE PUSH1 0x20 ADD PUSH1 0x60 DUP2 MSTORE PUSH1 0x20 ADD PUSH0 DUP2 MSTORE PUSH1 0x20 ADD PUSH0 DUP2 MSTORE PUSH1 0x20 ADD PUSH0 DUP2 MSTORE PUSH1 0x20 ADD PUSH0 DUP2 MSTORE PUSH1 0x20 ADD PUSH0 DUP2 MSTORE PUSH1 0x20 ADD PUSH0 ISZERO ISZERO DUP2 MSTORE PUSH1 0x20 ADD PUSH0 ISZERO ISZERO DUP2 MSTORE POP SWAP1 JUMP JUMPDEST PUSH0 DUP2 MLOAD SWAP1 POP SWAP2 SWAP1 POP JUMP JUMPDEST PUSH0 DUP3 DUP3 MSTORE PUSH1 0x20 DUP3 ADD SWAP1 POP SWAP3 SWAP2 POP POP JUMP JUMPDEST DUP3 DUP2 DUP4 MCOPY PUSH0 DUP4 DUP4 ADD MSTORE POP POP POP JUMP JUMPDEST PUSH0 PUSH1 0x1F NOT PUSH1 0x1F DUP4 ADD AND SWAP1 POP SWAP2 SWAP1 POP JUMP JUMPDEST PUSH0 PUSH2 0x14A4 DUP3 PUSH2 0x1462 JUMP JUMPDEST PUSH2 0x14AE DUP2 DUP6 PUSH2 0x146C JUMP JUMPDEST SWAP4 POP PUSH2 0x14BE DUP2 DUP6 PUSH1 0x20 DUP7 ADD PUSH2 0x147C JUMP JUMPDEST PUSH2 0x14C7 DUP2 PUSH2 0x148A JUMP JUMPDEST DUP5 ADD SWAP2 POP POP SWAP3 SWAP2 POP POP JUMP JUMPDEST PUSH0 PUSH1 0x20 DUP3 ADD SWAP1 POP DUP2 DUP2 SUB PUSH0 DUP4 ADD MSTORE PUSH2 0x14EA DUP2 DUP5 PUSH2 0x149A JUMP JUMPDEST SWAP1 POP SWAP3 SWAP2 POP POP JUMP JUMPDEST PUSH0 DUP1 REVERT JUMPDEST PUSH0 DUP1 REVERT JUMPDEST PUSH0 PUSH20 0xFFFFFFFFFFFFFFFFFFFFFFFFFFFFFFFFFFFFFFFF DUP3 AND SWAP1 POP SWAP2 SWAP1 POP JUMP JUMPDEST PUSH0 PUSH2 0x1523 DUP3 PUSH2 0x14FA JUMP JUMPDEST SWAP1 POP SWAP2 SWAP1 POP JUMP JUMPDEST PUSH2 0x1533 DUP2 PUSH2 0x1519 JUMP JUMPDEST DUP2 EQ PUSH2 0x153D JUMPI PUSH0 DUP1 REVERT JUMPDEST POP JUMP JUMPDEST PUSH0 DUP2 CALLDATALOAD SWAP1 POP PUSH2 0x154E DUP2 PUSH2 0x152A JUMP JUMPDEST SWAP3 SWAP2 POP POP JUMP JUMPDEST PUSH0 DUP2 SWAP1 POP SWAP2 SWAP1 POP JUMP JUMPDEST PUSH2 0x1566 DUP2 PUSH2 0x1554 JUMP JUMPDEST DUP2 EQ PUSH2 0x1570 JUMPI PUSH0 DUP1 REVERT JUMPDEST POP JUMP JUMPDEST PUSH0 DUP2 CALLDATALOAD SWAP1 POP PUSH2 0x1581 DUP2 PUSH2 0x155D JUMP JUMPDEST SWAP3 SWAP2 POP POP JUMP JUMPDEST PUSH0 DUP1 PUSH1 0x40 DUP4 DUP6 SUB SLT ISZERO PUSH2 0x159D JUMPI PUSH2 0x159C PUSH2 0x14F2 JUMP JUMPDEST JUMPDEST PUSH0 PUSH2 0x15AA DUP6 DUP3 DUP7 ADD PUSH2 0x1540 JUMP JUMPDEST SWAP3 POP POP PUSH1 0x20 PUSH2 0x15BB DUP6 DUP3 DUP7 ADD PUSH2 0x1573 JUMP JUMPDEST SWAP2 POP POP SWAP3 POP SWAP3 SWAP1 POP JUMP JUMPDEST PUSH0 DUP2 ISZERO ISZERO SWAP1 POP SWAP2 SWAP1 POP JUMP JUMPDEST PUSH2 0x15D9 DUP2 PUSH2 0x15C5 JUMP JUMPDEST DUP3 MSTORE POP POP JUMP JUMPDEST PUSH0 PUSH1 0x20 DUP3 ADD SWAP1 POP PUSH2 0x15F2 PUSH0 DUP4 ADD DUP5 PUSH2 0x15D0 JUMP JUMPDEST SWAP3 SWAP2 POP POP JUMP JUMPDEST PUSH2 0x1601 DUP2 PUSH2 0x1554 JUMP JUMPDEST DUP3 MSTORE POP POP JUMP JUMPDEST PUSH0 PUSH1 0x20 DUP3 ADD SWAP1 POP PUSH2 0x161A PUSH0 DUP4 ADD DUP5 PUSH2 0x15F8 JUMP JUMPDEST SWAP3 SWAP2 POP POP JUMP JUMPDEST PUSH0 DUP1 PUSH0 PUSH1 0x60 DUP5 DUP7 SUB SLT ISZERO PUSH2 0x1637 JUMPI PUSH2 0x1636 PUSH2 0x14F2 JUMP JUMPDEST JUMPDEST PUSH0 PUSH2 0x1644 DUP7 DUP3 DUP8 ADD PUSH2 0x1540 JUMP JUMPDEST SWAP4 POP POP PUSH1 0x20 PUSH2 0x1655 DUP7 DUP3 DUP8 ADD PUSH2 0x1540 JUMP JUMPDEST SWAP3 POP POP PUSH1 0x40 PUSH2 0x1666 DUP7 DUP3 DUP8 ADD PUSH2 0x1573 JUMP JUMPDEST SWAP2 POP POP SWAP3 POP SWAP3 POP SWAP3 JUMP JUMPDEST PUSH0 PUSH1 0xFF DUP3 AND SWAP1 POP SWAP2 SWAP1 POP JUMP JUMPDEST PUSH2 0x1685 DUP2 PUSH2 0x1670 JUMP JUMPDEST DUP3 MSTORE POP POP JUMP JUMPDEST PUSH0 PUSH1 0x20 DUP3 ADD SWAP1 POP PUSH2 0x169E PUSH0 DUP4 ADD DUP5 PUSH2 0x167C JUMP JUMPDEST SWAP3 SWAP2 POP POP JUMP JUMPDEST PUSH0 PUSH1 0x20 DUP3 DUP5 SUB SLT ISZERO PUSH2 0x16B9 JUMPI PUSH2 0x16B8 PUSH2 0x14F2 JUMP JUMPDEST JUMPDEST PUSH0 PUSH2 0x16C6 DUP5 DUP3 DUP6 ADD PUSH2 0x1540 JUMP JUMPDEST SWAP2 POP POP SWAP3 SWAP2 POP POP JUMP JUMPDEST PUSH0 DUP1 REVERT JUMPDEST PUSH0 DUP1 REVERT JUMPDEST PUSH0 DUP1 REVERT JUMPDEST PUSH0 DUP1 DUP4 PUSH1 0x1F DUP5 ADD SLT PUSH2 0x16F0 JUMPI PUSH2 0x16EF PUSH2 0x16CF JUMP JUMPDEST JUMPDEST DUP3 CALLDATALOAD SWAP1 POP PUSH8 0xFFFFFFFFFFFFFFFF DUP2 GT ISZERO PUSH2 0x170D JUMPI PUSH2 0x170C PUSH2 0x16D3 JUMP JUMPDEST JUMPDEST PUSH1 0x20 DUP4 ADD SWAP2 POP DUP4 PUSH1 0x1 DUP3 MUL DUP4 ADD GT ISZERO PUSH2 0x1729 JUMPI PUSH2 0x1728 PUSH2 0x16D7 JUMP JUMPDEST JUMPDEST SWAP3 POP SWAP3 SWAP1 POP JUMP JUMPDEST PUSH0 DUP1 PUSH0 PUSH1 0x40 DUP5 DUP7 SUB SLT ISZERO PUSH2 0x1747 JUMPI PUSH2 0x1746 PUSH2 0x14F2 JUMP JUMPDEST JUMPDEST PUSH0 DUP5 ADD CALLDATALOAD PUSH8 0xFFFFFFFFFFFFFFFF DUP2 GT ISZERO PUSH2 0x1764 JUMPI PUSH2 0x1763 PUSH2 0x14F6 JUMP JUMPDEST JUMPDEST PUSH2 0x1770 DUP7 DUP3 DUP8 ADD PUSH2 0x16DB JUMP JUMPDEST SWAP4 POP SWAP4 POP POP PUSH1 0x20 PUSH2 0x1783 DUP7 DUP3 DUP8 ADD PUSH2 0x1573 JUMP JUMPDEST SWAP2 POP POP SWAP3 POP SWAP3 POP SWAP3 JUMP JUMPDEST PUSH1 0x3 DUP2 LT PUSH2 0x1799 JUMPI PUSH0 DUP1 REVERT JUMPDEST POP JUMP JUMPDEST PUSH0 DUP2 CALLDATALOAD SWAP1 POP PUSH2 0x17AA DUP2 PUSH2 0x178D JUMP JUMPDEST SWAP3 SWAP2 POP POP JUMP JUMPDEST PUSH0 DUP1 PUSH1 0x40 DUP4 DUP6 SUB SLT ISZERO PUSH2 0x17C6 JUMPI PUSH2 0x17C5 PUSH2 0x14F2 JUMP JUMPDEST JUMPDEST PUSH0 PUSH2 0x17D3 DUP6 DUP3 DUP7 ADD PUSH2 0x1573 JUMP JUMPDEST SWAP3 POP POP PUSH1 0x20 PUSH2 0x17E4 DUP6 DUP3 DUP7 ADD PUSH2 0x179C JUMP JUMPDEST SWAP2 POP POP SWAP3 POP SWAP3 SWAP1 POP JUMP JUMPDEST PUSH0 PUSH1 0x20 DUP3 DUP5 SUB SLT ISZERO PUSH2 0x1803 JUMPI PUSH2 0x1802 PUSH2 0x14F2 JUMP JUMPDEST JUMPDEST PUSH0 PUSH2 0x1810 DUP5 DUP3 DUP6 ADD PUSH2 0x1573 JUMP JUMPDEST SWAP2 POP POP SWAP3 SWAP2 POP POP JUMP JUMPDEST PUSH0 DUP2 MLOAD SWAP1 POP SWAP2 SWAP1 POP JUMP JUMPDEST PUSH0 DUP3 DUP3 MSTORE PUSH1 0x20 DUP3 ADD SWAP1 POP SWAP3 SWAP2 POP POP JUMP JUMPDEST PUSH0 DUP2 SWAP1 POP PUSH1 0x20 DUP3 ADD SWAP1 POP SWAP2 SWAP1 POP JUMP JUMPDEST PUSH2 0x184B DUP2 PUSH2 0x1519 JUMP JUMPDEST DUP3 MSTORE POP POP JUMP JUMPDEST PUSH0 PUSH2 0x185C DUP4 DUP4 PUSH2 0x1842 JUMP JUMPDEST PUSH1 0x20 DUP4 ADD SWAP1 POP SWAP3 SWAP2 POP POP JUMP JUMPDEST PUSH0 PUSH1 0x20 DUP3 ADD SWAP1 POP SWAP2 SWAP1 POP JUMP JUMPDEST PUSH0 PUSH2 0x187E DUP3 PUSH2 0x1819 JUMP JUMPDEST PUSH2 0x1888 DUP2 DUP6 PUSH2 0x1823 JUMP JUMPDEST SWAP4 POP PUSH2 0x1893 DUP4 PUSH2 0x1833 JUMP JUMPDEST DUP1 PUSH0 JUMPDEST DUP4 DUP2 LT ISZERO PUSH2 0x18C3 JUMPI DUP2 MLOAD PUSH2 0x18AA DUP9 DUP3 PUSH2 0x1851 JUMP JUMPDEST SWAP8 POP PUSH2 0x18B5 DUP4 PUSH2 0x1868 JUMP JUMPDEST SWAP3 POP POP PUSH1 0x1 DUP2 ADD SWAP1 POP PUSH2 0x1896 JUMP JUMPDEST POP DUP6 SWAP4 POP POP POP POP SWAP3 SWAP2 POP POP JUMP JUMPDEST PUSH0 DUP3 DUP3 MSTORE PUSH1 0x20 DUP3 ADD SWAP1 POP SWAP3 SWAP2 POP POP JUMP JUMPDEST PUSH0 PUSH2 0x18EA DUP3 PUSH2 0x1462 JUMP JUMPDEST PUSH2 0x18F4 DUP2 DUP6 PUSH2 0x18D0 JUMP JUMPDEST SWAP4 POP PUSH2 0x1904 DUP2 DUP6 PUSH1 0x20 DUP7 ADD PUSH2 0x147C JUMP JUMPDEST PUSH2 0x190D DUP2 PUSH2 0x148A JUMP JUMPDEST DUP5 ADD SWAP2 POP POP SWAP3 SWAP2 POP POP JUMP JUMPDEST PUSH2 0x1921 DUP2 PUSH2 0x1554 JUMP JUMPDEST DUP3 MSTORE POP POP JUMP JUMPDEST PUSH2 0x1930 DUP2 PUSH2 0x15C5 JUMP JUMPDEST DUP3 MSTORE POP POP JUMP JUMPDEST PUSH0 PUSH2 0x120 DUP4 ADD PUSH0 DUP4 ADD MLOAD DUP5 DUP3 SUB PUSH0 DUP7 ADD MSTORE PUSH2 0x1951 DUP3 DUP3 PUSH2 0x1874 JUMP JUMPDEST SWAP2 POP POP PUSH1 0x20 DUP4 ADD MLOAD DUP5 DUP3 SUB PUSH1 0x20 DUP7 ADD MSTORE PUSH2 0x196B DUP3 DUP3 PUSH2 0x18E0 JUMP JUMPDEST SWAP2 POP POP PUSH1 0x40 DUP4 ADD MLOAD PUSH2 0x1980 PUSH1 0x40 DUP7 ADD DUP3 PUSH2 0x1918 JUMP JUMPDEST POP PUSH1 0x60 DUP4 ADD MLOAD PUSH2 0x1993 PUSH1 0x60 DUP7 ADD DUP3 PUSH2 0x1918 JUMP JUMPDEST POP PUSH1 0x80 DUP4 ADD MLOAD PUSH2 0x19A6 PUSH1 0x80 DUP7 ADD DUP3 PUSH2 0x1918 JUMP JUMPDEST POP PUSH1 0xA0 DUP4 ADD MLOAD PUSH2 0x19B9 PUSH1 0xA0 DUP7 ADD DUP3 PUSH2 0x1918 JUMP JUMPDEST POP PUSH1 0xC0 DUP4 ADD MLOAD PUSH2 0x19CC PUSH1 0xC0 DUP7 ADD DUP3 PUSH2 0x1918 JUMP JUMPDEST POP PUSH1 0xE0 DUP4 ADD MLOAD PUSH2 0x19DF PUSH1 0xE0 DUP7 ADD DUP3 PUSH2 0x1927 JUMP JUMPDEST POP PUSH2 0x100 DUP4 ADD MLOAD PUSH2 0x19F4 PUSH2 0x100 DUP7 ADD DUP3 PUSH2 0x1927 JUMP JUMPDEST POP DUP1 SWAP2 POP POP SWAP3 SWAP2 POP POP JUMP JUMPDEST PUSH0 PUSH1 0x20 DUP3 ADD SWAP1 POP DUP2 DUP2 SUB PUSH0 DUP4 ADD MSTORE PUSH2 0x1A17 DUP2 DUP5 PUSH2 0x1936 JUMP JUMPDEST SWAP1 POP SWAP3 SWAP2 POP POP JUMP JUMPDEST PUSH0 DUP1 PUSH1 0x40 DUP4 DUP6 SUB SLT ISZERO PUSH2 0x1A35 JUMPI PUSH2 0x1A34 PUSH2 0x14F2 JUMP JUMPDEST JUMPDEST PUSH0 PUSH2 0x1A42 DUP6 DUP3 DUP7 ADD PUSH2 0x1540 JUMP JUMPDEST SWAP3 POP POP PUSH1 0x20 PUSH2 0x1A53 DUP6 DUP3 DUP7 ADD PUSH2 0x1540 JUMP JUMPDEST SWAP2 POP POP SWAP3 POP SWAP3 SWAP1 POP JUMP JUMPDEST PUSH32 0x4E487B7100000000000000000000000000000000000000000000000000000000 PUSH0 MSTORE PUSH1 0x22 PUSH1 0x4 MSTORE PUSH1 0x24 PUSH0 REVERT JUMPDEST PUSH0 PUSH1 0x2 DUP3 DIV SWAP1 POP PUSH1 0x1 DUP3 AND DUP1 PUSH2 0x1AA1 JUMPI PUSH1 0x7F DUP3 AND SWAP2 POP JUMPDEST PUSH1 0x20 DUP3 LT DUP2 SUB PUSH2 0x1AB4 JUMPI PUSH2 0x1AB3 PUSH2 0x1A5D JUMP JUMPDEST JUMPDEST POP SWAP2 SWAP1 POP JUMP JUMPDEST PUSH32 0x4E487B7100000000000000000000000000000000000000000000000000000000 PUSH0 MSTORE PUSH1 0x11 PUSH1 0x4 MSTORE PUSH1 0x24 PUSH0 REVERT JUMPDEST PUSH0 PUSH2 0x1AF1 DUP3 PUSH2 0x1554 JUMP JUMPDEST SWAP2 POP PUSH2 0x1AFC DUP4 PUSH2 0x1554 JUMP JUMPDEST SWAP3 POP DUP3 DUP3 ADD SWAP1 POP DUP1 DUP3 GT ISZERO PUSH2 0x1B14 JUMPI PUSH2 0x1B13 PUSH2 0x1ABA JUMP JUMPDEST JUMPDEST SWAP3 SWAP2 POP POP JUMP JUMPDEST PUSH0 DUP3 SWAP1 POP SWAP3 SWAP2 POP POP JUMP JUMPDEST PUSH32 0x4E487B7100000000000000000000000000000000000000000000000000000000 PUSH0 MSTORE PUSH1 0x41 PUSH1 0x4 MSTORE PUSH1 0x24 PUSH0 REVERT JUMPDEST PUSH0 DUP2 SWAP1 POP DUP2 PUSH0 MSTORE PUSH1 0x20 PUSH0 KECCAK256 SWAP1 POP SWAP2 SWAP1 POP JUMP JUMPDEST PUSH0 PUSH1 0x20 PUSH1 0x1F DUP4 ADD DIV SWAP1 POP SWAP2 SWAP1 POP JUMP JUMPDEST PUSH0 DUP3 DUP3 SHL SWAP1 POP SWAP3 SWAP2 POP POP JUMP JUMPDEST PUSH0 PUSH1 0x8 DUP4 MUL PUSH2 0x1BAD PUSH32 0xFFFFFFFFFFFFFFFFFFFFFFFFFFFFFFFFFFFFFFFFFFFFFFFFFFFFFFFFFFFFFFFF DUP3 PUSH2 0x1B72 JUMP JUMPDEST PUSH2 0x1BB7 DUP7 DUP4 PUSH2 0x1B72 JUMP JUMPDEST SWAP6 POP DUP1 NOT DUP5 AND SWAP4 POP DUP1 DUP7 AND DUP5 OR SWAP3 POP POP POP SWAP4 SWAP3 POP POP POP JUMP JUMPDEST PUSH0 DUP2 SWAP1 POP SWAP2 SWAP1 POP JUMP JUMPDEST PUSH0 PUSH2 0x1BF2 PUSH2 0x1BED PUSH2 0x1BE8 DUP5 PUSH2 0x1554 JUMP JUMPDEST PUSH2 0x1BCF JUMP JUMPDEST PUSH2 0x1554 JUMP JUMPDEST SWAP1 POP SWAP2 SWAP1 POP JUMP JUMPDEST PUSH0 DUP2 SWAP1 POP SWAP2 SWAP1 POP JUMP JUMPDEST PUSH2 0x1C0B DUP4 PUSH2 0x1BD8 JUMP JUMPDEST PUSH2 0x1C1F PUSH2 0x1C17 DUP3 PUSH2 0x1BF9 JUMP JUMPDEST DUP5 DUP5 SLOAD PUSH2 0x1B7E JUMP JUMPDEST DUP3 SSTORE POP POP POP POP JUMP JUMPDEST PUSH0 SWAP1 JUMP JUMPDEST PUSH2 0x1C33 PUSH2 0x1C27 JUMP JUMPDEST PUSH2 0x1C3E DUP2 DUP5 DUP5 PUSH2 0x1C02 JUMP JUMPDEST POP POP POP JUMP JUMPDEST JUMPDEST DUP2 DUP2 LT ISZERO PUSH2 0x1C61 JUMPI PUSH2 0x1C56 PUSH0 DUP3 PUSH2 0x1C2B JUMP JUMPDEST PUSH1 0x1 DUP2 ADD SWAP1 POP PUSH2 0x1C44 JUMP JUMPDEST POP POP JUMP JUMPDEST PUSH1 0x1F DUP3 GT ISZERO PUSH2 0x1CA6 JUMPI PUSH2 0x1C77 DUP2 PUSH2 0x1B51 JUMP JUMPDEST PUSH2 0x1C80 DUP5 PUSH2 0x1B63 JUMP JUMPDEST DUP2 ADD PUSH1 0x20 DUP6 LT ISZERO PUSH2 0x1C8F JUMPI DUP2 SWAP1 POP JUMPDEST PUSH2 0x1CA3 PUSH2 0x1C9B DUP6 PUSH2 0x1B63 JUMP JUMPDEST DUP4 ADD DUP3 PUSH2 0x1C43 JUMP JUMPDEST POP POP JUMPDEST POP POP POP JUMP JUMPDEST PUSH0 DUP3 DUP3 SHR SWAP1 POP SWAP3 SWAP2 POP POP JUMP JUMPDEST PUSH0 PUSH2 0x1CC6 PUSH0 NOT DUP5 PUSH1 0x8 MUL PUSH2 0x1CAB JUMP JUMPDEST NOT DUP1 DUP4 AND SWAP2 POP POP SWAP3 SWAP2 POP POP JUMP JUMPDEST PUSH0 PUSH2 0x1CDE DUP4 DUP4 PUSH2 0x1CB7 JUMP JUMPDEST SWAP2 POP DUP3 PUSH1 0x2 MUL DUP3 OR SWAP1 POP SWAP3 SWAP2 POP POP JUMP JUMPDEST PUSH2 0x1CF8 DUP4 DUP4 PUSH2 0x1B1A JUMP JUMPDEST PUSH8 0xFFFFFFFFFFFFFFFF DUP2 GT ISZERO PUSH2 0x1D11 JUMPI PUSH2 0x1D10 PUSH2 0x1B24 JUMP JUMPDEST JUMPDEST PUSH2 0x1D1B DUP3 SLOAD PUSH2 0x1A8A JUMP JUMPDEST PUSH2 0x1D26 DUP3 DUP3 DUP6 PUSH2 0x1C65 JUMP JUMPDEST PUSH0 PUSH1 0x1F DUP4 GT PUSH1 0x1 DUP2 EQ PUSH2 0x1D53 JUMPI PUSH0 DUP5 ISZERO PUSH2 0x1D41 JUMPI DUP3 DUP8 ADD CALLDATALOAD SWAP1 POP JUMPDEST PUSH2 0x1D4B DUP6 DUP3 PUSH2 0x1CD3 JUMP JUMPDEST DUP7 SSTORE POP PUSH2 0x1DB2 JUMP JUMPDEST PUSH1 0x1F NOT DUP5 AND PUSH2 0x1D61 DUP7 PUSH2 0x1B51 JUMP JUMPDEST PUSH0 JUMPDEST DUP3 DUP2 LT ISZERO PUSH2 0x1D88 JUMPI DUP5 DUP10 ADD CALLDATALOAD DUP3 SSTORE PUSH1 0x1 DUP3 ADD SWAP2 POP PUSH1 0x20 DUP6 ADD SWAP5 POP PUSH1 0x20 DUP2 ADD SWAP1 POP PUSH2 0x1D63 JUMP JUMPDEST DUP7 DUP4 LT ISZERO PUSH2 0x1DA5 JUMPI DUP5 DUP10 ADD CALLDATALOAD PUSH2 0x1DA1 PUSH1 0x1F DUP10 AND DUP3 PUSH2 0x1CB7 JUMP JUMPDEST DUP4 SSTORE POP JUMPDEST PUSH1 0x1 PUSH1 0x2 DUP9 MUL ADD DUP9 SSTORE POP POP POP JUMPDEST POP POP POP POP POP POP POP JUMP JUMPDEST PUSH0 PUSH2 0x1DC5 DUP3 PUSH2 0x1554 JUMP JUMPDEST SWAP2 POP PUSH2 0x1DD0 DUP4 PUSH2 0x1554 JUMP JUMPDEST SWAP3 POP DUP3 DUP3 SUB SWAP1 POP DUP2 DUP2 GT ISZERO PUSH2 0x1DE8 JUMPI PUSH2 0x1DE7 PUSH2 0x1ABA JUMP JUMPDEST JUMPDEST SWAP3 SWAP2 POP POP JUMP JUMPDEST PUSH32 0x496E76616C696449737375654964000000000000000000000000000000000000 PUSH0 DUP3 ADD MSTORE POP JUMP JUMPDEST PUSH0 PUSH2 0x1E22 PUSH1 0xE DUP4 PUSH2 0x146C JUMP JUMPDEST SWAP2 POP PUSH2 0x1E2D DUP3 PUSH2 0x1DEE JUMP JUMPDEST PUSH1 0x20 DUP3 ADD SWAP1 POP SWAP2 SWAP1 POP JUMP JUMPDEST PUSH0 PUSH1 0x20 DUP3 ADD SWAP1 POP DUP2 DUP2 SUB PUSH0 DUP4 ADD MSTORE PUSH2 0x1E4F DUP2 PUSH2 0x1E16 JUMP JUMPDEST SWAP1 POP SWAP2 SWAP1 POP JUMP JUMPDEST PUSH32 0x4E487B7100000000000000000000000000000000000000000000000000000000 PUSH0 MSTORE PUSH1 0x32 PUSH1 0x4 MSTORE PUSH1 0x24 PUSH0 REVERT JUMPDEST PUSH32 0x4E487B7100000000000000000000000000000000000000000000000000000000 PUSH0 MSTORE PUSH1 0x21 PUSH1 0x4 MSTORE PUSH1 0x24 PUSH0 REVERT JUMPDEST PUSH2 0x1EB9 DUP2 PUSH2 0x1519 JUMP JUMPDEST DUP3 MSTORE POP POP JUMP JUMPDEST PUSH0 PUSH1 0x60 DUP3 ADD SWAP1 POP PUSH2 0x1ED2 PUSH0 DUP4 ADD DUP7 PUSH2 0x1EB0 JUMP JUMPDEST PUSH2 0x1EDF PUSH1 0x20 DUP4 ADD DUP6 PUSH2 0x15F8 JUMP JUMPDEST PUSH2 0x1EEC PUSH1 0x40 DUP4 ADD DUP5 PUSH2 0x15F8 JUMP JUMPDEST SWAP5 SWAP4 POP POP POP POP JUMP JUMPDEST PUSH0 PUSH1 0x20 DUP3 ADD SWAP1 POP PUSH2 0x1F07 PUSH0 DUP4 ADD DUP5 PUSH2 0x1EB0 JUMP JUMPDEST SWAP3 SWAP2 POP POP JUMP INVALID LOG2 PUSH5 0x6970667358 0x22 SLT KECCAK256 0xC6 SELFDESTRUCT 0xE5 XOR 0xC9 PC DUP3 0xCB POP 0xEC SWAP14 0xE BLOCKHASH 0xAE 0xCA DUP10 DUP11 0xC7 PUSH17 0x6851B753C7AEF559656AFFBF2664736F6C PUSH4 0x4300081A STOP CALLER "
				},
				"gasEstimates": {
					"creation": {
						"codeDepositCost": "1600600",
						"executionCost": "infinite",
						"totalCost": "infinite"
					},
					"external": {
						"allowance(address,address)": "infinite",
						"approve(address,uint256)": "infinite",
						"balanceOf(address)": "2852",
						"claim()": "infinite",
						"createIssue(string,uint256)": "infinite",
						"decimals()": "383",
						"getIssue(uint256)": "infinite",
						"getIssuesCount()": "2529",
						"maxSupply()": "2491",
						"name()": "infinite",
						"symbol()": "infinite",
						"totalSupply()": "2500",
						"transfer(address,uint256)": "infinite",
						"transferFrom(address,address,uint256)": "infinite",
						"vote(uint256,uint8)": "infinite"
					}
				},
				"methodIdentifiers": {
					"allowance(address,address)": "dd62ed3e",
					"approve(address,uint256)": "095ea7b3",
					"balanceOf(address)": "70a08231",
					"claim()": "4e71d92d",
					"createIssue(string,uint256)": "8615d855",
					"decimals()": "313ce567",
					"getIssue(uint256)": "976b3113",
					"getIssuesCount()": "50b59447",
					"maxSupply()": "d5abeb01",
					"name()": "06fdde03",
					"symbol()": "95d89b41",
					"totalSupply()": "18160ddd",
					"transfer(address,uint256)": "a9059cbb",
					"transferFrom(address,address,uint256)": "23b872dd",
					"vote(uint256,uint8)": "943e8216"
				}
			},
			"storageLayout": {
				"storage": [
					{
						"astId": 159,
						"contract": "contracts/WeightedVoting.sol:WeightedVoting",
						"label": "_balances",
						"offset": 0,
						"slot": "0",
						"type": "t_mapping(t_address,t_uint256)"
					},
					{
						"astId": 165,
						"contract": "contracts/WeightedVoting.sol:WeightedVoting",
						"label": "_allowances",
						"offset": 0,
						"slot": "1",
						"type": "t_mapping(t_address,t_mapping(t_address,t_uint256))"
					},
					{
						"astId": 167,
						"contract": "contracts/WeightedVoting.sol:WeightedVoting",
						"label": "_totalSupply",
						"offset": 0,
						"slot": "2",
						"type": "t_uint256"
					},
					{
						"astId": 169,
						"contract": "contracts/WeightedVoting.sol:WeightedVoting",
						"label": "_name",
						"offset": 0,
						"slot": "3",
						"type": "t_string_storage"
					},
					{
						"astId": 171,
						"contract": "contracts/WeightedVoting.sol:WeightedVoting",
						"label": "_symbol",
						"offset": 0,
						"slot": "4",
						"type": "t_string_storage"
					},
					{
						"astId": 1411,
						"contract": "contracts/WeightedVoting.sol:WeightedVoting",
						"label": "maxSupply",
						"offset": 0,
						"slot": "5",
						"type": "t_uint256"
					},
					{
						"astId": 1453,
						"contract": "contracts/WeightedVoting.sol:WeightedVoting",
						"label": "issues",
						"offset": 0,
						"slot": "6",
						"type": "t_array(t_struct(Issue)1449_storage)dyn_storage"
					},
					{
						"astId": 1457,
						"contract": "contracts/WeightedVoting.sol:WeightedVoting",
						"label": "hasClaimed",
						"offset": 0,
						"slot": "7",
						"type": "t_mapping(t_address,t_bool)"
					}
				],
				"types": {
					"t_address": {
						"encoding": "inplace",
						"label": "address",
						"numberOfBytes": "20"
					},
					"t_array(t_bytes32)dyn_storage": {
						"base": "t_bytes32",
						"encoding": "dynamic_array",
						"label": "bytes32[]",
						"numberOfBytes": "32"
					},
					"t_array(t_struct(Issue)1449_storage)dyn_storage": {
						"base": "t_struct(Issue)1449_storage",
						"encoding": "dynamic_array",
						"label": "struct WeightedVoting.Issue[]",
						"numberOfBytes": "32"
					},
					"t_bool": {
						"encoding": "inplace",
						"label": "bool",
						"numberOfBytes": "1"
					},
					"t_bytes32": {
						"encoding": "inplace",
						"label": "bytes32",
						"numberOfBytes": "32"
					},
					"t_mapping(t_address,t_bool)": {
						"encoding": "mapping",
						"key": "t_address",
						"label": "mapping(address => bool)",
						"numberOfBytes": "32",
						"value": "t_bool"
					},
					"t_mapping(t_address,t_mapping(t_address,t_uint256))": {
						"encoding": "mapping",
						"key": "t_address",
						"label": "mapping(address => mapping(address => uint256))",
						"numberOfBytes": "32",
						"value": "t_mapping(t_address,t_uint256)"
					},
					"t_mapping(t_address,t_uint256)": {
						"encoding": "mapping",
						"key": "t_address",
						"label": "mapping(address => uint256)",
						"numberOfBytes": "32",
						"value": "t_uint256"
					},
					"t_mapping(t_bytes32,t_uint256)": {
						"encoding": "mapping",
						"key": "t_bytes32",
						"label": "mapping(bytes32 => uint256)",
						"numberOfBytes": "32",
						"value": "t_uint256"
					},
					"t_string_storage": {
						"encoding": "bytes",
						"label": "string",
						"numberOfBytes": "32"
					},
					"t_struct(AddressSet)1111_storage": {
						"encoding": "inplace",
						"label": "struct EnumerableSet.AddressSet",
						"members": [
							{
								"astId": 1110,
								"contract": "contracts/WeightedVoting.sol:WeightedVoting",
								"label": "_inner",
								"offset": 0,
								"slot": "0",
								"type": "t_struct(Set)796_storage"
							}
						],
						"numberOfBytes": "64"
					},
					"t_struct(Issue)1449_storage": {
						"encoding": "inplace",
						"label": "struct WeightedVoting.Issue",
						"members": [
							{
								"astId": 1432,
								"contract": "contracts/WeightedVoting.sol:WeightedVoting",
								"label": "voters",
								"offset": 0,
								"slot": "0",
								"type": "t_struct(AddressSet)1111_storage"
							},
							{
								"astId": 1434,
								"contract": "contracts/WeightedVoting.sol:WeightedVoting",
								"label": "issueDesc",
								"offset": 0,
								"slot": "2",
								"type": "t_string_storage"
							},
							{
								"astId": 1436,
								"contract": "contracts/WeightedVoting.sol:WeightedVoting",
								"label": "votesFor",
								"offset": 0,
								"slot": "3",
								"type": "t_uint256"
							},
							{
								"astId": 1438,
								"contract": "contracts/WeightedVoting.sol:WeightedVoting",
								"label": "votesAgainst",
								"offset": 0,
								"slot": "4",
								"type": "t_uint256"
							},
							{
								"astId": 1440,
								"contract": "contracts/WeightedVoting.sol:WeightedVoting",
								"label": "votesAbstain",
								"offset": 0,
								"slot": "5",
								"type": "t_uint256"
							},
							{
								"astId": 1442,
								"contract": "contracts/WeightedVoting.sol:WeightedVoting",
								"label": "totalVotes",
								"offset": 0,
								"slot": "6",
								"type": "t_uint256"
							},
							{
								"astId": 1444,
								"contract": "contracts/WeightedVoting.sol:WeightedVoting",
								"label": "quorum",
								"offset": 0,
								"slot": "7",
								"type": "t_uint256"
							},
							{
								"astId": 1446,
								"contract": "contracts/WeightedVoting.sol:WeightedVoting",
								"label": "passed",
								"offset": 0,
								"slot": "8",
								"type": "t_bool"
							},
							{
								"astId": 1448,
								"contract": "contracts/WeightedVoting.sol:WeightedVoting",
								"label": "closed",
								"offset": 1,
								"slot": "8",
								"type": "t_bool"
							}
						],
						"numberOfBytes": "288"
					},
					"t_struct(Set)796_storage": {
						"encoding": "inplace",
						"label": "struct EnumerableSet.Set",
						"members": [
							{
								"astId": 791,
								"contract": "contracts/WeightedVoting.sol:WeightedVoting",
								"label": "_values",
								"offset": 0,
								"slot": "0",
								"type": "t_array(t_bytes32)dyn_storage"
							},
							{
								"astId": 795,
								"contract": "contracts/WeightedVoting.sol:WeightedVoting",
								"label": "_positions",
								"offset": 0,
								"slot": "1",
								"type": "t_mapping(t_bytes32,t_uint256)"
							}
						],
						"numberOfBytes": "64"
					},
					"t_uint256": {
						"encoding": "inplace",
						"label": "uint256",
						"numberOfBytes": "32"
					}
				}
			},
			"userdoc": {
				"kind": "user",
				"methods": {},
				"version": 1
			}
		}
	}
}