{
	"contracts/AddressBook.sol": {
		"AddressBook": {
			"abi": [
				{
					"inputs": [
						{
							"internalType": "address",
							"name": "initialOwner",
							"type": "address"
						}
					],
					"stateMutability": "nonpayable",
					"type": "constructor"
				},
				{
					"inputs": [
						{
							"internalType": "uint256",
							"name": "id",
							"type": "uint256"
						}
					],
					"name": "ContactNotFound",
					"type": "error"
				},
				{
					"inputs": [
						{
							"internalType": "address",
							"name": "owner",
							"type": "address"
						}
					],
					"name": "OwnableInvalidOwner",
					"type": "error"
				},
				{
					"inputs": [
						{
							"internalType": "address",
							"name": "account",
							"type": "address"
						}
					],
					"name": "OwnableUnauthorizedAccount",
					"type": "error"
				},
				{
					"anonymous": false,
					"inputs": [
						{
							"indexed": true,
							"internalType": "address",
							"name": "previousOwner",
							"type": "address"
						},
						{
							"indexed": true,
							"internalType": "address",
							"name": "newOwner",
							"type": "address"
						}
					],
					"name": "OwnershipTransferred",
					"type": "event"
				},
				{
					"inputs": [
						{
							"internalType": "uint256",
							"name": "_id",
							"type": "uint256"
						},
						{
							"internalType": "string",
							"name": "_firstName",
							"type": "string"
						},
						{
							"internalType": "string",
							"name": "_lastName",
							"type": "string"
						},
						{
							"internalType": "uint256[]",
							"name": "_phoneNumbers",
							"type": "uint256[]"
						}
					],
					"name": "addContact",
					"outputs": [],
					"stateMutability": "nonpayable",
					"type": "function"
				},
				{
					"inputs": [
						{
							"internalType": "uint256",
							"name": "_id",
							"type": "uint256"
						}
					],
					"name": "deleteContact",
					"outputs": [],
					"stateMutability": "nonpayable",
					"type": "function"
				},
				{
					"inputs": [],
					"name": "getAllContacts",
					"outputs": [
						{
							"components": [
								{
									"internalType": "uint256",
									"name": "id",
									"type": "uint256"
								},
								{
									"internalType": "string",
									"name": "firstName",
									"type": "string"
								},
								{
									"internalType": "string",
									"name": "lastName",
									"type": "string"
								},
								{
									"internalType": "uint256[]",
									"name": "phoneNumbers",
									"type": "uint256[]"
								}
							],
							"internalType": "struct AddressBook.Contact[]",
							"name": "",
							"type": "tuple[]"
						}
					],
					"stateMutability": "view",
					"type": "function"
				},
				{
					"inputs": [
						{
							"internalType": "uint256",
							"name": "_id",
							"type": "uint256"
						}
					],
					"name": "getContact",
					"outputs": [
						{
							"components": [
								{
									"internalType": "uint256",
									"name": "id",
									"type": "uint256"
								},
								{
									"internalType": "string",
									"name": "firstName",
									"type": "string"
								},
								{
									"internalType": "string",
									"name": "lastName",
									"type": "string"
								},
								{
									"internalType": "uint256[]",
									"name": "phoneNumbers",
									"type": "uint256[]"
								}
							],
							"internalType": "struct AddressBook.Contact",
							"name": "",
							"type": "tuple"
						}
					],
					"stateMutability": "view",
					"type": "function"
				},
				{
					"inputs": [],
					"name": "owner",
					"outputs": [
						{
							"internalType": "address",
							"name": "",
							"type": "address"
						}
					],
					"stateMutability": "view",
					"type": "function"
				},
				{
					"inputs": [],
					"name": "renounceOwnership",
					"outputs": [],
					"stateMutability": "nonpayable",
					"type": "function"
				},
				{
					"inputs": [
						{
							"internalType": "address",
							"name": "newOwner",
							"type": "address"
						}
					],
					"name": "transferOwnership",
					"outputs": [],
					"stateMutability": "nonpayable",
					"type": "function"
				}
			],
			"devdoc": {
				"details": "An address book that allows the owner to add, delete, and view contacts.",
				"errors": {
					"OwnableInvalidOwner(address)": [
						{
							"details": "The owner is not a valid owner account. (eg. `address(0)`)"
						}
					],
					"OwnableUnauthorizedAccount(address)": [
						{
							"details": "The caller account is not authorized to perform an operation."
						}
					]
				},
				"kind": "dev",
				"methods": {
					"addContact(uint256,string,string,uint256[])": {
						"details": "Adds a new contact to the address book.",
						"params": {
							"_firstName": "The first name of the contact.",
							"_id": "The unique ID of the contact.",
							"_lastName": "The last name of the contact.",
							"_phoneNumbers": "An array of phone numbers for the contact."
						}
					},
					"constructor": {
						"details": "Initializes the contract by setting the deployer as the initial owner."
					},
					"deleteContact(uint256)": {
						"details": "Deletes a contact from the address book.",
						"params": {
							"_id": "The unique ID of the contact to delete."
						}
					},
					"getAllContacts()": {
						"details": "Retrieves all contacts in the address book.",
						"returns": {
							"_0": "An array of Contact structs."
						}
					},
					"getContact(uint256)": {
						"details": "Retrieves a contact's information.",
						"params": {
							"_id": "The unique ID of the contact to retrieve."
						},
						"returns": {
							"_0": "The Contact struct containing the contact's information."
						}
					},
					"owner()": {
						"details": "Returns the address of the current owner."
					},
					"renounceOwnership()": {
						"details": "Leaves the contract without owner. It will not be possible to call `onlyOwner` functions. Can only be called by the current owner. NOTE: Renouncing ownership will leave the contract without an owner, thereby disabling any functionality that is only available to the owner."
					},
					"transferOwnership(address)": {
						"details": "Transfers ownership of the contract to a new account (`newOwner`). Can only be called by the current owner."
					}
				},
				"title": "AddressBook",
				"version": 1
			},
			"evm": {
				"assembly": "    /* \"contracts/AddressBook.sol\":334:3440  contract AddressBook is Ownable {... */\n  mstore(0x40, 0x80)\n    /* \"contracts/AddressBook.sol\":916:1028  constructor(address initialOwner) Ownable(initialOwner) {... */\n  callvalue\n  dup1\n  iszero\n  tag_1\n  jumpi\n  0x00\n  dup1\n  revert\ntag_1:\n  pop\n  mload(0x40)\n  sub(codesize, bytecodeSize)\n  dup1\n  bytecodeSize\n  dup4\n  codecopy\n  dup2\n  dup2\n  add\n  0x40\n  mstore\n  dup2\n  add\n  swap1\n  tag_2\n  swap2\n  swap1\n  tag_3\n  jump\t// in\ntag_2:\n    /* \"contracts/AddressBook.sol\":958:970  initialOwner */\n  dup1\n    /* \"https://github.com/OpenZeppelin/openzeppelin-contracts/blob/master/contracts/access/Ownable.sol\":1297:1298  0 */\n  0x00\n    /* \"https://github.com/OpenZeppelin/openzeppelin-contracts/blob/master/contracts/access/Ownable.sol\":1273:1299  initialOwner == address(0) */\n  0xffffffffffffffffffffffffffffffffffffffff\n  and\n    /* \"https://github.com/OpenZeppelin/openzeppelin-contracts/blob/master/contracts/access/Ownable.sol\":1273:1285  initialOwner */\n  dup2\n    /* \"https://github.com/OpenZeppelin/openzeppelin-contracts/blob/master/contracts/access/Ownable.sol\":1273:1299  initialOwner == address(0) */\n  0xffffffffffffffffffffffffffffffffffffffff\n  and\n  sub\n    /* \"https://github.com/OpenZeppelin/openzeppelin-contracts/blob/master/contracts/access/Ownable.sol\":1269:1364  if (initialOwner == address(0)) {... */\n  tag_7\n  jumpi\n    /* \"https://github.com/OpenZeppelin/openzeppelin-contracts/blob/master/contracts/access/Ownable.sol\":1350:1351  0 */\n  0x00\n    /* \"https://github.com/OpenZeppelin/openzeppelin-contracts/blob/master/contracts/access/Ownable.sol\":1322:1353  OwnableInvalidOwner(address(0)) */\n  mload(0x40)\n  0x1e4fbdf700000000000000000000000000000000000000000000000000000000\n  dup2\n  mstore\n  0x04\n  add\n  tag_8\n  swap2\n  swap1\n  tag_9\n  jump\t// in\ntag_8:\n  mload(0x40)\n  dup1\n  swap2\n  sub\n  swap1\n  revert\n    /* \"https://github.com/OpenZeppelin/openzeppelin-contracts/blob/master/contracts/access/Ownable.sol\":1269:1364  if (initialOwner == address(0)) {... */\ntag_7:\n    /* \"https://github.com/OpenZeppelin/openzeppelin-contracts/blob/master/contracts/access/Ownable.sol\":1373:1405  _transferOwnership(initialOwner) */\n  tag_10\n    /* \"https://github.com/OpenZeppelin/openzeppelin-contracts/blob/master/contracts/access/Ownable.sol\":1392:1404  initialOwner */\n  dup2\n    /* \"https://github.com/OpenZeppelin/openzeppelin-contracts/blob/master/contracts/access/Ownable.sol\":1373:1391  _transferOwnership */\n  shl(0x20, tag_11)\n    /* \"https://github.com/OpenZeppelin/openzeppelin-contracts/blob/master/contracts/access/Ownable.sol\":1373:1405  _transferOwnership(initialOwner) */\n  0x20\n  shr\n  jump\t// in\ntag_10:\n    /* \"https://github.com/OpenZeppelin/openzeppelin-contracts/blob/master/contracts/access/Ownable.sol\":1225:1412  constructor(address initialOwner) {... */\n  pop\n    /* \"contracts/AddressBook.sol\":916:1028  constructor(address initialOwner) Ownable(initialOwner) {... */\n  pop\n    /* \"contracts/AddressBook.sol\":334:3440  contract AddressBook is Ownable {... */\n  jump(tag_13)\n    /* \"https://github.com/OpenZeppelin/openzeppelin-contracts/blob/master/contracts/access/Ownable.sol\":2912:3099  function _transferOwnership(address newOwner) internal virtual {... */\ntag_11:\n    /* \"https://github.com/OpenZeppelin/openzeppelin-contracts/blob/master/contracts/access/Ownable.sol\":2985:3001  address oldOwner */\n  0x00\n    /* \"https://github.com/OpenZeppelin/openzeppelin-contracts/blob/master/contracts/access/Ownable.sol\":3004:3010  _owner */\n  dup1\n  0x00\n  swap1\n  sload\n  swap1\n  0x0100\n  exp\n  swap1\n  div\n  0xffffffffffffffffffffffffffffffffffffffff\n  and\n    /* \"https://github.com/OpenZeppelin/openzeppelin-contracts/blob/master/contracts/access/Ownable.sol\":2985:3010  address oldOwner = _owner */\n  swap1\n  pop\n    /* \"https://github.com/OpenZeppelin/openzeppelin-contracts/blob/master/contracts/access/Ownable.sol\":3029:3037  newOwner */\n  dup2\n    /* \"https://github.com/OpenZeppelin/openzeppelin-contracts/blob/master/contracts/access/Ownable.sol\":3020:3026  _owner */\n  0x00\n  dup1\n    /* \"https://github.com/OpenZeppelin/openzeppelin-contracts/blob/master/contracts/access/Ownable.sol\":3020:3037  _owner = newOwner */\n  0x0100\n  exp\n  dup2\n  sload\n  dup2\n  0xffffffffffffffffffffffffffffffffffffffff\n  mul\n  not\n  and\n  swap1\n  dup4\n  0xffffffffffffffffffffffffffffffffffffffff\n  and\n  mul\n  or\n  swap1\n  sstore\n  pop\n    /* \"https://github.com/OpenZeppelin/openzeppelin-contracts/blob/master/contracts/access/Ownable.sol\":3083:3091  newOwner */\n  dup2\n    /* \"https://github.com/OpenZeppelin/openzeppelin-contracts/blob/master/contracts/access/Ownable.sol\":3052:3092  OwnershipTransferred(oldOwner, newOwner) */\n  0xffffffffffffffffffffffffffffffffffffffff\n  and\n    /* \"https://github.com/OpenZeppelin/openzeppelin-contracts/blob/master/contracts/access/Ownable.sol\":3073:3081  oldOwner */\n  dup2\n    /* \"https://github.com/OpenZeppelin/openzeppelin-contracts/blob/master/contracts/access/Ownable.sol\":3052:3092  OwnershipTransferred(oldOwner, newOwner) */\n  0xffffffffffffffffffffffffffffffffffffffff\n  and\n  0x8be0079c531659141344cd1fd0a4f28419497f9722a3daafe3b4186f6b6457e0\n  mload(0x40)\n  mload(0x40)\n  dup1\n  swap2\n  sub\n  swap1\n  log3\n    /* \"https://github.com/OpenZeppelin/openzeppelin-contracts/blob/master/contracts/access/Ownable.sol\":2975:3099  {... */\n  pop\n    /* \"https://github.com/OpenZeppelin/openzeppelin-contracts/blob/master/contracts/access/Ownable.sol\":2912:3099  function _transferOwnership(address newOwner) internal virtual {... */\n  pop\n  jump\t// out\n    /* \"#utility.yul\":88:205   */\ntag_16:\n    /* \"#utility.yul\":197:198   */\n  0x00\n    /* \"#utility.yul\":194:195   */\n  dup1\n    /* \"#utility.yul\":187:199   */\n  revert\n    /* \"#utility.yul\":334:460   */\ntag_18:\n    /* \"#utility.yul\":371:378   */\n  0x00\n    /* \"#utility.yul\":411:453   */\n  0xffffffffffffffffffffffffffffffffffffffff\n    /* \"#utility.yul\":404:409   */\n  dup3\n    /* \"#utility.yul\":400:454   */\n  and\n    /* \"#utility.yul\":389:454   */\n  swap1\n  pop\n    /* \"#utility.yul\":334:460   */\n  swap2\n  swap1\n  pop\n  jump\t// out\n    /* \"#utility.yul\":466:562   */\ntag_19:\n    /* \"#utility.yul\":503:510   */\n  0x00\n    /* \"#utility.yul\":532:556   */\n  tag_29\n    /* \"#utility.yul\":550:555   */\n  dup3\n    /* \"#utility.yul\":532:556   */\n  tag_18\n  jump\t// in\ntag_29:\n    /* \"#utility.yul\":521:556   */\n  swap1\n  pop\n    /* \"#utility.yul\":466:562   */\n  swap2\n  swap1\n  pop\n  jump\t// out\n    /* \"#utility.yul\":568:690   */\ntag_20:\n    /* \"#utility.yul\":641:665   */\n  tag_31\n    /* \"#utility.yul\":659:664   */\n  dup2\n    /* \"#utility.yul\":641:665   */\n  tag_19\n  jump\t// in\ntag_31:\n    /* \"#utility.yul\":634:639   */\n  dup2\n    /* \"#utility.yul\":631:666   */\n  eq\n    /* \"#utility.yul\":621:684   */\n  tag_32\n  jumpi\n    /* \"#utility.yul\":680:681   */\n  0x00\n    /* \"#utility.yul\":677:678   */\n  dup1\n    /* \"#utility.yul\":670:682   */\n  revert\n    /* \"#utility.yul\":621:684   */\ntag_32:\n    /* \"#utility.yul\":568:690   */\n  pop\n  jump\t// out\n    /* \"#utility.yul\":696:839   */\ntag_21:\n    /* \"#utility.yul\":753:758   */\n  0x00\n    /* \"#utility.yul\":784:790   */\n  dup2\n    /* \"#utility.yul\":778:791   */\n  mload\n    /* \"#utility.yul\":769:791   */\n  swap1\n  pop\n    /* \"#utility.yul\":800:833   */\n  tag_34\n    /* \"#utility.yul\":827:832   */\n  dup2\n    /* \"#utility.yul\":800:833   */\n  tag_20\n  jump\t// in\ntag_34:\n    /* \"#utility.yul\":696:839   */\n  swap3\n  swap2\n  pop\n  pop\n  jump\t// out\n    /* \"#utility.yul\":845:1196   */\ntag_3:\n    /* \"#utility.yul\":915:921   */\n  0x00\n    /* \"#utility.yul\":964:966   */\n  0x20\n    /* \"#utility.yul\":952:961   */\n  dup3\n    /* \"#utility.yul\":943:950   */\n  dup5\n    /* \"#utility.yul\":939:962   */\n  sub\n    /* \"#utility.yul\":935:967   */\n  slt\n    /* \"#utility.yul\":932:1051   */\n  iszero\n  tag_36\n  jumpi\n    /* \"#utility.yul\":970:1049   */\n  tag_37\n  tag_16\n  jump\t// in\ntag_37:\n    /* \"#utility.yul\":932:1051   */\ntag_36:\n    /* \"#utility.yul\":1090:1091   */\n  0x00\n    /* \"#utility.yul\":1115:1179   */\n  tag_38\n    /* \"#utility.yul\":1171:1178   */\n  dup5\n    /* \"#utility.yul\":1162:1168   */\n  dup3\n    /* \"#utility.yul\":1151:1160   */\n  dup6\n    /* \"#utility.yul\":1147:1169   */\n  add\n    /* \"#utility.yul\":1115:1179   */\n  tag_21\n  jump\t// in\ntag_38:\n    /* \"#utility.yul\":1105:1179   */\n  swap2\n  pop\n    /* \"#utility.yul\":1061:1189   */\n  pop\n    /* \"#utility.yul\":845:1196   */\n  swap3\n  swap2\n  pop\n  pop\n  jump\t// out\n    /* \"#utility.yul\":1202:1320   */\ntag_22:\n    /* \"#utility.yul\":1289:1313   */\n  tag_40\n    /* \"#utility.yul\":1307:1312   */\n  dup2\n    /* \"#utility.yul\":1289:1313   */\n  tag_19\n  jump\t// in\ntag_40:\n    /* \"#utility.yul\":1284:1287   */\n  dup3\n    /* \"#utility.yul\":1277:1314   */\n  mstore\n    /* \"#utility.yul\":1202:1320   */\n  pop\n  pop\n  jump\t// out\n    /* \"#utility.yul\":1326:1548   */\ntag_9:\n    /* \"#utility.yul\":1419:1423   */\n  0x00\n    /* \"#utility.yul\":1457:1459   */\n  0x20\n    /* \"#utility.yul\":1446:1455   */\n  dup3\n    /* \"#utility.yul\":1442:1460   */\n  add\n    /* \"#utility.yul\":1434:1460   */\n  swap1\n  pop\n    /* \"#utility.yul\":1470:1541   */\n  tag_42\n    /* \"#utility.yul\":1538:1539   */\n  0x00\n    /* \"#utility.yul\":1527:1536   */\n  dup4\n    /* \"#utility.yul\":1523:1540   */\n  add\n    /* \"#utility.yul\":1514:1520   */\n  dup5\n    /* \"#utility.yul\":1470:1541   */\n  tag_22\n  jump\t// in\ntag_42:\n    /* \"#utility.yul\":1326:1548   */\n  swap3\n  swap2\n  pop\n  pop\n  jump\t// out\n    /* \"contracts/AddressBook.sol\":334:3440  contract AddressBook is Ownable {... */\ntag_13:\n  dataSize(sub_0)\n  dup1\n  dataOffset(sub_0)\n  0x00\n  codecopy\n  0x00\n  return\nstop\n\nsub_0: assembly {\n        /* \"contracts/AddressBook.sol\":334:3440  contract AddressBook is Ownable {... */\n      mstore(0x40, 0x80)\n      callvalue\n      dup1\n      iszero\n      tag_1\n      jumpi\n      0x00\n      dup1\n      revert\n    tag_1:\n      pop\n      jumpi(tag_2, lt(calldatasize, 0x04))\n      shr(0xe0, calldataload(0x00))\n      dup1\n      0xb9ed6fca\n      gt\n      tag_10\n      jumpi\n      dup1\n      0xb9ed6fca\n      eq\n      tag_6\n      jumpi\n      dup1\n      0xe6505e1e\n      eq\n      tag_7\n      jumpi\n      dup1\n      0xef1d6ddd\n      eq\n      tag_8\n      jumpi\n      dup1\n      0xf2fde38b\n      eq\n      tag_9\n      jumpi\n      jump(tag_2)\n    tag_10:\n      dup1\n      0x715018a6\n      eq\n      tag_3\n      jumpi\n      dup1\n      0x8da5cb5b\n      eq\n      tag_4\n      jumpi\n      dup1\n      0xaa7396a2\n      eq\n      tag_5\n      jumpi\n    tag_2:\n      0x00\n      dup1\n      revert\n        /* \"https://github.com/OpenZeppelin/openzeppelin-contracts/blob/master/contracts/access/Ownable.sol\":2293:2394  function renounceOwnership() public virtual onlyOwner {... */\n    tag_3:\n      tag_11\n      tag_12\n      jump\t// in\n    tag_11:\n      stop\n        /* \"https://github.com/OpenZeppelin/openzeppelin-contracts/blob/master/contracts/access/Ownable.sol\":1638:1723  function owner() public view virtual returns (address) {... */\n    tag_4:\n      tag_13\n      tag_14\n      jump\t// in\n    tag_13:\n      mload(0x40)\n      tag_15\n      swap2\n      swap1\n      tag_16\n      jump\t// in\n    tag_15:\n      mload(0x40)\n      dup1\n      swap2\n      sub\n      swap1\n      return\n        /* \"contracts/AddressBook.sol\":1340:1929  function addContact(... */\n    tag_5:\n      tag_17\n      0x04\n      dup1\n      calldatasize\n      sub\n      dup2\n      add\n      swap1\n      tag_18\n      swap2\n      swap1\n      tag_19\n      jump\t// in\n    tag_18:\n      tag_20\n      jump\t// in\n    tag_17:\n      stop\n        /* \"contracts/AddressBook.sol\":2068:2579  function deleteContact(uint256 _id) public onlyOwner {... */\n    tag_6:\n      tag_21\n      0x04\n      dup1\n      calldatasize\n      sub\n      dup2\n      add\n      swap1\n      tag_22\n      swap2\n      swap1\n      tag_23\n      jump\t// in\n    tag_22:\n      tag_24\n      jump\t// in\n    tag_21:\n      stop\n        /* \"contracts/AddressBook.sol\":2787:3008  function getContact(uint256 _id) public view returns (Contact memory) {... */\n    tag_7:\n      tag_25\n      0x04\n      dup1\n      calldatasize\n      sub\n      dup2\n      add\n      swap1\n      tag_26\n      swap2\n      swap1\n      tag_23\n      jump\t// in\n    tag_26:\n      tag_27\n      jump\t// in\n    tag_25:\n      mload(0x40)\n      tag_28\n      swap2\n      swap1\n      tag_29\n      jump\t// in\n    tag_28:\n      mload(0x40)\n      dup1\n      swap2\n      sub\n      swap1\n      return\n        /* \"contracts/AddressBook.sol\":3136:3437  function getAllContacts() public view returns (Contact[] memory) {... */\n    tag_8:\n      tag_30\n      tag_31\n      jump\t// in\n    tag_30:\n      mload(0x40)\n      tag_32\n      swap2\n      swap1\n      tag_33\n      jump\t// in\n    tag_32:\n      mload(0x40)\n      dup1\n      swap2\n      sub\n      swap1\n      return\n        /* \"https://github.com/OpenZeppelin/openzeppelin-contracts/blob/master/contracts/access/Ownable.sol\":2543:2758  function transferOwnership(address newOwner) public virtual onlyOwner {... */\n    tag_9:\n      tag_34\n      0x04\n      dup1\n      calldatasize\n      sub\n      dup2\n      add\n      swap1\n      tag_35\n      swap2\n      swap1\n      tag_36\n      jump\t// in\n    tag_35:\n      tag_37\n      jump\t// in\n    tag_34:\n      stop\n        /* \"https://github.com/OpenZeppelin/openzeppelin-contracts/blob/master/contracts/access/Ownable.sol\":2293:2394  function renounceOwnership() public virtual onlyOwner {... */\n    tag_12:\n        /* \"https://github.com/OpenZeppelin/openzeppelin-contracts/blob/master/contracts/access/Ownable.sol\":1531:1544  _checkOwner() */\n      tag_39\n        /* \"https://github.com/OpenZeppelin/openzeppelin-contracts/blob/master/contracts/access/Ownable.sol\":1531:1542  _checkOwner */\n      tag_40\n        /* \"https://github.com/OpenZeppelin/openzeppelin-contracts/blob/master/contracts/access/Ownable.sol\":1531:1544  _checkOwner() */\n      jump\t// in\n    tag_39:\n        /* \"https://github.com/OpenZeppelin/openzeppelin-contracts/blob/master/contracts/access/Ownable.sol\":2357:2387  _transferOwnership(address(0)) */\n      tag_42\n        /* \"https://github.com/OpenZeppelin/openzeppelin-contracts/blob/master/contracts/access/Ownable.sol\":2384:2385  0 */\n      0x00\n        /* \"https://github.com/OpenZeppelin/openzeppelin-contracts/blob/master/contracts/access/Ownable.sol\":2357:2375  _transferOwnership */\n      tag_43\n        /* \"https://github.com/OpenZeppelin/openzeppelin-contracts/blob/master/contracts/access/Ownable.sol\":2357:2387  _transferOwnership(address(0)) */\n      jump\t// in\n    tag_42:\n        /* \"https://github.com/OpenZeppelin/openzeppelin-contracts/blob/master/contracts/access/Ownable.sol\":2293:2394  function renounceOwnership() public virtual onlyOwner {... */\n      jump\t// out\n        /* \"https://github.com/OpenZeppelin/openzeppelin-contracts/blob/master/contracts/access/Ownable.sol\":1638:1723  function owner() public view virtual returns (address) {... */\n    tag_14:\n        /* \"https://github.com/OpenZeppelin/openzeppelin-contracts/blob/master/contracts/access/Ownable.sol\":1684:1691  address */\n      0x00\n        /* \"https://github.com/OpenZeppelin/openzeppelin-contracts/blob/master/contracts/access/Ownable.sol\":1710:1716  _owner */\n      dup1\n      0x00\n      swap1\n      sload\n      swap1\n      0x0100\n      exp\n      swap1\n      div\n      0xffffffffffffffffffffffffffffffffffffffff\n      and\n        /* \"https://github.com/OpenZeppelin/openzeppelin-contracts/blob/master/contracts/access/Ownable.sol\":1703:1716  return _owner */\n      swap1\n      pop\n        /* \"https://github.com/OpenZeppelin/openzeppelin-contracts/blob/master/contracts/access/Ownable.sol\":1638:1723  function owner() public view virtual returns (address) {... */\n      swap1\n      jump\t// out\n        /* \"contracts/AddressBook.sol\":1340:1929  function addContact(... */\n    tag_20:\n        /* \"https://github.com/OpenZeppelin/openzeppelin-contracts/blob/master/contracts/access/Ownable.sol\":1531:1544  _checkOwner() */\n      tag_46\n        /* \"https://github.com/OpenZeppelin/openzeppelin-contracts/blob/master/contracts/access/Ownable.sol\":1531:1542  _checkOwner */\n      tag_40\n        /* \"https://github.com/OpenZeppelin/openzeppelin-contracts/blob/master/contracts/access/Ownable.sol\":1531:1544  _checkOwner() */\n      jump\t// in\n    tag_46:\n        /* \"contracts/AddressBook.sol\":1633:1634  0 */\n      0x00\n        /* \"contracts/AddressBook.sol\":1598:1606  contacts */\n      0x01\n        /* \"contracts/AddressBook.sol\":1598:1611  contacts[_id] */\n      0x00\n        /* \"contracts/AddressBook.sol\":1607:1610  _id */\n      dup7\n        /* \"contracts/AddressBook.sol\":1598:1611  contacts[_id] */\n      dup2\n      mstore\n      0x20\n      add\n      swap1\n      dup2\n      mstore\n      0x20\n      add\n      0x00\n      keccak256\n        /* \"contracts/AddressBook.sol\":1598:1621  contacts[_id].firstName */\n      0x01\n      add\n        /* \"contracts/AddressBook.sol\":1592:1629  bytes(contacts[_id].firstName).length */\n      dup1\n      sload\n      tag_48\n      swap1\n      tag_49\n      jump\t// in\n    tag_48:\n      swap1\n      pop\n        /* \"contracts/AddressBook.sol\":1592:1634  bytes(contacts[_id].firstName).length != 0 */\n      eq\n        /* \"contracts/AddressBook.sol\":1588:1708  if (bytes(contacts[_id].firstName).length != 0) {... */\n      tag_50\n      jumpi\n        /* \"contracts/AddressBook.sol\":1651:1696  revert(\"Contact with this ID already exists\") */\n      mload(0x40)\n      0x08c379a000000000000000000000000000000000000000000000000000000000\n      dup2\n      mstore\n      0x04\n      add\n      tag_51\n      swap1\n      tag_52\n      jump\t// in\n    tag_51:\n      mload(0x40)\n      dup1\n      swap2\n      sub\n      swap1\n      revert\n        /* \"contracts/AddressBook.sol\":1588:1708  if (bytes(contacts[_id].firstName).length != 0) {... */\n    tag_50:\n        /* \"contracts/AddressBook.sol\":1736:1890  Contact({... */\n      mload(0x40)\n      dup1\n      0x80\n      add\n      0x40\n      mstore\n      dup1\n        /* \"contracts/AddressBook.sol\":1763:1766  _id */\n      dup6\n        /* \"contracts/AddressBook.sol\":1736:1890  Contact({... */\n      dup2\n      mstore\n      0x20\n      add\n        /* \"contracts/AddressBook.sol\":1792:1802  _firstName */\n      dup5\n        /* \"contracts/AddressBook.sol\":1736:1890  Contact({... */\n      dup2\n      mstore\n      0x20\n      add\n        /* \"contracts/AddressBook.sol\":1827:1836  _lastName */\n      dup4\n        /* \"contracts/AddressBook.sol\":1736:1890  Contact({... */\n      dup2\n      mstore\n      0x20\n      add\n        /* \"contracts/AddressBook.sol\":1865:1878  _phoneNumbers */\n      dup3\n        /* \"contracts/AddressBook.sol\":1736:1890  Contact({... */\n      dup2\n      mstore\n      pop\n        /* \"contracts/AddressBook.sol\":1720:1728  contacts */\n      0x01\n        /* \"contracts/AddressBook.sol\":1720:1733  contacts[_id] */\n      0x00\n        /* \"contracts/AddressBook.sol\":1729:1732  _id */\n      dup7\n        /* \"contracts/AddressBook.sol\":1720:1733  contacts[_id] */\n      dup2\n      mstore\n      0x20\n      add\n      swap1\n      dup2\n      mstore\n      0x20\n      add\n      0x00\n      keccak256\n        /* \"contracts/AddressBook.sol\":1720:1890  contacts[_id] = Contact({... */\n      0x00\n      dup3\n      add\n      mload\n      dup2\n      0x00\n      add\n      sstore\n      0x20\n      dup3\n      add\n      mload\n      dup2\n      0x01\n      add\n      swap1\n      dup2\n      tag_53\n      swap2\n      swap1\n      tag_54\n      jump\t// in\n    tag_53:\n      pop\n      0x40\n      dup3\n      add\n      mload\n      dup2\n      0x02\n      add\n      swap1\n      dup2\n      tag_55\n      swap2\n      swap1\n      tag_54\n      jump\t// in\n    tag_55:\n      pop\n      0x60\n      dup3\n      add\n      mload\n      dup2\n      0x03\n      add\n      swap1\n      dup1\n      mload\n      swap1\n      0x20\n      add\n      swap1\n      tag_56\n      swap3\n      swap2\n      swap1\n      tag_57\n      jump\t// in\n    tag_56:\n      pop\n      swap1\n      pop\n      pop\n        /* \"contracts/AddressBook.sol\":1901:1911  contactIds */\n      0x02\n        /* \"contracts/AddressBook.sol\":1917:1920  _id */\n      dup5\n        /* \"contracts/AddressBook.sol\":1901:1921  contactIds.push(_id) */\n      swap1\n      dup1\n      0x01\n      dup2\n      sload\n      add\n      dup1\n      dup3\n      sstore\n      dup1\n      swap2\n      pop\n      pop\n      0x01\n      swap1\n      sub\n      swap1\n      0x00\n      mstore\n      keccak256(0x00, 0x20)\n      add\n      0x00\n      swap1\n      swap2\n      swap1\n      swap2\n      swap1\n      swap2\n      pop\n      sstore\n        /* \"contracts/AddressBook.sol\":1340:1929  function addContact(... */\n      pop\n      pop\n      pop\n      pop\n      jump\t// out\n        /* \"contracts/AddressBook.sol\":2068:2579  function deleteContact(uint256 _id) public onlyOwner {... */\n    tag_24:\n        /* \"https://github.com/OpenZeppelin/openzeppelin-contracts/blob/master/contracts/access/Ownable.sol\":1531:1544  _checkOwner() */\n      tag_60\n        /* \"https://github.com/OpenZeppelin/openzeppelin-contracts/blob/master/contracts/access/Ownable.sol\":1531:1542  _checkOwner */\n      tag_40\n        /* \"https://github.com/OpenZeppelin/openzeppelin-contracts/blob/master/contracts/access/Ownable.sol\":1531:1544  _checkOwner() */\n      jump\t// in\n    tag_60:\n        /* \"contracts/AddressBook.sol\":2177:2178  0 */\n      0x00\n        /* \"contracts/AddressBook.sol\":2142:2150  contacts */\n      0x01\n        /* \"contracts/AddressBook.sol\":2142:2155  contacts[_id] */\n      0x00\n        /* \"contracts/AddressBook.sol\":2151:2154  _id */\n      dup4\n        /* \"contracts/AddressBook.sol\":2142:2155  contacts[_id] */\n      dup2\n      mstore\n      0x20\n      add\n      swap1\n      dup2\n      mstore\n      0x20\n      add\n      0x00\n      keccak256\n        /* \"contracts/AddressBook.sol\":2142:2165  contacts[_id].firstName */\n      0x01\n      add\n        /* \"contracts/AddressBook.sol\":2136:2173  bytes(contacts[_id].firstName).length */\n      dup1\n      sload\n      tag_62\n      swap1\n      tag_49\n      jump\t// in\n    tag_62:\n      swap1\n      pop\n        /* \"contracts/AddressBook.sol\":2136:2178  bytes(contacts[_id].firstName).length == 0 */\n      sub\n        /* \"contracts/AddressBook.sol\":2132:2234  if (bytes(contacts[_id].firstName).length == 0) {... */\n      tag_63\n      jumpi\n        /* \"contracts/AddressBook.sol\":2218:2221  _id */\n      dup1\n        /* \"contracts/AddressBook.sol\":2202:2222  ContactNotFound(_id) */\n      mload(0x40)\n      0xf55dec0000000000000000000000000000000000000000000000000000000000\n      dup2\n      mstore\n      0x04\n      add\n      tag_64\n      swap2\n      swap1\n      tag_65\n      jump\t// in\n    tag_64:\n      mload(0x40)\n      dup1\n      swap2\n      sub\n      swap1\n      revert\n        /* \"contracts/AddressBook.sol\":2132:2234  if (bytes(contacts[_id].firstName).length == 0) {... */\n    tag_63:\n        /* \"contracts/AddressBook.sol\":2251:2259  contacts */\n      0x01\n        /* \"contracts/AddressBook.sol\":2251:2264  contacts[_id] */\n      0x00\n        /* \"contracts/AddressBook.sol\":2260:2263  _id */\n      dup3\n        /* \"contracts/AddressBook.sol\":2251:2264  contacts[_id] */\n      dup2\n      mstore\n      0x20\n      add\n      swap1\n      dup2\n      mstore\n      0x20\n      add\n      0x00\n      keccak256\n      0x00\n        /* \"contracts/AddressBook.sol\":2244:2264  delete contacts[_id] */\n      dup1\n      dup3\n      add\n      0x00\n      swap1\n      sstore\n      0x01\n      dup3\n      add\n      0x00\n      tag_66\n      swap2\n      swap1\n      tag_67\n      jump\t// in\n    tag_66:\n      0x02\n      dup3\n      add\n      0x00\n      tag_68\n      swap2\n      swap1\n      tag_67\n      jump\t// in\n    tag_68:\n      0x03\n      dup3\n      add\n      0x00\n      tag_69\n      swap2\n      swap1\n      tag_70\n      jump\t// in\n    tag_69:\n      pop\n      pop\n        /* \"contracts/AddressBook.sol\":2334:2343  uint256 i */\n      0x00\n        /* \"contracts/AddressBook.sol\":2329:2572  for (uint256 i = 0; i < contactIds.length; i++) {... */\n    tag_71:\n        /* \"contracts/AddressBook.sol\":2353:2363  contactIds */\n      0x02\n        /* \"contracts/AddressBook.sol\":2353:2370  contactIds.length */\n      dup1\n      sload\n      swap1\n      pop\n        /* \"contracts/AddressBook.sol\":2349:2350  i */\n      dup2\n        /* \"contracts/AddressBook.sol\":2349:2370  i < contactIds.length */\n      lt\n        /* \"contracts/AddressBook.sol\":2329:2572  for (uint256 i = 0; i < contactIds.length; i++) {... */\n      iszero\n      tag_72\n      jumpi\n        /* \"contracts/AddressBook.sol\":2413:2416  _id */\n      dup2\n        /* \"contracts/AddressBook.sol\":2396:2406  contactIds */\n      0x02\n        /* \"contracts/AddressBook.sol\":2407:2408  i */\n      dup3\n        /* \"contracts/AddressBook.sol\":2396:2409  contactIds[i] */\n      dup2\n      sload\n      dup2\n      lt\n      tag_74\n      jumpi\n      tag_75\n      tag_76\n      jump\t// in\n    tag_75:\n    tag_74:\n      swap1\n      0x00\n      mstore\n      keccak256(0x00, 0x20)\n      add\n      sload\n        /* \"contracts/AddressBook.sol\":2396:2416  contactIds[i] == _id */\n      sub\n        /* \"contracts/AddressBook.sol\":2392:2561  if (contactIds[i] == _id) {... */\n      tag_78\n      jumpi\n        /* \"contracts/AddressBook.sol\":2453:2463  contactIds */\n      0x02\n        /* \"contracts/AddressBook.sol\":2484:2485  1 */\n      0x01\n        /* \"contracts/AddressBook.sol\":2464:2474  contactIds */\n      0x02\n        /* \"contracts/AddressBook.sol\":2464:2481  contactIds.length */\n      dup1\n      sload\n      swap1\n      pop\n        /* \"contracts/AddressBook.sol\":2464:2485  contactIds.length - 1 */\n      tag_79\n      swap2\n      swap1\n      tag_80\n      jump\t// in\n    tag_79:\n        /* \"contracts/AddressBook.sol\":2453:2486  contactIds[contactIds.length - 1] */\n      dup2\n      sload\n      dup2\n      lt\n      tag_81\n      jumpi\n      tag_82\n      tag_76\n      jump\t// in\n    tag_82:\n    tag_81:\n      swap1\n      0x00\n      mstore\n      keccak256(0x00, 0x20)\n      add\n      sload\n        /* \"contracts/AddressBook.sol\":2437:2447  contactIds */\n      0x02\n        /* \"contracts/AddressBook.sol\":2448:2449  i */\n      dup3\n        /* \"contracts/AddressBook.sol\":2437:2450  contactIds[i] */\n      dup2\n      sload\n      dup2\n      lt\n      tag_84\n      jumpi\n      tag_85\n      tag_76\n      jump\t// in\n    tag_85:\n    tag_84:\n      swap1\n      0x00\n      mstore\n      keccak256(0x00, 0x20)\n      add\n        /* \"contracts/AddressBook.sol\":2437:2486  contactIds[i] = contactIds[contactIds.length - 1] */\n      dup2\n      swap1\n      sstore\n      pop\n        /* \"contracts/AddressBook.sol\":2505:2515  contactIds */\n      0x02\n        /* \"contracts/AddressBook.sol\":2505:2521  contactIds.pop() */\n      dup1\n      sload\n      dup1\n      tag_87\n      jumpi\n      tag_88\n      tag_89\n      jump\t// in\n    tag_88:\n    tag_87:\n      0x01\n      swap1\n      sub\n      dup2\n      dup2\n      swap1\n      0x00\n      mstore\n      keccak256(0x00, 0x20)\n      add\n      0x00\n      swap1\n      sstore\n      swap1\n      sstore\n        /* \"contracts/AddressBook.sol\":2540:2545  break */\n      jump(tag_72)\n        /* \"contracts/AddressBook.sol\":2392:2561  if (contactIds[i] == _id) {... */\n    tag_78:\n        /* \"contracts/AddressBook.sol\":2372:2375  i++ */\n      dup1\n      dup1\n      0x01\n      add\n      swap2\n      pop\n      pop\n        /* \"contracts/AddressBook.sol\":2329:2572  for (uint256 i = 0; i < contactIds.length; i++) {... */\n      jump(tag_71)\n    tag_72:\n      pop\n        /* \"contracts/AddressBook.sol\":2068:2579  function deleteContact(uint256 _id) public onlyOwner {... */\n      pop\n      jump\t// out\n        /* \"contracts/AddressBook.sol\":2787:3008  function getContact(uint256 _id) public view returns (Contact memory) {... */\n    tag_27:\n        /* \"contracts/AddressBook.sol\":2841:2855  Contact memory */\n      tag_91\n      tag_92\n      jump\t// in\n    tag_91:\n        /* \"contracts/AddressBook.sol\":2913:2914  0 */\n      0x00\n        /* \"contracts/AddressBook.sol\":2878:2886  contacts */\n      0x01\n        /* \"contracts/AddressBook.sol\":2878:2891  contacts[_id] */\n      0x00\n        /* \"contracts/AddressBook.sol\":2887:2890  _id */\n      dup5\n        /* \"contracts/AddressBook.sol\":2878:2891  contacts[_id] */\n      dup2\n      mstore\n      0x20\n      add\n      swap1\n      dup2\n      mstore\n      0x20\n      add\n      0x00\n      keccak256\n        /* \"contracts/AddressBook.sol\":2878:2901  contacts[_id].firstName */\n      0x01\n      add\n        /* \"contracts/AddressBook.sol\":2872:2909  bytes(contacts[_id].firstName).length */\n      dup1\n      sload\n      tag_94\n      swap1\n      tag_49\n      jump\t// in\n    tag_94:\n      swap1\n      pop\n        /* \"contracts/AddressBook.sol\":2872:2914  bytes(contacts[_id].firstName).length == 0 */\n      sub\n        /* \"contracts/AddressBook.sol\":2868:2970  if (bytes(contacts[_id].firstName).length == 0) {... */\n      tag_95\n      jumpi\n        /* \"contracts/AddressBook.sol\":2954:2957  _id */\n      dup2\n        /* \"contracts/AddressBook.sol\":2938:2958  ContactNotFound(_id) */\n      mload(0x40)\n      0xf55dec0000000000000000000000000000000000000000000000000000000000\n      dup2\n      mstore\n      0x04\n      add\n      tag_96\n      swap2\n      swap1\n      tag_65\n      jump\t// in\n    tag_96:\n      mload(0x40)\n      dup1\n      swap2\n      sub\n      swap1\n      revert\n        /* \"contracts/AddressBook.sol\":2868:2970  if (bytes(contacts[_id].firstName).length == 0) {... */\n    tag_95:\n        /* \"contracts/AddressBook.sol\":2987:2995  contacts */\n      0x01\n        /* \"contracts/AddressBook.sol\":2987:3000  contacts[_id] */\n      0x00\n        /* \"contracts/AddressBook.sol\":2996:2999  _id */\n      dup4\n        /* \"contracts/AddressBook.sol\":2987:3000  contacts[_id] */\n      dup2\n      mstore\n      0x20\n      add\n      swap1\n      dup2\n      mstore\n      0x20\n      add\n      0x00\n      keccak256\n        /* \"contracts/AddressBook.sol\":2980:3000  return contacts[_id] */\n      mload(0x40)\n      dup1\n      0x80\n      add\n      0x40\n      mstore\n      swap1\n      dup2\n      0x00\n      dup3\n      add\n      sload\n      dup2\n      mstore\n      0x20\n      add\n      0x01\n      dup3\n      add\n      dup1\n      sload\n      tag_97\n      swap1\n      tag_49\n      jump\t// in\n    tag_97:\n      dup1\n      0x1f\n      add\n      0x20\n      dup1\n      swap2\n      div\n      mul\n      0x20\n      add\n      mload(0x40)\n      swap1\n      dup2\n      add\n      0x40\n      mstore\n      dup1\n      swap3\n      swap2\n      swap1\n      dup2\n      dup2\n      mstore\n      0x20\n      add\n      dup3\n      dup1\n      sload\n      tag_98\n      swap1\n      tag_49\n      jump\t// in\n    tag_98:\n      dup1\n      iszero\n      tag_99\n      jumpi\n      dup1\n      0x1f\n      lt\n      tag_100\n      jumpi\n      0x0100\n      dup1\n      dup4\n      sload\n      div\n      mul\n      dup4\n      mstore\n      swap2\n      0x20\n      add\n      swap2\n      jump(tag_99)\n    tag_100:\n      dup3\n      add\n      swap2\n      swap1\n      0x00\n      mstore\n      keccak256(0x00, 0x20)\n      swap1\n    tag_101:\n      dup2\n      sload\n      dup2\n      mstore\n      swap1\n      0x01\n      add\n      swap1\n      0x20\n      add\n      dup1\n      dup4\n      gt\n      tag_101\n      jumpi\n      dup3\n      swap1\n      sub\n      0x1f\n      and\n      dup3\n      add\n      swap2\n    tag_99:\n      pop\n      pop\n      pop\n      pop\n      pop\n      dup2\n      mstore\n      0x20\n      add\n      0x02\n      dup3\n      add\n      dup1\n      sload\n      tag_102\n      swap1\n      tag_49\n      jump\t// in\n    tag_102:\n      dup1\n      0x1f\n      add\n      0x20\n      dup1\n      swap2\n      div\n      mul\n      0x20\n      add\n      mload(0x40)\n      swap1\n      dup2\n      add\n      0x40\n      mstore\n      dup1\n      swap3\n      swap2\n      swap1\n      dup2\n      dup2\n      mstore\n      0x20\n      add\n      dup3\n      dup1\n      sload\n      tag_103\n      swap1\n      tag_49\n      jump\t// in\n    tag_103:\n      dup1\n      iszero\n      tag_104\n      jumpi\n      dup1\n      0x1f\n      lt\n      tag_105\n      jumpi\n      0x0100\n      dup1\n      dup4\n      sload\n      div\n      mul\n      dup4\n      mstore\n      swap2\n      0x20\n      add\n      swap2\n      jump(tag_104)\n    tag_105:\n      dup3\n      add\n      swap2\n      swap1\n      0x00\n      mstore\n      keccak256(0x00, 0x20)\n      swap1\n    tag_106:\n      dup2\n      sload\n      dup2\n      mstore\n      swap1\n      0x01\n      add\n      swap1\n      0x20\n      add\n      dup1\n      dup4\n      gt\n      tag_106\n      jumpi\n      dup3\n      swap1\n      sub\n      0x1f\n      and\n      dup3\n      add\n      swap2\n    tag_104:\n      pop\n      pop\n      pop\n      pop\n      pop\n      dup2\n      mstore\n      0x20\n      add\n      0x03\n      dup3\n      add\n      dup1\n      sload\n      dup1\n      0x20\n      mul\n      0x20\n      add\n      mload(0x40)\n      swap1\n      dup2\n      add\n      0x40\n      mstore\n      dup1\n      swap3\n      swap2\n      swap1\n      dup2\n      dup2\n      mstore\n      0x20\n      add\n      dup3\n      dup1\n      sload\n      dup1\n      iszero\n      tag_107\n      jumpi\n      0x20\n      mul\n      dup3\n      add\n      swap2\n      swap1\n      0x00\n      mstore\n      keccak256(0x00, 0x20)\n      swap1\n    tag_108:\n      dup2\n      sload\n      dup2\n      mstore\n      0x20\n      add\n      swap1\n      0x01\n      add\n      swap1\n      dup1\n      dup4\n      gt\n      tag_108\n      jumpi\n    tag_107:\n      pop\n      pop\n      pop\n      pop\n      pop\n      dup2\n      mstore\n      pop\n      pop\n      swap1\n      pop\n        /* \"contracts/AddressBook.sol\":2787:3008  function getContact(uint256 _id) public view returns (Contact memory) {... */\n      swap2\n      swap1\n      pop\n      jump\t// out\n        /* \"contracts/AddressBook.sol\":3136:3437  function getAllContacts() public view returns (Contact[] memory) {... */\n    tag_31:\n        /* \"contracts/AddressBook.sol\":3183:3199  Contact[] memory */\n      0x60\n        /* \"contracts/AddressBook.sol\":3212:3240  Contact[] memory allContacts */\n      0x00\n        /* \"contracts/AddressBook.sol\":3257:3267  contactIds */\n      0x02\n        /* \"contracts/AddressBook.sol\":3257:3274  contactIds.length */\n      dup1\n      sload\n      swap1\n      pop\n        /* \"contracts/AddressBook.sol\":3243:3275  new Contact[](contactIds.length) */\n      0xffffffffffffffff\n      dup2\n      gt\n      iszero\n      tag_110\n      jumpi\n      tag_111\n      tag_112\n      jump\t// in\n    tag_111:\n    tag_110:\n      mload(0x40)\n      swap1\n      dup1\n      dup3\n      mstore\n      dup1\n      0x20\n      mul\n      0x20\n      add\n      dup3\n      add\n      0x40\n      mstore\n      dup1\n      iszero\n      tag_113\n      jumpi\n      dup2\n      0x20\n      add\n    tag_114:\n      tag_115\n      tag_92\n      jump\t// in\n    tag_115:\n      dup2\n      mstore\n      0x20\n      add\n      swap1\n      0x01\n      swap1\n      sub\n      swap1\n      dup2\n      tag_114\n      jumpi\n      swap1\n      pop\n    tag_113:\n      pop\n        /* \"contracts/AddressBook.sol\":3212:3275  Contact[] memory allContacts = new Contact[](contactIds.length) */\n      swap1\n      pop\n        /* \"contracts/AddressBook.sol\":3291:3300  uint256 i */\n      0x00\n        /* \"contracts/AddressBook.sol\":3286:3401  for (uint256 i = 0; i < contactIds.length; i++) {... */\n    tag_116:\n        /* \"contracts/AddressBook.sol\":3310:3320  contactIds */\n      0x02\n        /* \"contracts/AddressBook.sol\":3310:3327  contactIds.length */\n      dup1\n      sload\n      swap1\n      pop\n        /* \"contracts/AddressBook.sol\":3306:3307  i */\n      dup2\n        /* \"contracts/AddressBook.sol\":3306:3327  i < contactIds.length */\n      lt\n        /* \"contracts/AddressBook.sol\":3286:3401  for (uint256 i = 0; i < contactIds.length; i++) {... */\n      iszero\n      tag_117\n      jumpi\n        /* \"contracts/AddressBook.sol\":3366:3374  contacts */\n      0x01\n        /* \"contracts/AddressBook.sol\":3366:3389  contacts[contactIds[i]] */\n      0x00\n        /* \"contracts/AddressBook.sol\":3375:3385  contactIds */\n      0x02\n        /* \"contracts/AddressBook.sol\":3386:3387  i */\n      dup4\n        /* \"contracts/AddressBook.sol\":3375:3388  contactIds[i] */\n      dup2\n      sload\n      dup2\n      lt\n      tag_119\n      jumpi\n      tag_120\n      tag_76\n      jump\t// in\n    tag_120:\n    tag_119:\n      swap1\n      0x00\n      mstore\n      keccak256(0x00, 0x20)\n      add\n      sload\n        /* \"contracts/AddressBook.sol\":3366:3389  contacts[contactIds[i]] */\n      dup2\n      mstore\n      0x20\n      add\n      swap1\n      dup2\n      mstore\n      0x20\n      add\n      0x00\n      keccak256\n        /* \"contracts/AddressBook.sol\":3349:3389  allContacts[i] = contacts[contactIds[i]] */\n      mload(0x40)\n      dup1\n      0x80\n      add\n      0x40\n      mstore\n      swap1\n      dup2\n      0x00\n      dup3\n      add\n      sload\n      dup2\n      mstore\n      0x20\n      add\n      0x01\n      dup3\n      add\n      dup1\n      sload\n      tag_122\n      swap1\n      tag_49\n      jump\t// in\n    tag_122:\n      dup1\n      0x1f\n      add\n      0x20\n      dup1\n      swap2\n      div\n      mul\n      0x20\n      add\n      mload(0x40)\n      swap1\n      dup2\n      add\n      0x40\n      mstore\n      dup1\n      swap3\n      swap2\n      swap1\n      dup2\n      dup2\n      mstore\n      0x20\n      add\n      dup3\n      dup1\n      sload\n      tag_123\n      swap1\n      tag_49\n      jump\t// in\n    tag_123:\n      dup1\n      iszero\n      tag_124\n      jumpi\n      dup1\n      0x1f\n      lt\n      tag_125\n      jumpi\n      0x0100\n      dup1\n      dup4\n      sload\n      div\n      mul\n      dup4\n      mstore\n      swap2\n      0x20\n      add\n      swap2\n      jump(tag_124)\n    tag_125:\n      dup3\n      add\n      swap2\n      swap1\n      0x00\n      mstore\n      keccak256(0x00, 0x20)\n      swap1\n    tag_126:\n      dup2\n      sload\n      dup2\n      mstore\n      swap1\n      0x01\n      add\n      swap1\n      0x20\n      add\n      dup1\n      dup4\n      gt\n      tag_126\n      jumpi\n      dup3\n      swap1\n      sub\n      0x1f\n      and\n      dup3\n      add\n      swap2\n    tag_124:\n      pop\n      pop\n      pop\n      pop\n      pop\n      dup2\n      mstore\n      0x20\n      add\n      0x02\n      dup3\n      add\n      dup1\n      sload\n      tag_127\n      swap1\n      tag_49\n      jump\t// in\n    tag_127:\n      dup1\n      0x1f\n      add\n      0x20\n      dup1\n      swap2\n      div\n      mul\n      0x20\n      add\n      mload(0x40)\n      swap1\n      dup2\n      add\n      0x40\n      mstore\n      dup1\n      swap3\n      swap2\n      swap1\n      dup2\n      dup2\n      mstore\n      0x20\n      add\n      dup3\n      dup1\n      sload\n      tag_128\n      swap1\n      tag_49\n      jump\t// in\n    tag_128:\n      dup1\n      iszero\n      tag_129\n      jumpi\n      dup1\n      0x1f\n      lt\n      tag_130\n      jumpi\n      0x0100\n      dup1\n      dup4\n      sload\n      div\n      mul\n      dup4\n      mstore\n      swap2\n      0x20\n      add\n      swap2\n      jump(tag_129)\n    tag_130:\n      dup3\n      add\n      swap2\n      swap1\n      0x00\n      mstore\n      keccak256(0x00, 0x20)\n      swap1\n    tag_131:\n      dup2\n      sload\n      dup2\n      mstore\n      swap1\n      0x01\n      add\n      swap1\n      0x20\n      add\n      dup1\n      dup4\n      gt\n      tag_131\n      jumpi\n      dup3\n      swap1\n      sub\n      0x1f\n      and\n      dup3\n      add\n      swap2\n    tag_129:\n      pop\n      pop\n      pop\n      pop\n      pop\n      dup2\n      mstore\n      0x20\n      add\n      0x03\n      dup3\n      add\n      dup1\n      sload\n      dup1\n      0x20\n      mul\n      0x20\n      add\n      mload(0x40)\n      swap1\n      dup2\n      add\n      0x40\n      mstore\n      dup1\n      swap3\n      swap2\n      swap1\n      dup2\n      dup2\n      mstore\n      0x20\n      add\n      dup3\n      dup1\n      sload\n      dup1\n      iszero\n      tag_132\n      jumpi\n      0x20\n      mul\n      dup3\n      add\n      swap2\n      swap1\n      0x00\n      mstore\n      keccak256(0x00, 0x20)\n      swap1\n    tag_133:\n      dup2\n      sload\n      dup2\n      mstore\n      0x20\n      add\n      swap1\n      0x01\n      add\n      swap1\n      dup1\n      dup4\n      gt\n      tag_133\n      jumpi\n    tag_132:\n      pop\n      pop\n      pop\n      pop\n      pop\n      dup2\n      mstore\n      pop\n      pop\n        /* \"contracts/AddressBook.sol\":3349:3360  allContacts */\n      dup3\n        /* \"contracts/AddressBook.sol\":3361:3362  i */\n      dup3\n        /* \"contracts/AddressBook.sol\":3349:3363  allContacts[i] */\n      dup2\n      mload\n      dup2\n      lt\n      tag_134\n      jumpi\n      tag_135\n      tag_76\n      jump\t// in\n    tag_135:\n    tag_134:\n      0x20\n      mul\n      0x20\n      add\n      add\n        /* \"contracts/AddressBook.sol\":3349:3389  allContacts[i] = contacts[contactIds[i]] */\n      dup2\n      swap1\n      mstore\n      pop\n        /* \"contracts/AddressBook.sol\":3329:3332  i++ */\n      dup1\n      dup1\n      0x01\n      add\n      swap2\n      pop\n      pop\n        /* \"contracts/AddressBook.sol\":3286:3401  for (uint256 i = 0; i < contactIds.length; i++) {... */\n      jump(tag_116)\n    tag_117:\n      pop\n        /* \"contracts/AddressBook.sol\":3418:3429  allContacts */\n      dup1\n        /* \"contracts/AddressBook.sol\":3411:3429  return allContacts */\n      swap2\n      pop\n      pop\n        /* \"contracts/AddressBook.sol\":3136:3437  function getAllContacts() public view returns (Contact[] memory) {... */\n      swap1\n      jump\t// out\n        /* \"https://github.com/OpenZeppelin/openzeppelin-contracts/blob/master/contracts/access/Ownable.sol\":2543:2758  function transferOwnership(address newOwner) public virtual onlyOwner {... */\n    tag_37:\n        /* \"https://github.com/OpenZeppelin/openzeppelin-contracts/blob/master/contracts/access/Ownable.sol\":1531:1544  _checkOwner() */\n      tag_137\n        /* \"https://github.com/OpenZeppelin/openzeppelin-contracts/blob/master/contracts/access/Ownable.sol\":1531:1542  _checkOwner */\n      tag_40\n        /* \"https://github.com/OpenZeppelin/openzeppelin-contracts/blob/master/contracts/access/Ownable.sol\":1531:1544  _checkOwner() */\n      jump\t// in\n    tag_137:\n        /* \"https://github.com/OpenZeppelin/openzeppelin-contracts/blob/master/contracts/access/Ownable.sol\":2647:2648  0 */\n      0x00\n        /* \"https://github.com/OpenZeppelin/openzeppelin-contracts/blob/master/contracts/access/Ownable.sol\":2627:2649  newOwner == address(0) */\n      0xffffffffffffffffffffffffffffffffffffffff\n      and\n        /* \"https://github.com/OpenZeppelin/openzeppelin-contracts/blob/master/contracts/access/Ownable.sol\":2627:2635  newOwner */\n      dup2\n        /* \"https://github.com/OpenZeppelin/openzeppelin-contracts/blob/master/contracts/access/Ownable.sol\":2627:2649  newOwner == address(0) */\n      0xffffffffffffffffffffffffffffffffffffffff\n      and\n      sub\n        /* \"https://github.com/OpenZeppelin/openzeppelin-contracts/blob/master/contracts/access/Ownable.sol\":2623:2714  if (newOwner == address(0)) {... */\n      tag_139\n      jumpi\n        /* \"https://github.com/OpenZeppelin/openzeppelin-contracts/blob/master/contracts/access/Ownable.sol\":2700:2701  0 */\n      0x00\n        /* \"https://github.com/OpenZeppelin/openzeppelin-contracts/blob/master/contracts/access/Ownable.sol\":2672:2703  OwnableInvalidOwner(address(0)) */\n      mload(0x40)\n      0x1e4fbdf700000000000000000000000000000000000000000000000000000000\n      dup2\n      mstore\n      0x04\n      add\n      tag_140\n      swap2\n      swap1\n      tag_16\n      jump\t// in\n    tag_140:\n      mload(0x40)\n      dup1\n      swap2\n      sub\n      swap1\n      revert\n        /* \"https://github.com/OpenZeppelin/openzeppelin-contracts/blob/master/contracts/access/Ownable.sol\":2623:2714  if (newOwner == address(0)) {... */\n    tag_139:\n        /* \"https://github.com/OpenZeppelin/openzeppelin-contracts/blob/master/contracts/access/Ownable.sol\":2723:2751  _transferOwnership(newOwner) */\n      tag_141\n        /* \"https://github.com/OpenZeppelin/openzeppelin-contracts/blob/master/contracts/access/Ownable.sol\":2742:2750  newOwner */\n      dup2\n        /* \"https://github.com/OpenZeppelin/openzeppelin-contracts/blob/master/contracts/access/Ownable.sol\":2723:2741  _transferOwnership */\n      tag_43\n        /* \"https://github.com/OpenZeppelin/openzeppelin-contracts/blob/master/contracts/access/Ownable.sol\":2723:2751  _transferOwnership(newOwner) */\n      jump\t// in\n    tag_141:\n        /* \"https://github.com/OpenZeppelin/openzeppelin-contracts/blob/master/contracts/access/Ownable.sol\":2543:2758  function transferOwnership(address newOwner) public virtual onlyOwner {... */\n      pop\n      jump\t// out\n        /* \"https://github.com/OpenZeppelin/openzeppelin-contracts/blob/master/contracts/access/Ownable.sol\":1796:1958  function _checkOwner() internal view virtual {... */\n    tag_40:\n        /* \"https://github.com/OpenZeppelin/openzeppelin-contracts/blob/master/contracts/access/Ownable.sol\":1866:1878  _msgSender() */\n      tag_143\n        /* \"https://github.com/OpenZeppelin/openzeppelin-contracts/blob/master/contracts/access/Ownable.sol\":1866:1876  _msgSender */\n      tag_144\n        /* \"https://github.com/OpenZeppelin/openzeppelin-contracts/blob/master/contracts/access/Ownable.sol\":1866:1878  _msgSender() */\n      jump\t// in\n    tag_143:\n        /* \"https://github.com/OpenZeppelin/openzeppelin-contracts/blob/master/contracts/access/Ownable.sol\":1855:1878  owner() != _msgSender() */\n      0xffffffffffffffffffffffffffffffffffffffff\n      and\n        /* \"https://github.com/OpenZeppelin/openzeppelin-contracts/blob/master/contracts/access/Ownable.sol\":1855:1862  owner() */\n      tag_145\n        /* \"https://github.com/OpenZeppelin/openzeppelin-contracts/blob/master/contracts/access/Ownable.sol\":1855:1860  owner */\n      tag_14\n        /* \"https://github.com/OpenZeppelin/openzeppelin-contracts/blob/master/contracts/access/Ownable.sol\":1855:1862  owner() */\n      jump\t// in\n    tag_145:\n        /* \"https://github.com/OpenZeppelin/openzeppelin-contracts/blob/master/contracts/access/Ownable.sol\":1855:1878  owner() != _msgSender() */\n      0xffffffffffffffffffffffffffffffffffffffff\n      and\n      eq\n        /* \"https://github.com/OpenZeppelin/openzeppelin-contracts/blob/master/contracts/access/Ownable.sol\":1851:1952  if (owner() != _msgSender()) {... */\n      tag_146\n      jumpi\n        /* \"https://github.com/OpenZeppelin/openzeppelin-contracts/blob/master/contracts/access/Ownable.sol\":1928:1940  _msgSender() */\n      tag_147\n        /* \"https://github.com/OpenZeppelin/openzeppelin-contracts/blob/master/contracts/access/Ownable.sol\":1928:1938  _msgSender */\n      tag_144\n        /* \"https://github.com/OpenZeppelin/openzeppelin-contracts/blob/master/contracts/access/Ownable.sol\":1928:1940  _msgSender() */\n      jump\t// in\n    tag_147:\n        /* \"https://github.com/OpenZeppelin/openzeppelin-contracts/blob/master/contracts/access/Ownable.sol\":1901:1941  OwnableUnauthorizedAccount(_msgSender()) */\n      mload(0x40)\n      0x118cdaa700000000000000000000000000000000000000000000000000000000\n      dup2\n      mstore\n      0x04\n      add\n      tag_148\n      swap2\n      swap1\n      tag_16\n      jump\t// in\n    tag_148:\n      mload(0x40)\n      dup1\n      swap2\n      sub\n      swap1\n      revert\n        /* \"https://github.com/OpenZeppelin/openzeppelin-contracts/blob/master/contracts/access/Ownable.sol\":1851:1952  if (owner() != _msgSender()) {... */\n    tag_146:\n        /* \"https://github.com/OpenZeppelin/openzeppelin-contracts/blob/master/contracts/access/Ownable.sol\":1796:1958  function _checkOwner() internal view virtual {... */\n      jump\t// out\n        /* \"https://github.com/OpenZeppelin/openzeppelin-contracts/blob/master/contracts/access/Ownable.sol\":2912:3099  function _transferOwnership(address newOwner) internal virtual {... */\n    tag_43:\n        /* \"https://github.com/OpenZeppelin/openzeppelin-contracts/blob/master/contracts/access/Ownable.sol\":2985:3001  address oldOwner */\n      0x00\n        /* \"https://github.com/OpenZeppelin/openzeppelin-contracts/blob/master/contracts/access/Ownable.sol\":3004:3010  _owner */\n      dup1\n      0x00\n      swap1\n      sload\n      swap1\n      0x0100\n      exp\n      swap1\n      div\n      0xffffffffffffffffffffffffffffffffffffffff\n      and\n        /* \"https://github.com/OpenZeppelin/openzeppelin-contracts/blob/master/contracts/access/Ownable.sol\":2985:3010  address oldOwner = _owner */\n      swap1\n      pop\n        /* \"https://github.com/OpenZeppelin/openzeppelin-contracts/blob/master/contracts/access/Ownable.sol\":3029:3037  newOwner */\n      dup2\n        /* \"https://github.com/OpenZeppelin/openzeppelin-contracts/blob/master/contracts/access/Ownable.sol\":3020:3026  _owner */\n      0x00\n      dup1\n        /* \"https://github.com/OpenZeppelin/openzeppelin-contracts/blob/master/contracts/access/Ownable.sol\":3020:3037  _owner = newOwner */\n      0x0100\n      exp\n      dup2\n      sload\n      dup2\n      0xffffffffffffffffffffffffffffffffffffffff\n      mul\n      not\n      and\n      swap1\n      dup4\n      0xffffffffffffffffffffffffffffffffffffffff\n      and\n      mul\n      or\n      swap1\n      sstore\n      pop\n        /* \"https://github.com/OpenZeppelin/openzeppelin-contracts/blob/master/contracts/access/Ownable.sol\":3083:3091  newOwner */\n      dup2\n        /* \"https://github.com/OpenZeppelin/openzeppelin-contracts/blob/master/contracts/access/Ownable.sol\":3052:3092  OwnershipTransferred(oldOwner, newOwner) */\n      0xffffffffffffffffffffffffffffffffffffffff\n      and\n        /* \"https://github.com/OpenZeppelin/openzeppelin-contracts/blob/master/contracts/access/Ownable.sol\":3073:3081  oldOwner */\n      dup2\n        /* \"https://github.com/OpenZeppelin/openzeppelin-contracts/blob/master/contracts/access/Ownable.sol\":3052:3092  OwnershipTransferred(oldOwner, newOwner) */\n      0xffffffffffffffffffffffffffffffffffffffff\n      and\n      0x8be0079c531659141344cd1fd0a4f28419497f9722a3daafe3b4186f6b6457e0\n      mload(0x40)\n      mload(0x40)\n      dup1\n      swap2\n      sub\n      swap1\n      log3\n        /* \"https://github.com/OpenZeppelin/openzeppelin-contracts/blob/master/contracts/access/Ownable.sol\":2975:3099  {... */\n      pop\n        /* \"https://github.com/OpenZeppelin/openzeppelin-contracts/blob/master/contracts/access/Ownable.sol\":2912:3099  function _transferOwnership(address newOwner) internal virtual {... */\n      pop\n      jump\t// out\n        /* \"https://github.com/OpenZeppelin/openzeppelin-contracts/blob/master/contracts/utils/Context.sol\":656:752  function _msgSender() internal view virtual returns (address) {... */\n    tag_144:\n        /* \"https://github.com/OpenZeppelin/openzeppelin-contracts/blob/master/contracts/utils/Context.sol\":709:716  address */\n      0x00\n        /* \"https://github.com/OpenZeppelin/openzeppelin-contracts/blob/master/contracts/utils/Context.sol\":735:745  msg.sender */\n      caller\n        /* \"https://github.com/OpenZeppelin/openzeppelin-contracts/blob/master/contracts/utils/Context.sol\":728:745  return msg.sender */\n      swap1\n      pop\n        /* \"https://github.com/OpenZeppelin/openzeppelin-contracts/blob/master/contracts/utils/Context.sol\":656:752  function _msgSender() internal view virtual returns (address) {... */\n      swap1\n      jump\t// out\n    tag_57:\n      dup3\n      dup1\n      sload\n      dup3\n      dup3\n      sstore\n      swap1\n      0x00\n      mstore\n      keccak256(0x00, 0x20)\n      swap1\n      dup2\n      add\n      swap3\n      dup3\n      iszero\n      tag_151\n      jumpi\n      swap2\n      0x20\n      mul\n      dup3\n      add\n    tag_152:\n      dup3\n      dup2\n      gt\n      iszero\n      tag_153\n      jumpi\n      dup3\n      mload\n      dup3\n      sstore\n      swap2\n      0x20\n      add\n      swap2\n      swap1\n      0x01\n      add\n      swap1\n      jump(tag_152)\n    tag_153:\n    tag_151:\n      pop\n      swap1\n      pop\n      tag_154\n      swap2\n      swap1\n      tag_155\n      jump\t// in\n    tag_154:\n      pop\n      swap1\n      jump\t// out\n    tag_67:\n      pop\n      dup1\n      sload\n      tag_156\n      swap1\n      tag_49\n      jump\t// in\n    tag_156:\n      0x00\n      dup3\n      sstore\n      dup1\n      0x1f\n      lt\n      tag_158\n      jumpi\n      pop\n      jump(tag_157)\n    tag_158:\n      0x1f\n      add\n      0x20\n      swap1\n      div\n      swap1\n      0x00\n      mstore\n      keccak256(0x00, 0x20)\n      swap1\n      dup2\n      add\n      swap1\n      tag_159\n      swap2\n      swap1\n      tag_155\n      jump\t// in\n    tag_159:\n    tag_157:\n      pop\n      jump\t// out\n    tag_70:\n      pop\n      dup1\n      sload\n      0x00\n      dup3\n      sstore\n      swap1\n      0x00\n      mstore\n      keccak256(0x00, 0x20)\n      swap1\n      dup2\n      add\n      swap1\n      tag_161\n      swap2\n      swap1\n      tag_155\n      jump\t// in\n    tag_161:\n      pop\n      jump\t// out\n    tag_92:\n      mload(0x40)\n      dup1\n      0x80\n      add\n      0x40\n      mstore\n      dup1\n      0x00\n      dup2\n      mstore\n      0x20\n      add\n      0x60\n      dup2\n      mstore\n      0x20\n      add\n      0x60\n      dup2\n      mstore\n      0x20\n      add\n      0x60\n      dup2\n      mstore\n      pop\n      swap1\n      jump\t// out\n    tag_155:\n    tag_162:\n      dup1\n      dup3\n      gt\n      iszero\n      tag_163\n      jumpi\n      0x00\n      dup2\n      0x00\n      swap1\n      sstore\n      pop\n      0x01\n      add\n      jump(tag_162)\n    tag_163:\n      pop\n      swap1\n      jump\t// out\n        /* \"#utility.yul\":7:133   */\n    tag_164:\n        /* \"#utility.yul\":44:51   */\n      0x00\n        /* \"#utility.yul\":84:126   */\n      0xffffffffffffffffffffffffffffffffffffffff\n        /* \"#utility.yul\":77:82   */\n      dup3\n        /* \"#utility.yul\":73:127   */\n      and\n        /* \"#utility.yul\":62:127   */\n      swap1\n      pop\n        /* \"#utility.yul\":7:133   */\n      swap2\n      swap1\n      pop\n      jump\t// out\n        /* \"#utility.yul\":139:235   */\n    tag_165:\n        /* \"#utility.yul\":176:183   */\n      0x00\n        /* \"#utility.yul\":205:229   */\n      tag_231\n        /* \"#utility.yul\":223:228   */\n      dup3\n        /* \"#utility.yul\":205:229   */\n      tag_164\n      jump\t// in\n    tag_231:\n        /* \"#utility.yul\":194:229   */\n      swap1\n      pop\n        /* \"#utility.yul\":139:235   */\n      swap2\n      swap1\n      pop\n      jump\t// out\n        /* \"#utility.yul\":241:359   */\n    tag_166:\n        /* \"#utility.yul\":328:352   */\n      tag_233\n        /* \"#utility.yul\":346:351   */\n      dup2\n        /* \"#utility.yul\":328:352   */\n      tag_165\n      jump\t// in\n    tag_233:\n        /* \"#utility.yul\":323:326   */\n      dup3\n        /* \"#utility.yul\":316:353   */\n      mstore\n        /* \"#utility.yul\":241:359   */\n      pop\n      pop\n      jump\t// out\n        /* \"#utility.yul\":365:587   */\n    tag_16:\n        /* \"#utility.yul\":458:462   */\n      0x00\n        /* \"#utility.yul\":496:498   */\n      0x20\n        /* \"#utility.yul\":485:494   */\n      dup3\n        /* \"#utility.yul\":481:499   */\n      add\n        /* \"#utility.yul\":473:499   */\n      swap1\n      pop\n        /* \"#utility.yul\":509:580   */\n      tag_235\n        /* \"#utility.yul\":577:578   */\n      0x00\n        /* \"#utility.yul\":566:575   */\n      dup4\n        /* \"#utility.yul\":562:579   */\n      add\n        /* \"#utility.yul\":553:559   */\n      dup5\n        /* \"#utility.yul\":509:580   */\n      tag_166\n      jump\t// in\n    tag_235:\n        /* \"#utility.yul\":365:587   */\n      swap3\n      swap2\n      pop\n      pop\n      jump\t// out\n        /* \"#utility.yul\":593:668   */\n    tag_167:\n        /* \"#utility.yul\":626:632   */\n      0x00\n        /* \"#utility.yul\":659:661   */\n      0x40\n        /* \"#utility.yul\":653:662   */\n      mload\n        /* \"#utility.yul\":643:662   */\n      swap1\n      pop\n        /* \"#utility.yul\":593:668   */\n      swap1\n      jump\t// out\n        /* \"#utility.yul\":674:791   */\n    tag_168:\n        /* \"#utility.yul\":783:784   */\n      0x00\n        /* \"#utility.yul\":780:781   */\n      dup1\n        /* \"#utility.yul\":773:785   */\n      revert\n        /* \"#utility.yul\":797:914   */\n    tag_169:\n        /* \"#utility.yul\":906:907   */\n      0x00\n        /* \"#utility.yul\":903:904   */\n      dup1\n        /* \"#utility.yul\":896:908   */\n      revert\n        /* \"#utility.yul\":920:997   */\n    tag_170:\n        /* \"#utility.yul\":957:964   */\n      0x00\n        /* \"#utility.yul\":986:991   */\n      dup2\n        /* \"#utility.yul\":975:991   */\n      swap1\n      pop\n        /* \"#utility.yul\":920:997   */\n      swap2\n      swap1\n      pop\n      jump\t// out\n        /* \"#utility.yul\":1003:1125   */\n    tag_171:\n        /* \"#utility.yul\":1076:1100   */\n      tag_241\n        /* \"#utility.yul\":1094:1099   */\n      dup2\n        /* \"#utility.yul\":1076:1100   */\n      tag_170\n      jump\t// in\n    tag_241:\n        /* \"#utility.yul\":1069:1074   */\n      dup2\n        /* \"#utility.yul\":1066:1101   */\n      eq\n        /* \"#utility.yul\":1056:1119   */\n      tag_242\n      jumpi\n        /* \"#utility.yul\":1115:1116   */\n      0x00\n        /* \"#utility.yul\":1112:1113   */\n      dup1\n        /* \"#utility.yul\":1105:1117   */\n      revert\n        /* \"#utility.yul\":1056:1119   */\n    tag_242:\n        /* \"#utility.yul\":1003:1125   */\n      pop\n      jump\t// out\n        /* \"#utility.yul\":1131:1270   */\n    tag_172:\n        /* \"#utility.yul\":1177:1182   */\n      0x00\n        /* \"#utility.yul\":1215:1221   */\n      dup2\n        /* \"#utility.yul\":1202:1222   */\n      calldataload\n        /* \"#utility.yul\":1193:1222   */\n      swap1\n      pop\n        /* \"#utility.yul\":1231:1264   */\n      tag_244\n        /* \"#utility.yul\":1258:1263   */\n      dup2\n        /* \"#utility.yul\":1231:1264   */\n      tag_171\n      jump\t// in\n    tag_244:\n        /* \"#utility.yul\":1131:1270   */\n      swap3\n      swap2\n      pop\n      pop\n      jump\t// out\n        /* \"#utility.yul\":1276:1393   */\n    tag_173:\n        /* \"#utility.yul\":1385:1386   */\n      0x00\n        /* \"#utility.yul\":1382:1383   */\n      dup1\n        /* \"#utility.yul\":1375:1387   */\n      revert\n        /* \"#utility.yul\":1399:1516   */\n    tag_174:\n        /* \"#utility.yul\":1508:1509   */\n      0x00\n        /* \"#utility.yul\":1505:1506   */\n      dup1\n        /* \"#utility.yul\":1498:1510   */\n      revert\n        /* \"#utility.yul\":1522:1624   */\n    tag_175:\n        /* \"#utility.yul\":1563:1569   */\n      0x00\n        /* \"#utility.yul\":1614:1616   */\n      0x1f\n        /* \"#utility.yul\":1610:1617   */\n      not\n        /* \"#utility.yul\":1605:1607   */\n      0x1f\n        /* \"#utility.yul\":1598:1603   */\n      dup4\n        /* \"#utility.yul\":1594:1608   */\n      add\n        /* \"#utility.yul\":1590:1618   */\n      and\n        /* \"#utility.yul\":1580:1618   */\n      swap1\n      pop\n        /* \"#utility.yul\":1522:1624   */\n      swap2\n      swap1\n      pop\n      jump\t// out\n        /* \"#utility.yul\":1630:1810   */\n    tag_112:\n        /* \"#utility.yul\":1678:1755   */\n      0x4e487b7100000000000000000000000000000000000000000000000000000000\n        /* \"#utility.yul\":1675:1676   */\n      0x00\n        /* \"#utility.yul\":1668:1756   */\n      mstore\n        /* \"#utility.yul\":1775:1779   */\n      0x41\n        /* \"#utility.yul\":1772:1773   */\n      0x04\n        /* \"#utility.yul\":1765:1780   */\n      mstore\n        /* \"#utility.yul\":1799:1803   */\n      0x24\n        /* \"#utility.yul\":1796:1797   */\n      0x00\n        /* \"#utility.yul\":1789:1804   */\n      revert\n        /* \"#utility.yul\":1816:2097   */\n    tag_176:\n        /* \"#utility.yul\":1899:1926   */\n      tag_250\n        /* \"#utility.yul\":1921:1925   */\n      dup3\n        /* \"#utility.yul\":1899:1926   */\n      tag_175\n      jump\t// in\n    tag_250:\n        /* \"#utility.yul\":1891:1897   */\n      dup2\n        /* \"#utility.yul\":1887:1927   */\n      add\n        /* \"#utility.yul\":2029:2035   */\n      dup2\n        /* \"#utility.yul\":2017:2027   */\n      dup2\n        /* \"#utility.yul\":2014:2036   */\n      lt\n        /* \"#utility.yul\":1993:2011   */\n      0xffffffffffffffff\n        /* \"#utility.yul\":1981:1991   */\n      dup3\n        /* \"#utility.yul\":1978:2012   */\n      gt\n        /* \"#utility.yul\":1975:2037   */\n      or\n        /* \"#utility.yul\":1972:2060   */\n      iszero\n      tag_251\n      jumpi\n        /* \"#utility.yul\":2040:2058   */\n      tag_252\n      tag_112\n      jump\t// in\n    tag_252:\n        /* \"#utility.yul\":1972:2060   */\n    tag_251:\n        /* \"#utility.yul\":2080:2090   */\n      dup1\n        /* \"#utility.yul\":2076:2078   */\n      0x40\n        /* \"#utility.yul\":2069:2091   */\n      mstore\n        /* \"#utility.yul\":1859:2097   */\n      pop\n        /* \"#utility.yul\":1816:2097   */\n      pop\n      pop\n      jump\t// out\n        /* \"#utility.yul\":2103:2232   */\n    tag_177:\n        /* \"#utility.yul\":2137:2143   */\n      0x00\n        /* \"#utility.yul\":2164:2184   */\n      tag_254\n      tag_167\n      jump\t// in\n    tag_254:\n        /* \"#utility.yul\":2154:2184   */\n      swap1\n      pop\n        /* \"#utility.yul\":2193:2226   */\n      tag_255\n        /* \"#utility.yul\":2221:2225   */\n      dup3\n        /* \"#utility.yul\":2213:2219   */\n      dup3\n        /* \"#utility.yul\":2193:2226   */\n      tag_176\n      jump\t// in\n    tag_255:\n        /* \"#utility.yul\":2103:2232   */\n      swap2\n      swap1\n      pop\n      jump\t// out\n        /* \"#utility.yul\":2238:2546   */\n    tag_178:\n        /* \"#utility.yul\":2300:2304   */\n      0x00\n        /* \"#utility.yul\":2390:2408   */\n      0xffffffffffffffff\n        /* \"#utility.yul\":2382:2388   */\n      dup3\n        /* \"#utility.yul\":2379:2409   */\n      gt\n        /* \"#utility.yul\":2376:2432   */\n      iszero\n      tag_257\n      jumpi\n        /* \"#utility.yul\":2412:2430   */\n      tag_258\n      tag_112\n      jump\t// in\n    tag_258:\n        /* \"#utility.yul\":2376:2432   */\n    tag_257:\n        /* \"#utility.yul\":2450:2479   */\n      tag_259\n        /* \"#utility.yul\":2472:2478   */\n      dup3\n        /* \"#utility.yul\":2450:2479   */\n      tag_175\n      jump\t// in\n    tag_259:\n        /* \"#utility.yul\":2442:2479   */\n      swap1\n      pop\n        /* \"#utility.yul\":2534:2538   */\n      0x20\n        /* \"#utility.yul\":2528:2532   */\n      dup2\n        /* \"#utility.yul\":2524:2539   */\n      add\n        /* \"#utility.yul\":2516:2539   */\n      swap1\n      pop\n        /* \"#utility.yul\":2238:2546   */\n      swap2\n      swap1\n      pop\n      jump\t// out\n        /* \"#utility.yul\":2552:2700   */\n    tag_179:\n        /* \"#utility.yul\":2650:2656   */\n      dup3\n        /* \"#utility.yul\":2645:2648   */\n      dup2\n        /* \"#utility.yul\":2640:2643   */\n      dup4\n        /* \"#utility.yul\":2627:2657   */\n      calldatacopy\n        /* \"#utility.yul\":2691:2692   */\n      0x00\n        /* \"#utility.yul\":2682:2688   */\n      dup4\n        /* \"#utility.yul\":2677:2680   */\n      dup4\n        /* \"#utility.yul\":2673:2689   */\n      add\n        /* \"#utility.yul\":2666:2693   */\n      mstore\n        /* \"#utility.yul\":2552:2700   */\n      pop\n      pop\n      pop\n      jump\t// out\n        /* \"#utility.yul\":2706:3131   */\n    tag_180:\n        /* \"#utility.yul\":2784:2789   */\n      0x00\n        /* \"#utility.yul\":2809:2875   */\n      tag_262\n        /* \"#utility.yul\":2825:2874   */\n      tag_263\n        /* \"#utility.yul\":2867:2873   */\n      dup5\n        /* \"#utility.yul\":2825:2874   */\n      tag_178\n      jump\t// in\n    tag_263:\n        /* \"#utility.yul\":2809:2875   */\n      tag_177\n      jump\t// in\n    tag_262:\n        /* \"#utility.yul\":2800:2875   */\n      swap1\n      pop\n        /* \"#utility.yul\":2898:2904   */\n      dup3\n        /* \"#utility.yul\":2891:2896   */\n      dup2\n        /* \"#utility.yul\":2884:2905   */\n      mstore\n        /* \"#utility.yul\":2936:2940   */\n      0x20\n        /* \"#utility.yul\":2929:2934   */\n      dup2\n        /* \"#utility.yul\":2925:2941   */\n      add\n        /* \"#utility.yul\":2974:2977   */\n      dup5\n        /* \"#utility.yul\":2965:2971   */\n      dup5\n        /* \"#utility.yul\":2960:2963   */\n      dup5\n        /* \"#utility.yul\":2956:2972   */\n      add\n        /* \"#utility.yul\":2953:2978   */\n      gt\n        /* \"#utility.yul\":2950:3062   */\n      iszero\n      tag_264\n      jumpi\n        /* \"#utility.yul\":2981:3060   */\n      tag_265\n      tag_174\n      jump\t// in\n    tag_265:\n        /* \"#utility.yul\":2950:3062   */\n    tag_264:\n        /* \"#utility.yul\":3071:3125   */\n      tag_266\n        /* \"#utility.yul\":3118:3124   */\n      dup5\n        /* \"#utility.yul\":3113:3116   */\n      dup3\n        /* \"#utility.yul\":3108:3111   */\n      dup6\n        /* \"#utility.yul\":3071:3125   */\n      tag_179\n      jump\t// in\n    tag_266:\n        /* \"#utility.yul\":2790:3131   */\n      pop\n        /* \"#utility.yul\":2706:3131   */\n      swap4\n      swap3\n      pop\n      pop\n      pop\n      jump\t// out\n        /* \"#utility.yul\":3151:3491   */\n    tag_181:\n        /* \"#utility.yul\":3207:3212   */\n      0x00\n        /* \"#utility.yul\":3256:3259   */\n      dup3\n        /* \"#utility.yul\":3249:3253   */\n      0x1f\n        /* \"#utility.yul\":3241:3247   */\n      dup4\n        /* \"#utility.yul\":3237:3254   */\n      add\n        /* \"#utility.yul\":3233:3260   */\n      slt\n        /* \"#utility.yul\":3223:3345   */\n      tag_268\n      jumpi\n        /* \"#utility.yul\":3264:3343   */\n      tag_269\n      tag_173\n      jump\t// in\n    tag_269:\n        /* \"#utility.yul\":3223:3345   */\n    tag_268:\n        /* \"#utility.yul\":3381:3387   */\n      dup2\n        /* \"#utility.yul\":3368:3388   */\n      calldataload\n        /* \"#utility.yul\":3406:3485   */\n      tag_270\n        /* \"#utility.yul\":3481:3484   */\n      dup5\n        /* \"#utility.yul\":3473:3479   */\n      dup3\n        /* \"#utility.yul\":3466:3470   */\n      0x20\n        /* \"#utility.yul\":3458:3464   */\n      dup7\n        /* \"#utility.yul\":3454:3471   */\n      add\n        /* \"#utility.yul\":3406:3485   */\n      tag_180\n      jump\t// in\n    tag_270:\n        /* \"#utility.yul\":3397:3485   */\n      swap2\n      pop\n        /* \"#utility.yul\":3213:3491   */\n      pop\n        /* \"#utility.yul\":3151:3491   */\n      swap3\n      swap2\n      pop\n      pop\n      jump\t// out\n        /* \"#utility.yul\":3497:3808   */\n    tag_182:\n        /* \"#utility.yul\":3574:3578   */\n      0x00\n        /* \"#utility.yul\":3664:3682   */\n      0xffffffffffffffff\n        /* \"#utility.yul\":3656:3662   */\n      dup3\n        /* \"#utility.yul\":3653:3683   */\n      gt\n        /* \"#utility.yul\":3650:3706   */\n      iszero\n      tag_272\n      jumpi\n        /* \"#utility.yul\":3686:3704   */\n      tag_273\n      tag_112\n      jump\t// in\n    tag_273:\n        /* \"#utility.yul\":3650:3706   */\n    tag_272:\n        /* \"#utility.yul\":3736:3740   */\n      0x20\n        /* \"#utility.yul\":3728:3734   */\n      dup3\n        /* \"#utility.yul\":3724:3741   */\n      mul\n        /* \"#utility.yul\":3716:3741   */\n      swap1\n      pop\n        /* \"#utility.yul\":3796:3800   */\n      0x20\n        /* \"#utility.yul\":3790:3794   */\n      dup2\n        /* \"#utility.yul\":3786:3801   */\n      add\n        /* \"#utility.yul\":3778:3801   */\n      swap1\n      pop\n        /* \"#utility.yul\":3497:3808   */\n      swap2\n      swap1\n      pop\n      jump\t// out\n        /* \"#utility.yul\":3814:3931   */\n    tag_183:\n        /* \"#utility.yul\":3923:3924   */\n      0x00\n        /* \"#utility.yul\":3920:3921   */\n      dup1\n        /* \"#utility.yul\":3913:3925   */\n      revert\n        /* \"#utility.yul\":3954:4664   */\n    tag_184:\n        /* \"#utility.yul\":4050:4055   */\n      0x00\n        /* \"#utility.yul\":4075:4156   */\n      tag_276\n        /* \"#utility.yul\":4091:4155   */\n      tag_277\n        /* \"#utility.yul\":4148:4154   */\n      dup5\n        /* \"#utility.yul\":4091:4155   */\n      tag_182\n      jump\t// in\n    tag_277:\n        /* \"#utility.yul\":4075:4156   */\n      tag_177\n      jump\t// in\n    tag_276:\n        /* \"#utility.yul\":4066:4156   */\n      swap1\n      pop\n        /* \"#utility.yul\":4176:4181   */\n      dup1\n        /* \"#utility.yul\":4205:4211   */\n      dup4\n        /* \"#utility.yul\":4198:4203   */\n      dup3\n        /* \"#utility.yul\":4191:4212   */\n      mstore\n        /* \"#utility.yul\":4239:4243   */\n      0x20\n        /* \"#utility.yul\":4232:4237   */\n      dup3\n        /* \"#utility.yul\":4228:4244   */\n      add\n        /* \"#utility.yul\":4221:4244   */\n      swap1\n      pop\n        /* \"#utility.yul\":4292:4296   */\n      0x20\n        /* \"#utility.yul\":4284:4290   */\n      dup5\n        /* \"#utility.yul\":4280:4297   */\n      mul\n        /* \"#utility.yul\":4272:4278   */\n      dup4\n        /* \"#utility.yul\":4268:4298   */\n      add\n        /* \"#utility.yul\":4321:4324   */\n      dup6\n        /* \"#utility.yul\":4313:4319   */\n      dup2\n        /* \"#utility.yul\":4310:4325   */\n      gt\n        /* \"#utility.yul\":4307:4429   */\n      iszero\n      tag_278\n      jumpi\n        /* \"#utility.yul\":4340:4419   */\n      tag_279\n      tag_183\n      jump\t// in\n    tag_279:\n        /* \"#utility.yul\":4307:4429   */\n    tag_278:\n        /* \"#utility.yul\":4455:4461   */\n      dup4\n        /* \"#utility.yul\":4438:4658   */\n    tag_280:\n        /* \"#utility.yul\":4472:4478   */\n      dup2\n        /* \"#utility.yul\":4467:4470   */\n      dup2\n        /* \"#utility.yul\":4464:4479   */\n      lt\n        /* \"#utility.yul\":4438:4658   */\n      iszero\n      tag_282\n      jumpi\n        /* \"#utility.yul\":4547:4550   */\n      dup1\n        /* \"#utility.yul\":4576:4613   */\n      tag_283\n        /* \"#utility.yul\":4609:4612   */\n      dup9\n        /* \"#utility.yul\":4597:4607   */\n      dup3\n        /* \"#utility.yul\":4576:4613   */\n      tag_172\n      jump\t// in\n    tag_283:\n        /* \"#utility.yul\":4571:4574   */\n      dup5\n        /* \"#utility.yul\":4564:4614   */\n      mstore\n        /* \"#utility.yul\":4643:4647   */\n      0x20\n        /* \"#utility.yul\":4638:4641   */\n      dup5\n        /* \"#utility.yul\":4634:4648   */\n      add\n        /* \"#utility.yul\":4627:4648   */\n      swap4\n      pop\n        /* \"#utility.yul\":4514:4658   */\n      pop\n        /* \"#utility.yul\":4498:4502   */\n      0x20\n        /* \"#utility.yul\":4493:4496   */\n      dup2\n        /* \"#utility.yul\":4489:4503   */\n      add\n        /* \"#utility.yul\":4482:4503   */\n      swap1\n      pop\n        /* \"#utility.yul\":4438:4658   */\n      jump(tag_280)\n    tag_282:\n        /* \"#utility.yul\":4442:4463   */\n      pop\n        /* \"#utility.yul\":4056:4664   */\n      pop\n      pop\n        /* \"#utility.yul\":3954:4664   */\n      swap4\n      swap3\n      pop\n      pop\n      pop\n      jump\t// out\n        /* \"#utility.yul\":4687:5057   */\n    tag_185:\n        /* \"#utility.yul\":4758:4763   */\n      0x00\n        /* \"#utility.yul\":4807:4810   */\n      dup3\n        /* \"#utility.yul\":4800:4804   */\n      0x1f\n        /* \"#utility.yul\":4792:4798   */\n      dup4\n        /* \"#utility.yul\":4788:4805   */\n      add\n        /* \"#utility.yul\":4784:4811   */\n      slt\n        /* \"#utility.yul\":4774:4896   */\n      tag_285\n      jumpi\n        /* \"#utility.yul\":4815:4894   */\n      tag_286\n      tag_173\n      jump\t// in\n    tag_286:\n        /* \"#utility.yul\":4774:4896   */\n    tag_285:\n        /* \"#utility.yul\":4932:4938   */\n      dup2\n        /* \"#utility.yul\":4919:4939   */\n      calldataload\n        /* \"#utility.yul\":4957:5051   */\n      tag_287\n        /* \"#utility.yul\":5047:5050   */\n      dup5\n        /* \"#utility.yul\":5039:5045   */\n      dup3\n        /* \"#utility.yul\":5032:5036   */\n      0x20\n        /* \"#utility.yul\":5024:5030   */\n      dup7\n        /* \"#utility.yul\":5020:5037   */\n      add\n        /* \"#utility.yul\":4957:5051   */\n      tag_184\n      jump\t// in\n    tag_287:\n        /* \"#utility.yul\":4948:5051   */\n      swap2\n      pop\n        /* \"#utility.yul\":4764:5057   */\n      pop\n        /* \"#utility.yul\":4687:5057   */\n      swap3\n      swap2\n      pop\n      pop\n      jump\t// out\n        /* \"#utility.yul\":5063:6398   */\n    tag_19:\n        /* \"#utility.yul\":5194:5200   */\n      0x00\n        /* \"#utility.yul\":5202:5208   */\n      dup1\n        /* \"#utility.yul\":5210:5216   */\n      0x00\n        /* \"#utility.yul\":5218:5224   */\n      dup1\n        /* \"#utility.yul\":5267:5270   */\n      0x80\n        /* \"#utility.yul\":5255:5264   */\n      dup6\n        /* \"#utility.yul\":5246:5253   */\n      dup8\n        /* \"#utility.yul\":5242:5265   */\n      sub\n        /* \"#utility.yul\":5238:5271   */\n      slt\n        /* \"#utility.yul\":5235:5355   */\n      iszero\n      tag_289\n      jumpi\n        /* \"#utility.yul\":5274:5353   */\n      tag_290\n      tag_168\n      jump\t// in\n    tag_290:\n        /* \"#utility.yul\":5235:5355   */\n    tag_289:\n        /* \"#utility.yul\":5394:5395   */\n      0x00\n        /* \"#utility.yul\":5419:5472   */\n      tag_291\n        /* \"#utility.yul\":5464:5471   */\n      dup8\n        /* \"#utility.yul\":5455:5461   */\n      dup3\n        /* \"#utility.yul\":5444:5453   */\n      dup9\n        /* \"#utility.yul\":5440:5462   */\n      add\n        /* \"#utility.yul\":5419:5472   */\n      tag_172\n      jump\t// in\n    tag_291:\n        /* \"#utility.yul\":5409:5472   */\n      swap5\n      pop\n        /* \"#utility.yul\":5365:5482   */\n      pop\n        /* \"#utility.yul\":5549:5551   */\n      0x20\n        /* \"#utility.yul\":5538:5547   */\n      dup6\n        /* \"#utility.yul\":5534:5552   */\n      add\n        /* \"#utility.yul\":5521:5553   */\n      calldataload\n        /* \"#utility.yul\":5580:5598   */\n      0xffffffffffffffff\n        /* \"#utility.yul\":5572:5578   */\n      dup2\n        /* \"#utility.yul\":5569:5599   */\n      gt\n        /* \"#utility.yul\":5566:5683   */\n      iszero\n      tag_292\n      jumpi\n        /* \"#utility.yul\":5602:5681   */\n      tag_293\n      tag_169\n      jump\t// in\n    tag_293:\n        /* \"#utility.yul\":5566:5683   */\n    tag_292:\n        /* \"#utility.yul\":5707:5770   */\n      tag_294\n        /* \"#utility.yul\":5762:5769   */\n      dup8\n        /* \"#utility.yul\":5753:5759   */\n      dup3\n        /* \"#utility.yul\":5742:5751   */\n      dup9\n        /* \"#utility.yul\":5738:5760   */\n      add\n        /* \"#utility.yul\":5707:5770   */\n      tag_181\n      jump\t// in\n    tag_294:\n        /* \"#utility.yul\":5697:5770   */\n      swap4\n      pop\n        /* \"#utility.yul\":5492:5780   */\n      pop\n        /* \"#utility.yul\":5847:5849   */\n      0x40\n        /* \"#utility.yul\":5836:5845   */\n      dup6\n        /* \"#utility.yul\":5832:5850   */\n      add\n        /* \"#utility.yul\":5819:5851   */\n      calldataload\n        /* \"#utility.yul\":5878:5896   */\n      0xffffffffffffffff\n        /* \"#utility.yul\":5870:5876   */\n      dup2\n        /* \"#utility.yul\":5867:5897   */\n      gt\n        /* \"#utility.yul\":5864:5981   */\n      iszero\n      tag_295\n      jumpi\n        /* \"#utility.yul\":5900:5979   */\n      tag_296\n      tag_169\n      jump\t// in\n    tag_296:\n        /* \"#utility.yul\":5864:5981   */\n    tag_295:\n        /* \"#utility.yul\":6005:6068   */\n      tag_297\n        /* \"#utility.yul\":6060:6067   */\n      dup8\n        /* \"#utility.yul\":6051:6057   */\n      dup3\n        /* \"#utility.yul\":6040:6049   */\n      dup9\n        /* \"#utility.yul\":6036:6058   */\n      add\n        /* \"#utility.yul\":6005:6068   */\n      tag_181\n      jump\t// in\n    tag_297:\n        /* \"#utility.yul\":5995:6068   */\n      swap3\n      pop\n        /* \"#utility.yul\":5790:6078   */\n      pop\n        /* \"#utility.yul\":6145:6147   */\n      0x60\n        /* \"#utility.yul\":6134:6143   */\n      dup6\n        /* \"#utility.yul\":6130:6148   */\n      add\n        /* \"#utility.yul\":6117:6149   */\n      calldataload\n        /* \"#utility.yul\":6176:6194   */\n      0xffffffffffffffff\n        /* \"#utility.yul\":6168:6174   */\n      dup2\n        /* \"#utility.yul\":6165:6195   */\n      gt\n        /* \"#utility.yul\":6162:6279   */\n      iszero\n      tag_298\n      jumpi\n        /* \"#utility.yul\":6198:6277   */\n      tag_299\n      tag_169\n      jump\t// in\n    tag_299:\n        /* \"#utility.yul\":6162:6279   */\n    tag_298:\n        /* \"#utility.yul\":6303:6381   */\n      tag_300\n        /* \"#utility.yul\":6373:6380   */\n      dup8\n        /* \"#utility.yul\":6364:6370   */\n      dup3\n        /* \"#utility.yul\":6353:6362   */\n      dup9\n        /* \"#utility.yul\":6349:6371   */\n      add\n        /* \"#utility.yul\":6303:6381   */\n      tag_185\n      jump\t// in\n    tag_300:\n        /* \"#utility.yul\":6293:6381   */\n      swap2\n      pop\n        /* \"#utility.yul\":6088:6391   */\n      pop\n        /* \"#utility.yul\":5063:6398   */\n      swap3\n      swap6\n      swap2\n      swap5\n      pop\n      swap3\n      pop\n      jump\t// out\n        /* \"#utility.yul\":6404:6733   */\n    tag_23:\n        /* \"#utility.yul\":6463:6469   */\n      0x00\n        /* \"#utility.yul\":6512:6514   */\n      0x20\n        /* \"#utility.yul\":6500:6509   */\n      dup3\n        /* \"#utility.yul\":6491:6498   */\n      dup5\n        /* \"#utility.yul\":6487:6510   */\n      sub\n        /* \"#utility.yul\":6483:6515   */\n      slt\n        /* \"#utility.yul\":6480:6599   */\n      iszero\n      tag_302\n      jumpi\n        /* \"#utility.yul\":6518:6597   */\n      tag_303\n      tag_168\n      jump\t// in\n    tag_303:\n        /* \"#utility.yul\":6480:6599   */\n    tag_302:\n        /* \"#utility.yul\":6638:6639   */\n      0x00\n        /* \"#utility.yul\":6663:6716   */\n      tag_304\n        /* \"#utility.yul\":6708:6715   */\n      dup5\n        /* \"#utility.yul\":6699:6705   */\n      dup3\n        /* \"#utility.yul\":6688:6697   */\n      dup6\n        /* \"#utility.yul\":6684:6706   */\n      add\n        /* \"#utility.yul\":6663:6716   */\n      tag_172\n      jump\t// in\n    tag_304:\n        /* \"#utility.yul\":6653:6716   */\n      swap2\n      pop\n        /* \"#utility.yul\":6609:6726   */\n      pop\n        /* \"#utility.yul\":6404:6733   */\n      swap3\n      swap2\n      pop\n      pop\n      jump\t// out\n        /* \"#utility.yul\":6739:6847   */\n    tag_186:\n        /* \"#utility.yul\":6816:6840   */\n      tag_306\n        /* \"#utility.yul\":6834:6839   */\n      dup2\n        /* \"#utility.yul\":6816:6840   */\n      tag_170\n      jump\t// in\n    tag_306:\n        /* \"#utility.yul\":6811:6814   */\n      dup3\n        /* \"#utility.yul\":6804:6841   */\n      mstore\n        /* \"#utility.yul\":6739:6847   */\n      pop\n      pop\n      jump\t// out\n        /* \"#utility.yul\":6853:6952   */\n    tag_187:\n        /* \"#utility.yul\":6905:6911   */\n      0x00\n        /* \"#utility.yul\":6939:6944   */\n      dup2\n        /* \"#utility.yul\":6933:6945   */\n      mload\n        /* \"#utility.yul\":6923:6945   */\n      swap1\n      pop\n        /* \"#utility.yul\":6853:6952   */\n      swap2\n      swap1\n      pop\n      jump\t// out\n        /* \"#utility.yul\":6958:7117   */\n    tag_188:\n        /* \"#utility.yul\":7032:7043   */\n      0x00\n        /* \"#utility.yul\":7066:7072   */\n      dup3\n        /* \"#utility.yul\":7061:7064   */\n      dup3\n        /* \"#utility.yul\":7054:7073   */\n      mstore\n        /* \"#utility.yul\":7106:7110   */\n      0x20\n        /* \"#utility.yul\":7101:7104   */\n      dup3\n        /* \"#utility.yul\":7097:7111   */\n      add\n        /* \"#utility.yul\":7082:7111   */\n      swap1\n      pop\n        /* \"#utility.yul\":6958:7117   */\n      swap3\n      swap2\n      pop\n      pop\n      jump\t// out\n        /* \"#utility.yul\":7123:7262   */\n    tag_189:\n        /* \"#utility.yul\":7212:7218   */\n      dup3\n        /* \"#utility.yul\":7207:7210   */\n      dup2\n        /* \"#utility.yul\":7202:7205   */\n      dup4\n        /* \"#utility.yul\":7196:7219   */\n      mcopy\n        /* \"#utility.yul\":7253:7254   */\n      0x00\n        /* \"#utility.yul\":7244:7250   */\n      dup4\n        /* \"#utility.yul\":7239:7242   */\n      dup4\n        /* \"#utility.yul\":7235:7251   */\n      add\n        /* \"#utility.yul\":7228:7255   */\n      mstore\n        /* \"#utility.yul\":7123:7262   */\n      pop\n      pop\n      pop\n      jump\t// out\n        /* \"#utility.yul\":7268:7625   */\n    tag_190:\n        /* \"#utility.yul\":7346:7349   */\n      0x00\n        /* \"#utility.yul\":7374:7413   */\n      tag_311\n        /* \"#utility.yul\":7407:7412   */\n      dup3\n        /* \"#utility.yul\":7374:7413   */\n      tag_187\n      jump\t// in\n    tag_311:\n        /* \"#utility.yul\":7429:7490   */\n      tag_312\n        /* \"#utility.yul\":7483:7489   */\n      dup2\n        /* \"#utility.yul\":7478:7481   */\n      dup6\n        /* \"#utility.yul\":7429:7490   */\n      tag_188\n      jump\t// in\n    tag_312:\n        /* \"#utility.yul\":7422:7490   */\n      swap4\n      pop\n        /* \"#utility.yul\":7499:7564   */\n      tag_313\n        /* \"#utility.yul\":7557:7563   */\n      dup2\n        /* \"#utility.yul\":7552:7555   */\n      dup6\n        /* \"#utility.yul\":7545:7549   */\n      0x20\n        /* \"#utility.yul\":7538:7543   */\n      dup7\n        /* \"#utility.yul\":7534:7550   */\n      add\n        /* \"#utility.yul\":7499:7564   */\n      tag_189\n      jump\t// in\n    tag_313:\n        /* \"#utility.yul\":7589:7618   */\n      tag_314\n        /* \"#utility.yul\":7611:7617   */\n      dup2\n        /* \"#utility.yul\":7589:7618   */\n      tag_175\n      jump\t// in\n    tag_314:\n        /* \"#utility.yul\":7584:7587   */\n      dup5\n        /* \"#utility.yul\":7580:7619   */\n      add\n        /* \"#utility.yul\":7573:7619   */\n      swap2\n      pop\n        /* \"#utility.yul\":7350:7625   */\n      pop\n        /* \"#utility.yul\":7268:7625   */\n      swap3\n      swap2\n      pop\n      pop\n      jump\t// out\n        /* \"#utility.yul\":7631:7745   */\n    tag_191:\n        /* \"#utility.yul\":7698:7704   */\n      0x00\n        /* \"#utility.yul\":7732:7737   */\n      dup2\n        /* \"#utility.yul\":7726:7738   */\n      mload\n        /* \"#utility.yul\":7716:7738   */\n      swap1\n      pop\n        /* \"#utility.yul\":7631:7745   */\n      swap2\n      swap1\n      pop\n      jump\t// out\n        /* \"#utility.yul\":7751:7925   */\n    tag_192:\n        /* \"#utility.yul\":7840:7851   */\n      0x00\n        /* \"#utility.yul\":7874:7880   */\n      dup3\n        /* \"#utility.yul\":7869:7872   */\n      dup3\n        /* \"#utility.yul\":7862:7881   */\n      mstore\n        /* \"#utility.yul\":7914:7918   */\n      0x20\n        /* \"#utility.yul\":7909:7912   */\n      dup3\n        /* \"#utility.yul\":7905:7919   */\n      add\n        /* \"#utility.yul\":7890:7919   */\n      swap1\n      pop\n        /* \"#utility.yul\":7751:7925   */\n      swap3\n      swap2\n      pop\n      pop\n      jump\t// out\n        /* \"#utility.yul\":7931:8063   */\n    tag_193:\n        /* \"#utility.yul\":7998:8002   */\n      0x00\n        /* \"#utility.yul\":8021:8024   */\n      dup2\n        /* \"#utility.yul\":8013:8024   */\n      swap1\n      pop\n        /* \"#utility.yul\":8051:8055   */\n      0x20\n        /* \"#utility.yul\":8046:8049   */\n      dup3\n        /* \"#utility.yul\":8042:8056   */\n      add\n        /* \"#utility.yul\":8034:8056   */\n      swap1\n      pop\n        /* \"#utility.yul\":7931:8063   */\n      swap2\n      swap1\n      pop\n      jump\t// out\n        /* \"#utility.yul\":8069:8248   */\n    tag_194:\n        /* \"#utility.yul\":8138:8148   */\n      0x00\n        /* \"#utility.yul\":8159:8205   */\n      tag_319\n        /* \"#utility.yul\":8201:8204   */\n      dup4\n        /* \"#utility.yul\":8193:8199   */\n      dup4\n        /* \"#utility.yul\":8159:8205   */\n      tag_186\n      jump\t// in\n    tag_319:\n        /* \"#utility.yul\":8237:8241   */\n      0x20\n        /* \"#utility.yul\":8232:8235   */\n      dup4\n        /* \"#utility.yul\":8228:8242   */\n      add\n        /* \"#utility.yul\":8214:8242   */\n      swap1\n      pop\n        /* \"#utility.yul\":8069:8248   */\n      swap3\n      swap2\n      pop\n      pop\n      jump\t// out\n        /* \"#utility.yul\":8254:8367   */\n    tag_195:\n        /* \"#utility.yul\":8324:8328   */\n      0x00\n        /* \"#utility.yul\":8356:8360   */\n      0x20\n        /* \"#utility.yul\":8351:8354   */\n      dup3\n        /* \"#utility.yul\":8347:8361   */\n      add\n        /* \"#utility.yul\":8339:8361   */\n      swap1\n      pop\n        /* \"#utility.yul\":8254:8367   */\n      swap2\n      swap1\n      pop\n      jump\t// out\n        /* \"#utility.yul\":8403:9115   */\n    tag_196:\n        /* \"#utility.yul\":8512:8515   */\n      0x00\n        /* \"#utility.yul\":8541:8595   */\n      tag_322\n        /* \"#utility.yul\":8589:8594   */\n      dup3\n        /* \"#utility.yul\":8541:8595   */\n      tag_191\n      jump\t// in\n    tag_322:\n        /* \"#utility.yul\":8611:8687   */\n      tag_323\n        /* \"#utility.yul\":8680:8686   */\n      dup2\n        /* \"#utility.yul\":8675:8678   */\n      dup6\n        /* \"#utility.yul\":8611:8687   */\n      tag_192\n      jump\t// in\n    tag_323:\n        /* \"#utility.yul\":8604:8687   */\n      swap4\n      pop\n        /* \"#utility.yul\":8711:8767   */\n      tag_324\n        /* \"#utility.yul\":8761:8766   */\n      dup4\n        /* \"#utility.yul\":8711:8767   */\n      tag_193\n      jump\t// in\n    tag_324:\n        /* \"#utility.yul\":8790:8797   */\n      dup1\n        /* \"#utility.yul\":8821:8822   */\n      0x00\n        /* \"#utility.yul\":8806:9090   */\n    tag_325:\n        /* \"#utility.yul\":8831:8837   */\n      dup4\n        /* \"#utility.yul\":8828:8829   */\n      dup2\n        /* \"#utility.yul\":8825:8838   */\n      lt\n        /* \"#utility.yul\":8806:9090   */\n      iszero\n      tag_327\n      jumpi\n        /* \"#utility.yul\":8907:8913   */\n      dup2\n        /* \"#utility.yul\":8901:8914   */\n      mload\n        /* \"#utility.yul\":8934:8997   */\n      tag_328\n        /* \"#utility.yul\":8993:8996   */\n      dup9\n        /* \"#utility.yul\":8978:8991   */\n      dup3\n        /* \"#utility.yul\":8934:8997   */\n      tag_194\n      jump\t// in\n    tag_328:\n        /* \"#utility.yul\":8927:8997   */\n      swap8\n      pop\n        /* \"#utility.yul\":9020:9080   */\n      tag_329\n        /* \"#utility.yul\":9073:9079   */\n      dup4\n        /* \"#utility.yul\":9020:9080   */\n      tag_195\n      jump\t// in\n    tag_329:\n        /* \"#utility.yul\":9010:9080   */\n      swap3\n      pop\n        /* \"#utility.yul\":8866:9090   */\n      pop\n        /* \"#utility.yul\":8853:8854   */\n      0x01\n        /* \"#utility.yul\":8850:8851   */\n      dup2\n        /* \"#utility.yul\":8846:8855   */\n      add\n        /* \"#utility.yul\":8841:8855   */\n      swap1\n      pop\n        /* \"#utility.yul\":8806:9090   */\n      jump(tag_325)\n    tag_327:\n        /* \"#utility.yul\":8810:8824   */\n      pop\n        /* \"#utility.yul\":9106:9109   */\n      dup6\n        /* \"#utility.yul\":9099:9109   */\n      swap4\n      pop\n        /* \"#utility.yul\":8517:9115   */\n      pop\n      pop\n      pop\n        /* \"#utility.yul\":8403:9115   */\n      swap3\n      swap2\n      pop\n      pop\n      jump\t// out\n        /* \"#utility.yul\":9185:10322   */\n    tag_197:\n        /* \"#utility.yul\":9300:9303   */\n      0x00\n        /* \"#utility.yul\":9336:9340   */\n      0x80\n        /* \"#utility.yul\":9331:9334   */\n      dup4\n        /* \"#utility.yul\":9327:9341   */\n      add\n        /* \"#utility.yul\":9421:9425   */\n      0x00\n        /* \"#utility.yul\":9414:9419   */\n      dup4\n        /* \"#utility.yul\":9410:9426   */\n      add\n        /* \"#utility.yul\":9404:9427   */\n      mload\n        /* \"#utility.yul\":9440:9503   */\n      tag_331\n        /* \"#utility.yul\":9497:9501   */\n      0x00\n        /* \"#utility.yul\":9492:9495   */\n      dup7\n        /* \"#utility.yul\":9488:9502   */\n      add\n        /* \"#utility.yul\":9474:9486   */\n      dup3\n        /* \"#utility.yul\":9440:9503   */\n      tag_186\n      jump\t// in\n    tag_331:\n        /* \"#utility.yul\":9351:9513   */\n      pop\n        /* \"#utility.yul\":9600:9604   */\n      0x20\n        /* \"#utility.yul\":9593:9598   */\n      dup4\n        /* \"#utility.yul\":9589:9605   */\n      add\n        /* \"#utility.yul\":9583:9606   */\n      mload\n        /* \"#utility.yul\":9653:9656   */\n      dup5\n        /* \"#utility.yul\":9647:9651   */\n      dup3\n        /* \"#utility.yul\":9643:9657   */\n      sub\n        /* \"#utility.yul\":9636:9640   */\n      0x20\n        /* \"#utility.yul\":9631:9634   */\n      dup7\n        /* \"#utility.yul\":9627:9641   */\n      add\n        /* \"#utility.yul\":9620:9658   */\n      mstore\n        /* \"#utility.yul\":9679:9752   */\n      tag_332\n        /* \"#utility.yul\":9747:9751   */\n      dup3\n        /* \"#utility.yul\":9733:9745   */\n      dup3\n        /* \"#utility.yul\":9679:9752   */\n      tag_190\n      jump\t// in\n    tag_332:\n        /* \"#utility.yul\":9671:9752   */\n      swap2\n      pop\n        /* \"#utility.yul\":9523:9763   */\n      pop\n        /* \"#utility.yul\":9849:9853   */\n      0x40\n        /* \"#utility.yul\":9842:9847   */\n      dup4\n        /* \"#utility.yul\":9838:9854   */\n      add\n        /* \"#utility.yul\":9832:9855   */\n      mload\n        /* \"#utility.yul\":9902:9905   */\n      dup5\n        /* \"#utility.yul\":9896:9900   */\n      dup3\n        /* \"#utility.yul\":9892:9906   */\n      sub\n        /* \"#utility.yul\":9885:9889   */\n      0x40\n        /* \"#utility.yul\":9880:9883   */\n      dup7\n        /* \"#utility.yul\":9876:9890   */\n      add\n        /* \"#utility.yul\":9869:9907   */\n      mstore\n        /* \"#utility.yul\":9928:10001   */\n      tag_333\n        /* \"#utility.yul\":9996:10000   */\n      dup3\n        /* \"#utility.yul\":9982:9994   */\n      dup3\n        /* \"#utility.yul\":9928:10001   */\n      tag_190\n      jump\t// in\n    tag_333:\n        /* \"#utility.yul\":9920:10001   */\n      swap2\n      pop\n        /* \"#utility.yul\":9773:10012   */\n      pop\n        /* \"#utility.yul\":10102:10106   */\n      0x60\n        /* \"#utility.yul\":10095:10100   */\n      dup4\n        /* \"#utility.yul\":10091:10107   */\n      add\n        /* \"#utility.yul\":10085:10108   */\n      mload\n        /* \"#utility.yul\":10155:10158   */\n      dup5\n        /* \"#utility.yul\":10149:10153   */\n      dup3\n        /* \"#utility.yul\":10145:10159   */\n      sub\n        /* \"#utility.yul\":10138:10142   */\n      0x60\n        /* \"#utility.yul\":10133:10136   */\n      dup7\n        /* \"#utility.yul\":10129:10143   */\n      add\n        /* \"#utility.yul\":10122:10160   */\n      mstore\n        /* \"#utility.yul\":10181:10284   */\n      tag_334\n        /* \"#utility.yul\":10279:10283   */\n      dup3\n        /* \"#utility.yul\":10265:10277   */\n      dup3\n        /* \"#utility.yul\":10181:10284   */\n      tag_196\n      jump\t// in\n    tag_334:\n        /* \"#utility.yul\":10173:10284   */\n      swap2\n      pop\n        /* \"#utility.yul\":10022:10295   */\n      pop\n        /* \"#utility.yul\":10312:10316   */\n      dup1\n        /* \"#utility.yul\":10305:10316   */\n      swap2\n      pop\n        /* \"#utility.yul\":9305:10322   */\n      pop\n        /* \"#utility.yul\":9185:10322   */\n      swap3\n      swap2\n      pop\n      pop\n      jump\t// out\n        /* \"#utility.yul\":10328:10693   */\n    tag_29:\n        /* \"#utility.yul\":10467:10471   */\n      0x00\n        /* \"#utility.yul\":10505:10507   */\n      0x20\n        /* \"#utility.yul\":10494:10503   */\n      dup3\n        /* \"#utility.yul\":10490:10508   */\n      add\n        /* \"#utility.yul\":10482:10508   */\n      swap1\n      pop\n        /* \"#utility.yul\":10554:10563   */\n      dup2\n        /* \"#utility.yul\":10548:10552   */\n      dup2\n        /* \"#utility.yul\":10544:10564   */\n      sub\n        /* \"#utility.yul\":10540:10541   */\n      0x00\n        /* \"#utility.yul\":10529:10538   */\n      dup4\n        /* \"#utility.yul\":10525:10542   */\n      add\n        /* \"#utility.yul\":10518:10565   */\n      mstore\n        /* \"#utility.yul\":10582:10686   */\n      tag_336\n        /* \"#utility.yul\":10681:10685   */\n      dup2\n        /* \"#utility.yul\":10672:10678   */\n      dup5\n        /* \"#utility.yul\":10582:10686   */\n      tag_197\n      jump\t// in\n    tag_336:\n        /* \"#utility.yul\":10574:10686   */\n      swap1\n      pop\n        /* \"#utility.yul\":10328:10693   */\n      swap3\n      swap2\n      pop\n      pop\n      jump\t// out\n        /* \"#utility.yul\":10699:10836   */\n    tag_198:\n        /* \"#utility.yul\":10789:10795   */\n      0x00\n        /* \"#utility.yul\":10823:10828   */\n      dup2\n        /* \"#utility.yul\":10817:10829   */\n      mload\n        /* \"#utility.yul\":10807:10829   */\n      swap1\n      pop\n        /* \"#utility.yul\":10699:10836   */\n      swap2\n      swap1\n      pop\n      jump\t// out\n        /* \"#utility.yul\":10842:11049   */\n    tag_199:\n        /* \"#utility.yul\":10964:10975   */\n      0x00\n        /* \"#utility.yul\":10998:11004   */\n      dup3\n        /* \"#utility.yul\":10993:10996   */\n      dup3\n        /* \"#utility.yul\":10986:11005   */\n      mstore\n        /* \"#utility.yul\":11038:11042   */\n      0x20\n        /* \"#utility.yul\":11033:11036   */\n      dup3\n        /* \"#utility.yul\":11029:11043   */\n      add\n        /* \"#utility.yul\":11014:11043   */\n      swap1\n      pop\n        /* \"#utility.yul\":10842:11049   */\n      swap3\n      swap2\n      pop\n      pop\n      jump\t// out\n        /* \"#utility.yul\":11055:11210   */\n    tag_200:\n        /* \"#utility.yul\":11145:11149   */\n      0x00\n        /* \"#utility.yul\":11168:11171   */\n      dup2\n        /* \"#utility.yul\":11160:11171   */\n      swap1\n      pop\n        /* \"#utility.yul\":11198:11202   */\n      0x20\n        /* \"#utility.yul\":11193:11196   */\n      dup3\n        /* \"#utility.yul\":11189:11203   */\n      add\n        /* \"#utility.yul\":11181:11203   */\n      swap1\n      pop\n        /* \"#utility.yul\":11055:11210   */\n      swap2\n      swap1\n      pop\n      jump\t// out\n        /* \"#utility.yul\":11280:12407   */\n    tag_201:\n        /* \"#utility.yul\":11385:11388   */\n      0x00\n        /* \"#utility.yul\":11421:11425   */\n      0x80\n        /* \"#utility.yul\":11416:11419   */\n      dup4\n        /* \"#utility.yul\":11412:11426   */\n      add\n        /* \"#utility.yul\":11506:11510   */\n      0x00\n        /* \"#utility.yul\":11499:11504   */\n      dup4\n        /* \"#utility.yul\":11495:11511   */\n      add\n        /* \"#utility.yul\":11489:11512   */\n      mload\n        /* \"#utility.yul\":11525:11588   */\n      tag_341\n        /* \"#utility.yul\":11582:11586   */\n      0x00\n        /* \"#utility.yul\":11577:11580   */\n      dup7\n        /* \"#utility.yul\":11573:11587   */\n      add\n        /* \"#utility.yul\":11559:11571   */\n      dup3\n        /* \"#utility.yul\":11525:11588   */\n      tag_186\n      jump\t// in\n    tag_341:\n        /* \"#utility.yul\":11436:11598   */\n      pop\n        /* \"#utility.yul\":11685:11689   */\n      0x20\n        /* \"#utility.yul\":11678:11683   */\n      dup4\n        /* \"#utility.yul\":11674:11690   */\n      add\n        /* \"#utility.yul\":11668:11691   */\n      mload\n        /* \"#utility.yul\":11738:11741   */\n      dup5\n        /* \"#utility.yul\":11732:11736   */\n      dup3\n        /* \"#utility.yul\":11728:11742   */\n      sub\n        /* \"#utility.yul\":11721:11725   */\n      0x20\n        /* \"#utility.yul\":11716:11719   */\n      dup7\n        /* \"#utility.yul\":11712:11726   */\n      add\n        /* \"#utility.yul\":11705:11743   */\n      mstore\n        /* \"#utility.yul\":11764:11837   */\n      tag_342\n        /* \"#utility.yul\":11832:11836   */\n      dup3\n        /* \"#utility.yul\":11818:11830   */\n      dup3\n        /* \"#utility.yul\":11764:11837   */\n      tag_190\n      jump\t// in\n    tag_342:\n        /* \"#utility.yul\":11756:11837   */\n      swap2\n      pop\n        /* \"#utility.yul\":11608:11848   */\n      pop\n        /* \"#utility.yul\":11934:11938   */\n      0x40\n        /* \"#utility.yul\":11927:11932   */\n      dup4\n        /* \"#utility.yul\":11923:11939   */\n      add\n        /* \"#utility.yul\":11917:11940   */\n      mload\n        /* \"#utility.yul\":11987:11990   */\n      dup5\n        /* \"#utility.yul\":11981:11985   */\n      dup3\n        /* \"#utility.yul\":11977:11991   */\n      sub\n        /* \"#utility.yul\":11970:11974   */\n      0x40\n        /* \"#utility.yul\":11965:11968   */\n      dup7\n        /* \"#utility.yul\":11961:11975   */\n      add\n        /* \"#utility.yul\":11954:11992   */\n      mstore\n        /* \"#utility.yul\":12013:12086   */\n      tag_343\n        /* \"#utility.yul\":12081:12085   */\n      dup3\n        /* \"#utility.yul\":12067:12079   */\n      dup3\n        /* \"#utility.yul\":12013:12086   */\n      tag_190\n      jump\t// in\n    tag_343:\n        /* \"#utility.yul\":12005:12086   */\n      swap2\n      pop\n        /* \"#utility.yul\":11858:12097   */\n      pop\n        /* \"#utility.yul\":12187:12191   */\n      0x60\n        /* \"#utility.yul\":12180:12185   */\n      dup4\n        /* \"#utility.yul\":12176:12192   */\n      add\n        /* \"#utility.yul\":12170:12193   */\n      mload\n        /* \"#utility.yul\":12240:12243   */\n      dup5\n        /* \"#utility.yul\":12234:12238   */\n      dup3\n        /* \"#utility.yul\":12230:12244   */\n      sub\n        /* \"#utility.yul\":12223:12227   */\n      0x60\n        /* \"#utility.yul\":12218:12221   */\n      dup7\n        /* \"#utility.yul\":12214:12228   */\n      add\n        /* \"#utility.yul\":12207:12245   */\n      mstore\n        /* \"#utility.yul\":12266:12369   */\n      tag_344\n        /* \"#utility.yul\":12364:12368   */\n      dup3\n        /* \"#utility.yul\":12350:12362   */\n      dup3\n        /* \"#utility.yul\":12266:12369   */\n      tag_196\n      jump\t// in\n    tag_344:\n        /* \"#utility.yul\":12258:12369   */\n      swap2\n      pop\n        /* \"#utility.yul\":12107:12380   */\n      pop\n        /* \"#utility.yul\":12397:12401   */\n      dup1\n        /* \"#utility.yul\":12390:12401   */\n      swap2\n      pop\n        /* \"#utility.yul\":11390:12407   */\n      pop\n        /* \"#utility.yul\":11280:12407   */\n      swap3\n      swap2\n      pop\n      pop\n      jump\t// out\n        /* \"#utility.yul\":12413:12661   */\n    tag_202:\n        /* \"#utility.yul\":12528:12538   */\n      0x00\n        /* \"#utility.yul\":12563:12655   */\n      tag_346\n        /* \"#utility.yul\":12651:12654   */\n      dup4\n        /* \"#utility.yul\":12643:12649   */\n      dup4\n        /* \"#utility.yul\":12563:12655   */\n      tag_201\n      jump\t// in\n    tag_346:\n        /* \"#utility.yul\":12549:12655   */\n      swap1\n      pop\n        /* \"#utility.yul\":12413:12661   */\n      swap3\n      swap2\n      pop\n      pop\n      jump\t// out\n        /* \"#utility.yul\":12667:12803   */\n    tag_203:\n        /* \"#utility.yul\":12760:12764   */\n      0x00\n        /* \"#utility.yul\":12792:12796   */\n      0x20\n        /* \"#utility.yul\":12787:12790   */\n      dup3\n        /* \"#utility.yul\":12783:12797   */\n      add\n        /* \"#utility.yul\":12775:12797   */\n      swap1\n      pop\n        /* \"#utility.yul\":12667:12803   */\n      swap2\n      swap1\n      pop\n      jump\t// out\n        /* \"#utility.yul\":12877:13972   */\n    tag_204:\n        /* \"#utility.yul\":13042:13045   */\n      0x00\n        /* \"#utility.yul\":13071:13148   */\n      tag_349\n        /* \"#utility.yul\":13142:13147   */\n      dup3\n        /* \"#utility.yul\":13071:13148   */\n      tag_198\n      jump\t// in\n    tag_349:\n        /* \"#utility.yul\":13164:13273   */\n      tag_350\n        /* \"#utility.yul\":13266:13272   */\n      dup2\n        /* \"#utility.yul\":13261:13264   */\n      dup6\n        /* \"#utility.yul\":13164:13273   */\n      tag_199\n      jump\t// in\n    tag_350:\n        /* \"#utility.yul\":13157:13273   */\n      swap4\n      pop\n        /* \"#utility.yul\":13299:13302   */\n      dup4\n        /* \"#utility.yul\":13344:13348   */\n      0x20\n        /* \"#utility.yul\":13336:13342   */\n      dup3\n        /* \"#utility.yul\":13332:13349   */\n      mul\n        /* \"#utility.yul\":13327:13330   */\n      dup6\n        /* \"#utility.yul\":13323:13350   */\n      add\n        /* \"#utility.yul\":13374:13453   */\n      tag_351\n        /* \"#utility.yul\":13447:13452   */\n      dup6\n        /* \"#utility.yul\":13374:13453   */\n      tag_200\n      jump\t// in\n    tag_351:\n        /* \"#utility.yul\":13476:13483   */\n      dup1\n        /* \"#utility.yul\":13507:13508   */\n      0x00\n        /* \"#utility.yul\":13492:13927   */\n    tag_352:\n        /* \"#utility.yul\":13517:13523   */\n      dup6\n        /* \"#utility.yul\":13514:13515   */\n      dup2\n        /* \"#utility.yul\":13511:13524   */\n      lt\n        /* \"#utility.yul\":13492:13927   */\n      iszero\n      tag_354\n      jumpi\n        /* \"#utility.yul\":13588:13597   */\n      dup5\n        /* \"#utility.yul\":13582:13586   */\n      dup5\n        /* \"#utility.yul\":13578:13598   */\n      sub\n        /* \"#utility.yul\":13573:13576   */\n      dup10\n        /* \"#utility.yul\":13566:13599   */\n      mstore\n        /* \"#utility.yul\":13639:13645   */\n      dup2\n        /* \"#utility.yul\":13633:13646   */\n      mload\n        /* \"#utility.yul\":13667:13777   */\n      tag_355\n        /* \"#utility.yul\":13772:13776   */\n      dup6\n        /* \"#utility.yul\":13757:13770   */\n      dup3\n        /* \"#utility.yul\":13667:13777   */\n      tag_202\n      jump\t// in\n    tag_355:\n        /* \"#utility.yul\":13659:13777   */\n      swap5\n      pop\n        /* \"#utility.yul\":13800:13883   */\n      tag_356\n        /* \"#utility.yul\":13876:13882   */\n      dup4\n        /* \"#utility.yul\":13800:13883   */\n      tag_203\n      jump\t// in\n    tag_356:\n        /* \"#utility.yul\":13790:13883   */\n      swap3\n      pop\n        /* \"#utility.yul\":13912:13916   */\n      0x20\n        /* \"#utility.yul\":13907:13910   */\n      dup11\n        /* \"#utility.yul\":13903:13917   */\n      add\n        /* \"#utility.yul\":13896:13917   */\n      swap10\n      pop\n        /* \"#utility.yul\":13552:13927   */\n      pop\n        /* \"#utility.yul\":13539:13540   */\n      0x01\n        /* \"#utility.yul\":13536:13537   */\n      dup2\n        /* \"#utility.yul\":13532:13541   */\n      add\n        /* \"#utility.yul\":13527:13541   */\n      swap1\n      pop\n        /* \"#utility.yul\":13492:13927   */\n      jump(tag_352)\n    tag_354:\n        /* \"#utility.yul\":13496:13510   */\n      pop\n        /* \"#utility.yul\":13943:13947   */\n      dup3\n        /* \"#utility.yul\":13936:13947   */\n      swap8\n      pop\n        /* \"#utility.yul\":13963:13966   */\n      dup8\n        /* \"#utility.yul\":13956:13966   */\n      swap6\n      pop\n        /* \"#utility.yul\":13047:13972   */\n      pop\n      pop\n      pop\n      pop\n      pop\n        /* \"#utility.yul\":12877:13972   */\n      swap3\n      swap2\n      pop\n      pop\n      jump\t// out\n        /* \"#utility.yul\":13978:14443   */\n    tag_33:\n        /* \"#utility.yul\":14167:14171   */\n      0x00\n        /* \"#utility.yul\":14205:14207   */\n      0x20\n        /* \"#utility.yul\":14194:14203   */\n      dup3\n        /* \"#utility.yul\":14190:14208   */\n      add\n        /* \"#utility.yul\":14182:14208   */\n      swap1\n      pop\n        /* \"#utility.yul\":14254:14263   */\n      dup2\n        /* \"#utility.yul\":14248:14252   */\n      dup2\n        /* \"#utility.yul\":14244:14264   */\n      sub\n        /* \"#utility.yul\":14240:14241   */\n      0x00\n        /* \"#utility.yul\":14229:14238   */\n      dup4\n        /* \"#utility.yul\":14225:14242   */\n      add\n        /* \"#utility.yul\":14218:14265   */\n      mstore\n        /* \"#utility.yul\":14282:14436   */\n      tag_358\n        /* \"#utility.yul\":14431:14435   */\n      dup2\n        /* \"#utility.yul\":14422:14428   */\n      dup5\n        /* \"#utility.yul\":14282:14436   */\n      tag_204\n      jump\t// in\n    tag_358:\n        /* \"#utility.yul\":14274:14436   */\n      swap1\n      pop\n        /* \"#utility.yul\":13978:14443   */\n      swap3\n      swap2\n      pop\n      pop\n      jump\t// out\n        /* \"#utility.yul\":14449:14571   */\n    tag_205:\n        /* \"#utility.yul\":14522:14546   */\n      tag_360\n        /* \"#utility.yul\":14540:14545   */\n      dup2\n        /* \"#utility.yul\":14522:14546   */\n      tag_165\n      jump\t// in\n    tag_360:\n        /* \"#utility.yul\":14515:14520   */\n      dup2\n        /* \"#utility.yul\":14512:14547   */\n      eq\n        /* \"#utility.yul\":14502:14565   */\n      tag_361\n      jumpi\n        /* \"#utility.yul\":14561:14562   */\n      0x00\n        /* \"#utility.yul\":14558:14559   */\n      dup1\n        /* \"#utility.yul\":14551:14563   */\n      revert\n        /* \"#utility.yul\":14502:14565   */\n    tag_361:\n        /* \"#utility.yul\":14449:14571   */\n      pop\n      jump\t// out\n        /* \"#utility.yul\":14577:14716   */\n    tag_206:\n        /* \"#utility.yul\":14623:14628   */\n      0x00\n        /* \"#utility.yul\":14661:14667   */\n      dup2\n        /* \"#utility.yul\":14648:14668   */\n      calldataload\n        /* \"#utility.yul\":14639:14668   */\n      swap1\n      pop\n        /* \"#utility.yul\":14677:14710   */\n      tag_363\n        /* \"#utility.yul\":14704:14709   */\n      dup2\n        /* \"#utility.yul\":14677:14710   */\n      tag_205\n      jump\t// in\n    tag_363:\n        /* \"#utility.yul\":14577:14716   */\n      swap3\n      swap2\n      pop\n      pop\n      jump\t// out\n        /* \"#utility.yul\":14722:15051   */\n    tag_36:\n        /* \"#utility.yul\":14781:14787   */\n      0x00\n        /* \"#utility.yul\":14830:14832   */\n      0x20\n        /* \"#utility.yul\":14818:14827   */\n      dup3\n        /* \"#utility.yul\":14809:14816   */\n      dup5\n        /* \"#utility.yul\":14805:14828   */\n      sub\n        /* \"#utility.yul\":14801:14833   */\n      slt\n        /* \"#utility.yul\":14798:14917   */\n      iszero\n      tag_365\n      jumpi\n        /* \"#utility.yul\":14836:14915   */\n      tag_366\n      tag_168\n      jump\t// in\n    tag_366:\n        /* \"#utility.yul\":14798:14917   */\n    tag_365:\n        /* \"#utility.yul\":14956:14957   */\n      0x00\n        /* \"#utility.yul\":14981:15034   */\n      tag_367\n        /* \"#utility.yul\":15026:15033   */\n      dup5\n        /* \"#utility.yul\":15017:15023   */\n      dup3\n        /* \"#utility.yul\":15006:15015   */\n      dup6\n        /* \"#utility.yul\":15002:15024   */\n      add\n        /* \"#utility.yul\":14981:15034   */\n      tag_206\n      jump\t// in\n    tag_367:\n        /* \"#utility.yul\":14971:15034   */\n      swap2\n      pop\n        /* \"#utility.yul\":14927:15044   */\n      pop\n        /* \"#utility.yul\":14722:15051   */\n      swap3\n      swap2\n      pop\n      pop\n      jump\t// out\n        /* \"#utility.yul\":15057:15237   */\n    tag_207:\n        /* \"#utility.yul\":15105:15182   */\n      0x4e487b7100000000000000000000000000000000000000000000000000000000\n        /* \"#utility.yul\":15102:15103   */\n      0x00\n        /* \"#utility.yul\":15095:15183   */\n      mstore\n        /* \"#utility.yul\":15202:15206   */\n      0x22\n        /* \"#utility.yul\":15199:15200   */\n      0x04\n        /* \"#utility.yul\":15192:15207   */\n      mstore\n        /* \"#utility.yul\":15226:15230   */\n      0x24\n        /* \"#utility.yul\":15223:15224   */\n      0x00\n        /* \"#utility.yul\":15216:15231   */\n      revert\n        /* \"#utility.yul\":15243:15563   */\n    tag_49:\n        /* \"#utility.yul\":15287:15293   */\n      0x00\n        /* \"#utility.yul\":15324:15325   */\n      0x02\n        /* \"#utility.yul\":15318:15322   */\n      dup3\n        /* \"#utility.yul\":15314:15326   */\n      div\n        /* \"#utility.yul\":15304:15326   */\n      swap1\n      pop\n        /* \"#utility.yul\":15371:15372   */\n      0x01\n        /* \"#utility.yul\":15365:15369   */\n      dup3\n        /* \"#utility.yul\":15361:15373   */\n      and\n        /* \"#utility.yul\":15392:15410   */\n      dup1\n        /* \"#utility.yul\":15382:15463   */\n      tag_370\n      jumpi\n        /* \"#utility.yul\":15448:15452   */\n      0x7f\n        /* \"#utility.yul\":15440:15446   */\n      dup3\n        /* \"#utility.yul\":15436:15453   */\n      and\n        /* \"#utility.yul\":15426:15453   */\n      swap2\n      pop\n        /* \"#utility.yul\":15382:15463   */\n    tag_370:\n        /* \"#utility.yul\":15510:15512   */\n      0x20\n        /* \"#utility.yul\":15502:15508   */\n      dup3\n        /* \"#utility.yul\":15499:15513   */\n      lt\n        /* \"#utility.yul\":15479:15497   */\n      dup2\n        /* \"#utility.yul\":15476:15514   */\n      sub\n        /* \"#utility.yul\":15473:15557   */\n      tag_371\n      jumpi\n        /* \"#utility.yul\":15529:15547   */\n      tag_372\n      tag_207\n      jump\t// in\n    tag_372:\n        /* \"#utility.yul\":15473:15557   */\n    tag_371:\n        /* \"#utility.yul\":15294:15563   */\n      pop\n        /* \"#utility.yul\":15243:15563   */\n      swap2\n      swap1\n      pop\n      jump\t// out\n        /* \"#utility.yul\":15569:15738   */\n    tag_208:\n        /* \"#utility.yul\":15653:15664   */\n      0x00\n        /* \"#utility.yul\":15687:15693   */\n      dup3\n        /* \"#utility.yul\":15682:15685   */\n      dup3\n        /* \"#utility.yul\":15675:15694   */\n      mstore\n        /* \"#utility.yul\":15727:15731   */\n      0x20\n        /* \"#utility.yul\":15722:15725   */\n      dup3\n        /* \"#utility.yul\":15718:15732   */\n      add\n        /* \"#utility.yul\":15703:15732   */\n      swap1\n      pop\n        /* \"#utility.yul\":15569:15738   */\n      swap3\n      swap2\n      pop\n      pop\n      jump\t// out\n        /* \"#utility.yul\":15744:15966   */\n    tag_209:\n        /* \"#utility.yul\":15884:15918   */\n      0x436f6e746163742077697468207468697320494420616c726561647920657869\n        /* \"#utility.yul\":15880:15881   */\n      0x00\n        /* \"#utility.yul\":15872:15878   */\n      dup3\n        /* \"#utility.yul\":15868:15882   */\n      add\n        /* \"#utility.yul\":15861:15919   */\n      mstore\n        /* \"#utility.yul\":15953:15958   */\n      0x7374730000000000000000000000000000000000000000000000000000000000\n        /* \"#utility.yul\":15948:15950   */\n      0x20\n        /* \"#utility.yul\":15940:15946   */\n      dup3\n        /* \"#utility.yul\":15936:15951   */\n      add\n        /* \"#utility.yul\":15929:15959   */\n      mstore\n        /* \"#utility.yul\":15744:15966   */\n      pop\n      jump\t// out\n        /* \"#utility.yul\":15972:16338   */\n    tag_210:\n        /* \"#utility.yul\":16114:16117   */\n      0x00\n        /* \"#utility.yul\":16135:16202   */\n      tag_376\n        /* \"#utility.yul\":16199:16201   */\n      0x23\n        /* \"#utility.yul\":16194:16197   */\n      dup4\n        /* \"#utility.yul\":16135:16202   */\n      tag_208\n      jump\t// in\n    tag_376:\n        /* \"#utility.yul\":16128:16202   */\n      swap2\n      pop\n        /* \"#utility.yul\":16211:16304   */\n      tag_377\n        /* \"#utility.yul\":16300:16303   */\n      dup3\n        /* \"#utility.yul\":16211:16304   */\n      tag_209\n      jump\t// in\n    tag_377:\n        /* \"#utility.yul\":16329:16331   */\n      0x40\n        /* \"#utility.yul\":16324:16327   */\n      dup3\n        /* \"#utility.yul\":16320:16332   */\n      add\n        /* \"#utility.yul\":16313:16332   */\n      swap1\n      pop\n        /* \"#utility.yul\":15972:16338   */\n      swap2\n      swap1\n      pop\n      jump\t// out\n        /* \"#utility.yul\":16344:16763   */\n    tag_52:\n        /* \"#utility.yul\":16510:16514   */\n      0x00\n        /* \"#utility.yul\":16548:16550   */\n      0x20\n        /* \"#utility.yul\":16537:16546   */\n      dup3\n        /* \"#utility.yul\":16533:16551   */\n      add\n        /* \"#utility.yul\":16525:16551   */\n      swap1\n      pop\n        /* \"#utility.yul\":16597:16606   */\n      dup2\n        /* \"#utility.yul\":16591:16595   */\n      dup2\n        /* \"#utility.yul\":16587:16607   */\n      sub\n        /* \"#utility.yul\":16583:16584   */\n      0x00\n        /* \"#utility.yul\":16572:16581   */\n      dup4\n        /* \"#utility.yul\":16568:16585   */\n      add\n        /* \"#utility.yul\":16561:16608   */\n      mstore\n        /* \"#utility.yul\":16625:16756   */\n      tag_379\n        /* \"#utility.yul\":16751:16755   */\n      dup2\n        /* \"#utility.yul\":16625:16756   */\n      tag_210\n      jump\t// in\n    tag_379:\n        /* \"#utility.yul\":16617:16756   */\n      swap1\n      pop\n        /* \"#utility.yul\":16344:16763   */\n      swap2\n      swap1\n      pop\n      jump\t// out\n        /* \"#utility.yul\":16769:16910   */\n    tag_211:\n        /* \"#utility.yul\":16818:16822   */\n      0x00\n        /* \"#utility.yul\":16841:16844   */\n      dup2\n        /* \"#utility.yul\":16833:16844   */\n      swap1\n      pop\n        /* \"#utility.yul\":16864:16867   */\n      dup2\n        /* \"#utility.yul\":16861:16862   */\n      0x00\n        /* \"#utility.yul\":16854:16868   */\n      mstore\n        /* \"#utility.yul\":16898:16902   */\n      0x20\n        /* \"#utility.yul\":16895:16896   */\n      0x00\n        /* \"#utility.yul\":16885:16903   */\n      keccak256\n        /* \"#utility.yul\":16877:16903   */\n      swap1\n      pop\n        /* \"#utility.yul\":16769:16910   */\n      swap2\n      swap1\n      pop\n      jump\t// out\n        /* \"#utility.yul\":16916:17009   */\n    tag_212:\n        /* \"#utility.yul\":16953:16959   */\n      0x00\n        /* \"#utility.yul\":17000:17002   */\n      0x20\n        /* \"#utility.yul\":16995:16997   */\n      0x1f\n        /* \"#utility.yul\":16988:16993   */\n      dup4\n        /* \"#utility.yul\":16984:16998   */\n      add\n        /* \"#utility.yul\":16980:17003   */\n      div\n        /* \"#utility.yul\":16970:17003   */\n      swap1\n      pop\n        /* \"#utility.yul\":16916:17009   */\n      swap2\n      swap1\n      pop\n      jump\t// out\n        /* \"#utility.yul\":17015:17122   */\n    tag_213:\n        /* \"#utility.yul\":17059:17067   */\n      0x00\n        /* \"#utility.yul\":17109:17114   */\n      dup3\n        /* \"#utility.yul\":17103:17107   */\n      dup3\n        /* \"#utility.yul\":17099:17115   */\n      shl\n        /* \"#utility.yul\":17078:17115   */\n      swap1\n      pop\n        /* \"#utility.yul\":17015:17122   */\n      swap3\n      swap2\n      pop\n      pop\n      jump\t// out\n        /* \"#utility.yul\":17128:17521   */\n    tag_214:\n        /* \"#utility.yul\":17197:17203   */\n      0x00\n        /* \"#utility.yul\":17247:17248   */\n      0x08\n        /* \"#utility.yul\":17235:17245   */\n      dup4\n        /* \"#utility.yul\":17231:17249   */\n      mul\n        /* \"#utility.yul\":17270:17367   */\n      tag_384\n        /* \"#utility.yul\":17300:17366   */\n      0xffffffffffffffffffffffffffffffffffffffffffffffffffffffffffffffff\n        /* \"#utility.yul\":17289:17298   */\n      dup3\n        /* \"#utility.yul\":17270:17367   */\n      tag_213\n      jump\t// in\n    tag_384:\n        /* \"#utility.yul\":17388:17427   */\n      tag_385\n        /* \"#utility.yul\":17418:17426   */\n      dup7\n        /* \"#utility.yul\":17407:17416   */\n      dup4\n        /* \"#utility.yul\":17388:17427   */\n      tag_213\n      jump\t// in\n    tag_385:\n        /* \"#utility.yul\":17376:17427   */\n      swap6\n      pop\n        /* \"#utility.yul\":17460:17464   */\n      dup1\n        /* \"#utility.yul\":17456:17465   */\n      not\n        /* \"#utility.yul\":17449:17454   */\n      dup5\n        /* \"#utility.yul\":17445:17466   */\n      and\n        /* \"#utility.yul\":17436:17466   */\n      swap4\n      pop\n        /* \"#utility.yul\":17509:17513   */\n      dup1\n        /* \"#utility.yul\":17499:17507   */\n      dup7\n        /* \"#utility.yul\":17495:17514   */\n      and\n        /* \"#utility.yul\":17488:17493   */\n      dup5\n        /* \"#utility.yul\":17485:17515   */\n      or\n        /* \"#utility.yul\":17475:17515   */\n      swap3\n      pop\n        /* \"#utility.yul\":17204:17521   */\n      pop\n      pop\n        /* \"#utility.yul\":17128:17521   */\n      swap4\n      swap3\n      pop\n      pop\n      pop\n      jump\t// out\n        /* \"#utility.yul\":17527:17587   */\n    tag_215:\n        /* \"#utility.yul\":17555:17558   */\n      0x00\n        /* \"#utility.yul\":17576:17581   */\n      dup2\n        /* \"#utility.yul\":17569:17581   */\n      swap1\n      pop\n        /* \"#utility.yul\":17527:17587   */\n      swap2\n      swap1\n      pop\n      jump\t// out\n        /* \"#utility.yul\":17593:17735   */\n    tag_216:\n        /* \"#utility.yul\":17643:17652   */\n      0x00\n        /* \"#utility.yul\":17676:17729   */\n      tag_388\n        /* \"#utility.yul\":17694:17728   */\n      tag_389\n        /* \"#utility.yul\":17703:17727   */\n      tag_390\n        /* \"#utility.yul\":17721:17726   */\n      dup5\n        /* \"#utility.yul\":17703:17727   */\n      tag_170\n      jump\t// in\n    tag_390:\n        /* \"#utility.yul\":17694:17728   */\n      tag_215\n      jump\t// in\n    tag_389:\n        /* \"#utility.yul\":17676:17729   */\n      tag_170\n      jump\t// in\n    tag_388:\n        /* \"#utility.yul\":17663:17729   */\n      swap1\n      pop\n        /* \"#utility.yul\":17593:17735   */\n      swap2\n      swap1\n      pop\n      jump\t// out\n        /* \"#utility.yul\":17741:17816   */\n    tag_217:\n        /* \"#utility.yul\":17784:17787   */\n      0x00\n        /* \"#utility.yul\":17805:17810   */\n      dup2\n        /* \"#utility.yul\":17798:17810   */\n      swap1\n      pop\n        /* \"#utility.yul\":17741:17816   */\n      swap2\n      swap1\n      pop\n      jump\t// out\n        /* \"#utility.yul\":17822:18091   */\n    tag_218:\n        /* \"#utility.yul\":17932:17971   */\n      tag_393\n        /* \"#utility.yul\":17963:17970   */\n      dup4\n        /* \"#utility.yul\":17932:17971   */\n      tag_216\n      jump\t// in\n    tag_393:\n        /* \"#utility.yul\":17993:18084   */\n      tag_394\n        /* \"#utility.yul\":18042:18083   */\n      tag_395\n        /* \"#utility.yul\":18066:18082   */\n      dup3\n        /* \"#utility.yul\":18042:18083   */\n      tag_217\n      jump\t// in\n    tag_395:\n        /* \"#utility.yul\":18034:18040   */\n      dup5\n        /* \"#utility.yul\":18027:18031   */\n      dup5\n        /* \"#utility.yul\":18021:18032   */\n      sload\n        /* \"#utility.yul\":17993:18084   */\n      tag_214\n      jump\t// in\n    tag_394:\n        /* \"#utility.yul\":17987:17991   */\n      dup3\n        /* \"#utility.yul\":17980:18085   */\n      sstore\n        /* \"#utility.yul\":17898:18091   */\n      pop\n        /* \"#utility.yul\":17822:18091   */\n      pop\n      pop\n      pop\n      jump\t// out\n        /* \"#utility.yul\":18097:18170   */\n    tag_219:\n        /* \"#utility.yul\":18142:18145   */\n      0x00\n        /* \"#utility.yul\":18097:18170   */\n      swap1\n      jump\t// out\n        /* \"#utility.yul\":18176:18365   */\n    tag_220:\n        /* \"#utility.yul\":18253:18285   */\n      tag_398\n      tag_219\n      jump\t// in\n    tag_398:\n        /* \"#utility.yul\":18294:18359   */\n      tag_399\n        /* \"#utility.yul\":18352:18358   */\n      dup2\n        /* \"#utility.yul\":18344:18350   */\n      dup5\n        /* \"#utility.yul\":18338:18342   */\n      dup5\n        /* \"#utility.yul\":18294:18359   */\n      tag_218\n      jump\t// in\n    tag_399:\n        /* \"#utility.yul\":18229:18365   */\n      pop\n        /* \"#utility.yul\":18176:18365   */\n      pop\n      pop\n      jump\t// out\n        /* \"#utility.yul\":18371:18557   */\n    tag_221:\n        /* \"#utility.yul\":18431:18551   */\n    tag_401:\n        /* \"#utility.yul\":18448:18451   */\n      dup2\n        /* \"#utility.yul\":18441:18446   */\n      dup2\n        /* \"#utility.yul\":18438:18452   */\n      lt\n        /* \"#utility.yul\":18431:18551   */\n      iszero\n      tag_403\n      jumpi\n        /* \"#utility.yul\":18502:18541   */\n      tag_404\n        /* \"#utility.yul\":18539:18540   */\n      0x00\n        /* \"#utility.yul\":18532:18537   */\n      dup3\n        /* \"#utility.yul\":18502:18541   */\n      tag_220\n      jump\t// in\n    tag_404:\n        /* \"#utility.yul\":18475:18476   */\n      0x01\n        /* \"#utility.yul\":18468:18473   */\n      dup2\n        /* \"#utility.yul\":18464:18477   */\n      add\n        /* \"#utility.yul\":18455:18477   */\n      swap1\n      pop\n        /* \"#utility.yul\":18431:18551   */\n      jump(tag_401)\n    tag_403:\n        /* \"#utility.yul\":18371:18557   */\n      pop\n      pop\n      jump\t// out\n        /* \"#utility.yul\":18563:19106   */\n    tag_222:\n        /* \"#utility.yul\":18664:18666   */\n      0x1f\n        /* \"#utility.yul\":18659:18662   */\n      dup3\n        /* \"#utility.yul\":18656:18667   */\n      gt\n        /* \"#utility.yul\":18653:19099   */\n      iszero\n      tag_406\n      jumpi\n        /* \"#utility.yul\":18698:18736   */\n      tag_407\n        /* \"#utility.yul\":18730:18735   */\n      dup2\n        /* \"#utility.yul\":18698:18736   */\n      tag_211\n      jump\t// in\n    tag_407:\n        /* \"#utility.yul\":18782:18811   */\n      tag_408\n        /* \"#utility.yul\":18800:18810   */\n      dup5\n        /* \"#utility.yul\":18782:18811   */\n      tag_212\n      jump\t// in\n    tag_408:\n        /* \"#utility.yul\":18772:18780   */\n      dup2\n        /* \"#utility.yul\":18768:18812   */\n      add\n        /* \"#utility.yul\":18965:18967   */\n      0x20\n        /* \"#utility.yul\":18953:18963   */\n      dup6\n        /* \"#utility.yul\":18950:18968   */\n      lt\n        /* \"#utility.yul\":18947:18996   */\n      iszero\n      tag_409\n      jumpi\n        /* \"#utility.yul\":18986:18994   */\n      dup2\n        /* \"#utility.yul\":18971:18994   */\n      swap1\n      pop\n        /* \"#utility.yul\":18947:18996   */\n    tag_409:\n        /* \"#utility.yul\":19009:19089   */\n      tag_410\n        /* \"#utility.yul\":19065:19087   */\n      tag_411\n        /* \"#utility.yul\":19083:19086   */\n      dup6\n        /* \"#utility.yul\":19065:19087   */\n      tag_212\n      jump\t// in\n    tag_411:\n        /* \"#utility.yul\":19055:19063   */\n      dup4\n        /* \"#utility.yul\":19051:19088   */\n      add\n        /* \"#utility.yul\":19038:19049   */\n      dup3\n        /* \"#utility.yul\":19009:19089   */\n      tag_221\n      jump\t// in\n    tag_410:\n        /* \"#utility.yul\":18668:19099   */\n      pop\n      pop\n        /* \"#utility.yul\":18653:19099   */\n    tag_406:\n        /* \"#utility.yul\":18563:19106   */\n      pop\n      pop\n      pop\n      jump\t// out\n        /* \"#utility.yul\":19112:19229   */\n    tag_223:\n        /* \"#utility.yul\":19166:19174   */\n      0x00\n        /* \"#utility.yul\":19216:19221   */\n      dup3\n        /* \"#utility.yul\":19210:19214   */\n      dup3\n        /* \"#utility.yul\":19206:19222   */\n      shr\n        /* \"#utility.yul\":19185:19222   */\n      swap1\n      pop\n        /* \"#utility.yul\":19112:19229   */\n      swap3\n      swap2\n      pop\n      pop\n      jump\t// out\n        /* \"#utility.yul\":19235:19404   */\n    tag_224:\n        /* \"#utility.yul\":19279:19285   */\n      0x00\n        /* \"#utility.yul\":19312:19363   */\n      tag_414\n        /* \"#utility.yul\":19360:19361   */\n      0x00\n        /* \"#utility.yul\":19356:19362   */\n      not\n        /* \"#utility.yul\":19348:19353   */\n      dup5\n        /* \"#utility.yul\":19345:19346   */\n      0x08\n        /* \"#utility.yul\":19341:19354   */\n      mul\n        /* \"#utility.yul\":19312:19363   */\n      tag_223\n      jump\t// in\n    tag_414:\n        /* \"#utility.yul\":19308:19364   */\n      not\n        /* \"#utility.yul\":19393:19397   */\n      dup1\n        /* \"#utility.yul\":19387:19391   */\n      dup4\n        /* \"#utility.yul\":19383:19398   */\n      and\n        /* \"#utility.yul\":19373:19398   */\n      swap2\n      pop\n        /* \"#utility.yul\":19286:19404   */\n      pop\n        /* \"#utility.yul\":19235:19404   */\n      swap3\n      swap2\n      pop\n      pop\n      jump\t// out\n        /* \"#utility.yul\":19409:19704   */\n    tag_225:\n        /* \"#utility.yul\":19485:19489   */\n      0x00\n        /* \"#utility.yul\":19631:19660   */\n      tag_416\n        /* \"#utility.yul\":19656:19659   */\n      dup4\n        /* \"#utility.yul\":19650:19654   */\n      dup4\n        /* \"#utility.yul\":19631:19660   */\n      tag_224\n      jump\t// in\n    tag_416:\n        /* \"#utility.yul\":19623:19660   */\n      swap2\n      pop\n        /* \"#utility.yul\":19693:19696   */\n      dup3\n        /* \"#utility.yul\":19690:19691   */\n      0x02\n        /* \"#utility.yul\":19686:19697   */\n      mul\n        /* \"#utility.yul\":19680:19684   */\n      dup3\n        /* \"#utility.yul\":19677:19698   */\n      or\n        /* \"#utility.yul\":19669:19698   */\n      swap1\n      pop\n        /* \"#utility.yul\":19409:19704   */\n      swap3\n      swap2\n      pop\n      pop\n      jump\t// out\n        /* \"#utility.yul\":19709:21104   */\n    tag_54:\n        /* \"#utility.yul\":19826:19863   */\n      tag_418\n        /* \"#utility.yul\":19859:19862   */\n      dup3\n        /* \"#utility.yul\":19826:19863   */\n      tag_187\n      jump\t// in\n    tag_418:\n        /* \"#utility.yul\":19928:19946   */\n      0xffffffffffffffff\n        /* \"#utility.yul\":19920:19926   */\n      dup2\n        /* \"#utility.yul\":19917:19947   */\n      gt\n        /* \"#utility.yul\":19914:19970   */\n      iszero\n      tag_419\n      jumpi\n        /* \"#utility.yul\":19950:19968   */\n      tag_420\n      tag_112\n      jump\t// in\n    tag_420:\n        /* \"#utility.yul\":19914:19970   */\n    tag_419:\n        /* \"#utility.yul\":19994:20032   */\n      tag_421\n        /* \"#utility.yul\":20026:20030   */\n      dup3\n        /* \"#utility.yul\":20020:20031   */\n      sload\n        /* \"#utility.yul\":19994:20032   */\n      tag_49\n      jump\t// in\n    tag_421:\n        /* \"#utility.yul\":20079:20146   */\n      tag_422\n        /* \"#utility.yul\":20139:20145   */\n      dup3\n        /* \"#utility.yul\":20131:20137   */\n      dup3\n        /* \"#utility.yul\":20125:20129   */\n      dup6\n        /* \"#utility.yul\":20079:20146   */\n      tag_222\n      jump\t// in\n    tag_422:\n        /* \"#utility.yul\":20173:20174   */\n      0x00\n        /* \"#utility.yul\":20197:20201   */\n      0x20\n        /* \"#utility.yul\":20184:20201   */\n      swap1\n      pop\n        /* \"#utility.yul\":20229:20231   */\n      0x1f\n        /* \"#utility.yul\":20221:20227   */\n      dup4\n        /* \"#utility.yul\":20218:20232   */\n      gt\n        /* \"#utility.yul\":20246:20247   */\n      0x01\n        /* \"#utility.yul\":20241:20859   */\n      dup2\n      eq\n      tag_424\n      jumpi\n        /* \"#utility.yul\":20903:20904   */\n      0x00\n        /* \"#utility.yul\":20920:20926   */\n      dup5\n        /* \"#utility.yul\":20917:20994   */\n      iszero\n      tag_425\n      jumpi\n        /* \"#utility.yul\":20969:20978   */\n      dup3\n        /* \"#utility.yul\":20964:20967   */\n      dup8\n        /* \"#utility.yul\":20960:20979   */\n      add\n        /* \"#utility.yul\":20954:20980   */\n      mload\n        /* \"#utility.yul\":20945:20980   */\n      swap1\n      pop\n        /* \"#utility.yul\":20917:20994   */\n    tag_425:\n        /* \"#utility.yul\":21020:21087   */\n      tag_426\n        /* \"#utility.yul\":21080:21086   */\n      dup6\n        /* \"#utility.yul\":21073:21078   */\n      dup3\n        /* \"#utility.yul\":21020:21087   */\n      tag_225\n      jump\t// in\n    tag_426:\n        /* \"#utility.yul\":21014:21018   */\n      dup7\n        /* \"#utility.yul\":21007:21088   */\n      sstore\n        /* \"#utility.yul\":20876:21098   */\n      pop\n        /* \"#utility.yul\":20211:21098   */\n      jump(tag_423)\n        /* \"#utility.yul\":20241:20859   */\n    tag_424:\n        /* \"#utility.yul\":20293:20297   */\n      0x1f\n        /* \"#utility.yul\":20289:20298   */\n      not\n        /* \"#utility.yul\":20281:20287   */\n      dup5\n        /* \"#utility.yul\":20277:20299   */\n      and\n        /* \"#utility.yul\":20327:20364   */\n      tag_427\n        /* \"#utility.yul\":20359:20363   */\n      dup7\n        /* \"#utility.yul\":20327:20364   */\n      tag_211\n      jump\t// in\n    tag_427:\n        /* \"#utility.yul\":20386:20387   */\n      0x00\n        /* \"#utility.yul\":20400:20608   */\n    tag_428:\n        /* \"#utility.yul\":20414:20421   */\n      dup3\n        /* \"#utility.yul\":20411:20412   */\n      dup2\n        /* \"#utility.yul\":20408:20422   */\n      lt\n        /* \"#utility.yul\":20400:20608   */\n      iszero\n      tag_430\n      jumpi\n        /* \"#utility.yul\":20493:20502   */\n      dup5\n        /* \"#utility.yul\":20488:20491   */\n      dup10\n        /* \"#utility.yul\":20484:20503   */\n      add\n        /* \"#utility.yul\":20478:20504   */\n      mload\n        /* \"#utility.yul\":20470:20476   */\n      dup3\n        /* \"#utility.yul\":20463:20505   */\n      sstore\n        /* \"#utility.yul\":20544:20545   */\n      0x01\n        /* \"#utility.yul\":20536:20542   */\n      dup3\n        /* \"#utility.yul\":20532:20546   */\n      add\n        /* \"#utility.yul\":20522:20546   */\n      swap2\n      pop\n        /* \"#utility.yul\":20591:20593   */\n      0x20\n        /* \"#utility.yul\":20580:20589   */\n      dup6\n        /* \"#utility.yul\":20576:20594   */\n      add\n        /* \"#utility.yul\":20563:20594   */\n      swap5\n      pop\n        /* \"#utility.yul\":20437:20441   */\n      0x20\n        /* \"#utility.yul\":20434:20435   */\n      dup2\n        /* \"#utility.yul\":20430:20442   */\n      add\n        /* \"#utility.yul\":20425:20442   */\n      swap1\n      pop\n        /* \"#utility.yul\":20400:20608   */\n      jump(tag_428)\n    tag_430:\n        /* \"#utility.yul\":20636:20642   */\n      dup7\n        /* \"#utility.yul\":20627:20634   */\n      dup4\n        /* \"#utility.yul\":20624:20643   */\n      lt\n        /* \"#utility.yul\":20621:20800   */\n      iszero\n      tag_431\n      jumpi\n        /* \"#utility.yul\":20694:20703   */\n      dup5\n        /* \"#utility.yul\":20689:20692   */\n      dup10\n        /* \"#utility.yul\":20685:20704   */\n      add\n        /* \"#utility.yul\":20679:20705   */\n      mload\n        /* \"#utility.yul\":20737:20785   */\n      tag_432\n        /* \"#utility.yul\":20779:20783   */\n      0x1f\n        /* \"#utility.yul\":20771:20777   */\n      dup10\n        /* \"#utility.yul\":20767:20784   */\n      and\n        /* \"#utility.yul\":20756:20765   */\n      dup3\n        /* \"#utility.yul\":20737:20785   */\n      tag_224\n      jump\t// in\n    tag_432:\n        /* \"#utility.yul\":20729:20735   */\n      dup4\n        /* \"#utility.yul\":20722:20786   */\n      sstore\n        /* \"#utility.yul\":20644:20800   */\n      pop\n        /* \"#utility.yul\":20621:20800   */\n    tag_431:\n        /* \"#utility.yul\":20846:20847   */\n      0x01\n        /* \"#utility.yul\":20842:20843   */\n      0x02\n        /* \"#utility.yul\":20834:20840   */\n      dup9\n        /* \"#utility.yul\":20830:20844   */\n      mul\n        /* \"#utility.yul\":20826:20848   */\n      add\n        /* \"#utility.yul\":20820:20824   */\n      dup9\n        /* \"#utility.yul\":20813:20849   */\n      sstore\n        /* \"#utility.yul\":20248:20859   */\n      pop\n      pop\n      pop\n        /* \"#utility.yul\":20211:21098   */\n    tag_423:\n      pop\n        /* \"#utility.yul\":19801:21104   */\n      pop\n      pop\n      pop\n        /* \"#utility.yul\":19709:21104   */\n      pop\n      pop\n      jump\t// out\n        /* \"#utility.yul\":21110:21228   */\n    tag_226:\n        /* \"#utility.yul\":21197:21221   */\n      tag_434\n        /* \"#utility.yul\":21215:21220   */\n      dup2\n        /* \"#utility.yul\":21197:21221   */\n      tag_170\n      jump\t// in\n    tag_434:\n        /* \"#utility.yul\":21192:21195   */\n      dup3\n        /* \"#utility.yul\":21185:21222   */\n      mstore\n        /* \"#utility.yul\":21110:21228   */\n      pop\n      pop\n      jump\t// out\n        /* \"#utility.yul\":21234:21456   */\n    tag_65:\n        /* \"#utility.yul\":21327:21331   */\n      0x00\n        /* \"#utility.yul\":21365:21367   */\n      0x20\n        /* \"#utility.yul\":21354:21363   */\n      dup3\n        /* \"#utility.yul\":21350:21368   */\n      add\n        /* \"#utility.yul\":21342:21368   */\n      swap1\n      pop\n        /* \"#utility.yul\":21378:21449   */\n      tag_436\n        /* \"#utility.yul\":21446:21447   */\n      0x00\n        /* \"#utility.yul\":21435:21444   */\n      dup4\n        /* \"#utility.yul\":21431:21448   */\n      add\n        /* \"#utility.yul\":21422:21428   */\n      dup5\n        /* \"#utility.yul\":21378:21449   */\n      tag_226\n      jump\t// in\n    tag_436:\n        /* \"#utility.yul\":21234:21456   */\n      swap3\n      swap2\n      pop\n      pop\n      jump\t// out\n        /* \"#utility.yul\":21462:21642   */\n    tag_76:\n        /* \"#utility.yul\":21510:21587   */\n      0x4e487b7100000000000000000000000000000000000000000000000000000000\n        /* \"#utility.yul\":21507:21508   */\n      0x00\n        /* \"#utility.yul\":21500:21588   */\n      mstore\n        /* \"#utility.yul\":21607:21611   */\n      0x32\n        /* \"#utility.yul\":21604:21605   */\n      0x04\n        /* \"#utility.yul\":21597:21612   */\n      mstore\n        /* \"#utility.yul\":21631:21635   */\n      0x24\n        /* \"#utility.yul\":21628:21629   */\n      0x00\n        /* \"#utility.yul\":21621:21636   */\n      revert\n        /* \"#utility.yul\":21648:21828   */\n    tag_227:\n        /* \"#utility.yul\":21696:21773   */\n      0x4e487b7100000000000000000000000000000000000000000000000000000000\n        /* \"#utility.yul\":21693:21694   */\n      0x00\n        /* \"#utility.yul\":21686:21774   */\n      mstore\n        /* \"#utility.yul\":21793:21797   */\n      0x11\n        /* \"#utility.yul\":21790:21791   */\n      0x04\n        /* \"#utility.yul\":21783:21798   */\n      mstore\n        /* \"#utility.yul\":21817:21821   */\n      0x24\n        /* \"#utility.yul\":21814:21815   */\n      0x00\n        /* \"#utility.yul\":21807:21822   */\n      revert\n        /* \"#utility.yul\":21834:22028   */\n    tag_80:\n        /* \"#utility.yul\":21874:21878   */\n      0x00\n        /* \"#utility.yul\":21894:21914   */\n      tag_440\n        /* \"#utility.yul\":21912:21913   */\n      dup3\n        /* \"#utility.yul\":21894:21914   */\n      tag_170\n      jump\t// in\n    tag_440:\n        /* \"#utility.yul\":21889:21914   */\n      swap2\n      pop\n        /* \"#utility.yul\":21928:21948   */\n      tag_441\n        /* \"#utility.yul\":21946:21947   */\n      dup4\n        /* \"#utility.yul\":21928:21948   */\n      tag_170\n      jump\t// in\n    tag_441:\n        /* \"#utility.yul\":21923:21948   */\n      swap3\n      pop\n        /* \"#utility.yul\":21972:21973   */\n      dup3\n        /* \"#utility.yul\":21969:21970   */\n      dup3\n        /* \"#utility.yul\":21965:21974   */\n      sub\n        /* \"#utility.yul\":21957:21974   */\n      swap1\n      pop\n        /* \"#utility.yul\":21996:21997   */\n      dup2\n        /* \"#utility.yul\":21990:21994   */\n      dup2\n        /* \"#utility.yul\":21987:21998   */\n      gt\n        /* \"#utility.yul\":21984:22021   */\n      iszero\n      tag_442\n      jumpi\n        /* \"#utility.yul\":22001:22019   */\n      tag_443\n      tag_227\n      jump\t// in\n    tag_443:\n        /* \"#utility.yul\":21984:22021   */\n    tag_442:\n        /* \"#utility.yul\":21834:22028   */\n      swap3\n      swap2\n      pop\n      pop\n      jump\t// out\n        /* \"#utility.yul\":22034:22214   */\n    tag_89:\n        /* \"#utility.yul\":22082:22159   */\n      0x4e487b7100000000000000000000000000000000000000000000000000000000\n        /* \"#utility.yul\":22079:22080   */\n      0x00\n        /* \"#utility.yul\":22072:22160   */\n      mstore\n        /* \"#utility.yul\":22179:22183   */\n      0x31\n        /* \"#utility.yul\":22176:22177   */\n      0x04\n        /* \"#utility.yul\":22169:22184   */\n      mstore\n        /* \"#utility.yul\":22203:22207   */\n      0x24\n        /* \"#utility.yul\":22200:22201   */\n      0x00\n        /* \"#utility.yul\":22193:22208   */\n      revert\n\n    auxdata: 0xa2646970667358221220e5c814503f1b39fd9e6ff3fc473337d757480052735dd20b1549e7d625d820f264736f6c634300081a0033\n}\n",
				"bytecode": {
					"linkReferences": {},
					"object": "608060405234801561000f575f80fd5b506040516118a53803806118a5833981810160405281019061003191906101d7565b805f73ffffffffffffffffffffffffffffffffffffffff168173ffffffffffffffffffffffffffffffffffffffff16036100a2575f6040517f1e4fbdf70000000000000000000000000000000000000000000000000000000081526004016100999190610211565b60405180910390fd5b6100b1816100b860201b60201c565b505061022a565b5f805f9054906101000a900473ffffffffffffffffffffffffffffffffffffffff169050815f806101000a81548173ffffffffffffffffffffffffffffffffffffffff021916908373ffffffffffffffffffffffffffffffffffffffff1602179055508173ffffffffffffffffffffffffffffffffffffffff168173ffffffffffffffffffffffffffffffffffffffff167f8be0079c531659141344cd1fd0a4f28419497f9722a3daafe3b4186f6b6457e060405160405180910390a35050565b5f80fd5b5f73ffffffffffffffffffffffffffffffffffffffff82169050919050565b5f6101a68261017d565b9050919050565b6101b68161019c565b81146101c0575f80fd5b50565b5f815190506101d1816101ad565b92915050565b5f602082840312156101ec576101eb610179565b5b5f6101f9848285016101c3565b91505092915050565b61020b8161019c565b82525050565b5f6020820190506102245f830184610202565b92915050565b61166e806102375f395ff3fe608060405234801561000f575f80fd5b506004361061007b575f3560e01c8063b9ed6fca11610059578063b9ed6fca146100c3578063e6505e1e146100df578063ef1d6ddd1461010f578063f2fde38b1461012d5761007b565b8063715018a61461007f5780638da5cb5b14610089578063aa7396a2146100a7575b5f80fd5b610087610149565b005b61009161015c565b60405161009e9190610b6c565b60405180910390f35b6100c160048036038101906100bc9190610dc9565b610183565b005b6100dd60048036038101906100d89190610e81565b61029f565b005b6100f960048036038101906100f49190610e81565b61040d565b6040516101069190611031565b60405180910390f35b61011761061b565b604051610124919061117a565b60405180910390f35b610147600480360381019061014291906111c4565b610872565b005b6101516108f6565b61015a5f61097d565b565b5f805f9054906101000a900473ffffffffffffffffffffffffffffffffffffffff16905090565b61018b6108f6565b5f60015f8681526020019081526020015f2060010180546101ab9061121c565b9050146101ed576040517f08c379a00000000000000000000000000000000000000000000000000000000081526004016101e4906112cc565b60405180910390fd5b60405180608001604052808581526020018481526020018381526020018281525060015f8681526020019081526020015f205f820151815f0155602082015181600101908161023c9190611487565b5060408201518160020190816102529190611487565b50606082015181600301908051906020019061026f929190610a45565b50905050600284908060018154018082558091505060019003905f5260205f20015f909190919091505550505050565b6102a76108f6565b5f60015f8381526020019081526020015f2060010180546102c79061121c565b90500361030b57806040517ff55dec000000000000000000000000000000000000000000000000000000000081526004016103029190611565565b60405180910390fd5b60015f8281526020019081526020015f205f8082015f9055600182015f6103329190610a90565b600282015f6103419190610a90565b600382015f6103509190610acd565b50505f5b6002805490508110156104095781600282815481106103765761037561157e565b5b905f5260205f200154036103fc576002600160028054905061039891906115d8565b815481106103a9576103a861157e565b5b905f5260205f200154600282815481106103c6576103c561157e565b5b905f5260205f20018190555060028054806103e4576103e361160b565b5b600190038181905f5260205f20015f90559055610409565b8080600101915050610354565b5050565b610415610aeb565b5f60015f8481526020019081526020015f2060010180546104359061121c565b90500361047957816040517ff55dec000000000000000000000000000000000000000000000000000000000081526004016104709190611565565b60405180910390fd5b60015f8381526020019081526020015f206040518060800160405290815f82015481526020016001820180546104ae9061121c565b80601f01602080910402602001604051908101604052809291908181526020018280546104da9061121c565b80156105255780601f106104fc57610100808354040283529160200191610525565b820191905f5260205f20905b81548152906001019060200180831161050857829003601f168201915b5050505050815260200160028201805461053e9061121c565b80601f016020809104026020016040519081016040528092919081815260200182805461056a9061121c565b80156105b55780601f1061058c576101008083540402835291602001916105b5565b820191905f5260205f20905b81548152906001019060200180831161059857829003601f168201915b505050505081526020016003820180548060200260200160405190810160405280929190818152602001828054801561060b57602002820191905f5260205f20905b8154815260200190600101908083116105f7575b5050505050815250509050919050565b60605f60028054905067ffffffffffffffff81111561063d5761063c610be1565b5b60405190808252806020026020018201604052801561067657816020015b610663610aeb565b81526020019060019003908161065b5790505b5090505f5b60028054905081101561086a5760015f6002838154811061069f5761069e61157e565b5b905f5260205f20015481526020019081526020015f206040518060800160405290815f82015481526020016001820180546106d99061121c565b80601f01602080910402602001604051908101604052809291908181526020018280546107059061121c565b80156107505780601f1061072757610100808354040283529160200191610750565b820191905f5260205f20905b81548152906001019060200180831161073357829003601f168201915b505050505081526020016002820180546107699061121c565b80601f01602080910402602001604051908101604052809291908181526020018280546107959061121c565b80156107e05780601f106107b7576101008083540402835291602001916107e0565b820191905f5260205f20905b8154815290600101906020018083116107c357829003601f168201915b505050505081526020016003820180548060200260200160405190810160405280929190818152602001828054801561083657602002820191905f5260205f20905b815481526020019060010190808311610822575b5050505050815250508282815181106108525761085161157e565b5b6020026020010181905250808060010191505061067b565b508091505090565b61087a6108f6565b5f73ffffffffffffffffffffffffffffffffffffffff168173ffffffffffffffffffffffffffffffffffffffff16036108ea575f6040517f1e4fbdf70000000000000000000000000000000000000000000000000000000081526004016108e19190610b6c565b60405180910390fd5b6108f38161097d565b50565b6108fe610a3e565b73ffffffffffffffffffffffffffffffffffffffff1661091c61015c565b73ffffffffffffffffffffffffffffffffffffffff161461097b5761093f610a3e565b6040517f118cdaa70000000000000000000000000000000000000000000000000000000081526004016109729190610b6c565b60405180910390fd5b565b5f805f9054906101000a900473ffffffffffffffffffffffffffffffffffffffff169050815f806101000a81548173ffffffffffffffffffffffffffffffffffffffff021916908373ffffffffffffffffffffffffffffffffffffffff1602179055508173ffffffffffffffffffffffffffffffffffffffff168173ffffffffffffffffffffffffffffffffffffffff167f8be0079c531659141344cd1fd0a4f28419497f9722a3daafe3b4186f6b6457e060405160405180910390a35050565b5f33905090565b828054828255905f5260205f20908101928215610a7f579160200282015b82811115610a7e578251825591602001919060010190610a63565b5b509050610a8c9190610b12565b5090565b508054610a9c9061121c565b5f825580601f10610aad5750610aca565b601f0160209004905f5260205f2090810190610ac99190610b12565b5b50565b5080545f8255905f5260205f2090810190610ae89190610b12565b50565b60405180608001604052805f81526020016060815260200160608152602001606081525090565b5b80821115610b29575f815f905550600101610b13565b5090565b5f73ffffffffffffffffffffffffffffffffffffffff82169050919050565b5f610b5682610b2d565b9050919050565b610b6681610b4c565b82525050565b5f602082019050610b7f5f830184610b5d565b92915050565b5f604051905090565b5f80fd5b5f80fd5b5f819050919050565b610ba881610b96565b8114610bb2575f80fd5b50565b5f81359050610bc381610b9f565b92915050565b5f80fd5b5f80fd5b5f601f19601f8301169050919050565b7f4e487b71000000000000000000000000000000000000000000000000000000005f52604160045260245ffd5b610c1782610bd1565b810181811067ffffffffffffffff82111715610c3657610c35610be1565b5b80604052505050565b5f610c48610b85565b9050610c548282610c0e565b919050565b5f67ffffffffffffffff821115610c7357610c72610be1565b5b610c7c82610bd1565b9050602081019050919050565b828183375f83830152505050565b5f610ca9610ca484610c59565b610c3f565b905082815260208101848484011115610cc557610cc4610bcd565b5b610cd0848285610c89565b509392505050565b5f82601f830112610cec57610ceb610bc9565b5b8135610cfc848260208601610c97565b91505092915050565b5f67ffffffffffffffff821115610d1f57610d1e610be1565b5b602082029050602081019050919050565b5f80fd5b5f610d46610d4184610d05565b610c3f565b90508083825260208201905060208402830185811115610d6957610d68610d30565b5b835b81811015610d925780610d7e8882610bb5565b845260208401935050602081019050610d6b565b5050509392505050565b5f82601f830112610db057610daf610bc9565b5b8135610dc0848260208601610d34565b91505092915050565b5f805f8060808587031215610de157610de0610b8e565b5b5f610dee87828801610bb5565b945050602085013567ffffffffffffffff811115610e0f57610e0e610b92565b5b610e1b87828801610cd8565b935050604085013567ffffffffffffffff811115610e3c57610e3b610b92565b5b610e4887828801610cd8565b925050606085013567ffffffffffffffff811115610e6957610e68610b92565b5b610e7587828801610d9c565b91505092959194509250565b5f60208284031215610e9657610e95610b8e565b5b5f610ea384828501610bb5565b91505092915050565b610eb581610b96565b82525050565b5f81519050919050565b5f82825260208201905092915050565b8281835e5f83830152505050565b5f610eed82610ebb565b610ef78185610ec5565b9350610f07818560208601610ed5565b610f1081610bd1565b840191505092915050565b5f81519050919050565b5f82825260208201905092915050565b5f819050602082019050919050565b5f610f4f8383610eac565b60208301905092915050565b5f602082019050919050565b5f610f7182610f1b565b610f7b8185610f25565b9350610f8683610f35565b805f5b83811015610fb6578151610f9d8882610f44565b9750610fa883610f5b565b925050600181019050610f89565b5085935050505092915050565b5f608083015f830151610fd85f860182610eac565b5060208301518482036020860152610ff08282610ee3565b9150506040830151848203604086015261100a8282610ee3565b915050606083015184820360608601526110248282610f67565b9150508091505092915050565b5f6020820190508181035f8301526110498184610fc3565b905092915050565b5f81519050919050565b5f82825260208201905092915050565b5f819050602082019050919050565b5f608083015f83015161108f5f860182610eac565b50602083015184820360208601526110a78282610ee3565b915050604083015184820360408601526110c18282610ee3565b915050606083015184820360608601526110db8282610f67565b9150508091505092915050565b5f6110f3838361107a565b905092915050565b5f602082019050919050565b5f61111182611051565b61111b818561105b565b93508360208202850161112d8561106b565b805f5b85811015611168578484038952815161114985826110e8565b9450611154836110fb565b925060208a01995050600181019050611130565b50829750879550505050505092915050565b5f6020820190508181035f8301526111928184611107565b905092915050565b6111a381610b4c565b81146111ad575f80fd5b50565b5f813590506111be8161119a565b92915050565b5f602082840312156111d9576111d8610b8e565b5b5f6111e6848285016111b0565b91505092915050565b7f4e487b71000000000000000000000000000000000000000000000000000000005f52602260045260245ffd5b5f600282049050600182168061123357607f821691505b602082108103611246576112456111ef565b5b50919050565b5f82825260208201905092915050565b7f436f6e746163742077697468207468697320494420616c7265616479206578695f8201527f7374730000000000000000000000000000000000000000000000000000000000602082015250565b5f6112b660238361124c565b91506112c18261125c565b604082019050919050565b5f6020820190508181035f8301526112e3816112aa565b9050919050565b5f819050815f5260205f209050919050565b5f6020601f8301049050919050565b5f82821b905092915050565b5f600883026113467fffffffffffffffffffffffffffffffffffffffffffffffffffffffffffffffff8261130b565b611350868361130b565b95508019841693508086168417925050509392505050565b5f819050919050565b5f61138b61138661138184610b96565b611368565b610b96565b9050919050565b5f819050919050565b6113a483611371565b6113b86113b082611392565b848454611317565b825550505050565b5f90565b6113cc6113c0565b6113d781848461139b565b505050565b5b818110156113fa576113ef5f826113c4565b6001810190506113dd565b5050565b601f82111561143f57611410816112ea565b611419846112fc565b81016020851015611428578190505b61143c611434856112fc565b8301826113dc565b50505b505050565b5f82821c905092915050565b5f61145f5f1984600802611444565b1980831691505092915050565b5f6114778383611450565b9150826002028217905092915050565b61149082610ebb565b67ffffffffffffffff8111156114a9576114a8610be1565b5b6114b3825461121c565b6114be8282856113fe565b5f60209050601f8311600181146114ef575f84156114dd578287015190505b6114e7858261146c565b86555061154e565b601f1984166114fd866112ea565b5f5b82811015611524578489015182556001820191506020850194506020810190506114ff565b86831015611541578489015161153d601f891682611450565b8355505b6001600288020188555050505b505050505050565b61155f81610b96565b82525050565b5f6020820190506115785f830184611556565b92915050565b7f4e487b71000000000000000000000000000000000000000000000000000000005f52603260045260245ffd5b7f4e487b71000000000000000000000000000000000000000000000000000000005f52601160045260245ffd5b5f6115e282610b96565b91506115ed83610b96565b9250828203905081811115611605576116046115ab565b5b92915050565b7f4e487b71000000000000000000000000000000000000000000000000000000005f52603160045260245ffdfea2646970667358221220e5c814503f1b39fd9e6ff3fc473337d757480052735dd20b1549e7d625d820f264736f6c634300081a0033",
					"opcodes": "PUSH1 0x80 PUSH1 0x40 MSTORE CALLVALUE DUP1 ISZERO PUSH2 0xF JUMPI PUSH0 DUP1 REVERT JUMPDEST POP PUSH1 0x40 MLOAD PUSH2 0x18A5 CODESIZE SUB DUP1 PUSH2 0x18A5 DUP4 CODECOPY DUP2 DUP2 ADD PUSH1 0x40 MSTORE DUP2 ADD SWAP1 PUSH2 0x31 SWAP2 SWAP1 PUSH2 0x1D7 JUMP JUMPDEST DUP1 PUSH0 PUSH20 0xFFFFFFFFFFFFFFFFFFFFFFFFFFFFFFFFFFFFFFFF AND DUP2 PUSH20 0xFFFFFFFFFFFFFFFFFFFFFFFFFFFFFFFFFFFFFFFF AND SUB PUSH2 0xA2 JUMPI PUSH0 PUSH1 0x40 MLOAD PUSH32 0x1E4FBDF700000000000000000000000000000000000000000000000000000000 DUP2 MSTORE PUSH1 0x4 ADD PUSH2 0x99 SWAP2 SWAP1 PUSH2 0x211 JUMP JUMPDEST PUSH1 0x40 MLOAD DUP1 SWAP2 SUB SWAP1 REVERT JUMPDEST PUSH2 0xB1 DUP2 PUSH2 0xB8 PUSH1 0x20 SHL PUSH1 0x20 SHR JUMP JUMPDEST POP POP PUSH2 0x22A JUMP JUMPDEST PUSH0 DUP1 PUSH0 SWAP1 SLOAD SWAP1 PUSH2 0x100 EXP SWAP1 DIV PUSH20 0xFFFFFFFFFFFFFFFFFFFFFFFFFFFFFFFFFFFFFFFF AND SWAP1 POP DUP2 PUSH0 DUP1 PUSH2 0x100 EXP DUP2 SLOAD DUP2 PUSH20 0xFFFFFFFFFFFFFFFFFFFFFFFFFFFFFFFFFFFFFFFF MUL NOT AND SWAP1 DUP4 PUSH20 0xFFFFFFFFFFFFFFFFFFFFFFFFFFFFFFFFFFFFFFFF AND MUL OR SWAP1 SSTORE POP DUP2 PUSH20 0xFFFFFFFFFFFFFFFFFFFFFFFFFFFFFFFFFFFFFFFF AND DUP2 PUSH20 0xFFFFFFFFFFFFFFFFFFFFFFFFFFFFFFFFFFFFFFFF AND PUSH32 0x8BE0079C531659141344CD1FD0A4F28419497F9722A3DAAFE3B4186F6B6457E0 PUSH1 0x40 MLOAD PUSH1 0x40 MLOAD DUP1 SWAP2 SUB SWAP1 LOG3 POP POP JUMP JUMPDEST PUSH0 DUP1 REVERT JUMPDEST PUSH0 PUSH20 0xFFFFFFFFFFFFFFFFFFFFFFFFFFFFFFFFFFFFFFFF DUP3 AND SWAP1 POP SWAP2 SWAP1 POP JUMP JUMPDEST PUSH0 PUSH2 0x1A6 DUP3 PUSH2 0x17D JUMP JUMPDEST SWAP1 POP SWAP2 SWAP1 POP JUMP JUMPDEST PUSH2 0x1B6 DUP2 PUSH2 0x19C JUMP JUMPDEST DUP2 EQ PUSH2 0x1C0 JUMPI PUSH0 DUP1 REVERT JUMPDEST POP JUMP JUMPDEST PUSH0 DUP2 MLOAD SWAP1 POP PUSH2 0x1D1 DUP2 PUSH2 0x1AD JUMP JUMPDEST SWAP3 SWAP2 POP POP JUMP JUMPDEST PUSH0 PUSH1 0x20 DUP3 DUP5 SUB SLT ISZERO PUSH2 0x1EC JUMPI PUSH2 0x1EB PUSH2 0x179 JUMP JUMPDEST JUMPDEST PUSH0 PUSH2 0x1F9 DUP5 DUP3 DUP6 ADD PUSH2 0x1C3 JUMP JUMPDEST SWAP2 POP POP SWAP3 SWAP2 POP POP JUMP JUMPDEST PUSH2 0x20B DUP2 PUSH2 0x19C JUMP JUMPDEST DUP3 MSTORE POP POP JUMP JUMPDEST PUSH0 PUSH1 0x20 DUP3 ADD SWAP1 POP PUSH2 0x224 PUSH0 DUP4 ADD DUP5 PUSH2 0x202 JUMP JUMPDEST SWAP3 SWAP2 POP POP JUMP JUMPDEST PUSH2 0x166E DUP1 PUSH2 0x237 PUSH0 CODECOPY PUSH0 RETURN INVALID PUSH1 0x80 PUSH1 0x40 MSTORE CALLVALUE DUP1 ISZERO PUSH2 0xF JUMPI PUSH0 DUP1 REVERT JUMPDEST POP PUSH1 0x4 CALLDATASIZE LT PUSH2 0x7B JUMPI PUSH0 CALLDATALOAD PUSH1 0xE0 SHR DUP1 PUSH4 0xB9ED6FCA GT PUSH2 0x59 JUMPI DUP1 PUSH4 0xB9ED6FCA EQ PUSH2 0xC3 JUMPI DUP1 PUSH4 0xE6505E1E EQ PUSH2 0xDF JUMPI DUP1 PUSH4 0xEF1D6DDD EQ PUSH2 0x10F JUMPI DUP1 PUSH4 0xF2FDE38B EQ PUSH2 0x12D JUMPI PUSH2 0x7B JUMP JUMPDEST DUP1 PUSH4 0x715018A6 EQ PUSH2 0x7F JUMPI DUP1 PUSH4 0x8DA5CB5B EQ PUSH2 0x89 JUMPI DUP1 PUSH4 0xAA7396A2 EQ PUSH2 0xA7 JUMPI JUMPDEST PUSH0 DUP1 REVERT JUMPDEST PUSH2 0x87 PUSH2 0x149 JUMP JUMPDEST STOP JUMPDEST PUSH2 0x91 PUSH2 0x15C JUMP JUMPDEST PUSH1 0x40 MLOAD PUSH2 0x9E SWAP2 SWAP1 PUSH2 0xB6C JUMP JUMPDEST PUSH1 0x40 MLOAD DUP1 SWAP2 SUB SWAP1 RETURN JUMPDEST PUSH2 0xC1 PUSH1 0x4 DUP1 CALLDATASIZE SUB DUP2 ADD SWAP1 PUSH2 0xBC SWAP2 SWAP1 PUSH2 0xDC9 JUMP JUMPDEST PUSH2 0x183 JUMP JUMPDEST STOP JUMPDEST PUSH2 0xDD PUSH1 0x4 DUP1 CALLDATASIZE SUB DUP2 ADD SWAP1 PUSH2 0xD8 SWAP2 SWAP1 PUSH2 0xE81 JUMP JUMPDEST PUSH2 0x29F JUMP JUMPDEST STOP JUMPDEST PUSH2 0xF9 PUSH1 0x4 DUP1 CALLDATASIZE SUB DUP2 ADD SWAP1 PUSH2 0xF4 SWAP2 SWAP1 PUSH2 0xE81 JUMP JUMPDEST PUSH2 0x40D JUMP JUMPDEST PUSH1 0x40 MLOAD PUSH2 0x106 SWAP2 SWAP1 PUSH2 0x1031 JUMP JUMPDEST PUSH1 0x40 MLOAD DUP1 SWAP2 SUB SWAP1 RETURN JUMPDEST PUSH2 0x117 PUSH2 0x61B JUMP JUMPDEST PUSH1 0x40 MLOAD PUSH2 0x124 SWAP2 SWAP1 PUSH2 0x117A JUMP JUMPDEST PUSH1 0x40 MLOAD DUP1 SWAP2 SUB SWAP1 RETURN JUMPDEST PUSH2 0x147 PUSH1 0x4 DUP1 CALLDATASIZE SUB DUP2 ADD SWAP1 PUSH2 0x142 SWAP2 SWAP1 PUSH2 0x11C4 JUMP JUMPDEST PUSH2 0x872 JUMP JUMPDEST STOP JUMPDEST PUSH2 0x151 PUSH2 0x8F6 JUMP JUMPDEST PUSH2 0x15A PUSH0 PUSH2 0x97D JUMP JUMPDEST JUMP JUMPDEST PUSH0 DUP1 PUSH0 SWAP1 SLOAD SWAP1 PUSH2 0x100 EXP SWAP1 DIV PUSH20 0xFFFFFFFFFFFFFFFFFFFFFFFFFFFFFFFFFFFFFFFF AND SWAP1 POP SWAP1 JUMP JUMPDEST PUSH2 0x18B PUSH2 0x8F6 JUMP JUMPDEST PUSH0 PUSH1 0x1 PUSH0 DUP7 DUP2 MSTORE PUSH1 0x20 ADD SWAP1 DUP2 MSTORE PUSH1 0x20 ADD PUSH0 KECCAK256 PUSH1 0x1 ADD DUP1 SLOAD PUSH2 0x1AB SWAP1 PUSH2 0x121C JUMP JUMPDEST SWAP1 POP EQ PUSH2 0x1ED JUMPI PUSH1 0x40 MLOAD PUSH32 0x8C379A000000000000000000000000000000000000000000000000000000000 DUP2 MSTORE PUSH1 0x4 ADD PUSH2 0x1E4 SWAP1 PUSH2 0x12CC JUMP JUMPDEST PUSH1 0x40 MLOAD DUP1 SWAP2 SUB SWAP1 REVERT JUMPDEST PUSH1 0x40 MLOAD DUP1 PUSH1 0x80 ADD PUSH1 0x40 MSTORE DUP1 DUP6 DUP2 MSTORE PUSH1 0x20 ADD DUP5 DUP2 MSTORE PUSH1 0x20 ADD DUP4 DUP2 MSTORE PUSH1 0x20 ADD DUP3 DUP2 MSTORE POP PUSH1 0x1 PUSH0 DUP7 DUP2 MSTORE PUSH1 0x20 ADD SWAP1 DUP2 MSTORE PUSH1 0x20 ADD PUSH0 KECCAK256 PUSH0 DUP3 ADD MLOAD DUP2 PUSH0 ADD SSTORE PUSH1 0x20 DUP3 ADD MLOAD DUP2 PUSH1 0x1 ADD SWAP1 DUP2 PUSH2 0x23C SWAP2 SWAP1 PUSH2 0x1487 JUMP JUMPDEST POP PUSH1 0x40 DUP3 ADD MLOAD DUP2 PUSH1 0x2 ADD SWAP1 DUP2 PUSH2 0x252 SWAP2 SWAP1 PUSH2 0x1487 JUMP JUMPDEST POP PUSH1 0x60 DUP3 ADD MLOAD DUP2 PUSH1 0x3 ADD SWAP1 DUP1 MLOAD SWAP1 PUSH1 0x20 ADD SWAP1 PUSH2 0x26F SWAP3 SWAP2 SWAP1 PUSH2 0xA45 JUMP JUMPDEST POP SWAP1 POP POP PUSH1 0x2 DUP5 SWAP1 DUP1 PUSH1 0x1 DUP2 SLOAD ADD DUP1 DUP3 SSTORE DUP1 SWAP2 POP POP PUSH1 0x1 SWAP1 SUB SWAP1 PUSH0 MSTORE PUSH1 0x20 PUSH0 KECCAK256 ADD PUSH0 SWAP1 SWAP2 SWAP1 SWAP2 SWAP1 SWAP2 POP SSTORE POP POP POP POP JUMP JUMPDEST PUSH2 0x2A7 PUSH2 0x8F6 JUMP JUMPDEST PUSH0 PUSH1 0x1 PUSH0 DUP4 DUP2 MSTORE PUSH1 0x20 ADD SWAP1 DUP2 MSTORE PUSH1 0x20 ADD PUSH0 KECCAK256 PUSH1 0x1 ADD DUP1 SLOAD PUSH2 0x2C7 SWAP1 PUSH2 0x121C JUMP JUMPDEST SWAP1 POP SUB PUSH2 0x30B JUMPI DUP1 PUSH1 0x40 MLOAD PUSH32 0xF55DEC0000000000000000000000000000000000000000000000000000000000 DUP2 MSTORE PUSH1 0x4 ADD PUSH2 0x302 SWAP2 SWAP1 PUSH2 0x1565 JUMP JUMPDEST PUSH1 0x40 MLOAD DUP1 SWAP2 SUB SWAP1 REVERT JUMPDEST PUSH1 0x1 PUSH0 DUP3 DUP2 MSTORE PUSH1 0x20 ADD SWAP1 DUP2 MSTORE PUSH1 0x20 ADD PUSH0 KECCAK256 PUSH0 DUP1 DUP3 ADD PUSH0 SWAP1 SSTORE PUSH1 0x1 DUP3 ADD PUSH0 PUSH2 0x332 SWAP2 SWAP1 PUSH2 0xA90 JUMP JUMPDEST PUSH1 0x2 DUP3 ADD PUSH0 PUSH2 0x341 SWAP2 SWAP1 PUSH2 0xA90 JUMP JUMPDEST PUSH1 0x3 DUP3 ADD PUSH0 PUSH2 0x350 SWAP2 SWAP1 PUSH2 0xACD JUMP JUMPDEST POP POP PUSH0 JUMPDEST PUSH1 0x2 DUP1 SLOAD SWAP1 POP DUP2 LT ISZERO PUSH2 0x409 JUMPI DUP2 PUSH1 0x2 DUP3 DUP2 SLOAD DUP2 LT PUSH2 0x376 JUMPI PUSH2 0x375 PUSH2 0x157E JUMP JUMPDEST JUMPDEST SWAP1 PUSH0 MSTORE PUSH1 0x20 PUSH0 KECCAK256 ADD SLOAD SUB PUSH2 0x3FC JUMPI PUSH1 0x2 PUSH1 0x1 PUSH1 0x2 DUP1 SLOAD SWAP1 POP PUSH2 0x398 SWAP2 SWAP1 PUSH2 0x15D8 JUMP JUMPDEST DUP2 SLOAD DUP2 LT PUSH2 0x3A9 JUMPI PUSH2 0x3A8 PUSH2 0x157E JUMP JUMPDEST JUMPDEST SWAP1 PUSH0 MSTORE PUSH1 0x20 PUSH0 KECCAK256 ADD SLOAD PUSH1 0x2 DUP3 DUP2 SLOAD DUP2 LT PUSH2 0x3C6 JUMPI PUSH2 0x3C5 PUSH2 0x157E JUMP JUMPDEST JUMPDEST SWAP1 PUSH0 MSTORE PUSH1 0x20 PUSH0 KECCAK256 ADD DUP2 SWAP1 SSTORE POP PUSH1 0x2 DUP1 SLOAD DUP1 PUSH2 0x3E4 JUMPI PUSH2 0x3E3 PUSH2 0x160B JUMP JUMPDEST JUMPDEST PUSH1 0x1 SWAP1 SUB DUP2 DUP2 SWAP1 PUSH0 MSTORE PUSH1 0x20 PUSH0 KECCAK256 ADD PUSH0 SWAP1 SSTORE SWAP1 SSTORE PUSH2 0x409 JUMP JUMPDEST DUP1 DUP1 PUSH1 0x1 ADD SWAP2 POP POP PUSH2 0x354 JUMP JUMPDEST POP POP JUMP JUMPDEST PUSH2 0x415 PUSH2 0xAEB JUMP JUMPDEST PUSH0 PUSH1 0x1 PUSH0 DUP5 DUP2 MSTORE PUSH1 0x20 ADD SWAP1 DUP2 MSTORE PUSH1 0x20 ADD PUSH0 KECCAK256 PUSH1 0x1 ADD DUP1 SLOAD PUSH2 0x435 SWAP1 PUSH2 0x121C JUMP JUMPDEST SWAP1 POP SUB PUSH2 0x479 JUMPI DUP2 PUSH1 0x40 MLOAD PUSH32 0xF55DEC0000000000000000000000000000000000000000000000000000000000 DUP2 MSTORE PUSH1 0x4 ADD PUSH2 0x470 SWAP2 SWAP1 PUSH2 0x1565 JUMP JUMPDEST PUSH1 0x40 MLOAD DUP1 SWAP2 SUB SWAP1 REVERT JUMPDEST PUSH1 0x1 PUSH0 DUP4 DUP2 MSTORE PUSH1 0x20 ADD SWAP1 DUP2 MSTORE PUSH1 0x20 ADD PUSH0 KECCAK256 PUSH1 0x40 MLOAD DUP1 PUSH1 0x80 ADD PUSH1 0x40 MSTORE SWAP1 DUP2 PUSH0 DUP3 ADD SLOAD DUP2 MSTORE PUSH1 0x20 ADD PUSH1 0x1 DUP3 ADD DUP1 SLOAD PUSH2 0x4AE SWAP1 PUSH2 0x121C JUMP JUMPDEST DUP1 PUSH1 0x1F ADD PUSH1 0x20 DUP1 SWAP2 DIV MUL PUSH1 0x20 ADD PUSH1 0x40 MLOAD SWAP1 DUP2 ADD PUSH1 0x40 MSTORE DUP1 SWAP3 SWAP2 SWAP1 DUP2 DUP2 MSTORE PUSH1 0x20 ADD DUP3 DUP1 SLOAD PUSH2 0x4DA SWAP1 PUSH2 0x121C JUMP JUMPDEST DUP1 ISZERO PUSH2 0x525 JUMPI DUP1 PUSH1 0x1F LT PUSH2 0x4FC JUMPI PUSH2 0x100 DUP1 DUP4 SLOAD DIV MUL DUP4 MSTORE SWAP2 PUSH1 0x20 ADD SWAP2 PUSH2 0x525 JUMP JUMPDEST DUP3 ADD SWAP2 SWAP1 PUSH0 MSTORE PUSH1 0x20 PUSH0 KECCAK256 SWAP1 JUMPDEST DUP2 SLOAD DUP2 MSTORE SWAP1 PUSH1 0x1 ADD SWAP1 PUSH1 0x20 ADD DUP1 DUP4 GT PUSH2 0x508 JUMPI DUP3 SWAP1 SUB PUSH1 0x1F AND DUP3 ADD SWAP2 JUMPDEST POP POP POP POP POP DUP2 MSTORE PUSH1 0x20 ADD PUSH1 0x2 DUP3 ADD DUP1 SLOAD PUSH2 0x53E SWAP1 PUSH2 0x121C JUMP JUMPDEST DUP1 PUSH1 0x1F ADD PUSH1 0x20 DUP1 SWAP2 DIV MUL PUSH1 0x20 ADD PUSH1 0x40 MLOAD SWAP1 DUP2 ADD PUSH1 0x40 MSTORE DUP1 SWAP3 SWAP2 SWAP1 DUP2 DUP2 MSTORE PUSH1 0x20 ADD DUP3 DUP1 SLOAD PUSH2 0x56A SWAP1 PUSH2 0x121C JUMP JUMPDEST DUP1 ISZERO PUSH2 0x5B5 JUMPI DUP1 PUSH1 0x1F LT PUSH2 0x58C JUMPI PUSH2 0x100 DUP1 DUP4 SLOAD DIV MUL DUP4 MSTORE SWAP2 PUSH1 0x20 ADD SWAP2 PUSH2 0x5B5 JUMP JUMPDEST DUP3 ADD SWAP2 SWAP1 PUSH0 MSTORE PUSH1 0x20 PUSH0 KECCAK256 SWAP1 JUMPDEST DUP2 SLOAD DUP2 MSTORE SWAP1 PUSH1 0x1 ADD SWAP1 PUSH1 0x20 ADD DUP1 DUP4 GT PUSH2 0x598 JUMPI DUP3 SWAP1 SUB PUSH1 0x1F AND DUP3 ADD SWAP2 JUMPDEST POP POP POP POP POP DUP2 MSTORE PUSH1 0x20 ADD PUSH1 0x3 DUP3 ADD DUP1 SLOAD DUP1 PUSH1 0x20 MUL PUSH1 0x20 ADD PUSH1 0x40 MLOAD SWAP1 DUP2 ADD PUSH1 0x40 MSTORE DUP1 SWAP3 SWAP2 SWAP1 DUP2 DUP2 MSTORE PUSH1 0x20 ADD DUP3 DUP1 SLOAD DUP1 ISZERO PUSH2 0x60B JUMPI PUSH1 0x20 MUL DUP3 ADD SWAP2 SWAP1 PUSH0 MSTORE PUSH1 0x20 PUSH0 KECCAK256 SWAP1 JUMPDEST DUP2 SLOAD DUP2 MSTORE PUSH1 0x20 ADD SWAP1 PUSH1 0x1 ADD SWAP1 DUP1 DUP4 GT PUSH2 0x5F7 JUMPI JUMPDEST POP POP POP POP POP DUP2 MSTORE POP POP SWAP1 POP SWAP2 SWAP1 POP JUMP JUMPDEST PUSH1 0x60 PUSH0 PUSH1 0x2 DUP1 SLOAD SWAP1 POP PUSH8 0xFFFFFFFFFFFFFFFF DUP2 GT ISZERO PUSH2 0x63D JUMPI PUSH2 0x63C PUSH2 0xBE1 JUMP JUMPDEST JUMPDEST PUSH1 0x40 MLOAD SWAP1 DUP1 DUP3 MSTORE DUP1 PUSH1 0x20 MUL PUSH1 0x20 ADD DUP3 ADD PUSH1 0x40 MSTORE DUP1 ISZERO PUSH2 0x676 JUMPI DUP2 PUSH1 0x20 ADD JUMPDEST PUSH2 0x663 PUSH2 0xAEB JUMP JUMPDEST DUP2 MSTORE PUSH1 0x20 ADD SWAP1 PUSH1 0x1 SWAP1 SUB SWAP1 DUP2 PUSH2 0x65B JUMPI SWAP1 POP JUMPDEST POP SWAP1 POP PUSH0 JUMPDEST PUSH1 0x2 DUP1 SLOAD SWAP1 POP DUP2 LT ISZERO PUSH2 0x86A JUMPI PUSH1 0x1 PUSH0 PUSH1 0x2 DUP4 DUP2 SLOAD DUP2 LT PUSH2 0x69F JUMPI PUSH2 0x69E PUSH2 0x157E JUMP JUMPDEST JUMPDEST SWAP1 PUSH0 MSTORE PUSH1 0x20 PUSH0 KECCAK256 ADD SLOAD DUP2 MSTORE PUSH1 0x20 ADD SWAP1 DUP2 MSTORE PUSH1 0x20 ADD PUSH0 KECCAK256 PUSH1 0x40 MLOAD DUP1 PUSH1 0x80 ADD PUSH1 0x40 MSTORE SWAP1 DUP2 PUSH0 DUP3 ADD SLOAD DUP2 MSTORE PUSH1 0x20 ADD PUSH1 0x1 DUP3 ADD DUP1 SLOAD PUSH2 0x6D9 SWAP1 PUSH2 0x121C JUMP JUMPDEST DUP1 PUSH1 0x1F ADD PUSH1 0x20 DUP1 SWAP2 DIV MUL PUSH1 0x20 ADD PUSH1 0x40 MLOAD SWAP1 DUP2 ADD PUSH1 0x40 MSTORE DUP1 SWAP3 SWAP2 SWAP1 DUP2 DUP2 MSTORE PUSH1 0x20 ADD DUP3 DUP1 SLOAD PUSH2 0x705 SWAP1 PUSH2 0x121C JUMP JUMPDEST DUP1 ISZERO PUSH2 0x750 JUMPI DUP1 PUSH1 0x1F LT PUSH2 0x727 JUMPI PUSH2 0x100 DUP1 DUP4 SLOAD DIV MUL DUP4 MSTORE SWAP2 PUSH1 0x20 ADD SWAP2 PUSH2 0x750 JUMP JUMPDEST DUP3 ADD SWAP2 SWAP1 PUSH0 MSTORE PUSH1 0x20 PUSH0 KECCAK256 SWAP1 JUMPDEST DUP2 SLOAD DUP2 MSTORE SWAP1 PUSH1 0x1 ADD SWAP1 PUSH1 0x20 ADD DUP1 DUP4 GT PUSH2 0x733 JUMPI DUP3 SWAP1 SUB PUSH1 0x1F AND DUP3 ADD SWAP2 JUMPDEST POP POP POP POP POP DUP2 MSTORE PUSH1 0x20 ADD PUSH1 0x2 DUP3 ADD DUP1 SLOAD PUSH2 0x769 SWAP1 PUSH2 0x121C JUMP JUMPDEST DUP1 PUSH1 0x1F ADD PUSH1 0x20 DUP1 SWAP2 DIV MUL PUSH1 0x20 ADD PUSH1 0x40 MLOAD SWAP1 DUP2 ADD PUSH1 0x40 MSTORE DUP1 SWAP3 SWAP2 SWAP1 DUP2 DUP2 MSTORE PUSH1 0x20 ADD DUP3 DUP1 SLOAD PUSH2 0x795 SWAP1 PUSH2 0x121C JUMP JUMPDEST DUP1 ISZERO PUSH2 0x7E0 JUMPI DUP1 PUSH1 0x1F LT PUSH2 0x7B7 JUMPI PUSH2 0x100 DUP1 DUP4 SLOAD DIV MUL DUP4 MSTORE SWAP2 PUSH1 0x20 ADD SWAP2 PUSH2 0x7E0 JUMP JUMPDEST DUP3 ADD SWAP2 SWAP1 PUSH0 MSTORE PUSH1 0x20 PUSH0 KECCAK256 SWAP1 JUMPDEST DUP2 SLOAD DUP2 MSTORE SWAP1 PUSH1 0x1 ADD SWAP1 PUSH1 0x20 ADD DUP1 DUP4 GT PUSH2 0x7C3 JUMPI DUP3 SWAP1 SUB PUSH1 0x1F AND DUP3 ADD SWAP2 JUMPDEST POP POP POP POP POP DUP2 MSTORE PUSH1 0x20 ADD PUSH1 0x3 DUP3 ADD DUP1 SLOAD DUP1 PUSH1 0x20 MUL PUSH1 0x20 ADD PUSH1 0x40 MLOAD SWAP1 DUP2 ADD PUSH1 0x40 MSTORE DUP1 SWAP3 SWAP2 SWAP1 DUP2 DUP2 MSTORE PUSH1 0x20 ADD DUP3 DUP1 SLOAD DUP1 ISZERO PUSH2 0x836 JUMPI PUSH1 0x20 MUL DUP3 ADD SWAP2 SWAP1 PUSH0 MSTORE PUSH1 0x20 PUSH0 KECCAK256 SWAP1 JUMPDEST DUP2 SLOAD DUP2 MSTORE PUSH1 0x20 ADD SWAP1 PUSH1 0x1 ADD SWAP1 DUP1 DUP4 GT PUSH2 0x822 JUMPI JUMPDEST POP POP POP POP POP DUP2 MSTORE POP POP DUP3 DUP3 DUP2 MLOAD DUP2 LT PUSH2 0x852 JUMPI PUSH2 0x851 PUSH2 0x157E JUMP JUMPDEST JUMPDEST PUSH1 0x20 MUL PUSH1 0x20 ADD ADD DUP2 SWAP1 MSTORE POP DUP1 DUP1 PUSH1 0x1 ADD SWAP2 POP POP PUSH2 0x67B JUMP JUMPDEST POP DUP1 SWAP2 POP POP SWAP1 JUMP JUMPDEST PUSH2 0x87A PUSH2 0x8F6 JUMP JUMPDEST PUSH0 PUSH20 0xFFFFFFFFFFFFFFFFFFFFFFFFFFFFFFFFFFFFFFFF AND DUP2 PUSH20 0xFFFFFFFFFFFFFFFFFFFFFFFFFFFFFFFFFFFFFFFF AND SUB PUSH2 0x8EA JUMPI PUSH0 PUSH1 0x40 MLOAD PUSH32 0x1E4FBDF700000000000000000000000000000000000000000000000000000000 DUP2 MSTORE PUSH1 0x4 ADD PUSH2 0x8E1 SWAP2 SWAP1 PUSH2 0xB6C JUMP JUMPDEST PUSH1 0x40 MLOAD DUP1 SWAP2 SUB SWAP1 REVERT JUMPDEST PUSH2 0x8F3 DUP2 PUSH2 0x97D JUMP JUMPDEST POP JUMP JUMPDEST PUSH2 0x8FE PUSH2 0xA3E JUMP JUMPDEST PUSH20 0xFFFFFFFFFFFFFFFFFFFFFFFFFFFFFFFFFFFFFFFF AND PUSH2 0x91C PUSH2 0x15C JUMP JUMPDEST PUSH20 0xFFFFFFFFFFFFFFFFFFFFFFFFFFFFFFFFFFFFFFFF AND EQ PUSH2 0x97B JUMPI PUSH2 0x93F PUSH2 0xA3E JUMP JUMPDEST PUSH1 0x40 MLOAD PUSH32 0x118CDAA700000000000000000000000000000000000000000000000000000000 DUP2 MSTORE PUSH1 0x4 ADD PUSH2 0x972 SWAP2 SWAP1 PUSH2 0xB6C JUMP JUMPDEST PUSH1 0x40 MLOAD DUP1 SWAP2 SUB SWAP1 REVERT JUMPDEST JUMP JUMPDEST PUSH0 DUP1 PUSH0 SWAP1 SLOAD SWAP1 PUSH2 0x100 EXP SWAP1 DIV PUSH20 0xFFFFFFFFFFFFFFFFFFFFFFFFFFFFFFFFFFFFFFFF AND SWAP1 POP DUP2 PUSH0 DUP1 PUSH2 0x100 EXP DUP2 SLOAD DUP2 PUSH20 0xFFFFFFFFFFFFFFFFFFFFFFFFFFFFFFFFFFFFFFFF MUL NOT AND SWAP1 DUP4 PUSH20 0xFFFFFFFFFFFFFFFFFFFFFFFFFFFFFFFFFFFFFFFF AND MUL OR SWAP1 SSTORE POP DUP2 PUSH20 0xFFFFFFFFFFFFFFFFFFFFFFFFFFFFFFFFFFFFFFFF AND DUP2 PUSH20 0xFFFFFFFFFFFFFFFFFFFFFFFFFFFFFFFFFFFFFFFF AND PUSH32 0x8BE0079C531659141344CD1FD0A4F28419497F9722A3DAAFE3B4186F6B6457E0 PUSH1 0x40 MLOAD PUSH1 0x40 MLOAD DUP1 SWAP2 SUB SWAP1 LOG3 POP POP JUMP JUMPDEST PUSH0 CALLER SWAP1 POP SWAP1 JUMP JUMPDEST DUP3 DUP1 SLOAD DUP3 DUP3 SSTORE SWAP1 PUSH0 MSTORE PUSH1 0x20 PUSH0 KECCAK256 SWAP1 DUP2 ADD SWAP3 DUP3 ISZERO PUSH2 0xA7F JUMPI SWAP2 PUSH1 0x20 MUL DUP3 ADD JUMPDEST DUP3 DUP2 GT ISZERO PUSH2 0xA7E JUMPI DUP3 MLOAD DUP3 SSTORE SWAP2 PUSH1 0x20 ADD SWAP2 SWAP1 PUSH1 0x1 ADD SWAP1 PUSH2 0xA63 JUMP JUMPDEST JUMPDEST POP SWAP1 POP PUSH2 0xA8C SWAP2 SWAP1 PUSH2 0xB12 JUMP JUMPDEST POP SWAP1 JUMP JUMPDEST POP DUP1 SLOAD PUSH2 0xA9C SWAP1 PUSH2 0x121C JUMP JUMPDEST PUSH0 DUP3 SSTORE DUP1 PUSH1 0x1F LT PUSH2 0xAAD JUMPI POP PUSH2 0xACA JUMP JUMPDEST PUSH1 0x1F ADD PUSH1 0x20 SWAP1 DIV SWAP1 PUSH0 MSTORE PUSH1 0x20 PUSH0 KECCAK256 SWAP1 DUP2 ADD SWAP1 PUSH2 0xAC9 SWAP2 SWAP1 PUSH2 0xB12 JUMP JUMPDEST JUMPDEST POP JUMP JUMPDEST POP DUP1 SLOAD PUSH0 DUP3 SSTORE SWAP1 PUSH0 MSTORE PUSH1 0x20 PUSH0 KECCAK256 SWAP1 DUP2 ADD SWAP1 PUSH2 0xAE8 SWAP2 SWAP1 PUSH2 0xB12 JUMP JUMPDEST POP JUMP JUMPDEST PUSH1 0x40 MLOAD DUP1 PUSH1 0x80 ADD PUSH1 0x40 MSTORE DUP1 PUSH0 DUP2 MSTORE PUSH1 0x20 ADD PUSH1 0x60 DUP2 MSTORE PUSH1 0x20 ADD PUSH1 0x60 DUP2 MSTORE PUSH1 0x20 ADD PUSH1 0x60 DUP2 MSTORE POP SWAP1 JUMP JUMPDEST JUMPDEST DUP1 DUP3 GT ISZERO PUSH2 0xB29 JUMPI PUSH0 DUP2 PUSH0 SWAP1 SSTORE POP PUSH1 0x1 ADD PUSH2 0xB13 JUMP JUMPDEST POP SWAP1 JUMP JUMPDEST PUSH0 PUSH20 0xFFFFFFFFFFFFFFFFFFFFFFFFFFFFFFFFFFFFFFFF DUP3 AND SWAP1 POP SWAP2 SWAP1 POP JUMP JUMPDEST PUSH0 PUSH2 0xB56 DUP3 PUSH2 0xB2D JUMP JUMPDEST SWAP1 POP SWAP2 SWAP1 POP JUMP JUMPDEST PUSH2 0xB66 DUP2 PUSH2 0xB4C JUMP JUMPDEST DUP3 MSTORE POP POP JUMP JUMPDEST PUSH0 PUSH1 0x20 DUP3 ADD SWAP1 POP PUSH2 0xB7F PUSH0 DUP4 ADD DUP5 PUSH2 0xB5D JUMP JUMPDEST SWAP3 SWAP2 POP POP JUMP JUMPDEST PUSH0 PUSH1 0x40 MLOAD SWAP1 POP SWAP1 JUMP JUMPDEST PUSH0 DUP1 REVERT JUMPDEST PUSH0 DUP1 REVERT JUMPDEST PUSH0 DUP2 SWAP1 POP SWAP2 SWAP1 POP JUMP JUMPDEST PUSH2 0xBA8 DUP2 PUSH2 0xB96 JUMP JUMPDEST DUP2 EQ PUSH2 0xBB2 JUMPI PUSH0 DUP1 REVERT JUMPDEST POP JUMP JUMPDEST PUSH0 DUP2 CALLDATALOAD SWAP1 POP PUSH2 0xBC3 DUP2 PUSH2 0xB9F JUMP JUMPDEST SWAP3 SWAP2 POP POP JUMP JUMPDEST PUSH0 DUP1 REVERT JUMPDEST PUSH0 DUP1 REVERT JUMPDEST PUSH0 PUSH1 0x1F NOT PUSH1 0x1F DUP4 ADD AND SWAP1 POP SWAP2 SWAP1 POP JUMP JUMPDEST PUSH32 0x4E487B7100000000000000000000000000000000000000000000000000000000 PUSH0 MSTORE PUSH1 0x41 PUSH1 0x4 MSTORE PUSH1 0x24 PUSH0 REVERT JUMPDEST PUSH2 0xC17 DUP3 PUSH2 0xBD1 JUMP JUMPDEST DUP2 ADD DUP2 DUP2 LT PUSH8 0xFFFFFFFFFFFFFFFF DUP3 GT OR ISZERO PUSH2 0xC36 JUMPI PUSH2 0xC35 PUSH2 0xBE1 JUMP JUMPDEST JUMPDEST DUP1 PUSH1 0x40 MSTORE POP POP POP JUMP JUMPDEST PUSH0 PUSH2 0xC48 PUSH2 0xB85 JUMP JUMPDEST SWAP1 POP PUSH2 0xC54 DUP3 DUP3 PUSH2 0xC0E JUMP JUMPDEST SWAP2 SWAP1 POP JUMP JUMPDEST PUSH0 PUSH8 0xFFFFFFFFFFFFFFFF DUP3 GT ISZERO PUSH2 0xC73 JUMPI PUSH2 0xC72 PUSH2 0xBE1 JUMP JUMPDEST JUMPDEST PUSH2 0xC7C DUP3 PUSH2 0xBD1 JUMP JUMPDEST SWAP1 POP PUSH1 0x20 DUP2 ADD SWAP1 POP SWAP2 SWAP1 POP JUMP JUMPDEST DUP3 DUP2 DUP4 CALLDATACOPY PUSH0 DUP4 DUP4 ADD MSTORE POP POP POP JUMP JUMPDEST PUSH0 PUSH2 0xCA9 PUSH2 0xCA4 DUP5 PUSH2 0xC59 JUMP JUMPDEST PUSH2 0xC3F JUMP JUMPDEST SWAP1 POP DUP3 DUP2 MSTORE PUSH1 0x20 DUP2 ADD DUP5 DUP5 DUP5 ADD GT ISZERO PUSH2 0xCC5 JUMPI PUSH2 0xCC4 PUSH2 0xBCD JUMP JUMPDEST JUMPDEST PUSH2 0xCD0 DUP5 DUP3 DUP6 PUSH2 0xC89 JUMP JUMPDEST POP SWAP4 SWAP3 POP POP POP JUMP JUMPDEST PUSH0 DUP3 PUSH1 0x1F DUP4 ADD SLT PUSH2 0xCEC JUMPI PUSH2 0xCEB PUSH2 0xBC9 JUMP JUMPDEST JUMPDEST DUP2 CALLDATALOAD PUSH2 0xCFC DUP5 DUP3 PUSH1 0x20 DUP7 ADD PUSH2 0xC97 JUMP JUMPDEST SWAP2 POP POP SWAP3 SWAP2 POP POP JUMP JUMPDEST PUSH0 PUSH8 0xFFFFFFFFFFFFFFFF DUP3 GT ISZERO PUSH2 0xD1F JUMPI PUSH2 0xD1E PUSH2 0xBE1 JUMP JUMPDEST JUMPDEST PUSH1 0x20 DUP3 MUL SWAP1 POP PUSH1 0x20 DUP2 ADD SWAP1 POP SWAP2 SWAP1 POP JUMP JUMPDEST PUSH0 DUP1 REVERT JUMPDEST PUSH0 PUSH2 0xD46 PUSH2 0xD41 DUP5 PUSH2 0xD05 JUMP JUMPDEST PUSH2 0xC3F JUMP JUMPDEST SWAP1 POP DUP1 DUP4 DUP3 MSTORE PUSH1 0x20 DUP3 ADD SWAP1 POP PUSH1 0x20 DUP5 MUL DUP4 ADD DUP6 DUP2 GT ISZERO PUSH2 0xD69 JUMPI PUSH2 0xD68 PUSH2 0xD30 JUMP JUMPDEST JUMPDEST DUP4 JUMPDEST DUP2 DUP2 LT ISZERO PUSH2 0xD92 JUMPI DUP1 PUSH2 0xD7E DUP9 DUP3 PUSH2 0xBB5 JUMP JUMPDEST DUP5 MSTORE PUSH1 0x20 DUP5 ADD SWAP4 POP POP PUSH1 0x20 DUP2 ADD SWAP1 POP PUSH2 0xD6B JUMP JUMPDEST POP POP POP SWAP4 SWAP3 POP POP POP JUMP JUMPDEST PUSH0 DUP3 PUSH1 0x1F DUP4 ADD SLT PUSH2 0xDB0 JUMPI PUSH2 0xDAF PUSH2 0xBC9 JUMP JUMPDEST JUMPDEST DUP2 CALLDATALOAD PUSH2 0xDC0 DUP5 DUP3 PUSH1 0x20 DUP7 ADD PUSH2 0xD34 JUMP JUMPDEST SWAP2 POP POP SWAP3 SWAP2 POP POP JUMP JUMPDEST PUSH0 DUP1 PUSH0 DUP1 PUSH1 0x80 DUP6 DUP8 SUB SLT ISZERO PUSH2 0xDE1 JUMPI PUSH2 0xDE0 PUSH2 0xB8E JUMP JUMPDEST JUMPDEST PUSH0 PUSH2 0xDEE DUP8 DUP3 DUP9 ADD PUSH2 0xBB5 JUMP JUMPDEST SWAP5 POP POP PUSH1 0x20 DUP6 ADD CALLDATALOAD PUSH8 0xFFFFFFFFFFFFFFFF DUP2 GT ISZERO PUSH2 0xE0F JUMPI PUSH2 0xE0E PUSH2 0xB92 JUMP JUMPDEST JUMPDEST PUSH2 0xE1B DUP8 DUP3 DUP9 ADD PUSH2 0xCD8 JUMP JUMPDEST SWAP4 POP POP PUSH1 0x40 DUP6 ADD CALLDATALOAD PUSH8 0xFFFFFFFFFFFFFFFF DUP2 GT ISZERO PUSH2 0xE3C JUMPI PUSH2 0xE3B PUSH2 0xB92 JUMP JUMPDEST JUMPDEST PUSH2 0xE48 DUP8 DUP3 DUP9 ADD PUSH2 0xCD8 JUMP JUMPDEST SWAP3 POP POP PUSH1 0x60 DUP6 ADD CALLDATALOAD PUSH8 0xFFFFFFFFFFFFFFFF DUP2 GT ISZERO PUSH2 0xE69 JUMPI PUSH2 0xE68 PUSH2 0xB92 JUMP JUMPDEST JUMPDEST PUSH2 0xE75 DUP8 DUP3 DUP9 ADD PUSH2 0xD9C JUMP JUMPDEST SWAP2 POP POP SWAP3 SWAP6 SWAP2 SWAP5 POP SWAP3 POP JUMP JUMPDEST PUSH0 PUSH1 0x20 DUP3 DUP5 SUB SLT ISZERO PUSH2 0xE96 JUMPI PUSH2 0xE95 PUSH2 0xB8E JUMP JUMPDEST JUMPDEST PUSH0 PUSH2 0xEA3 DUP5 DUP3 DUP6 ADD PUSH2 0xBB5 JUMP JUMPDEST SWAP2 POP POP SWAP3 SWAP2 POP POP JUMP JUMPDEST PUSH2 0xEB5 DUP2 PUSH2 0xB96 JUMP JUMPDEST DUP3 MSTORE POP POP JUMP JUMPDEST PUSH0 DUP2 MLOAD SWAP1 POP SWAP2 SWAP1 POP JUMP JUMPDEST PUSH0 DUP3 DUP3 MSTORE PUSH1 0x20 DUP3 ADD SWAP1 POP SWAP3 SWAP2 POP POP JUMP JUMPDEST DUP3 DUP2 DUP4 MCOPY PUSH0 DUP4 DUP4 ADD MSTORE POP POP POP JUMP JUMPDEST PUSH0 PUSH2 0xEED DUP3 PUSH2 0xEBB JUMP JUMPDEST PUSH2 0xEF7 DUP2 DUP6 PUSH2 0xEC5 JUMP JUMPDEST SWAP4 POP PUSH2 0xF07 DUP2 DUP6 PUSH1 0x20 DUP7 ADD PUSH2 0xED5 JUMP JUMPDEST PUSH2 0xF10 DUP2 PUSH2 0xBD1 JUMP JUMPDEST DUP5 ADD SWAP2 POP POP SWAP3 SWAP2 POP POP JUMP JUMPDEST PUSH0 DUP2 MLOAD SWAP1 POP SWAP2 SWAP1 POP JUMP JUMPDEST PUSH0 DUP3 DUP3 MSTORE PUSH1 0x20 DUP3 ADD SWAP1 POP SWAP3 SWAP2 POP POP JUMP JUMPDEST PUSH0 DUP2 SWAP1 POP PUSH1 0x20 DUP3 ADD SWAP1 POP SWAP2 SWAP1 POP JUMP JUMPDEST PUSH0 PUSH2 0xF4F DUP4 DUP4 PUSH2 0xEAC JUMP JUMPDEST PUSH1 0x20 DUP4 ADD SWAP1 POP SWAP3 SWAP2 POP POP JUMP JUMPDEST PUSH0 PUSH1 0x20 DUP3 ADD SWAP1 POP SWAP2 SWAP1 POP JUMP JUMPDEST PUSH0 PUSH2 0xF71 DUP3 PUSH2 0xF1B JUMP JUMPDEST PUSH2 0xF7B DUP2 DUP6 PUSH2 0xF25 JUMP JUMPDEST SWAP4 POP PUSH2 0xF86 DUP4 PUSH2 0xF35 JUMP JUMPDEST DUP1 PUSH0 JUMPDEST DUP4 DUP2 LT ISZERO PUSH2 0xFB6 JUMPI DUP2 MLOAD PUSH2 0xF9D DUP9 DUP3 PUSH2 0xF44 JUMP JUMPDEST SWAP8 POP PUSH2 0xFA8 DUP4 PUSH2 0xF5B JUMP JUMPDEST SWAP3 POP POP PUSH1 0x1 DUP2 ADD SWAP1 POP PUSH2 0xF89 JUMP JUMPDEST POP DUP6 SWAP4 POP POP POP POP SWAP3 SWAP2 POP POP JUMP JUMPDEST PUSH0 PUSH1 0x80 DUP4 ADD PUSH0 DUP4 ADD MLOAD PUSH2 0xFD8 PUSH0 DUP7 ADD DUP3 PUSH2 0xEAC JUMP JUMPDEST POP PUSH1 0x20 DUP4 ADD MLOAD DUP5 DUP3 SUB PUSH1 0x20 DUP7 ADD MSTORE PUSH2 0xFF0 DUP3 DUP3 PUSH2 0xEE3 JUMP JUMPDEST SWAP2 POP POP PUSH1 0x40 DUP4 ADD MLOAD DUP5 DUP3 SUB PUSH1 0x40 DUP7 ADD MSTORE PUSH2 0x100A DUP3 DUP3 PUSH2 0xEE3 JUMP JUMPDEST SWAP2 POP POP PUSH1 0x60 DUP4 ADD MLOAD DUP5 DUP3 SUB PUSH1 0x60 DUP7 ADD MSTORE PUSH2 0x1024 DUP3 DUP3 PUSH2 0xF67 JUMP JUMPDEST SWAP2 POP POP DUP1 SWAP2 POP POP SWAP3 SWAP2 POP POP JUMP JUMPDEST PUSH0 PUSH1 0x20 DUP3 ADD SWAP1 POP DUP2 DUP2 SUB PUSH0 DUP4 ADD MSTORE PUSH2 0x1049 DUP2 DUP5 PUSH2 0xFC3 JUMP JUMPDEST SWAP1 POP SWAP3 SWAP2 POP POP JUMP JUMPDEST PUSH0 DUP2 MLOAD SWAP1 POP SWAP2 SWAP1 POP JUMP JUMPDEST PUSH0 DUP3 DUP3 MSTORE PUSH1 0x20 DUP3 ADD SWAP1 POP SWAP3 SWAP2 POP POP JUMP JUMPDEST PUSH0 DUP2 SWAP1 POP PUSH1 0x20 DUP3 ADD SWAP1 POP SWAP2 SWAP1 POP JUMP JUMPDEST PUSH0 PUSH1 0x80 DUP4 ADD PUSH0 DUP4 ADD MLOAD PUSH2 0x108F PUSH0 DUP7 ADD DUP3 PUSH2 0xEAC JUMP JUMPDEST POP PUSH1 0x20 DUP4 ADD MLOAD DUP5 DUP3 SUB PUSH1 0x20 DUP7 ADD MSTORE PUSH2 0x10A7 DUP3 DUP3 PUSH2 0xEE3 JUMP JUMPDEST SWAP2 POP POP PUSH1 0x40 DUP4 ADD MLOAD DUP5 DUP3 SUB PUSH1 0x40 DUP7 ADD MSTORE PUSH2 0x10C1 DUP3 DUP3 PUSH2 0xEE3 JUMP JUMPDEST SWAP2 POP POP PUSH1 0x60 DUP4 ADD MLOAD DUP5 DUP3 SUB PUSH1 0x60 DUP7 ADD MSTORE PUSH2 0x10DB DUP3 DUP3 PUSH2 0xF67 JUMP JUMPDEST SWAP2 POP POP DUP1 SWAP2 POP POP SWAP3 SWAP2 POP POP JUMP JUMPDEST PUSH0 PUSH2 0x10F3 DUP4 DUP4 PUSH2 0x107A JUMP JUMPDEST SWAP1 POP SWAP3 SWAP2 POP POP JUMP JUMPDEST PUSH0 PUSH1 0x20 DUP3 ADD SWAP1 POP SWAP2 SWAP1 POP JUMP JUMPDEST PUSH0 PUSH2 0x1111 DUP3 PUSH2 0x1051 JUMP JUMPDEST PUSH2 0x111B DUP2 DUP6 PUSH2 0x105B JUMP JUMPDEST SWAP4 POP DUP4 PUSH1 0x20 DUP3 MUL DUP6 ADD PUSH2 0x112D DUP6 PUSH2 0x106B JUMP JUMPDEST DUP1 PUSH0 JUMPDEST DUP6 DUP2 LT ISZERO PUSH2 0x1168 JUMPI DUP5 DUP5 SUB DUP10 MSTORE DUP2 MLOAD PUSH2 0x1149 DUP6 DUP3 PUSH2 0x10E8 JUMP JUMPDEST SWAP5 POP PUSH2 0x1154 DUP4 PUSH2 0x10FB JUMP JUMPDEST SWAP3 POP PUSH1 0x20 DUP11 ADD SWAP10 POP POP PUSH1 0x1 DUP2 ADD SWAP1 POP PUSH2 0x1130 JUMP JUMPDEST POP DUP3 SWAP8 POP DUP8 SWAP6 POP POP POP POP POP POP SWAP3 SWAP2 POP POP JUMP JUMPDEST PUSH0 PUSH1 0x20 DUP3 ADD SWAP1 POP DUP2 DUP2 SUB PUSH0 DUP4 ADD MSTORE PUSH2 0x1192 DUP2 DUP5 PUSH2 0x1107 JUMP JUMPDEST SWAP1 POP SWAP3 SWAP2 POP POP JUMP JUMPDEST PUSH2 0x11A3 DUP2 PUSH2 0xB4C JUMP JUMPDEST DUP2 EQ PUSH2 0x11AD JUMPI PUSH0 DUP1 REVERT JUMPDEST POP JUMP JUMPDEST PUSH0 DUP2 CALLDATALOAD SWAP1 POP PUSH2 0x11BE DUP2 PUSH2 0x119A JUMP JUMPDEST SWAP3 SWAP2 POP POP JUMP JUMPDEST PUSH0 PUSH1 0x20 DUP3 DUP5 SUB SLT ISZERO PUSH2 0x11D9 JUMPI PUSH2 0x11D8 PUSH2 0xB8E JUMP JUMPDEST JUMPDEST PUSH0 PUSH2 0x11E6 DUP5 DUP3 DUP6 ADD PUSH2 0x11B0 JUMP JUMPDEST SWAP2 POP POP SWAP3 SWAP2 POP POP JUMP JUMPDEST PUSH32 0x4E487B7100000000000000000000000000000000000000000000000000000000 PUSH0 MSTORE PUSH1 0x22 PUSH1 0x4 MSTORE PUSH1 0x24 PUSH0 REVERT JUMPDEST PUSH0 PUSH1 0x2 DUP3 DIV SWAP1 POP PUSH1 0x1 DUP3 AND DUP1 PUSH2 0x1233 JUMPI PUSH1 0x7F DUP3 AND SWAP2 POP JUMPDEST PUSH1 0x20 DUP3 LT DUP2 SUB PUSH2 0x1246 JUMPI PUSH2 0x1245 PUSH2 0x11EF JUMP JUMPDEST JUMPDEST POP SWAP2 SWAP1 POP JUMP JUMPDEST PUSH0 DUP3 DUP3 MSTORE PUSH1 0x20 DUP3 ADD SWAP1 POP SWAP3 SWAP2 POP POP JUMP JUMPDEST PUSH32 0x436F6E746163742077697468207468697320494420616C726561647920657869 PUSH0 DUP3 ADD MSTORE PUSH32 0x7374730000000000000000000000000000000000000000000000000000000000 PUSH1 0x20 DUP3 ADD MSTORE POP JUMP JUMPDEST PUSH0 PUSH2 0x12B6 PUSH1 0x23 DUP4 PUSH2 0x124C JUMP JUMPDEST SWAP2 POP PUSH2 0x12C1 DUP3 PUSH2 0x125C JUMP JUMPDEST PUSH1 0x40 DUP3 ADD SWAP1 POP SWAP2 SWAP1 POP JUMP JUMPDEST PUSH0 PUSH1 0x20 DUP3 ADD SWAP1 POP DUP2 DUP2 SUB PUSH0 DUP4 ADD MSTORE PUSH2 0x12E3 DUP2 PUSH2 0x12AA JUMP JUMPDEST SWAP1 POP SWAP2 SWAP1 POP JUMP JUMPDEST PUSH0 DUP2 SWAP1 POP DUP2 PUSH0 MSTORE PUSH1 0x20 PUSH0 KECCAK256 SWAP1 POP SWAP2 SWAP1 POP JUMP JUMPDEST PUSH0 PUSH1 0x20 PUSH1 0x1F DUP4 ADD DIV SWAP1 POP SWAP2 SWAP1 POP JUMP JUMPDEST PUSH0 DUP3 DUP3 SHL SWAP1 POP SWAP3 SWAP2 POP POP JUMP JUMPDEST PUSH0 PUSH1 0x8 DUP4 MUL PUSH2 0x1346 PUSH32 0xFFFFFFFFFFFFFFFFFFFFFFFFFFFFFFFFFFFFFFFFFFFFFFFFFFFFFFFFFFFFFFFF DUP3 PUSH2 0x130B JUMP JUMPDEST PUSH2 0x1350 DUP7 DUP4 PUSH2 0x130B JUMP JUMPDEST SWAP6 POP DUP1 NOT DUP5 AND SWAP4 POP DUP1 DUP7 AND DUP5 OR SWAP3 POP POP POP SWAP4 SWAP3 POP POP POP JUMP JUMPDEST PUSH0 DUP2 SWAP1 POP SWAP2 SWAP1 POP JUMP JUMPDEST PUSH0 PUSH2 0x138B PUSH2 0x1386 PUSH2 0x1381 DUP5 PUSH2 0xB96 JUMP JUMPDEST PUSH2 0x1368 JUMP JUMPDEST PUSH2 0xB96 JUMP JUMPDEST SWAP1 POP SWAP2 SWAP1 POP JUMP JUMPDEST PUSH0 DUP2 SWAP1 POP SWAP2 SWAP1 POP JUMP JUMPDEST PUSH2 0x13A4 DUP4 PUSH2 0x1371 JUMP JUMPDEST PUSH2 0x13B8 PUSH2 0x13B0 DUP3 PUSH2 0x1392 JUMP JUMPDEST DUP5 DUP5 SLOAD PUSH2 0x1317 JUMP JUMPDEST DUP3 SSTORE POP POP POP POP JUMP JUMPDEST PUSH0 SWAP1 JUMP JUMPDEST PUSH2 0x13CC PUSH2 0x13C0 JUMP JUMPDEST PUSH2 0x13D7 DUP2 DUP5 DUP5 PUSH2 0x139B JUMP JUMPDEST POP POP POP JUMP JUMPDEST JUMPDEST DUP2 DUP2 LT ISZERO PUSH2 0x13FA JUMPI PUSH2 0x13EF PUSH0 DUP3 PUSH2 0x13C4 JUMP JUMPDEST PUSH1 0x1 DUP2 ADD SWAP1 POP PUSH2 0x13DD JUMP JUMPDEST POP POP JUMP JUMPDEST PUSH1 0x1F DUP3 GT ISZERO PUSH2 0x143F JUMPI PUSH2 0x1410 DUP2 PUSH2 0x12EA JUMP JUMPDEST PUSH2 0x1419 DUP5 PUSH2 0x12FC JUMP JUMPDEST DUP2 ADD PUSH1 0x20 DUP6 LT ISZERO PUSH2 0x1428 JUMPI DUP2 SWAP1 POP JUMPDEST PUSH2 0x143C PUSH2 0x1434 DUP6 PUSH2 0x12FC JUMP JUMPDEST DUP4 ADD DUP3 PUSH2 0x13DC JUMP JUMPDEST POP POP JUMPDEST POP POP POP JUMP JUMPDEST PUSH0 DUP3 DUP3 SHR SWAP1 POP SWAP3 SWAP2 POP POP JUMP JUMPDEST PUSH0 PUSH2 0x145F PUSH0 NOT DUP5 PUSH1 0x8 MUL PUSH2 0x1444 JUMP JUMPDEST NOT DUP1 DUP4 AND SWAP2 POP POP SWAP3 SWAP2 POP POP JUMP JUMPDEST PUSH0 PUSH2 0x1477 DUP4 DUP4 PUSH2 0x1450 JUMP JUMPDEST SWAP2 POP DUP3 PUSH1 0x2 MUL DUP3 OR SWAP1 POP SWAP3 SWAP2 POP POP JUMP JUMPDEST PUSH2 0x1490 DUP3 PUSH2 0xEBB JUMP JUMPDEST PUSH8 0xFFFFFFFFFFFFFFFF DUP2 GT ISZERO PUSH2 0x14A9 JUMPI PUSH2 0x14A8 PUSH2 0xBE1 JUMP JUMPDEST JUMPDEST PUSH2 0x14B3 DUP3 SLOAD PUSH2 0x121C JUMP JUMPDEST PUSH2 0x14BE DUP3 DUP3 DUP6 PUSH2 0x13FE JUMP JUMPDEST PUSH0 PUSH1 0x20 SWAP1 POP PUSH1 0x1F DUP4 GT PUSH1 0x1 DUP2 EQ PUSH2 0x14EF JUMPI PUSH0 DUP5 ISZERO PUSH2 0x14DD JUMPI DUP3 DUP8 ADD MLOAD SWAP1 POP JUMPDEST PUSH2 0x14E7 DUP6 DUP3 PUSH2 0x146C JUMP JUMPDEST DUP7 SSTORE POP PUSH2 0x154E JUMP JUMPDEST PUSH1 0x1F NOT DUP5 AND PUSH2 0x14FD DUP7 PUSH2 0x12EA JUMP JUMPDEST PUSH0 JUMPDEST DUP3 DUP2 LT ISZERO PUSH2 0x1524 JUMPI DUP5 DUP10 ADD MLOAD DUP3 SSTORE PUSH1 0x1 DUP3 ADD SWAP2 POP PUSH1 0x20 DUP6 ADD SWAP5 POP PUSH1 0x20 DUP2 ADD SWAP1 POP PUSH2 0x14FF JUMP JUMPDEST DUP7 DUP4 LT ISZERO PUSH2 0x1541 JUMPI DUP5 DUP10 ADD MLOAD PUSH2 0x153D PUSH1 0x1F DUP10 AND DUP3 PUSH2 0x1450 JUMP JUMPDEST DUP4 SSTORE POP JUMPDEST PUSH1 0x1 PUSH1 0x2 DUP9 MUL ADD DUP9 SSTORE POP POP POP JUMPDEST POP POP POP POP POP POP JUMP JUMPDEST PUSH2 0x155F DUP2 PUSH2 0xB96 JUMP JUMPDEST DUP3 MSTORE POP POP JUMP JUMPDEST PUSH0 PUSH1 0x20 DUP3 ADD SWAP1 POP PUSH2 0x1578 PUSH0 DUP4 ADD DUP5 PUSH2 0x1556 JUMP JUMPDEST SWAP3 SWAP2 POP POP JUMP JUMPDEST PUSH32 0x4E487B7100000000000000000000000000000000000000000000000000000000 PUSH0 MSTORE PUSH1 0x32 PUSH1 0x4 MSTORE PUSH1 0x24 PUSH0 REVERT JUMPDEST PUSH32 0x4E487B7100000000000000000000000000000000000000000000000000000000 PUSH0 MSTORE PUSH1 0x11 PUSH1 0x4 MSTORE PUSH1 0x24 PUSH0 REVERT JUMPDEST PUSH0 PUSH2 0x15E2 DUP3 PUSH2 0xB96 JUMP JUMPDEST SWAP2 POP PUSH2 0x15ED DUP4 PUSH2 0xB96 JUMP JUMPDEST SWAP3 POP DUP3 DUP3 SUB SWAP1 POP DUP2 DUP2 GT ISZERO PUSH2 0x1605 JUMPI PUSH2 0x1604 PUSH2 0x15AB JUMP JUMPDEST JUMPDEST SWAP3 SWAP2 POP POP JUMP JUMPDEST PUSH32 0x4E487B7100000000000000000000000000000000000000000000000000000000 PUSH0 MSTORE PUSH1 0x31 PUSH1 0x4 MSTORE PUSH1 0x24 PUSH0 REVERT INVALID LOG2 PUSH5 0x6970667358 0x22 SLT KECCAK256 0xE5 0xC8 EQ POP EXTCODEHASH SHL CODECOPY REVERT SWAP15 PUSH16 0xF3FC473337D757480052735DD20B1549 0xE7 0xD6 0x25 0xD8 KECCAK256 CALLCODE PUSH5 0x736F6C6343 STOP ADDMOD BYTE STOP CALLER "
				},
				"gasEstimates": {
					"creation": {
						"codeDepositCost": "1148400",
						"executionCost": "infinite",
						"totalCost": "infinite"
					},
					"external": {
						"addContact(uint256,string,string,uint256[])": "infinite",
						"deleteContact(uint256)": "infinite",
						"getAllContacts()": "infinite",
						"getContact(uint256)": "infinite",
						"owner()": "2538",
						"renounceOwnership()": "infinite",
						"transferOwnership(address)": "infinite"
					}
				},
				"methodIdentifiers": {
					"addContact(uint256,string,string,uint256[])": "aa7396a2",
					"deleteContact(uint256)": "b9ed6fca",
					"getAllContacts()": "ef1d6ddd",
					"getContact(uint256)": "e6505e1e",
					"owner()": "8da5cb5b",
					"renounceOwnership()": "715018a6",
					"transferOwnership(address)": "f2fde38b"
				}
			},
			"storageLayout": {
				"storage": [
					{
						"astId": 240,
						"contract": "contracts/AddressBook.sol:AddressBook",
						"label": "_owner",
						"offset": 0,
						"slot": "0",
						"type": "t_address"
					},
					{
						"astId": 20,
						"contract": "contracts/AddressBook.sol:AddressBook",
						"label": "contacts",
						"offset": 0,
						"slot": "1",
						"type": "t_mapping(t_uint256,t_struct(Contact)15_storage)"
					},
					{
						"astId": 23,
						"contract": "contracts/AddressBook.sol:AddressBook",
						"label": "contactIds",
						"offset": 0,
						"slot": "2",
						"type": "t_array(t_uint256)dyn_storage"
					}
				],
				"types": {
					"t_address": {
						"encoding": "inplace",
						"label": "address",
						"numberOfBytes": "20"
					},
					"t_array(t_uint256)dyn_storage": {
						"base": "t_uint256",
						"encoding": "dynamic_array",
						"label": "uint256[]",
						"numberOfBytes": "32"
					},
					"t_mapping(t_uint256,t_struct(Contact)15_storage)": {
						"encoding": "mapping",
						"key": "t_uint256",
						"label": "mapping(uint256 => struct AddressBook.Contact)",
						"numberOfBytes": "32",
						"value": "t_struct(Contact)15_storage"
					},
					"t_string_storage": {
						"encoding": "bytes",
						"label": "string",
						"numberOfBytes": "32"
					},
					"t_struct(Contact)15_storage": {
						"encoding": "inplace",
						"label": "struct AddressBook.Contact",
						"members": [
							{
								"astId": 7,
								"contract": "contracts/AddressBook.sol:AddressBook",
								"label": "id",
								"offset": 0,
								"slot": "0",
								"type": "t_uint256"
							},
							{
								"astId": 9,
								"contract": "contracts/AddressBook.sol:AddressBook",
								"label": "firstName",
								"offset": 0,
								"slot": "1",
								"type": "t_string_storage"
							},
							{
								"astId": 11,
								"contract": "contracts/AddressBook.sol:AddressBook",
								"label": "lastName",
								"offset": 0,
								"slot": "2",
								"type": "t_string_storage"
							},
							{
								"astId": 14,
								"contract": "contracts/AddressBook.sol:AddressBook",
								"label": "phoneNumbers",
								"offset": 0,
								"slot": "3",
								"type": "t_array(t_uint256)dyn_storage"
							}
						],
						"numberOfBytes": "128"
					},
					"t_uint256": {
						"encoding": "inplace",
						"label": "uint256",
						"numberOfBytes": "32"
					}
				}
			},
			"userdoc": {
				"kind": "user",
				"methods": {},
				"version": 1
			}
		}
	}
}