{
	"data": {
		"bytecode": {
			"linkReferences": {},
			"object": "6080604052348015600e575f80fd5b506101df8061001c5f395ff3fe608060405234801561000f575f80fd5b5060043610610034575f3560e01c806306b034e9146100385780635270312a14610069575b5f80fd5b610052600480360381019061004d919061011b565b61009a565b604051610060929190610182565b60405180910390f35b610083600480360381019061007e919061011b565b6100bf565b604051610091929190610182565b60405180910390f35b5f8082840191508382106100b0575f90506100b8565b5f9150600190505b9250929050565b5f8082840391508284106100d5575f90506100dd565b5f9150600190505b9250929050565b5f80fd5b5f819050919050565b6100fa816100e8565b8114610104575f80fd5b50565b5f81359050610115816100f1565b92915050565b5f8060408385031215610131576101306100e4565b5b5f61013e85828601610107565b925050602061014f85828601610107565b9150509250929050565b610162816100e8565b82525050565b5f8115159050919050565b61017c81610168565b82525050565b5f6040820190506101955f830185610159565b6101a26020830184610173565b939250505056fea264697066735822122024e06d3b6f022eb666b94980647db22728e4b8a4d329d1e9e3dccd9805619a5764736f6c634300081a0033",
			"opcodes": "PUSH1 0x80 PUSH1 0x40 MSTORE CALLVALUE DUP1 ISZERO PUSH1 0xE JUMPI PUSH0 DUP1 REVERT JUMPDEST POP PUSH2 0x1DF DUP1 PUSH2 0x1C PUSH0 CODECOPY PUSH0 RETURN INVALID PUSH1 0x80 PUSH1 0x40 MSTORE CALLVALUE DUP1 ISZERO PUSH2 0xF JUMPI PUSH0 DUP1 REVERT JUMPDEST POP PUSH1 0x4 CALLDATASIZE LT PUSH2 0x34 JUMPI PUSH0 CALLDATALOAD PUSH1 0xE0 SHR DUP1 PUSH4 0x6B034E9 EQ PUSH2 0x38 JUMPI DUP1 PUSH4 0x5270312A EQ PUSH2 0x69 JUMPI JUMPDEST PUSH0 DUP1 REVERT JUMPDEST PUSH2 0x52 PUSH1 0x4 DUP1 CALLDATASIZE SUB DUP2 ADD SWAP1 PUSH2 0x4D SWAP2 SWAP1 PUSH2 0x11B JUMP JUMPDEST PUSH2 0x9A JUMP JUMPDEST PUSH1 0x40 MLOAD PUSH2 0x60 SWAP3 SWAP2 SWAP1 PUSH2 0x182 JUMP JUMPDEST PUSH1 0x40 MLOAD DUP1 SWAP2 SUB SWAP1 RETURN JUMPDEST PUSH2 0x83 PUSH1 0x4 DUP1 CALLDATASIZE SUB DUP2 ADD SWAP1 PUSH2 0x7E SWAP2 SWAP1 PUSH2 0x11B JUMP JUMPDEST PUSH2 0xBF JUMP JUMPDEST PUSH1 0x40 MLOAD PUSH2 0x91 SWAP3 SWAP2 SWAP1 PUSH2 0x182 JUMP JUMPDEST PUSH1 0x40 MLOAD DUP1 SWAP2 SUB SWAP1 RETURN JUMPDEST PUSH0 DUP1 DUP3 DUP5 ADD SWAP2 POP DUP4 DUP3 LT PUSH2 0xB0 JUMPI PUSH0 SWAP1 POP PUSH2 0xB8 JUMP JUMPDEST PUSH0 SWAP2 POP PUSH1 0x1 SWAP1 POP JUMPDEST SWAP3 POP SWAP3 SWAP1 POP JUMP JUMPDEST PUSH0 DUP1 DUP3 DUP5 SUB SWAP2 POP DUP3 DUP5 LT PUSH2 0xD5 JUMPI PUSH0 SWAP1 POP PUSH2 0xDD JUMP JUMPDEST PUSH0 SWAP2 POP PUSH1 0x1 SWAP1 POP JUMPDEST SWAP3 POP SWAP3 SWAP1 POP JUMP JUMPDEST PUSH0 DUP1 REVERT JUMPDEST PUSH0 DUP2 SWAP1 POP SWAP2 SWAP1 POP JUMP JUMPDEST PUSH2 0xFA DUP2 PUSH2 0xE8 JUMP JUMPDEST DUP2 EQ PUSH2 0x104 JUMPI PUSH0 DUP1 REVERT JUMPDEST POP JUMP JUMPDEST PUSH0 DUP2 CALLDATALOAD SWAP1 POP PUSH2 0x115 DUP2 PUSH2 0xF1 JUMP JUMPDEST SWAP3 SWAP2 POP POP JUMP JUMPDEST PUSH0 DUP1 PUSH1 0x40 DUP4 DUP6 SUB SLT ISZERO PUSH2 0x131 JUMPI PUSH2 0x130 PUSH2 0xE4 JUMP JUMPDEST JUMPDEST PUSH0 PUSH2 0x13E DUP6 DUP3 DUP7 ADD PUSH2 0x107 JUMP JUMPDEST SWAP3 POP POP PUSH1 0x20 PUSH2 0x14F DUP6 DUP3 DUP7 ADD PUSH2 0x107 JUMP JUMPDEST SWAP2 POP POP SWAP3 POP SWAP3 SWAP1 POP JUMP JUMPDEST PUSH2 0x162 DUP2 PUSH2 0xE8 JUMP JUMPDEST DUP3 MSTORE POP POP JUMP JUMPDEST PUSH0 DUP2 ISZERO ISZERO SWAP1 POP SWAP2 SWAP1 POP JUMP JUMPDEST PUSH2 0x17C DUP2 PUSH2 0x168 JUMP JUMPDEST DUP3 MSTORE POP POP JUMP JUMPDEST PUSH0 PUSH1 0x40 DUP3 ADD SWAP1 POP PUSH2 0x195 PUSH0 DUP4 ADD DUP6 PUSH2 0x159 JUMP JUMPDEST PUSH2 0x1A2 PUSH1 0x20 DUP4 ADD DUP5 PUSH2 0x173 JUMP JUMPDEST SWAP4 SWAP3 POP POP POP JUMP INVALID LOG2 PUSH5 0x6970667358 0x22 SLT KECCAK256 0x24 0xE0 PUSH14 0x3B6F022EB666B94980647DB22728 0xE4 0xB8 LOG4 0xD3 0x29 0xD1 0xE9 0xE3 0xDC 0xCD SWAP9 SDIV PUSH2 0x9A57 PUSH5 0x736F6C6343 STOP ADDMOD BYTE STOP CALLER "
		},
		"gasEstimates": {
			"creation": {
				"codeDepositCost": "95800",
				"executionCost": "139",
				"totalCost": "95939"
			},
			"external": {
				"adder(uint256,uint256)": "infinite",
				"subtractor(uint256,uint256)": "infinite"
			}
		},
		"methodIdentifiers": {
			"adder(uint256,uint256)": "06b034e9",
			"subtractor(uint256,uint256)": "5270312a"
		}
	},
	"abi": [
		{
			"inputs": [
				{
					"internalType": "uint256",
					"name": "_a",
					"type": "uint256"
				},
				{
					"internalType": "uint256",
					"name": "_b",
					"type": "uint256"
				}
			],
			"name": "adder",
			"outputs": [
				{
					"internalType": "uint256",
					"name": "sum",
					"type": "uint256"
				},
				{
					"internalType": "bool",
					"name": "error",
					"type": "bool"
				}
			],
			"stateMutability": "pure",
			"type": "function"
		},
		{
			"inputs": [
				{
					"internalType": "uint256",
					"name": "_a",
					"type": "uint256"
				},
				{
					"internalType": "uint256",
					"name": "_b",
					"type": "uint256"
				}
			],
			"name": "subtractor",
			"outputs": [
				{
					"internalType": "uint256",
					"name": "difference",
					"type": "uint256"
				},
				{
					"internalType": "bool",
					"name": "error",
					"type": "bool"
				}
			],
			"stateMutability": "pure",
			"type": "function"
		}
	]
}