{
	"data": {
		"bytecode": {
			"linkReferences": {},
			"object": "6080604052348015600e575f80fd5b506105ed8061001c5f395ff3fe608060405234801561000f575f80fd5b5060043610610034575f3560e01c8063440c93e214610038578063e655b7bb14610068575b5f80fd5b610052600480360381019061004d91906103e2565b610098565b60405161005f919061047d565b60405180910390f35b610082600480360381019061007d91906103e2565b6101c8565b60405161008f919061047d565b60405180910390f35b60605f600f836100a891906104ca565b036100ea576040518060400160405280600881526020017f46697a7a42757a7a00000000000000000000000000000000000000000000000081525090506101c3565b5f6003836100f891906104ca565b0361013a576040518060400160405280600481526020017f46697a7a0000000000000000000000000000000000000000000000000000000081525090506101c3565b5f60058361014891906104ca565b0361018a576040518060400160405280600481526020017f42757a7a0000000000000000000000000000000000000000000000000000000081525090506101c3565b6040518060400160405280600581526020017f53706c617400000000000000000000000000000000000000000000000000000081525090505b919050565b606061096082106101e6575f6101e1576101e06104fa565b5b6103a5565b6108988211806101f7575061032082105b1561023957816040517fa4bf701e0000000000000000000000000000000000000000000000000000000081526004016102309190610536565b60405180910390fd5b6104b0821015801561024d57506104eb8211155b1561028d576040517f08c379a000000000000000000000000000000000000000000000000000000000815260040161028490610599565b60405180910390fd5b61032082101580156102a157506104af8211155b156102e3576040518060400160405280600881526020017f4d6f726e696e672100000000000000000000000000000000000000000000000081525090506103a6565b61051482101580156102f757506107078211155b15610339576040518060400160405280600a81526020017f41667465726e6f6f6e210000000000000000000000000000000000000000000081525090506103a6565b610708821015801561034d57506108988211155b1561038f576040518060400160405280600881526020017f4576656e696e672100000000000000000000000000000000000000000000000081525090506103a6565b60405180602001604052805f81525090506103a6565b5b919050565b5f80fd5b5f819050919050565b6103c1816103af565b81146103cb575f80fd5b50565b5f813590506103dc816103b8565b92915050565b5f602082840312156103f7576103f66103ab565b5b5f610404848285016103ce565b91505092915050565b5f81519050919050565b5f82825260208201905092915050565b8281835e5f83830152505050565b5f601f19601f8301169050919050565b5f61044f8261040d565b6104598185610417565b9350610469818560208601610427565b61047281610435565b840191505092915050565b5f6020820190508181035f8301526104958184610445565b905092915050565b7f4e487b71000000000000000000000000000000000000000000000000000000005f52601260045260245ffd5b5f6104d4826103af565b91506104df836103af565b9250826104ef576104ee61049d565b5b828206905092915050565b7f4e487b71000000000000000000000000000000000000000000000000000000005f52600160045260245ffd5b610530816103af565b82525050565b5f6020820190506105495f830184610527565b92915050565b7f4174206c756e63682100000000000000000000000000000000000000000000005f82015250565b5f610583600983610417565b915061058e8261054f565b602082019050919050565b5f6020820190508181035f8301526105b081610577565b905091905056fea2646970667358221220878296d9278d6920b826d89357fc983162b6c402a39a3021fee2f8964d6a276f64736f6c634300081a0033",
			"opcodes": "PUSH1 0x80 PUSH1 0x40 MSTORE CALLVALUE DUP1 ISZERO PUSH1 0xE JUMPI PUSH0 DUP1 REVERT JUMPDEST POP PUSH2 0x5ED DUP1 PUSH2 0x1C PUSH0 CODECOPY PUSH0 RETURN INVALID PUSH1 0x80 PUSH1 0x40 MSTORE CALLVALUE DUP1 ISZERO PUSH2 0xF JUMPI PUSH0 DUP1 REVERT JUMPDEST POP PUSH1 0x4 CALLDATASIZE LT PUSH2 0x34 JUMPI PUSH0 CALLDATALOAD PUSH1 0xE0 SHR DUP1 PUSH4 0x440C93E2 EQ PUSH2 0x38 JUMPI DUP1 PUSH4 0xE655B7BB EQ PUSH2 0x68 JUMPI JUMPDEST PUSH0 DUP1 REVERT JUMPDEST PUSH2 0x52 PUSH1 0x4 DUP1 CALLDATASIZE SUB DUP2 ADD SWAP1 PUSH2 0x4D SWAP2 SWAP1 PUSH2 0x3E2 JUMP JUMPDEST PUSH2 0x98 JUMP JUMPDEST PUSH1 0x40 MLOAD PUSH2 0x5F SWAP2 SWAP1 PUSH2 0x47D JUMP JUMPDEST PUSH1 0x40 MLOAD DUP1 SWAP2 SUB SWAP1 RETURN JUMPDEST PUSH2 0x82 PUSH1 0x4 DUP1 CALLDATASIZE SUB DUP2 ADD SWAP1 PUSH2 0x7D SWAP2 SWAP1 PUSH2 0x3E2 JUMP JUMPDEST PUSH2 0x1C8 JUMP JUMPDEST PUSH1 0x40 MLOAD PUSH2 0x8F SWAP2 SWAP1 PUSH2 0x47D JUMP JUMPDEST PUSH1 0x40 MLOAD DUP1 SWAP2 SUB SWAP1 RETURN JUMPDEST PUSH1 0x60 PUSH0 PUSH1 0xF DUP4 PUSH2 0xA8 SWAP2 SWAP1 PUSH2 0x4CA JUMP JUMPDEST SUB PUSH2 0xEA JUMPI PUSH1 0x40 MLOAD DUP1 PUSH1 0x40 ADD PUSH1 0x40 MSTORE DUP1 PUSH1 0x8 DUP2 MSTORE PUSH1 0x20 ADD PUSH32 0x46697A7A42757A7A000000000000000000000000000000000000000000000000 DUP2 MSTORE POP SWAP1 POP PUSH2 0x1C3 JUMP JUMPDEST PUSH0 PUSH1 0x3 DUP4 PUSH2 0xF8 SWAP2 SWAP1 PUSH2 0x4CA JUMP JUMPDEST SUB PUSH2 0x13A JUMPI PUSH1 0x40 MLOAD DUP1 PUSH1 0x40 ADD PUSH1 0x40 MSTORE DUP1 PUSH1 0x4 DUP2 MSTORE PUSH1 0x20 ADD PUSH32 0x46697A7A00000000000000000000000000000000000000000000000000000000 DUP2 MSTORE POP SWAP1 POP PUSH2 0x1C3 JUMP JUMPDEST PUSH0 PUSH1 0x5 DUP4 PUSH2 0x148 SWAP2 SWAP1 PUSH2 0x4CA JUMP JUMPDEST SUB PUSH2 0x18A JUMPI PUSH1 0x40 MLOAD DUP1 PUSH1 0x40 ADD PUSH1 0x40 MSTORE DUP1 PUSH1 0x4 DUP2 MSTORE PUSH1 0x20 ADD PUSH32 0x42757A7A00000000000000000000000000000000000000000000000000000000 DUP2 MSTORE POP SWAP1 POP PUSH2 0x1C3 JUMP JUMPDEST PUSH1 0x40 MLOAD DUP1 PUSH1 0x40 ADD PUSH1 0x40 MSTORE DUP1 PUSH1 0x5 DUP2 MSTORE PUSH1 0x20 ADD PUSH32 0x53706C6174000000000000000000000000000000000000000000000000000000 DUP2 MSTORE POP SWAP1 POP JUMPDEST SWAP2 SWAP1 POP JUMP JUMPDEST PUSH1 0x60 PUSH2 0x960 DUP3 LT PUSH2 0x1E6 JUMPI PUSH0 PUSH2 0x1E1 JUMPI PUSH2 0x1E0 PUSH2 0x4FA JUMP JUMPDEST JUMPDEST PUSH2 0x3A5 JUMP JUMPDEST PUSH2 0x898 DUP3 GT DUP1 PUSH2 0x1F7 JUMPI POP PUSH2 0x320 DUP3 LT JUMPDEST ISZERO PUSH2 0x239 JUMPI DUP2 PUSH1 0x40 MLOAD PUSH32 0xA4BF701E00000000000000000000000000000000000000000000000000000000 DUP2 MSTORE PUSH1 0x4 ADD PUSH2 0x230 SWAP2 SWAP1 PUSH2 0x536 JUMP JUMPDEST PUSH1 0x40 MLOAD DUP1 SWAP2 SUB SWAP1 REVERT JUMPDEST PUSH2 0x4B0 DUP3 LT ISZERO DUP1 ISZERO PUSH2 0x24D JUMPI POP PUSH2 0x4EB DUP3 GT ISZERO JUMPDEST ISZERO PUSH2 0x28D JUMPI PUSH1 0x40 MLOAD PUSH32 0x8C379A000000000000000000000000000000000000000000000000000000000 DUP2 MSTORE PUSH1 0x4 ADD PUSH2 0x284 SWAP1 PUSH2 0x599 JUMP JUMPDEST PUSH1 0x40 MLOAD DUP1 SWAP2 SUB SWAP1 REVERT JUMPDEST PUSH2 0x320 DUP3 LT ISZERO DUP1 ISZERO PUSH2 0x2A1 JUMPI POP PUSH2 0x4AF DUP3 GT ISZERO JUMPDEST ISZERO PUSH2 0x2E3 JUMPI PUSH1 0x40 MLOAD DUP1 PUSH1 0x40 ADD PUSH1 0x40 MSTORE DUP1 PUSH1 0x8 DUP2 MSTORE PUSH1 0x20 ADD PUSH32 0x4D6F726E696E6721000000000000000000000000000000000000000000000000 DUP2 MSTORE POP SWAP1 POP PUSH2 0x3A6 JUMP JUMPDEST PUSH2 0x514 DUP3 LT ISZERO DUP1 ISZERO PUSH2 0x2F7 JUMPI POP PUSH2 0x707 DUP3 GT ISZERO JUMPDEST ISZERO PUSH2 0x339 JUMPI PUSH1 0x40 MLOAD DUP1 PUSH1 0x40 ADD PUSH1 0x40 MSTORE DUP1 PUSH1 0xA DUP2 MSTORE PUSH1 0x20 ADD PUSH32 0x41667465726E6F6F6E2100000000000000000000000000000000000000000000 DUP2 MSTORE POP SWAP1 POP PUSH2 0x3A6 JUMP JUMPDEST PUSH2 0x708 DUP3 LT ISZERO DUP1 ISZERO PUSH2 0x34D JUMPI POP PUSH2 0x898 DUP3 GT ISZERO JUMPDEST ISZERO PUSH2 0x38F JUMPI PUSH1 0x40 MLOAD DUP1 PUSH1 0x40 ADD PUSH1 0x40 MSTORE DUP1 PUSH1 0x8 DUP2 MSTORE PUSH1 0x20 ADD PUSH32 0x4576656E696E6721000000000000000000000000000000000000000000000000 DUP2 MSTORE POP SWAP1 POP PUSH2 0x3A6 JUMP JUMPDEST PUSH1 0x40 MLOAD DUP1 PUSH1 0x20 ADD PUSH1 0x40 MSTORE DUP1 PUSH0 DUP2 MSTORE POP SWAP1 POP PUSH2 0x3A6 JUMP JUMPDEST JUMPDEST SWAP2 SWAP1 POP JUMP JUMPDEST PUSH0 DUP1 REVERT JUMPDEST PUSH0 DUP2 SWAP1 POP SWAP2 SWAP1 POP JUMP JUMPDEST PUSH2 0x3C1 DUP2 PUSH2 0x3AF JUMP JUMPDEST DUP2 EQ PUSH2 0x3CB JUMPI PUSH0 DUP1 REVERT JUMPDEST POP JUMP JUMPDEST PUSH0 DUP2 CALLDATALOAD SWAP1 POP PUSH2 0x3DC DUP2 PUSH2 0x3B8 JUMP JUMPDEST SWAP3 SWAP2 POP POP JUMP JUMPDEST PUSH0 PUSH1 0x20 DUP3 DUP5 SUB SLT ISZERO PUSH2 0x3F7 JUMPI PUSH2 0x3F6 PUSH2 0x3AB JUMP JUMPDEST JUMPDEST PUSH0 PUSH2 0x404 DUP5 DUP3 DUP6 ADD PUSH2 0x3CE JUMP JUMPDEST SWAP2 POP POP SWAP3 SWAP2 POP POP JUMP JUMPDEST PUSH0 DUP2 MLOAD SWAP1 POP SWAP2 SWAP1 POP JUMP JUMPDEST PUSH0 DUP3 DUP3 MSTORE PUSH1 0x20 DUP3 ADD SWAP1 POP SWAP3 SWAP2 POP POP JUMP JUMPDEST DUP3 DUP2 DUP4 MCOPY PUSH0 DUP4 DUP4 ADD MSTORE POP POP POP JUMP JUMPDEST PUSH0 PUSH1 0x1F NOT PUSH1 0x1F DUP4 ADD AND SWAP1 POP SWAP2 SWAP1 POP JUMP JUMPDEST PUSH0 PUSH2 0x44F DUP3 PUSH2 0x40D JUMP JUMPDEST PUSH2 0x459 DUP2 DUP6 PUSH2 0x417 JUMP JUMPDEST SWAP4 POP PUSH2 0x469 DUP2 DUP6 PUSH1 0x20 DUP7 ADD PUSH2 0x427 JUMP JUMPDEST PUSH2 0x472 DUP2 PUSH2 0x435 JUMP JUMPDEST DUP5 ADD SWAP2 POP POP SWAP3 SWAP2 POP POP JUMP JUMPDEST PUSH0 PUSH1 0x20 DUP3 ADD SWAP1 POP DUP2 DUP2 SUB PUSH0 DUP4 ADD MSTORE PUSH2 0x495 DUP2 DUP5 PUSH2 0x445 JUMP JUMPDEST SWAP1 POP SWAP3 SWAP2 POP POP JUMP JUMPDEST PUSH32 0x4E487B7100000000000000000000000000000000000000000000000000000000 PUSH0 MSTORE PUSH1 0x12 PUSH1 0x4 MSTORE PUSH1 0x24 PUSH0 REVERT JUMPDEST PUSH0 PUSH2 0x4D4 DUP3 PUSH2 0x3AF JUMP JUMPDEST SWAP2 POP PUSH2 0x4DF DUP4 PUSH2 0x3AF JUMP JUMPDEST SWAP3 POP DUP3 PUSH2 0x4EF JUMPI PUSH2 0x4EE PUSH2 0x49D JUMP JUMPDEST JUMPDEST DUP3 DUP3 MOD SWAP1 POP SWAP3 SWAP2 POP POP JUMP JUMPDEST PUSH32 0x4E487B7100000000000000000000000000000000000000000000000000000000 PUSH0 MSTORE PUSH1 0x1 PUSH1 0x4 MSTORE PUSH1 0x24 PUSH0 REVERT JUMPDEST PUSH2 0x530 DUP2 PUSH2 0x3AF JUMP JUMPDEST DUP3 MSTORE POP POP JUMP JUMPDEST PUSH0 PUSH1 0x20 DUP3 ADD SWAP1 POP PUSH2 0x549 PUSH0 DUP4 ADD DUP5 PUSH2 0x527 JUMP JUMPDEST SWAP3 SWAP2 POP POP JUMP JUMPDEST PUSH32 0x4174206C756E6368210000000000000000000000000000000000000000000000 PUSH0 DUP3 ADD MSTORE POP JUMP JUMPDEST PUSH0 PUSH2 0x583 PUSH1 0x9 DUP4 PUSH2 0x417 JUMP JUMPDEST SWAP2 POP PUSH2 0x58E DUP3 PUSH2 0x54F JUMP JUMPDEST PUSH1 0x20 DUP3 ADD SWAP1 POP SWAP2 SWAP1 POP JUMP JUMPDEST PUSH0 PUSH1 0x20 DUP3 ADD SWAP1 POP DUP2 DUP2 SUB PUSH0 DUP4 ADD MSTORE PUSH2 0x5B0 DUP2 PUSH2 0x577 JUMP JUMPDEST SWAP1 POP SWAP2 SWAP1 POP JUMP INVALID LOG2 PUSH5 0x6970667358 0x22 SLT KECCAK256 DUP8 DUP3 SWAP7 0xD9 0x27 DUP14 PUSH10 0x20B826D89357FC983162 0xB6 0xC4 MUL LOG3 SWAP11 ADDRESS 0x21 INVALID 0xE2 0xF8 SWAP7 0x4D PUSH11 0x276F64736F6C634300081A STOP CALLER "
		},
		"gasEstimates": {
			"creation": {
				"codeDepositCost": "303400",
				"executionCost": "341",
				"totalCost": "303741"
			},
			"external": {
				"doNotDisturb(uint256)": "infinite",
				"fizzBuzz(uint256)": "infinite"
			}
		},
		"methodIdentifiers": {
			"doNotDisturb(uint256)": "e655b7bb",
			"fizzBuzz(uint256)": "440c93e2"
		}
	},
	"abi": [
		{
			"inputs": [
				{
					"internalType": "uint256",
					"name": "time",
					"type": "uint256"
				}
			],
			"name": "AfterHours",
			"type": "error"
		},
		{
			"inputs": [
				{
					"internalType": "uint256",
					"name": "_time",
					"type": "uint256"
				}
			],
			"name": "doNotDisturb",
			"outputs": [
				{
					"internalType": "string",
					"name": "",
					"type": "string"
				}
			],
			"stateMutability": "pure",
			"type": "function"
		},
		{
			"inputs": [
				{
					"internalType": "uint256",
					"name": "_number",
					"type": "uint256"
				}
			],
			"name": "fizzBuzz",
			"outputs": [
				{
					"internalType": "string",
					"name": "",
					"type": "string"
				}
			],
			"stateMutability": "pure",
			"type": "function"
		}
	]
}